:020000040800F2
:10000000A00D00200D520008F54F0008F74F000822
:10001000F94F0008FB4F0008FD4F000800000000EA
:10002000000000000000000000000000FF4F00087A
:1000300001500008000000000350000805500008AF
:1000400075520008795200087D520008815200085C
:1000500085520008895200088D520008115000088E
:100060009152000895520008175000089952000854
:100070009D520008A1520008A5520008A95200088C
:10008000AD520008B1520008B5520008B95200083C
:10009000BD520008C1520008C55200081D5000089A
:1000A000C9520008CD520008D1520008D5520008AC
:1000B000D9520008DD520008E1520008E55200085C
:1000C000E9520008ED520008F1520008F55200080C
:1000D000F9520008FD520008255000082B50000876
:1000E0003150000801530008055300080953000867
:1000F0000D53000811530008155300081953000848
:100100001D530008215300082553000829530008F7
:10011000475000082D53000831530008355300089C
:100120004D500008395300083D5300084153000862
:10013000455300080000000000000000495300087B
:100140004D530008515300085553000859530008F7
:100150005D530008615300086553000853500008C0
:10016000695300086D530008715300087553000867
:10017000795300087D5300080000000000000000D3
:1001800081530008855300081FB500F034F801AC16
:1001900000220E210120ADF800208DF804106070BF
:1001A0008DF8060000F02BF8BDF80000E07000218B
:1001B000217101A8052100F0F7FA09220FF60C01C0
:1001C000DFF8C847012000F07DFCA28820680021EC
:1001D00000F071FC0020A0800121DFF8B44704F199
:1001E0001C0000F08BFC0B2104F11C0000F08EFCC5
:1001F000012004B010BD052101A800F097BC032226
:1002000001A9684600F0B2BC38B50446DFF884574F
:1002100001220121284600F051FE012000F07AFE63
:1002200000220121284600F049FE2146DFF8680738
:1002300000F06CFC012032BD10B50146DFF84C0720
:10024000DFF84C27808868B1DFF850371C8884427B
:1002500007D100201880022102F11C0000F04EFCA2
:1002600004E0188002F11C0000F050FC012010BDD9
:100270002DE9F843DFF81467B0883168DFF810978C
:100280000A180024921EADF8004053781578821E9B
:1002900045EA032592B2684600F068FCBDF800000C
:1002A000A842A04637D100F049FE05210FF2287080
:1002B00000F07AFA00F01CFBB288DFF8E406027066
:1002C0000021306800F0F7FB0020B080012109F127
:1002D0001C0000F013FC0120BDE8F283555D012DE8
:1002E0001C4618D19BB25D1CA94214DB9CF804107B
:1002F00081B9012589F818508CF800108CF8045049
:100300000021D25C8CF802208CF801508CF805504A
:1003100000F0F4FB641CB188A7B2891EB81C8142AE
:10032000C0F2F7803268DFF87C06D75DDFF878C668
:10033000DFF878E6641C631C0B2FA5B200F08F80F9
:100340000C2F00F0BD800D2F00F0C2800E2F2DD09D
:10035000152F68D0162FC1D0202F06D0212F32D0D4
:10036000222F42D0232F50D0D5E7555D022D1C46B9
:10037000D1D19BB29D1CA942CDDB9CF8041099B948
:100380004FF0010889F818808CF800808CF8048000
:10039000D15C8CF80210521C0021D35C8CF8013027
:1003A0008CF8051000F0AAFBA41CB4E700F0B8F824
:1003B000B1D1A0B2401C8142ADDB082109F11C0083
:1003C00000F09CFBA7E700F0ABF8A4D1A0B2431C5F
:1003D0009942A0DB115C02299DDA01230122012050
:1003E00000F06EFE00F0C6FE94E700F099F892D19E
:1003F000A0B2431C99428EDB115C02298BDA0123E7
:100400000122052000F05CFE84E700F089F882D12B
:10041000A0B2431C9942EEDB115C0229EEDA012303
:1004200001220620DCE7505D03281C46EFD1A0B274
:10043000C31C9942DFDB115CDFF874351980641C42
:100440000902A5B21980641C505D01431980A1B254
:10045000641C525CDFF85C059A700321B0E7505DC4
:100460001C46024612FA84F29142C4DBDEF80030E8
:100470000021AEF804100B221A70BEF80410DEF84A
:100480000020491CAEF8041089B25054BEF8041084
:10049000491CAEF804100EE03168A2B2641C8B5CFB
:1004A000DEF80020BEF804105354401EBEF80420AD
:1004B000521CAEF80420C1B20029EDD104217DE721
:1004C000505D1C4610FA84F0814294DB062175E7EA
:1004D000505D1C46024612FA84F291428BDB0021E9
:1004E000AEF80C1010E0BEF80C1014290BDA3268CC
:1004F000DEF80850A3B2641CD25C6A54BEF80C103B
:10050000491CAEF80C10401EC1B20029EBD10521E8
:1005100054E7B8F1000F3FF4CDAE0221CDA0C7E6FD
:10052000505D01281C46704730B50446DFF8605422
:100530004EF66020686587B01921684600F0F6FA2B
:10054000684600F044F90146684600F02DF921465E
:1005500000F0DAF8012007B030BD1CB50020DFF84C
:100560004C44A2882168ADF80000684600F0FEFA0D
:100570002168A288BDF8000088540021A088226864
:10058000401CA08080B21154A1882068491CA18021
:10059000C9B200F009F9012016BD2DE9F84187B074
:1005A000182101A8DFF8047400F0C0FAAA218DF820
:1005B000041001ACB88960700022ADF8002002255B
:1005C000002106E0BA68CBB23546D25C04F80820B8
:1005D000491C6E1CCAB282425FFA85F8F2D34FF40E
:1005E000005000F061FFBA89921C92B24FF40051A2
:1005F00001A800F0ECFF0D208DF80400EAB2FFF72F
:10060000FFFDBDF8000004F8080000F02CF8012000
:1006100008B0BDE8F081F0B587B01821FFF7ECFD18
:100620000C218DF804100022DFF88003ADF80020C3
:1006300001AC818961700222002304E08268D25DEE
:1006400062555B1C3246561CDFB28F42D5B2F5D3E1
:10065000D2B2FFF7D5FDBDF80000605500F003F8F9
:10066000012007B0F0BDF2B20021A154761CF1B216
:1006700001A899E07FB50446C54D05F5207001F04D
:100680007AF818BB4FF47A7000F044FCFFF7B3FD22
:1006900001AE00210E220120ADF800108DF80420DB
:1006A00070708DF80610FFF7AAFDBDF80000F0701D
:1006B00000218DF8081001A8052100F070FA0A2227
:1006C000C7A1012000F0FEF900F0FBFA00F067F886
:1006D000012004B070BD70B5AD4D044605F520761F
:1006E000304601F048F850B101222946304601F069
:1006F00021F8297D284600F052FA0A2100E021461F
:1007000000F002F8012070BD05F11C0000F0FEB9F8
:1007100038B59F4C04F52075284601F02CF828B90F
:10072000092104F11C0000F0E9F90DE00122214645
:10073000284600F0FFFF217D204600F030FA0A2114
:1007400004F11C0000F0E2F9012032BD38B5904DF3
:100750000446287E002804BF687E00281BD1E87E5E
:10076000002804BFA87E002815D101F007F8296DE4
:10077000401A4AF6C87290420DD30821FFF7C4FF11
:10078000012105F11C0000F0CBF9022105F11C004C
:1007900000F0C6F901E000F002F8012032BD214668
:1007A00005F11C0000F0AAB980B586B000228DF8D2
:1007B000141003E0835C0DF80230521C8A42F9DB0E
:1007C000002269467C4800F086FF07B000BD1CB5DA
:1007D00004460020ADF800000A21217060707748BF
:1007E000C179A17076498A78E2708B792371CA79D0
:1007F00062714B79A3711023C978E1717149B1F924
:10080000002012122272098861726F49B1F900202A
:100810001212A272FF220988E17222738188090AEA
:1008200061738188A1734288120AE273122241889F
:1008300021742146807960746370684600F096F9EF
:10084000BDF80000A0741420BDF80010090AE1747E
:1008500016BD00004F4B00004D4800F1DC0315228F
:10086000142100F5207000F025BF70B586B0162168
:10087000684600F05BF916224FF40051684600F01C
:10088000C4FE9DF80020494CAA2A0DF102000FD1A8
:100890009DF801100022A281D3B28B4225DAA5680F
:1008A000A689C35CAB55521CA3895B1CA381F3E7EB
:1008B000AA228DF800200021A2898DF8012003E0F2
:1008C000A3685D5C4554491C9142F9DB4FF400502C
:1008D00000F0EAFD012000F01DFBA289921C92B2FB
:1008E0004FF40051684600F072FE06B070BD000083
:1008F00018B58FB05FF013023CA1022000F0E2F8BF
:10090000322102A800F012F940A102ACD1E9002383
:100910001E498888CDE900231928009406DA684624
:1009200000F0A7F8BDF80420009902E05FF00B0288
:1009300033A1022000F0C6F8032213A1022000F028
:10094000C1F810B010BD70B500240025104800EBB0
:100950000516727F012A11D1306A012430B100F0EE
:100960000DFF316A726A401A904207D300207077F7
:1009700000F004FF3062E8B2B16A88476D1C0C2DAC
:10098000E4DB204670BD00000D0A0000C805002011
:100990009801002000080240B401002098090020BE
:1009A0009D0900204400002074090020300400202C
:1009B00090090020CC0400201804002088010020A9
:1009C000800900204C050020500500204F4E5F4D4F
:1009D00043550D0A000000004552524F52000000DE
:1009E0004F46465F4D43550D0A0000006170705F31
:1009F00070635F626F783A20526563763A20000038
:100A000044617461204C6172676500000000000061
:100A10000000000010B5DFF8DC200C46116800F083
:100A200005F8A0428041C043C00F10BD814204D2EE
:100A30004FF0FF32101A08187047081A704738B57F
:100A4000034600208DF80000002207E0E4B2002AEF
:100A50001ABF0A2505FB00402046521C8A4207DACD
:100A60009C5CA4F130050A2D34BF303C0024EDE736
:100A700032BD30B500220FE004F812300B689C5CE8
:100A8000056804F00F0405EB42030A2CACBF3734B1
:100A90003034521C5C7092B28B889A4208DA0B6830
:100AA0009B5C04681B090A2BB4BF30333733E3E780
:100AB0005B00838030BD130003D00A46194600F066
:100AC00063BE7047032804DA4FF47A730A4800F0D3
:100AD000A0BE704738B500F006F882B2294620461D
:100AE000BDE83840EEE704460D46284601F0C4B99B
:100AF0000000000094090020A408002000EB011071
:100B000001210022417042600120704710B500EBC6
:100B100001140120607000F031FE6060012010BD02
:100B200000EB01100022427001207047002201F00A
:100B3000ADB930B4002513E050F8042BD30744BFFF
:100B4000A9F101039A18091F042942F8045BFAD29B
:100B500013468C0744BF15809B1CC90748BF1D70F6
:100B600050F8041B0029E7D130BC704770B5002352
:100B7000038000240FE005880B5D5D4008236E08AC
:100B8000ED0752BF354686F4204585F001055B1E12
:100B9000F5D10580641C9442EDDB012070BD0A464E
:100BA00001464FF47A734E4800F033BE010015D071
:100BB000FF2801D10A207047FE2801D16420704728
:100BC000FD2802D14FF47A707047FC2802D142F21E
:100BD00010707047FB2801D14248704701207047D0
:100BE00010B504460846FFF7E1FF0A2114FB01F1A6
:100BF00091FBF0F000B210BD70B50A4600230A2444
:100C0000002A06D52D2152420170012301E00A2558
:100C10006C43B2FBF4F10029F9D10A21B4FBF1F1E4
:100C20000BE0B2FBF1F4DEB204F1300501FB14225B
:100C300085550A245B1CB1FBF4F10029F1D1D8B22F
:100C400070BD2DE9F04100260029054690464CBFB5
:100C50004C420C46FFF7D0FF07464046FFF7A6FF81
:100C600001460A208C4203D2444306F10106F9D121
:100C70006A1E022920D20A20B1FBF0F0394658B191
:100C80000A23B0FBF3F0CBB2491ED45CEC5400282D
:100C9000F5D1C9B22E2068547F1CF8B2BDE8F081AE
:100CA0002B54401EC0B2135C2D2B18BF0028F7D167
:100CB00030232B547F1C761EF0B20028DBD0F8B214
:100CC000F1E772B6BFF34F8F074908480A6802F48C
:100CD000E06202430A60BFF34F8F00BFFDE70000F0
:100CE000E8080020A08601000CED00E00400FA05F1
:100CF0002DE9F84F0D4600267A497B4A0F2304461A
:100D000001202F68B04000EA0708804540F0CA8003
:100D10004FEA460C032707FA0CF76FEA070E6F68D5
:100D200007F00309B9F1010F1CBF07F00307022FF9
:100D300012D1A768D5F80C900EEA070709FA0CF94A
:100D400049EA0707A760676827EA00006F68C7F3EA
:100D50000017B74038436060B0002F7907F00307F1
:100D6000032F21D0E768D5F808900EEA070709FAA3
:100D70000CF949EA0707E7602F7907F00307022F0C
:100D800012D1F70804EB870700F01C09D7F820A060
:100D900003FA09FB2AEA0B0AD5F810B00BFA09F995
:100DA00049EA0A09C7F8209027680EEA070E2F794A
:100DB00007F0030707FA0CF747EA0E0727606F688A
:100DC00017F4403F6ED0002700974FEA960C176843
:100DD00047F48047176000F00C00176807F480475D
:100DE000009703FA00FE009F404F57F82C7027EA47
:100DF0000E0E3F4FBC4208BF002722D03D4FBC42E1
:100E000008BF01271DD03C4FBC4208BF022718D0A5
:100E10003A4FBC4208BF032713D0394FBC4208BF2A
:100E200004270ED0374FBC4208BF052709D0364FE4
:100E3000BC4208BF062704D0344FBC420CBF072772
:100E4000082707FA00F0294F40EA0E0047F82C0067
:100E50006FEA08008F6800EA070C6F68FF0248BF5E
:100E600048EA0C0CC1F808C0CF6800EA070C6F68AC
:100E7000BF0248BF48EA0C0CC1F80CC04F6800EA3A
:100E8000070C6F68BF0348BF48EA0C0CC1F804C0E8
:100E90000F6800EA070C6868C00348BF48EA0C0CFA
:100EA000C1F800C0761C0F2E7FF62AAFBDE8F18F87
:100EB0000069084018BF0120C0B2704702B9090498
:100EC00081617047426901EA0203914341EA0341AB
:100ED000816170470E4A136803421CBF106000F026
:100EE000EFBF7047003C01404438024008380140E1
:100EF000000002400004024000080240000C0240D2
:100F0000001002400014024000180240001C024081
:100F1000143C014038B5044600F030FC14F1010FD8
:100F2000054602D004480178641800F027FC401BF5
:100F3000A042FAD331BD00BF0000002001222F499A
:100F400015E010B52A4C2948012204F11C0100F0DB
:100F5000B8FC01222146274800F0B3FC0122611CA5
:100F6000254800F0AEFCA11CBDE810400122244839
:100F700000F0A7BC38B505461E48296802681C4C1D
:100F800091420CD12189642905D2636822785A5490
:100F90002189491C21810122214600F092FC16483A
:100FA0002968026891420CD1218A322905D2E3686E
:100FB00062785A54218A491C21820122611C00F066
:100FC00080FC0F482968026891420ED1218B642968
:100FD00005D26369A2785A54218B491C2183A11C34
:100FE000BDE83840012200F06CBC31BD6008002033
:100FF000B4050020A40800201C080020B60500202D
:10100000E808002010B5DFF8D44301212046FFF79F
:1010100075FD02212046FFF771FD03212046FFF7F1
:101020006DFD012010BD38B5DFF8B053A969B1F5E9
:10103000FA6F044605D1002000F05AF92821A96171
:1010400005E0002000F05CF94FF4FA60A861214649
:101050002846FFF75BFD012032BD70B5DFF88063E5
:10106000DFF878530446307880B1A96A502905D159
:10107000012000F03DF92821A96207E0012000F0DD
:101080003FF95020A86231784A1E32702146284626
:10109000FFF73CFD012070BD10B50446D148017832
:1010A000012903D1022000F01BF902E0022000F028
:1010B00027F92146C948FFF729FD012010BD00008E
:1010C0002DE9F04106460C46200018BF012C904641
:1010D0001D4639D1062EC44F30D8DFE806F004098A
:1010E00010151A1F2600002000F030F87C7025E053
:1010F000012000F02BF8BC70224621211BE00220C9
:1011000000F024F8FC7019E0032000F01FF83C7197
:1011100014E0042000F01AF87C710FE0052000F0C4
:1011200015F8BC712246222105E0062000F00EF8D9
:10113000FC7122462321404600F0B3F82246314696
:101140002846BDE8F041EBE0BDE8F081A74A02EB9C
:10115000800332F810001B69012901460CBF0122EF
:1011600000221846FFF7AABE80B500F030F8BDE8AF
:1011700001404EE0E0B500F047F8AA218DF80010DC
:1011800007228DF8012098494A788B788DF8022043
:101190008DF80330CA780B798DF804208DF805306E
:1011A000C8794A798B798DF808008DF806208DF87A
:1011B00007304FF4405000F077F90120FFF7AAFE06
:1011C00009224FF44051684600F001FA07BDE0B52E
:1011D00000F01AF809224FF44051684600F015FA61
:1011E0009DF80000AA2804BF9DF8011007290AD124
:1011F0009DF803107C4A0129D8BF91709DF8070023
:101200000128D8BF907107BD09220021684600F06F
:101210007FBE70B5744D764C6878764E012807BF56
:10122000012201210022012100F038F8A8780128CC
:101230000CBF01220022022100F030F8E8780128DA
:101240000CBF01220022042100F028F8287901288F
:101250000CBF012200224FF480713046FFF72EFEB2
:10126000687901280CBF012200224FF4007130463A
:10127000FFF724FEA87901280CBF0122002240219B
:1012800000F00CF8E9795C48BDE8704001290CBF1A
:10129000012200224FF40041FFF710BE2046FFF765
:1012A0000DBE012800D070471FB58DF8041001ACA9
:1012B0000121002361708DF80620ADF80030032273
:1012C00001A96846FFF752FCBDF80000E070010A72
:1012D0008DF8081001A80521FFF766FA1FBD000070
:1012E00068A2464B32F8101053F82000FFF7EABD11
:1012F00010B500F00DF8BDE810400122FFF7DEBD8B
:1013000010B500F005F8BDE810400022FFF7D6BD8B
:101310005CA33A4C33F8101054F8200070470000DA
:1013200010B501280C4636D1012A07BF1B220FF247
:10133000D0011C220FF2E4010220FFF7C3FB062CB0
:1013400022D8DFE804F004070B0F13171B000A2252
:1013500039A116E05FF008023AA112E05FF00D0239
:101360003AA10EE05FF007023CA10AE05FF00D0237
:101370003CA106E05FF006023EA102E05FF006023B
:101380003EA10220FFF79EFBBDE81040032212A100
:101390000220FFF797BB10BD70B5002400250F4851
:1013A00000EB05167278012A11D17068012430B162
:1013B00000F0E4F97168B268401A904207D3002047
:1013C000707000F0DBF97060E8B2F16888476D1C5E
:1013D000042DE4DB204670BD0D0A000054040020FB
:1013E0009D0900209E09002080090020940400200F
:1013F000001002400004024000000240C00400202F
:10140000757365725F6170705F72656C61793A20A7
:101410004F4E2052656C61793A20000075736572F9
:101420005F6170705F72656C61793A204F4646204B
:1014300052656C61793A2000454C455641544F52F3
:101440002000000053435245454E20004652494477
:10145000474520434F4F4C2000000000414C415273
:101460004D200000465249444745204845415420FC
:10147000000000004C414D50200000005741524DEB
:101480002000000000020001800000000320FFF7A0
:1014900021BB80B500F0ECF8062000F04DFDBDE862
:1014A0000240012000F03EBD38B505460324FFF799
:1014B000F0FF4FF47A7000F037F8012803D0641E73
:1014C000F5D1002032BD00F0D3F8202000F034FD2B
:1014D00000F079F8280400F077F8E8B200F02CFD6D
:1014E00000F007F84FF47A7000F006F80128E9D010
:1014F000E7E7012000F016BD70B500F0B6F8052052
:1015000000F01AFD05E016F0030F09D00120FFF7E7
:1015100001FD00F006F800F01BF80128F3D11CE0F3
:101520001FE0A52000F008BD70B500F09EF8052072
:1015300000F002FD04E0B00709D40120FFF7EAFC47
:10154000FFF7EFFF00F004F80128F4D105E008E010
:10155000064621462846FFF75DBA00F0E3FC00206E
:1015600070BDFFF7C6FF012070BD78B5C1B004465D
:101570000D461646FFF78DFF4FF47A70FFF7D4FF44
:1015800001281ED100F074F8022000F0D5FC00F014
:101590001AF8280400F018F8E8B200F0CDFC642036
:1015A0000090334601AA2146DFF8CC0000F038FD58
:1015B000FFF79FFF6420FFF79FFF012801D142B092
:1015C00070BD0020FBE72802000E00F0B5BC70B52E
:1015D00004460D4616464FF47A70FFF78DFF01283A
:1015E0000CD1324629462046FFF7BFFF012805D01F
:1015F0000FF28C01FFF74AFF002070BD0FF29C0133
:101600000320FFF767FA012070BD2DE9F8430E466D
:10161000804691463502370403244FF47A70FFF771
:101620006BFF012804D0641EF7D10020BDE8F283CF
:1016300000F01EF8032000F07FFC280E00F07CFC78
:10164000380E00F079FCF0B200F076FC03E0FFF712
:1016500068FF08F8010B4846A0F1010980B2002894
:10166000F5D1FFF746FF0120E0E704490D68044685
:10167000002000F057BC00007C07002094090020E7
:10168000755F65785F666C6173683A20777269741C
:1016900065206661696C210D0A000000755F657840
:1016A0005F666C6173683A207772697465204F4B8E
:1016B000210D0A0050B50024047043600E465643C5
:1016C000446804619B198360002443680475C36007
:1016D0004175C28250BD38B504461046657D237DF4
:1016E00000226D1EAB4223DAE38AEBB11A4660B9E1
:1016F000E06800F02FFEE168E08A0844A168E0603D
:10170000884211D36068E0600EE020695B421844B3
:10171000206100F01FFE20696168884204D2E18ADE
:10172000A0684942014421610122207D401C2075AE
:10173000104632BD10B5044608461146227DC2B19E
:10174000E28A19B9216900F005FE10E062B110B11A
:10175000216900F0FFFD2069E18AA2680844206148
:10176000904224BF60682061207D411E21750120C8
:1017700010BD002010BD007D70470000014840688A
:10178000704700BF000000204018491C1CBFB1F189
:10179000010100F8012DF9D17047000038B50400AF
:1017A00001D1012032BD00F017F808B900F018F897
:1017B00000F01BF800F023F8FFE7416100F001F8AA
:1017C00032BD2068C16841F40051C16000206860EA
:1017D00020216970A970704704F13C056878704752
:1017E00000212970204600F0F6BD24206870206892
:1017F000C16821F40051C160204600F0D9BA2068C8
:10180000016921F4904101612068416921F02A01B8
:1018100070472DE9F843054605F13C060C46707803
:1018200020281746994649D10CB1380001D1012032
:1018300045E03078012841D00121317000207060EE
:1018400021227270FFF79AFFAF848046EF84A86868
:10185000B0F5805F04BF286900280EBF27462046E8
:1018600000270021317004460EE014F8012B42607D
:1018700007E02868002CF8D137F8021BC1F30801F3
:101880004160E88C411EE9844346E88CCDF8009025
:10189000002807D000228021284600F081F9002886
:1018A000E7D005E000224021284600F079F908B190
:1018B000032004E020207070002000E00220BDE83A
:1018C000F28338B500F130039C7B202C0FD109B195
:1018D000140001D1012032BD1C7B012C07D0012452
:1018E0001C7300251D60BDE8384000F0A3B902203C
:1018F00032BD216801F1140252E8001F206800F196
:10190000140321F0400143E80010002870477CB523
:10191000044621680B68CD684A6913F00F0007D1AF
:10192000980661D5AA065FD52046BDE87640D5E188
:10193000D00702D415F4907F56D0D80705D5E90515
:1019400003D5206C40F001002064580705D5D1076D
:1019500003D5206C40F002002064980705D5D1071C
:1019600003D5206C40F004002064180707D5A906B1
:1019700001D4D00703D5216C41F008012164206C0B
:10198000002830D0980604D5A90644BF204600F0B0
:10199000A5F920684069216C0A0701D440061DD5CD
:1019A000204600F070F920684169480611D5FFF71C
:1019B000A0FFFCD1A06B60B10FF215310165A06BE7
:1019C00000F0BCFE00280ED0A06B016DBDE87C408D
:1019D00008472046BDE8764000F0CABF204600F028
:1019E000C7FF0020206473BD206B012804F13D0275
:1019F00040F08680D80600D5EE0640F181800023B5
:101A000000930D6800954B6800930098496948065B
:101A10003FD5A16B0868406880B20028E3D0A38D51
:101A20009842E0DAE085C869B0F5807F2DD0216862
:101A300001F10C0050E8001F236803F10C0521F4AC
:101A4000807145E800100028F1D100F09BF84908AA
:101A500000F11405490045E800100028F5D100F018
:101A600091F800F1140521F0400145E8001000282C
:101A7000F5D1202050700021216300F089F800F09A
:101A8000BEF8FAD1A06B00F01DFEA18DE08D091A01
:101A900030E0A08DE18D411AE08D00281CBF88B296
:101AA000002868D0206800F10C0353E8003F00F1E3
:101AB0000C0623F4907346E800300028F2D1206829
:101AC00000F05AF800F114065B0046E800300028E8
:101AD000F5D12020507000222263206800F10C0212
:101AE00052E8002F00F10C0522F0100245E800201A
:101AF0000028F2D12046BDE87C4089B200F039BF11
:101B0000180629D52E0627D51078212833D1A068AC
:101B1000B0F5805F04BF2069002808D1206A0288E0
:101B2000C2F308024A60206A811C216204E0206A34
:101B3000421C226200784860E08C401EE08480B243
:101B4000C8B92068C16821F08001C1602068C168FF
:101B500041F04001C16073BD58060CD56B060AD533
:101B6000C86820F04000C860202111702046BDE800
:101B7000764000F0FFBE73BD00F1140353E8003F50
:101B80005B087047206800F1140151E8001F70479E
:101B9000206800F10C0151E8001F00F10C037047B0
:101BA0002DE9F041069C05460E4690461F462868E2
:101BB00001683140B1420CBF0120002040451BD1DB
:101BC00014F1010FF3D024B1FFF7D8FDC01B8442FC
:101BD000EDD200F01AF821F4D07100F012F8F8D12B
:101BE00000F01BF8FCD105F13C0020214170817010
:101BF00000210170032000E00020BDE8F08121F009
:101C0000100143E8001000287047286800F10C011B
:101C100051E8001F00F10C037047286800F114011F
:101C200051E8001F490800F11403490043E800107F
:101C30000028704781628285C28500F13C01002244
:101C40004A6022238B700A70016921B10168CA6859
:101C500042F48072CA6001684A6942F001024A6136
:101C60000068C16841F02001C1600020704744E86D
:101C7000002100297047016801F10C0252E8002F91
:101C800001F10C04704710B5FFF7F5FF22F49072D4
:101C9000FFF7EDFFF8D100F00BF8016B012901D13E
:101CA00000F071F8202180F83E100022026310BD80
:101CB000016801F1140252E8002F520801F11404E6
:101CC000520044E800210029F2D1704700000000D2
:101CD000806B0021C185C18400F04ABE1CB590F81C
:101CE0003E1022294DD18168826AB1F5805F0AD108
:101CF000016969B903685968C1F308011180826AF2
:101D0000911C81620FE0002904BF0169002902D102
:101D10000368596803E00168496801F07F011170A8
:101D2000816A4A1C8262C18D491EC18589B231BB5C
:101D30000168CA6822F02002CA600168CA6822F4F9
:101D40008072CA6001684A69520852004A6100F014
:101D500029F812D10021016300F015F8026811681A
:101D6000CB0606D5002400941368009352680092B5
:101D70000099818D00F0FDFD01E0FFF7FBF80020E8
:101D800016BD022016BD026802F10C0151E8002FB9
:101D9000036803F10C0422F0100244E8002100293A
:101DA000F1D17047202180F83E10026B012A704764
:101DB00070B5044622681169E06821F4405101437E
:101DC0001161D3682648A168034020690B4361690B
:101DD0000343E0690B430343D3605169A06921F4D5
:101DE0004071014351611F498A421CBF1E48824213
:101DF00002D100F04FFE01E000F044FE6268256869
:101E0000E46964261921B4F5004FA1FB000112D149
:101E1000D30F520000F086FE00F028F8F6003236AC
:101E20006420B6FBF0F0420002F4F87202EB0112FB
:101E300000F0070010E0930F920000F073FE00F036
:101E400015F8360132366420B6FBF0F000F0F002EF
:101E500002EB011200F00F008018A86070BD0000B6
:101E6000F369FFFF00100140001401406421B0FB42
:101E7000F1F106FB1106704700F1010310F8011B98
:101E800011B110F8011BFBE7C01A704700B500BF85
:101E9000130096469446103928BFA0E80C50FAD893
:101EA0005FEA417C28BF0CC048BF40F8042BC9073B
:101EB00028BF20F8022B48BF00F8012B00BD00000E
:101EC0001028114903D18879401C88717047B0F5FA
:101ED000006F03D14879401C4871704702280B49B4
:101EE00003D18868401C88607047B0F5007F03D13B
:101EF0004868401C48607047B0F5805F02D10868B0
:101F0000401C0860704700BF740900207005002065
:101F100010B5044610460A4601462046FFF734FC39
:101F2000204610BD0D4B00280CBF002201224FF4AB
:101F300000711846FEF7C2BF01B582B000204FF411
:101F40007A718DF804000091012301AA02A90448C6
:101F500000F066F89DF804000EBD0000000C024081
:101F60007C07002038B5040001D1012032BD606A31
:101F700028B900F051F805D00021E16102E000200D
:101F8000206160610020A06204F15005687820B9EA
:101F900000212970204600F067FE0220687000F0E2
:101FA00040F96068A168E26800F4827001F40441BD
:101FB0000843217C02F400621043227D01F00201FB
:101FC0000843A16902F001021043227F01F400716D
:101FD000084394F8201002F038021043A26A01F07E
:101FE00080010843216802F4005210430860A06990
:101FF00094F824102268000C00F0040001F0100195
:10200000084350602068C16921F40061C16100206B
:1020100068600121697032BD6068B0F5827F7047E9
:102020002DE9FC4700F0DCF84FF0010808BF022062
:1020300000F0C6809A4687F80080FFF79FFB7B7808
:10204000012B09D06968B1F5827F02BFA968002918
:10205000042B01D00226AEE0002C1CBFB9F1000F0A
:10206000BAF1000F01D10126A5E07B78042B1CBF3B
:10207000052179707E60C5F83890A5F83EA0A5F8D6
:102080003CA02C63A5F836A0A5F834A02E646E649D
:1020900029680C68630603D40C6844F040040C60A3
:1020A000E9680A9CB1F5006F696838D1002918BF4A
:1020B000BAF1010F00F0A9F88146E88E002804BFAC
:1020C000E88F002868D02968886882070BD5E88ED9
:1020D000002818BFB8F1000F05D0286B0288CA602D
:1020E000B04600F06FF829688868C2070CD5E88F01
:1020F00050B1C868A96B08804FF00108A86B821C1A
:10210000AA63E88F411EE987FFF738FBA0EB0900BF
:10211000A042D2D314F1010FCFD003264BE0002907
:1021200018BFBAF1010F00F064F88146E88E00286C
:1021300004BFE88F00282FD02968886882070DD552
:10214000E88E002818BFB8F1000F07D0286B02787E
:102150000A73B046286B411C00F036F8296888687D
:10216000C2070CD5E88F50B1C868A96B08704FF052
:102170000108A86B421CAA63E88F411EE987FFF79C
:10218000FDFAA0EB0900A04203D314F1010FCDD05A
:10219000C3E7002CCAD1C0E74A462146284600F0D2
:1021A000A6F818B120200126786004E0A86810B9CC
:1021B00000F00FF800980121797000203870304647
:1021C000BDE8F687286B811C2963E88E411EE986ED
:1021D000704700962968CA68009289680091704724
:1021E000054605F150070026387801280C4691462F
:1021F000704709D1296B2B680A781A73296B4A1C1E
:102200002A63E98E4A1EEA86704709D1296B2B683A
:102210000A88DA60296B8A1C2A63E98E4A1EEA86DC
:1022200070472068016821F04001016070472DE986
:10223000F843089C05460E4690461F46FFF79EFA57
:10224000381A2418FFF79AFA814640480168490174
:10225000090D6143009105E0009800B90024009841
:10226000401E0090286881683140B1420CBF0120B7
:102270000020404532D017F1010FF3D0FFF77EFA6E
:10228000A0EB0900A04201D2002CE5D128684168EA
:1022900021F0E00141606868B0F5827F08D1A8684C
:1022A000B0F5004F18BFB0F5806F01D100F019F8FC
:1022B000A86AB0F5005F09D12868016821F40051CF
:1022C00001602868026842F40052026005F1500083
:1022D0000121417000220270032000E00020BDE8CF
:1022E000F2832868016821F04001016070477CB5E5
:1022F00004461648164E0B4601681825B1FBF5F545
:10230000B5FBF6F64FF47A70464300966168B1F576
:10231000827F09D10092802100222046FFF787FFAB
:1023200058B100F00CF876BD009830B10098401E0E
:102330000090216888680106F6D4002076BD606DA3
:1023400040F0200060650320704700000C00002072
:1023500040420F004AB1000011F8013B521E00F844
:10236000013B1CBF11F8013BF8E7704780B5754889
:10237000754901604FF4165200F01AF800B108E0F8
:1023800001BD80B57148724900F00FF800B100E05E
:1023900001BDBDE8014000F011BD80B56D486E493A
:1023A00000F003F800B1F4E701BD01604FF4E13241
:1023B00000230C2142608360C3600361416183613B
:1023C000C361FFF7EBB980B564486549FFF7EDFFDE
:1023D00000B1DEE701BD10B586B00446142200212D
:1023E0006846FFF795FD2268574B5E485E499A4262
:1023F00019D1002205920B6943F400230B610023DD
:102400000A6902F400220592059A0593032200F05E
:1024100089F8082200F081F800220021342000F021
:10242000E9FC342064E04A4B9A4219D1002205921B
:102430000B6943F400330B6100230A6902F4003294
:102440000592059A05930C2200F06CF8072200F023
:1024500064F800220021262000F0CCFC262047E072
:102460003D48824221D100220592086940F4802033
:102470000861086900F4802000F044F843F002038A
:102480000B60086800F0020005904FF44061059869
:10249000364800F031F8072100F03AF80022002118
:1024A000272000F0A7FC272022E02D48824221D1DE
:1024B00000220592486940F020004861486900F018
:1024C000200000F01FF843F004030B60086800F0E0
:1024D00004000590C0210598254800F00DF808215A
:1024E00000F016F800220121472000F083FC47206D
:1024F00000F09DFC06B010BD0091019200210291F8
:102500000322704705900598059202220B687047D8
:10251000049103926946FEF7EBBB0393049269466C
:10252000FEF7E6BB0C6844F001040C600223096866
:1025300001F0010105910599009201930022029298
:10254000032370471C080020004C00406008002056
:1025500000440040A408002000480040E808002093
:1025600000140140000002403038024000040240E4
:102570000008024070B50446FFF700F906460CB9A2
:10258000012070BD04F1340502206870002129701B
:102590002068026852085200026022681068C10771
:1025A0000AD5FFF7EBF8801B0628F6D32020286217
:1025B00003216970032070BD1368DFF82C03616884
:1025C0000340A0680B43E168034320690B43616942
:1025D0000343A0690B43E1690343206A0B43616A2B
:1025E0000343042903D1E16A206B01430B431360C9
:1025F00023685A69606AD208042840EAC2020AD1F4
:10260000A66AE16A324331B1A06988B9002E18BFC9
:10261000022E1FD016D35A61204600F091F9A96A04
:102620003F228A408260002028620121697070BDCB
:10263000B0F5005F0AD1032EEDD8DFE806F00D0BF0
:102640000D03E8E7B1F1C07FE5D105E0022E03D923
:10265000F61EE0D1C801DED5402129620120687054
:1026600070BDF8B5044604F1340600253078776A69
:10267000012801D10220F2BD0120307070780128BC
:102680001CD1022070703562204600F049F9B06A12
:102690003F2101FA00F0B8602068016841F016019E
:1026A0000160F06820B12068016841F00801016014
:1026B0002068016841F00101016001E035700225E8
:1026C0002846F2BDF8B5044604F134056E6AFFF7FA
:1026D00055F807466878022805D080212962002035
:1026E00028700120F2BD2068016821F01601016008
:1026F00000F003F9E868002804BF6869002801D0E9
:1027000000F007F900F0FFF820680168CA070CD54F
:10271000FFF734F8C01B0628F6D3202028620321D7
:102720006970002028700320F2BDA86A3F21814013
:10273000B1600020012169702870F2BD90F8351059
:10274000022903D08022426501207047052180F8CC
:10275000351000680268520852000260002070477D
:102760002DE9FC41044604F1340600205F49009045
:102770004FF41650776A0A683D68B2FBF0F8B06A09
:10278000082100F0B6F80ED02068026853070AD579
:10279000026822F004020260B06A8140B960316AC6
:1027A00041F001013162B06A25FA00F1CA070BD588
:1027B00021684A69110607D5012202FA00F0B860C3
:1027C000306A40F002003062042100F091F808D035
:1027D00021680A68930704D5B860306A40F00400A5
:1027E0003062102100F084F81BD021680A681307BA
:1027F00017D5B860206801684A0307D5006801034F
:102800000BD5716969B1204688470AE00168CA059D
:1028100003D4016821F008010160F16809B1204684
:102820008847B06A202100F064F83FD021680A6828
:10283000D3063BD5B8602068717805291CD10268A1
:1028400022F01602026000F058F8F068002804BF79
:102850007069002801D000F05CF83F22B06A824025
:10286000BA60012171700020F1693070002939D0FF
:102870002046BDE8FC41084701684A0307D50068C7
:1028800001030FD4316989B1204688470EE0016801
:10289000CA0507D4016821F01001016001207070A1
:1028A00000213170B16809B120468847306AC8B14B
:1028B000306AC10710D50520707000F024F8009828
:1028C000401C8045009003D320680168CA07F6D4F5
:1028D0000120707000213170B16919B12046BDE846
:1028E000FC410847BDE8F3813F8010F00C00002058
:1028F000B06A01FA00F0054270472068416921F092
:102900008001416170472068016849084900016001
:1029100070472068016821F00801016070470000DD
:1029200030B50468256825F48025256063608068DB
:10293000402802D1A260E16030BDA160E26030BDFC
:1029400030B5016808A401F0FF02103A1823B2FB69
:10295000F3F2890A8902A55CC565042A28BF091D0E
:102960008165084630BD00000006101600061016EE
:1029700070477047704700002DE9F04104000F4692
:1029800054D0494E306800F00700B84202D200F03F
:1029900073F84BD12068454D810712D5400703D508
:1029A000A96841F4E051A9602078010703D5A8681F
:1029B00040F46040A860A968A06821F0F0010143DC
:1029C000A9602178C80729D56068012802D1296843
:1029D0008A0305E0022818BF032803D129688A0169
:1029E00003D423E029688A0720D5A968890840EA2A
:1029F0008100A860FEF7C2FE8046A868616800F00A
:102A00000C00B0EB810F09D0FEF7B8FEA0EB080078
:102A100041F289318842F0D303202BE0306800F086
:102A20000700874204D200F027F801D0012021E0FE
:102A30002078410705D5AA68E06822F4E0520243F5
:102A4000AA602178080706D5A968206921F46041A9
:102A500041EAC001A96000F035F8AA681449154B95
:102A6000C2F30312895CC84018601348006800F084
:102A700009FA0020BDE8F0813770316801F00701E4
:102A8000B94270470B480D4A006813680C49C3F3FC
:102A9000822206E00748094A006813680849C3F320
:102AA0004232895CC8407047003C02400038024016
:102AB000745100080C000020080000200838024073
:102AC0006452000830B5144C606800F00C00042813
:102AD00002D0082802D01DE0104830BD22682068CE
:102AE0000023410202F03F0204D525680B49C5F3DB
:102AF000881003E020680A49C0F38810A1FB000198
:102B000000F010F82168C1F30141491C4900B0FBF5
:102B1000F1F030BD024830BD0438024040787D01FC
:102B20000024F400D3BBD9B1B2F5803F5BD2022AB6
:102B30001ED98C46B1FBF2F102FB11C31B0443EA20
:102B40001043B3FBF2FC02FB1C3380B240EA0343A8
:102B5000B3FBF2F002FB103240EA0C400023704756
:102B6000022A05D98446B0FBF2F002FB10C270477E
:102B70004AB105D100F0010249085FEA3000704710
:102B800000220023704700F09DB90B0002000021D5
:102B900000207047F7D3002200237047904271EB6A
:102BA000030CF2D370B5B1FA81F4B3FA83F52C1BA0
:102BB000A340C4F1200532FA05F63343A2405FF08A
:102BC0000046E64002E05B085FEA3202841A71EBDD
:102BD000030524BF204629467641F4D302000B00AA
:102BE0003000002170BD70B5B1FA81F4B2FA82F5FF
:102BF000C4F120046419B4F12006DAD3B2405FF0C6
:102C00000044F440002502E052085FEA3303C61A8C
:102C100071EB020E24BF3046714664416D41F3D31F
:102C200002000B002000290070BD000080B528487C
:102C3000284901604FF4827208214260C16100237B
:102C40004FF400720A218360C360036143618261B3
:102C5000036243628362C162FFF784F918B1BDE881
:102C6000014000F0ABB801BD10B586B00446142297
:102C7000002101A8FFF74CF921681648814224D1B0
:102C8000002215480092016941F480410161016907
:102C900001F480410091009900924FF46041036873
:102CA00043F0020303600222006800F0020000907B
:102CB00000980A4801910292002103910322052104
:102CC0000591049201A9FEF713F806B010BD0000AB
:102CD0007C070020003800403038024000040240E9
:102CE00080B500F0F1F800F013F800F007F900F0FB
:102CF00013FA00F02BFAFFF750FBFFF764FBFFF726
:102D000035FBFFF73EFBFFF791FF00F0BBFAFEE754
:102D100080B592B03022002106A8FFF7F9F81422FE
:102D2000002101A8FFF7F4F8002000902148016875
:102D300041F0805101600021006800F08050009057
:102D400000981D4800910221026842F4804202600E
:102D50000122006800F480400090009806910992DA
:102D600010210A91022200210C920D9110224FF4A1
:102D7000A8710E920F91022204211092119106A8BF
:102D800000F0BEFA08B172B6FEE7022102910022FD
:102D900003920F204FF4A051019004914FF4805200
:102DA0000592052101A8FFF7E7FD08B172B6FEE71D
:102DB00013B000BD403802400070004072B6FEE71C
:102DC0000901020002D4294881547047284B02F0BF
:102DD0000F021A4402F8041C7047264B19684FF67C
:102DE000FF020002114000F4E0600843224908435A
:102DF0001860704770B51F4B1C68C4F30223012490
:102E0000C3F10705052D2EBF0F2504FA05F56D1E2C
:102E10001E1D072E34BF0023DB1E2940994004FAF3
:102E200003F3BDE870405B1E1A401143C8E7010080
:102E300007D4012200F01F01104B8A40400943F8DB
:102E40002020704710B5401EB0F1807F01D30120D3
:102E500010BD0B4C60600F214FF0FF30FFF7B0FF4B
:102E60000021A16007202060002010BD00E400E0E8
:102E700018ED00E00CED00E00000FA0500E100E0D4
:102E800010E000E038B50D4D0D4B2A7804464FF4A4
:102E90007A711868B1FBF2F2B0FBF2F0FFF7D2FFE3
:102EA00050B9102C08D2002221464FF0FF30FFF716
:102EB000A1FFAC60002032BD012032BD0000002027
:102EC0000C0000207047000080B50B48016841F4F9
:102ED00000710160026842F480620260016841F49E
:102EE000807101600320FFF778FF0F20FFF7CAFF12
:102EF00000F094FB002002BD003C02402DE9F84F99
:102F000086B0142200216846FFF702F800217448B9
:102F1000DFF8D091DFF8D0A1DFF8D0B1DFF8D081B1
:102F2000059140F2EF35026842F010020260002283
:102F3000016801F01001059141F6015705990592CC
:102F400048F24006036843F00403036040F2FF24A4
:102F5000016801F00401059105990592036843F0A9
:102F600001030360016801F00101059105990592D3
:102F7000036843F002030360016801F00201059158
:102F8000059905922946036843F008030360006829
:102F900000F00800059005984846FDF78FFF0022D5
:102FA00039465046FDF78AFF002231465846FDF764
:102FB00085FF01224FF480714046FDF77FFF00221C
:102FC00021464046FDF77AFF00224FF47E714948C2
:102FD000FDF774FF009500F097F84846FDF788FE6E
:102FE00041F2100000904FF48815019502210291E2
:102FF00048466946FDF77CFE009700F085F850468C
:10300000FDF776FE40F20221009101950221029126
:1030100050466946FDF76CFE012000210190022216
:1030200003910292009669465846FDF761FE4FF4FF
:10303000C040002100900191022202926946484658
:10304000FDF756FE0122019202924FF48071009129
:103050000022039269464046FDF74AFE009400F0C4
:1030600053F84046FDF744FE4FF48060002100F025
:1030700043F84FF400604FF4041100F03DF84FF4B2
:103080007E7100910122019202210291002203929D
:1030900069461848FDF72CFE002200210720FFF7A3
:1030A000A9FE0720FFF7C3FE002200210A20FFF738
:1030B000A1FE0A20FFF7BBFE002200211720FFF728
:1030C00099FE1720FFF7B3FE002200212820FFF70A
:1030D00091FE2820FFF7ABFE07B0BDE8F08F00009F
:1030E0003038024000100240000802400000024058
:1030F000000C024000040240009001910222029262
:1031000069465846FDF7F4BD0120002101900222D6
:10311000039102926946704780B50020009000221A
:103120000948016841F4800101600021006800F451
:103130008000009000983820FFF75CFEBDE8024058
:103140003820FFF774BE00BF303802401FB5102290
:1031500000216846FEF7DCFE434C444820604FF4F3
:1031600080310120206100224148A062616003207B
:10317000E061A26001206061227684F82020E26292
:10318000E26084F83020204600F064FA08B1FFF7CE
:1031900015FE08200121009001910722029200F003
:1031A00015F808B1FFF70AFE09210091022200F08C
:1031B0000CF808B1FFF702FE11210091032200F084
:1031C00004F808B1FFF7FAFD1FBD019269462046D9
:1031D00000F09BBB38B586B004461422002101A83C
:1031E000FEF796FE2168214881423AD1002221480B
:1031F000214D0092416941F480714161416901F4BE
:1032000080710091009900920321036843F002034A
:103210000360006800F002000090009801910291A4
:103220000021039101A91548FDF762FD00216960A5
:10323000E9604FF480611248286029614FF48050A2
:10324000002268614FF48041AA60A961EA612A62A4
:103250006A622846FFF78EF908B1FFF7AFFDA56354
:10326000AC6307B030BD0000D4070020002001404F
:103270000100000F303802401C070020000402400B
:103280001064024010B5FDF76FFFFDF7E5FA00F09E
:1032900064FDFDF7EAFAFDF754FE00F0D1FF32209D
:1032A000FDF738FE114C01F050F800F025F8FDF75D
:1032B0004AFB00F01DF801F09BF900F01DF801F049
:1032C0009DFA00F015F800F079FD00F015F8FEF712
:1032D00063F800F00DF800F08DFF00F00DF801F03C
:1032E0009EFB00F005F8DEE7000000009C090020CE
:1032F000227810432070704721780843207070476F
:103300002DE9F843040016D02078DFF80063C107E8
:1033100013D5B06800F00C00042807D0B06800F0A6
:103320000C0008283DD1706841023AD5306881030D
:1033300003D56068002800F063812078B44F8107CE
:1033400019D5B06810F00C0F07D0B06800F00C0071
:1033500008285BD17068410258D43068810703D5D2
:10336000E068012840F04C813168206921F0F801C3
:1033700041EAC00131602178080779D56069A54923
:10338000002868D001220A60FEF7F8F90546706F40
:1033900081076DD4FEF7F2F9401B0228F7D903200C
:1033A00031E16068B0F5803F04D1306840F480308E
:1033B000306011E0B0F5A02F306806D140F48020D5
:1033C0003060316841F4803105E020F480303060B5
:1033D000316821F480213160606858B1FEF7CEF980
:1033E000054630688103A8D4FEF7C8F9401B65285C
:1033F000F7D3D4E7FEF7C2F90546306881039CD5C0
:10340000FEF7BCF9401B6528F7D3C8E7E068A8B110
:1034100001213960FEF7B2F905463068810705D40D
:10342000FEF7ACF9401B0228F7D9B8E730682169EC
:1034300020F0F80040EAC10030609CE73860FEF7F9
:103440009DF905463168880795D5FEF797F9401B29
:103450000228F7D9A3E70860FEF790F90546706FD8
:10346000810705D5FEF78AF9401B0228F7D996E7B0
:10347000207841075FD5306C0025C1000AD4009543
:103480000125316C41F080513164306C00F0805086
:1034900000900098DFF88081D8F80000C10513D4AF
:1034A000D8F8000040F48070C8F80000FEF766F914
:1034B0008146D8F80000C10506D4FEF75FF9A0EBFD
:1034C00009000228F5D96AE7A068012805D0052877
:1034D000306F06D140F004003067306F40F00100DB
:1034E00005E0400840003067306F20F0040030678E
:1034F00041F28938A06860B1FEF740F98146306F2B
:10350000810713D4FEF73AF9A0EB09004045F6D342
:1035100045E7FEF733F98146306F810706D5FEF7A0
:103520002DF9A0EB09004045F6D338E71DB1306C0A
:1035300020F080503064A069002863D0B16801F0A9
:103540000C0108293AD002282AD100203866FEF75B
:1035500015F905463068810105D5FEF70FF9401BC6
:103560000228F7D91BE7E069216A626A0843A16A69
:10357000490840EA8210491E40EA0140E16A40EAF7
:103580000160706001203866FEF7F8F80446306884
:10359000810137D4FEF7F2F8001B0228F7D9FEE6C6
:1035A00000203866FEF7EAF804463068810129D524
:1035B000FEF7E4F8001B0228F7D9F0E601281FD037
:1035C0007068E26900F48001914202BF00F03F019F
:1035D000226A914201BF47F6C0710140626AB1EBB5
:1035E000821F0DD1A26A520800F44031521EB1EB85
:1035F000024F02BF00F07060E16AB0EB016F01D0D2
:10360000012000E00020BDE8F28300BF0038024046
:1036100000004742800E47420070004081B0002009
:10362000009000220A48416841F4804141604168AD
:1036300001F48041009100990092036843F08053A7
:103640000360006800F080500090009801B070475F
:103650004038024070B5044600250CB9012070BD09
:1036600004F13006306920B92046FFF7B3FD7561DB
:1036700035733069C10600F192803069DFF8C013FC
:1036800020F4885040F002003061086820F4403097
:1036900008600A68606802430A602068416821F493
:1036A0008071416020684168226941EA02214160DD
:1036B0002068416821F04071416021684A68A06833
:1036C00002434A602068816821F4006181602168BA
:1036D0008A68E06802438A602068A16ADFF8642390
:1036E0009142816821F0706181600CD021688A6804
:1036F000A06A02438A6000F05BF821688A68E06A89
:1037000002438A6001E000F053F82068816821F0EC
:10371000020100F049F8227E41EA4201816094F8FA
:1037200020002168002848680FD040F400604860FD
:103730002068416821F46041416020684168626A04
:10374000521E41EA4231416002E020F400604860CC
:103750002068C16A21F47001C1622068C16AE2690F
:10376000521E41EA0251C1622068816821F4007151
:1037700000F01AF8327841EA422100F015F821F4FD
:10378000806100F011F8626941EA8221816075610F
:10379000316921F0020141F00101316100E00125B0
:1037A00000203073284670BD8160206881687047B2
:1037B0002068816821F0405181607047126802F0F2
:1037C0001F02102A7047016841F080410160704774
:1037D000816841F0804181607047F8B5044600205F
:1037E00004F13C0300901D78012D01D10220F2BDAF
:1037F0000120187020688568EE070DD48568974E03
:1038000045F00105856096480568B5FBF6F606EBC0
:103810004606009600F00BF920688568EE0503D592
:10382000856825F4807585602568A868C60762D517
:103830005F688848074047F480775F60686845059F
:1038400005D5586820F4005040F4805058605868FE
:10385000C50446BF986820F0060000209860002547
:103860001D70A36B0FF2FD10D863A36B0FF25D20E8
:103870001864A36B0FF25D20D8646FF022002568F6
:1038800028602068436843F08063436013462068E3
:10389000856845F4807585600A46206800F14C0112
:1038A000A06BFEF7DEFE2068654A6B49136813F0D3
:1038B0001F0F16D188420DD06349884204D1126887
:1038C00012F01F0F1FD105E0604988421BD1FFF79E
:1038D00075FF18D2816811F0405F14D1FFF778FFAF
:1038E00011E0884202BF5A48016811F0405F0AD1D6
:1038F000FFF769FF07E0586840F0100058609868CB
:1039000040F0010098600020F2BD78B5024600202A
:10391000009092F83C30012B01D1022072BD0120B1
:1039200082F83C0007240B6810680A2B11D30A3B6D
:10393000C56803EB430300F076F8C460C3680D6804
:103940008C68A5F10A0606EB4606B4402343C36023
:103950000FE0056903EB430304FA03F325EA0303CD
:10396000036103690D688C6805EB4505AC40234392
:1039700003611F244B68072B0CD25B1E456B00F0C4
:1039800050F84463436B4D680C886E1E00F044F899
:1039900043631BE00D2B0CD2DB1F056B00F041F8DD
:1039A0000463036B4D680C88EE1F00F035F8036369
:1039B0000CE00D3BC56A00F034F8C462C36A4D6880
:1039C0000C88A5F10D0600F027F8C362224B98423F
:1039D0001DD10C681A48122C03D1036843F48003EC
:1039E00003600B68102B18BF112B10D1036843F430
:1039F000000303600868102809D11949174C0B68A7
:103A0000B3FBF4F40A204443009400F010F80021C2
:103A100082F83C10002072BD06EB8606B4402343BA
:103A2000704703EB83039C4025EA0404704702E0DF
:103A30000098401E009000980028F9D170470000BF
:103A4000042301400100000F002101400022014039
:103A500008200140FEF9FFFF0020014040420F0016
:103A60000C000020816B0A6C12F0500F24D1086CFE
:103A700040F4007008640A68906810F0405F04BF6A
:103A8000087E002815D1D06A10F4700F02D090681B
:103A900043050ED4506820F020005060086C20F4DC
:103AA00080700864086CC20403D4086C40F0010004
:103AB0000864084600F0E8BF0A6CD30644BF084615
:103AC00000F0E3BF896BCA6C10470000806B00F008
:103AD000DDBF0000806B40210164426C42F00402B3
:103AE000426400F0D2BF000080B50121DFF810036E
:103AF000FDF704F8012002BD70B50446C14D4FF436
:103B000080612846FDF7D4F9BF4E717B88420AD107
:103B1000317B491CCAB20A2A06DB0A21421E9241A5
:103B2000D20FF27100E00021317328464FF480611A
:103B3000FDF7BEF9707300F07AF8012070BD30B562
:103B40000FF2203185B0D1E90023CDE9012303AD87
:103B50000195042100910446AB4D297802230322EC
:103B600001A800F0ACFFA74D012240212846FDF737
:103B7000A5F90A20FDF7CEF900F080F800224021D7
:103B80002846FDF79BF900F052F8012005B030BD42
:103B900010B501469D488288994852B19C4B1C88BB
:103BA000944205D100221A800421FCF7A7FF02E00D
:103BB0001A80FCF7ABFF012010BD10B5934CA28812
:103BC00020680021FCF777FF0021A18003218C48A9
:103BD000FCF794FF012010BD7CB58B4D2B7A044679
:103BE000E87998421FD0052200F07FF8684600F07F
:103BF0002AF801466846FCF7D7FDE87928727FA6C7
:103C000000F044F8E879002807BF1B220FF20821D2
:103C10001A220FF21C210120FCF754FF0322314627
:103C20000120FCF74FFF00F002F8012076BD21468D
:103C30007348FCF76BBF10B5044600F095F8FFF72A
:103C4000F6FF012010BD1CB504460020ADF80000B1
:103C50000F21217001226C4862700322C379A37086
:103C600021466846FCF782FFBDF80000E0700520A1
:103C7000BDF80010090A217116BD0000BDF808202A
:103C8000019964484FF47A73FDF7C3BD80B500F025
:103C90002BF800F046F8C1798DF801208DF802105C
:103CA0004FF48040FDF700FC0120FDF733F90322BB
:103CB0004FF4804131E080B500F016F803224FF454
:103CC00080416846FDF7A1FC9DF80000AA2804BFCA
:103CD0009DF80110012906D19DF80200022802DAA0
:103CE0004949C871087201BD032200216846FEF7E8
:103CF0000FB980B5FFF7F8FF00F013F801788DF8E1
:103D000001208DF802104FF4A040FDF7CDFB0120FB
:103D1000FDF700F903224FF4A0416846FDF757FC78
:103D200001BDAA218DF8001001223748704780B5E7
:103D3000FFF7DAFF03224FF4A0416846FDF765FC68
:103D40009DF80000AA2804BF9DF80100012803D1B6
:103D50009DF802002C49087001BD80B5FFF7ABFF4C
:103D6000BDE80140E3E700003EB50522FFF7BDFFD7
:103D7000254CA27961886846FCF763FF054612224C
:103D800031A10220FCF79EFE2A4669460220FCF77C
:103D900099FE052231A10220FCF794FEA279A188A8
:103DA0006846FCF74EFF024669460220FCF78AFE91
:103DB000032212A10220FCF785FE37BD70B5002456
:103DC00000250F4800EB05167278012A11D17068A2
:103DD000012430B1FDF7D2FC7168B268401A9042FC
:103DE00007D300207070FDF7C9FC7060E8B2F1687D
:103DF00088476D1C072DE4DB204670BD0D0A0000CE
:103E0000180100200000024088010020C0050020A9
:103E10008E0900201C0800206170705F656C65636E
:103E2000747269633A20504F574552204F464600FE
:103E30006170705F656C6563747269633A20504F9E
:103E4000574552204F4E00006170705F656C65638E
:103E5000747269633A20563A2000000020413A20EB
:103E600000000000000000000000000070B50446E3
:103E7000DFF8F853DFF8F8631420A8600322307AE3
:103E8000401C307206F10C01DFF8E803FFF7A5FCD7
:103E9000307A642804D101212846FCF72FFE03E084
:103EA00021462846FCF732FE012070BD38B5044695
:103EB000DFF8BC53DFF8BC03032205F10C01FFF768
:103EC0008CFC58B9A969E8684118A9612869E969B1
:103ED0004118E9616869296A41182962697AE348E9
:103EE000491C6972C9B2642905DB0021697202218B
:103EF000FCF704FE02E02146FCF708FE012032BD7B
:103F000010B5DB49DC4B88696422B0FBF2F2C8696A
:103F100000EE102A6422B0FBF2F2086A81ED060A74
:103F200000EE902A6422B0FBF2F201EE102AC1EDFD
:103F3000070A81ED081A40F6E4401C88444301EE6C
:103F4000904AF8EE611AB8EE411A81EE811A9FED9F
:103F5000A42AF8EE600A81EE021AB8EE400A60EE7A
:103F6000810A9FEDB43A20EE010ADFEDB22AC0EEDD
:103F7000830A9FEDB11A80EE220AC0EE811A9FEDEE
:103F8000AF2A9FEDB21AF1EE0C2A01EE821A80EEF2
:103F9000220A71EE402ADFEDAE1A30EE410A62EEDF
:103FA000A11A30EE200A81EE800ADFEDAA0A30EE77
:103FB000200A9FEDA91A9FEDA92A00EE012ADFED44
:103FC000A81A42EE001ADFEDA70A41EE800AB2EE0F
:103FD000040A20EE800ABDEEC00A10EE100AA0F11D
:103FE0000A02FF2300208A808B718861C861086201
:103FF00000F0B2F805219D48FCF780FD012010BDBE
:1040000080B59E488178B0F9000000F063F800F0B8
:104010007EF8012002BD80B56846002101600422BF
:104020004FF48051FDF7F1FA9DF80000AA280AD15B
:104030009DF801209DF802108D4841EA02219DF86B
:10404000032001808270012002BD38B58848B0F994
:1040500004108278B0F90000844C15188D4213DAF0
:104060000023002201210420FDF72AF8002300226A
:1040700001210220FDF724F807212046FCF750FD1E
:104080007F49012088700CE0821A914209DA0023EE
:10409000002200210420FDF713F807212046FCF739
:1040A00035FD06212046FCF731FD012032BD80B5EB
:1040B00001216E48FCF722FD012002BD80B50023DE
:1040C000002200210220FCF7FBFF6D4800218170D7
:1040D000012002BD80B500230093FCF781FD644AF6
:1040E0008DF802001080AA21031290788DF8030049
:1040F0008DF800108DF801304FF48050FDF7D4F9A1
:1041000004224FF480516846FDF761FA01BD1FB5E6
:1041100001AC012060700021ADF800101522574855
:10412000415E80788DF804208DF807100A12A27085
:104130008DF80800052201A96846FCF717FDBDF8B7
:104140000010BDF800006071090A8DF80A1001A87E
:104150000721FCF729FB1FBD3EB505216846FCF78A
:10416000E5FC434CA279B4F904106846FCF769FDFC
:104170000546182245A100F035F82A466946022076
:10418000FCF7A0FC5FF0090246A13E4D00F02AF8C2
:10419000E278B4F900106846FCF753FD0246694620
:1041A0000220FCF78FFC30A400F01FF8687901288A
:1041B00007BF10220FF2F80111220FF2041100F0D4
:1041C00011F8E878012807BF10220FF20811112218
:1041D0000FF2101100F006F800F007F837BD0000EC
:1041E00000007A440220FCF76DBC03222146022025
:1041F000FCF768BC70B5002400251C4800EB0516D0
:104200007278012A11D17068012430B1FDF7B6FA35
:104210007168B268401A904207D300207070FDF7B1
:10422000ADFA7060E8B2F16888476D1C082DE4DBD8
:10423000204670BD00F07F4500EC7E460058C54525
:10424000022211490B48FFF7C8BA00006F12033B66
:104250000000FA430000F0C2CF7389352CAC273A36
:104260007E8C19403D4A77C30D0A0000CC04002023
:104270004C050020D40700202A7AFF1F9009002057
:10428000B001002080090020580500206170705F97
:1042900074656D70657261747572653A2054656DF0
:1042A000703A20002053657475703A2000000000B9
:1042B00052656C617920486561743A204F4E200048
:1042C00052656C617920486561743A204F464620FA
:1042D0000000000052656C617920436F6F6C3A20DA
:1042E0004F4E200052656C617920436F6F6C3A200D
:1042F0004F464620000000000120704780B501466F
:104300002248828822484AB1038E934205D1002276
:1043100002860221FCF7F2FB02E00286FCF7F6FBC4
:10432000012002BD10B5194C0121204600F0FAFC15
:10433000A28820680021FCF7BEFB0020A08001219C
:104340001348FCF7DBFB012010BD70B500240025ED
:104350000F4800EB05167278012A11D1706801240C
:1043600030B1FDF70BFA7168B268401A904207D37A
:1043700000207070FDF702FA7060E8B2F1688847BB
:104380006D1C032DE4DB204670BD0000B805002045
:104390001000002010B5A74CA07848B13D2807DADE
:1043A00000202081A072E07000F09DF801212171B1
:1043B000012010BD38B59F4C9F4DE1780020491C6D
:1043C000A071E17028460321FCF7A0FB04212846D8
:1043D000FCF79CFB02212846FCF790FBA07800F03C
:1043E00087F8012032BD70B5924D934C064668792E
:1043F00003280BD1FDF7C2F9616B401AB0F57A7F43
:104400000AD2287A401C022128726971314620465E
:10441000FCF77CFB012070BD00F08CF80020687177
:1044200003212046FCF77CFBF4E780B500F082F81E
:104430008048427A0021521C41714272012002BD23
:10444000F8B584B00020ADF8000001AC79497B4D8F
:104450000A788878012A25D18A798B7A4E78CF78A4
:10446000D318B7428B720CD240218DF8041004236C
:10447000A0706370E2702771667100F034F8062650
:104480001BE00022A0700A710422087A497A627047
:104490004126E370207161718DF8046000F068F8C6
:1044A000062608E000220A71162101228DF8041068
:1044B0006270A070032600202870324601A9684669
:1044C000FCF754FBBDF80000A055761CBDF8002099
:1044D000F0B2120A2254761CF1B201A8FCF764F97A
:1044E000012005B0F0BD01215348FCF707BB0000D7
:1044F00070B5441EE4B20A20DFF844615DA394FB6A
:10450000F0F533F8151056F825000122FCF7D6FC1B
:104510000120FCF7FFFC0A205AA100FB154406EB22
:10452000840031F81410C069BDE870400122FCF726
:10453000C5BC000070B50024DFF804514DA636F864
:10454000141055F824000022FCF7B8FC641C072C5A
:10455000F5DB00BF4BA6002405EB840036F81410F1
:10456000C0690022FCF7AAFC641C0A2CF4DB70BDB5
:104570001CB5304CA17800F038F8152231A100F0BC
:104580002CF800F02DF800208DF801005FF00502F6
:1045900032A100F022F8A17A00F027F800F020F80C
:1045A00000208DF8010008222EA100F016F8217AD3
:1045B00000F01BF800F014F800208DF8010007222D
:1045C0002AA100F00AF8617A00F00FF800F008F86C
:1045D000032217A100F001F813BD0220FCF772BA04
:1045E000022269460220FCF76DBA6846FCF704BB5C
:1045F00070B500240025104800EB05167278012ADA
:1046000011D17068012430B1FDF7B8F87168B26853
:10461000401A904207D300207070FDF7AFF8706029
:10462000E8B2F16888476D1C042DE4DD204670BDBA
:104630000D0A00007409002044000020B001002091
:10464000940000206170705F6374726C5F6D6F74B2
:104650006F723A20506F733A000000002049523ABE
:1046600000000000204561726C793A00204C6174B2
:10467000653A000004000200010000100008000478
:1046800000800000080010002000400080000800AA
:10469000100020004000800080B501216848FCF730
:1046A0002DFA012002BD70B50446664D4FF48041DD
:1046B0002846FCF7FDFB401E8041634EC00F307062
:1046C0004FF400512846FCF7F3FB401E8041C00F19
:1046D000707002215A4D2846FCF710FA21462846F0
:1046E000FCF714FA012070BD10B5574C2078012852
:1046F00004D16078012809D1032005E0002804BF17
:104700006078012805D10220012104E008B90120C8
:1047100000E0002001464D4A5170607121796079B6
:10472000884205D00122A27003214548FCF7E6F932
:1047300060792071012010BD1CB504464248017803
:1047400001291FBF41780129817801290AD100225E
:104750008270684600F00CF801466846FCF724F8C1
:1047600000F022F821463648FCF7D0F9012016BDAA
:104770001CB504460020ADF8000031212170022252
:104780003148627004220178A17021464378E370B9
:104790006846FCF7EBF9BDF8000020710620BDF873
:1047A0000010090A617116BD70B5192228A1264EA4
:1047B0000FF2C0042DA500F01EF83078012807BFC5
:1047C000052229460622214600F015F85FF009026D
:1047D0002AA100F010F87078012807BF05222946A9
:1047E0000622214600F007F8BDE87040032213A11D
:1047F0000220FCF767B90220FCF764B970B5002409
:1048000000250F4800EB05167278012A11D1706857
:10481000012430B1FCF7B2FF7168B268401A9042CF
:1048200007D300207070FCF7A9FF7060E8B2F16850
:1048300088476D1C042DE4DB204670BD0D0A000086
:10484000D80000200010024088090020B00100209C
:104850006170705F646F6F725F73656E736F723AD1
:1048600020446F6F72313A20000000004F50454ED7
:1048700000000000434C4F534500000020446F6F80
:1048800072323A20000000003EB5764D044628689A
:1048900010B100F043F82960686810B100F03EF8EC
:1048A0006960A86810B100F039F8A960287B88B366
:1048B000684600F082F801466846FBF775FF00F095
:1048C00097F8287B022823DB022105F11000FCF772
:1048D00015F9287B03281BD1012300220121FCF7B5
:1048E000EFFBFCF74BFF0146286C091A4EF66022DD
:1048F000914204D218B142F21070A86202E041F273
:104900008831A962012100F054F8FCF737FF2864D0
:104910000020287300F04CF801203EBD287B401C8D
:1049200000212873704780B5012300220021032055
:10493000FCF7C6FB012002BD70B54A4D4A4E044645
:10494000A86BC8281AD1707868B901210520FCF736
:10495000FDFB3178091F022998BF4FF4967022D9C8
:104960002821A96320E00020404A707030700520A3
:104970009179FCF7EBFB0020A86317E000210520EC
:10498000FCF7E4FBC820A8633078401C3070C0B24C
:104990000A2809DB002030707078401C7070C0B2AB
:1049A00010B94FF47A70A86300F002F8012070BDCE
:1049B000214605F11000FCF7A9B81CB504460020FB
:1049C000ADF80000302121700122264862700322D8
:1049D000037BA37021466846FCF7C8F8BDF80000C9
:1049E000E0700520BDF80010090A217116BD000015
:1049F00080B51C48017B6846FCF7FEF85FF01602A4
:104A00001BA10220FCF75EF8012269460220FCF798
:104A100059F8032212A10220FCF754F801BD70B529
:104A2000002400250F4800EB0516727C012A11D1E5
:104A30007069012430B1FCF7A1FE7169B269401AB6
:104A4000904207D300207074FCF798FE7061E8B2C2
:104A5000F16988476D1C032DE4DB204670BD000022
:104A60000D0A0000700500209A090020800900202E
:104A70006170705F7669625F73656E736F723A2002
:104A80004C6576656C20000070477047704730B504
:104A900003464FF6FF7000240DE01A5D50400822D7
:104AA0004508C00752BF284685F4204080F0010029
:104AB000521EF5D1641C8C42EFDB80B230BD38B59C
:104AC000044625680498297021684A701A0A2568E6
:104AD000AA70020A2168CB70062123681A71256822
:104AE00068712068FFF7D3FF21688871000A226887
:104AF000D0710820A080012032BD000080B500F0F8
:104B000054F80222B1A100F052F8FCF733FBBDE8E3
:104B10000140FCF7D6B880B5AE488288016800F045
:104B200046F8BDE808400322A8A1E2E070B586B0CF
:104B300004460D4616216846FBF7F8FFAA228DF8B9
:104B400000201422A088A34E8DF80100002100202F
:104B5000B0803068FBF7AFFF0DE02068415D0DEBE2
:104B6000050291702068415D3268B08811546D1C57
:104B7000B188491CB180EDB2A0888542B8BF142D20
:104B8000EBDB4FF40050FCF78FFCA288921C92B232
:104B90004FF400516846FCF71AFD00F006F80222B7
:104BA0008AA100F004F806B070BD022288A101209D
:104BB000FBF788BF1CB500F05AF88748C278B0F9F7
:104BC00000106846FCF73DF804460C2285A140E041
:104BD000F8B5026811782D297CA47DA507D1302372
:104BE0001370026800F017F880B2404204E03039D8
:104BF0000A2908D200F00FF8FF2100B2FFF76AFA85
:104C00000222294601E0052279A1FFF7D0FF2146C3
:104C1000BDE8F8406CE086880021002301E0491CD3
:104C20005B1CB34203DAD75C303F0A2FF7D3C9B21B
:104C30001046FBF704BF00001CB500F018F86648EA
:104C4000C27881786846FBF7FCFF04465FF00D02EE
:104C500069A10120FBF736FF224669460120FBF7D8
:104C600031FF032259A10120FBF72CFF13BD0521C1
:104C70006846FBF75BBF000070B500F03DF80DD251
:104C800000F040F8544DFBF7DAFEA870FF21B5F9AB
:104C90000000FFF71FFA02224DA102E05FF00502BB
:104CA00053A120E01CB5FFF7E2FF4C4A117868469B
:104CB000FBF7A2FF04460B2253A1CAE770B500F030
:104CC0001BF80ED200F01EF8FBF7B9FE00B2411E31
:104CD000FF2906D2414A1070FFF70BF802223CA1CF
:104CE00001E0052242A1FFF762FF2146BDE87040C6
:104CF00002220120FBF7E6BE0268117830390A294A
:104D000032A4704785880021002301E0491C5B1C08
:104D1000AB4203DAD65C303E0A2EF7D3C9B2104656
:104D200070470000FEB505463AA00C46D0E90023C6
:104D3000CDE90023002007E0A2F141031A2B3CBF7C
:104D400020320A54401C80B2A988884205DA2968BA
:104D50000A5C3D2A18BF3F2AEED10027204A02EB09
:104D60000716294606F1080000F058F8010001D4A2
:104D7000706820B97F1C0A2FF0DB0020FEBDB089CF
:104D800041180BE0BDF80400802806D2009B1A549D
:104D9000BDF80400401CADF80400491C89B2AB8882
:104DA00099420ADA2868425C0D2AEBD15B1E9942CF
:104DB000E8DA084440780A28E4D1641E012C03D8BC
:104DC00072680021684690470120FEBD0D0A000070
:104DD0004F4B0000380400204C05002088010020C3
:104DE000544F0008536574757054656D703A200017
:104DF0004552524F52000000546872657368546502
:104E00006D703A2000000000536C617665204944C3
:104E10003A200000D4050020000000002DE9FE4FDC
:104E200005464FF000090E46ADF80490C8462968C3
:104E30000878212808BF4FF0010800272DE0002C3A
:104E40000FFA8BFB3AD12968336811F80A20DB1975
:104E500013F80A108A421ED1DA46A9888A4533DA45
:104E60002A6812F80A107C290AF1010BE7D1BDF972
:104E7000040010B901240AEB070901A800900FFAF9
:104E800089F3324629460FFA8BF000F032F8C1B2AE
:104E90000129D4D11BE07F1C3FB2B088874219DAC8
:104EA0002968306811F80820C35D9A42F3D10024C4
:104EB000012008F1010AADF80440CEE7BDF9041065
:104EC0008A45C9DA8A46C8E7C0B20128E3D141461B
:104ED000384602E041464FF0FF3000F002F8BDE8EE
:104EE000FE8F29B1002802D44FF0FF307047002018
:104EF00070472DE9F84604460D46089801214FF009
:104F0000000C4FF0FF3914E097880CEB030A57456B
:104F100002DA791C0180494616F80CE01668F6188A
:104F200016F80C70BE450CF1010618BF49460FFA81
:104F300086FCAE880CEB0407B74207DA2F683E19EF
:104F400016F80C707C2FDFD1644404800846BDE85D
:104F5000F286000000000000FD4A00081C52000814
:104F60000B00000001000000174B00082852000849
:104F700008000000020000002D4B00083452000819
:104F80000800000003000000B54B0008CC510008E9
:104F90000D00000004000000D14B0008DC510008A7
:104FA0000D00000005000000394C0008EC5100081D
:104FB0000E00000006000000794C0008FC510008BB
:104FC0000E00000007000000A54C00084052000839
:104FD0000B00000008000000BD4C00084C52000807
:104FE0000B00000009000000000000006C520008E7
:104FF00006000000FEE7FEE7FEE7FEE7FEE770477B
:105000007047704714480168491C016000F030B8CF
:105010000220FBF75FBF1020FBF75CBF4FF400706E
:10502000FBF758BF0D48FCF772BC0D48FCF76FBC8E
:1050300080B54FF40060FBF74DFFBDE802404FF430
:105040008050FBF747BF0748FCF761BC0648FDF7F7
:1050500087BB0648FCF75BBC940900206008002071
:10506000A40800201C0800201C070020E8080020DD
:105070000248416802788A184260704700000020A8
:10508000F0B40246106895681318506803EB50049A
:10509000C0071CD54D441AE013F8017B05F8017BCD
:1050A000491EF9D198B113F8011BC6F38106032EEE
:1050B00008BF13F8016B01EB06214942801C29440B
:1050C00005D011F8016B05F8016B401EF9D1A34220
:1050D0000ED013F8016B16F0030104BF13F8011B87
:1050E000C91C30090F28DBD113F8010B0F30D7E7AB
:1050F000F0BC02F10C00704710B507497944183133
:10510000064C7C44163404E00A68081D11448847A4
:105110000146A142F8D110BD2C000000480000005B
:105120004EF68851CEF20001086840F47000086025
:10513000BFF34F8FBFF36F8F4FF00070E1EE100A97
:1051400070470000EFB9FFFFCC030000D40500203A
:10515000000000002DFFFFFF30020000A60300004A
:10516000000000200248016841F4700101607047AE
:1051700088ED00E0000000000000000001020304D0
:105180000607080900F00DF8002801D0FFF7B4FF6A
:10519000AFF300800020AFF30080FDF7A1FD00F029
:1051A00002F80120704700F001B8000007463846B9
:1051B00000F002F8FBE7000080B5AFF30080024A80
:1051C00011001820ABBEFBE72600020061742B73B0
:1051D0006574757074656D703F00000061742B73A9
:1051E0006574757074656D703D00000061742B749A
:1051F000687265736874656D703F000061742B742C
:10520000687265736874656D703D00000148804781
:1052100001480047655100085952000861742B721B
:10522000657365746463750061742B736572693F9F
:105230000000000061742B736572693D000000007E
:1052400061742B736C61766569643F0061742B73C4
:105250006C61766569643D00AFF30080FFF760FF25
:10526000FFF790FF000000000102030461742B654A
:105270006E640000FFF7FEBFFFF7FEBFFFF7FEBF43
:10528000FFF7FEBFFFF7FEBFFFF7FEBFFFF7FEBF52
:10529000FFF7FEBFFFF7FEBFFFF7FEBFFFF7FEBF42
:1052A000FFF7FEBFFFF7FEBFFFF7FEBFFFF7FEBF32
:1052B000FFF7FEBFFFF7FEBFFFF7FEBFFFF7FEBF22
:1052C000FFF7FEBFFFF7FEBFFFF7FEBFFFF7FEBF12
:1052D000FFF7FEBFFFF7FEBFFFF7FEBFFFF7FEBF02
:1052E000FFF7FEBFFFF7FEBFFFF7FEBFFFF7FEBFF2
:1052F000FFF7FEBFFFF7FEBFFFF7FEBFFFF7FEBFE2
:10530000FFF7FEBFFFF7FEBFFFF7FEBFFFF7FEBFD1
:10531000FFF7FEBFFFF7FEBFFFF7FEBFFFF7FEBFC1
:10532000FFF7FEBFFFF7FEBFFFF7FEBFFFF7FEBFB1
:10533000FFF7FEBFFFF7FEBFFFF7FEBFFFF7FEBFA1
:10534000FFF7FEBFFFF7FEBFFFF7FEBFFFF7FEBF91
:10535000FFF7FEBFFFF7FEBFFFF7FEBFFFF7FEBF81
:10536000FFF7FEBFFFF7FEBFFFF7FEBFFFF7FEBF71
:10537000FFF7FEBFFFF7FEBFFFF7FEBFFFF7FEBF61
:10538000FFF7FEBFFFF7FEBF430100012210083305
:1053900024F40E5205145003F9420008012121148F
:1053A00012FD1052021C2110900325430008000139
:1053B0002114129514920124C3B5433412E71052FC
:1053C00003105007B80B00002B4400080410100312
:1053D0008813000041107002000C0240049208047F
:1053E000920018A104F20204048201C88399469431
:1053F0008004D0070000A74694210183E946946009
:105400000660EA0000394700084013983A20863ABF
:1054100008120A0783F93A402150133F3B40952870
:1054200083913BD4211012BB1052055021605003D0
:10543000373C00080630214063D93BA062FF67F18A
:105440000D01514C2530C7890170C7390270437175
:10545000029C61CCC329059C125B10920510129B23
:1054600010920610500317060008076116E825126F
:10547000095025F5211C21BC1275209209FC12D778
:1054800010520A4021206403110700080B8CF0061B
:10549000FF14730F4D0700080001F19A0124026008
:1054A000090020C01003400400200E0920075356B5
:1054B00056444D43323330015631DA99104B0510C2
:1054C000A069304B2710A021101250044F5B107CB4
:1054D00003211029603299301B0200A411071DF32B
:1054E0000312801912100961046DE003210C92006F
:1054F000188E10F4032D18038F6D3E18032990CFDA
:10550000AD3EF4038F013FF40321011E0162049EAE
:10551000047D038F1740180321018F4B401803109F
:105520000330750000AF105207101003E093040021
:10553000BD10F0031F320019FF000151742D0C053E
:10554000838948B42101C32749B48F39493C0347B3
:0B555000540688562C9052B810020040
:040000050800525944
:00000001FF
