:020000040800F2
:10000000C81A002061610008595E00085B5E0008A4
:100010005D5E00085F5E0008615E00080000000091
:10002000000000000000000000000000635E000807
:10003000655E000800000000675E0008695E000859
:10004000E1610008E5610008E9610008ED61000870
:10005000F1610008F5610008F9610008755E0008AB
:10006000FD610008016200087B5E0008056200086F
:10007000096200080D62000811620008156200089C
:10008000196200081D62000821620008256200084C
:10009000296200082D62000831620008815E0008B4
:1000A00035620008396200083D62000841620008BC
:1000B00045620008496200084D620008516200086C
:1000C00055620008596200085D620008616200081C
:1000D0006562000869620008895E00088F5E00089A
:1000E000955E00086D620008716200087562000884
:1000F000796200087D62000881620008856200085C
:10010000896200088D62000891620008956200080B
:10011000AB5E0008996200089D620008A1620008B9
:10012000B15E0008A5620008A9620008AD6200087F
:10013000B16200080000000000000000B562000885
:10014000B9620008BD620008C1620008C56200080B
:10015000C9620008CD620008D1620008B75E0008DD
:10016000D5620008D9620008DD620008E16200087B
:10017000E5620008E96200080000000000000000DD
:10018000ED620008F162000810B5DFF84C0BDFF8F3
:100190004C4B002101840E2200F0DCFA00F0E6FA5C
:1001A00008220FF6743100F025FBA2882068002198
:1001B00000F03FFE0020A0800121DFF8244B00F07A
:1001C000ABFA0A2100F0A8FA0D2100F00EFB012085
:1001D00010BD38B50446DFF80C5B0122012128462A
:1001E00000F030FF012000F059FF002201212846D5
:1001F00000F028FF2146DFF8E80AB3E110B5014618
:10020000DFF8D80A8288DFF8D80A5AB1DFF8D83A7E
:100210001C88944205D100221A80022100F052FF6E
:1002200002E01A8000F056FF012010BD2DE9FC41CC
:10023000DFF8A85ADFF8A07AA9882868DFF8A08A32
:100240000024ADF804400022C9B200F0EBFCA888FD
:1002500029680A18921E53781678821E46EA0326E9
:1002600092B201A800F046FFBDF80410B1421CBFD5
:10027000387B002840F04481F87A70B90C21404660
:1002800000F020FF09E000F053F906D1661CB142EE
:1002900003DB105D01F0D1F83446A988A0B2891EB5
:1002A000821C9142C0F233812A68DFF840CA105C98
:1002B000641CA4B2631C0B289BB200F0A9800C281C
:1002C00000F0CC800D2800F0D0800E2826D0152814
:1002D00000F080801628D6D01B2800F0E08020286F
:1002E0000FD0212830D022283ED0232857D0602894
:1002F00000F0E180612800F0EB80622800F0F480DB
:10030000CBE7105D02281C46C7D1A61CB142C4DB56
:1003100010194178105D01F0A4F8BDE700F008F96C
:10032000BBD1661CB142B8DB105D0128B5D10121FB
:10033000404600F0D9FE0221404600F0D5FE0721DC
:10034000404600F0BFFEA7E700F0F2F8A5D1661C1A
:10035000B142A2DB115D01299FDC00220092012342
:10036000012201F085FA97E700F0E2F895D1661CCA
:10037000B14292DB115D01298FDC9CF8120020B1A3
:10038000002200920123012207E00846DFF86019ED
:10039000087301220092012300210520E1E700F00B
:1003A000C7F8E3D1661CB142E3DB105D0128E3DC52
:1003B000DFF8404958B10128D5D19CF8120030B17E
:1003C000DFF83419087801F070FB022100E0032106
:1003D0002046B6E7105D03281C4618D1E01C814278
:1003E00015DB115DDFF814391980641CA4B2090211
:1003F0001980105D0143641C1980A4B2DFF8000964
:10040000115D9970241D032100F05CFEA4B244E745
:10041000105D1C4602199142F9DB002139840B2240
:10042000F9690A70398CFA69491C398489B25054C7
:10043000398C491C398409E02B681B5D5354641CBA
:10044000398C491C401EA4B23984C0B2398CFA6977
:100450000028F1D1104600F00DFA1EE7165D1C468B
:100460003619B142F9DB05216AE7105D1C46021915
:100470009142F2DB002139830DE0398B142908DA2F
:100480002A68135D7A695354641C398B491CA4B2E1
:100490003983401EC0B20028EFD10421EFE600F0FE
:1004A00047F808D1601C814205DB135D012BDCBFDE
:1004B00000243C720446A0B2641C105C0128A4B263
:1004C00006D1661CB14203DB105D00F0FBFA344636
:1004D00000F032F808D1A888661C801EB04203DB09
:1004E000085D01F05AF9344600F026F8B5D1A88825
:1004F000661C801EB042B0DB085D01F062F9CBE6FD
:1005000001F0E9FB05210FF61C0000F0DCF9AA88D8
:10051000DFF8F00702700021286800F08AFC002054
:10052000A8800121404600F0CDFD0120BDE8F68104
:10053000105D01281C4670472968A0B2641C085C45
:100540000128A4B2704738B5DFF88C17DFF8905750
:100550008A7A04464EF660204243AA6300F0C7F947
:100560002146284600F0B6FD012032BD38B5DFF83F
:10057000684700202084AA21E0690170208CE2698C
:10058000218B00F0D9FA401C2084002009E0616929
:10059000E569C2B2401C8B5C218C6B54228C521CCE
:1005A0002284C1B2228B9142F1D34FF4005001F06A
:1005B00007FC228BE069921C92B24FF4005101F0CB
:1005C00092FCE1690D200870218CE06900F052F97D
:1005D000012032BD70B5DFF80027002010840C2107
:1005E000D0690170108CD369118B401C108480B2CB
:1005F0001954002304E05469DDB25B1C665D465467
:10060000108C401C1084DCB2158B118CD069AC426C
:10061000F1D300F02FF9012070BD7FB50446DFF85B
:10062000C05605F6147001F032FD40BB4FF47A70ED
:1006300000F034FD052101A801F048FD01AE0021C4
:100640000E220120ADF800108DF8042070708DF896
:100650000610032201A9684600F04CFDBDF8000019
:10066000F07000218DF8081001A8052100F020F994
:1006700009220FF2B86100F0BDF800F0FFFD21463D
:10068000284600F01FFD012004B070BD70B5DFF8F2
:100690005056044605F61476304601F0F8FC90B149
:1006A000DFF83406C17A01290BD105F1E0040122FB
:1006B0002146304601F0CAFC95F80311204600F0AF
:1006C000F7F8092100E02146284600F003FD01204B
:1006D00070BD70B5DFF8084604F61475284601F0C1
:1006E000D6FC18B9082100F017F813E0DFF8E80588
:1006F000C17A01290BD104F1E006012231462846D6
:1007000001F0A4FC94F80311304600F0D1F809215F
:1007100000F06BF8012070BD204600F0D3BC38B566
:100720000546DFF8B405DFF8B845017A0A2903DB8E
:100730000B21FFF7F1FF0BE0491C01721B22002186
:10074000018400F007F8027A00F010F800F04CF88D
:10075000012032BDC1690A700122018CC369491CA4
:10076000018489B25A54018CC3697047491C0184C1
:1007700089B25A54018C491C018489B2C06979E05C
:1007800038B5DFF85425DFF85845117C0546DFF809
:100790007805E9B900230121137211711174012246
:1007A000082100F04FFC01220092012300210120CA
:1007B00001F05EF800F018F80A21204600F094FCE1
:1007C00018220FF2745100F015F800F011F809E04A
:1007D0000021D17211740022082100F033FC0C2199
:1007E00000F003F8012032BD2946204600F072BC1B
:1007F0000222D0A1012000F023BB10B5DFF8D844BD
:10080000DFF8DC040122E2720A2100F05BFC002127
:100810002171012010BD38B5DFF8BC14DFF8C054D9
:1008200004460878002804BF487800281CD188783E
:10083000002804BFC878002816D10879A0B901F0B3
:1008400049FC696BAA6B401AB0EB520F0CD307211D
:10085000284600F03FFC0121284600F045FC02211B
:10086000284600F041FC03E02146284600F02AFC1F
:10087000012032BD38B5002304460D46ADF80030E6
:100880002A462146684600F035FCBDF80000605558
:100890006D1CABB20022E2546D1C20781B28E9B21B
:1008A000204602D100F004F831BD00F00CF831BD53
:1008B00038B504460D4600F036FC29462046BDE812
:1008C00038400122AEE100B589B000228DF8231036
:1008D00003E0835C0DF80230521C8A42F9DB0022EF
:1008E0006946DFF8280401F082FB09B000BD38B585
:1008F000DFF8E403002101840A22C1690A700022A2
:1009000000F090F85A54028CDFF8E01300F06DF814
:100910008B7CA354DFF8D82300F05EF8547800F005
:100920005AF8547900F057F8947900F054F8147993
:10093000EC54038CC46900F051F89278E254DFF86B
:10094000D033028C00F05EF8028CDFF8C83300F080
:1009500059F8FF2300F048F800F045F84B8800F004
:1009600041F84B8800F03FF88B8800F03BF88B880B
:1009700000F039F80B7C00F036F88B681B1200F0A1
:1009800032F88B6800F036F81B0E00F033F81B0CC1
:1009900000F030F81B0A00F02DF8A354028CC36954
:1009A00000F024F8497C9954D34A018CC469491C4D
:1009B000018489B21378635400F034F852785A54A1
:1009C000018CC269491C0184891E5170BDE8344004
:1009D000018CC0694EE7EC54038CC5695B1C038431
:1009E0009BB270471B0AA354028CC469521C028438
:1009F00092B27047A354028CC469521C028492B212
:100A0000CB687047C569521C028492B2B3F90040AA
:100A10002412AC54028CC469521C028492B21B880A
:100A2000A3547047018CC369491C018489B2704783
:100A3000AB4800F582732422642100F6147001F0A3
:100A4000C5BA70B586B01621684601F03FFB162284
:100A50004FF40051684601F064FA9DF800209E4C66
:100A6000AA2A0DF102000FD19DF801100022228365
:100A7000D3B28B4224DA6569268BC35CAB55521C1A
:100A8000238B5B1C2383F3E7AA228DF8002000212F
:100A9000228B8DF8012003E063695D5C4554491C9D
:100AA0009142F9DB4FF4005001F08AF9012000F087
:100AB000F5FA228B921C92B24FF4005100F06CF8C0
:100AC00006B070BD1CB50100834C08BF0120002199
:100AD000ADF800102184A0726020E1690870012146
:100AE000208CE26900F028F8E269A17A401C208499
:100AF00080B21154218CE069491C218489B2FFF72E
:100B0000B9FEA07A8DF80100AA218DF800104FF4EB
:100B1000C04001F055F902224FF4C04100F03CF80A
:100B2000A27A6F484EF660214A438263032100F0A7
:100B3000D1FA13BD0D0A0000401C208480B211546C
:100B4000208C704780B568460021018002224FF456
:100B5000104101F0E6F99DF80000AA2806D19DF8A1
:100B600001005D49012814BF0028087301BD80B54C
:100B70000021ADF80010AA218DF800105648017B25
:100B80008DF801104FF4104001F01AF902224FF4D1
:100B9000104100F001F801BD684601F0A4B91CB590
:100BA00001004D4C08BF012060720321684601F02E
:100BB0008DFA607A8DF80100AA228DF800204FF49A
:100BC000E04001F0FDF803224FF4E041FFF7E4FFBD
:100BD000617A434A1FE01CB5684600210180022269
:100BE0004FF4C04101F09DF99DF800003A4CAA284D
:100BF00004BF9DF80100A07202224FF4E041684654
:100C000001F08FF99DF80000354AAA2804BF9DF82D
:100C100001006072617A4EF660204143C2F8C8104C
:100C200013BD000078B59BB004460D46164646211C
:100C300009A801F04BFA0294ADF80C500DF1100028
:100C400044A1132201F04CFA2EB9122204A901206A
:100C500000F0F6F803E0132243A1FFF7CBFD00BF3D
:100C600049A1BDF80C00D1E90023CDE9002309AC6E
:100C70004628009407DA02A9684600F0B8F8BDF8E3
:100C80000420009901E00A223CA1FFF7B3FDFFF721
:100C9000AFFD1CB070BD70B500240025104800EBFE
:100CA00005167278012A11D17068012430B101F063
:100CB00011FA7168B268401A904207D30020707030
:100CC00001F008FA7060E8B2F16888476D1C0E2DDB
:100CD000E4DB204670BD0000E0100020D8120020A8
:100CE000A001002000080240C21600208801002058
:100CF0009416002004110020E2120020B8160020F3
:100D0000AC110020C616002000100240B4100020D4
:100D10002C120020301200204F4E5F4D43550D0A1B
:100D2000000000004552524F520000004F46465FFF
:100D30004D43550D0A0000006170705F70635F6283
:100D40006F783A20526573657420506320426F7843
:100D5000000000006170705F70635F626F783A201E
:100D6000526563763A2000006170705F70635F6265
:100D70006F783A205472616E733A20004461746156
:100D8000204C617267650000000000000000000058
:100D900010B5DFF8DC200C46116800F005F8A04221
:100DA0008041C043C00F10BD814204D24FF0FF32DA
:100DB000101A08187047081A704738B50346002003
:100DC0008DF80000002207E0E4B2002A1ABF0A25CD
:100DD00005FB00402046521C8A4207DA9C5CA4F1C5
:100DE00030050A2D34BF303C0024EDE732BD30B56C
:100DF00000220FE004F812300B689C5C056804F0D8
:100E00000F0405EB42030A2CACBF37343034521CBC
:100E10005C7092B28B889A4208DA0B689B5C04681B
:100E20001B090A2BB4BF30333733E3E75B00838001
:100E300030BD130003D00A46194601F05DB9704772
:100E4000032804DA4FF47A730A4801F09AB970471C
:100E500038B500F006F882B229462046BDE8384091
:100E6000EEE704460D46284601F0BEBC0000000037
:100E7000BC160020B41500202DE9F84F0D460026C1
:100E80007A497B4A0F23044601202F68B04000EACC
:100E90000708804540F0CA804FEA460C032707FA4E
:100EA0000CF76FEA070E6F6807F00309B9F1010F3D
:100EB0001CBF07F00307022F12D1A768D5F80C90CA
:100EC0000EEA070709FA0CF949EA0707A7606768FD
:100ED00027EA00006F68C7F30017B7403843606027
:100EE000B0002F7907F00307032F21D0E768D5F86A
:100EF00008900EEA070709FA0CF949EA0707E760C4
:100F00002F7907F00307022F12D1F70804EB8707A8
:100F100000F01C09D7F820A003FA09FB2AEA0B0A03
:100F2000D5F810B00BFA09F949EA0A09C7F8209078
:100F300027680EEA070E2F7907F0030707FA0CF768
:100F400047EA0E0727606F6817F4403F6ED000270E
:100F500000974FEA960C176847F48047176000F037
:100F60000C00176807F48047009703FA00FE009F03
:100F7000404F57F82C7027EA0E0E3F4FBC4208BF77
:100F8000002722D03D4FBC4208BF01271DD03C4F57
:100F9000BC4208BF022718D03A4FBC4208BF032703
:100FA00013D0394FBC4208BF04270ED0374FBC4284
:100FB00008BF052709D0364FBC4208BF062704D01A
:100FC000344FBC420CBF0727082707FA00F0294F0F
:100FD00040EA0E0047F82C006FEA08008F6800EA2C
:100FE000070C6F68FF0248BF48EA0C0CC1F808C044
:100FF000CF6800EA070C6F68BF0248BF48EA0C0CD4
:10100000C1F80CC04F6800EA070C6F68BF0348BF07
:1010100048EA0C0CC1F804C00F6800EA070C6868C5
:10102000C00348BF48EA0C0CC1F800C0761C0F2E64
:101030007FF62AAFBDE8F18F0069084018BF012094
:10104000C0B2704702B9090481617047426901EA80
:101050000203914341EA0341816170470E4A1368DC
:1010600003421CBF106001F0C9BB7047003C014047
:1010700044380240083801400000024000040240A9
:1010800000080240000C0240001002400014024020
:1010900000180240001C0240143C014038B50446D0
:1010A00001F018F814F1010F054602D00448017848
:1010B000641801F00FF8401BA042FAD331BD00BF05
:1010C0000000002000EB011001210022417042606D
:1010D0000120704710B500EB01140120607000F092
:1010E000F9FF6060012010BD00EB0110002242708A
:1010F0000120704770B50023038000240FE00588AD
:101100000B5D5D4008236E08ED0752BF354686F43F
:10111000204585F001055B1EF5D10580641C9442D5
:10112000EDDB012070BD0A4601464FF47A735A4840
:1011300001F027B8010015D0FF2801D10A2070471F
:10114000FE2801D164207047FD2802D14FF47A7047
:101150007047FC2802D142F210707047FB2801D181
:101160004E4870470120704710B504460846FFF707
:10117000E1FF0A2114FB01F191FBF0F000B210BD78
:101180002DE9F04F0F4600250A26002F0446A946F8
:10119000B0460AD52D207F422070012505E040464B
:1011A0004946A6FB008906FB0199384600214246C4
:1011B0004B4601F04BFB002908BF0028EFD1404609
:1011C0004946B84610E0404600213246534601F0F9
:1011D0003DFBEBB200F13002E254A6FB007B6D1C3C
:1011E000A8EB0708304651460A22002301F02EFBE7
:1011F00006465FEA010A08BF002EE4D1E8B2BDE866
:10120000F08F2DE9F04100270029064690464CBF9B
:101210004D420D46FFF7B4FF044665B34046FFF765
:1012200089FF0A21854203D24D4307F10107F9D115
:10123000721E611CFBB26BB101E03355641EE4B257
:10124000135D2D2B18BF002CF7D1302232550C46E0
:101250007F1EEDE70A23B0FBF3F058B10A23B0FB81
:10126000F3F0E3B2641ED55CF5540028F5D1E4B286
:101270002E2030550C46E0B2BDE8F08172B6BFF3C7
:101280004F8F074907480A6802F4E06202430A6088
:10129000BFF34F8F00BFFDE7F8150020A0860100C7
:1012A0000CED00E00400FA0510B5CE4C00202081C2
:1012B000A072E0700121CC48FFF704FF01212171E9
:1012C000012010BD38B5C74CC74DE1780020491C3E
:1012D000A071E17028460321FFF7FCFE0421284697
:1012E000FFF7F8FE02212846FFF7ECFEA07800F099
:1012F000D7F8012032BD70B5BA4DBB4C06466879AF
:1013000003280BD100F0E6FE616B401AB0F57A7F3E
:101310000AD2287A401C022128726971314620467F
:10132000FFF7D8FE012070BD00F0DCF800206871E6
:1013300003212046FFF7D8FEF4E780B500F0D2F88D
:10134000A848427A0021521C41714272012002BD1C
:1013500038B5A64CA3492268A54D0020A080087886
:10136000012837D18B7A8879C3188B724878CB786B
:10137000834216D24023137000F04BF88A791A5436
:10138000A088236800F041F8CA7800F03BF849785B
:1013900011540121A088401CA0809348FFF792FEC1
:1013A0002AE000230B714120107000F032F88A7A95
:1013B0001A54A088236800F028F80A7A00F022F86E
:1013C000497A1154A088401CA08000F0A9F80020A0
:1013D000287011E000230B71162010700122A088E4
:1013E000236800F012F800F00DF8897811540021FC
:1013F000A088401CA0802970A1882068FFF73AFAD5
:10140000012032BD1A54A0882268401CA08080B2FE
:1014100070470422A0882368401CA08080B21A5420
:10142000A0882368401CA08080B28A781A54A088C3
:101430002368401CA08080B27047010000D1704733
:1014400010B53D280CDA674A117949B9684901237A
:101450000B7000241470137153705371907018E066
:1014600010BD020000D1704710B53D2810DA0A0007
:101470000ED007290CDA5B4B1A794AB95C4A012471
:1014800014701C701C7100225A719870597000E021
:1014900010BD0021BDE810405348FFF713BE000007
:1014A00070B5441EE4B20A20DFF848615EA394FBE5
:1014B000F0F533F8151056F825000122FFF7C2FDAC
:1014C0000120FFF7EBFD0A205BA100FB154406EBB2
:1014D000840031F81410C069BDE870400122FFF7A4
:1014E000B1BD000070B50024DFF808514EA636F8F3
:1014F000141055F824000022FFF7A4FD641C072CEB
:10150000F5DB00BF4CA6002405EB840036F8141070
:10151000C0690022FFF796FD641C0A2CF4DB70BD45
:101520001CB5304CA17800F038F8142232A100F03C
:101530002CF800F02DF800208DF801005FF0040277
:1015400033A100F022F8A17A00F027F800F020F88B
:1015500000208DF8010007222FA100F016F8217A53
:1015600000F01BF800F014F800208DF801000622AE
:101570002BA100F00AF8617A00F00FF800F008F8EB
:10158000022217A100F001F813BD0220FFF758BC9A
:10159000022269460220FFF753BC6846FFF7F0BD00
:1015A00070B500240025104800EB05167278012A5A
:1015B00011D17068012430B100F08CFD7168B268FF
:1015C000401A904207D30020707000F083FD7060D5
:1015D000E8B2F16888476D1C042DE4DD204670BD3B
:1015E0000D0A0000A416002044000020FC1000207A
:1015F000E0100020940000206170705F6374726CD2
:101600005F6D6F746F723A20506F733A0000000084
:101610002049523A00000000204561726C793A007E
:10162000204C6174653A00000400020001000010C3
:1016300000080004008000000800100020004000A6
:1016400080000800100020004000800010B5DFF886
:10165000BC4504212046FFF735FD05212046FFF754
:1016600031FD06212046FFF72DFD012010BD10B5EC
:10167000DFF89C150446887C20B1DFF898150878BF
:1016800000F013FA82E010B5DFF880450121204612
:10169000FFF72AFD03212046FFF71CFD012106204C
:1016A00000F039F9DFF87015012088710122062158
:1016B00000F007FA01220621012000F049FA01207A
:1016C00010BD80B50021062000F025F9DFF848059F
:1016D0000021817100220621012000F0F2F9002290
:1016E0000621012000F034FADFF830150020C87020
:1016F0000121DFF81805FFF7EDFC012002BD38B528
:10170000DFF80855A96CB1F5FA6F044605D1002041
:1017100000F006FA2821A96405E0002000F008FA8C
:101720004FF4FA60A86421462846FFF7D3FC012055
:1017300032BD70B5DFF8E864DFF8D0540446307885
:1017400080B1A96D502905D1012000F0E9F92821C7
:10175000A96507E0012000F0EBF95020A865317879
:101760004A1E327021462846FFF7B4FC012070BDA6
:1017700010B50446DFF8AC040178012903D102203A
:1017800000F0C6F902E0022000F0D2F92146DFF8AD
:101790007C04FFF79FFC012010BD10B5010008BFBD
:1017A000012002D01F28A8BF1E20DFF868446178FE
:1017B00000F035F800F01FF8612200F022F82278DE
:1017C00012E010B5010008BF012102D00428D8BFE3
:1017D0000521DFF84044207800F021F800F00BF8F4
:1017E000622200F00EF8627800F08CF9BDE810403B
:1017F0000068FFF73FB8DFF83004036800218180FC
:1018000070471A70012281880368491C818089B25F
:101810005A5481880368491C818089B27047DFF877
:10182000F423107051704EF66020DFF8E02341433E
:101830009161704780B5042200F0C7F803224FF48D
:101840000041684600F06DFB9DF80010DFF8C4030E
:10185000AA2905D19DF801109DF80220017042705F
:101860004178DFF8A8234EF660204143916101BD25
:101870002DE9F8430E0018BF012E05469046994603
:1018800047D1089CDFF89073062D37D8DFE805F0C4
:10189000040B121920273000002000F03CF83E70A5
:1018A00064BBFE712AE0012000F035F87E70E4B9D7
:1018B0003E721AE0022000F02EF8BE70F4B97E727B
:1018C0001CE0032000F027F8FE70BCB9BE7215E0E2
:1018D000042000F020F83E7184B9FE720EE005206D
:1018E00000F019F87E7104B93E7300F02AF805E0A3
:1018F000062000F010F8BE7104B97E733246294606
:10190000404600F0DEF8324629464846BDE8F84336
:101910001EE1BDE8F183C54A02EB800332F81000F6
:101920001B69012901460CBF012200221846FFF75E
:1019300089BB80B500F04DF800F06EF8BDE80140BD
:1019400078E7F8B500F040F8AA218DF800100722DA
:101950008DF80120B0490B784A788DF802308DF867
:1019600003208B78CA788DF804308DF805200B7928
:101970004A798DF806308DF807208B79CA798DF871
:1019800008308DF80920087B0B7A4A7A8DF80E0012
:101990008DF80A308DF80B20487B8B7ACA7A8DF847
:1019A0000F008DF80C308DF80D204FF4405000F0F2
:1019B00007FA0120FFF772FB10224FF440516846EE
:1019C00000F091FA05B000BD10220021684600F039
:1019D000C0BFF8B5FFF7F8FF10224FF4405168463A
:1019E00000F09FFA9DF80000AA2804BF9DF801109E
:1019F00007290FD19DF80310874A0129D8BF5170DC
:101A00009DF807100129D8BF51719DF80E000128DB
:101A1000D8BF107305B000BD70B57F4C84482178E5
:101A2000844D854E01290CBF012200224FF4004154
:101A3000FFF708FB607801280CBF01220022022179
:101A40002846FFF7FFFAA07801280CBF01220022E8
:101A500004212846FFF7F6FAE07801280CBF01229E
:101A600000224FF480713046FFF7ECFA207901280C
:101A70000CBF012200224FF400713046FFF7E2FA5A
:101A8000607901280CBF0122002240212846FFF77F
:101A9000D9FAA07901282846BDE8704007BF012285
:101AA000012100220121FFF7CDBA5C4A0121D1704A
:101AB0004EF66023554A5843906302211046FFF7C3
:101AC00001BB012800D0704738B55748056800238E
:101AD000838050242C700224838805685B1C8380DB
:101AE0009BB2EC54838804685B1C83809BB2E154F6
:101AF00081880368491C818089B200F003F8BDE841
:101B0000344075E65A548188491C818089B27047F7
:101B10006CA24A4B32F8101053F82000FFF796BA27
:101B200010B500F00DF8BDE810400122FFF78ABAA9
:101B300010B500F005F8BDE810400022FFF782BAAA
:101B400060A33E4C33F8101054F82000704700009A
:101B500010B501280C4636D1012A07BF1A220FF210
:101B6000E0011B220FF2F4010220FFF769F9062CB5
:101B700022D8DFE804F004070B0F13171B0009221B
:101B80003DA116E05FF007023EA112E05FF00C02FB
:101B90003EA10EE05FF0060240A10AE05FF00C02F9
:101BA00040A106E05FF0050242A102E05FF00502FD
:101BB00042A10220FFF744F9BDE81040022212A121
:101BC0000220FFF73DB910BD70B5002400250F4875
:101BD00000EB05167278012A11D17068012430B12A
:101BE00000F078FA7168B268401A904207D300207A
:101BF000707000F06FFA7060E8B2F16888476D1C91
:101C0000072DE4DB204670BD0D0A00000411002002
:101C100088010020E212002094160020E01000202D
:101C2000C6160020C7160020FC10002074110020EA
:101C3000000002400010024000040240A0110020F9
:101C4000757365725F6170705F72656C61793A205F
:101C50004F4E2052656C61793A20000075736572B1
:101C60005F6170705F72656C61793A204F46462003
:101C700052656C61793A2000454C455641544F52AB
:101C80002000000053435245454E2000465249442F
:101C9000474520434F4F4C2000000000414C41522B
:101CA0004D200000465249444745204845415420B4
:101CB000000000004C414D50200000005741524DA3
:101CC00020000000000200018000000001223149D4
:101CD000314800F0AEBA0122304915E010B52B4C66
:101CE0002948012204F11C0100F0A3FA0122214637
:101CF000274800F09EFA0122611C274800F099FA5B
:101D0000A11CBDE810400122254800F092BA38B568
:101D100005461F48296802681C4C91420CD1218954
:101D2000642905D2636822785A542189491C21818B
:101D30000122214600F07DFA174829680268914285
:101D40000CD1218A322905D2E36862785A54218A5B
:101D5000491C21820122611C00F06BFA104829689D
:101D6000026891420ED1218B642905D26369A27861
:101D70005A54218B491C2183A11CBDE83840012203
:101D800000F057BA31BD000070150020C4120020C9
:101D9000B4150020C51200202C150020C61200200A
:101DA000F81500200320FFF753B880B500F0ECF8D9
:101DB000062000F0E3FDBDE80240012000F0D4BDA4
:101DC00038B505460324FFF7F0FF4FF47A7000F0B2
:101DD00037F8012803D0641EF5D1002032BD00F091
:101DE000D3F8202000F0CAFD00F079F8280400F0B4
:101DF00077F8E8B200F0C2FD00F007F84FF47A700F
:101E000000F006F80128E9D0E7E7012000F0ACBDBA
:101E100070B500F0B6F8052000F0B0FD05E016F052
:101E2000030F09D00120FFF739F900F006F800F0A0
:101E30001BF80128F3D11CE01FE0A52000F09EBD97
:101E400070B500F09EF8052000F098FD04E0B007A2
:101E500009D40120FFF722F9FFF7EFFF00F004F8A3
:101E60000128F4D105E008E0064621462846FEF7A1
:101E70008FBF00F079FD002070BDFFF7C6FF012085
:101E800070BD78B5C1B004460D461646FFF78DFF0C
:101E90004FF47A70FFF7D4FF01281ED100F074F8D8
:101EA000022000F06BFD00F01AF8280400F018F88A
:101EB000E8B200F063FD64200090334601AA214699
:101EC000DFF8CC0000F0CEFDFFF79FFF6420FFF7A6
:101ED0009FFF012801D142B070BD0020FBE728021E
:101EE000000E00F04BBD70B504460D4616464FF48B
:101EF0007A70FFF78DFF01280CD132462946204623
:101F0000FFF7BFFF012805D00FF28C01FFF74AFF52
:101F1000002070BD0FF29C010320FEF799FF012005
:101F200070BD2DE9F8430E468046914635023704D0
:101F300003244FF47A70FFF76BFF012804D0641E6E
:101F4000F7D10020BDE8F28300F01EF8032000F076
:101F500015FD280E00F012FD380E00F00FFDF0B256
:101F600000F00CFD03E0FFF768FF08F8010B48469E
:101F7000A0F1010980B20028F5D1FFF746FF01204A
:101F8000E0E704490D680446002000F0EDBC0000C5
:101F90008C140020BC160020755F65785F666C614C
:101FA00073683A207772697465206661696C210DE7
:101FB0000A000000755F65785F666C6173683A209F
:101FC0007772697465204F4B210D0A0050B50024CB
:101FD000047043600E465643446804619B19836055
:101FE000002443680475C3604175C28250BD38B592
:101FF00004461046657D237D00226D1EAB4223DA28
:10200000E38AEBB11A4660B9E06800F069F8E1686C
:10201000E08A0844A168E060884211D36068E0600B
:102020000EE020695B421844206100F059F82069F5
:102030006168884204D2E18AA06849420144216172
:102040000122207D401C2075104632BD10B504468B
:1020500008461146227DC2B1E28A19B9216900F011
:102060003FF810E062B110B1216900F039F8206941
:10207000E18AA26808442061904224BF6068206120
:10208000207D411E2175012010BD002010BD007D66
:10209000704730B4002513E050F8042BD30744BF39
:1020A000A9F101039A18091F042942F8045BFAD226
:1020B00013468C0744BF15809B1CC90748BF1D7081
:1020C00050F8041B0029E7D130BC7047002200F013
:1020D00063BE000001484068704700BF0000002058
:1020E0004AB1000011F8013B521E00F8013B1CBF31
:1020F00011F8013BF8E770474018491C1CBFB1F1CB
:10210000010100F8012DF9D17047000038B5040035
:1021100001D1012032BD00F017F808B900F018F81D
:1021200000F01BF800F023F8FFE7416100F001F830
:1021300032BD2068C16841F40051C1600020686070
:1021400020216970A970704704F13C0568787047D8
:1021500000212970204600F06EBE2420687020689F
:10216000C16821F40051C160204600F0D9BA20684E
:10217000016921F4904101612068416921F02A013F
:1021800070472DE9F843054605F13C060C4670788A
:1021900020281746994649D10CB1380001D10120B9
:1021A00045E03078012841D0012131700020706075
:1021B00021227270FFF78EFFAF848046EF84A868FB
:1021C000B0F5805F04BF286900280EBF274620466F
:1021D00000270021317004460EE014F8012B426004
:1021E00007E02868002CF8D137F8021BC1F308017A
:1021F0004160E88C411EE9844346E88CCDF80090AC
:10220000002807D000228021284600F081F900280C
:10221000E7D005E000224021284600F079F908B116
:10222000032004E020207070002000E00220BDE8C0
:10223000F28338B500F130039C7B202C0FD109B11B
:10224000140001D1012032BD1C7B012C07D00124D8
:102250001C7300251D60BDE8384000F0A3B90220C2
:1022600032BD216801F1140252E8001F206800F11C
:10227000140321F0400143E80010002870477CB5AA
:10228000044621680B68CD684A6913F00F0007D136
:10229000980661D5AA065FD52046BDE87640D5E10F
:1022A000D00702D415F4907F56D0D80705D5E9059C
:1022B00003D5206C40F001002064580705D5D107F4
:1022C00003D5206C40F002002064980705D5D107A3
:1022D00003D5206C40F004002064180707D5A90638
:1022E00001D4D00703D5216C41F008012164206C92
:1022F000002830D0980604D5A90644BF204600F037
:10230000A5F920684069216C0A0701D440061DD553
:10231000204600F070F920684169480611D5FFF7A2
:10232000A0FFFCD1A06B60B10FF215310165A06B6D
:1023300000F034FF00280ED0A06B016DBDE87C409A
:1023400008472046BDE8764001F042B8204601F03B
:102350003FF80020206473BD206B012804F13D028A
:1023600040F08680D80600D5EE0640F1818000233B
:1023700000930D6800954B680093009849694806E2
:102380003FD5A16B0868406880B20028E3D0A38DD8
:102390009842E0DAE085C869B0F5807F2DD02168E9
:1023A00001F10C0050E8001F236803F10C0521F433
:1023B000807145E800100028F1D100F09BF8490831
:1023C00000F11405490045E800100028F5D100F09F
:1023D00091F800F1140521F0400145E800100028B3
:1023E000F5D1202050700021216300F089F800F021
:1023F000BEF8FAD1A06B00F095FEA18DE08D091A10
:1024000030E0A08DE18D411AE08D00281CBF88B21C
:10241000002868D0206800F10C0353E8003F00F169
:102420000C0623F4907346E800300028F2D12068AF
:1024300000F05AF800F114065B0046E8003000286E
:10244000F5D12020507000222263206800F10C0298
:1024500052E8002F00F10C0522F0100245E80020A0
:102460000028F2D12046BDE87C4089B200F0B1BF1F
:10247000180629D52E0627D51078212833D1A06833
:10248000B0F5805F04BF2069002808D1206A028867
:10249000C2F308024A60206A811C216204E0206ABB
:1024A000421C226200784860E08C401EE08480B2CA
:1024B000C8B92068C16821F08001C1602068C16886
:1024C00041F04001C16073BD58060CD56B060AD5BA
:1024D000C86820F04000C860202111702046BDE887
:1024E000764000F077BF73BD00F1140353E8003F5E
:1024F0005B087047206800F1140151E8001F704725
:10250000206800F10C0151E8001F00F10C03704736
:102510002DE9F041069C05460E4690461F46286868
:1025200001683140B1420CBF0120002040451BD161
:1025300014F1010FF3D024B1FFF7CCFDC01B84428E
:10254000EDD200F01AF821F4D07100F012F8F8D1B1
:1025500000F01BF8FCD105F13C0020214170817096
:1025600000210170032000E00020BDE8F08121F08F
:10257000100143E8001000287047286800F10C01A2
:1025800051E8001F00F10C037047286800F11401A6
:1025900051E8001F490800F11403490043E8001006
:1025A0000028704781628285C28500F13C010022CB
:1025B0004A6022238B700A70016921B10168CA68E0
:1025C00042F48072CA6001684A6942F001024A61BD
:1025D0000068C16841F02001C1600020704744E8F4
:1025E000002100297047016801F10C0252E8002F18
:1025F00001F10C04704710B5FFF7F5FF22F490725B
:10260000FFF7EDFFF8D100F00BF8016B012901D1C4
:1026100000F071F8202180F83E100022026310BD06
:10262000016801F1140252E8002F520801F114046C
:10263000520044E800210029F2D170470000000058
:10264000806B0021C185C18400F0C2BE1CB590F82A
:102650003E1022294DD18168826AB1F5805F0AD18E
:10266000016969B903685968C1F308011180826A78
:10267000911C81620FE0002904BF0169002902D189
:102680000368596803E00168496801F07F0111702F
:10269000816A4A1C8262C18D491EC18589B231BBE3
:1026A0000168CA6822F02002CA600168CA6822F480
:1026B0008072CA6001684A69520852004A6100F09B
:1026C00029F812D10021016300F015F802681168A1
:1026D000CB0606D50024009413680093526800923C
:1026E0000099818D00F075FE01E0FFF710FB0020DE
:1026F00016BD022016BD026802F10C0151E8002F40
:10270000036803F10C0422F0100244E800210029C0
:10271000F1D17047202180F83E10026B012A7047EA
:1027200070B5044622681169E06821F44051014304
:102730001161D3682648A168034020690B43616991
:102740000343E0690B430343D3605169A06921F45B
:102750004071014351611F498A421CBF1E48824299
:1027600002D100F0C7FE01E000F0BCFE62682568FF
:10277000E46964261921B4F5004FA1FB000112D1D0
:10278000D30F520000F062F800F028F8F60032365D
:102790006420B6FBF0F0420002F4F87202EB011282
:1027A00000F0070010E0930F920000F04FF800F0E7
:1027B00015F8360132366420B6FBF0F000F0F00276
:1027C00002EB011200F00F008018A86070BD00003D
:1027D000F369FFFF00100140001401406421B0FBC9
:1027E000F1F106FB1106704700F1010310F8011B1F
:1027F00011B110F8011BFBE7C01A704710281149EE
:1028000003D18879401C88717047B0F5006F03D1FF
:102810004879401C4871704702280B4903D18868E9
:10282000401C88607047B0F5007F03D14868401CA9
:1028300048607047B0F5805F02D10868401C0860AE
:10284000704700BFA4160020B0120020D3BBD9B13E
:10285000B2F5803F5BD2022A1ED98C46B1FBF2F161
:1028600002FB11C31B0443EA1043B3FBF2FC02FB5F
:102870001C3380B240EA0343B3FBF2F002FB103298
:1028800040EA0C4000237047022A05D98446B0FB79
:10289000F2F002FB10C270474AB105D100F001020C
:1028A00049085FEA3000704700220023704700F0BB
:1028B00069BE0B000200002100207047F7D3002200
:1028C00000237047904271EB030CF2D370B5B1FA5C
:1028D00081F4B3FA83F52C1BA340C4F1200532FA2E
:1028E00005F63343A2405FF00046E64002E05B0895
:1028F0005FEA3202841A71EB030524BF20462946A1
:102900007641F4D302000B003000002170BD70B599
:10291000B1FA81F4B2FA82F5C4F120046419B4F179
:102920002006DAD3B2405FF00044F440002502E014
:1029300052085FEA3303C61A71EB020E24BF304619
:10294000714664416D41F3D302000B002000290061
:1029500070BD10B5044610460A4601462046FFF7F2
:10296000CBFB204610BD00000D4B00280CBF002201
:1029700001224FF400711846FEF764BB01B582B026
:1029800000204FF47A718DF804000091012301AA10
:1029900002A9044800F066F89DF804000EBD00008E
:1029A000000C02408C14002038B5040001D1012035
:1029B00032BD606A28B900F051F805D00021E1610C
:1029C00002E00020206160610020A06204F1500557
:1029D000687820B900212970204600F0F3FD02201C
:1029E000687000F040F96068A168E26800F48270E5
:1029F00001F404410843217C02F400621043227D6B
:102A000001F002010843A16902F001021043227F94
:102A100001F40071084394F8201002F038021043CA
:102A2000A26A01F080010843216802F400521043B9
:102A30000860A06994F824102268000C00F00400DB
:102A400001F01001084350602068C16921F4006161
:102A5000C161002068600121697032BD6068B0F515
:102A6000827F70472DE9FC4700F0DCF84FF0010849
:102A700008BF022000F0C6809A4687F80080FFF762
:102A800029FB7B78012B09D06968B1F5827F02BFF1
:102A9000A9680029042B01D00226AEE0002C1CBF3F
:102AA000B9F1000FBAF1000F01D10126A5E07B7842
:102AB000042B1CBF052179707E60C5F83890A5F8FD
:102AC0003EA0A5F83CA02C63A5F836A0A5F834A03C
:102AD0002E646E6429680C68630603D40C6844F0A5
:102AE00040040C60E9680A9CB1F5006F696838D150
:102AF000002918BFBAF1010F00F0A9F88146E88E4D
:102B0000002804BFE88F002868D0296888688207F9
:102B10000BD5E88E002818BFB8F1000F05D0286B40
:102B20000288CA60B04600F06FF829688868C2075A
:102B30000CD5E88F50B1C868A96B08804FF0010828
:102B4000A86B821CAA63E88F411EE987FFF7C2FACF
:102B5000A0EB0900A042D2D314F1010FCFD003267D
:102B60004BE0002918BFBAF1010F00F064F881466C
:102B7000E88E002804BFE88F00282FD029688868D5
:102B800082070DD5E88E002818BFB8F1000F07D0D6
:102B9000286B02780A73B046286B411C00F036F8A7
:102BA00029688868C2070CD5E88F50B1C868A96B3E
:102BB00008704FF00108A86B421CAA63E88F411E01
:102BC000E987FFF787FAA0EB0900A04203D314F1CD
:102BD000010FCDD0C3E7002CCAD1C0E74A46214639
:102BE000284600F0A6F818B120200126786004E0FD
:102BF000A86810B900F00FF8009801217970002042
:102C000038703046BDE8F687286B811C2963E88E52
:102C1000411EE986704700962968CA680092896853
:102C200000917047054605F15007002638780128C5
:102C30000C469146704709D1296B2B680A781A73A4
:102C4000296B4A1C2A63E98E4A1EEA86704709D11D
:102C5000296B2B680A88DA60296B8A1C2A63E98E43
:102C60004A1EEA8670472068016821F04001016031
:102C700070472DE9F843089C05460E4690461F46CE
:102C8000FFF728FA381A2418FFF724FA814640483B
:102C900001684901090D6143009105E0009800B900
:102CA00000240098401E0090286881683140B1429D
:102CB0000CBF01200020404532D017F1010FF3D0A6
:102CC000FFF708FAA0EB0900A04201D2002CE5D1E1
:102CD0002868416821F0E00141606868B0F5827FB2
:102CE00008D1A868B0F5004F18BFB0F5806F01D1CA
:102CF00000F019F8A86AB0F5005F09D128680168EA
:102D000021F4005101602868026842F40052026018
:102D100005F150000121417000220270032000E003
:102D20000020BDE8F2832868016821F040010160BD
:102D300070477CB504461648164E0B4601681825A8
:102D4000B1FBF5F5B5FBF6F64FF47A704643009605
:102D50006168B1F5827F09D100928021002220466E
:102D6000FFF787FF58B100F00CF876BD009830B13E
:102D70000098401E0090216888680106F6D4002063
:102D800076BD606D40F02000606503207047000054
:102D90000C00002040420F0000B500BF1300964613
:102DA0009446103928BFA0E80C50FAD85FEA417C5D
:102DB00028BF0CC048BF40F8042BC90728BF20F823
:102DC000022B48BF00F8012B00BD000080B57548FC
:102DD000754901604FF4165200F01AF800B108E08E
:102DE00001BD80B57148724900F00FF800B100E0F4
:102DF00001BDBDE8014000F08FBC80B56D486E4953
:102E000000F003F800B1F4E701BD01604FF4E132D6
:102E100000230C2142608360C360036141618361D0
:102E2000C361FFF773B980B564486549FFF7EDFFEB
:102E300000B1DEE701BD10B586B0044614220021C2
:102E40006846FFF786FD2268574B5E485E499A4206
:102E500019D1002205920B6943F400230B61002372
:102E60000A6902F400220592059A0593032200F0F4
:102E700089F8082200F081F800220021342000F0B7
:102E800067FC342064E04A4B9A4219D10022059233
:102E90000B6943F400330B6100230A6902F400322A
:102EA0000592059A05930C2200F06CF8072200F0B9
:102EB00064F800220021262000F04AFC262047E08A
:102EC0003D48824221D100220592086940F48020C9
:102ED0000861086900F4802000F044F843F0020320
:102EE0000B60086800F0020005904FF440610598FF
:102EF000364800F031F8072100F03AF800220021AE
:102F0000272000F025FC272022E02D48824221D1F5
:102F100000220592486940F020004861486900F0AD
:102F2000200000F01FF843F004030B60086800F075
:102F300004000590C0210598254800F00DF80821EF
:102F400000F016F800220121472000F001FC472084
:102F500000F01BFC06B010BD00910192002102910F
:102F60000322704705900598059202220B6870476E
:102F7000049103926946FDF77FBF0393049269466B
:102F8000FDF77ABF0C6844F001040C600223096865
:102F900001F001010591059900920193002202922E
:102FA000032370472C150020004C004070150020B2
:102FB00000440040B415002000480040F8150020EF
:102FC000001401400000024030380240000402407A
:102FD0000008024070B50446FFF77CF806460CB9BD
:102FE000012070BD04F134050220687000212970B1
:102FF0002068026852085200026022681068C10707
:103000000AD5FFF767F8801B0628F6D32020286230
:1030100003216970032070BD1368DFF82C03616819
:103020000340A0680B43E168034320690B436169D7
:103030000343A0690B43E1690343206A0B43616AC0
:103040000343042903D1E16A206B01430B4313605E
:1030500023685A69606AD208042840EAC2020AD189
:10306000A66AE16A324331B1A06988B9002E18BF5F
:10307000022E1FD016D35A61204600F091F9A96A9A
:103080003F228A408260002028620121697070BD61
:10309000B0F5005F0AD1032EEDD8DFE806F00D0B86
:1030A0000D03E8E7B1F1C07FE5D105E0022E03D9B9
:1030B000F61EE0D1C801DED54021296201206870EA
:1030C00070BDF8B5044604F1340600253078776AFF
:1030D000012801D10220F2BD012030707078012852
:1030E0001CD1022070703562204600F049F9B06AA8
:1030F0003F2101FA00F0B8602068016841F0160134
:103100000160F06820B12068016841F008010160A9
:103110002068016841F00101016001E0357002257D
:103120002846F2BDF8B5044604F134056E6AFEF790
:10313000D1FF07466878022805D080212962002047
:1031400028700120F2BD2068016821F0160101609D
:1031500000F003F9E868002804BF6869002801D07E
:1031600000F007F900F0FFF820680168CA070CD5E5
:10317000FEF7B0FFC01B0628F6D3202028620321EB
:103180006970002028700320F2BDA86A3F218140A9
:10319000B1600020012169702870F2BD90F83510EF
:1031A000022903D08022426501207047052180F862
:1031B0003510006802685208520002600020704713
:1031C0002DE9FC41044604F1340600205F490090DB
:1031D0004FF41650776A0A683D68B2FBF0F8B06A9F
:1031E000082100F0B6F80ED02068026853070AD50F
:1031F000026822F004020260B06A8140B960316A5C
:1032000041F001013162B06A25FA00F1CA070BD51D
:1032100021684A69110607D5012202FA00F0B86058
:10322000306A40F002003062042100F091F808D0CA
:1032300021680A68930704D5B860306A40F004003A
:103240003062102100F084F81BD021680A6813074F
:1032500017D5B860206801684A0307D500680103E4
:103260000BD5716969B1204688470AE00168CA0533
:1032700003D4016821F008010160F16809B120461A
:103280008847B06A202100F064F83FD021680A68BE
:10329000D3063BD5B8602068717805291CD1026837
:1032A00022F01602026000F058F8F068002804BF0F
:1032B0007069002801D000F05CF83F22B06A8240BB
:1032C000BA60012171700020F1693070002939D095
:1032D0002046BDE8FC41084701684A0307D500685D
:1032E00001030FD4316989B1204688470EE0016897
:1032F000CA0507D4016821F0100101600120707037
:1033000000213170B16809B120468847306AC8B1E0
:10331000306AC10710D50520707000F024F80098BD
:10332000401C8045009003D320680168CA07F6D48A
:103330000120707000213170B16919B12046BDE8DB
:10334000FC410847BDE8F3813F8010F00C000020ED
:10335000B06A01FA00F0054270472068416921F027
:103360008001416170472068016849084900016097
:1033700070472068016821F0080101607047000073
:1033800030B50468256825F4802525606360806871
:10339000402802D1A260E16030BDA160E26030BD92
:1033A00030B5016808A401F0FF02103A1823B2FBFF
:1033B000F3F2890A8902A55CC565042A28BF091DA4
:1033C0008165084630BD0000000610160006101684
:1033D00070477047704700002DE9F04104000F4628
:1033E00054D0494E306800F00700B84202D200F0D5
:1033F00073F84BD12068454D810712D5400703D59E
:10340000A96841F4E051A9602078010703D5A868B4
:1034100040F46040A860A968A06821F0F001014371
:10342000A9602178C80729D56068012802D12968D8
:103430008A0305E0022818BF032803D129688A01FE
:1034400003D423E029688A0720D5A968890840EABF
:103450008100A860FEF73EFE8046A868616800F023
:103460000C00B0EB810F09D0FEF734FEA0EB080092
:1034700041F289318842F0D303202BE0306800F01C
:103480000700874204D200F027F801D0012021E094
:103490002078410705D5AA68E06822F4E05202438B
:1034A000AA602178080706D5A968206921F460413F
:1034B00041EAC001A96000F035F8AA681449154B2B
:1034C000C2F30312895CC84018601348006800F01A
:1034D00087F90020BDE8F0813770316801F00701FD
:1034E000B94270470B480D4A006813680C49C3F392
:1034F000822206E00748094A006813680849C3F3B6
:103500004232895CC8407047003C024000380240AB
:10351000D85F00080C000020080000200838024096
:10352000D061000830B5144C606800F00C0004282D
:1035300002D0082802D01DE0104830BD2268206863
:103540000023410202F03F0204D525680B49C5F370
:10355000881003E020680A49C0F38810A1FB00012D
:10356000FFF774F92168C1F30141491C4900B0FB20
:10357000F1F030BD024830BD0438024040787D0192
:103580000024F4007047000080B5284828490160F5
:103590004FF4827208214260C16100234FF400722F
:1035A0000A218360C36003614361826103624362F5
:1035B0008362C162FFF7F8F918B1BDE8014000F07D
:1035C000ABB801BD10B586B004461422002101A895
:1035D000FFF7BFF921681648814224D1002215481F
:1035E0000092016941F480410161016901F4804167
:1035F0000091009900924FF46041036843F0020388
:1036000003600222006800F00200009000980A485F
:103610000191029200210391032205210591049258
:1036200001A9FDF729FC06B010BD00008C14002094
:1036300000380040303802400004024080B500F0FD
:10364000EFF800F013F800F005F900F011FA00F0BF
:1036500029FAFFF7D2FBFFF7E6FBFFF7B7FBFFF70F
:10366000C0FBFFF791FF00F0B9FAFEE780B592B01A
:103670003022002106A8FFF76CF91422002101A8CE
:10368000FFF767F9002000902148016841F0805160
:1036900001600021006800F08050009000981D48F3
:1036A00000910221026842F4804202600122006817
:1036B00000F48040009000980691099210210A9130
:1036C000022200210C920D9110224FF4A8710E924B
:1036D0000F91022204211092119106A800F0BEFA67
:1036E00008B172B6FEE702210291002203920F2078
:1036F0004FF4A051019004914FF48052059205219E
:1037000001A8FFF769FE08B172B6FEE713B000BD6D
:10371000403802400070004072B6FEE70901020026
:1037200002D4294881547047284B02F00F021A44F2
:1037300002F8041C7047264B19684FF6FF0200027E
:10374000114000F4E06008432249084318607047C4
:1037500070B51F4B1C68C4F302230124C3F1070595
:10376000052D2EBF0F2504FA05F56D1E1E1D072E13
:1037700034BF0023DB1E2940994004FA03F3BDE85F
:1037800070405B1E1A401143C8E7010007D40122B4
:1037900000F01F01104B8A40400943F82020704779
:1037A00010B5401EB0F1807F01D3012010BD0B4C3D
:1037B00060600F214FF0FF30FFF7B0FF0021A160E4
:1037C00007202060002010BD00E400E018ED00E0BC
:1037D0000CED00E00000FA0500E100E010E000E080
:1037E00038B50D4D0D4B2A7804464FF47A711868A0
:1037F000B1FBF2F2B0FBF2F0FFF7D2FF50B9102CA0
:1038000008D2002221464FF0FF30FFF7A1FFAC6045
:10381000002032BD012032BD000000200C0000203D
:1038200080B50B48016841F400710160026842F400
:1038300080620260016841F4807101600320FFF73B
:103840007AFF0F20FFF7CCFF00F096FB002002BDAF
:10385000003C02402DE9F84F86B014220021684652
:10386000FFF777F800217448DFF8D091DFF8D0A196
:10387000DFF8D0B1DFF8D081059140F2EF35026872
:1038800042F0100202600022016801F0100105916F
:1038900041F601570599059248F24006036843F046
:1038A0000403036040F2FF24016801F00401059164
:1038B00005990592036843F001030360016801F074
:1038C0000101059105990592036843F00203036025
:1038D000016801F0020105910599059229460368E6
:1038E00043F008030360006800F0080005900598A5
:1038F0004846FDF7A7FB002239465046FDF7A2FBDC
:10390000002231465846FDF79DFB01224FF480719D
:103910004046FDF797FB002221464046FDF792FB0B
:1039200000224FF47E714948FDF78CFB009500F0B2
:1039300097F84846FDF7A0FA41F2100000904FF4C6
:10394000881501950221029148466946FDF794FACF
:10395000009700F085F85046FDF78EFA40F20221FC
:10396000009101950221029150466946FDF784FAC3
:1039700001200021019002220391029200966946E3
:103980005846FDF779FA4FF4C040002100900191AC
:103990000222029269464846FDF76EFA0122019220
:1039A00002924FF4807100910022039269464046D2
:1039B000FDF762FA009400F053F84046FDF75CFA18
:1039C0004FF48060002100F043F84FF400604FF4A2
:1039D000041100F03DF84FF47E7100910122019234
:1039E000022102910022039269461848FDF744FA29
:1039F000002200210720FFF7ABFE0720FFF7C5FEDE
:103A0000002200210A20FFF7A3FE0A20FFF7BDFED7
:103A1000002200211720FFF79BFE1720FFF7B5FEBD
:103A2000002200212820FFF793FE2820FFF7ADFE9B
:103A300007B0BDE8F08F00003038024000100240AF
:103A40000008024000000240000C02400004024056
:103A5000009001910222029269465846FDF70CBA85
:103A600001200021019002220391029269467047D1
:103A700080B50020009000220948016841F48001CF
:103A800001600021006800F4800000900098382058
:103A9000FFF75EFEBDE802403820FFF776BE00BFAC
:103AA000303802401FB5102200216846FEF751FF52
:103AB000434C444820604FF48031012020610022B3
:103AC0004148A06261600320E061A2600120606162
:103AD000227684F82020E262E26084F830202046DA
:103AE00000F066FA08B1FFF717FE082001210090E8
:103AF00001910722029200F015F808B1FFF70CFEC1
:103B000009210091022200F00CF808B1FFF704FE31
:103B100011210091032200F004F808B1FFF7FCFD29
:103B20001FBD01926946204600F09DBB38B586B0A6
:103B300004461422002101A8FEF70BFF216821484A
:103B400081423AD100222148214D0092416941F43D
:103B500080714161416901F4807100910099009286
:103B60000321036843F002030360006800F00200D1
:103B700000900098019102910021039101A915483C
:103B8000FDF77AF900216960E9604FF4806112481D
:103B9000286029614FF48050002268614FF4804111
:103BA000AA60A961EA612A626A622846FFF712FAEE
:103BB00008B1FFF7B1FDA563AC6307B030BD0000ED
:103BC000E4140020002001400100000F30380240C2
:103BD0002C140020000402401064024010B5FDF7D0
:103BE000A8FEFCF725FF00F015FE01F03BF9FCF7FD
:103BF00028FFFCF7F0FFFCF7A5FFFEF76FF8322077
:103C0000FDF74CFA104C01F0C2F900F023F8FDF773
:103C100042F800F01BF8FDF7C3FC00F01BF801F0C0
:103C2000A1FA00F013F800F045FE00F013F8FDF7DC
:103C3000CBFF00F00BF801F0F5F800F00BF801F005
:103C4000CCFB00F003F8DEE7B71600202278104323
:103C50002070704721780843207070472DE9F843A1
:103C6000040016D02078DFF80063C10713D5B068D0
:103C700000F00C00042807D0B06800F00C00082801
:103C80003DD1706841023AD53068810303D5606840
:103C9000002800F063812078B44F810719D5B068FF
:103CA00010F00C0F07D0B06800F00C0008285BD1B2
:103CB0007068410258D43068810703D5E068012854
:103CC00040F04C813168206921F0F80141EAC001DF
:103CD00031602178080779D56069A549002868D046
:103CE00001220A60FEF7F6F90546706F81076DD470
:103CF000FEF7F0F9401B0228F7D9032031E1606894
:103D0000B0F5803F04D1306840F48030306011E07D
:103D1000B0F5A02F306806D140F4802030603168C3
:103D200041F4803105E020F480303060316821F4C6
:103D300080213160606858B1FEF7CCF905463068E3
:103D40008103A8D4FEF7C6F9401B6528F7D3D4E752
:103D5000FEF7C0F90546306881039CD5FEF7BAF935
:103D6000401B6528F7D3C8E7E068A8B10121396096
:103D7000FEF7B0F905463068810705D4FEF7AAF9C9
:103D8000401B0228F7D9B8E73068216920F0F80015
:103D900040EAC10030609CE73860FEF79BF90546B9
:103DA0003168880795D5FEF795F9401B0228F7D9A9
:103DB000A3E70860FEF78EF90546706F810705D509
:103DC000FEF788F9401B0228F7D996E720784107CB
:103DD0005FD5306C0025C1000AD400950125316CF7
:103DE00041F080513164306C00F0805000900098B8
:103DF000DFF88081D8F80000C10513D4D8F800009E
:103E000040F48070C8F80000FEF764F98146D8F8E5
:103E10000000C10506D4FEF75DF9A0EB09000228F9
:103E2000F5D96AE7A068012805D00528306F06D1CA
:103E300040F004003067306F40F0010005E04008BA
:103E400040003067306F20F00400306741F289385D
:103E5000A06860B1FEF73EF98146306F810713D448
:103E6000FEF738F9A0EB09004045F6D345E7FEF729
:103E700031F98146306F810706D5FEF72BF9A0EBAB
:103E800009004045F6D338E71DB1306C20F0805072
:103E90003064A069002863D0B16801F00C010829E2
:103EA0003AD002282AD100203866FEF713F90546D9
:103EB0003068810105D5FEF70DF9401B0228F7D9BE
:103EC0001BE7E069216A626A0843A16A490840EA7F
:103ED0008210491E40EA0140E16A40EA01607060D8
:103EE00001203866FEF7F6F804463068810137D4C1
:103EF000FEF7F0F8001B0228F7D9FEE6002038662E
:103F0000FEF7E8F804463068810129D5FEF7E2F8AB
:103F1000001B0228F7D9F0E601281FD07068E2697B
:103F200000F48001914202BF00F03F01226A9142F9
:103F300001BF47F6C0710140626AB1EB821F0DD12B
:103F4000A26A520800F44031521EB1EB024F02BF88
:103F500000F07060E16AB0EB016F01D0012000E079
:103F60000020BDE8F28300BF003802400000474255
:103F7000800E47420070004081B000200090002277
:103F80000A48416841F480414160416801F4804140
:103F9000009100990092036843F080530360006829
:103FA00000F080500090009801B070474038024007
:103FB00070B5044600250CB9012070BD04F130062F
:103FC000306920B92046FFF7B1FD7561357330695E
:103FD000C10600F192803069DFF8C01320F48850E8
:103FE00040F002003061086820F4403008600A6840
:103FF000606802430A602068416821F48071416072
:1040000020684168226941EA0221416020684168D4
:1040100021F04071416021684A68A06802434A600B
:104020002068816821F40061816021688A68E06805
:1040300002438A602068A16ADFF8642391428168A4
:1040400021F0706181600CD021688A68A06A024307
:104050008A6000F05BF821688A68E06A02438A603F
:1040600001E000F053F82068816821F0020100F0BF
:1040700049F8227E41EA4201816094F820002168DB
:10408000002848680FD040F400604860206841680C
:1040900021F46041416020684168626A521E41EA31
:1040A0004231416002E020F4006048602068C16A4B
:1040B00021F47001C1622068C16AE269521E41EABE
:1040C0000251C1622068816821F4007100F01AF881
:1040D000327841EA422100F015F821F4806100F0C5
:1040E00011F8626941EA822181607561316921F0CC
:1040F000020141F00101316100E00125002030732F
:10410000284670BD8160206881687047206881689A
:1041100021F0405181607047126802F01F02102A9E
:104120007047016841F0804101607047816841F04B
:10413000804181607047F8B50446002004F13C03DB
:1041400000901D78012D01D10220F2BD01201870D0
:1041500020688568EE070DD48568974E45F0010507
:10416000856096480568B5FBF6F606EB46060096B0
:1041700000F00BF920688568EE0503D5856825F405
:10418000807585602568A868C60762D55F6888481D
:10419000074047F480775F606868450505D5586833
:1041A00020F4005040F4805058605868C50446BF61
:1041B000986820F006000020986000251D70A36B11
:1041C0000FF2FD10D863A36B0FF25D201864A36B90
:1041D0000FF25D20D8646FF0220025682860206807
:1041E000436843F08063436013462068856845F464
:1041F000807585600A46206800F14C01A06BFEF7CF
:1042000060FF2068654A6B49136813F01F0F16D1D1
:1042100088420DD06349884204D1126812F01F0F02
:104220001FD105E0604988421BD1FFF775FF18D206
:10423000816811F0405F14D1FFF778FF11E08842E8
:1042400002BF5A48016811F0405F0AD1FFF769FFC9
:1042500007E0586840F010005860986840F001008E
:1042600098600020F2BD78B502460020009092F8D8
:104270003C30012B01D1022072BD012082F83C00AC
:1042800007240B6810680A2B11D30A3BC56803EB9F
:10429000430300F076F8C460C3680D688C68A5F12C
:1042A0000A0606EB4606B4402343C3600FE00569E7
:1042B00003EB430304FA03F325EA030303610369F1
:1042C0000D688C6805EB4505AC40234303611F2452
:1042D0004B68072B0CD25B1E456B00F050F8446313
:1042E000436B4D680C886E1E00F044F843631BE07E
:1042F0000D2B0CD2DB1F056B00F041F80463036B40
:104300004D680C88EE1F00F035F803630CE00D3BA0
:10431000C56A00F034F8C462C36A4D680C88A5F120
:104320000D0600F027F8C362224B98421DD10C689D
:104330001A48122C03D1036843F4800303600B680E
:10434000102B18BF112B10D1036843F40003036036
:104350000868102809D11949174C0B68B3FBF4F40D
:104360000A204443009400F010F8002182F83C1029
:10437000002072BD06EB8606B4402343704703EB72
:1043800083039C4025EA0404704702E00098401E25
:10439000009000980028F9D17047000004230140E4
:1043A0000100000F002101400022014008200140CF
:1043B000FEF9FFFF0020014040420F000C000020EA
:1043C000816B0A6C12F0500F24D1086C40F400701D
:1043D00008640A68906810F0405F04BF087E0028F7
:1043E00015D1D06A10F4700F02D0906843050ED436
:1043F000506820F020005060086C20F48070086441
:10440000086CC20403D4086C40F00100086408463C
:1044100001F01CB80A6CD30644BF084601F017B877
:10442000896BCA6C10470000806B01F011B8000066
:10443000806B40210164426C42F00402426401F04E
:1044400006B8000010B5DFF8AC4401212046FCF7A7
:1044500039FE05212046EAE078B50FF24051DFF839
:104460009864D1E9002385B003ADCDE9012301951E
:104470000C2100910446DFF884542978022303229A
:1044800001A800F0FEFFDFF8785401224021284601
:10449000FCF7D8FD0520FCF701FEB288306800214A
:1044A000FCF7C7FC0020B08000F056F90022402144
:1044B0002846FCF7C7FDDFF83C5402212846FCF7EC
:1044C00001FE03212846FCF705FE21462846FCF79D
:1044D00001FE012006B070BD10B50146DFF81804DA
:1044E0008288DFF810045AB1DFF818341C8894422F
:1044F00005D100221A800321FCF7E4FD02E01A80B6
:10450000FCF7E8FD012010BD2DE9F843DFF8E87362
:10451000B9883868DFF8F053DFF8E063DFF8D48358
:104520004218921E891E5378127842EA032900F03D
:1045300090FF48454FF6FF743ED106214046FCF7F8
:10454000C9FD396832780878904204BF487803285A
:104550003AD1C8780A7942EA002272800A23487A5E
:104560008A7A42EA002292FBF3F292B20A2092FB8C
:10457000F0F300FB1322042AC8BF5B1CB3800A7C43
:10458000C87B4B7C120442EA0062887C42EA032228
:104590000243B2600B7ECA7D887E1B0443EA02633D
:1045A0004A7E43EA02230343F36001212970707DB0
:1045B00050B1401E707507E07480B480B460002074
:1045C0002870717D491C7175717DB88820B974801F
:1045D000B480B4602870491C307DCAB29AB9728820
:1045E0006E2A05DA0228D8BF401C04DD032005E04E
:1045F000020018BF401EC2B2022A01DD002206E0FE
:1046000032B9012203E0022A02DD03210222B27440
:104610003075717540460221FCF766FD0120BDE84A
:10462000F28310B5044600F0FDF82146B148FCF7CE
:1046300051FD012010BD38B5B04DE97C0446A87C81
:1046400088421FD000F068F8A87CE87400F08CF86D
:10465000A87C93A518B917220FF2C42108E00128FD
:1046600003D116220FF2D02103E01E220FF2E02127
:104670000120FCF7E5FB022229460120FCF7E0FBC4
:1046800000F006F821469B48FCF724FD012032BDCE
:1046900038B59E4C994A6179907C48BB012907D175
:1046A000012000900123012200210520FDF7E0F800
:1046B000A078012803D106219548FCF703FD207955
:1046C000012807D1012100910123012200210420AA
:1046D000FDF7CEF8A0798F4D012803D1032128469C
:1046E000FCF7F0FC2846BDE834400221FCF7FCBC96
:1046F000002904BF207B012806D10121009101235C
:1047000001220520FDF7B4F831BD80B5FEF75EFB50
:10471000FDF7DCFA012002BD10B57F4803680021D7
:1047200081800F221A70012281880368491C8180D0
:1047300089B25A548188714A0468491C818089B2BF
:10474000937C63548188491C818089B2BDE8104004
:104750000068FCF78FB80000BDF8082001996F4889
:104760004FF47A73FDF70DBD80B50021ADF8001050
:10477000AA218DF800106148817C8DF801104FF45A
:104780008040FDF71DFB0120FCF788FC02224FF45E
:10479000804129E080B568460021018002224FF463
:1047A0008041FDF7BEFB9DF80000AA2806D19DF8C8
:1047B0000100032802DA51498874C87401BD80B52C
:1047C00000214E480278ADF800108DF80120AA2192
:1047D0008DF800104FF4A040FDF7F2FA0120FCF72D
:1047E0005DFC02224FF4A0416846FDF77CFB01BD51
:1047F00080B568460021018002224FF4A041FDF7F8
:1048000090FB9DF80000AA2803D19DF801003B49C8
:10481000087001BD80B5FFF7EBFFBDE80140B9E7C7
:10482000000000003EB5684600210022002380E819
:104830000E00324C227C6188FCF7E3FC0546112215
:104840004BA100F02FF82A4600F030F85FF0040288
:104850004CA100F027F8227CA1886846FCF7D1FC27
:1048600000F023F85FF0040248A100F01BF8627C1E
:10487000A1686846FCF7C5FC00F017F85FF0040279
:1048800044A100F00FF8627CE1686846FCF7B9FCCF
:1048900000F00BF8022202A100F004F837BD00007E
:1048A0000D0A00000220FCF7CBBA0246694602203E
:1048B000FCF7C6BA70B5002400250E4800EB0516BB
:1048C0007278012A11D17068012430B1FDF702FC21
:1048D0007168B268401A904207D300207070FDF7EB
:1048E000F9FB7060E8B2F16888476D1C072DE4DBC6
:1048F000204670BD18010020D01200208801002041
:1049000000000240C0160020C716002094160020A8
:10491000AC11002004110020FC1000202C150020F8
:104920006170705F656C6563747269633A20504FA3
:10493000574552204F4646006170705F656C656355
:10494000747269633A20504F574552204F4E000011
:104950006170705F656C6563747269633A20504F73
:1049600057455220444953434F4E4E45435400004F
:104970006170705F656C6563747269633A20563A62
:104980002000000020413A200000000020503A2082
:104990000000000020453A20000000000000000058
:1049A0000000000070B50446DFF8D854DFF8D86482
:1049B0001420A8600322307A401C307206F10C01EA
:1049C000DFF8C804FFF7B7FB307A642804D101216F
:1049D0002846FCF777FB03E021462846FCF77AFBE4
:1049E000012070BD38B50446DFF89C54DFF89C0404
:1049F000032205F10C01FFF79EFB58B9A969E8688D
:104A00004118A9612869E9694118E9616869296A59
:104A100041182962697ADFF86C04491C6972C9B2CD
:104A2000642905DB002169720221FCF74BFB02E0DF
:104A30002146FCF74FFB012032BD000038B5DFF8FE
:104A40004844DFF84C24A069DFF838546421B0FBF7
:104A5000F1F1E06900EE101A6421B0FBF1F1206A77
:104A600084ED060A00EE901A6421B0FBF1F101EE2C
:104A7000101AC4ED070A84ED081A40F6E4401388C2
:104A8000434301EE903AF8EE611AB8EE411A81EE16
:104A9000811A9FEDA72AF8EE600A81EE021AB8EE9D
:104AA000400A60EE810A9FEDA33A20EE010ADFED95
:104AB000A12AC0EE830A9FEDA01A80EE220AC0EE62
:104AC000811A9FED9E2A9FED9E1AF1EE0C2A01EEAF
:104AD000821A80EE220A71EE402ADFED9A1A30EE39
:104AE000410A62EEA11A30EE200A81EE800ADFED63
:104AF000960A30EE200A9FED951A9FED952A00EE5A
:104B0000012ADFED941A42EE001ADFEDC00A41EEF1
:104B1000800AB2EE040A20EE800ABDEEC00A10EE52
:104B2000100AA0F10A010020A180FF22A061E0612B
:104B30002062A27104212846FCF7C4FAB4F90400EB
:104B400000F5967040F22131884204D307212846AF
:104B5000FCF7B8FA03E007212846FCF7C5FA012064
:104B600032BD80B5CB488178B0F9000000F09DF8E7
:104B700000F0B8F8012002BD80B568460021016050
:104B800004224FF48051FDF7CCF99DF80000AA28CB
:104B90000AD19DF801109DF80220BB4842EA01228B
:104BA0009DF803100280817001BD7CB5BA49B54CF7
:104BB000887C002836D0B4488178B0F90420B0F958
:104BC0000000B64D0B189A421ADB287938B9012635
:104BD00000960023012201210420FCF749FEA87859
:104BE00030B901210091002301220220FCF740FE90
:104BF00006212046FCF778FAA9490120887011E0C7
:104C0000411A91420EDB2879012807D10121009138
:104C10000023012200210420FCF72AFE0621204661
:104C2000FCF758FA00F09EF805212046FCF752FAEE
:104C3000012076BD80B501219248FCF743FA01209E
:104C400002BD80B595488178012907D101200090E7
:104C50000023012200210220FCF70AFE90480021D7
:104C60008170012002BD10B5044600F006F821460F
:104C70008448FCF72FFA012010BD8A480368002100
:104C8000818032221A70012281880368491C818048
:104C900089B25A5481880368491C818089B25A5468
:104CA0008188491C818089B23FE080B50023009350
:104CB000FCF75AFA744A8DF802001080AA210312F8
:104CC00090788DF803008DF800108DF801304FF4C6
:104CD0008050FDF775F804224FF480516846FDF7C7
:104CE00002F901BD10B56F480368002181801522CB
:104CF0001A70032200F030F85A548188624A04681E
:104D000000F02CF8B2F900301B126354818804685B
:104D100000F024F81388635400F01EF8D2785A5437
:104D2000818800F01BF8BDE810400068FBF7A2BDC9
:104D300000007A4400F07F4500EC7E460058C545EF
:104D40006F12033B0000FA430000F0C2CF738935B5
:104D50002CAC273A7E8C194081880368491C8180DD
:104D600089B270473EB505216846FDF7AFF9464C5C
:104D7000A279B4F904106846FCF743FA05461722F5
:104D80004AA100F04CF82A4600F043F83BA500F099
:104D900044F808224BA100F042F8E278B4F9001080
:104DA0006846FCF72EFA00F033F800F036F80922D6
:104DB00047A100F034F8E278A1786846FCF721FAC0
:104DC00000F026F800F029F82DA40222214600F078
:104DD00026F8324D2879012807BF0F220FF2FC0177
:104DE00010220FF2081100F01AF8A878012807BF66
:104DF0000F220FF20C1110220FF2141100F00FF815
:104E00000222214600F00BF837BD00003D4A77C36F
:104E1000024669460220FCF713B802222946022006
:104E2000FCF70EB870B500240025164800EB0516F7
:104E30007278012A11D17068012430B1FDF74AF966
:104E40007168B268401A904207D300207070FDF775
:104E500041F97060E8B2F16888476D1C082DE4DB09
:104E6000204670BD80B5FFF787FEBDE80840FFE72C
:104E700002220D490548FFF75EB90000B04300006B
:104E80000D0A0000AC1100202C120020E4140020B8
:104E90002A7AFF1FB81600208801002094160020EF
:104EA000E0100020FC100020381200206170705FBC
:104EB00074656D70657261747572653A2054656DC4
:104EC000703A20002053657475703A20000000008D
:104ED000205468726573683A2000000052656C6166
:104EE0007920486561743A204F4E200052656C610C
:104EF0007920486561743A204F4646200000000042
:104F000052656C617920436F6F6C3A204F4E2000E0
:104F100052656C617920436F6F6C3A204F46462092
:104F20000000000010B5012129482A4CFCF7CAF8FE
:104F300000F028F80020A080012010BD80B50146B7
:104F40002448828822484AB1038E934205D1002228
:104F500002860221FCF7B6F802E00286FCF7BAF8F6
:104F6000012002BD10B51B4C0121204600F056FD6A
:104F700000F008F80020A08001211548FCF7A2F8F5
:104F8000012010BDA28820680021FBF752BF70B538
:104F9000002400250E4800EB05167278012A11D175
:104FA0007068012430B1FDF795F87168B268401A55
:104FB000904207D300207070FDF78CF87060E8B263
:104FC000F16888476D1C032DE4DB204670BD0000AE
:104FD00010000020C812002080B501217248FCF7A3
:104FE00071F8012002BD70B50446704E4FF4804147
:104FF0003046FCF721F8401E80416D4DC00F2870EF
:105000004FF400513046FCF717F8012818BF002074
:1050100068700221644D2846FCF754F82146284662
:10502000FCF758F8012070BD10B5614C20780128BC
:1050300006D1607801280BD101210320A1710CE079
:10504000002804BF6078012805D10220012104E076
:1050500008B9012000E000200146564A51706071F5
:1050600021796079884205D00122A27003214E483F
:10507000FCF728F8A17960792071012908BF002880
:1050800007D1A0714C49887C18B14C490878FCF7CD
:105090000CFD012010BD10B50446454801780129DA
:1050A0001FBF417801298178012905D10022827032
:1050B00000F008F800F02CF821463B48FCF70AF80D
:1050C000012010BD10B53E480368002181803122C7
:1050D0001A70022200F016F85A548188344A046883
:1050E000491C818089B21378635400F00BF8527820
:1050F0005A548188491C818089B2BDE810400068FB
:10510000FBF7B8BB81880368491C818089B270476E
:1051100070B518222BA1264E0FF2CC0430A500F05A
:105120001EF83078012807BF0422294605222146AF
:1051300000F015F85FF008022DA100F010F870786B
:10514000012807BF042229460522214600F007F85E
:10515000BDE87040022213A10220FBF771BE0220BD
:10516000FBF76EBE70B5002400250F4800EB051656
:105170007278012A11D17068012430B1FCF7AAFFBE
:105180007168B268401A904207D300207070FCF733
:10519000A1FF7060E8B2F16888476D1C042DE4DB64
:1051A000204670BD0D0A0000D8000020001002400B
:1051B000B0160020E010002088010020E21200203C
:1051C000FC1000206170705F646F6F725F73656EBA
:1051D000736F723A20446F6F72313A200000000002
:1051E0004F50454E00000000434C4F534500000017
:1051F00020446F6F72323A200000000080B5022117
:105200008748FBF75FFF012002BD80B50146854856
:10521000026E0368934238BF0260426E4368934255
:1052200038BF4260826E8368934238BF826000223A
:105230000266426682661030FBF74CFF012002BD19
:1052400038B5784D0446286810B1287B401C287377
:10525000686800F03BF8A86800F038F80020286083
:105260006860A860287B68B300F081F800F09EF8C1
:10527000287B022824DB042105F11000FBF722FF24
:10528000287B03281CD10121009101230122FCF776
:10529000EFFAFCF71FFF0146286F091A4EF660224D
:1052A000914204D218B142F21070A86402E040F6B4
:1052B000B831A964032100F056F8FCF70BFF28670A
:1052C0000020287300F04EF8012032BD3D2802D3A3
:1052D000287B401C2873704780B501200090012373
:1052E000012200210320FCF7C3FA012002BD70B5A2
:1052F0004C4D4D4E0446A86D962819D1707860B972
:1053000001210520FCF707FB3178091F022998BF0E
:10531000C82022D91E21A96520E00020434A7070D0
:10532000307005205179FCF7F6FA0020A86517E0E7
:1053300000210520FCF7EFFA9620A8653078401C84
:105340003070C0B20A2809DB002030707078401C31
:105350007070C0B210B94FF47A70A86500F002F80E
:10536000012070BD214605F11000FBF7B3BE10B55A
:105370002F4803680021818030221A700122818821
:105380000368491C818089B25A548188254A04687F
:10539000491C818089B2137B63548188491C8180B8
:1053A00089B2BDE810400068FBF764BA80B51D48BB
:1053B000017B6846FBF7E4FE5FF015021DA10220A9
:1053C000FBF73EFD012269460220FBF739FD022270
:1053D00012A10220FBF734FD01BD70B500240025A9
:1053E000104800EB0516727C012A11D17069012466
:1053F00030B1FCF76FFE7169B269401A904207D371
:1054000000207074FCF766FE7061E8B2F1698847AD
:105410006D1C052DE4DB204670BD00000D0A000068
:105420006012002050120020C416002094160020A4
:10543000FC1000206170705F7669625F73656E7347
:105440006F723A204C6576656C200000704770479B
:10545000704730B503464FF6FF7000240DE01A5D2B
:10546000504008224508C00752BF284685F4204016
:1054700080F00100521EF5D1641C8C42EFDB80B23B
:1054800030BD38B5044625680498297021684A70F3
:105490001A0A2568AA70020A2168CB7006212368BF
:1054A0001A71256868712068FFF7D3FF2168887139
:1054B000000A2268D0710820A080012032BD0000BF
:1054C00010B500F056F90222ACA100F054F9DFF853
:1054D000FC4507212046FBF7FDFD01212046FBF797
:1054E00003FE2046BDE810400221FBF7FDBD0B2165
:1054F000DFF8D805FBF7E6BD70B500F067F907D215
:1055000000F094F9C0B2FBF798FF0222BBA101E0C2
:1055100000F058F93FE0F8B50268117800253039FD
:105520000A2996A41AD286880021002301E0491C8A
:105530005B1CB34207DAD75C303F0A2FF7D3D01891
:105540004078A0F13005C9B21046FBF736FCE9B24D
:10555000C0B2FBF786FF0222B3A101E000F032F9EE
:1055600000F009F92146BDE8F8401AE01CB500F04A
:10557000FCF8DFF85C1589781DE070B500F026F9BD
:1055800007D200F053F9C0B2FBF79CFA02229BA1AC
:1055900001E000F017F90120FBF752FC2146BDE8BD
:1055A000704002220120FBF74BBC1CB500F0DDF877
:1055B000DFF81C15497800F018F804460B220FF2AA
:1055C00038510120FBF73CFC224669460120FBF7DD
:1055D00037FC04220FF22C510120FBF731FC022290
:1055E00066A10120FBF72CFC13BD00226846FBF7E7
:1055F00008BE70B500F0EAF807D200F017F9C0B2A3
:10560000FBF7CDFA022288A101E000F0DBF8C2E747
:1056100080B5DFF8C0048288016800F0ACF8BDE80E
:105620000840022255A1BDE770B586B004460D467C
:1056300016216846FCF74AFDAA228DF800201422A4
:10564000A088DFF890648DF8010000210020B08070
:105650003068FBF7EEFB0DE02068415D0DEB0502C5
:1056600091702068415D3268B08811546D1CB1881A
:10567000491CB180EDB2A0888542B8BF142DEBDB88
:105680004FF40050FCF79CFBA288921C92B24FF49E
:1056900000516846FCF727FC00F06BF8022237A1A6
:1056A00000F069F806B070BD1CB500F05EF8DFF8D8
:1056B0002804C278B0F90010FFF798FF04460B22C7
:1056C0000FF2484100F057F800F04AF80222AEA16C
:1056D00082E7F8B5026811782D2928A452A507D1D0
:1056E00030231370026800F017F880B2404204E0E3
:1056F00030390A2908D200F00FF8FF2100B2FFF775
:10570000D4FA0222294601E000F05CF800F033F8F8
:105710002146BDE8F84044E786880021002301E0E7
:10572000491C5B1CB34203DAD75C303F0A2FF7D326
:10573000C9B21046FBF741BB1CB500F016F8DFF804
:105740009803C2788178FFF751FF04460C220FF2CC
:10575000C83100F010F800F003F802228AA13BE7FC
:10576000224669460120FBF76BBB05216846FCF722
:10577000ADBC02222CA10120FBF762BB0D0A000088
:1057800070B500F023F81AD285880021002301E0CB
:10579000491C5B1CAB4203DAD65C303E0A2EF7D3C1
:1057A000C9B21046DFF83053FBF707FBA870FF21A2
:1057B000B5F90000FFF779FA02221BA101E000F021
:1057C00001F8E8E605220FF22831704702681178E7
:1057D00030390A2990A470471CB5FFF7C6FFBF4AAD
:1057E00011786846FBF7CCFC04460A220FF23831E8
:1057F000FFF7C1FFFFF7B4FFF1E600004F4B0000D9
:1058000070B5FFF7E3FF0CD200F010F800B2411EB4
:10581000FF2906D2B14A1070FEF7D1FF022202A181
:1058200001E0FFF7CFFFB6E64F4B0000858800216F
:10583000002301E0491C5B1CAB4203DAD65C303E1E
:105840000A2EF7D3C9B21046FBF7B7BA38B500F045
:1058500047F818BF312805D1FFF78BFF022299A125
:10586000FFF789FF2068405D303804D100900123A4
:105870000122002106E0012807D100200090012329
:10588000012201210120FBF7F3FF31BD38B500F003
:1058900027F818BF312805D1FFF76BFF02225EA160
:1058A000FFF769FF2068405D303803D10090012385
:1058B000012210E0012812D18849887C28B10021FA
:1058C000009101230122012106E0854901200122E6
:1058D00008730092012300210520FBF7C9FF31BDA9
:1058E00004460D462068405D3028704738B5FFF704
:1058F000F7FF18BF312805D1FFF73BFF022246A171
:10590000FFF739FF2068774C405D303808BF03212E
:1059100009D001280CD17149887C48B172490878B6
:10592000FCF7C3F802212046BDE83440FBF7CABBB0
:1059300031BD00001CB5FFF718FF6B490978FFF770
:1059400054FE04465FF00F027AA13AE670B5FFF705
:105950003DFF09D2FFF76AFF63494978C0B2FBF700
:105960005EFF022258A101E0FFF72CFF13E60000C2
:105970001CB5FFF7FAFE5C494978FFF736FE04468E
:105980005FF010026FA11CE6B043000070B5FFF796
:105990001DFF09D2FFF74AFFC1B253480078FBF759
:1059A0003EFF022248A101E0FFF70CFFF3E50000F3
:1059B000474810B50179012942A406D15FF00F02D2
:1059C00065A1FFF7D8FE032204E00C2266A1FFF7D1
:1059D000D2FE02222146BDE81040E3E510B5006882
:1059E0000078A0F130010A290BA40DD230283849E3
:1059F00008BF002002D0312801D101200871FBF737
:105A0000B6F8022230A101E0FFF7DCFEFFF7B3FE9B
:105A10002146BDE81040C4E50D0A0000FEB505466C
:105A200055A00C46D0E90023CDE90023002007E073
:105A3000A2F141031A2B3CBF20320A54401C80B211
:105A4000A988884205DA29680A5C3D2A18BF3F2ADE
:105A5000EED10027254A02EB0716294606F1080079
:105A600000F08EF8010001D4706820B97F1C1A2F55
:105A7000F0DB0020FEBDB08941180BE0BDF804004A
:105A8000802806D2009B1A54BDF80400401CADF8D3
:105A90000400491C89B2AB8899420ADA2868425C42
:105AA0000D2AEBD15B1E9942E8DA084440780A28B7
:105AB000E4D1641E012C03D8726800216846904727
:105AC0000120FEBD0D0A00004F4B0000A001002088
:105AD000E8100020F41000202C1200208801002083
