:020000040800F2
:10000000C00C00207D450008A5430008A743000858
:10001000A9430008AB430008AD43000800000000FE
:10002000000000000000000000000000AF430008D6
:10003000B143000800000000B3430008B5430008C6
:10004000A1450008A5450008A9450008AD450008E0
:10005000B1450008B5450008B9450008C14300088E
:10006000BD450008C1450008C7430008C545000854
:10007000C9450008CD450008D1450008D545000810
:10008000D9450008DD450008E1450008E5450008C0
:10009000E9450008ED450008F1450008CD4300089A
:1000A000F5450008F9450008FD450008014600082F
:1000B00005460008094600080D46000811460008DC
:1000C00015460008194600081D460008214600088C
:1000D0002546000829460008D5430008DB430008F0
:1000E000E14300082D460008314600083546000867
:1000F000394600083D4600084146000845460008CC
:10010000494600084D46000851460008554600087B
:10011000F7430008594600085D460008614600089C
:10012000FD43000865460008694600086D46000862
:10013000714600080000000000000000754600083D
:10014000794600087D46000881460008854600087B
:10015000894600088D4600089146000803440008BF
:1001600095460008994600089D460008A1460008EB
:10017000A5460008A9460008000000000000000095
:10018000AD460008B146000838B5040001D1012091
:1001900032BD00F017F808B900F018F800F01BF8AD
:1001A00000F023F8FFE7416100F001F832BD20685C
:1001B000C16841F40051C16000206860202169706D
:1001C000A970704704F13C056878704700212970D8
:1001D000204600F079BB242068702068C16821F4B3
:1001E0000051C160204600F0D9BA2068016921F4AD
:1001F000904101612068416921F02A0170472DE991
:10020000F843054605F13C060C4670782028174651
:10021000994649D10CB1380001D1012045E0307830
:10022000012841D0012131700020706021227270BC
:1002300000F01AFCAF848046EF84A868B0F5805FB8
:1002400004BF286900280EBF27462046002700214A
:10025000317004460EE014F8012B426007E0286874
:10026000002CF8D137F8021BC1F308014160E88C7B
:10027000411EE9844346E88CCDF80090002807D061
:1002800000228021284600F081F90028E7D005E00F
:1002900000224021284600F079F908B1032004E04B
:1002A00020207070002000E00220BDE8F28338B505
:1002B00000F130039C7B202C0FD109B1140001D137
:1002C000012032BD1C7B012C07D001241C730025AA
:1002D0001D60BDE8384000F0A3B9022032BD21689E
:1002E00001F1140252E8001F206800F1140321F00C
:1002F000400143E80010002870477CB5044621689F
:100300000B68CD684A6913F00F0007D1980661D5D4
:10031000AA065FD52046BDE87640D5E1D00702D4D5
:1003200015F4907F56D0D80705D5E90503D5206C84
:1003300040F001002064580705D5D10703D5206C93
:1003400040F002002064980705D5D10703D5206C42
:1003500040F004002064180707D5A90601D4D0078F
:1003600003D5216C41F008012164206C002830D0B5
:10037000980604D5A90644BF204600F0A5F92068D8
:100380004069216C0A0701D440061DD5204600F0C3
:1003900070F920684169480611D5FFF7A0FFFCD12C
:1003A000A06B60B10FF215310165A06B00F046FC47
:1003B00000280ED0A06B016DBDE87C4008472046A8
:1003C000BDE8764000F054BD204600F051FD00200D
:1003D000206473BD206B012804F13D0240F086804B
:1003E000D80600D5EE0640F18180002300930D6809
:1003F00000954B6800930098496948063FD5A16B6A
:100400000868406880B20028E3D0A38D9842E0DA03
:10041000E085C869B0F5807F2DD0216801F10C001E
:1004200050E8001F236803F10C0521F4807145E8B2
:1004300000100028F1D100F09BF8490800F11405E4
:10044000490045E800100028F5D100F091F800F1CE
:10045000140521F0400145E800100028F5D12020C6
:1004600050700021216300F089F800F0BEF8FAD145
:10047000A06B00F0A7FBA18DE08D091A30E0A08DE4
:10048000E18D411AE08D00281CBF88B2002868D099
:10049000206800F10C0353E8003F00F10C0623F440
:1004A000907346E800300028F2D1206800F05AF836
:1004B00000F114065B0046E800300028F5D120204A
:1004C000507000222263206800F10C0252E8002FD5
:1004D00000F10C0522F0100245E800200028F2D1BE
:1004E0002046BDE87C4089B200F0C3BC180629D57F
:1004F0002E0627D51078212833D1A068B0F5805F6B
:1005000004BF2069002808D1206A0288C2F30802CB
:100510004A60206A811C216204E0206A421C226237
:1005200000784860E08C401EE08480B2C8B9206842
:10053000C16821F08001C1602068C16841F04001BC
:10054000C16073BD58060CD56B060AD5C86820F08B
:100550004000C860202111702046BDE8764000F0C0
:1005600089BC73BD00F1140353E8003F5B0870477A
:10057000206800F1140151E8001F7047206800F165
:100580000C0151E8001F00F10C0370472DE9F04108
:10059000069C05460E4690461F4628680168314075
:1005A000B1420CBF0120002040451BD114F1010FC6
:1005B000F3D024B100F058FAC01B8442EDD200F011
:1005C0001AF821F4D07100F012F8F8D100F01BF8FD
:1005D000FCD105F13C0020214170817000210170A7
:1005E000032000E00020BDE8F08121F0100143E885
:1005F000001000287047286800F10C0151E8001F26
:1006000000F10C037047286800F1140151E8001F45
:10061000490800F11403490043E80010002870471E
:1006200081628285C28500F13C0100224A6022235A
:100630008B700A70016921B10168CA6842F4807246
:10064000CA6001684A6942F001024A610068C168F3
:1006500041F02001C1600020704744E800210029DA
:100660007047016801F10C0252E8002F01F10C04FF
:10067000704710B5FFF7F5FF22F49072FFF7EDFF1A
:10068000F8D100F00BF8016B012901D100F071F8ED
:10069000202180F83E100022026310BD016801F1A4
:1006A000140252E8002F520801F11404520044E8E9
:1006B00000210029F2D1704700000000806B00216A
:1006C000C185C18400F0D4BB1CB590F83E1022292E
:1006D0004DD18168826AB1F5805F0AD1016969B93B
:1006E00003685968C1F308011180826A911C816214
:1006F0000FE0002904BF0169002902D1036859688D
:1007000003E00168496801F07F011170816A4A1CA9
:100710008262C18D491EC18589B231BB0168CA6838
:1007200022F02002CA600168CA6822F48072CA609E
:1007300001684A69520852004A6100F029F812D152
:100740000021016300F015F802681168CB0606D598
:100750000024009413680093526800920099818DE0
:1007600000F087FB01E000F0BCFB002016BD02207A
:1007700016BD026802F10C0151E8002F036803F175
:100780000C0422F0100244E800210029F1D1704746
:10079000202180F83E10026B012A704770B5044694
:1007A00022681169E06821F4405101431161D36866
:1007B0002648A168034020690B4361690343E0694F
:1007C0000B430343D3605169A06921F44071014395
:1007D00051611F498A421CBF1E48824202D100F06B
:1007E0005BFC01E000F050FC62682568E469642667
:1007F0001921B4F5004FA1FB000112D1D30F520013
:1008000000F092FC00F028F8F60032366420B6FBC7
:10081000F0F0420002F4F87202EB011200F007005F
:1008200010E0930F920000F07FFC00F015F8360105
:1008300032366420B6FBF0F000F0F00202EB011259
:1008400000F00F008018A86070BD0000F369FFFF82
:1008500000100140001401406421B0FBF1F106FBDF
:100860001106704780B57448744900F017F800B15C
:1008700008E001BD80B57248724900F00FF800B180
:1008800000E001BDBDE8014000F040BD80B56E480C
:100890006E4900F003F800B1F4E701BD01604FF4C8
:1008A000E13200230C2142608360C3600361416137
:1008B0008361C361FFF768BC80B565486549FFF790
:1008C000EDFF00B1DEE701BD10B586B0044614228D
:1008D0000021684600F01CFD2268584B5E485F49C5
:1008E0009A4219D1002205920B6943F400230B614F
:1008F00000230A6902F400220592059A0593032257
:1009000000F089F8082200F081F80022002134204C
:1009100000F022FD342064E04A4B9A4219D10022B3
:1009200005920B6943F400330B6100230A6902F45A
:1009300000320592059A05930C2200F06CF807220C
:1009400000F064F800220021262000F005FD26209A
:1009500047E03E48824221D100220592086940F4D6
:1009600080200861086900F4802000F044F843F01A
:1009700002030B60086800F0020005904FF440612C
:100980000598374800F031F8072100F03AF80022C6
:100990000021272000F0E0FC272022E02D488242A1
:1009A00021D100220592486940F020004861486941
:1009B00000F0200000F01FF843F004030B6008680B
:1009C00000F004000590C0210598264800F00DF8BD
:1009D000082100F016F800220121472000F0BCFC9D
:1009E000472000F0D6FC06B010BD00910192002116
:1009F00002910322704705900598059202220B6828
:100A0000704704910392694600F0EEBC0393049290
:100A1000694600F0E9BC0C6844F001040C60022354
:100A2000096801F0010105910599009201930022E6
:100A300002920323704700002C070020004C004066
:100A40007007002000440040B40700200048004028
:100A5000F807002000140140000002403038024036
:100A6000000402400008024001484068704700BF8F
:100A70000000002070B50446FFF7F6FF06460CB9EB
:100A8000012070BD04F13405022068700021297036
:100A90002068026852085200026022681068C1078C
:100AA0000AD5FFF7E1FF801B0628F6D32020286235
:100AB00003216970032070BD1368DFF82C0361689F
:100AC0000340A0680B43E168034320690B4361695D
:100AD0000343A0690B43E1690343206A0B43616A46
:100AE0000343042903D1E16A206B01430B431360E4
:100AF00023685A69606AD208042840EAC2020AD10F
:100B0000A66AE16A324331B1A06988B9002E18BFE4
:100B1000022E1FD016D35A61204600F091F9A96A1F
:100B20003F228A408260002028620121697070BDE6
:100B3000B0F5005F0AD1032EEDD8DFE806F00D0B0B
:100B40000D03E8E7B1F1C07FE5D105E0022E03D93E
:100B5000F61EE0D1C801DED540212962012068706F
:100B600070BDF8B5044604F1340600253078776A84
:100B7000012801D10220F2BD0120307070780128D7
:100B80001CD1022070703562204600F049F9B06A2D
:100B90003F2101FA00F0B8602068016841F01601B9
:100BA0000160F06820B12068016841F0080101602F
:100BB0002068016841F00101016001E03570022503
:100BC0002846F2BDF8B5044604F134056E6AFFF715
:100BD0004BFF07466878022805D080212962002053
:100BE00028700120F2BD2068016821F01601016023
:100BF00000F003F9E868002804BF6869002801D004
:100C000000F007F900F0FFF820680168CA070CD56A
:100C1000FFF72AFFC01B0628F6D3202028620321F5
:100C20006970002028700320F2BDA86A3F2181402E
:100C3000B1600020012169702870F2BD90F8351074
:100C4000022903D08022426501207047052180F8E7
:100C50003510006802685208520002600020704798
:100C60002DE9FC41044604F1340600205F49009060
:100C70004FF41650776A0A683D68B2FBF0F8B06A24
:100C8000082100F0B6F80ED02068026853070AD594
:100C9000026822F004020260B06A8140B960316AE1
:100CA00041F001013162B06A25FA00F1CA070BD5A3
:100CB00021684A69110607D5012202FA00F0B860DE
:100CC000306A40F002003062042100F091F808D050
:100CD00021680A68930704D5B860306A40F00400C0
:100CE0003062102100F084F81BD021680A681307D5
:100CF00017D5B860206801684A0307D5006801036A
:100D00000BD5716969B1204688470AE00168CA05B8
:100D100003D4016821F008010160F16809B120469F
:100D20008847B06A202100F064F83FD021680A6843
:100D3000D3063BD5B8602068717805291CD10268BC
:100D400022F01602026000F058F8F068002804BF94
:100D50007069002801D000F05CF83F22B06A824040
:100D6000BA60012171700020F1693070002939D01A
:100D70002046BDE8FC41084701684A0307D50068E2
:100D800001030FD4316989B1204688470EE001681C
:100D9000CA0507D4016821F01001016001207070BC
:100DA00000213170B16809B120468847306AC8B166
:100DB000306AC10710D50520707000F024F8009843
:100DC000401C8045009003D320680168CA07F6D410
:100DD0000120707000213170B16919B12046BDE861
:100DE000FC410847BDE8F3813F8010F00C00002073
:100DF000B06A01FA00F0054270472068416921F0AD
:100E0000800141617047206801684908490001601C
:100E100070472068016821F00801016070470000F8
:100E200030B50468256825F48025256063608068F6
:100E3000402802D1A260E16030BDA160E26030BD17
:100E400030B5016808A401F0FF02103A1823B2FB84
:100E5000F3F2890A8902A55CC565042A28BF091D29
:100E60008165084630BD0000000610160006101609
:100E700070477047704730B4002513E050F8042BDA
:100E8000D30744BFA9F101039A18091F042942F8A6
:100E9000045BFAD213468C0744BF15809B1CC9071C
:100EA00048BF1D7050F8041B0029E7D130BC7047C3
:100EB00010B52E4C2C48012204F11C01FFF7F7F964
:100EC000012221462A48FFF7F2F90122611C294834
:100ED000FFF7EDF9A11CBDE8104001222648FFF7FD
:100EE000E6B938B505462248296802681F4C914288
:100EF0000ED16168228923788B542189491C8BB2D9
:100F0000632B88BF0021218101222146FFF7CFF901
:100F100018482968026891420ED1E268238A6178F4
:100F2000D154218A491C8AB2312A28BF002121824A
:100F30000122611CFFF7BBF90F4829680268914242
:100F400010D16269238BA178D154218B491C8AB2BC
:100F5000632A28BF002121830122A11CBDE838405B
:100F6000FFF7A5B931BD000070070020440500203F
:100F7000B40700202C070020F80700202DE9F041DD
:100F800004000F4654D0494E306800F00700B842C4
:100F900002D200F073F84BD12068454D810712D57D
:100FA000400703D5A96841F4E051A9602078010702
:100FB00003D5A86840F46040A860A968A06821F043
:100FC000F0010143A9602178C80729D5606801288C
:100FD00002D129688A0305E0022818BF032803D13B
:100FE00029688A0103D423E029688A0720D5A968E3
:100FF000890840EA8100A860FFF736FD8046A868AE
:10100000616800F00C00B0EB810F09D0FFF72CFDF8
:10101000A0EB080041F289318842F0D303202BE095
:10102000306800F00700874204D200F027F801D0B2
:10103000012021E02078410705D5AA68E06822F464
:10104000E0520243AA602178080706D5A968206902
:1010500021F4604141EAC001A96000F035F8AA68B6
:101060001449154BC2F30312895CC8401860134839
:10107000006800F0C3FA0020BDE8F08137703168E5
:1010800001F00701B94270470B480D4A0068136828
:101090000C49C3F3822206E00748094A0068136836
:1010A0000849C3F34232895CC8407047003C0240A3
:1010B00000380240244500080C00002008000020F1
:1010C000083802409845000830B5144C606800F0BC
:1010D0000C00042802D0082802D01DE0104830BDC2
:1010E000226820680023410202F03F0204D52568EF
:1010F0000B49C5F3881003E020680A49C0F3881043
:10110000A1FB000100F010F82168C1F30141491C66
:101110004900B0FBF1F030BD024830BD0438024058
:1011200040787D010024F400D3BBD9B1B2F5803FF3
:101130005BD2022A1ED98C46B1FBF2F102FB11C32D
:101140001B0443EA1043B3FBF2FC02FB1C3380B2E6
:1011500040EA0343B3FBF2F002FB103240EA0C40DA
:1011600000237047022A05D98446B0FBF2F002FB47
:1011700010C270474AB105D100F0010249085FEA88
:101180003000704700220023704700F057BA0B0070
:101190000200002100207047F7D30022002370478F
:1011A000904271EB030CF2D370B5B1FA81F4B3FA4B
:1011B00083F52C1BA340C4F1200532FA05F6334316
:1011C000A2405FF00046E64002E05B085FEA3202C0
:1011D000841A71EB030524BF204629467641F4D3D7
:1011E00002000B003000002170BD70B5B1FA81F42F
:1011F000B2FA82F5C4F120046419B4F12006DAD3FE
:10120000B2405FF00044F440002502E052085FEA7B
:101210003303C61A71EB020E24BF30467146644197
:101220006D41F3D302000B002000290070BD0000C7
:1012300080B500F005FA00F013F800F01BFA00F09A
:1012400027FB00F03FFBFFF721FBFFF735FBFFF724
:1012500009FBFFF70FFB00F0D1FB00F029FCFEE7D4
:1012600080B592B03022002106A800F051F8142277
:10127000002101A800F04CF80020009021480168EE
:1012800041F0805101600021006800F08050009022
:1012900000981D4800910221026842F480420260D9
:1012A0000122006800F480400090009806910992A5
:1012B00010210A91022200210C920D9110224FF46C
:1012C000A8710E920F91022204211092119106A88A
:1012D00000F024FC08B172B6FEE702210291002260
:1012E00003920F204FF4A051019004914FF48052CB
:1012F0000592052101A8FFF741FE08B172B6FEE78D
:1013000013B000BD403802400070004072B6FEE7E6
:1013100010B5044610460A460146204600F08CFDF2
:10132000204610BD0901020002D4294881547047AB
:10133000284B02F00F021A4402F8041C7047264B97
:1013400019684FF6FF020002114000F4E060084304
:10135000224908431860704770B51F4B1C68C4F3DE
:1013600002230124C3F10705052D2EBF0F2504FA22
:1013700005F56D1E1E1D072E34BF0023DB1E294000
:10138000994004FA03F3BDE870405B1E1A40114314
:10139000C8E7010007D4012200F01F01104B8A406A
:1013A000400943F82020704710B5401EB0F1807FFF
:1013B00001D3012010BD0B4C60600F214FF0FF30B6
:1013C000FFF7B0FF0021A16007202060002010BDC2
:1013D00000E400E018ED00E00CED00E00000FA058C
:1013E00000E100E010E000E02DE9F84F0D46002696
:1013F0007649774A0F23044601202F68B04000EA5F
:101400000708804540F0CA804FEA460C032707FAD8
:101410000CF76FEA070E6F6807F00309B9F1010FC7
:101420001CBF07F00307022F12D1A768D5F80C9054
:101430000EEA070709FA0CF949EA0707A760676887
:1014400027EA00006F68C7F30017B74038436060B1
:10145000B0002F7907F00307032F21D0E768D5F8F4
:1014600008900EEA070709FA0CF949EA0707E7604E
:101470002F7907F00307022F12D1F70804EB870733
:1014800000F01C09D7F820A003FA09FB2AEA0B0A8E
:10149000D5F810B00BFA09F949EA0A09C7F8209003
:1014A00027680EEA070E2F7907F0030707FA0CF7F3
:1014B00047EA0E0727606F6817F4403F6ED0002799
:1014C00000974FEA960C176847F48047176000F0C2
:1014D0000C00176807F48047009703FA00FE009F8E
:1014E0003C4F57F82C7027EA0E0E3B4FBC4208BF0A
:1014F000002722D0394FBC4208BF01271DD0384FEA
:10150000BC4208BF022718D0364FBC4208BF032791
:1015100013D0354FBC4208BF04270ED0334FBC4216
:1015200008BF052709D0324FBC4208BF062704D0A8
:10153000304FBC420CBF0727082707FA00F0254FA1
:1015400040EA0E0047F82C006FEA08008F6800EAB6
:10155000070C6F68FF0248BF48EA0C0CC1F808C0CE
:10156000CF6800EA070C6F68BF0248BF48EA0C0C5E
:10157000C1F80CC04F6800EA070C6F68BF0348BF92
:1015800048EA0C0CC1F804C00F6800EA070C686850
:10159000C00348BF48EA0C0CC1F800C0761C0F2EEF
:1015A0007FF62AAFBDE8F18F0069084018BF01201F
:1015B000C0B2704702B90904816170470E4A1368CE
:1015C00003421CBF106000F041BC7047003C01406A
:1015D0004438024008380140000002400004024044
:1015E00000080240000C02400010024000140240BB
:1015F00000180240001C0240143C014038B50D4D5B
:101600000D4B2A7804464FF47A711868B1FBF2F258
:10161000B0FBF2F0FFF7C8FE50B9102C08D2002240
:1016200021464FF0FF30FFF797FEAC60002032BD3F
:10163000012032BD000000200C0000207047000097
:1016400080B50B48016841F400710160026842F402
:1016500080620260016841F4807101600320FFF73D
:101660006EFE0F20FFF7CAFF00F018FC002002BD3D
:10167000003C02402DE9F84F86B014220021684654
:10168000FFF746FE00217448DFF8D091DFF8D0A1C3
:10169000DFF8D0B1DFF8D081059140F2EF35026874
:1016A00042F0100202600022016801F01001059171
:1016B00041F601570599059248F24006036843F048
:1016C0000403036040F2FF24016801F00401059166
:1016D00005990592036843F001030360016801F076
:1016E0000101059105990592036843F00203036027
:1016F000016801F0020105910599059229460368E8
:1017000043F008030360006800F0080005900598A6
:101710004846FFF74FFF002239465046FFF74AFF81
:10172000002231465846FFF745FF01224FF48071F1
:101730004046FFF73FFF002221464046FFF73AFFB1
:1017400000224FF47E714948FFF734FF009500F006
:1017500097F84846FFF748FE41F2100000904FF41A
:10176000881501950221029148466946FFF73CFE23
:10177000009700F085F85046FFF736FE40F2022150
:10178000009101950221029150466946FFF72CFE17
:1017900001200021019002220391029200966946E5
:1017A0005846FFF721FE4FF4C04000210090019100
:1017B0000222029269464846FFF716FE0122019274
:1017C00002924FF4807100910022039269464046D4
:1017D000FFF70AFE009400F053F84046FFF704FEBE
:1017E0004FF48060002100F043F84FF400604FF4A4
:1017F000041100F03DF84FF47E7100910122019236
:10180000022102910022039269461848FFF7ECFD7D
:10181000002200210720FFF79FFD0720FFF7B9FDF9
:10182000002200210A20FFF797FD0A20FFF7B1FDF3
:10183000002200211720FFF78FFD1720FFF7A9FDD9
:10184000002200212820FFF787FD2820FFF7A1FDB7
:1018500007B0BDE8F08F00003038024000100240B1
:101860000008024000000240000C02400004024058
:10187000009001910222029269465846FFF7B4BDDA
:1018800001200021019002220391029269467047D3
:1018900080B50020009000220948016841F48001D1
:1018A00001600021006800F480000090009838205A
:1018B000FFF752FDBDE802403820FFF76ABD00BFC8
:1018C000303802401FB5102200216846FFF720FD86
:1018D000434C444820604FF48031012020610022B5
:1018E0004148A06261600320E061A2600120606164
:1018F000227684F82020E262E26084F830202046DC
:1019000000F0E8FA08B1FFF701FD0820012100907E
:1019100001910722029200F015F808B1FFF7F6FCDA
:1019200009210091022200F00CF808B1FFF7EEFC4B
:1019300011210091032200F004F808B1FFF7E6FC42
:101940001FBD01926946204600F01FBC38B586B025
:1019500004461422002101A8FFF7DAFC216821487F
:1019600081423AD100222148214D0092416941F43F
:1019700080714161416901F4807100910099009288
:101980000321036843F002030360006800F00200D3
:1019900000900098019102910021039101A915483E
:1019A000FFF722FD00216960E9604FF48061124871
:1019B000286029614FF48050002268614FF4804113
:1019C000AA60A961EA612A626A622846FFF752F8B2
:1019D00008B1FFF79BFCA563AC6307B030BD000006
:1019E000E4060020002001400100000F30380240D2
:1019F0002C060020000402401064024080B52848F4
:101A0000284901604FF4827208214260C1610023BD
:101A10004FF400720A218360C360036143618261F5
:101A2000036243628362C16200F09EFC18B1BDE8AC
:101A30000140FFF76BBC01BD10B586B0044614220F
:101A4000002101A8FFF764FC21681648814224D1D7
:101A5000002215480092016941F480410161016949
:101A600001F480410091009900924FF460410368B5
:101A700043F0020303600222006800F002000090BD
:101A800000980A4801910292002103910322052146
:101A90000591049201A9FFF7A7FC06B010BD000054
:101AA0008C0600200038004030380240000402401C
:101AB00010B500F0E6FE01F010FB01F017FBFFF798
:101AC000F7F901F08CFD322001F0C6FD104C01F059
:101AD00079FB00F01FF801F0EFFE22781043207030
:101AE00001F0EAFF00F016F802F07CF822781043CB
:101AF000207000F0E2FF00F00DF801F050FD2278B8
:101B00001043207002F015F900F004F8DFE7000040
:101B1000BB08002021780843207070472DE9F84366
:101B2000040016D02078DFF80063C10713D5B06831
:101B300000F00C00042807D0B06800F00C00082862
:101B40003DD1706841023AD53068810303D56068A1
:101B5000002800F063812078B44F810719D5B06860
:101B600010F00C0F07D0B06800F00C0008285BD113
:101B70007068410258D43068810703D5E0680128B5
:101B800040F04C813168206921F0F80141EAC00140
:101B900031602178080779D56069A549002868D0A7
:101BA00001220A60FEF760FF0546706F81076DD461
:101BB000FEF75AFF401B0228F7D9032031E1606885
:101BC000B0F5803F04D1306840F48030306011E0DF
:101BD000B0F5A02F306806D140F480203060316825
:101BE00041F4803105E020F480303060316821F428
:101BF00080213160606858B1FEF736FF05463068D5
:101C00008103A8D4FEF730FF401B6528F7D3D4E743
:101C1000FEF72AFF0546306881039CD5FEF724FFB6
:101C2000401B6528F7D3C8E7E068A8B101213960F7
:101C3000FEF71AFF05463068810705D4FEF714FF4A
:101C4000401B0228F7D9B8E73068216920F0F80076
:101C500040EAC10030609CE73860FEF705FF0546AA
:101C60003168880795D5FEF7FFFE401B0228F7D99B
:101C7000A3E70860FEF7F8FE0546706F810705D5FB
:101C8000FEF7F2FE401B0228F7D996E720784107BD
:101C90005FD5306C0025C1000AD400950125316C58
:101CA00041F080513164306C00F080500090009819
:101CB000DFF88081D8F80000C10513D4D8F80000FF
:101CC00040F48070C8F80000FEF7CEFE8146D8F8D8
:101CD0000000C10506D4FEF7C7FEA0EB09000228EC
:101CE000F5D96AE7A068012805D00528306F06D12C
:101CF00040F004003067306F40F0010005E040081C
:101D000040003067306F20F00400306741F28938BE
:101D1000A06860B1FEF7A8FE8146306F810713D43A
:101D2000FEF7A2FEA0EB09004045F6D345E7FEF71B
:101D30009BFE8146306F810706D5FEF795FEA0EB2E
:101D400009004045F6D338E71DB1306C20F08050D3
:101D50003064A069002863D0B16801F00C01082943
:101D60003AD002282AD100203866FEF77DFE0546CB
:101D70003068810105D5FEF777FE401B0228F7D9B0
:101D80001BE7E069216A626A0843A16A490840EAE0
:101D90008210491E40EA0140E16A40EA0160706039
:101DA00001203866FEF760FE04463068810137D4B2
:101DB000FEF75AFE001B0228F7D9FEE6002038661F
:101DC000FEF752FE04463068810129D5FEF74CFE2D
:101DD000001B0228F7D9F0E601281FD07068E269DD
:101DE00000F48001914202BF00F03F01226A91425B
:101DF00001BF47F6C0710140626AB1EB821F0DD18D
:101E0000A26A520800F44031521EB1EB024F02BFE9
:101E100000F07060E16AB0EB016F01D0012000E0DA
:101E20000020BDE8F28300BF0038024000004742B6
:101E3000800E4742007000404018491C1CBFB1F1A1
:101E4000010100F8012DF9D1704700001028114957
:101E500003D18879401C88717047B0F5006F03D1B9
:101E60004879401C4871704702280B4903D18868A3
:101E7000401C88607047B0F5007F03D14868401C63
:101E800048607047B0F5805F02D10868401C086068
:101E9000704700BF940800208408002081B0002013
:101EA000009000220A48416841F480414160416845
:101EB00001F48041009100990092036843F080533F
:101EC0000360006800F080500090009801B07047F7
:101ED0004038024070B5044600250CB9012070BDA1
:101EE00004F13006306920B92046FFF72FFD7561F7
:101EF00035733069C10600F192803069DFF8C01394
:101F000020F4885040F002003061086820F440302E
:101F100008600A68606802430A602068416821F42A
:101F20008071416020684168226941EA0221416074
:101F30002068416821F04071416021684A68A068CA
:101F400002434A602068816821F400618160216851
:101F50008A68E06802438A602068A16ADFF8642327
:101F60009142816821F0706181600CD021688A689B
:101F7000A06A02438A6000F05BF821688A68E06A20
:101F800002438A6001E000F053F82068816821F084
:101F9000020100F049F8227E41EA4201816094F892
:101FA00020002168002848680FD040F40060486095
:101FB0002068416821F46041416020684168626A9C
:101FC000521E41EA4231416002E020F40060486064
:101FD0002068C16A21F47001C1622068C16AE269A7
:101FE000521E41EA0251C1622068816821F40071E9
:101FF00000F01AF8327841EA422100F015F821F495
:10200000806100F011F8626941EA822181607561A6
:10201000316921F0020141F00101316100E0012547
:1020200000203073284670BD816020688168704749
:102030002068816821F0405181607047126802F089
:102040001F02102A7047016841F08041016070470B
:10205000816841F0804181607047F8B504460020F6
:1020600004F13C0300901D78012D01D10220F2BD46
:102070000120187020688568EE070DD48568974E9A
:1020800045F00105856096480568B5FBF6F606EB58
:102090004606009600F00BF920688568EE0503D52A
:1020A000856825F4807585602568A868C60762D5AF
:1020B0005F688848074047F480775F606868450537
:1020C00005D5586820F4005040F480505860586896
:1020D000C50446BF986820F00600002098600025DF
:1020E0001D70A36B0FF2FD10D863A36B0FF25D2080
:1020F0001864A36B0FF25D20D8646FF0220025688E
:1021000028602068436843F080634360134620687A
:10211000856845F4807585600A46206800F14C01A9
:10212000A06BFEF71EFD2068654A6B49136813F02B
:102130001F0F16D188420DD06349884204D112681E
:1021400012F01F0F1FD105E0604988421BD1FFF735
:1021500075FF18D2816811F0405F14D1FFF778FF46
:1021600011E0884202BF5A48016811F0405F0AD16D
:10217000FFF769FF07E0586840F010005860986862
:1021800040F0010098600020F2BD78B502460020C2
:10219000009092F83C30012B01D1022072BD012049
:1021A00082F83C0007240B6810680A2B11D30A3B05
:1021B000C56803EB430300F076F8C460C3680D689C
:1021C0008C68A5F10A0606EB4606B4402343C360BB
:1021D0000FE0056903EB430304FA03F325EA030365
:1021E000036103690D688C6805EB4505AC4023432A
:1021F00003611F244B68072B0CD25B1E456B00F05C
:1022000050F84463436B4D680C886E1E00F044F830
:1022100043631BE00D2B0CD2DB1F056B00F041F874
:102220000463036B4D680C88EE1F00F035F8036300
:102230000CE00D3BC56A00F034F8C462C36A4D6817
:102240000C88A5F10D0600F027F8C362224B9842D6
:102250001DD10C681A48122C03D1036843F4800383
:1022600003600B68102B18BF112B10D1036843F4C7
:10227000000303600868102809D11949174C0B683E
:10228000B3FBF4F40A204443009400F010F800215A
:1022900082F83C10002072BD06EB8606B440234352
:1022A000704703EB83039C4025EA0404704702E077
:1022B0000098401E009000980028F9D17047000057
:1022C000042301400100000F0021014000220140D1
:1022D00008200140FEF9FFFF0020014040420F00AE
:1022E0000C000020816B0A6C12F0500F24D1086C96
:1022F00040F4007008640A68906810F0405F04BF02
:10230000087E002815D1D06A10F4700F02D09068B2
:1023100043050ED4506820F020005060086C20F473
:1023200080700864086CC20403D4086C40F001009B
:102330000864084601F034BD0A6CD30644BF084661
:1023400001F02FBD896BCA6C10470000806B01F053
:1023500029BD0000806B40210164426C42F0040200
:10236000426401F01EBD000038B5040001D1012017
:1023700032BD606A28B900F051F805D00021E16152
:1023800002E00020206160610020A06204F150059D
:10239000687820B9002129702046FFF74DFB022004
:1023A000687000F040F96068A168E26800F482702B
:1023B00001F404410843217C02F400621043227DB1
:1023C00001F002010843A16902F001021043227FDB
:1023D00001F40071084394F8201002F03802104311
:1023E000A26A01F080010843216802F40052104300
:1023F0000860A06994F824102268000C00F0040022
:1024000001F01001084350602068C16921F40061A7
:10241000C161002068600121697032BD6068B0F55B
:10242000827F70472DE9FC4700F0DCF84FF001088F
:1024300008BF022000F0C6809A4687F80080FEF7A9
:1024400013FB7B78012B09D06968B1F5827F02BF4D
:10245000A9680029042B01D00226AEE0002C1CBF85
:10246000B9F1000FBAF1000F01D10126A5E07B7888
:10247000042B1CBF052179707E60C5F83890A5F843
:102480003EA0A5F83CA02C63A5F836A0A5F834A082
:102490002E646E6429680C68630603D40C6844F0EB
:1024A00040040C60E9680A9CB1F5006F696838D196
:1024B000002918BFBAF1010F00F0A9F88146E88E93
:1024C000002804BFE88F002868D029688868820740
:1024D0000BD5E88E002818BFB8F1000F05D0286B87
:1024E0000288CA60B04600F06FF829688868C207A1
:1024F0000CD5E88F50B1C868A96B08804FF001086F
:10250000A86B821CAA63E88F411EE987FEF7ACFA2C
:10251000A0EB0900A042D2D314F1010FCFD00326C3
:102520004BE0002918BFBAF1010F00F064F88146B2
:10253000E88E002804BFE88F00282FD0296888681B
:1025400082070DD5E88E002818BFB8F1000F07D01C
:10255000286B02780A73B046286B411C00F036F8ED
:1025600029688868C2070CD5E88F50B1C868A96B84
:1025700008704FF00108A86B421CAA63E88F411E47
:10258000E987FEF771FAA0EB0900A04203D314F12A
:10259000010FCDD0C3E7002CCAD1C0E74A4621467F
:1025A000284600F0A6F818B120200126786004E043
:1025B000A86810B900F00FF8009801217970002088
:1025C00038703046BDE8F687286B811C2963E88E99
:1025D000411EE986704700962968CA68009289689A
:1025E00000917047054605F150070026387801280C
:1025F0000C469146704709D1296B2B680A781A73EB
:10260000296B4A1C2A63E98E4A1EEA86704709D163
:10261000296B2B680A88DA60296B8A1C2A63E98E89
:102620004A1EEA8670472068016821F04001016077
:1026300070472DE9F843089C05460E4690461F4614
:10264000FEF712FA381A2418FEF70EFA81464048AF
:1026500001684901090D6143009105E0009800B946
:1026600000240098401E0090286881683140B142E3
:102670000CBF01200020404532D017F1010FF3D0EC
:10268000FEF7F2F9A0EB0900A04201D2002CE5D13F
:102690002868416821F0E00141606868B0F5827FF8
:1026A00008D1A868B0F5004F18BFB0F5806F01D110
:1026B00000F019F8A86AB0F5005F09D12868016830
:1026C00021F4005101602868026842F4005202605F
:1026D00005F150000121417000220270032000E04A
:1026E0000020BDE8F2832868016821F04001016004
:1026F00070477CB504461648164E0B4601681825EF
:10270000B1FBF5F5B5FBF6F64FF47A70464300964B
:102710006168B1F5827F09D10092802100222046B4
:10272000FFF787FF58B100F00CF876BD009830B184
:102730000098401E0090216888680106F6D40020A9
:1027400076BD606D40F0200060650320704700009A
:102750000C00002040420F0080B50221A2A001F031
:102760003CFB012002BD80B5DFF89403007801280E
:1027700005D1002000F091F90021012004E028B9E2
:1027800000F092F90021002000F04EF9012002BD76
:1027900080B5DFF86C034078012807D100F07DF99F
:1027A0000121012000F040F9012108E050B9012089
:1027B00000F07AF90121002000F036F900212120F3
:1027C00000F017F9012002BD80B5CD4880780128BE
:1027D00003D1022000F061F903E010B9022000F0FB
:1027E00063F9012002BD80B5C548C078012805D134
:1027F000032000F052F90321012005E030B9032045
:1028000000F052F90321002000F00EF9012002BD72
:1028100080B5BB480079012803D1042000F03DF9C0
:1028200003E010B9042000F03FF9012002BD80B59B
:10283000B3484079012805D1052000F02EF9052183
:10284000012005E030B9052000F02EF90521002017
:1028500000F0EAF8012002BD80B5A948807901287E
:1028600005D1062000F019F90621012005E030B954
:10287000062000F019F90621002000F0D5F801200B
:1028800002BD80B500F030F8BDE8014067E0E0B57A
:1028900000F060F8AA218DF8001007228DF80120C1
:1028A00097490B784A788DF802308DF803208B78A1
:1028B000CA788DF804308DF8052088790B794A792B
:1028C0008DF808008DF806308DF807204FF4405041
:1028D00001F03AFB012000F0BFFE09224FF4405105
:1028E000684601F0C4FB07BDE0B500F033F80922EB
:1028F0004FF44051684601F0D8FB9DF80000AA282B
:1029000004BF9DF80110072923D19DF802207C49BE
:10291000022AB8BF0A709DF80320022AB8BF4A7085
:102920009DF80420022AB8BF8A709DF80520022A6B
:10293000B8BFCA709DF80620022AB8BF0A719DF878
:102940000720022AB8BF4A719DF808000228B8BFC4
:10295000887107BD092200216846FEF7D9BC70B511
:10296000674D684C2878684E012807BF0122012175
:102970000022012100F03AF8687801280CBF0122FA
:102980000022022100F032F8A87801280CBF0122B1
:102990000022042100F02AF8E87801280CBF012267
:1029A00000224FF480713046FEF704FE287901289A
:1029B0000CBF012200224FF400713046FEF7FAFDF1
:1029C000687901280CBF01220022402100F00EF896
:1029D000A9794E48BDE8704001290CBF01220022B0
:1029E0004FF40041FEF7E6BD4F4E00002046FEF7D3
:1029F000E1BD1FB58DF8040001AC0120002360701B
:102A00008DF80610ADF80030032201A9684601F0E8
:102A1000CBF9BDF80000E070010A8DF8081001A89C
:102A2000052100F009FB1FBD10B50C46012807BFAA
:102A30001B220FF2E4011C220FF2F801022001F028
:102A4000C7FB062C22D8DFE804F004070B0F13178E
:102A50001B000A223EA116E05FF008023FA112E02F
:102A60005FF00D023FA10EE05FF0070241A10AE016
:102A70005FF00D0241A106E05FF0060243A102E013
:102A80005FF0060243A1022001F0A2FBBDE8104066
:102A900003221AA1022001F09BBB1D4B33F810103A
:102AA00003EB8003012205E0194B33F8101003EB10
:102AB000800300221869FEF77DBD70B50024002553
:102AC000144800EB05167278012A11D170680124B0
:102AD00030B1FDF7C9FF7168B268401A904207D360
:102AE00000207070FDF7C0FF7060E8B2F1688847A1
:102AF0006D1C082DE4DB204670BD00000D0A0000AF
:102B0000A008002000100240000402400000024023
:102B100044040020C4030020757365725F61707007
:102B20005F72656C61793A204F4E2052656C617915
:102B30003A200000757365725F6170705F72656C3A
:102B400061793A204F46462052656C61793A2000FF
:102B5000454C455641544F522000000053435245C6
:102B6000454E200046524944474520434F4F4C2094
:102B700000000000414C41524D20000046524944A3
:102B80004745204845415420000000004C414D502D
:102B9000200000005741524D2000000010B5DFF822
:102BA0006846032100F02CFA0B2100F025FA0120E1
:102BB00010BD38B50446DFF85456012201212846DD
:102BC000FEF7F8FC012000F047FD00220121284615
:102BD000FEF7F0FC2146DFF8380601F01DFB01206E
:102BE00032BD10B50146DFF82C06DFF81C268088C0
:102BF00068B1DFF824361C88844207D10020188091
:102C0000022102F1140001F0FFFA04E0188002F141
:102C1000140001F001FB012010BD2DE9FC47DFF895
:102C2000F495B9F80400D9F80010DFF8DCA5DFF856
:102C3000EC850A180024921EADF8004053781778EE
:102C4000821E47EA032792B2684601F0ADF8BDF84C
:102C50000000B84237D1FEF72BF905210FF2F050F2
:102C600000F0EAF900F084FAB9F80420D9F800007D
:102C7000002101F0A6FA0020A9F8040001210AF1C0
:102C8000140001F0C1FA0120BDE8F687485D012873
:102C90003C4618D1A3B25F1CBC4514DB9EF804006F
:102CA00080B9002701208EF800708EF80400C95CFE
:102CB0008EF802108EF801008EF8050000211046F3
:102CC00001F0A2FA641CB9F80400A0F1020CA0B251
:102CD000811C8C45C0F2DD80D9F80010DFF840255A
:102CE0000E5CDFF840E5DFF84005DFF84035641C96
:102CF000671C0B2EA5B200F08B800C2E00F0AB8071
:102D00000D2E00F0B0800E2E2CD0152E65D0162E74
:102D1000BCD0202E06D0212E32D0222E3FD0232E02
:102D20004CD0D0E7485D02283C46CCD1A3B29F1CD2
:102D3000BC45C8DB9EF8040090B901278EF80070EE
:102D40008EF80470C85C8EF80200481CC15C8EF8D6
:102D5000011000238EF805300021104601F054FACE
:102D6000A41CB0E7485D01283C46ACD1A0B2401C91
:102D70008445A8DB08210AF1140001F045FAA2E716
:102D80004A5D012A3C469ED1A2B2531C9C459ADB67
:102D9000895C012997DC88F80110022190E74A5DDF
:102DA000012A3C468FD1A2B2531C9C458BDB895C27
:102DB000012988DC88F80510062181E74A5D012A8F
:102DC0003C46EFD1A2B2531C9C45EFDB895C012944
:102DD000EFDC88F80610072172E7485D03283C46BF
:102DE000E0D1A0B2C21C9445E0DB0A5CDFF84034BD
:102DF000641C1202A7B21A80641CC85D02431A80C8
:102E0000A2B2641C895CDFF82C0499700321B4E73A
:102E100000F042F8CADB1F6800229A800B2139704B
:102E200099881A68491C998089B250549988491C1C
:102E300099800BE0D9F80010A2B2641C8F5C1A686C
:102E400099885754401E9A88521C9A80C1B2002912
:102E5000F0D104218FE7485D3C4610FA84F08445A8
:102E6000A4DB062187E700F017F89FDB00220AE0C9
:102E7000D9F800109D68A7B2641CCA5D99896A548C
:102E8000401E9A89521C9A81C1B20029F0D10521B5
:102E900071E70221B1A0E3E6485D3C46014611FA24
:102EA00084F18C45704700B58DB03221684601F041
:102EB000C3F9684600F0D3F80146684600F0BCF854
:102EC0000321D34801F0A8F901200DB000BD1CB5C5
:102ED0000020D64CA2882168ADF80000684600F0BA
:102EE00063FF2168A288BDF8000088540021A088F3
:102EF0002268401CA08080B21154A1882068491C1F
:102F0000A180C9B200F098F8012016BD38B586B08E
:102F100016216846C54C01F08FF9A0898DF8010093
:102F2000AA228DF80020002105E0A268535C0DEB79
:102F30000105491CAB708142F7DB4FF4005001F0F2
:102F400003F800F00DF9A189A068C9B200F074F887
:102F5000012007B030BD80B5B44881898068C9B20E
:102F600000F06AF8012002BD38B50446A64D05F50B
:102F7000147001F0C5F918B9FFF789FC00F0C0FF23
:102F8000214605F1140001F03FF9012032BD70B572
:102F90009D4D044605F51476304601F0B1F950B167
:102FA00001222946304601F08AF9A97C284600F022
:102FB00014FF0A2100E0214605F1140001F02CF96C
:102FC000012070BD38B5904C04F51475284601F009
:102FD00097F918B9092100F013F80BE001222146F6
:102FE000284601F06CF9A17C204600F0F6FE0A218B
:102FF00000F002F8012032BD04F1140001F00CB918
:1030000004F1140001F000B910B58B4A7E4C014662
:10301000106868B90821FFF7F3FF012104F11400DB
:1030200001F004F9022104F1140001F0FFF801E0BD
:10303000FFF7E2FF012010BD00B585B000228DF83A
:10304000121003E0835C0DF80230521C8A42F9DB57
:1030500000226946794801F003F905B000BD1CB5AE
:1030600004460020ADF800000A21217060700E2394
:10307000734801786948A1704178E1704279227102
:10308000817961710279A2718078E0716D48B0F93F
:10309000001009122172008860726B48B0F90010AC
:1030A0000912A172FF210088E0722173674802882B
:1030B000120A627310220188A17321468078E0739E
:1030C0006370684600F070FEBDF8000020741220A6
:1030D000BDF80010090A617416BD4B4800F1D40315
:1030E0001322142100F5147001F0A9B838B586B088
:1030F0001621684601F0A0F816224FF400516846E8
:1031000000F0D3FF9DF80020484CAA2A0DF10200E0
:103110000AD19DF8011000228A42BFBF835CA568D6
:10312000AB54521CF8DB16E0AA228DF800200021D7
:10313000A2898DF8012003E0A3685D5C4554491C19
:103140009142F9DB4FF4005000F0FEFE012000F048
:1031500083FA00F005F807B030BD00004F4B0000C7
:10316000A289921C92B24FF40051684600F07FBFD2
:1031700030B58FB0322102A801F05EF83BA202A95F
:10318000D2E90045CDE900450091224988881928F7
:10319000BCBF684600F0F3FF5FF013022EA10220CF
:1031A00001F016F8BDF804200099022001F010F893
:1031B000032214A1022001F00BF8012000F04CFAC8
:1031C0000FB030BD70B5002400250F4800EB051688
:1031D000727D012A11D1B069012430B1FDF744FCA0
:1031E000B169F269401A904207D300207075FDF76B
:1031F0003BFCB061E8B2316A88476D1C0C2DE4DB02
:10320000204670BD0D0A0000380100200008024071
:103210004C01002058050020BC080020A008002018
:103220001000002094080020C4030020A003002008
:10323000F404002070040020B0080020880300205F
:10324000B8080020FA040020F00400203401002017
:103250004552524F520000006170705F70635F62B0
:103260006F783A20526563763A2000000000000033
:103270000000000038B5DFF8A0530446287A401C4F
:103280002872032205F10C01DFF89003FEF7E5FE3A
:10329000297ADFF88C03642903D1012100F0B4FFFF
:1032A00002E0214600F0B8FF012032BD70B50446AF
:1032B000D94EDA48032206F10C01FEF7CEFED84DB6
:1032C000B8B9B269F068717A8218B261491CF269C2
:1032D000306971728218F261C9B2326A70698218FB
:1032E0006429326205DB00207072022100F0F3F8DD
:1032F00003E02146284600F08FFF012070BD00004A
:1033000010B5C549C74B88696422B0FBF2F2C869A1
:1033100000EE102A6422B0FBF2F2086A81ED060A80
:1033200000EE902A6422B0FBF2F201EE102AC1ED09
:10333000070A81ED081A40F6E4401C88444301EE78
:10334000904AF8EE611AB8EE411A81EE811A9FEDAB
:10335000A62AF8EE600A81EE021AB8EE400A60EE84
:10336000810A9FEDA23A20EE010ADFEDA02AC0EE0D
:10337000830A9FED9F1A80EE220AC0EE811A9FED0C
:103380009D2A9FED9D1AF1EE0C2A01EE821A80EE25
:10339000220A71EE402ADFED991A30EE410A62EE00
:1033A000A11A30EE200A81EE800ADFED950A30EE98
:1033B000200A9FED941A9FED942A00EE012ADFED7A
:1033C000931A42EE001ADFED920A41EE800AB2EE45
:1033D000040A20EE800ABDEEC00A10EE100AA0F129
:1033E0000A02FF2300200A808B708861C86108628E
:1033F00000F0A8F805218A4800F006FF012010BD62
:103400001CB50321684600F017FF834CA179B4F97D
:10341000040000F009FD6081AA2102128DF802006B
:103420008DF800108DF801204FF4805000F08CFDD5
:10343000012000F011F903224FF48051684600F09A
:1034400016FE00F059F8012016BD80B5032168462C
:1034500000F0F2FE03224FF48051684600F025FE92
:103460009DF80000AA2807D19DF801009DF80210E0
:1034700041EA002168484181012002BD70B56648DB
:10348000674CB0F90A10B0F90000674D674E01F1C2
:10349000190282420DDA0123337100F01BF8012278
:1034A0003271032100F017F80721204600F0BEFE1C
:1034B0000AE01939884207DA0020307100F00AF872
:1034C0000721204600F0A8FE0621204600F0A4FEB9
:1034D000012070BD0521284600F096BE80B501216F
:1034E0004F4805E080B551490020887003214E48BF
:1034F00000F08AFE012002BD1FB50021ADF80010CA
:1035000001AC152201208DF8042060704249B1F908
:10351000042088798DF80720131220718DF8063069
:10352000052201A9684600F03FFCBDF80010BDF877
:1035300000006071090AA17101A80721FFF77CFD55
:103540001FBD00003EB505216846334C00F074FEF7
:10355000B4F90010FF22684600F097FC05461222DD
:1035600034A1022000F034FE2A466946022000F011
:103570002FFE0D2234A1022000F02AFEB4F90A1019
:10358000FF22684600F081FC02466946022000F0F6
:103590001FFE03221FA1022000F01AFE37BD70B5E6
:1035A000002400251E4800EB05167278012A11D16F
:1035B0007068012430B1FDF757FA7168B268401A9B
:1035C000904207D300207070FDF74EFA7060E8B2A9
:1035D000F16888476D1C082DE4DB204670BD02228F
:1035E00013490E48FEF739BD00007A4400F07F45CC
:1035F00000EC7E460058C5456F12033B0000FA43BD
:103600000000F0C2CF7389352CAC273A7E8C19406C
:103610003D4A77C30D0A0000F0040020E4060020B4
:10362000700400202A7AFF1FC4030020A008002095
:10363000FC0400206170705F74656D706572617468
:103640007572653A20000000205468726573686FD7
:103650006C643A200000000038B50446FDF704FA17
:1036600014F1010F054602D0044801786418FDF7F3
:10367000FBF9401BA042FAD331BD00BF000000207F
:1036800010B59E4C00202081A072E07000F08FF8F1
:1036900001212171012010BD38B5984CA0783D283A
:1036A00014DAE0780021401CA171E0700321944DF0
:1036B000284600F0B1FD0421284600F0ADFD0221AE
:1036C000284600F0A1FDA07800F076F8012032BD78
:1036D00070B58A4D8A4C0646687903280BD1FDF7F0
:1036E000C3F9616B401AB0F57A7F0AD2287A401C80
:1036F0000221287269713146204600F08DFD0120BB
:1037000070BD00F07BF8002068710321204600F0B6
:103710008DFDF4E780B500F071F87848427A002119
:10372000521C41714272012002BD7FB5734801787D
:10373000012939D10023ADF800308179827A4378AC
:10374000C5788A189D42827201AC0CD28078A07034
:103750004022E1708DF804200426637166702571A3
:1037600000F025F80FE000210171412304218DF8BC
:1037700004306170E2708378017A407AA37021711D
:10378000607100F059F8062201A9684600F00CFBB0
:10379000BDF80010BDF80000A071090A8DF80B10EB
:1037A00001A80821FFF748FC012004B070BD0121E9
:1037B000534800F029BD000070B5441EE4B20A2051
:1037C000DFF840615CA394FBF0F533F8151056F870
:1037D00025000122FDF7EEFE0120FFF73DFF0A2044
:1037E00059A100FB154406EB840031F81410C069A0
:1037F000BDE870400122FDF7DDBE000070B5002479
:10380000DFF800514CA636F8141055F824000022B9
:10381000FDF7D0FE641C072CF5DB00BF4AA6002490
:1038200005EB840036F81410C0690022FDF7C2FED3
:10383000641C0A2CF4DB70BD1CB5304CA17800F080
:1038400038F8152230A100F02CF800F02DF80020F7
:103850008DF801005FF0050231A100F022F8A17A95
:1038600000F027F800F020F800208DF80100082271
:103870002DA100F016F8217A00F01BF800F014F8E2
:1038800000208DF80100072229A100F00AF8617AD2
:1038900000F00FF800F008F8032217A100F001F87B
:1038A00013BD022000F094BC02226946022000F001
:1038B0008FBC684600F0C4BA70B5002400251048DB
:1038C00000EB05167278012A11D17068012430B11D
:1038D000FDF7CAF87168B268401A904207D3002019
:1038E0007070FDF7C1F87060E8B2F16888476D1C30
:1038F000042DE4DD204670BD0D0A00009408002070
:1039000010000020600000206170705F6374726CB2
:103910005F6D6F746F723A20506F733A0000000051
:103920002049523A00000000204561726C793A004B
:10393000204C6174653A0000040002000100001090
:103940000008000400800000080010002000400073
:1039500080000800100020004000800080B5012198
:10396000664800F051FC012002BD70B50446644D6C
:103970004FF480412846FDF717FE401E8041614EFE
:10398000C00F30704FF400512846FDF70DFE401E69
:103990008041C00F70700221584D284600F034FC61
:1039A0002146284600F038FC012070BD10B5554C6A
:1039B0002078012804D16078012808D1032009E08B
:1039C000002803BF607801280220002002E0401E8A
:1039D0008041C00F607121796079884205D0012251
:1039E000A2700321454800F00FFC6079207101208E
:1039F00010BD1CB504464348017801291FBF41781A
:103A00000129817801290AD100228270684600F0DC
:103A10000CF801466846FFF70FFB00F023F821463B
:103A2000364800F0F9FB012016BD1CB50446002005
:103A3000ADF8000031212170022232486270042268
:103A40000178A17021464378E370684600F0ACF934
:103A5000BDF8000020710620BDF80010090A617150
:103A600016BD000070B5192227A1264E0FF2BC0426
:103A70002CA500F01EF83078012807BF0522294642
:103A80000622214600F015F85FF0090229A100F096
:103A900010F87078012807BF052229460622214622
:103AA00000F007F8BDE87040032213A1022000F0E7
:103AB0008FBB022000F08CBB70B5002400250F489E
:103AC00000EB05167278012A11D17068012430B11B
:103AD000FCF7CAFF7168B268401A904207D3002011
:103AE0007070FCF7C1FF7060E8B2F16888476D1C28
:103AF000042DE4DB204670BD0D0A0000A400002068
:103B000000100240A80800206170705F646F6F723F
:103B10005F73656E736F723A20446F6F72313A2033
:103B2000000000004F50454E00000000434C4F5332
:103B30004500000020446F6F72323A200000000000
:103B400080B50121384800F05FFB012002BD70B54F
:103B50000446364D4FF480612846FDF725FD344E6E
:103B6000B17888420AD17178491CCAB20A2A06DBA8
:103B70000A21421E9241D20F327000E00021717082
:103B800028464FF48061FDF70FFDB07021462648AE
:103B900000F042FB012070BD0120704710B50146C6
:103BA00024488288204852B1234B1C88944205D176
:103BB00000221A80042100F027FB02E01A8000F0A6
:103BC0002BFB012010BD10B51A4CA28820680021E3
:103BD00000F0F7FA0021A1800321134800F014FB44
:103BE000012010BD70B5002400250F4800EB05161C
:103BF0007278012A11D17068012430B1FCF734FFCA
:103C00007168B268401A904207D300207070FCF7C8
:103C10002BFF7060E8B2F16888476D1C042DE4DD6D
:103C2000204670BD00000000E400002000000240BB
:103C3000B808002050050020AE0800207CB54E4D8D
:103C40000446286810B100F026F82960686810B1B1
:103C500000F021F86960A86810B100F01CF8A960B4
:103C6000287B464E88B1684600F031F80146684628
:103C7000FFF7E2F900F046F8287B032803D1012181
:103C8000304600F0C1FA002028732146304600F08B
:103C9000C3FA012076BD287B401C002128737047A1
:103CA00080B53749012000F00DF80221334800F0BB
:103CB000B3FA012002BD80B53149002000F002F8BE
:103CC000012002BDC87004212E4800F09DBA1CB529
:103CD00004460020ADF80000302121700122264862
:103CE00062700322037BA3702146684600F05CF8F3
:103CF000BDF80000E0700520BDF80010090A217130
:103D000016BD000080B51C48017B684600F098F89D
:103D10005FF016021CA1022000F05AFA0122694647
:103D2000022000F055FA032212A1022000F050FAFE
:103D300001BD70B500240025104800EB051672780F
:103D4000012A11D17068012430B1FCF78DFE716831
:103D5000B268401A904207D300207070FCF784FECE
:103D60007060E8B2F16888476D1C032DE4DB2046E3
:103D700070BD00000D0A000084080020140500201A
:103D8000A0080020C40300206170705F7669625F44
:103D900073656E736F723A204C6576656C20000017
:103DA000704770477047000070B5002303800024FF
:103DB0000FE005880B5D5D4008236E08ED0752BFDC
:103DC000354686F4204585F001055B1EF5D105805A
:103DD000641C9442EDDB012070BD80B50A460146AB
:103DE0004FF47A734D48FCF70AFABDE8024001200F
:103DF000FFF732BC010015D0FF2801D10A2070471F
:103E0000FE2801D164207047FD2802D14FF47A705A
:103E10007047FC2802D142F210707047FB2801D194
:103E20003F4870470120704710B504460846FFF729
:103E3000E1FF0A2114FB01F191FBF0F000B210BD8B
:103E400070B50A4600230A24002A06D52D215242C5
:103E50000170012301E00A256C43B2FBF4F1002953
:103E6000F9D10A21B4FBF1F10BE0B2FBF1F4DEB2BF
:103E700004F1300501FB142285550A245B1CB1FBBB
:103E8000F4F10029F1D1D8B270BD2DE9F04100263E
:103E90000029054617464CBFC1F100088846FFF7C8
:103EA000CFFF04463846FFF7A5FF0A2102E001FBD9
:103EB00008F8761C8045FAD36A1E611CF3B26BB118
:103EC00001E02B55641EE4B2135D2D2B18BF002CAE
:103ED000F7D130222A550C46761EEDE70A23B0FBB7
:103EE000F3F00A2604E0D75CEF54B0FBF6F0641E52
:103EF0000028E3B2F7D12E20E854C8B2BDE8F08123
:103F000072B6BFF34F8F074907480A6802F4E062B0
:103F100002430A60BFF34F8F00BFFDE7F8070020A0
:103F2000A08601000CED00E00400FA05032000F07B
:103F300057B980B500F0ECF8062000F0EDF9BDE8C7
:103F40000240012000F0DEB938B505460324FFF732
:103F5000F0FF4FF47A7000F037F8012803D0641EA8
:103F6000F5D1002032BD00F0D3F8202000F0D4F9C4
:103F700000F079F8280400F077F8E8B200F0CCF906
:103F800000F007F84FF47A7000F006F80128E9D045
:103F9000E7E7012000F0B6B970B500F0B6F80520EB
:103FA00000F0BAF905E016F0030F09D00120FFF781
:103FB00053FB00F006F800F01BF80128F3D11CE0D9
:103FC0001FE0A52000F0A8B970B500F09EF805200C
:103FD00000F0A2F904E0B00709D40120FFF73CFB90
:103FE000FFF7EFFF00F004F80128F4D105E008E046
:103FF00006462146284600F0ADB800F083F90020BF
:1040000070BDFFF7C6FF012070BD78B5C1B0044692
:104010000D461646FFF78DFF4FF47A70FFF7D4FF79
:1040200001281ED100F074F8022000F075F900F0AC
:104030001AF8280400F018F8E8B200F06DF96420CE
:104040000090334601AA2146DFF8CC00FEF7EAF9DA
:10405000FFF79FFF6420FFF79FFF012801D142B0C7
:1040600070BD0020FBE72802000E00F055B970B5C6
:1040700004460D4616464FF47A70FFF78DFF01286F
:104080000CD1324629462046FFF7BFFF012805D054
:104090000FF28C01FFF74AFF002070BD0FF29C0168
:1040A000032000F09DF8012070BD2DE9F8430E4675
:1040B000804691463502370403244FF47A70FFF7A7
:1040C0006BFF012804D0641EF7D10020BDE8F28305
:1040D00000F01EF8032000F01FF9280E00F01CF974
:1040E000380E00F019F9F0B200F016F903E0FFF70E
:1040F00068FF08F8010B4846A0F1010980B20028CA
:10410000F5D1FFF746FF0120E0E704490D680446BA
:10411000002000F0F7B800008C060020B408002052
:10412000755F65785F666C6173683A207772697451
:1041300065206661696C210D0A000000755F657875
:104140005F666C6173683A207772697465204F4BC3
:10415000210D0A0010B5DFF8A8200C46116800F008
:1041600005F8A0428041C043C00F10BD814204D277
:104170004FF0FF32101A08187047081A704730B510
:1041800000220FE004F812300B689C5C056804F014
:104190000F0405EB42030A2CACBF37343034521CF9
:1041A0005C7092B28B889A4208DA0B689B5C046858
:1041B0001B090A2BB4BF30333733E3E75B0083803E
:1041C00030BD130003D00A461946FDF735BE7047CF
:1041D000032804DA4FF47A730A48FCF710B87047E2
:1041E00038B500F006F882B229462046BDE83840CE
:1041F000EEE704460D46284600F0A4B80000000093
:10420000B4080020B407002000EB011001210022B7
:10421000417042600120704710B500EB011401208D
:104220006070FCF721FC6060012010BD00EB011004
:104230000022427001207047002200F08DB850B576
:104240000024047043600E465643446804619B1981
:104250008360002443680475C3604175C28250BD09
:1042600038B504461046657D237D00226D1EAB42A5
:1042700023DAE38AEBB11A4660B9E06800F086F809
:10428000E168E08A0844A168E060884211D3606870
:10429000E0600EE020695B421844206100F076F88F
:1042A00020696168884204D2E18AA06849420144D9
:1042B00021610122207D401C2075104632BD10B5C1
:1042C000044608461146227DC2B1E28A19B9216925
:1042D00000F05CF810E062B110B1216900F056F80E
:1042E0002069E18AA26808442061904224BF606886
:1042F0002061207D411E2175012010BD002010BDD0
:10430000007D70470D4B00280CBF002201224FF4A6
:1043100000711846FDF74EB901B582B000204FF488
:104320007A718DF804000091012301AA02A90448C2
:10433000FEF778F89DF804000EBD0000000C024066
:104340008C06002000F1010310F8011B11B110F8D8
:10435000011BFBE7C01A704700B500BF130096466B
:104360009446103928BFA0E80C50FAD85FEA417C87
:1043700028BF0CC048BF40F8042BC90728BF20F84D
:10438000022B48BF00F8012B00BD00004AB100001D
:1043900011F8013B521E00F8013B1CBF11F8013B14
:1043A000F8E77047FEE7FEE7FEE7FEE7FEE7704747
:1043B0007047704714480168491C016000F030B82C
:1043C0000220FDF7FBB81020FDF7F8B84FF400709D
:1043D000FDF7F4B80D48FBF790BF0D48FBF78DBF14
:1043E00080B54FF40060FDF7E9F8BDE802404FF4F6
:1043F0008050FDF7E3B80748FBF77FBF0648FCF79E
:104400002FBC0648FBF779BFB408002070070020D6
:10441000B40700202C0700202C060020F8070020FD
:104420000248416802788A18426070470000002004
:10443000F0B40246106895681318506803EB5004F6
:10444000C0071CD54D441AE013F8017B05F8017B29
:10445000491EF9D198B113F8011BC6F38106032E4A
:1044600008BF13F8016B01EB06214942801C294467
:1044700005D011F8016B05F8016B401EF9D1A3427C
:104480000ED013F8016B16F0030104BF13F8011BE3
:10449000C91C30090F28DBD113F8010B0F30D7E707
:1044A000F0BC02F10C00704710B50749794418318F
:1044B000064C7C44163404E00A68081D1144884701
:1044C0000146A142F8D110BD2C00000048000000B8
:1044D0004EF68851CEF20001086840F47000086082
:1044E000BFF34F8FBFF36F8F4FF00070E1EE100AF4
:1044F0007047000083C9FFFF5C03000064050020D3
:10450000000000002DFFFFFFAC010000560300007B
:10451000000000200248016841F47001016070470A
:1045200088ED00E00000000000000000010203042C
:104530000607080900F00DF8002801D0FFF7B4FFC6
:10454000AFF300800020AFF30080FCF771FE00F0B5
:1045500002F80120704700F001B800000746384615
:1045600000F002F8FBE7000080B5AFF30080024ADC
:1045700011001820ABBEFBE726000200014880476F
:1045800001480047154500088D450008AFF300803D
:10459000FFF79EFFFFF7CEFF0000000001020304BB
:1045A000FFF7FEBFFFF7FEBFFFF7FEBFFFF7FEBF3F
:1045B000FFF7FEBFFFF7FEBFFFF7FEBFFFF7FEBF2F
:1045C000FFF7FEBFFFF7FEBFFFF7FEBFFFF7FEBF1F
:1045D000FFF7FEBFFFF7FEBFFFF7FEBFFFF7FEBF0F
:1045E000FFF7FEBFFFF7FEBFFFF7FEBFFFF7FEBFFF
:1045F000FFF7FEBFFFF7FEBFFFF7FEBFFFF7FEBFEF
:10460000FFF7FEBFFFF7FEBFFFF7FEBFFFF7FEBFDE
:10461000FFF7FEBFFFF7FEBFFFF7FEBFFFF7FEBFCE
:10462000FFF7FEBFFFF7FEBFFFF7FEBFFFF7FEBFBE
:10463000FFF7FEBFFFF7FEBFFFF7FEBFFFF7FEBFAE
:10464000FFF7FEBFFFF7FEBFFFF7FEBFFFF7FEBF9E
:10465000FFF7FEBFFFF7FEBFFFF7FEBFFFF7FEBF8E
:10466000FFF7FEBFFFF7FEBFFFF7FEBFFFF7FEBF7E
:10467000FFF7FEBFFFF7FEBFFFF7FEBFFFF7FEBF6E
:10468000FFF7FEBFFFF7FEBFFFF7FEBFFFF7FEBF5E
:10469000FFF7FEBFFFF7FEBFFFF7FEBFFFF7FEBF4E
:1046A000FFF7FEBFFFF7FEBFFFF7FEBFFFF7FEBF3E
:1046B000FFF7FEBF43010001221008600124F4004F
:1046C0000112050A6002813600082021101299109B
:1046D00092021012D1105203105007B80B000015AF
:1046E00037000804101003881300002B107002001C
:1046F0000C024004920804920018A104F20204047F
:104700004201708004983A00005D39948004D0071B
:1047100000006B3994210183AD3994100360EA00E5
:1047200000F310A14083413B40120A08C34F3BD421
:104730001299105203212110839D3BD4211012C7DE
:1047400010F002040000FF00019168139D2B689196
:1047500048C3E32B68C31B2CA8C3A72E6812CF1035
:1047600092051090030D2F000806101257105207E3
:104770001012E84912B360520810251812692092ED
:104780000980128F10920A2012C510430B001CF0F2
:1047900007FF70110100093000080001F1720124C7
:1047A0000270080020981003B00300200E092007B3
:1047B000535656444D43323330015631B259782561
:1047C000D8CF5927B403CB6727788B91277821104E
:1047D000CBC92778CBE72778CB1128788B2F28787F
:1047E00021101259101002010002004411071DD7B8
:1047F0000312801512100961046DC403210C2121DC
:10480000519D121407CF75328C03CFAD32CC038388
:104810000133AC2101130134AC820111834B34AC60
:104820002101837D34AC800430750000DD34ACA8F8
:1048300004C0270900E534E4F30832000151642D77
:10484000D404C73D3C5083A13CA440041027000081
:0F485000B73C54476405A8563CB052C81002004C
:040000050800458D1D
:00000001FF
