:020000040800F2
:10000000680A0020ED1E0008A51D0008A71D0008B5
:10001000A91D0008AB1D0008AD1D00080000000070
:10002000000000000000000000000000AF1D0008FC
:10003000B11D000800000000B31D0008B51D000838
:10004000111F0008151F0008191F00081D1F0008B8
:10005000211F0008251F0008291F00082D1F000868
:10006000311F0008351F0008391F00083D1F000818
:10007000411F0008451F0008491F00084D1F0008C8
:10008000511F0008551F0008B91D0008591F00081E
:100090005D1F0008611F0008651F0008691F000838
:1000A0006D1F0008711F0008751F0008791F0008E8
:1000B0007D1F0008811F0008851F0008891F000898
:1000C0008D1F0008911F0008951F0008991F000848
:1000D0009D1F0008A11F0008A51F0008BF1D0008E4
:1000E000A91F0008AD1F0008B11F0008B51F0008B8
:1000F000B91F0008BD1F0008C11F0008C51F000868
:10010000C91F0008CD1F0008D11F0008D51F000817
:10011000D91F0008DD1F0008E11F0008E51F0008C7
:10012000C51D0008E91F0008ED1F0008F11F0008A9
:10013000F51F00080000000000000000F91F000883
:10014000FD1F000801200008052000080920000804
:100150000D2000081120000815200008CB1D000804
:10016000192000081D200008212000082520000873
:10017000292000082D2000080000000000000000D9
:10018000312000083520000838B5040001D10120D5
:1001900032BD00F017F808B900F018F800F01BF8AD
:1001A00000F023F8FFE7416100F001F832BD20685C
:1001B000C16841F40051C16000206860202169706D
:1001C000A970704704F13C056878704700212970D8
:1001D000204600F0CDBA242068702068C16821F460
:1001E0000051C160204600F03DBA2068016921F449
:1001F000904101612068416921F02A01704738B5BA
:1002000000F130039C7B202C0FD109B1140001D1E7
:10021000012032BD1C7B012C07D001241C7300255A
:100220001D60BDE8384000F05FB9022032BD216892
:1002300001F1140252E8001F206800F1140321F0BC
:10024000400143E80010002870477CB5044621684F
:100250000B68CD684A6913F00F0007D1980661D585
:10026000AA065FD52046BDE8764091E1D00702D4CA
:1002700015F4907F56D0D80705D5E90503D5206C35
:1002800040F001002064580705D5D10703D5206C44
:1002900040F002002064980705D5D10703D5206CF3
:1002A00040F004002064180707D5A90601D4D00740
:1002B00003D5216C41F008012164206C002830D066
:1002C000980604D5A90644BF204600F061F92068CD
:1002D0004069216C0A0701D440061DD5204600F074
:1002E0002CF920684169480611D5FFF7A0FFFCD121
:1002F000A06B60B10FF28D210165A06B00F063FB74
:1003000000280ED0A06B016DBDE87C400847204658
:10031000BDE8764000F062BC204600F05FFC0020A3
:10032000206473BD206B012804F13D0240F08680FB
:10033000D80600D5EE0640F18180002300930D68B9
:1003400000954B6800930098496948063FD5A16B1A
:100350000868406880B20028E3D0A38D9842E0DAB4
:10036000E085C869B0F5807F2DD0216801F10C00CF
:1003700050E8001F236803F10C0521F4807145E863
:1003800000100028F1D100F09BF8490800F1140595
:10039000490045E800100028F5D100F091F800F17F
:1003A000140521F0400145E800100028F5D1202077
:1003B00050700021216300F089F800F08FF8FAD125
:1003C000A06B00F0C4FAA18DE08D091A30E0A08D79
:1003D000E18D411AE08D00281CBF88B2002868D04A
:1003E000206800F10C0353E8003F00F10C0623F4F1
:1003F000907346E800300028F2D1206800F05AF8E7
:1004000000F114065B0046E800300028F5D12020FA
:10041000507000222263206800F10C0252E8002F85
:1004200000F10C0522F0100245E800200028F2D16E
:100430002046BDE87C4089B200F0D1BB180629D522
:100440002E0627D51078212833D1A068B0F5805F1B
:1004500004BF2069002808D1206A0288C2F308027C
:100460004A60206A811C216204E0206A421C2262E8
:1004700000784860E08C401EE08480B2C8B92068F3
:10048000C16821F08001C1602068C16841F040016D
:10049000C16073BD58060CD56B060AD5C86820F03C
:1004A0004000C860202111702046BDE8764000F071
:1004B00097BB73BD00F1140353E8003F5B0870471E
:1004C000206800F1140151E8001F7047206800F116
:1004D0000C0151E8001F00F10C03704721F01001DE
:1004E00043E800100028704781628285C28500F1D0
:1004F0003C0100224A6022238B700A70016921B1FD
:100500000168CA6842F48072CA6001684A6942F0B0
:1005100001024A610068C16841F02001C160002009
:10052000704744E8002100297047016801F10C027E
:1005300052E8002F01F10C04704710B5FFF7F5FFEA
:1005400022F49072FFF7EDFFF8D100F00BF8016B89
:10055000012901D100F071F8202180F83E1000221D
:10056000026310BD016801F1140252E8002F520825
:1005700001F11404520044E800210029F2D170472F
:1005800000000000806B0021C185C18400F026BB03
:100590001CB590F83E1022294DD18168826AB1F5D0
:1005A000805F0AD1016969B903685968C1F308011C
:1005B0001180826A911C81620FE0002904BF0169E9
:1005C000002902D10368596803E00168496801F015
:1005D0007F011170816A4A1C8262C18D491EC185EA
:1005E00089B231BB0168CA6822F02002CA60016882
:1005F000CA6822F48072CA6001684A6952085200CF
:100600004A6100F029F812D10021016300F015F8C9
:1006100002681168CB0606D5002400941368009385
:10062000526800920099818D00F0D9FA01E000F043
:10063000F5FA002016BD022016BD026802F10C0179
:1006400051E8002F036803F10C0422F0100244E883
:1006500000210029F1D17047202180F83E10026B63
:10066000012A704770B5044622681169E06821F4D8
:10067000405101431161D3682648A16803402069B5
:100680000B4361690343E0690B430343D360516942
:10069000A06921F44071014351611F498A421CBF86
:1006A0001E48824202D100F07DFB01E000F072FBA7
:1006B00062682568E46964261921B4F5004FA1FB3E
:1006C000000112D1D30F520000F0B4FB00F028F863
:1006D000F60032366420B6FBF0F0420002F4F87205
:1006E00002EB011200F0070010E0930F920000F0FF
:1006F000A1FB00F015F8360132366420B6FBF0F0AD
:1007000000F0F00202EB011200F00F008018A86068
:1007100070BD0000F369FFFF0010014000140140AC
:100720006421B0FBF1F106FB1106704780B5454826
:10073000454900F00BF800B116E001BD80B5434813
:10074000434900F003F800B10EE001BD01604FF431
:10075000E13200230C2142608360C3600361416188
:100760008361C361FFF710BDBDE8014000F062BCCA
:1007700010B586B004461422002101A800F05CFCEC
:100780002168314A3348914225D100210091026904
:1007900042F4802202610022016901F4802100916B
:1007A000009900924FF44061036843F00203036034
:1007B0000222006800F0020000900098264800F035
:1007C00035F8072100F038F800220021272000F03A
:1007D00057FC272026E01E4A914225D10021009196
:1007E000426942F0200242610022416901F0200189
:1007F000009100990092C021036843F00403036054
:100800000222006800F0040000900098134800F0F5
:100810000DF8082100F010F800220021472000F018
:100820002FFC472000F049FC06B010BD0191029258
:1008300000210391032270470591049201A900F061
:1008400067BC0000E00500200048004024060020AE
:100850000014014030380240000402400008024009
:1008600070B5044600F04EFD06460CB9012070BD7F
:1008700004F13405022068700021297020680268A4
:1008800052085200026022681068C1070AD500F0C1
:1008900039FD801B0628F6D32020286203216970C9
:1008A000032070BD1368DFF8CC0261680340A068C4
:1008B0000B43E168034320690B4361690343A0696B
:1008C0000B43E1690343206A0B43616A0343042934
:1008D00003D1E16A206B01430B43136023685A691B
:1008E000606AD208042840EAC2020AD1A66AE16A14
:1008F000324331B1A06988B9002E18BF022E1FD033
:1009000016D35A61204600F051F9A96A3F228A4065
:100910008260002028620121697070BDB0F5005F1F
:100920000AD1032EEDD8DFE806F00D0B0D03E8E742
:10093000B1F1C07FE5D105E0022E03D9F61EE0D16A
:10094000C801DED5402129620120687070BDF8B56C
:10095000044604F134056E6A00F0D4FC074668785A
:10096000022805D080212962002028700120F2BDD4
:100970002068016821F01601016000F004F9E868C0
:10098000002804BF6869002801D000F008F900F0D1
:1009900000F920680168CA070CD500F0B3FCC01B41
:1009A0000628F6D3202028620321697000202870D1
:1009B0000320F2BDA86A3F218140B16000200121DF
:1009C00069702870F2BD90F83510022903D080229A
:1009D000426501207047052180F8351000680268E3
:1009E000520852000260002070472DE9FC41044685
:1009F00004F134060020604900904FF41650776AE5
:100A00000A683D68B2FBF0F8B06A082100F0B7F858
:100A10000ED02068026853070AD5026822F004024B
:100A20000260B06A8140B960316A41F0010131620F
:100A3000B06A25FA00F1CA070BD521684A69110688
:100A400007D5012202FA00F0B860306A40F00200D7
:100A50003062042100F092F808D021680A689307F8
:100A600004D5B860306A40F004003062102100F014
:100A700085F81BD021680A68130717D5B86020686D
:100A800001684A0307D5006801030BD5716969B194
:100A9000204688470AE00168CA0503D4016821F0AE
:100AA00008010160F16809B120468847B06A202139
:100AB00000F065F83FD021680A68D3063BD5B860DE
:100AC0002068717805291CD1026822F016020260A4
:100AD00000F059F8F068002804BF7069002801D0C0
:100AE00000F05DF83F22B06A8240BA600121717067
:100AF0000020F1693070002939D02046BDE8FC4162
:100B0000084701684A0307D5006801030FD431691B
:100B100089B1204688470EE00168CA0507D40168FC
:100B200021F0100101600120707000213170B16866
:100B300009B120468847306AC8B1306AC10710D56C
:100B40000520707000F025F80098401C804500904A
:100B500003D320680168CA07F6D401207070002111
:100B60003170B16919B12046BDE8FC410847BDE8C4
:100B7000F38100003F8010F00C000020B06A01FA01
:100B800000F0054270472068416921F08001416111
:100B90007047206801684908490001607047206873
:100BA000016821F0080101607047000030B501685C
:100BB00008A401F0FF02103A1823B2FBF3F2890AED
:100BC0008902A55CC565042A28BF091D8165084600
:100BD00030BD000000061016000610167047704762
:100BE000704730B4002513E050F8042BD30744BFFE
:100BF000A9F101039A18091F042942F8045BFAD2EB
:100C000013468C0744BF15809B1CC90748BF1D7045
:100C100050F8041B0029E7D130BC704770B5064678
:100C2000184D30682968164C88420FD1E068218A37
:100C3000227842542146208A401C82B2632A28BF6F
:100C40000020208201222846FFF7D9FA336828685D
:100C5000834213D1606822896178815440F2AF42A7
:100C60002089401C81B2914228BF00202081611C54
:100C70002846BDE870400122FFF7C1BA70BD0000F0
:100C800010000020240600202DE9F04104000F464A
:100C900054D0494E306800F00700B84202D200F04C
:100CA00073F84BD12068454D810712D5400703D515
:100CB000A96841F4E051A9602078010703D5A8682C
:100CC00040F46040A860A968A06821F0F0010143E9
:100CD000A9602178C80729D56068012802D1296850
:100CE0008A0305E0022818BF032803D129688A0176
:100CF00003D423E029688A0720D5A968890840EA37
:100D00008100A86000F0FEFA8046A868616800F0E3
:100D10000C00B0EB810F09D000F0F4FAA0EB080052
:100D200041F289318842F0D303202BE0306800F093
:100D30000700874204D200F027F801D0012021E00B
:100D40002078410705D5AA68E06822F4E052024302
:100D5000AA602178080706D5A968206921F46041B6
:100D600041EAC001A96000F035F8AA681449154BA2
:100D7000C2F30312895CC84018601348006800F091
:100D8000C7FA0020BDE8F0813770316801F0070133
:100D9000B94270470B480D4A006813680C49C3F309
:100DA000822206E00748094A006813680849C3F32D
:100DB0004232895CC8407047003C02400038024023
:100DC000941E00080C000020080000200838024093
:100DD000081F000830B5144C606800F00C000428AF
:100DE00002D0082802D01DE0104830BD22682068DB
:100DF0000023410202F03F0204D525680B49C5F3E8
:100E0000881003E020680A49C0F38810A1FB0001A4
:100E100000F010F82168C1F30141491C4900B0FB02
:100E2000F1F030BD024830BD0438024040787D0109
:100E30000024F400D3BBD9B1B2F5803F5BD2022AC3
:100E40001ED98C46B1FBF2F102FB11C31B0443EA2D
:100E50001043B3FBF2FC02FB1C3380B240EA0343B5
:100E6000B3FBF2F002FB103240EA0C400023704763
:100E7000022A05D98446B0FBF2F002FB10C270478B
:100E80004AB105D100F0010249085FEA300070471D
:100E900000220023704700F05BBA0B000200002123
:100EA00000207047F7D3002200237047904271EB77
:100EB000030CF2D370B5B1FA81F4B3FA83F52C1BAD
:100EC000A340C4F1200532FA05F63343A2405FF097
:100ED0000046E64002E05B085FEA3202841A71EBEA
:100EE000030524BF204629467641F4D302000B00B7
:100EF0003000002170BD70B5B1FA81F4B2FA82F50C
:100F0000C4F120046419B4F12006DAD3B2405FF0D2
:100F10000044F440002502E052085FEA3303C61A99
:100F200071EB020E24BF3046714664416D41F3D32C
:100F300002000B002000290070BD30B40EE00268F2
:100F4000436802440830DC0744BFA9F10104E318F8
:100F500052F8045B43F8045B091FF9D150F8041BF5
:100F60000029ECD130BC704780B500F0F3F900F0F7
:100F70000BF800F009FA00F0BFFA00F0D7FAFFF71B
:100F8000D5FBFFF7DBFBFEE780B592B030220021F6
:100F900006A800F051F81422002101A800F04CF836
:100FA000002000902148016841F08051016000213B
:100FB000006800F08050009000981D4800910221C8
:100FC000026842F4804202600122006800F480401E
:100FD000009000980691099210210A9102220021A6
:100FE0000C920D911022C0210E920F910222042129
:100FF0001092119106A800F033FB08B172B6FEE71B
:1010000002210291002203920F204FF4A05101907F
:1010100004914FF480520592032101A8FFF734FE9A
:1010200008B172B6FEE713B000BD000040380240C0
:101030000070004072B6FEE710B5044610460A463E
:101040000146204600F09AFC204610BD090102002E
:1010500002D4294881547047284B02F00F021A44E9
:1010600002F8041C7047264B19684FF6FF02000275
:10107000114000F4E06008432249084318607047BB
:1010800070B51F4B1C68C4F302230124C3F107058C
:10109000052D2EBF0F2504FA05F56D1E1E1D072E0A
:1010A00034BF0023DB1E2940994004FA03F3BDE856
:1010B00070405B1E1A401143C8E7010007D40122AB
:1010C00000F01F01104B8A40400943F82020704770
:1010D00010B5401EB0F1807F01D3012010BD0B4C34
:1010E00060600F214FF0FF30FFF7B0FF0021A160DB
:1010F00007202060002010BD00E400E018ED00E0B3
:101100000CED00E00000FA0500E100E010E000E076
:101110002DE9F84F0D4600266F49704A0F2304460B
:1011200001202F68B04000EA0708804540F0CA80DF
:101130004FEA460C032707FA0CF76FEA070E6F68B1
:1011400007F00309B9F1010F1CBF07F00307022FD5
:1011500012D1A768D5F80C900EEA070709FA0CF926
:1011600049EA0707A760676827EA00006F68C7F3C6
:101170000017B74038436060B0002F7907F00307CD
:10118000032F21D0E768D5F808900EEA070709FA7F
:101190000CF949EA0707E7602F7907F00307022FE8
:1011A00012D1F70804EB870700F01C09D7F820A03C
:1011B00003FA09FB2AEA0B0AD5F810B00BFA09F971
:1011C00049EA0A09C7F8209027680EEA070E2F7926
:1011D00007F0030707FA0CF747EA0E0727606F6866
:1011E00017F4403F6ED0002700974FEA960C17681F
:1011F00047F48047176000F00C00176807F4804739
:10120000009703FA00FE009F354F57F82C7027EA2D
:101210000E0E344FBC4208BF002722D0324FBC42D2
:1012200008BF01271DD0314FBC4208BF022718D08C
:101230002F4FBC4208BF032713D02E4FBC4208BF1C
:1012400004270ED02C4FBC4208BF052709D02B4FD6
:10125000BC4208BF062704D0294FBC420CBF072759
:10126000082707FA00F01E4F40EA0E0047F82C004E
:101270006FEA08008F6800EA070C6F68FF0248BF3A
:1012800048EA0C0CC1F808C0CF6800EA070C6F6888
:10129000BF0248BF48EA0C0CC1F80CC04F6800EA16
:1012A000070C6F68BF0348BF48EA0C0CC1F804C0C4
:1012B0000F6800EA070C6868C00348BF48EA0C0CD6
:1012C000C1F800C0761C0F2E7FF62AAFBDE8F18F63
:1012D00002B9090481617047003C01404438024072
:1012E00008380140000002400004024000080240AB
:1012F000000C02400010024000140240001802409E
:10130000001C024001484068704700BF00000020F8
:1013100038B50D4D0D4B2A7804464FF47A71186894
:10132000B1FBF2F2B0FBF2F0FFF7D2FE50B9102C95
:1013300008D2002221464FF0FF30FFF7A1FEAC603B
:10134000002032BD012032BD000000200C00002032
:101350007047000080B50B48016841F400710160DE
:10136000026842F480620260016841F480710160A9
:101370000320FFF778FE0F20FFF7CAFF00F008FBFD
:10138000002002BD003C02402DE9F04186B014224D
:1013900000216846FFF750FE00214648464C474D65
:1013A000474E484FDFF820810591026842F0040261
:1013B00002600022016801F0040100F090F843F09F
:1013C00002030360016801F0020100F088F843F0B5
:1013D00010030360016801F0100100F080F843F091
:1013E00001030360016801F001010591059905926F
:1013F0004FF46071036843F008030360006800F075
:101400000800059005982046FFF762FF00224FF480
:10141000E8512846FFF75CFF00224FF400413046B8
:10142000FFF756FF0022FF213846FFF751FF002249
:10143000F8214046FFF74CFF40F2022000F054F83C
:101440002846FFF765FE4FF4607100F03FF8204634
:10145000FFF75EFE4FF4805000F046F82046FFF79D
:1014600057FE4FF4E85100F031F82846FFF750FEE0
:101470004FF4406000F038F83046FFF749FE4FF473
:101480000041009101220221019200F023F8304630
:10149000FFF73EFEFF2100F019F83846FFF738FE4F
:1014A000F82100F013F84046FFF732FE06B0BDE821
:1014B000F081000030380240001002400008024075
:1014C00000000240000C0240000402400091012292
:1014D0000192022102910022039269467047059110
:1014E000059905920368704700210090019102223E
:1014F000029269467047000080B5002000900022EB
:101500000948016841F4800101600021006800F48D
:101510008000009000983820FFF7B2FDBDE802403F
:101520003820FFF7CABD00BF303802401FB5102277
:1015300000216846FFF780FD424C434820600021AF
:10154000012020616160A160217684F82010E162B1
:10155000E16084F830103D48A0620220E061012083
:101560006061204600F030FA08B1FFF763FD092002
:10157000012100900191072202926946204600F065
:1015800067FB08B1FFF756FD02200190694620462F
:1015900000F05EFB08B1FFF74DFD1FBD38B586B00A
:1015A00004461422002101A8FFF746FD21682648C1
:1015B000814244D100222648264D0092416941F4DF
:1015C00080714161416901F480710091009900923C
:1015D0000321036843F002030360006800F0020087
:1015E00000900098019102910021039101A91A48ED
:1015F000FFF78EFD1948286000216960E9604FF40B
:1016000000604FF48061686129614FF480700022AE
:101610004FF40051E861AA60A9612A626A62284613
:10162000FFF71EF908B1FFF705FDA563AC630022C3
:1016300000211220FFF724FD1220FFF73EFD07B026
:1016400030BD000098050020002001400100000F7F
:101650003038024038050020000402401064024087
:101660002DE9F843040016D02078DFF80063C107A5
:1016700013D5B06800F00C00042807D0B06800F063
:101680000C0008283DD1706841023AD530688103CA
:1016900003D56068002800F063812078B44F81078B
:1016A00019D5B06810F00C0F07D0B06800F00C002E
:1016B00008285BD17068410258D43068810703D58F
:1016C000E068012840F04C813168206921F0F80180
:1016D00041EAC00131602178080779D56069A549E0
:1016E000002868D001220A60FFF70CFE0546706FE3
:1016F00081076DD4FFF706FE401B0228F7D90320AF
:1017000031E16068B0F5803F04D1306840F480304A
:10171000306011E0B0F5A02F306806D140F4802091
:101720003060316841F4803105E020F48030306071
:10173000316821F480213160606858B1FFF7E2FD23
:10174000054630688103A8D4FFF7DCFD401B6528FF
:10175000F7D3D4E7FFF7D6FD0546306881039CD563
:10176000FFF7D0FD401B6528F7D3C8E7E068A8B1B4
:1017700001213960FFF7C6FD05463068810705D4B1
:10178000FFF7C0FD401B0228F7D9B8E73068216990
:1017900020F0F80040EAC10030609CE73860FFF7B5
:1017A000B1FD05463168880795D5FFF7ABFD401BB5
:1017B0000228F7D9A3E70860FFF7A4FD0546706F7C
:1017C000810705D5FFF79EFD401B0228F7D996E754
:1017D000207841075FD5306C0025C1000AD4009500
:1017E0000125316C41F080513164306C00F0805043
:1017F00000900098DFF88081D8F80000C10513D46C
:10180000D8F8000040F48070C8F80000FFF77AFDB7
:101810008146D8F80000C10506D4FFF773FDA0EBA0
:1018200009000228F5D96AE7A068012805D0052833
:10183000306F06D140F004003067306F40F0010097
:1018400005E0400840003067306F20F0040030674A
:1018500041F28938A06860B1FFF754FD8146306FCE
:10186000810713D4FFF74EFDA0EB09004045F6D3E6
:1018700045E7FFF747FD8146306F810706D5FFF743
:1018800041FDA0EB09004045F6D338E71DB1306CAF
:1018900020F080503064A069002863D0B16801F066
:1018A0000C0108293AD002282AD100203866FFF717
:1018B00029FD05463068810105D5FFF723FD401B52
:1018C0000228F7D91BE7E069216A626A0843A16A26
:1018D000490840EA8210491E40EA0140E16A40EAB4
:1018E0000160706001203866FFF70CFD0446306827
:1018F000810137D4FFF706FD001B0228F7D9FEE669
:1019000000203866FFF7FEFC04463068810129D5C7
:10191000FFF7F8FC001B0228F7D9F0E601281FD0DA
:101920007068E26900F48001914202BF00F03F015B
:10193000226A914201BF47F6C0710140626AB1EB71
:10194000821F0DD1A26A520800F44031521EB1EB41
:10195000024F02BF00F07060E16AB0EB016F01D08E
:10196000012000E00020BDE8F28300BF0038024003
:1019700000004742800E4742007000404018491C5A
:101980001CBFB1F1010100F8012DF9D17047000031
:1019900081B00020009000220A48416841F4804153
:1019A0004160416801F48041009100990092036810
:1019B00043F080530360006800F08050009000986E
:1019C00001B070474038024070B5044600250CB99C
:1019D000012070BD04F13006306920B92046FFF7C0
:1019E000DDFD756135733069C10600F192803069A3
:1019F000DFF8901320F4885040F00200306108684E
:101A000020F4403008600A68606802430A60206879
:101A1000416821F48071416020684168226941EA8F
:101A2000022141602068416821F0407141602168D5
:101A30004A68A06802434A602068816821F4006116
:101A4000816021688A68E06802438A602068A16A30
:101A5000DFF834239142816821F0706181600CD0FD
:101A600021688A68A06A02438A6000F05BF82168F6
:101A70008A68E06A02438A6001E000F053F8206857
:101A8000816821F0020100F049F8227E41EA42011A
:101A9000816094F820002168002848680FD040F445
:101AA000006048602068416821F46041416020681E
:101AB0004168626A521E41EA4231416002E020F40C
:101AC000006048602068C16A21F47001C16220682A
:101AD000C16AE269521E41EA0251C162206881680E
:101AE00021F4007100F01AF8327841EA422100F046
:101AF00015F821F4806100F011F8626941EA822151
:101B000081607561316921F0020141F001013161AB
:101B100000E0012500203073284670BD81602068F8
:101B2000816870472068816821F04051816070476A
:101B300070B5044621680D684E68A80729D5B2061D
:101B400027D5206CC20603D4206C40F400702064BA
:101B5000886810F0405F04BF207E002812D1C86A58
:101B600010F4700F02D0886842050BD4486820F04A
:101B700020004860206C20F480702064206CC10438
:101B800000F060F8204600F007F921686FF01200BD
:101B90000860680731D531062FD5206CC10603D403
:101BA000206C40F4005020642168886810F4401FC5
:101BB0001CD1886B10F4401F02D08868420515D4F0
:101BC0004868420512D4886810F0405F04BF207E48
:101BD00000280BD1486820F080004860206C20F479
:101BE00080502064206CC10500F02CF8204600F0E5
:101BF000D5F821686FF00C000860E80710D5710671
:101C00000ED520680268D1070AD5206C40F48030D8
:101C10002064204600F0C3F821686FF001000860DE
:101C2000A8060ED571010CD5606C40F0020060640E
:101C30006FF0200520680560204600F0B1F82168AB
:101C40000D6070BD03D4206C40F00100206470472B
:101C500078B502460020009092F83C30012B01D16B
:101C6000022072BD012082F83C0007240B68106836
:101C70000A2B11D30A3BC56803EB430300F076F847
:101C8000C460C3680D688C68A5F10A0606EB4606B9
:101C9000B4402343C3600FE0056903EB430304FA38
:101CA00003F325EA0303036103690D688C6805EB00
:101CB0004505AC40234303611F244B68072B0CD21E
:101CC0005B1E456B00F050F84463436B4D680C8815
:101CD0006E1E00F044F843631BE00D2B0CD2DB1F9B
:101CE000056B00F041F80463036B4D680C88EE1F30
:101CF00000F035F803630CE00D3BC56A00F034F8E2
:101D0000C462C36A4D680C88A5F10D0600F027F87F
:101D1000C3621E4B98421DD10C681A48122C03D185
:101D2000036843F4800303600B68102B18BF112B6A
:101D300010D1036843F4000303600868102809D138
:101D40001449134C0B68B3FBF4F40A204443009489
:101D500000F010F8002182F83C10002072BD06EB64
:101D60008606B4402343704703EB83039C4025EA77
:101D70000404704702E00098401E0090009800287C
:101D8000F9D17047042301400100000F00200140F9
:101D900040420F000C000020704700007047704761
:101DA00070470000FEE7FEE7FEE7FEE7FEE770474C
:101DB0007047704700F014B80548FFF7B9BE0548F2
:101DC000FEF743BA0448FEF710BE0448FEF73DBADA
:101DD00098050020E005002038050020240600209A
:101DE0000248416802788A1842607047000000206B
:101DF00010B5074979441831064C7C44163404E088
:101E00000A68081D114488470146A142F8D110BD57
:101E10005000000070000000010000000000000001
:101E2000100000000024F400000000002400002046
:101E300000000000D4040020000000004EF688518D
:101E4000CEF20001086840F470000860BFF34F8FC5
:101E5000BFF36F8F4FF00070E1EE100A7047000083
:101E600083EDFFFF44060000240000200000000076
:101E7000CBF0FFFF24000000A0FFFFFF00000020C8
:101E8000000000000248016841F4700101607047E1
:101E900088ED00E0000000000000000001020304E3
:101EA0000607080900F00DF8002801D0FFF7A0FF91
:101EB000AFF300800020AFF30080FFF755F800F08B
:101EC00002F80120704700F001B8000007463846CC
:101ED00000F002F8FBE7000080B5AFF30080024A93
:101EE00011001820ABBEFBE7260002000148804726
:101EF00001480047851E0008FD1E0008AFF3008062
:101F0000FFF79CFFFFF7CEFF000000000102030473
:101F1000FFF7FEBFFFF7FEBFFFF7FEBFFFF7FEBFF5
:101F2000FFF7FEBFFFF7FEBFFFF7FEBFFFF7FEBFE5
:101F3000FFF7FEBFFFF7FEBFFFF7FEBFFFF7FEBFD5
:101F4000FFF7FEBFFFF7FEBFFFF7FEBFFFF7FEBFC5
:101F5000FFF7FEBFFFF7FEBFFFF7FEBFFFF7FEBFB5
:101F6000FFF7FEBFFFF7FEBFFFF7FEBFFFF7FEBFA5
:101F7000FFF7FEBFFFF7FEBFFFF7FEBFFFF7FEBF95
:101F8000FFF7FEBFFFF7FEBFFFF7FEBFFFF7FEBF85
:101F9000FFF7FEBFFFF7FEBFFFF7FEBFFFF7FEBF75
:101FA000FFF7FEBFFFF7FEBFFFF7FEBFFFF7FEBF65
:101FB000FFF7FEBFFFF7FEBFFFF7FEBFFFF7FEBF55
:101FC000FFF7FEBFFFF7FEBFFFF7FEBFFFF7FEBF45
:101FD000FFF7FEBFFFF7FEBFFFF7FEBFFFF7FEBF35
:101FE000FFF7FEBFFFF7FEBFFFF7FEBFFFF7FEBF25
:101FF000FFF7FEBFFFF7FEBFFFF7FEBFFFF7FEBF15
:10200000FFF7FEBFFFF7FEBFFFF7FEBFFFF7FEBF04
:10201000FFF7FEBFFFF7FEBFFFF7FEBFFFF7FEBFF4
:10202000FFF7FEBFFFF7FEBFFFF7FEBFFFF7FEBFE4
:08203000FFF7FEBFFFF7FEBF42
:0400000508001EFDD4
:00000001FF
