:020000040800F2
:10000000E01A0020A95F0008A15C0008A35C0008BA
:10001000A55C0008A75C0008A95C000800000000BF
:10002000000000000000000000000000AB5C0008C1
:10003000AD5C000800000000AF5C0008B15C000887
:10004000296000082D600008316000083560000854
:10005000396000083D60000841600008BD5C000890
:100060004560000849600008C35C00084D60000856
:100070005160000855600008596000085D60000884
:100080006160000865600008696000086D60000834
:10009000716000087560000879600008C95C00089C
:1000A0007D600008816000088560000889600008A4
:1000B0008D60000891600008956000089960000854
:1000C0009D600008A1600008A5600008A960000804
:1000D000AD600008B1600008D15C0008D75C000882
:1000E000DD5C0008B5600008B9600008BD6000086C
:1000F000C1600008C5600008C9600008CD60000844
:10010000D1600008D5600008D9600008DD600008F3
:10011000F35C0008E1600008E5600008E9600008A1
:10012000F95C0008ED600008F1600008F560000867
:10013000F96000080000000000000000FD600008F9
:100140000161000805610008096100080D610008EF
:10015000116100081561000819610008FF5C0008C2
:100160001D6100082161000825610008296100085F
:100170002D6100083161000800000000000000004F
:1001800035610008396100081FB500F0D2FA01ACF2
:1001900000220E210120ADF800208DF804106070BF
:1001A00000F0CBFABDF80000E0700021217101A839
:1001B000052100F0C3FB09220FF62831DFF8E44ADD
:1001C00000F071FBA2882068002100F018FE0020DA
:1001D000A0800121DFF8D04A204600F033FE00F075
:1001E00023FB0E2100F021FB012004B010BD38B527
:1001F0000446DFF8B85A01220121284600F020FF0A
:10020000012000F049FF00220121284600F018FFDC
:100210002146DFF8940A00F01DFE012032BD10B522
:100220000146DFF8800A8288DFF87C0A5AB1DFF8DD
:10023000803A1C88944205D100221A80022100F0E5
:1002400001FE02E01A8000F005FE012010BD2DE93C
:10025000FC41DFF8505ADFF85C7AA9882868DFF89B
:10026000488A0024ADF800400022C9B200F0C8FC62
:10027000A88829680A18921E53781678821E46EAC2
:10028000032692B2684600F01BFFBDF80010B14291
:100290001CBF387B002840F03E81F87A78B90D21E8
:1002A000404600F0CFFD0AE000F061F907D189B2C5
:1002B0004B1C984203DB505C01F085F8641CA88855
:1002C000A6B2801EB11C8842C0F22C812A68DFF8D9
:1002D000E839965D641C611C0B2E1FFA84FC00F04B
:1002E000A7800C2E00F0C6800D2E00F0CC800E2EC4
:1002F00029D0152E00F07F80162ED5D01B2E00F0B1
:10030000DA80202E0FD0212E30D0222E3ED0232E68
:1003100052D0602E00F0DC80612E00F0E680622E6C
:1003200000F0ED80CBE712F80C30022B0C46C6D162
:10033000A3B2991C8842C2DBD018A41C4178D05CBF
:1003400001F055F8BBE712F80C20012A0C46B6D193
:1003500089B2491C8842B2DB0121404600F084FD8D
:100360000221404600F080FD082199E700F0FFF8E7
:10037000A5D189B24B1C9842A1DB515C01299EDCBE
:1003800001230122012001F029FA97E712F80C60FD
:10039000012E0C4693D189B24E1CB0428FDB515CCA
:1003A00001298CDC987C10B10123012202E0012399
:1003B000012200210520E6E712F80C60012E0C4610
:1003C000E8D189B24E1CB042E8DB505C0128E8DC81
:1003D000DFF8E86850B101280CD1987C30B1DFF823
:1003E000E018087801F0ECFA022100E00321304621
:1003F00000F028FD62E712F80C30032B0C46C9D13F
:1004000089B2CB1C9842C9DB515CDFF8B83819803F
:10041000641C0902A6B21980641C905D0143198016
:10042000A1B2641C525CDFF8A0089A70032138E77F
:1004300000F08FF8B2DB002038830B21786901705F
:10044000388B7969401C388380B20A54388B401C41
:1004500038830AE02868A1B2641C435C7969388B50
:100460000B54521E398B491C3983D0B20028F1D16C
:10047000042115E712F80C200C4612FA84F1884288
:100480008CDB06210CE700F064F83EDB00203884AA
:100490000CE0388C142808DA2968A3B2641CC95C03
:1004A000FB691954388C401C3884521ED0B2002885
:1004B000EFD10521F4E600F05AF809D189B24B1CBE
:1004C000984205DB515C012902DC00233B72641C6D
:1004D000A1B2641C515C012907D1A1B24B1C984206
:1004E00003DB505C00F0E0FA641C00F03AF806D13F
:1004F00000F029F803DB085C01F0FCF8641C00F054
:1005000030F87FF4DCAE00F01EF8FFF6D8AE085CE1
:1005100001F00DF9D2E601F060FB05210FF2D07079
:1005200000F00CFAAA88DFF8A407027000212868FE
:1005300000F065FC0020A8800121404600F082FC0C
:100540000120BDE8F681AA88A0B2921E431C9A42FF
:10055000704712F80C200C46114611FA84F18842BB
:1005600070472968A0B2641C085C0128704712F823
:100570000C30012B0C467047DFF8381730B50446B5
:100580008A7ADFF824574EF66020424389B0AA6386
:100590002321684601F088FB684600F0E2F9014635
:1005A000684600F0CBF92146284600F053FC0120B4
:1005B00009B030BD1CB50020DFF8F846228B616918
:1005C000ADF80000684600F07BFD6169228BBDF844
:1005D000000088540021208B6269401C208380B277
:1005E0001154218B6069491C2183C9B200F0A6F91E
:1005F000012016BD2DE9F84187B0182101A8DFF8C8
:10060000B47601F051FBAA218DF8041001AC388CAE
:1006100060700022ADF800200225002106E0FA6992
:10062000CBB23546D25C04F80820491C6E1CCAB215
:1006300082425FFA85F8F2D34FF4005001F062FB7A
:100640003A8C921C92B24FF4005101A801F0EDFBDC
:100650000D208DF80400EAB200F072F8BDF8000039
:1006600004F8080000F02DF8012008B0BDE8F08182
:10067000F0B587B0182101A801F016FB0C218DF808
:1006800004100022DFF82C06ADF8002001AC018C2C
:1006900061700222002304E0C269D25D62555B1CD6
:1006A0003246561CDFB28F42D5B2F5D3D2B200F03B
:1006B00047F8BDF80000605500F003F8012007B0CE
:1006C000F0BDF2B20021A154761CF1B201A835E1CF
:1006D0007FB50446DFF8D05505F6247001F079FCAB
:1006E00000BB4FF47A7000F0D7FC00F022F801AEA6
:1006F00000210E2200F09CF870708DF8061000F0BA
:100700001EF8BDF80000F07000218DF8081001A857
:10071000052100F008F90A220FF2DC5100F0C3F8BD
:1007200000F092FD2146284600F08CFB012004B029
:1007300070BD052101A801F0B7BA8DF806000322AB
:1007400001A9684600F0BCBC70B5DFF85C550446F2
:1007500005F62476304601F03CFC90B1DFF85405F4
:10076000C17A01290BD105F1F0040122214630465E
:1007700001F00EFC95F81311204600F0D4F80A2180
:1007800000E02146284600F065FB012070BD70B5F1
:10079000DFF8144504F62475284601F01AFC20B948
:1007A0000921204600F04EFB13E0DFF80805C17A6E
:1007B00001290BD104F1F00601223146284601F04F
:1007C000E7FB94F81311304600F0ADF80A2100F071
:1007D0002CF8012070BDFEB5DFF8D854DFF8C8440E
:1007E0002A7A042A064604DD0C21204600F02AFB62
:1007F00018E0FFF79EFF01AF00211B2200F018F860
:100800007870FFF79AFFBDF80000F8700021397189
:1008100001A8052100F092F8287A401C2872314680
:1008200000F003F80120FEBD0D21204600F012BBB0
:100830000120ADF800108DF80420704738B5DFF8BE
:100840007424DFF86444117C0546DFF88404E9B9B8
:10085000002301211372117111740122082100F08B
:10086000EFFB012301220021012000F0B7FF294600
:10087000FFF7DBFF0B21204600F0F6FA19220FF2FA
:10088000844100F010F800F00CF808E00021D1726B
:1008900011740022082100F0D3FBFFF7C5FF0120EF
:1008A00032BD0322C2A1012000F0B0BA10B5DFF8BA
:1008B0000444DFF8F4030122E2720B2100F0C2FAD3
:1008C00000212171012010BD38B5DFF8E813DFF8F1
:1008D000D85304460878002804BF487800281CD163
:1008E0008878002804BFC878002816D10879A0B9F4
:1008F00001F072FB696BAA6B401AB0EB520F0CD37C
:100900000821284600F0A6FA0121284600F0ACFA9A
:100910000221284600F0A8FA03E02146284600F00C
:1009200091FA012032BD38B504460D4600F0E1FBD6
:1009300029462046BDE83840012261E100B589B072
:1009400000228DF8231003E0835C0DF80230521C66
:100950008A42F9DB00226946DE4801F0EAFA09B072
:1009600000BD1CB504460020ADF800000A2121702E
:100970006070D148817CA170D7498A78E2708B7908
:100980002371CA7962714B79A3711923C978E17116
:10099000D249B1F900201212227209886172D0493D
:1009A000B1F900201212A272FF220988E1722273AB
:1009B0004188090A61734188A1738288120AE2732F
:1009C00081882174027C627481680912A174816833
:1009D000E174C268120E22751B22C168090C617590
:1009E000C168090AA175C168E175407C2076B448E8
:1009F0000178617621464078A0766370684600F001
:100A00005FFBBDF80000E0761D20BDF80010090A6C
:100A1000217716BDA44800F58A732422142100F61C
:100A2000247001F075BA70B586B01621684601F0E1
:100A30003BF916224FF40051684601F014FA9DF874
:100A400000209C4CAA2A0DF102000FD19DF8011044
:100A500000222284D3B28B4224DAE569268CC35C5F
:100A6000AB55521C238C5B1C2384F3E7AA228DF820
:100A700000200021228C8DF8012003E0E3695D5CF9
:100A80004554491C9142F9DB4FF4005001F03AF90A
:100A9000012000F001FB228C921C92B24FF4005115
:100AA00000F067F806B070BD3EB50100814C08BF8C
:100AB0000120A07201AD0020009060210120A37AE6
:100AC0008DF804106870AB70032201A90DF10200CB
:100AD00000F0F6FABDF80210BDF80200E870090A4D
:100AE0008DF8081001A80521FFF728FFAA20A17A98
:100AF0008DF800008DF801104FF4C04001F002F9AC
:100B000002224FF4C04100F034F8A27A66484EF653
:100B100060214A438263032100F09CF937BD80B510
:100B200068460021018002224FF4104101F09BF938
:100B30009DF80000AA2806D19DF801005D49012812
:100B400014BF0028087301BD80B50021ADF8001066
:100B5000AA218DF800105748017B8DF801104FF441
:100B6000104001F0CFF802224FF4104100F001F8DC
:100B700001BD684601F059B91CB501004D4C08BFD4
:100B8000012060720321684601F08EF8607A8DF8CA
:100B90000100AA228DF800204FF4E04001F0B2F8E5
:100BA00003224FF4E041FFF7E4FF617A3E4A21E07F
:100BB0000D0A00001CB568460021018002224FF496
:100BC000C04101F050F99DF800003A4CAA2804BF3A
:100BD0009DF80100A07202224FF4E041684601F046
:100BE00042F99DF80000304AAA2804BF9DF8010090
:100BF0006072617A4EF660204143C2F8D81013BD8E
:100C000070B596B004460D461646462104A801F07C
:100C10004BF8002E07BF13220FF2041114220FF21B
:100C200014110294ADF80C50FFF73DFE49A1BDF838
:100C30000C00D1E90023CDE9002304AC4628009440
:100C400007DA02A9684600F0B8F8BDF80420009958
:100C500001E00B223CA1FFF726FEFFF722FE16B0B3
:100C600070BD70B5002400250F4800EB05167278A2
:100C7000012A11D17068012430B101F0ADF9716819
:100C8000B268401A904207D30020707001F0A4F9B6
:100C90007060E8B2F16888476D1C0F2DE4DB2046D8
:100CA00070BD000008130020B001002000080240C1
:100CB000DA160020EC1000209801002024110020FA
:100CC00012130020D0160020CC110020DE160020C8
:100CD00000100240D4100020C01600205C1200203A
:100CE000601200204F4E5F4D43550D0A000000007A
:100CF0004552524F520000004F46465F4D43550D3E
:100D00000A0000006170705F70635F626F783A2064
:100D1000526573657420506320426F7800000000B4
:100D20006170705F70635F626F783A2052656376BE
:100D30003A2000006170705F70635F626F783A20E4
:100D40005472616E733A200044617461204C617288
:100D500067650000000000000000000010B5DFF82B
:100D6000DC200C46116800F005F8A0428041C04329
:100D7000C00F10BD814204D24FF0FF32101A081884
:100D80007047081A704738B5034600208DF80000F8
:100D9000002207E0E4B2002A1ABF0A2505FB004042
:100DA0002046521C8A4207DA9C5CA4F130050A2DC9
:100DB00034BF303C0024EDE732BD30B500220FE0F7
:100DC00004F812300B689C5C056804F00F0405EB16
:100DD00042030A2CACBF37343034521C5C7092B2E0
:100DE0008B889A4208DA0B689B5C04681B090A2B03
:100DF000B4BF30333733E3E75B00838030BD13008B
:100E000003D00A46194601F0EDB87047032804DA0A
:100E10004FF47A730A4801F02AB9704738B500F0E8
:100E200006F882B229462046BDE83840EEE704467F
:100E30000D46284601F04EBC00000000D4160020EC
:100E4000E415002000EB01100121002241704260F6
:100E50000120704710B500EB01140120607001F013
:100E6000BBF86060012010BD00EB01100022427051
:100E7000012070472DE9F84F0D4600267A497B4A3C
:100E80000F23044601202F68B04000EA0708804580
:100E900040F0CA804FEA460C032707FA0CF76FEAC6
:100EA000070E6F6807F00309B9F1010F1CBF07F0C7
:100EB0000307022F12D1A768D5F80C900EEA070796
:100EC00009FA0CF949EA0707A760676827EA0000F2
:100ED0006F68C7F30017B74038436060B0002F79E0
:100EE00007F00307032F21D0E768D5F808900EEA32
:100EF000070709FA0CF949EA0707E7602F7907F0B5
:100F00000307022F12D1F70804EB870700F01C0932
:100F1000D7F820A003FA09FB2AEA0B0AD5F810B08B
:100F20000BFA09F949EA0A09C7F8209027680EEA7E
:100F3000070E2F7907F0030707FA0CF747EA0E07A9
:100F400027606F6817F4403F6ED0002700974FEA84
:100F5000960C176847F48047176000F00C0017687C
:100F600007F48047009703FA00FE009F404F57F8B0
:100F70002C7027EA0E0E3F4FBC4208BF002722D03C
:100F80003D4FBC4208BF01271DD03C4FBC4208BFAB
:100F9000022718D03A4FBC4208BF032713D0394F5D
:100FA000BC4208BF04270ED0374FBC4208BF0527FC
:100FB00009D0364FBC4208BF062704D0344FBC428C
:100FC0000CBF0727082707FA00F0294F40EA0E0058
:100FD00047F82C006FEA08008F6800EA070C6F687A
:100FE000FF0248BF48EA0C0CC1F808C0CF6800EA0D
:100FF000070C6F68BF0248BF48EA0C0CC1F80CC070
:101000004F6800EA070C6F68BF0348BF48EA0C0C42
:10101000C1F804C00F6800EA070C6868C00348BF45
:1010200048EA0C0CC1F800C0761C0F2E7FF62AAFE0
:10103000BDE8F18F0069084018BF0120C0B27047B9
:1010400002B9090481617047426901EA02039143D0
:1010500041EA0341816170470E4A136803421CBF95
:10106000106001F041BB7047003C01404438024031
:10107000083801400000024000040240000802401D
:10108000000C024000100240001402400018024010
:10109000001C0240143C014038B5044600F09CFF9F
:1010A00014F1010F054602D004480178641800F0DD
:1010B00093FF401BA042FAD331BD00BF00000020C7
:1010C00070B50023038000240FE005880B5D5D40B0
:1010D00008236E08ED0752BF354686F4204585F09B
:1010E00001055B1EF5D10580641C9442EDDB0120F7
:1010F00070BD0A4601464FF47A735A4800F0B7BFF4
:10110000010015D0FF2801D10A207047FE2801D127
:1011100064207047FD2802D14FF47A707047FC2894
:1011200002D142F210707047FB2801D14E4870473F
:101130000120704710B504460846FFF7E1FF0A2179
:1011400014FB01F191FBF0F000B210BD2DE9F04F5E
:101150000F4600250A26002F0446A946B0460AD5A8
:101160002D207F422070012505E040464946A6FB20
:10117000008906FB01993846002142464B4601F0A2
:10118000DBFA002908BF0028EFD140464946B8469F
:1011900010E0404600213246534601F0CDFAEBB252
:1011A00000F13002E254A6FB007B6D1CA8EB07089F
:1011B000304651460A22002301F0BEFA06465FEA95
:1011C000010A08BF002EE4D1E8B2BDE8F08F2DE996
:1011D000F04100270029064690464CBF4D420D467F
:1011E000FFF7B4FF044665B34046FFF789FF0A21C5
:1011F000854203D24D4307F10107F9D1721E611CEC
:10120000FBB26BB101E03355641EE4B2135D2D2BCC
:1012100018BF002CF7D1302232550C467F1EEDE767
:101220000A23B0FBF3F058B10A23B0FBF3F0E3B2AA
:10123000641ED55CF5540028F5D1E4B22E2030555B
:101240000C46E0B2BDE8F08172B6BFF34F8F07499C
:1012500007480A6802F4E06202430A60BFF34F8F56
:1012600000BFFDE728160020A08601000CED00E07D
:101270000400FA0510B5BE4C00202081A072E07079
:1012800000F09DF801212171012010BD38B5B84C46
:10129000B84DE1780020491CA071E1702846032177
:1012A000FFF7D8FD04212846FFF7D4FD0221284688
:1012B000FFF7C8FDA07800F0B9F8012032BD70B585
:1012C000AB4DAC4C0646687903280BD100F084FE88
:1012D000616B401AB0F57A7F0AD2287A401C02214D
:1012E0002872697131462046FFF7B4FD012070BDB8
:1012F00000F0BEF80020687103212046FFF7B4FD1E
:10130000F4E780B500F0B4F89948427A0021521C05
:1013100041714272012002BDF8B584B00020ADF8E1
:10132000000001AC9249944D0A788878012A25D1B1
:101330008A798B7A4E78CF78D318B7428B720CD2D9
:1013400040218DF804100423A0706370E2702771AF
:10135000667100F034F806261BE00022A0700A71C6
:101360000422087A497A62704126E3702071617123
:101370008DF8046000F09AF8062608E000220A7151
:10138000162101228DF804106270A070032600203F
:101390002870324601A96846FFF792FEBDF80000AA
:1013A000A055761CBDF80020F0B2120A2254761C1B
:1013B000F1B201A8FFF7C2FA012005B0F0BD01218A
:1013C0006C48FFF73FBD010000D1704710B53D28C4
:1013D0000CDA674A117949B9674901230B70002477
:1013E0001470137153705371907018E010BD0200A7
:1013F00000D1704710B53D2810DA0A000ED0072939
:101400000CDA5B4B1A794AB95B4A012414701C70E0
:101410001C7100225A719870597000E010BD0021B3
:10142000BDE810405348FFF70DBD000070B5441EE5
:10143000E4B20A20DFF844615DA394FBF0F533F8D1
:10144000151056F825000122FFF7FAFD0120FFF7DD
:1014500023FE0A205AA100FB154406EB840031F854
:101460001410C069BDE870400122FFF7E9BD00001B
:1014700070B50024DFF804514DA636F8141055F865
:1014800024000022FFF7DCFD641C072CF5DB00BF05
:101490004BA6002405EB840036F81410C069002226
:1014A000FFF7CEFD641C0A2CF4DB70BD1CB5304C7C
:1014B000A17800F038F8152231A100F02CF800F0E6
:1014C0002DF800208DF801005FF0050232A100F038
:1014D00022F8A17A00F027F800F020F800208DF81B
:1014E000010008222EA100F016F8217A00F01BF866
:1014F00000F014F800208DF8010007222AA100F066
:101500000AF8617A00F00FF800F008F8032217A13A
:1015100000F001F813BD0220FFF778BC02226946F3
:101520000220FFF773BC6846FFF710BE70B50024B9
:101530000025104800EB05167278012A11D1706859
:10154000012430B100F048FD7168B268401A904241
:1015500007D30020707000F03FFD7060E8B2F168C2
:1015600088476D1C042DE4DD204670BD0D0A000087
:10157000B416002044000020EC100020940000204D
:101580006170705F6374726C5F6D6F746F723A201C
:10159000506F733A000000002049523A00000000EA
:1015A000204561726C793A00204C6174653A000004
:1015B0000400020001000010000800040080000088
:1015C00008001000200040008000080010002000EB
:1015D0004000800010B5DFF83C4504212046FFF7AD
:1015E00031FC05212046FFF72DFC06212046FFF7A0
:1015F00029FC012010BD10B5DFF81C150446887CBD
:1016000020B1DFF81815087800F0DAF96BE010B5B2
:10161000DFF8004501212046FFF726FC0321204684
:10162000FFF718FC012301220121062000F0D6F863
:10163000012010BD80B5012301220021062000F009
:10164000CDF8DFF8DC040021C1700121DFF8C4040B
:10165000FFF700FC012002BD38B5DFF8B854A96CD3
:10166000B1F5FA6F044605D1002000F0DDF928211C
:10167000A96405E0002000F0DFF94FF4FA60A864E7
:1016800021462846FFF7E6FB012032BD70B5DFF8A2
:101690009464DFF880540446307880B1A96D5029F5
:1016A00005D1012000F0C0F92821A96507E001203B
:1016B00000F0C2F95020A86531784A1E32702146E8
:1016C0002846FFF7C7FB012070BD10B50446DFF8C0
:1016D00058040178012903D1022000F09DF902E0AD
:1016E000022000F0A9F92146DFF82804FFF7B2FB39
:1016F000012010BD3EB5010008BF012002D01F2807
:10170000A8BF1E20DFF81444617800F03FF8612183
:101710008DF8041001AD217800220120ADF80020E1
:1017200000F02CF800F023F88DF808101AE03EB510
:10173000010008BF012102D00428D8BF0521DFF82D
:10174000DC43207800F022F80021ADF8001001AD54
:101750006178622201208DF8042000F00FF800F07B
:1017600006F8297101A80521FFF7E8F837BDBDF893
:101770000010BDF80000E870090A704768708DF825
:101780000610032201A96846FFF79ABCDFF88C23F4
:10179000107051704EF66020DFF87823414391615C
:1017A000704780B5042200F0A1F803224FF40041F5
:1017B000684600F058FB9DF80010DFF86003AA2986
:1017C00005D19DF801109DF802200170427041780A
:1017D000D04A4EF660204143916101BD2DE9F041B0
:1017E00007460C46200018BF012C1546984637D1F5
:1017F000062FCE4E29D8DFE807F004090E13181D76
:101800002400002000F02EF874701EE0012000F08B
:1018100029F8B47012E0022000F024F8F47014E00B
:10182000032000F01FF834710FE0042000F01AF8D4
:1018300074710AE0052000F015F8B47100F028F882
:1018400003E0062000F00EF8F471224639462846DF
:1018500000F0C2F8224639464046BDE8F041FBE0C0
:10186000BDE8F081B24A02EB800332F810001B6938
:10187000012901460CBF012200221846FFF7E0BBF8
:1018800080B500F037F800F052F8BDE8014088E775
:10189000E0B500F02AF8AA218DF8001007228DF893
:1018A0000120A2494A788B788DF802208DF8033008
:1018B000CA780B798DF804208DF80530C8794A79FB
:1018C0008B798DF808008DF806208DF807304FF4DD
:1018D000405000F017FA0120FFF7DEFB09224FF419
:1018E0004051684600F0A1FA07BD09220021684670
:1018F00000F0A5BFE0B5FFF7F8FF09224FF4405113
:10190000684600F0B0FA9DF80000AA2804BF9DF8D0
:10191000011007290AD19DF80310844A0129D8BF74
:1019200091709DF807000128D8BF907107BD70B570
:101930007E4C80486178804D804E01290CBF012289
:1019400000224FF40041FFF77BFBA07801280CBF79
:101950000122002202212846FFF772FBE0780128CD
:101960000CBF0122002204212846FFF769FB2079E1
:1019700001280CBF012200224FF480713046FFF78E
:101980005FFB607901280CBF012200224FF4007137
:101990003046FFF755FBA07901280CBF0122002239
:1019A00040212846FFF74CFBE07901282846BDE896
:1019B000704007BF0122012100220121FFF740BB37
:1019C000574A0121D1704EF66023524A5843906322
:1019D00002211046FFF736BA012800D070471FB524
:1019E00050248DF80440022001AC00236070A170E7
:1019F0008DF80720ADF80030042201A96846FFF7F2
:101A00005FFBBDF800002071010A8DF8091001A8E4
:101A10000621FEF793FF1FBD6BA2494B32F8101051
:101A200053F82000FFF710BB10B500F00DF8BDE82B
:101A300010400122FFF704BB10B500F005F8BDE827
:101A400010400022FFF7FCBA5FA33D4C33F81010A2
:101A500054F820007047000010B501280C4636D11C
:101A6000012A07BF1B220FF2DC011C220FF2F0013A
:101A70000220FFF7CBF9062C22D8DFE804F0040798
:101A80000B0F13171B000A223CA116E05FF008029F
:101A90003DA112E05FF00D023DA10EE05FF00702F4
:101AA0003FA10AE05FF00D023FA106E05FF00602F1
:101AB00041A102E05FF0060241A10220FFF7A6F972
:101AC000BDE81040032212A10220FFF79FB910BD0C
:101AD00070B5002400250F4800EB05167278012A26
:101AE00011D17068012430B100F076FA7168B268E3
:101AF000401A904207D30020707000F06DFA7060B9
:101B0000E8B2F16888476D1C072DE4DB204670BD04
:101B10000D0A00002411002098010020121300205B
:101B2000EC100020DE160020DF160020C01600207A
:101B30009411002000000240001002400004024006
:101B4000C0110020757365725F6170705F72656CA3
:101B500061793A204F4E2052656C61793A2000003D
:101B6000757365725F6170705F72656C61793A2040
:101B70004F46462052656C61793A2000454C4556E7
:101B800041544F522000000053435245454E20001F
:101B900046524944474520434F4F4C200000000027
:101BA000414C41524D20000046524944474520488F
:101BB00045415420000000004C414D5020000000E1
:101BC0005741524D2000000000020001800000003B
:101BD00001223149314800F0A2BA0122304915E012
:101BE00010B52B4C2948012204F11C0100F097FA92
:101BF00001222146274800F092FA0122611C274861
:101C000000F08DFAA11CBDE810400122254800F02B
:101C100086BA38B505461F48296802681C4C9142AF
:101C20000CD12189642905D2636822785A5421890C
:101C3000491C21810122214600F071FA17482968C8
:101C4000026891420CD1218A322905D2E368627878
:101C50005A54218A491C21820122611C00F05FFA3A
:101C600010482968026891420ED1218B642905D25F
:101C70006369A2785A54218B491C2183A11CBDE8B9
:101C80003840012200F04BBA31BD0000A015002001
:101C9000F4120020E4150020F51200205C1500204D
:101CA000F612002028160020002200F0D3BD30B428
:101CB000002513E050F8042BD30744BFA9F101031A
:101CC0009A18091F042942F8045BFAD213468C07BC
:101CD00044BF15809B1CC90748BF1D7050F8041BEA
:101CE0000029E7D130BC70470320FFF797B880B5D3
:101CF00000F0ECF8062000F0D1FDBDE80240012024
:101D000000F0C2BD38B505460324FFF7F0FF4FF4DD
:101D10007A7000F037F8012803D0641EF5D1002056
:101D200032BD00F0D3F8202000F0B8FD00F079F8C3
:101D3000280400F077F8E8B200F0B0FD00F007F8F2
:101D40004FF47A7000F006F80128E9D0E7E70120A7
:101D500000F09ABD70B500F0B6F8052000F09EFDC9
:101D600005E016F0030F09D00120FFF795F900F008
:101D700006F800F01BF80128F3D11CE01FE0A520B5
:101D800000F08CBD70B500F09EF8052000F086FDD7
:101D900004E0B00709D40120FFF77EF9FFF7EFFF59
:101DA00000F004F80128F4D105E008E006462146D9
:101DB0002846FEF7D3BF00F067FD002070BDFFF797
:101DC000C6FF012070BD78B5C1B004460D46164669
:101DD000FFF78DFF4FF47A70FFF7D4FF01281ED173
:101DE00000F074F8022000F059FD00F01AF8280401
:101DF00000F018F8E8B200F051FD6420009033467E
:101E000001AA2146DFF8CC0000F0BCFDFFF79FFFE0
:101E10006420FFF79FFF012801D142B070BD002070
:101E2000FBE72802000E00F039BD70B504460D46F0
:101E300016464FF47A70FFF78DFF01280CD1324619
:101E400029462046FFF7BFFF012805D00FF28C017D
:101E5000FFF74AFF002070BD0FF29C010320FEF740
:101E6000DDFF012070BD2DE9F8430E468046914606
:101E70003502370403244FF47A70FFF76BFF012813
:101E800004D0641EF7D10020BDE8F28300F01EF8F4
:101E9000032000F003FD280E00F000FD380E00F0D6
:101EA000FDFCF0B200F0FAFC03E0FFF768FF08F871
:101EB000010B4846A0F1010980B20028F5D1FFF7D7
:101EC00046FF0120E0E704490D680446002000F0C9
:101ED000DBBC0000BC140020D4160020755F6578C0
:101EE0005F666C6173683A20777269746520666119
:101EF000696C210D0A000000755F65785F666C6192
:101F000073683A207772697465204F4B210D0A007F
:101F100050B50024047043600E4656434468046183
:101F20009B198360002443680475C3604175C282B5
:101F300050BD38B504461046657D237D00226D1ED8
:101F4000AB4223DAE38AEBB11A4660B9E06800F0ED
:101F5000B3FEE168E08A0844A168E060884211D3DA
:101F60006068E0600EE020695B421844206100F088
:101F7000A3FE20696168884204D2E18AA0684942D0
:101F8000014421610122207D401C2075104632BD94
:101F900010B5044608461146227DC2B1E28A19B93D
:101FA000216900F089FE10E062B110B1216900F0F2
:101FB00083FE2069E18AA26808442061904224BF20
:101FC00060682061207D411E2175012010BD002028
:101FD00010BD007D7047000001484068704700BF99
:101FE000000000204018491C1CBFB1F1010100F89D
:101FF000012DF9D17047000038B5040001D101204E
:1020000032BD00F017F808B900F018F800F01BF81E
:1020100000F023F8FFE7416100F001F832BD2068CD
:10202000C16841F40051C1600020686020216970DE
:10203000A970704704F13C05687870470021297049
:10204000204600F07ABE242068702068C16821F420
:102050000051C160204600F0D9BA2068016921F41E
:10206000904101612068416921F02A0170472DE902
:10207000F843054605F13C060C46707820281746C3
:10208000994649D10CB1380001D1012045E03078A2
:10209000012841D00121317000207060212272702E
:1020A000FFF79AFFAF848046EF84A868B0F5805FA1
:1020B00004BF286900280EBF2746204600270021BC
:1020C000317004460EE014F8012B426007E02868E6
:1020D000002CF8D137F8021BC1F308014160E88CED
:1020E000411EE9844346E88CCDF80090002807D0D3
:1020F00000228021284600F081F90028E7D005E081
:1021000000224021284600F079F908B1032004E0BC
:1021100020207070002000E00220BDE8F28338B576
:1021200000F130039C7B202C0FD109B1140001D1A8
:10213000012032BD1C7B012C07D001241C7300251B
:102140001D60BDE8384000F0A3B9022032BD21680F
:1021500001F1140252E8001F206800F1140321F07D
:10216000400143E80010002870477CB50446216810
:102170000B68CD684A6913F00F0007D1980661D546
:10218000AA065FD52046BDE87640D5E1D00702D447
:1021900015F4907F56D0D80705D5E90503D5206CF6
:1021A00040F001002064580705D5D10703D5206C05
:1021B00040F002002064980705D5D10703D5206CB4
:1021C00040F004002064180707D5A90601D4D00701
:1021D00003D5216C41F008012164206C002830D027
:1021E000980604D5A90644BF204600F0A5F920684A
:1021F0004069216C0A0701D440061DD5204600F035
:1022000070F920684169480611D5FFF7A0FFFCD19D
:10221000A06B60B10FF215310165A06B00F040FFBB
:1022200000280ED0A06B016DBDE87C400847204619
:10223000BDE8764001F04EB8204601F04BF8002092
:10224000206473BD206B012804F13D0240F08680BC
:10225000D80600D5EE0640F18180002300930D687A
:1022600000954B6800930098496948063FD5A16BDB
:102270000868406880B20028E3D0A38D9842E0DA75
:10228000E085C869B0F5807F2DD0216801F10C0090
:1022900050E8001F236803F10C0521F4807145E824
:1022A00000100028F1D100F09BF8490800F1140556
:1022B000490045E800100028F5D100F091F800F140
:1022C000140521F0400145E800100028F5D1202038
:1022D00050700021216300F089F800F0BEF8FAD1B7
:1022E000A06B00F0A1FEA18DE08D091A30E0A08D59
:1022F000E18D411AE08D00281CBF88B2002868D00B
:10230000206800F10C0353E8003F00F10C0623F4B1
:10231000907346E800300028F2D1206800F05AF8A7
:1023200000F114065B0046E800300028F5D12020BB
:10233000507000222263206800F10C0252E8002F46
:1023400000F10C0522F0100245E800200028F2D12F
:102350002046BDE87C4089B200F0BDBF180629D5F3
:102360002E0627D51078212833D1A068B0F5805FDC
:1023700004BF2069002808D1206A0288C2F308023D
:102380004A60206A811C216204E0206A421C2262A9
:1023900000784860E08C401EE08480B2C8B92068B4
:1023A000C16821F08001C1602068C16841F040012E
:1023B000C16073BD58060CD56B060AD5C86820F0FD
:1023C0004000C860202111702046BDE8764000F032
:1023D00083BF73BD00F1140353E8003F5B087047EF
:1023E000206800F1140151E8001F7047206800F1D7
:1023F0000C0151E8001F00F10C0370472DE9F0417A
:10240000069C05460E4690461F46286801683140E6
:10241000B1420CBF0120002040451BD114F1010F37
:10242000F3D024B1FFF7D8FDC01B8442EDD200F0F9
:102430001AF821F4D07100F012F8F8D100F01BF86E
:10244000FCD105F13C002021417081700021017018
:10245000032000E00020BDE8F08121F0100143E8F6
:10246000001000287047286800F10C0151E8001F97
:1024700000F10C037047286800F1140151E8001FB7
:10248000490800F11403490043E800100028704790
:1024900081628285C28500F13C0100224A602223CC
:1024A0008B700A70016921B10168CA6842F48072B8
:1024B000CA6001684A6942F001024A610068C16865
:1024C00041F02001C1600020704744E8002100294C
:1024D0007047016801F10C0252E8002F01F10C0471
:1024E000704710B5FFF7F5FF22F49072FFF7EDFF8C
:1024F000F8D100F00BF8016B012901D100F071F85F
:10250000202180F83E100022026310BD016801F115
:10251000140252E8002F520801F11404520044E85A
:1025200000210029F2D1704700000000806B0021DB
:10253000C185C18400F0CEBE1CB590F83E102229A2
:102540004DD18168826AB1F5805F0AD1016969B9AC
:1025500003685968C1F308011180826A911C816285
:102560000FE0002904BF0169002902D103685968FE
:1025700003E00168496801F07F011170816A4A1C1B
:102580008262C18D491EC18589B231BB0168CA68AA
:1025900022F02002CA600168CA6822F48072CA6010
:1025A00001684A69520852004A6100F029F812D1C4
:1025B0000021016300F015F802681168CB0606D50A
:1025C0000024009413680093526800920099818D52
:1025D00000F081FE01E0FFF71CFB002016BD022089
:1025E00016BD026802F10C0151E8002F036803F1E7
:1025F0000C0422F0100244E800210029F1D17047B8
:10260000202180F83E10026B012A704770B5044605
:1026100022681169E06821F4405101431161D368D7
:102620002648A168034020690B4361690343E069C0
:102630000B430343D3605169A06921F44071014306
:1026400051611F498A421CBF1E48824202D100F0DC
:10265000D3FE01E000F0C8FE62682568E4696426E4
:102660001921B4F5004FA1FB000112D1D30F520084
:1026700000F062F800F028F8F60032366420B6FB6D
:10268000F0F0420002F4F87202EB011200F00700D1
:1026900010E0930F920000F04FF800F015F83601AB
:1026A00032366420B6FBF0F000F0F00202EB0112CB
:1026B00000F00F008018A86070BD0000F369FFFFF4
:1026C00000100140001401406421B0FBF1F106FB51
:1026D0001106704700F1010310F8011B11B110F849
:1026E000011BFBE7C01A70471028114903D18879F4
:1026F000401C88717047B0F5006F03D14879401CC9
:102700004871704702280B4903D18868401C8860D3
:102710007047B0F5007F03D14868401C486070479F
:10272000B0F5805F02D10868401C0860704700BFA8
:10273000B4160020E0120020D3BBD9B1B2F5803F1F
:102740005BD2022A1ED98C46B1FBF2F102FB11C307
:102750001B0443EA1043B3FBF2FC02FB1C3380B2C0
:1027600040EA0343B3FBF2F002FB103240EA0C40B4
:1027700000237047022A05D98446B0FBF2F002FB21
:1027800010C270474AB105D100F0010249085FEA62
:102790003000704700220023704700F075BE0B0028
:1027A0000200002100207047F7D300220023704769
:1027B000904271EB030CF2D370B5B1FA81F4B3FA25
:1027C00083F52C1BA340C4F1200532FA05F63343F0
:1027D000A2405FF00046E64002E05B085FEA32029A
:1027E000841A71EB030524BF204629467641F4D3B1
:1027F00002000B003000002170BD70B5B1FA81F409
:10280000B2FA82F5C4F120046419B4F12006DAD3D7
:10281000B2405FF00044F440002502E052085FEA55
:102820003303C61A71EB020E24BF30467146644171
:102830006D41F3D302000B002000290070BD10B5DC
:10284000044610460A4601462046FFF7CBFB2046C9
:1028500010BD000000B500BF130096469446103925
:1028600028BFA0E80C50FAD85FEA417C28BF0CC012
:1028700048BF40F8042BC90728BF20F8022B48BFE7
:1028800000F8012B00BD00000D4B00280CBF0022FA
:1028900001224FF400711846FEF7D2BB01B582B099
:1028A00000204FF47A718DF804000091012301AAF1
:1028B00002A9044800F066F89DF804000EBD00006F
:1028C000000C0240BC14002038B5040001D10120E6
:1028D00032BD606A28B900F051F805D00021E161ED
:1028E00002E00020206160610020A06204F1500538
:1028F000687820B900212970204600F0E5FD02200B
:10290000687000F040F96068A168E26800F48270C5
:1029100001F404410843217C02F400621043227D4B
:1029200001F002010843A16902F001021043227F75
:1029300001F40071084394F8201002F038021043AB
:10294000A26A01F080010843216802F4005210439A
:102950000860A06994F824102268000C00F00400BC
:1029600001F01001084350602068C16921F4006142
:10297000C161002068600121697032BD6068B0F5F6
:10298000827F70472DE9FC4700F0DCF84FF001082A
:1029900008BF022000F0C6809A4687F80080FFF743
:1029A0001BFB7B78012B09D06968B1F5827F02BFE0
:1029B000A9680029042B01D00226AEE0002C1CBF20
:1029C000B9F1000FBAF1000F01D10126A5E07B7823
:1029D000042B1CBF052179707E60C5F83890A5F8DE
:1029E0003EA0A5F83CA02C63A5F836A0A5F834A01D
:1029F0002E646E6429680C68630603D40C6844F086
:102A000040040C60E9680A9CB1F5006F696838D130
:102A1000002918BFBAF1010F00F0A9F88146E88E2D
:102A2000002804BFE88F002868D0296888688207DA
:102A30000BD5E88E002818BFB8F1000F05D0286B21
:102A40000288CA60B04600F06FF829688868C2073B
:102A50000CD5E88F50B1C868A96B08804FF0010809
:102A6000A86B821CAA63E88F411EE987FFF7B4FABE
:102A7000A0EB0900A042D2D314F1010FCFD003265E
:102A80004BE0002918BFBAF1010F00F064F881464D
:102A9000E88E002804BFE88F00282FD029688868B6
:102AA00082070DD5E88E002818BFB8F1000F07D0B7
:102AB000286B02780A73B046286B411C00F036F888
:102AC00029688868C2070CD5E88F50B1C868A96B1F
:102AD00008704FF00108A86B421CAA63E88F411EE2
:102AE000E987FFF779FAA0EB0900A04203D314F1BC
:102AF000010FCDD0C3E7002CCAD1C0E74A4621461A
:102B0000284600F0A6F818B120200126786004E0DD
:102B1000A86810B900F00FF8009801217970002022
:102B200038703046BDE8F687286B811C2963E88E33
:102B3000411EE986704700962968CA680092896834
:102B400000917047054605F15007002638780128A6
:102B50000C469146704709D1296B2B680A781A7385
:102B6000296B4A1C2A63E98E4A1EEA86704709D1FE
:102B7000296B2B680A88DA60296B8A1C2A63E98E24
:102B80004A1EEA8670472068016821F04001016012
:102B900070472DE9F843089C05460E4690461F46AF
:102BA000FFF71AFA381A2418FFF716FA8146404838
:102BB00001684901090D6143009105E0009800B9E1
:102BC00000240098401E0090286881683140B1427E
:102BD0000CBF01200020404532D017F1010FF3D087
:102BE000FFF7FAF9A0EB0900A04201D2002CE5D1D1
:102BF0002868416821F0E00141606868B0F5827F93
:102C000008D1A868B0F5004F18BFB0F5806F01D1AA
:102C100000F019F8A86AB0F5005F09D128680168CA
:102C200021F4005101602868026842F400520260F9
:102C300005F150000121417000220270032000E0E4
:102C40000020BDE8F2832868016821F0400101609E
:102C500070477CB504461648164E0B460168182589
:102C6000B1FBF5F5B5FBF6F64FF47A7046430096E6
:102C70006168B1F5827F09D100928021002220464F
:102C8000FFF787FF58B100F00CF876BD009830B11F
:102C90000098401E0090216888680106F6D4002044
:102CA00076BD606D40F02000606503207047000035
:102CB0000C00002040420F004AB1000011F8013B17
:102CC000521E00F8013B1CBF11F8013BF8E77047AA
:102CD00080B57548754901604FF4165200F01AF836
:102CE00000B108E001BD80B57148724900F00FF8ED
:102CF00000B100E001BDBDE8014000F08FBC80B52F
:102D00006D486E4900F003F800B1F4E701BD0160C1
:102D10004FF4E13200230C2142608360C360036101
:102D200041618361C361FFF767B980B56448654954
:102D3000FFF7EDFF00B1DEE701BD10B586B0044638
:102D4000142200216846FFF77AFD2268574B5E483F
:102D50005E499A4219D1002205920B6943F400237F
:102D60000B6100230A6902F400220592059A05937B
:102D7000032200F089F8082200F081F800220021E7
:102D8000342000F067FC342064E04A4B9A4219D1A9
:102D9000002205920B6943F400330B6100230A699A
:102DA00002F400320592059A05930C2200F06CF8AB
:102DB000072200F064F800220021262000F04AFCDF
:102DC000262047E03D48824221D100220592086931
:102DD00040F480200861086900F4802000F044F885
:102DE00043F002030B60086800F0020005904FF406
:102DF00040610598364800F031F8072100F03AF8B4
:102E000000220021272000F025FC272022E02D4869
:102E1000824221D100220592486940F02000486199
:102E2000486900F0200000F01FF843F004030B6035
:102E3000086800F004000590C0210598254800F0BE
:102E40000DF8082100F016F800220121472000F0BB
:102E500001FC472000F01BFC06B010BD0091019260
:102E600000210291032270470590059805920222E5
:102E70000B687047049103926946FDF7FBBF03930B
:102E800004926946FDF7F6BF0C6844F001040C603B
:102E90000223096801F0010105910599009201934F
:102EA00000220292032370475C150020004C004072
:102EB000A015002000440040E41500200048004018
:102EC0002816002000140140000002403038024063
:102ED000000402400008024070B50446FFF77CF889
:102EE00006460CB9012070BD04F13405022068705B
:102EF000002129702068026852085200026022688E
:102F00001068C1070AD5FFF767F8801B0628F6D3BB
:102F10002020286203216970032070BD1368DFF848
:102F20002C0361680340A0680B43E16803432069F8
:102F30000B4361690343A0690B43E1690343206AC2
:102F40000B43616A0343042903D1E16A206B014307
:102F50000B43136023685A69606AD208042840EA68
:102F6000C2020AD1A66AE16A324331B1A06988B9C6
:102F7000002E18BF022E1FD016D35A61204600F033
:102F800091F9A96A3F228A408260002028620121CB
:102F9000697070BDB0F5005F0AD1032EEDD8DFE88F
:102FA00006F00D0B0D03E8E7B1F1C07FE5D105E0B8
:102FB000022E03D9F61EE0D1C801DED540212962D8
:102FC0000120687070BDF8B5044604F13406002590
:102FD0003078776A012801D10220F2BD01203070DB
:102FE000707801281CD1022070703562204600F0F4
:102FF00049F9B06A3F2101FA00F0B8602068016821
:1030000041F016010160F06820B12068016841F0CC
:10301000080101602068016841F00101016001E0E0
:10302000357002252846F2BDF8B5044604F1340592
:103030006E6AFEF7D1FF07466878022805D0802126
:103040002962002028700120F2BD2068016821F06B
:103050001601016000F003F9E868002804BF686900
:10306000002801D000F007F900F0FFF8206801689F
:10307000CA070CD5FEF7B0FFC01B0628F6D32020E8
:10308000286203216970002028700320F2BDA86A1D
:103090003F218140B1600020012169702870F2BD9C
:1030A00090F83510022903D0802242650120704734
:1030B000052180F83510006802685208520002604D
:1030C000002070472DE9FC41044604F1340600203D
:1030D0005F4900904FF41650776A0A683D68B2FB6A
:1030E000F0F8B06A082100F0B6F80ED02068026847
:1030F00053070AD5026822F004020260B06A8140D8
:10310000B960316A41F001013162B06A25FA00F11B
:10311000CA070BD521684A69110607D5012202FAB0
:1031200000F0B860306A40F002003062042100F024
:1031300091F808D021680A68930704D5B860306A0E
:1031400040F004003062102100F084F81BD02168A8
:103150000A68130717D5B860206801684A0307D5C5
:10316000006801030BD5716969B1204688470AE000
:103170000168CA0503D4016821F008010160F16803
:1031800009B120468847B06A202100F064F83FD09A
:1031900021680A68D3063BD5B86020687178052994
:1031A0001CD1026822F01602026000F058F8F068A4
:1031B000002804BF7069002801D000F05CF83F22AD
:1031C000B06A8240BA60012171700020F1693070EC
:1031D000002939D02046BDE8FC41084701684A0370
:1031E00007D5006801030FD4316989B120468847AB
:1031F0000EE00168CA0507D4016821F010010160E2
:103200000120707000213170B16809B120468847F3
:10321000306AC8B1306AC10710D50520707000F05F
:1032200024F80098401C8045009003D32068016872
:10323000CA07F6D40120707000213170B16919B14C
:103240002046BDE8FC410847BDE8F3813F8010F00F
:103250000C000020B06A01FA00F0054270472068B7
:10326000416921F080014161704720680168490887
:103270004900016070472068016821F00801016081
:103280007047000030B50468256825F48025256066
:1032900063608068402802D1A260E16030BDA16017
:1032A000E26030BD30B5016808A401F0FF02103AB9
:1032B0001823B2FBF3F2890A8902A55CC565042ACA
:1032C00028BF091D8165084630BD000000061016A4
:1032D0000006101670477047704700002DE9F04156
:1032E00004000F4654D0494E306800F00700B84241
:1032F00002D200F073F84BD12068454D810712D5FA
:10330000400703D5A96841F4E051A960207801077E
:1033100003D5A86840F46040A860A968A06821F0BF
:10332000F0010143A9602178C80729D56068012808
:1033300002D129688A0305E0022818BF032803D1B7
:1033400029688A0103D423E029688A0720D5A9685F
:10335000890840EA8100A860FEF73EFE8046A86822
:10336000616800F00C00B0EB810F09D0FEF734FE6D
:10337000A0EB080041F289318842F0D303202BE012
:10338000306800F00700874204D200F027F801D02F
:10339000012021E02078410705D5AA68E06822F4E1
:1033A000E0520243AA602178080706D5A96820697F
:1033B00021F4604141EAC001A96000F035F8AA6833
:1033C0001449154BC2F30312895CC84018601348B6
:1033D000006800F087F90020BDE8F081377031689F
:1033E00001F00701B94270470B480D4A00681368A5
:1033F0000C49C3F3822206E00748094A00681368B3
:103400000849C3F34232895CC8407047003C02401F
:1034100000380240205E00080C0000200800002058
:10342000083802401860000830B5144C606800F09D
:103430000C00042802D0082802D01DE0104830BD3E
:10344000226820680023410202F03F0204D525686B
:103450000B49C5F3881003E020680A49C0F38810BF
:10346000A1FB0001FFF768F92168C1F30141491C84
:103470004900B0FBF1F030BD024830BD04380240D5
:1034800040787D010024F4007047000080B5284892
:10349000284901604FF4827208214260C161002313
:1034A0004FF400720A218360C3600361436182614B
:1034B000036243628362C162FFF706FA18B1BDE896
:1034C000014000F0ABB801BD10B586B0044614222F
:1034D000002101A8FFF7B3F921681648814224D1E1
:1034E000002215480092016941F48041016101699F
:1034F00001F480410091009900924FF4604103680B
:1035000043F0020303600222006800F00200009012
:1035100000980A480191029200210391032205219B
:103520000591049201A9FDF7A5FC06B010BD0000AD
:10353000BC14002000380040303802400004024033
:1035400080B500F0EFF800F013F800F005F900F096
:1035500011FA00F029FAFFF7D2FBFFF7E6FBFFF7BD
:10356000B7FBFFF7C0FBFFF791FF00F0C1FAFEE7E2
:1035700080B592B03022002106A8FFF760F914222E
:10358000002101A8FFF75BF90020009021480168A5
:1035900041F0805101600021006800F080500090EF
:1035A00000981D4800910221026842F480420260A6
:1035B0000122006800F48040009000980691099272
:1035C00010210A91022200210C920D9110224FF439
:1035D000A8710E920F91022204211092119106A857
:1035E00000F0C6FA08B172B6FEE70221029100228D
:1035F00003920F204FF4A051019004914FF4805298
:103600000592052101A8FFF769FE08B172B6FEE731
:1036100013B000BD403802400070004072B6FEE7B3
:103620000901020002D4294881547047284B02F056
:103630000F021A4402F8041C7047264B19684FF613
:10364000FF020002114000F4E060084322490843F1
:103650001860704770B51F4B1C68C4F30223012427
:10366000C3F10705052D2EBF0F2504FA05F56D1EC4
:103670001E1D072E34BF0023DB1E2940994004FA8B
:1036800003F3BDE870405B1E1A401143C8E7010018
:1036900007D4012200F01F01104B8A40400943F873
:1036A0002020704710B5401EB0F1807F01D301206B
:1036B00010BD0B4C60600F214FF0FF30FFF7B0FFE3
:1036C0000021A16007202060002010BD00E400E080
:1036D00018ED00E00CED00E00000FA0500E100E06C
:1036E00010E000E038B50D4D0D4B2A7804464FF43C
:1036F0007A711868B1FBF2F2B0FBF2F0FFF7D2FF7B
:1037000050B9102C08D2002221464FF0FF30FFF7AD
:10371000A1FFAC60002032BD012032BD00000020BE
:103720000C00002080B50B48016841F40071016075
:10373000026842F480620260016841F480710160B5
:103740000320FFF77AFF0F20FFF7CCFF00F09EFB6E
:10375000002002BD003C02402DE9F84F86B0142243
:1037600000216846FFF76BF800217448DFF8D0911C
:10377000DFF8D0A1DFF8D0B1DFF8D081059140F2B9
:10378000EF35026842F0100202600022016801F089
:103790001001059141F601570599059248F240063E
:1037A000036843F00403036040F2FF24016801F062
:1037B0000401059105990592036843F00103036034
:1037C000016801F00101059105990592036843F034
:1037D00002030360016801F0020105910599059259
:1037E0002946036843F008030360006800F00800FE
:1037F000059005984846FDF723FC002239465046BF
:10380000FDF71EFC002231465846FDF719FC012247
:103810004FF480714046FDF713FC002221464046DC
:10382000FDF70EFC00224FF47E714948FDF708FCBD
:10383000009500F097F84846FDF71CFB41F2100098
:1038400000904FF48815019502210291484669467F
:10385000FDF710FB009700F085F85046FDF70AFBD6
:1038600040F20221009101950221029150466946E1
:10387000FDF700FB0120002101900222039102923A
:10388000009669465846FDF7F5FA4FF4C04000210E
:10389000009001910222029269464846FDF7EAFA39
:1038A0000122019202924FF4807100910022039252
:1038B00069464046FDF7DEFA009400F053F84046B2
:1038C000FDF7D8FA4FF48060002100F043F84FF480
:1038D00000604FF4041100F03DF84FF47E71009148
:1038E00001220192022102910022039269461848A6
:1038F000FDF7C0FA002200210720FFF7ABFE0720EA
:10390000FFF7C5FE002200210A20FFF7A3FE0A20D0
:10391000FFF7BDFE002200211720FFF79BFE1720B6
:10392000FFF7B5FE002200212820FFF793FE282094
:10393000FFF7ADFE07B0BDE8F08F00003038024061
:10394000001002400008024000000240000C02404B
:1039500000040240009001910222029269465846FA
:10396000FDF788BA01200021019002220391029202
:103970006946704780B50020009000220948016820
:1039800041F4800101600021006800F48000009093
:1039900000983820FFF75EFEBDE802403820FFF7B0
:1039A00076BE00BF303802401FB5102200216846A5
:1039B000FEF745FF434C444820604FF4803101201E
:1039C000206100224148A06261600320E061A260A2
:1039D00001206061227684F82020E262E26084F8AF
:1039E0003020204600F06EFA08B1FFF717FE0820DD
:1039F0000121009001910722029200F015F808B110
:103A0000FFF70CFE09210091022200F00CF808B12A
:103A1000FFF704FE11210091032200F004F808B121
:103A2000FFF7FCFD1FBD01926946204600F0A5BBD3
:103A300038B586B004461422002101A8FEF7FFFE27
:103A40002168214881423AD100222148214D00922B
:103A5000416941F480714161416901F480710091D3
:103A6000009900920321036843F002030360006899
:103A700000F0020000900098019102910021039152
:103A800001A91548FDF7F6F900216960E9604FF4D6
:103A900080611248286029614FF4805000226861DB
:103AA0004FF48041AA60A961EA612A626A622846ED
:103AB000FFF712FA08B1FFF7B1FDA563AC6307B0D9
:103AC00030BD000014150020002001400100000F4F
:103AD000303802405C1400200004024010640240B0
:103AE00080B5FCF7A0FFFDF765F8FDF718F839E0A1
:103AF00010B5FDF7C5FEFCF78DFF00F009FEFFF7DE
:103B0000EFFF3220FDF7C8FA114C00F0FCFE00F088
:103B100025F8FDF7A6F800F01DF8FDF707FD00F009
:103B20001DF800F0D7FF00F015F800F03EFE00F0A1
:103B300015F8FDF7CDFF00F00DF801F053FA00F095
:103B40000DF801F0B4FB00F005F8DEE7000000001E
:103B5000CF16002022781043207070472178084348
:103B600020707047FEF73CF8BDE8014001F05ABAFA
:103B70002DE9F843040016D02078DFF80063C10770
:103B800013D5B06800F00C00042807D0B06800F02E
:103B90000C0008283DD1706841023AD53068810395
:103BA00003D56068002800F063812078B44F810756
:103BB00019D5B06810F00C0F07D0B06800F00C00F9
:103BC00008285BD17068410258D43068810703D55A
:103BD000E068012840F04C813168206921F0F8014B
:103BE00041EAC00131602178080779D56069A549AB
:103BF000002868D001220A60FEF7EEF90546706FD2
:103C000081076DD4FEF7E8F9401B0228F7D903209D
:103C100031E16068B0F5803F04D1306840F4803015
:103C2000306011E0B0F5A02F306806D140F480205C
:103C30003060316841F4803105E020F4803030603C
:103C4000316821F480213160606858B1FEF7C4F911
:103C5000054630688103A8D4FEF7BEF9401B6528ED
:103C6000F7D3D4E7FEF7B8F90546306881039CD551
:103C7000FEF7B2F9401B6528F7D3C8E7E068A8B1A2
:103C800001213960FEF7A8F905463068810705D49F
:103C9000FEF7A2F9401B0228F7D9B8E7306821697E
:103CA00020F0F80040EAC10030609CE73860FEF781
:103CB00093F905463168880795D5FEF78DF9401BC5
:103CC0000228F7D9A3E70860FEF786F90546706F6A
:103CD000810705D5FEF780F9401B0228F7D996E742
:103CE000207841075FD5306C0025C1000AD40095CB
:103CF0000125316C41F080513164306C00F080500E
:103D000000900098DFF88081D8F80000C10513D436
:103D1000D8F8000040F48070C8F80000FEF75CF9A5
:103D20008146D8F80000C10506D4FEF755F9A0EB8E
:103D300009000228F5D96AE7A068012805D00528FE
:103D4000306F06D140F004003067306F40F0010062
:103D500005E0400840003067306F20F00400306715
:103D600041F28938A06860B1FEF736F98146306FBC
:103D7000810713D4FEF730F9A0EB09004045F6D3D4
:103D800045E7FEF729F98146306F810706D5FEF732
:103D900023F9A0EB09004045F6D338E71DB1306C9C
:103DA00020F080503064A069002863D0B16801F031
:103DB0000C0108293AD002282AD100203866FEF7E3
:103DC0000BF905463068810105D5FEF705F9401B62
:103DD0000228F7D91BE7E069216A626A0843A16AF1
:103DE000490840EA8210491E40EA0140E16A40EA7F
:103DF0000160706001203866FEF7EEF80446306816
:103E0000810137D4FEF7E8F8001B0228F7D9FEE657
:103E100000203866FEF7E0F804463068810129D5B5
:103E2000FEF7DAF8001B0228F7D9F0E601281FD0C8
:103E30007068E26900F48001914202BF00F03F0126
:103E4000226A914201BF47F6C0710140626AB1EB3C
:103E5000821F0DD1A26A520800F44031521EB1EB0C
:103E6000024F02BF00F07060E16AB0EB016F01D059
:103E7000012000E00020BDE8F28300BF00380240CE
:103E800000004742800E47420070004081B0002091
:103E9000009000220A48416841F480414160416835
:103EA00001F48041009100990092036843F080532F
:103EB0000360006800F080500090009801B07047E7
:103EC0004038024070B5044600250CB9012070BD91
:103ED00004F13006306920B92046FFF7A9FD75616D
:103EE00035733069C10600F192803069DFF8C01384
:103EF00020F4885040F002003061086820F440301F
:103F000008600A68606802430A602068416821F41A
:103F10008071416020684168226941EA0221416064
:103F20002068416821F04071416021684A68A068BA
:103F300002434A602068816821F400618160216841
:103F40008A68E06802438A602068A16ADFF8642317
:103F50009142816821F0706181600CD021688A688B
:103F6000A06A02438A6000F05BF821688A68E06A10
:103F700002438A6001E000F053F82068816821F074
:103F8000020100F049F8227E41EA4201816094F882
:103F900020002168002848680FD040F40060486085
:103FA0002068416821F46041416020684168626A8C
:103FB000521E41EA4231416002E020F40060486054
:103FC0002068C16A21F47001C1622068C16AE26997
:103FD000521E41EA0251C1622068816821F40071D9
:103FE00000F01AF8327841EA422100F015F821F485
:103FF000806100F011F8626941EA82218160756197
:10400000316921F0020141F00101316100E0012537
:1040100000203073284670BD816020688168704739
:104020002068816821F0405181607047126802F079
:104030001F02102A7047016841F0804101607047FB
:10404000816841F0804181607047F8B504460020E6
:1040500004F13C0300901D78012D01D10220F2BD36
:104060000120187020688568EE070DD48568974E8A
:1040700045F00105856096480568B5FBF6F606EB48
:104080004606009600F00BF920688568EE0503D51A
:10409000856825F4807585602568A868C60762D59F
:1040A0005F688848074047F480775F606868450527
:1040B00005D5586820F4005040F480505860586886
:1040C000C50446BF986820F00600002098600025CF
:1040D0001D70A36B0FF2FD10D863A36B0FF25D2070
:1040E0001864A36B0FF25D20D8646FF0220025687E
:1040F00028602068436843F080634360134620686B
:10410000856845F4807585600A46206800F14C0199
:10411000A06BFEF758FF2068654A6B49136813F0DF
:104120001F0F16D188420DD06349884204D112680E
:1041300012F01F0F1FD105E0604988421BD1FFF725
:1041400075FF18D2816811F0405F14D1FFF778FF36
:1041500011E0884202BF5A48016811F0405F0AD15D
:10416000FFF769FF07E0586840F010005860986852
:1041700040F0010098600020F2BD78B502460020B2
:10418000009092F83C30012B01D1022072BD012039
:1041900082F83C0007240B6810680A2B11D30A3BF5
:1041A000C56803EB430300F076F8C460C3680D688C
:1041B0008C68A5F10A0606EB4606B4402343C360AB
:1041C0000FE0056903EB430304FA03F325EA030355
:1041D000036103690D688C6805EB4505AC4023431A
:1041E00003611F244B68072B0CD25B1E456B00F04C
:1041F00050F84463436B4D680C886E1E00F044F821
:1042000043631BE00D2B0CD2DB1F056B00F041F864
:104210000463036B4D680C88EE1F00F035F80363F0
:104220000CE00D3BC56A00F034F8C462C36A4D6807
:104230000C88A5F10D0600F027F8C362224B9842C6
:104240001DD10C681A48122C03D1036843F4800373
:1042500003600B68102B18BF112B10D1036843F4B7
:10426000000303600868102809D11949174C0B682E
:10427000B3FBF4F40A204443009400F010F800214A
:1042800082F83C10002072BD06EB8606B440234342
:10429000704703EB83039C4025EA0404704702E067
:1042A0000098401E009000980028F9D17047000047
:1042B000042301400100000F0021014000220140C1
:1042C00008200140FEF9FFFF0020014040420F009E
:1042D0000C000020816B0A6C12F0500F24D1086C86
:1042E00040F4007008640A68906810F0405F04BFF2
:1042F000087E002815D1D06A10F4700F02D09068A3
:1043000043050ED4506820F020005060086C20F463
:1043100080700864086CC20403D4086C40F001008B
:104320000864084600F0FABF0A6CD30644BF08468A
:1043300000F0F5BF896BCA6C10470000806B00F07D
:10434000EFBF0000806B40210164426C42F0040228
:10435000426400F0E4BF000010B5DFF8944401218E
:104360002046FCF76FFD05212046DEE078B50FF210
:104370002451DFF88064D1E9002385B003ADCDE995
:10438000012301950C2100910446DFF86C54297833
:104390000223032201A800F0DCFFDFF860540122B1
:1043A00040212846FCF74CFE0520FCF775FEB2883C
:1043B00030680021FCF723FD0020B08000F04AF9AE
:1043C000002240212846FCF73BFEDFF8245402215E
:1043D0002846FCF737FD032100F0E3F800F0E0F891
:1043E000012006B070BD10B50146DFF808048288D0
:1043F000DFF8FC035AB1DFF808341C88944205D179
:1044000000221A800321FCF71DFD02E01A80FCF750
:1044100021FD012010BD2DE9F843DFF8D873B988DC
:104420003868DFF8E053DFF8D063DFF8C483421860
:10443000921E891E5378127842EA032900F071FF18
:1044400048454FF6FF7435D107214046FCF702FD81
:10445000396832780878904204BF4878032831D10F
:10446000C8780A7942EA00227280487A8A7A42EA57
:104470000022642092FBF0F0B0800B7CCA7B887C29
:104480001B0443EA02634A7C43EA02230343B3600A
:104490000B7ECA7D887E1B0443EA02634A7E43EAA0
:1044A00002230343F36001212970707D50B1401E47
:1044B000707507E07480B480B46000202870717D4E
:1044C000491C7175717DB88820B97480B480B4605E
:1044D0002870491C307DCAB29AB972886E2A05DAF2
:1044E0000228D8BF401C04DD032005E0020018BFED
:1044F000401EC2B2022A01DD002206E032B90122CA
:1045000003E0022A02DD03210222B27430757175C4
:1045100040460221FCF7A8FC0120BDE8F28310B55B
:10452000044600F0FDF82146B148FCF793FC012059
:1045300010BD7CB5B04EAE4DF27C0446B07C9042CE
:104540002AD005216846FDF7AFFB684600F067F802
:1045500001466846FCF7F2F9B07CF07400F082F88E
:10456000B07CA2A618B918220FF2AC2108E00128ED
:1045700003D117220FF2B82103E01F220FF2C82146
:104580000120FCF743FC032231460120FCF73EFCEE
:1045900006212846FCF756FC00F002F8012076BD03
:1045A00021462846FCF756BC38B5974C924AA1796B
:1045B000907C20BB012905D1012301220021052087
:1045C000FDF70CF9E078012803D107218F48FCF7AB
:1045D00039FC6079012805D1012301220021042042
:1045E000FDF7FCF8E0798A4D012803D10321284624
:1045F000FCF728FC02212846FCF736FC06E029B926
:104600000123012201210520FDF7E8F8012032BD38
:1046100080B5FEF75DFBFDF7DBFA012002BD1CB59E
:1046200004460020ADF800000F21217001227248DD
:1046300062700322837CA37021466846FCF740FD2C
:10464000BDF80000E0700520BDF80010090A2171D6
:1046500016BD0000BDF8082001996E484FF47A732A
:10466000FDF705BD80B50021ADF80010AA218DF839
:1046700000106148817C8DF801104FF48040FDF7F7
:1046800041FB0120FCF708FD02224FF4804129E0A4
:1046900080B568460021018002224FF48041FDF779
:1046A000E2FB9DF80000AA2806D19DF8010003282E
:1046B00002DA51498874C87401BD80B500214E48A2
:1046C0000278ADF800108DF80120AA218DF80010B5
:1046D0004FF4A040FDF716FB0120FCF7DDFC0222A1
:1046E0004FF4A0416846FDF7A0FB01BD80B56846C8
:1046F0000021018002224FF4A041FDF7B4FB9DF898
:104700000000AA2803D19DF801003B49087001BDB3
:1047100080B5FFF7EBFFBDE80140B9E700000000FE
:104720003EB5684600210022002380E80E00324C8E
:10473000227C6188FCF74BFD054612224AA100F05D
:104740002CF82A4600F02DF85FF005024BA100F08E
:1047500024F8227CA1886846FCF739FD00F020F897
:104760005FF0050247A100F018F8627CA168684676
:10477000FCF72DFD00F014F85FF0050243A100F0F6
:104780000CF8627CE1686846FCF721FD00F008F84F
:10479000032216A100F001F837BD0220FCF736BB5A
:1047A000024669460220FCF731BB70B500240025A3
:1047B0000F4800EB05167278012A11D170680124A8
:1047C00030B1FDF709FC7168B268401A904207D316
:1047D00000207070FDF700FC7060E8B2F168884757
:1047E0006D1C082DE4DB204670BD00000D0A0000A2
:1047F0001801002000130020980100200000024052
:10480000D8160020DF160020C0160020CC11002092
:10481000241100205C1500206170705F656C656379
:10482000747269633A20504F574552204F464600F4
:104830006170705F656C6563747269633A20504F94
:10484000574552204F4E00006170705F656C656384
:10485000747269633A20504F57455220444953437C
:104860004F4E4E45435400006170705F656C656348
:10487000747269633A20563A2000000020413A20C1
:104880000000000020503A200000000020453A209F
:1048900000000000000000000000000010B5012131
:1048A00029482A4CFCF7CEFA00F028F80020A08016
:1048B000012010BD80B501462448828822484AB1B3
:1048C000038E934205D1002202860221FCF7BAFA38
:1048D00002E00286FCF7BEFA012002BD10B51B4CB7
:1048E0000121204600F0C0FF00F008F80020A08061
:1048F00001211548FCF7A6FA012010BDA288206806
:104900000021FCF77CBA70B5002400250E4800EBAE
:1049100005167278012A11D17068012430B1FDF7B3
:104920005BFB7168B268401A904207D30020707038
:10493000FDF752FB7060E8B2F16888476D1C032DEB
:10494000E4DB204670BD000010000020F8120020BB
:1049500080B501217048FCF775FA012002BD70B5E1
:1049600004466E4E4FF480413046FCF763FB401E18
:1049700080416B4DC00F28704FF400513046FCF75A
:1049800059FB012818BF002068700221624D28469B
:10499000FCF758FA21462846FCF75CFA012070BD66
:1049A00010B55F4C2078012806D1607801280BD122
:1049B00001210320A1710CE0002804BF60780128C8
:1049C00005D10220012104E008B9012000E0002007
:1049D0000146544A5170607121796079884205D04E
:1049E0000122A27003214C48FCF72CFAA1796079CE
:1049F0002071012908BF002807D1A0714A49887C8D
:104A000018B14A490878FCF7DBFF012010BD1CB53E
:104A100004464348017801291FBF41780129817864
:104A200001290AD100228270684600F00CF8014684
:104A30006846FBF783FF00F023F821463648FCF771
:104A400009FA012016BD1CB504460020ADF800008F
:104A50003121217002223248627004220178A17053
:104A600021464378E3706846FCF72AFBBDF8000056
:104A700020710620BDF80010090A617116BD000002
:104A800070B519222AA1264E0FF2C8042FA500F0F6
:104A90001EF83078012807BF052229460622214644
:104AA00000F015F85FF009022CA100F010F8707802
:104AB000012807BF052229460622214600F007F8F3
:104AC000BDE87040032213A10220FCF79FB9022029
:104AD000FCF79CB970B5002400250F4800EB0516C3
:104AE0007278012A11D17068012430B1FDF774FA8F
:104AF0007168B268401A904207D300207070FDF7C9
:104B00006BFA7060E8B2F16888476D1C042DE4DB35
:104B1000204670BD0D0A0000D800002000100240A1
:104B2000C8160020EC10002098010020121300206D
:104B30006170705F646F6F725F73656E736F723AEE
:104B400020446F6F72313A20000000004F50454EF4
:104B500000000000434C4F534500000020446F6F9D
:104B600072323A200000000070B50446DFF8C854E5
:104B7000DFF8C8641420A8600322307A401C307229
:104B800006F10C01DFF8B804FFF75FFA307A642809
:104B900004D101212846FCF755F903E021462846B7
:104BA000FCF758F9012070BD38B50446DFF88C5485
:104BB000DFF88C04032205F10C01FFF746FA58B91F
:104BC000A969E8684118A9612869E9694118E9619A
:104BD0006869296A41182962697ADFF85C04491C0E
:104BE0006972C9B2642905DB002169720221FCF7F0
:104BF00029F902E02146FCF72DF9012032BD000021
:104C000038B5DFF83844DFF83C24A069DFF82854D1
:104C10006421B0FBF1F1E06900EE101A6421B0FBF1
:104C2000F1F1206A84ED060A00EE901A6421B0FBCF
:104C3000F1F101EE101AC4ED070A84ED081A40F6EE
:104C4000E4401388434301EE903AF8EE611AB8EE5F
:104C5000411A81EE811A9FEDA72AF8EE600A81EED3
:104C6000021AB8EE400A60EE810A9FEDA33A20EEE8
:104C7000010ADFEDA12AC0EE830A9FEDA01A80EEA3
:104C8000220AC0EE811A9FED9E2A9FED9E1AF1EE38
:104C90000C2A01EE821A80EE220A71EE402ADFED24
:104CA0009A1A30EE410A62EEA11A30EE200A81EE25
:104CB000800ADFED960A30EE200A9FED951A9FEDEF
:104CC000BD2A00EE012ADFEDBC1A42EE001ADFED2C
:104CD000BB0A41EE800AB2EE040A20EE800ABDEE65
:104CE000C00A10EE100AA0F10A010020A180FF22E4
:104CF000A061E0612062A27105212846FCF7A2F8BC
:104D0000B4F9040000F5967040F22131884204D3D2
:104D100008212846FCF796F803E008212846FCF70E
:104D2000A3F8012032BD80B5C7488178B0F90000F2
:104D300000F09BF800F0B6F8012002BD80B568468F
:104D40000021016004224FF48051FDF78CF89DF89A
:104D50000000AA280AD19DF801209DF80210B7484A
:104D600041EA02219DF8032001808270012002BDEA
:104D700038B5B649B04C887C88B3B0488178B0F972
:104D80000420B0F90000B24D0B189A4217DB687985
:104D900028B90023012201210420FCF71FFDE87837
:104DA00028B90023012201210220FCF717FD072169
:104DB0002046FCF759F8A749012088700FE0411AF6
:104DC00091420CDB6879012805D1002301220021E2
:104DD0000420FCF703FD07212046FCF73BF800F018
:104DE00099F806212046FCF735F8012032BD80B540
:104DF00001219148FCF726F8012002BD80B59448B6
:104E0000C178012905D10023012200210220FCF7ED
:104E1000E5FC904800218170012002BD1CB50446CC
:104E2000684600F00AF801466846FBF787FD214610
:104E30008148FCF70FF8012016BD1CB50446002080
:104E4000ADF800003221217001226270A27021466B
:104E500003226846FCF734F9BDF80000E070052035
:104E6000BDF80010090A217116BD80B5002300931A
:104E7000FCF760F9714A8DF802001080AA21031234
:104E800090788DF803008DF800108DF801304FF404
:104E90008050FCF737FF04224FF480516846FCF73E
:104EA000C4FF01BD1FB50021ADF8001003218DF82E
:104EB000051015226148B0F90010C0788DF8042063
:104EC00001AC0A128DF80620E1708DF80800052269
:104ED00001A96846FCF7F4F8BDF80010BDF8000021
:104EE0006071090A8DF80A1001A80721FBF726FD59
:104EF0001FBD000000007A4400F07F4500EC7E46B4
:104F00000058C5456F12033B0000FA430000F0C291
:104F1000CF7389353EB505216846FCF7C5FE474C81
:104F2000A279B4F904106846FCF751F90546182235
:104F30004AA100F04AF82A4600F043F83CA500F0E8
:104F40004CF809224BA100F040F8E278B4F90010C7
:104F50006846FCF73CF900F033F800F03EF80A220E
:104F600047A100F032F8E278A1786846FCF72FF903
:104F700000F026F800F031F82EA400F029F8344DA6
:104F80006879012807BF10220FF2001111220FF2D9
:104F90000C1100F01AF8E878012807BF10220FF270
:104FA000101111220FF2181100F00FF800F010F894
:104FB00037BD00002CAC273A7E8C19403D4A77C3A0
:104FC000024669460220FBF721BF0220FBF71EBF05
:104FD000032221460220FBF719BF032229460220A3
:104FE000FBF714BF70B500240025134800EB05162D
:104FF0007278012A11D17068012430B1FCF7ECFFFE
:105000007168B268401A904207D300207070FCF7B4
:10501000E3FF7060E8B2F16888476D1C082DE4DD9D
:10502000204670BD02220C490548FFF70EB800006B
:10503000B04300000D0A0000CC1100205C120020DB
:10504000141500202A7AFF1FD01600209801002096
:10505000C0160020EC100020681200206170705F04
:1050600074656D70657261747572653A2054656D12
:10507000703A20002053657475703A2000000000DB
:10508000205468726573683A2000000052656C61B4
:105090007920486561743A204F4E200052656C615A
:1050A0007920486561743A204F4646200000000090
:1050B00052656C617920436F6F6C3A204F4E20002F
:1050C00052656C617920436F6F6C3A204F464620E1
:1050D0000000000080B502218648FBF7B3FE0120E6
:1050E00002BD80B501468448026E0368934238BF12
:1050F0000260426E4368934238BF4260826E8368AA
:10510000934238BF82600022026642668266103097
:10511000FBF7A0FE012002BD3EB5774D044628688E
:1051200010B1287B401C2873686800F03FF8A8681D
:1051300000F03CF8002028606860A860287B88B3F5
:10514000684600F082F801466846FBF7F7FB00F07E
:1051500097F8287B022823DB042105F11000FBF7D8
:1051600071FE287B03281BD1012301220121FCF7BA
:1051700035FBFCF731FF0146286F091A4EF6602215
:10518000914204D218B142F21070A86402E040F6D5
:10519000B831A964032100F054F8FCF71DFF28671B
:1051A0000020287300F04CF801203EBD3D2802D3BA
:1051B000287B401C2873704780B501230122002101
:1051C0000320FCF70BFB012002BD70B54A4D4B4E8E
:1051D0000446A86D962819D1707860B90121052080
:1051E000FCF740FB3178091F022998BFC82022D95B
:1051F0001E21A96520E00020414A70703070052012
:105200009179FCF72FFB0020A86517E0002105200D
:10521000FCF728FB9620A8653078401C3070C0B29F
:105220000A2809DB002030707078401C7070C0B212
:1052300010B94FF47A70A86500F002F8012070BD33
:10524000214605F11000FBF705BE1CB50446002001
:10525000ADF800003021217001222748627003223E
:10526000037BA37021466846FBF72AFFBDF80000C8
:10527000E0700520BDF80010090A217116BD00007C
:1052800080B51D48017B6846FBF760FF5FF01602A2
:105290001CA10220FBF7BAFD012269460220FBF7A0
:1052A000B5FD032212A10220FBF7B0FD01BD70B5D0
:1052B00000240025104800EB0516727C012A11D14C
:1052C0007069012430B1FCF787FE7169B269401A38
:1052D000904207D300207074FCF77EFE7061E8B244
:1052E000F16988476D1C052DE4DB204670BD000088
:1052F0000D0A00009012002080120020DC16002011
:10530000C01600206170705F7669625F73656E73AE
:105310006F723A204C6576656C20000070477047CC
:10532000704730B503464FF6FF7000240DE01A5D5C
:10533000504008224508C00752BF284685F4204047
:1053400080F00100521EF5D1641C8C42EFDB80B26C
:1053500030BD38B5044625680498297021684A7024
:105360001A0A2568AA70020A2168CB7006212368F0
:105370001A71256868712068FFF7D3FF216888716A
:10538000000A2268D0710820A080012032BD0000F0
:1053900010B500F039F90222A7A100F037F9DFF8C3
:1053A000784508212046FBF755FD01212046FBF7F3
:1053B0005BFD2046BDE810400221FBF755BD0C21E6
:1053C000DFF85405FBF73EBD70B500F065F907D274
:1053D00000F092F9C0B2FBF7F6FF0222BAA101E099
:1053E00000F056F93FE0F8B5026811780025303931
:1053F0000A2991A41AD286880021002301E0491CC1
:105400005B1CB34207DAD75C303F0A2FF7D3D018C2
:105410004078A0F13005C9B21046FBF7B4FCE9B200
:10542000C0B2FBF7E4FF0222B2A101E000F030F9C4
:1054300000F0ECF82146BDE8F8401AE01CB500F099
:1054400002F9DFF8D81489781DE070B500F024F96E
:1054500007D200F051F9C0B2FBF726FB02229AA155
:1054600001E000F015F90120FBF7D0FC2146BDE872
:10547000704002220120FBF7C9BC1CB500F0E3F824
:10548000DFF89814497800F018F804460C220FF25F
:10549000B0410120FBF7BAFC224669460120FBF728
:1054A000B5FC05220FF2A4410120FBF7AFFC03225B
:1054B00061A10120FBF7AAFC13BD00226846FBF79F
:1054C00086BE70B500F0E8F807D200F015F9C0B25A
:1054D000FBF752FB022287A101E000F0D9F8C2E7F6
:1054E00080B5DFF83C048288016800F08FF8BDE8E1
:1054F0000840032250A1BDE770B586B004460D46B2
:1055000016216846FCF7D0FBAA228DF80020142251
:10551000A088DFF80C648DF8010000210020B08025
:105520003068FBF76CFC0DE02068415D0DEB050277
:1055300091702068415D3268B08811546D1CB1884B
:10554000491CB180EDB2A0888542B8BF142DEBDBB9
:105550004FF40050FCF7D6FBA288921C92B24FF495
:1055600000516846FCF761FC00F04EF8022232A1BF
:1055700000F04CF806B070BD1CB500F064F8DFF820
:10558000A403C278B0F90010FFF798FF04460C227C
:105590000FF2C03100F03AF800F050F80322B1A148
:1055A00082E7F8B5026811782D2923A451A507D107
:1055B00030231370026800F017F880B2404204E014
:1055C00030390A2908D200F00FF8FF2100B2FFF7A6
:1055D0004CFC0222294601E000F05AF800F016F8CF
:1055E0002146BDE8F84044E786880021002301E019
:1055F000491C5B1CB34203DAD75C303F0A2FF7D358
:10560000C9B21046FBF7BFBB02223AA10120FBF74B
:10561000FDBB1CB500F017F8C248C2788178FFF7CF
:105620004DFF04460D220FF23831FFF7EFFF00F077
:1056300005F803228BA137E70D0A000022466946D0
:105640000120FBF7E3BB05216846FCF72DBB70B5D5
:1056500000F022F819D285880021002301E0491CBE
:105660005B1CAB4203DAD65C303E0A2EF7D3C9B2DC
:105670001046AC4DFBF787FBA870FF21B5F9000081
:10568000FFF7F3FB02221BA101E000F001F8EAE6BC
:1056900005220FF2A42170470268117830390A29D7
:1056A0009BA470471CB5FFF7CEFF9F4A1178684650
:1056B000FBF74CFD04460B220FF2B421FFF7A6FFC7
:1056C000FFF7BCFFF3E600004F4B000070B5FFF79B
:1056D000E3FF0CD200F010F800B2411EFF2906D201
:1056E000914A1070FEF7E9FF022202A101E0FFF7E4
:1056F000CFFFB8E64F4B000085880021002301E072
:10570000491C5B1CAB4203DAD65C303E0A2EF7D351
:10571000C9B21046FBF737BB0068405C303804D193
:10572000012301220021012004E0012804D10123EA
:1057300001220121FCF752B870470068405C303804
:1057400003D101230122002104E0012805D1012316
:10575000012201210520FCF741B8704710B500680F
:10576000724C405C303808BF032109D001280CD1AD
:105770006D49887C48B16E490878FCF721F902210F
:105780002046BDE81040FBF75DBB10BD1CB5FFF720
:105790005AFF67490978FFF790FE04465FF0100250
:1057A00076A176E670B5FFF777FF09D2FFF7A4FF81
:1057B0005F494978C0B2FBF7E9FF022255A101E039
:1057C000FFF766FF4FE600001CB5FFF73CFF5849A6
:1057D0004978FFF772FE04465FF011026BA158E6AC
:1057E00070B5FFF759FF09D2FFF786FFC1B25048E5
:1057F0000078FBF7CBFF022246A101E0FFF748FF4C
:1058000031E6464810B50179012941A407BF1022AD
:105810000FF28C110D220FF29811FFF7F7FE2146BF
:10582000BDE81040032225E610B500680078A0F11D
:1058300030010A2936A40DD23028384908BF00208B
:1058400002D0312801D101200871FBF77DF9022235
:1058500030A101E0FFF71CFFFFF7D8FE2146BDE8AD
:10586000104006E6B0430000FEB5054654A00C46C5
:10587000D0E90023CDE90023002007E0A2F1410395
:105880001A2B3CBF20320A54401C80B2A98888429F
:1058900005DA29680A5C3D2A18BF3F2AEED10027A5
:1058A000244A02EB0716294606F1080000F08CF89E
:1058B000010001D4706820B97F1C1A2FF0DB002092
:1058C000FEBDB08941180BE0BDF80400802806D267
:1058D000009B1A54BDF80400401CADF80400491C9C
:1058E00089B2AB8899420ADA2868425C0D2AEBD16A
:1058F0005B1E9942E8DA084440780A28E4D1641E25
:10590000012C03D872680021684690470120FEBD33
:105910000D0A00004F4B0000B0010020F4100020E1
:10592000081100205C1200209801002024110020A2
:1059300012130020005B00084552524F5200000035
:1059400054696D6520545356483A2000204D696EC5
:1059500000000000536574757054656D703A200046
:1059600054687265736854656D703A2000000000D9
:10597000536C6176652049443A20000054696D6596
:10598000205761726D2052756E3A200054696D6522
:10599000205761726D20576169743A200000000041
:1059A0005063426F78205573696E672043524300FD
:1059B0005063426F78204E4F204352430000000056
:1059C00014130020000000002DE9FE4F05464FF0A3
:1059D00000090E46ADF80490C846296808782128C9
:1059E00008BF4FF0010800272DE0002C0FFA8BFBB9
:1059F0003AD12968336811F80A20DB1913F80A1024
:105A00008A421ED1DA46A9888A4533DA2A6812F812
:105A10000A107C290AF1010BE7D1BDF9040010B985
:105A200001240AEB070901A800900FFA89F3324616
:105A300029460FFA8BF000F032F8C1B20129D4D117
:105A40001BE07F1C3FB2B088874219DA29683068B2
:105A500011F80820C35D9A42F3D10024012008F117
:105A6000010AADF80440CEE7BDF904108A45C9DA51
:105A70008A46C8E7C0B20128E3D14146384602E071
:105A800041464FF0FF3000F002F8BDE8FE8F29B12B
:105A9000002802D44FF0FF307047002070472DE9F6
:105AA000F84604460D46089801214FF0000C4FF0CF
:105AB000FF3914E097880CEB030A574502DA791C8A
:105AC0000180494616F80CE01668F61816F80C70B6
:105AD000BE450CF1010618BF49460FFA86FCAE8898
