:020000040800F2
:10000000F80C0020C12A000895290008972900084B
:10001000992900089B2900089D290008000000007C
:100020000000000000000000000000009F29000800
:10003000A129000800000000A3290008A529000844
:10004000E52A0008E92A0008ED2A0008F12A00083C
:10005000F52A0008F92A0008FD2A0008012B0008EB
:10006000052B0008092B00080D2B0008112B000898
:10007000152B0008192B00081D2B0008212B000848
:10008000252B0008292B0008A92900082D2B000882
:10009000312B0008352B0008392B00083D2B0008B8
:1000A000412B0008452B0008492B00084D2B000868
:1000B000512B0008552B0008592B00085D2B000818
:1000C000612B0008652B0008692B00086D2B0008C8
:1000D000712B0008752B0008792B0008AF29000848
:1000E0007D2B0008812B0008852B0008892B000838
:1000F0008D2B0008912B0008952B0008992B0008E8
:100100009D2B0008A12B0008A52B0008A92B000897
:10011000B5290008AD2B0008B12B0008B52B00084D
:10012000BB290008B92B0008BD2B0008C12B000813
:10013000C52B00080000000000000000C92B0008CB
:10014000CD2B0008D12B0008D52B0008D92B000897
:10015000DD2B0008E12B0008E52B0008C129000871
:10016000E92B0008ED2B0008F12B0008F52B000807
:10017000F92B0008FD2B0008000000000000000023
:10018000012C0008052C000870B5044600250CB9A8
:10019000012070BD04F13006306920B9204600F01E
:1001A00023FB756135733069C10600F192803069B7
:1001B000DFF8E01420F4885040F002003061086855
:1001C00020F4403008600A68606802430A602068D2
:1001D000416821F48071416020684168226941EAE8
:1001E000022141602068416821F04071416021682E
:1001F0004A68A06802434A602068816821F400616F
:10020000816021688A68E06802438A602068A16A88
:10021000DFF884249142816821F0706181600CD004
:1002200021688A68A06A02438A6000F05BF821684E
:100230008A68E06A02438A6001E000F053F82068AF
:10024000816821F0020100F049F8227E41EA420172
:10025000816094F820002168002848680FD040F49D
:10026000006048602068416821F460414160206876
:100270004168626A521E41EA4231416002E020F464
:10028000006048602068C16A21F47001C162206882
:10029000C16AE269521E41EA0251C1622068816866
:1002A00021F4007100F01AF8327841EA422100F09E
:1002B00015F821F4806100F011F8626941EA8221A9
:1002C00081607561316921F0020141F00101316104
:1002D00000E0012500203073284670BD8160206851
:1002E000816870472068816821F0405181607047C3
:1002F000126802F01F02102A7047016841F0804125
:1003000001607047816841F080418160704770B53D
:10031000044621680D684E68A80729D5B20627D57E
:10032000206CC20603D4206C40F4007020648868FE
:1003300010F0405F04BF207E002812D1C86A10F47C
:10034000700F02D0886842050BD4486820F0200066
:100350004860206C20F480702064206CC10400F0A0
:1003600060F8204600F0A2FA21686FF012000860E1
:10037000680731D531062FD5206CC10603D4206C17
:1003800040F4005020642168886810F4401F1CD19C
:10039000886B10F4401F02D08868420515D4486865
:1003A000420512D4886810F0405F04BF207E002808
:1003B0000BD1486820F080004860206C20F4805009
:1003C0002064206CC10500F02CF8204600F070FA83
:1003D00021686FF00C000860E80710D571060ED593
:1003E00020680268D1070AD5206C40F48030206470
:1003F000204600F05EFA21686FF001000860A80650
:100400000ED571010CD5606C40F0020060646FF095
:10041000200520680560204600F04CFA21680D6038
:1004200070BD03D4206C40F0010020647047F8B523
:100430000446002004F13C0300901D78012D01D1F9
:100440000220F2BD0120187020688568EE070DD4E7
:100450008568974E45F00105856096480568B5FBAF
:10046000F6F606EB4606009600F00BF92068856864
:10047000EE0503D5856825F4807585602568A86834
:10048000C60762D55F688848074047F480775F6099
:100490006868450505D5586820F4005040F4805040
:1004A00058605868C50446BF986820F006000020D0
:1004B000986000251D70A36B0FF2FD10D863A36B2D
:1004C0000FF25D201864A36B0FF25D20D8646FF00B
:1004D0002200256828602068436843F080634360F9
:1004E00013462068856845F4807585600A46206853
:1004F00000F14C01A06B00F056FA2068654A6B4988
:10050000136813F01F0F16D188420DD0634988423B
:1005100004D1126812F01F0F1FD105E06049884214
:100520001BD1FFF7E5FE18D2816811F0405F14D1AE
:10053000FFF7E8FE11E0884202BF5A48016811F057
:10054000405F0AD1FFF7D9FE07E0586840F010007D
:100550005860986840F0010098600020F2BD78B5BE
:1005600002460020009092F83C30012B01D102207D
:1005700072BD012082F83C0007240B6810680A2B2A
:1005800011D30A3BC56803EB430300F076F8C4605F
:10059000C3680D688C68A5F10A0606EB4606B440F0
:1005A0002343C3600FE0056903EB430304FA03F33D
:1005B00025EA0303036103690D688C6805EB4505B3
:1005C000AC40234303611F244B68072B0CD25B1EF6
:1005D000456B00F050F84463436B4D680C886E1E09
:1005E00000F044F843631BE00D2B0CD2DB1F056BBE
:1005F00000F041F80463036B4D680C88EE1F00F0B7
:1006000035F803630CE00D3BC56A00F034F8C462B2
:10061000C36A4D680C88A5F10D0600F027F8C36287
:10062000224B98421DD10C681A48122C03D1036842
:1006300043F4800303600B68102B18BF112B10D1FB
:10064000036843F4000303600868102809D11949BE
:10065000174C0B68B3FBF4F40A204443009400F0F9
:1006600010F8002182F83C10002072BD06EB8606CF
:10067000B4402343704703EB83039C4025EA040402
:10068000704702E00098401E009000980028F9D1C1
:1006900070470000042301400100000F00210140C9
:1006A0000022014008200140FEF9FFFF0020014028
:1006B00040420F000C000020816B0A6C12F0500FBA
:1006C00024D1086C40F4007008640A68906810F047
:1006D000405F04BF087E002815D1D06A10F4700F67
:1006E00002D0906843050ED4506820F0200050607E
:1006F000086C20F480700864086CC20403D4086C91
:1007000040F001000864084600F0D0B80A6CD30637
:1007100044BF084600F0CEB8896BCA6C1047000091
:10072000806B00F0C7BA0000806B40210164426C0E
:1007300042F00402426400F0BDB830B4002513E07A
:1007400050F8042BD30744BFA9F101039A18091FDD
:10075000042942F8045BFAD213468C0744BF158083
:100760009B1CC90748BF1D7050F8041B0029E7D126
:1007700030BC70471FB510220021684600F09BFA7C
:10078000434C444820604FF4803101202061002216
:100790004148A06261600220E061A26001206061C6
:1007A000227684F82020E262E26084F8302020463D
:1007B000FFF7EAFC08B100F0F3FA092001210090EC
:1007C00001910722029269462046FFF7C8FE08B150
:1007D00000F0E6FA0220019069462046FFF7BFFECE
:1007E00008B100F0DDFA1FBD38B586B0044614220A
:1007F000002101A800F05FFA21682648814244D117
:1008000000222648264D0092416941F480714161E1
:10081000416901F4807100910099009203210368FD
:1008200043F002030360006800F0020000900098AB
:10083000019102910021039101A91A4800F0B2FA36
:100840001948286000216960E9604FF400604FF4A6
:100850008061686129614FF4807000224FF400517B
:10086000E861AA60A9612A626A62284600F024F859
:1008700008B100F095FAA563AC63002200211220B4
:1008800000F0AAFB122000F0C4FB07B030BD00004E
:10089000B4070020002001400100000F3038024062
:1008A000540700200004024010640240704700001A
:1008B000704770477047000070B5044600F0D4FBE5
:1008C00006460CB9012070BD04F1340502206870A1
:1008D00000212970206802685208520002602268D4
:1008E0001068C1070AD500F0BFFB801B0628F6D3AD
:1008F0002020286203216970032070BD1368DFF88F
:100900002C0361680340A0680B43E168034320693E
:100910000B4361690343A0690B43E1690343206A08
:100920000B43616A0343042903D1E16A206B01434D
:100930000B43136023685A69606AD208042840EAAE
:10094000C2020AD1A66AE16A324331B1A06988B90C
:10095000002E18BF022E1FD016D35A61204600F079
:1009600091F9A96A3F228A40826000202862012111
:10097000697070BDB0F5005F0AD1032EEDD8DFE8D5
:1009800006F00D0B0D03E8E7B1F1C07FE5D105E0FE
:10099000022E03D9F61EE0D1C801DED5402129621E
:1009A0000120687070BDF8B5044604F134060025D6
:1009B0003078776A012801D10220F2BD0120307021
:1009C000707801281CD1022070703562204600F03A
:1009D00049F9B06A3F2101FA00F0B8602068016867
:1009E00041F016010160F06820B12068016841F013
:1009F000080101602068016841F00101016001E027
:100A0000357002252846F2BDF8B5044604F13405D8
:100A10006E6A00F029FB07466878022805D080211D
:100A20002962002028700120F2BD2068016821F0B1
:100A30001601016000F003F9E868002804BF686946
:100A4000002801D000F007F900F0FFF820680168E5
:100A5000CA070CD500F008FBC01B0628F6D32020DF
:100A6000286203216970002028700320F2BDA86A63
:100A70003F218140B1600020012169702870F2BDE2
:100A800090F83510022903D080224265012070477A
:100A9000052180F835100068026852085200026093
:100AA000002070472DE9FC41044604F13406002083
:100AB0005F4900904FF41650776A0A683D68B2FBB0
:100AC000F0F8B06A082100F0B6F80ED0206802688D
:100AD00053070AD5026822F004020260B06A81401E
:100AE000B960316A41F001013162B06A25FA00F162
:100AF000CA070BD521684A69110607D5012202FAF7
:100B000000F0B860306A40F002003062042100F06A
:100B100091F808D021680A68930704D5B860306A54
:100B200040F004003062102100F084F81BD02168EE
:100B30000A68130717D5B860206801684A0307D50B
:100B4000006801030BD5716969B1204688470AE046
:100B50000168CA0503D4016821F008010160F16849
:100B600009B120468847B06A202100F064F83FD0E0
:100B700021680A68D3063BD5B860206871780529DA
:100B80001CD1026822F01602026000F058F8F068EA
:100B9000002804BF7069002801D000F05CF83F22F3
:100BA000B06A8240BA60012171700020F169307032
:100BB000002939D02046BDE8FC41084701684A03B6
:100BC00007D5006801030FD4316989B120468847F1
:100BD0000EE00168CA0507D4016821F01001016028
:100BE0000120707000213170B16809B1204688473A
:100BF000306AC8B1306AC10710D50520707000F0A6
:100C000024F80098401C8045009003D320680168B8
:100C1000CA07F6D40120707000213170B16919B192
:100C20002046BDE8FC410847BDE8F3813F8010F055
:100C30000C000020B06A01FA00F0054270472068FD
:100C4000416921F0800141617047206801684908CD
:100C50004900016070472068016821F008010160C7
:100C60007047000030B50468256825F480252560AC
:100C700063608068402802D1A260E16030BDA1605D
:100C8000E26030BD30B5016808A401F0FF02103AFF
:100C90001823B2FBF3F2890A8902A55CC565042A10
:100CA00028BF091D8165084630BD000000061016EA
:100CB00000061016704710B5044610460A46014655
:100CC000204600F0D7F9204610BD000080B500F0A6
:100CD000DBF900F00FF800F0F1F900F0BBFAFFF7D4
:100CE00049FD00F0D9FA00F0F1FA00F0CDFA00F079
:100CF0009BFBFEE780B592B03022002106A8FFF7EB
:100D0000DAFF1422002101A8FFF7D5FF0020009090
:100D10002148016841F0805101600021006800F025
:100D20008050009000981D4800910221026842F412
:100D3000804202600122006800F480400090009828
:100D40000691099210210A91022200210C920D9124
:100D500010224FF4A8710E920F91022204211092DA
:100D6000119106A800F092FB08B172B6FEE70221CD
:100D70000291002203920F204FF4A05101900491A0
:100D80004FF480520592052101A800F00DFD08B135
:100D900072B6FEE713B000BD40380240007000405C
:100DA00072B6FEE72DE9F84F0D4600267249734AE8
:100DB0000F23044601202F68B04000EA0708804551
:100DC00040F0CA804FEA460C032707FA0CF76FEA97
:100DD000070E6F6807F00309B9F1010F1CBF07F098
:100DE0000307022F12D1A768D5F80C900EEA070767
:100DF00009FA0CF949EA0707A760676827EA0000C3
:100E00006F68C7F30017B74038436060B0002F79B0
:100E100007F00307032F21D0E768D5F808900EEA02
:100E2000070709FA0CF949EA0707E7602F7907F085
:100E30000307022F12D1F70804EB870700F01C0903
:100E4000D7F820A003FA09FB2AEA0B0AD5F810B05C
:100E50000BFA09F949EA0A09C7F8209027680EEA4F
:100E6000070E2F7907F0030707FA0CF747EA0E077A
:100E700027606F6817F4403F6ED0002700974FEA55
:100E8000960C176847F48047176000F00C0017684D
:100E900007F48047009703FA00FE009F384F57F889
:100EA0002C7027EA0E0E374FBC4208BF002722D015
:100EB000354FBC4208BF01271DD0344FBC4208BF8C
:100EC000022718D0324FBC4208BF032713D0314F3E
:100ED000BC4208BF04270ED02F4FBC4208BF0527D5
:100EE00009D02E4FBC4208BF062704D02C4FBC426D
:100EF0000CBF0727082707FA00F0214F40EA0E0031
:100F000047F82C006FEA08008F6800EA070C6F684A
:100F1000FF0248BF48EA0C0CC1F808C0CF6800EADD
:100F2000070C6F68BF0248BF48EA0C0CC1F80CC040
:100F30004F6800EA070C6F68BF0348BF48EA0C0C13
:100F4000C1F804C00F6800EA070C6868C00348BF16
:100F500048EA0C0CC1F800C0761C0F2E7FF62AAFB1
:100F6000BDE8F18F0069084018BF0120C0B270478A
:100F700002B9090481617047003C014044380240D5
:100F8000083801400000024000040240000802400E
:100F9000000C024000100240001402400018024001
:100FA000001C02400901020002D429488154704704
:100FB000284B02F00F021A4402F8041C7047264B1B
:100FC00019684FF6FF020002114000F4E060084388
:100FD000224908431860704770B51F4B1C68C4F362
:100FE00002230124C3F10705052D2EBF0F2504FAA6
:100FF00005F56D1E1E1D072E34BF0023DB1E294084
:10100000994004FA03F3BDE870405B1E1A40114397
:10101000C8E7010007D4012200F01F01104B8A40ED
:10102000400943F82020704710B5401EB0F1807F82
:1010300001D3012010BD0B4C60600F214FF0FF3039
:10104000FFF7B0FF0021A16007202060002010BD45
:1010500000E400E018ED00E00CED00E00000FA050F
:1010600000E100E010E000E001484068704700BF88
:10107000000000204018491C1CBFB1F1010100F81C
:10108000012DF9D17047000080B50B48016841F48B
:1010900000710160026842F480620260016841F4FC
:1010A000807101600320FFF78AFF0F2000F052FCDF
:1010B00000F070FC002002BD003C02402DE9F0472A
:1010C00086B0142200216846FFF7F5FD0021534841
:1010D000534C544EDFF850A1DFF85081DFF85091A7
:1010E000059140F2EF37026842F0100202600022E0
:1010F000016801F01001059148F24005059905923B
:10110000036843F004030360016801F004010591E2
:1011100005990592036843F001030360016801F03B
:101120000101059105990592036843F002030360EC
:10113000016801F00201059105990592394603689D
:1011400043F008030360006800F00800059005986C
:101150002046FFF70DFF002229463046FFF708FF23
:1011600000224FF4E8515046FFF702FF0022FF2112
:101170004046FFF7FDFE00224FF47E714846FFF720
:10118000F7FE0097012101910222002103910292B2
:1011900069462046FFF706FE43F2100000F053F8C0
:1011A0002046FFF7FFFD40F2022000F04CF85046C9
:1011B000FFF7F8FD01200021019002220391029225
:1011C000009569463046FFF7EDFD4FF48040002161
:1011D00000900191029120466946FFF7E3FD4FF42C
:1011E000E85100F027F85046FFF7DCFD4FF440606F
:1011F00000F029F83046FFF7D5FDFF2100F01AF87E
:101200004046FFF7CFFD4FF47E7100F013F84846DB
:10121000FFF7C8FD06B0BDE8F08700003038024097
:10122000001002400000024000080240000C024092
:101230000004024000910122019202210291002249
:1012400003926946704700210090019102220292A8
:101250006946704780B50020009000220948016867
:1012600041F4800101600021006800F480000090DA
:1012700000983820FFF7B0FEBDE802403820FFF7A5
:10128000C8BE00BF3038024080B55D485D4900F0FF
:101290000BF800B116E001BD80B55B485B4900F07A
:1012A00003F800B10EE001BD01604FF4E13200230C
:1012B0000C2142608360C360036141618361C3614B
:1012C00000F084BBBDE80140FFF76ABD80B550481F
:1012D0005049FFF7E9FF00B1F4E701BD10B586B052
:1012E0000446142200216846FFF7E5FC2168454AC0
:1012F0004948914221D100210591026942F400221E
:1013000002610022016901F400210591059905920D
:101310000321036843F0010303600222006800F028
:101320000100059005983D4800F05EF8002200217C
:101330003420FFF751FE342052E0344A91422BD141
:1013400000210591026942F48022026100220169B4
:1013500001F480210591059905924FF440610368DD
:1013600043F0020303600222006800F002000590CF
:1013700005982B4800910192002102910322072138
:10138000049103926946FFF70DFD002200212720FA
:10139000FFF722FE272023E01E4A914222D100219E
:1013A0000591426942F0200242610022416901F048
:1013B0002001059105990592C021036843F00403BB
:1013C00003600222006800F00400059005981548AB
:1013D00000F00AF8002200214720FFF7FDFD47201A
:1013E000FFF717FE06B010BD009101920021029197
:1013F00003220821049103926946FFF7D3BC000041
:10140000FC070020004C004040080020004800403D
:1014100084080020001401403038024000000240DF
:10142000000402400008024010B500F0A1FD00F0E9
:1014300030FE114C00F0D7FE00F024F800F078FFE9
:1014400000F01CF800F0CCFF00F01CF801F000F8F0
:1014500000F014F801F04CF800F014F801F0CFF8A7
:1014600000F00CF800F0F7FD00F00CF801F064F962
:1014700000F004F8DEE70000F408002022781043B2
:101480002070704721780843207070472DE9F84399
:10149000040016D02078DFF80063C10713D5B068C8
:1014A00000F00C00042807D0B06800F00C000828F9
:1014B0003DD1706841023AD53068810303D5606838
:1014C000002800F063812078B44F810719D5B068F7
:1014D00010F00C0F07D0B06800F00C0008285BD1AA
:1014E0007068410258D43068810703D5E06801284C
:1014F00040F04C813168206921F0F80141EAC001D7
:1015000031602178080779D56069A549002868D03D
:1015100001220A60FFF7A8FD0546706F81076DD4B0
:10152000FFF7A2FD401B0228F7D9032031E16068D4
:10153000B0F5803F04D1306840F48030306011E075
:10154000B0F5A02F306806D140F4802030603168BB
:1015500041F4803105E020F480303060316821F4BE
:1015600080213160606858B1FFF77EFD0546306824
:101570008103A8D4FFF778FD401B6528F7D3D4E793
:10158000FFF772FD0546306881039CD5FFF76CFDBF
:10159000401B6528F7D3C8E7E068A8B1012139608E
:1015A000FFF762FD05463068810705D4FFF75CFD53
:1015B000401B0228F7D9B8E73068216920F0F8000D
:1015C00040EAC10030609CE73860FFF74DFD0546FA
:1015D0003168880795D5FFF747FD401B0228F7D9EA
:1015E000A3E70860FFF740FD0546706F810705D54A
:1015F000FFF73AFD401B0228F7D996E7207841070C
:101600005FD5306C0025C1000AD400950125316CEE
:1016100041F080513164306C00F0805000900098AF
:10162000DFF88081D8F80000C10513D4D8F8000095
:1016300040F48070C8F80000FFF716FD8146D8F826
:101640000000C10506D4FFF70FFDA0EB090002283A
:10165000F5D96AE7A068012805D00528306F06D1C2
:1016600040F004003067306F40F0010005E04008B2
:1016700040003067306F20F00400306741F2893855
:10168000A06860B1FFF7F0FC8146306F810713D48A
:10169000FFF7EAFCA0EB09004045F6D345E7FFF76A
:1016A000E3FC8146306F810706D5FFF7DDFCA0EB38
:1016B00009004045F6D338E71DB1306C20F080506A
:1016C0003064A069002863D0B16801F00C010829DA
:1016D0003AD002282AD100203866FFF7C5FC05461B
:1016E0003068810105D5FFF7BFFC401B0228F7D900
:1016F0001BE7E069216A626A0843A16A490840EA77
:101700008210491E40EA0140E16A40EA01607060CF
:1017100001203866FFF7A8FC04463068810137D401
:10172000FFF7A2FC001B0228F7D9FEE6002038666E
:10173000FFF79AFC04463068810129D5FFF794FC35
:10174000001B0228F7D9F0E601281FD07068E26973
:1017500000F48001914202BF00F03F01226A9142F1
:1017600001BF47F6C0710140626AB1EB821F0DD123
:10177000A26A520800F44031521EB1EB024F02BF80
:1017800000F07060E16AB0EB016F01D0012000E071
:101790000020BDE8F28300BF00380240000047424D
:1017A000800E4742007000402DE9F04104000F46D2
:1017B00054D0494E306800F00700B84202D200F021
:1017C00073F84BD12068454D810712D5400703D5EA
:1017D000A96841F4E051A9602078010703D5A86801
:1017E00040F46040A860A968A06821F0F0010143BE
:1017F000A9602178C80729D56068012802D1296825
:101800008A0305E0022818BF032803D129688A014A
:1018100003D423E029688A0720D5A968890840EA0B
:101820008100A860FFF720FC8046A868616800F08E
:101830000C00B0EB810F09D0FFF716FCA0EB0800FD
:1018400041F289318842F0D303202BE0306800F068
:101850000700874204D200F027F801D0012021E0E0
:101860002078410705D5AA68E06822F4E0520243D7
:10187000AA602178080706D5A968206921F460418B
:1018800041EAC001A96000F035F8AA681449154B77
:10189000C2F30312895CC84018601348006800F066
:1018A00059F80020BDE8F0813770316801F0070178
:1018B000B94270470B480D4A006813680C49C3F3DE
:1018C000822206E00748094A006813680849C3F302
:1018D0004232895CC8407047003C024000380240F8
:1018E000682A00080C000020080000200838024088
:1018F000DC2A000830B5144C606800F00C000428A5
:1019000002D0082802D01DE0104830BD22682068AF
:101910000023410202F03F0204D525680B49C5F3BC
:10192000881003E020680A49C0F38810A1FB000179
:1019300000F028FF2168C1F30141491C4900B0FBB8
:10194000F1F030BD024830BD0438024040787D01DE
:101950000024F40038B50D4D0D4B2A7804464FF4A1
:101960007A711868B1FBF2F2B0FBF2F0FFF75CFBA2
:1019700050B9102C08D2002221464FF0FF30FFF75B
:101980002BFBAC60002032BD012032BD00000020E6
:101990000C00002081B00020009000220A4841681D
:1019A00041F480414160416801F480410091009917
:1019B0000092036843F080530360006800F0805099
:1019C0000090009801B070474038024038B50400DC
:1019D00001D1012032BD00F017F808B900F018F865
:1019E00000F01BF800F023F8FFE7416100F001F878
:1019F00032BD2068C16841F40051C16000206860B8
:101A000020216970A970704704F13C05687870471F
:101A1000002129702046FFF761BC242068702068EF
:101A2000C16821F40051C160204600F03DBA206831
:101A3000016921F4904101612068416921F02A0186
:101A4000704738B500F130039C7B202C0FD109B1D1
:101A5000140001D1012032BD1C7B012C07D00124D0
:101A60001C7300251D60BDE8384000F05FB90220FE
:101A700032BD216801F1140252E8001F206800F114
:101A8000140321F0400143E80010002870477CB5A2
:101A9000044621680B68CD684A6913F00F0007D12E
:101AA000980661D5AA065FD52046BDE8764091E14B
:101AB000D00702D415F4907F56D0D80705D5E90594
:101AC00003D5206C40F001002064580705D5D107EC
:101AD00003D5206C40F002002064980705D5D1079B
:101AE00003D5206C40F004002064180707D5A90630
:101AF00001D4D00703D5216C41F008012164206C8A
:101B0000002830D0980604D5A90644BF204600F02E
:101B100061F920684069216C0A0701D440061DD58F
:101B2000204600F02CF920684169480611D5FFF7DE
:101B3000A0FFFCD1A06B60B10FF28D210165A06BFD
:101B4000FEF79EFF00280ED0A06B016DBDE87C4023
:101B500008472046BDE8764000F097BE204600F0DA
:101B600094FE0020206473BD206B012804F13D0227
:101B700040F08680D80600D5EE0640F18180002333
:101B800000930D6800954B680093009849694806DA
:101B90003FD5A16B0868406880B20028E3D0A38DD0
:101BA0009842E0DAE085C869B0F5807F2DD02168E1
:101BB00001F10C0050E8001F236803F10C0521F42B
:101BC000807145E800100028F1D100F09BF8490829
:101BD00000F11405490045E800100028F5D100F097
:101BE00091F800F1140521F0400145E800100028AB
:101BF000F5D1202050700021216300F089F800F019
:101C00008FF8FAD1A06BFEF7FFFEA18DE08D091AC7
:101C100030E0A08DE18D411AE08D00281CBF88B214
:101C2000002868D0206800F10C0353E8003F00F161
:101C30000C0623F4907346E800300028F2D12068A7
:101C400000F05AF800F114065B0046E80030002866
:101C5000F5D12020507000222263206800F10C0290
:101C600052E8002F00F10C0522F0100245E8002098
:101C70000028F2D12046BDE87C4089B200F006BEC3
:101C8000180629D52E0627D51078212833D1A0682B
:101C9000B0F5805F04BF2069002808D1206A02885F
:101CA000C2F308024A60206A811C216204E0206AB3
:101CB000421C226200784860E08C401EE08480B2C2
:101CC000C8B92068C16821F08001C1602068C1687E
:101CD00041F04001C16073BD58060CD56B060AD5B2
:101CE000C86820F04000C860202111702046BDE87F
:101CF000764000F0CCBD73BD00F1140353E8003F03
:101D00005B087047206800F1140151E8001F70471C
:101D1000206800F10C0151E8001F00F10C0370472E
:101D200021F0100143E8001000287047816282858D
:101D3000C28500F13C0100224A6022238B700A70A8
:101D4000016921B10168CA6842F48072CA60016801
:101D50004A6942F001024A610068C16841F020010D
:101D6000C1600020704744E80021002970470168E5
:101D700001F10C0252E8002F01F10C04704710B57C
:101D8000FFF7F5FF22F49072FFF7EDFFF8D100F0B6
:101D90000BF8016B012901D100F071F8202180F8C6
:101DA0003E100022026310BD016801F1140252E8E6
:101DB000002F520801F11404520044E800210029C8
:101DC000F2D1704700000000806B0021C185C18402
:101DD00000F05BBD1CB590F83E1022294DD1816802
:101DE000826AB1F5805F0AD1016969B903685968EF
:101DF000C1F308011180826A911C81620FE0002901
:101E000004BF0169002902D10368596803E0016831
:101E1000496801F07F011170816A4A1C8262C18D9C
:101E2000491EC18589B231BB0168CA6822F020020F
:101E3000CA600168CA6822F48072CA6001684A698F
:101E4000520852004A6100F029F812D100210163C2
:101E500000F015F802681168CB0606D5002400943E
:101E600013680093526800920099818D00F00EFD76
:101E700001E000F090F8002016BD022016BD0268B7
:101E800002F10C0151E8002F036803F10C0422F069
:101E9000100244E800210029F1D17047202180F888
:101EA0003E10026B012A704770B504462268116922
:101EB000E06821F4405101431161D3682648A168CC
:101EC000034020690B4361690343E0690B4303430B
:101ED000D3605169A06921F44071014351611F49E8
:101EE0008A421CBF1E48824202D1FFF7EBFC01E090
:101EF000FFF7E0FC62682568E46964261921B4F5FF
:101F0000004FA1FB000112D1D30F520000F03AFCA8
:101F100000F028F8F60032366420B6FBF0F04200FC
:101F200002F4F87202EB011200F0070010E0930FC8
:101F3000920000F027FC00F015F8360132366420DC
:101F4000B6FBF0F000F0F00202EB011200F00F001F
:101F50008018A86070BD0000F369FFFF0010014009
:101F6000001401406421B0FBF1F106FB110670473B
:101F700010B52C4C2C4801222146FFF762FD0122AE
:101F8000611C2A48FFF75DFDA11CBDE8104001223D
:101F90002748FFF756BD70B50546234E28683168BF
:101FA000204C88420FD1E068218A22784254214691
:101FB000208A401C82B2632A28BF0020208201228E
:101FC0003046FFF73EFD2B683068834211D16068D0
:101FD00022896178815440F2AF422089401C81B24D
:101FE000914228BF002020810122611C3046FFF76A
:101FF00028FD0F4829680268914210D16269238B3D
:10200000A178D154218B491C8AB2632A28BF0021B0
:1020100021830122A11CBDE87040FFF712BD70BDF5
:1020200000000000C00100208408002040080020BB
:10203000FC07002038B50446184D1948022205F166
:102040002001FEF7F4F92146284600F029FC012082
:1020500032BD0220704738B50024104800EB04154B
:102060006A78012A10D1686830B1FEF7FDFF69680F
:10207000AA68401A904207D300206870FEF7F4FF68
:102080006860E0B2E9688847641C012CE5DD002047
:1020900032BD022203490248FEF7C9B96C01002093
:1020A000B40700208C01002080B501465D4882887D
:1020B0005D48038C934205D100220284012100F087
:1020C000E7FB02E0028400F0EBFB012002BD7CB5DF
:1020D000544DA888296800240A18ADF8004012F869
:1020E000023D5678821E46EA032692B2684600F008
:1020F000E8FBBDF80000AA88B0421ED02868002185
:1021000000F0D8FB0020A880012076BD035D022BE3
:10211000344612D1A31C99420FDB015D0829BEBFD2
:10212000011949780B2908DA404901230B70A41CD6
:1021300086784E70C0788870A4B2911EA01C884228
:10214000DCDA2868035D641CA4B2661C202BB6B2DE
:10215000DCD0F2D3222B16D005D3242B29D01DD3CB
:10216000252B31D0E9E700F03AF8E6D1631C99421B
:10217000E3DB015D0229E0DA2D4901230B70005DEC
:102180004880641CD8E700F02AF8D6D1631C994235
:10219000D3DB015D0229D0DA2649EEE700F01FF813
:1021A000CBD1631C9942C8DB015D0229C5DA224903
:1021B000E3E700F014F8C0D1631C9942BDDB015D78
:1021C0000229BADA1D49D8E700F009F8B5D1631C35
:1021D0009942B2DB015D0229AFDA1949CDE7035D0F
:1021E000012B3446704738B500240F4800EB041526
:1021F0006A78012A10D1686830B1FEF735FF696846
:10220000AA68401A904207D300206870FEF72CFF9E
:102210006860E0B2E9688847641C012CE5DD0020B5
:1022200032BD0000CC010020D800002010000020AA
:10223000E0080020E4080020E8080020EC08002066
:10224000F008002070B5494D0446287801281ED1B9
:1022500095F8010049A30021297003EB400605EB26
:10226000800336F8021C186A0122FEF781FE012065
:1022700000F03EFB95F8020044A101EB400305EBA2
:10228000800033F8021CC06B0122FEF771FE21466C
:10229000281D2AE070B50446354D4FF400612846EC
:1022A000FEF760FE334EB17888420DD17178491C3B
:1022B000CAB20A2A09DBF2780A21904202D03378A6
:1022C0005B1C3370F07000E00021717028464FF401
:1022D0000061FEF747FEB0703078022803D100217C
:1022E000317000F007F82146234800F0D9FA0120A8
:1022F00070BD000070B50024DFF870501FA605EB1C
:10230000840336F81410586A0022FEF731FE641C6C
:102310000A2CF4DB1DA6002405EB840036F814100B
:10232000006C0022FEF724FE641C072CF4DB70BD59
:1023300038B500240D4800EB04156A79012A10D144
:10234000A86830B1FEF790FEA968EA68401A90428A
:1023500007D300206871FEF787FEA860E0B2296904
:102360008847641C012CE5DD002032BD10000020F0
:1023700000000240D50800201400002004000200E4
:102380000100001000080004008000000800100098
:102390002000400080000800100020004000800065
:1023A00010B504464FF480411C48FEF7DBFD00F0F9
:1023B00012F8087009E010B504464FF400511748B0
:1023C000FEF7D0FD00F007F848702146144800F0F1
:1023D00067FA012010BD401E80411249C00F7047AE
:1023E00038B500240E4800EB04156A78012A10D194
:1023F000686830B1FEF738FE6968AA68401A9042F2
:1024000007D300206870FEF72FFE6860E0B2E9682D
:102410008847641C012CE5DD002032BD001002401D
:1024200078000020DE08002010B504464FF48061DB
:102430001748FEF797FD401E80411649C00F0870EF
:102440002146154800F02CFA012010BD01207047EC
:1024500038B50024104800EB04156A78012A10D121
:10246000686830B1FEF700FE6968AA68401A9042B9
:1024700007D300206870FEF7F7FD6860E0B2E968F6
:102480008847641C012CE5DD002032BD00000000FF
:1024900000000240F508002098000020012070474D
:1024A00070B50446214D10212846FEF75BFD204EF5
:1024B000B17888420FD17178491CCAB20A2A0BDB65
:1024C000F2780A21904204D00246012818BF002267
:1024D0003270F07000E00021717028461021FEF784
:1024E00041FDB0702146134800F0DAF9012070BDBB
:1024F00038B500240F4800EB04156A78012A10D182
:10250000686830B1FEF7B0FD6968AA68401A904269
:1025100007D300206870FEF7A7FD6860E0B2E968A5
:102520008847641C012CE5DD002032BD001002400C
:10253000D9080020B800002010B504463F480178B3
:10254000012909D100F034F803D1002000F047F848
:1025500002E008B900F04AF812E010B500E010B54A
:1025600004463748017801290AD100F021F803D147
:10257000022000F034F803E010B9022000F036F831
:102580002146304800F08CF9012010BD10B50446FA
:102590002D48017801290AD100F00AF803D103205F
:1025A00000F01DF803E010B9032000F01FF8E7E782
:1025B0000022027040880128704710B50446234865
:1025C000017801290AD1FFF7F3FF03D1042000F0BD
:1025D00006F803E010B9042000F008F8D0E71C4B1F
:1025E00033F8101003EB8003012205E0184B33F899
:1025F000101003EB80030022D868FEF7B9BC38B591
:102600000024104800EB04156A78012A10D168688C
:1026100030B1FEF729FD6968AA68401A904207D3D5
:1026200000206870FEF720FD6860E0B2E968884726
:10263000641C042CE5DD002032BD0000E008002011
:10264000E8080020FC000020EC080020F008002032
:102650004C01002070B50446464D4FF48051284689
:10266000FEF780FC444E717988420FD13179491CC4
:10267000CAB20A2A0BDBB2790A21904204D001289F
:102680000EBF307000233370B07100E00021317153
:1026900028464FF48051FEF765FC707123E070B559
:1026A0000446364D4FF400712846FEF75BFC324E6F
:1026B000317A88420FD1F179491CCAB2092A0BDD5F
:1026C000727A0A21904204D001280EBF7070002354
:1026D0007370707200E00021F17128464FF40071B0
:1026E000FEF740FC30722146254800F0D9F8012061
:1026F00070BD70B50446214D02212846FEF732FC1C
:102700001D4EF17A88420FD1B17A491CCAB20A2A09
:102710000BDB327B0A21904204D001280EBFB0703F
:102720000023B370307300E00021B172284602210B
:10273000FEF718FCF072D6E738B50024104800EB1D
:1027400004156A78012A10D1686830B1FEF78CFC54
:102750006968AA68401A904207D300206870FEF7A3
:1027600083FC6860E0B2E9688847641C032CE5DB01
:10277000002032BD00100240C808002000080240BE
:1027800090010020D3BBD9B1B2F5803F5BD2022AC1
:102790001ED98C46B1FBF2F102FB11C31B0443EAC4
:1027A0001043B3FBF2FC02FB1C3380B240EA03434C
:1027B000B3FBF2F002FB103240EA0C4000237047FA
:1027C000022A05D98446B0FBF2F002FB10C2704722
:1027D0004AB105D100F0010249085FEA30007047B4
:1027E00000220023704700F097B80B000200002180
:1027F00000207047F7D3002200237047904271EB0E
:10280000030CF2D370B5B1FA81F4B3FA83F52C1B43
:10281000A340C4F1200532FA05F63343A2405FF02D
:102820000046E64002E05B085FEA3202841A71EB80
:10283000030524BF204629467641F4D302000B004D
:102840003000002170BD70B5B1FA81F4B2FA82F5A2
:10285000C4F120046419B4F12006DAD3B2405FF069
:102860000044F440002502E052085FEA3303C61A30
:1028700071EB020E24BF3046714664416D41F3D3C3
:1028800002000B002000290070BD704770477047A0
:1028900000EB0110012100224170426001207047CD
:1028A00010B500EB011401206070FEF7DDFB6060E5
:1028B000012010BD130003D00A461946FEF7DABB0B
:1028C000704770B500240FE005880B5D5D4008235C
:1028D0006E08ED0752BF354686F4204585F00105A8
:1028E0005B1EF5D10580641C9442EDDB012070BDB8
:1028F00038B50446FEF7B8FB14F1010F054602D0C7
:10290000044801786418FEF7AFFB401BA042FAD3DD
:1029100031BD00BF000000207047F0B402461068CF
:1029200095681318506803EB5004C0071CD54D443C
:102930001AE013F8017B05F8017B491EF9D198B123
:1029400013F8011BC6F38106032E08BF13F8016BB1
:1029500001EB06214942801C294405D011F8016B86
:1029600005F8016B401EF9D1A3420ED013F8016B9C
:1029700016F0030104BF13F8011BC91C30090F280E
:10298000DBD113F8010B0F30D7E7F0BC02F10C00DC
:1029900070470000FEE7FEE7FEE7FEE7FEE7704750
:1029A0007047704700F01AB80748FDF7B0BC0748F9
:1029B000FFF76DB80648FFF76AB80648FEF772B829
:1029C0000548FFF764B80000B40700204008002065
:1029D000FC070020540700208408002002484168BA
:1029E00002788A18426070470000002010B507493D
:1029F00079441831064C7C44163404E00A68081DFA
:102A0000114488470146A142F8D110BD2C000000B6
:102A1000480000004EF68851CEF20001086840F4EC
:102A200070000860BFF34F8FBFF36F8F4FF00070DF
:102A3000E1EE100A7047000003DDFFFF1C070000F5
:102A4000DC01002000000000D3FEFFFFBC010000FD
:102A500044010000000000200248016841F47001B8
:102A60000160704788ED00E00000000000000000F9
:102A7000010203040607080900F00DF8002801D040
:102A8000FFF7B4FFAFF300800020AFF30080FEF744
:102A90001DF900F002F80120704700F001B80000B5
:102AA0000746384600F002F8FBE7000080B5AFF3B8
:102AB0000080024A11001820ABBEFBE7260002008E
:102AC0000148804701480047592A0008D12A0008D8
:102AD000AFF30080FFF79EFFFFF7CEFF000000007E
:102AE00001020304FFF7FEBFFFF7FEBFFFF7FEBFC3
:102AF000FFF7FEBFFFF7FEBFFFF7FEBFFFF7FEBF0A
:102B0000FFF7FEBFFFF7FEBFFFF7FEBFFFF7FEBFF9
:102B1000FFF7FEBFFFF7FEBFFFF7FEBFFFF7FEBFE9
:102B2000FFF7FEBFFFF7FEBFFFF7FEBFFFF7FEBFD9
:102B3000FFF7FEBFFFF7FEBFFFF7FEBFFFF7FEBFC9
:102B4000FFF7FEBFFFF7FEBFFFF7FEBFFFF7FEBFB9
:102B5000FFF7FEBFFFF7FEBFFFF7FEBFFFF7FEBFA9
:102B6000FFF7FEBFFFF7FEBFFFF7FEBFFFF7FEBF99
:102B7000FFF7FEBFFFF7FEBFFFF7FEBFFFF7FEBF89
:102B8000FFF7FEBFFFF7FEBFFFF7FEBFFFF7FEBF79
:102B9000FFF7FEBFFFF7FEBFFFF7FEBFFFF7FEBF69
:102BA000FFF7FEBFFFF7FEBFFFF7FEBFFFF7FEBF59
:102BB000FFF7FEBFFFF7FEBFFFF7FEBFFFF7FEBF49
:102BC000FFF7FEBFFFF7FEBFFFF7FEBFFFF7FEBF39
:102BD000FFF7FEBFFFF7FEBFFFF7FEBFFFF7FEBF29
:102BE000FFF7FEBFFFF7FEBFFFF7FEBFFFF7FEBF19
:102BF000FFF7FEBFFFF7FEBFFFF7FEBFFFF7FEBF09
:102C0000FFF7FEBFFFF7FEBF43010001221008439C
:102C100024F40E51151205079003452200080110F7
:102C20001295107002000C024004920804920018E1
:102C3000A104F20204045101215413A1236451118F
:102C4000211012B710A120C3292420C34D2420D263
:102C50009D20D2A120C3A9202083CF2020210121A3
:102C600014C3392524125B10920210125F109203D4
:102C700010128D1092041032BB4013020014210771
:102C8000155173024004F102F4D23594F2025394C8
:102C9000C3552624C39F269443F326342002DC0127
:0A2CA000002008438C060852F008DB
:0400000508002AD1F4
:00000001FF
