:020000040800F2
:10000000D80E0020CD550008A5530008A7530008BE
:10001000A9530008AB530008AD53000800000000CE
:10002000000000000000000000000000AF530008C6
:10003000B153000800000000B3530008B553000896
:100040004D560008515600085556000859560008EC
:100050005D5600086156000865560008C153000847
:10006000695600086D560008C7530008715600080D
:1000700075560008795600087D560008815600081C
:1000800085560008895600088D56000891560008CC
:1000900095560008995600089D560008CD53000853
:1000A000A1560008A5560008A9560008AD5600083C
:1000B000B1560008B5560008B9560008BD560008EC
:1000C000C1560008C5560008C9560008CD5600089C
:1000D000D1560008D5560008D5530008DB53000858
:1000E000E1530008D9560008DD560008E156000823
:1000F000E5560008E9560008ED560008F1560008DC
:10010000F5560008F9560008FD560008015700088A
:10011000F753000805570008095700080D57000855
:10012000FD5300081157000815570008195700081B
:100130001D570008000000000000000021570008C3
:1001400025570008295700082D5700083157000887
:1001500035570008395700083D5700080354000878
:100160004157000845570008495700084D570008F7
:10017000515700085557000800000000000000001B
:10018000595700085D5700081FB500F034F801AC5E
:1001900000220E210120ADF800208DF804106070BF
:1001A0008DF8060000F02BF8BDF80000E07000218B
:1001B000217101A8052100F01FFB09220FF67C0127
:1001C000DFF83048012000F0BFFCA2882068002141
:1001D00000F0B3FC0020A0800121DFF81C4804F1EE
:1001E000180000F0CDFC0B2104F1180000F0D0FC49
:1001F000012004B010BD052101A800F0D9BC0322E4
:1002000001A9684600F0F4BC38B50446DFF8EC57A5
:1002100001220121284600F08FFE012000F0B8FEE7
:1002200000220121284600F087FE2146DFF8D00792
:1002300000F0AEFC012032BD10B50146DFF8B40776
:10024000DFF8B427808868B1DFF8B8371C888442AB
:1002500007D100201880022102F1180000F090FC64
:1002600004E0188002F1180000F092FC012010BD9B
:100270002DE9FC47DFF87C57DFF87C97A9882868D0
:100280000024ADF800400022C9B200F059FBA88854
:1002900029680A18921EA2465378127842EA032669
:1002A000821E92B2684600F0A3FCBDF80000B04286
:1002B00035D100F081FE05210FF28C7000F09CFA20
:1002C000AA88DFF8440702700021286800F035FC96
:1002D0000020A880012109F1180000F051FC012044
:1002E000BDE8F687D65D012E744618D11FFA8EF64A
:1002F000771CB94213DB9CF8041079B901271F70F1
:100300008CF800108CF804700021925D8CF80220AB
:100310008CF801708CF8057000F032FC641CA98820
:10032000A6B2891EB01C8142C0F20F812A68DFF894
:10033000DC06965DDFF8D8C6DFF8D886DFF8D83659
:10034000641C0B2E04F1010EA7B200F0B3800C2E3A
:1003500000F0D6800D2E00F0DB800E2E2FD0152E53
:1003600000F08C80162EBDD0202E06D0212E3ED03F
:10037000222E4FD0232E65D0D1E7D65D022E7446B3
:10038000CDD11FFA8EF6B71CB942C8DB9CF8041019
:1003900099B94FF0010A83F800A08CF800A08CF8FE
:1003A00004A0915D8CF80210521C0021935D8CF822
:1003B00001308CF8051000F0E3FBA41CAFE7D05D22
:1003C00001287446ABD1A0B2401C8142A7DB0121B9
:1003D00009F1180000F0E6FB022109F1180000F015
:1003E000E1FB082109F1180000F0CAFB97E7D05D96
:1003F0000128744693D1A0B2431C99428FDB115C53
:1004000002298CDA01230122012000F0C3FE00F052
:1004100017FF83E7D05D01287446EBD1A0B2431CDF
:100420009942EBDB115C0229EBDA98F8070010B176
:100430000123012202E0012301220021052000F016
:10044000A9FE6BE7D05D01287446D3D1A0B2431C4E
:100450009942D3DB105C0228D3DADFF8C06550B1D3
:100460000128EED198F8070028B1DFF8B40500F0B4
:100470007FFF022100E0032130464DE7D05D0328D5
:100480007446B7D1A0B2C31C9942B7DB115CDFF848
:1004900094351980641C0902A6B21980641C905D11
:1004A00001431980A1B2641C525CDFF87C059A708C
:1004B000032199E7D05D7446024612FA84F2914214
:1004C0009CDB002199810B2299680A7099899A68AE
:1004D000491C998189B250549989491C99810AE033
:1004E00029689E68A2B2641C8A5C99897254401E75
:1004F0009A89521C9A81C1B20029F1D1042171E775
:10050000D05D744610FA84F0814207DB062169E76A
:10051000D05D7446024612FA84F29142FFF6FFAEB5
:10052000002199820CE0998A142908DA2A68A6B277
:10053000641C925D1E697254998A491C9982401EFE
:10054000C1B20029EFD105214CE7BAF1000F3FF409
:10055000B7AE0221B2A0B1E630B50446DFF8985438
:100560004EF66020286587B01921684600F020FB10
:10057000684600F057F90146684600F03DF921460B
:1005800000F0DBF8012007B030BD1CB50020DFF81B
:100590008844A289A168ADF80000684600F028FBF5
:1005A000A168A289BDF8000088540021A089A26832
:1005B000401CA08180B21154A189A068491CA1816E
:1005C000C9B200F019F9012016BD2DE9F84187B034
:1005D000182101A8DFF8407400F0EAFAAA218DF88A
:1005E000041001ACB88A60700022ADF8002002252A
:1005F000002106E03A69CBB23546D25C04F8082007
:10060000491C6E1CCAB282425FFA85F8F2D34FF4DD
:10061000005000F0C7FFBA8A921C92B24FF400510A
:1006200001A801F052F80D208DF80400EAB2FFF79E
:10063000E7FDBDF8000004F8080000F02CF80120E8
:1006400008B0BDE8F081F0B587B01821FFF7D4FD00
:100650000C218DF804100022DFF8BC03ADF8002057
:1006600001AC818A61700222002304E00269D25D3C
:1006700062555B1C3246561CDFB28F42D5B2F5D3B1
:10068000D2B2FFF7BDFDBDF80000605500F003F8E1
:10069000012007B0F0BDF2B20021A154761CF1B2E6
:1006A00001A8A9E07FB50446D34D05F5547001F0CB
:1006B000E0F820BB4FF47A7000F06AFCFFF79BFD76
:1006C00001AE00210E220120ADF800108DF80420AB
:1006D00070708DF80610FFF792FDBDF80000F07005
:1006E00000218DF8081001A8052100F079F80A22F0
:1006F0000FF25C31012000F027FA00F021FB00F03E
:100700006AF8012004B070BD70B5BB4D044605F514
:100710005476304601F0ADF850B1012229463046FA
:1007200001F086F8297D284600F05AF80A2100E0F9
:10073000214600F002F8012070BD05F1180000F01C
:1007400027BA38B5AC4C04F55475284601F091F839
:1007500028B9092104F1180000F012FA0DE0012275
:100760002146284601F064F8217D204600F038F843
:100770000A2104F1180000F00BFA012032BD38B54F
:10078000A5499D4D04460878002804BF48780028F4
:100790001DD1C878002804BF8878002817D10879AF
:1007A000A8B901F069F8E96C401A4AF6C87290429B
:1007B0000DD30821FFF7C1FF012105F1180000F05A
:1007C000F1F9022105F1180000F0ECF901E000F068
:1007D00002F8012032BD214605F1180000F0D0B921
:1007E00038B504460D46012200F0AAF829462046F5
:1007F000BDE8344000F015BA80B586B000228DF80F
:10080000141003E0835C0DF80230521C8A42F9DBBD
:1008100000226946854800F0DCFF07B000BD0000FB
:100820004F4B00001CB504460020ADF800000A2123
:10083000217060707748C179A1707D498A78E27033
:100840008B792371CA7962714B79A3711023C978AE
:10085000E1717849B1F9002012122272098861729F
:100860007549B1F900201212A272FF220988E172C3
:1008700022734188090A61734188A1738288120A30
:10088000E27312228188217421468079607463703A
:10089000684600F0ADF9BDF80000A0741420BDF862
:1008A0000010090AE17416BD534800F1D80315225F
:1008B000142100F5547000F07BBF70B586B016218E
:1008C000684600F075F916224FF40051684600F0B2
:1008D0001AFF9DF80020504CAA2A0DF102000FD1FA
:1008E0009DF801100022A282D3B28B4225DA25693D
:1008F000A68AC35CAB55521CA38A5B1CA382F3E798
:10090000AA228DF800200021A28A8DF8012003E0A0
:1009100023695D5C4554491C9142F9DB4FF400505A
:1009200000F040FE012000F033FBA28A921C92B23C
:100930004FF40051684600F0C8FE06B070BD0000DC
:1009400078B591B004460D461646322104A800F051
:100950002FF9002E07BF13220FF2001114220FF2FD
:1009600010110294ADF80C50022000F0EDF800BF19
:1009700047A1BDF80C00D1E90023CDE9002304AC68
:100980001928009407DA02A9684600F0B4F8BDF807
:100990000420009901E00B223AA1022000F0D4F8D3
:1009A000032213A1022000F0CFF812B070BD70B581
:1009B00000240025104800EB0516727E012A11D193
:1009C000F069012430B100F057FFF169326A401A32
:1009D000904207D30020707600F04EFFF061E8B23D
:1009E000716A88476D1C0C2DE4DB204670BD000049
:1009F0000D0A0000000700209801002000080240B6
:100A0000B0010020D20A0020D60A002044000020B5
:100A1000AC0A002088010020000500202C050020E1
:100A2000E0930400C80A0020D4050020E804002058
:100A3000B80A002054060020580600204F4E5F4D93
:100A400043550D0A000000004552524F520000006D
:100A50004F46465F4D43550D0A0000006170705FC0
:100A600070635F626F783A20526563763A200000C7
:100A70006170705F70635F626F783A205472616E6C
:100A8000733A200044617461204C61726765000014
:100A9000000000000000000010B5DFF8DC200C466C
:100AA000116800F005F8A0428041C043C00F10BD9E
:100AB000814204D24FF0FF32101A08187047081A0A
:100AC000704738B5034600208DF80000002207E08B
:100AD000E4B2002A1ABF0A2505FB00402046521C3A
:100AE0008A4207DA9C5CA4F130050A2D34BF303C01
:100AF0000024EDE732BD30B500220FE004F81230DB
:100B00000B689C5C056804F00F0405EB42030A2C9B
:100B1000ACBF37343034521C5C7092B28B889A422E
:100B200008DA0B689B5C04681B090A2BB4BF3033DE
:100B30003733E3E75B00838030BD130003D00A4600
:100B4000194600F09FBE7047032804DA4FF47A7309
:100B50000A4800F0DCBE704738B500F006F882B2F3
:100B600029462046BDE83840EEE704460D462846B3
:100B700001F000BA00000000CC0A0020DC090020CF
:100B800000EB0110012100224170426001207047FA
:100B900010B500EB01140120607000F06DFE606084
:100BA000012010BD00EB01100022427001207047AF
:100BB000002201F0E9B930B4002513E050F8042B0D
:100BC000D30744BFA9F101039A18091F042942F869
:100BD000045BFAD213468C0744BF15809B1CC907DF
:100BE00048BF1D7050F8041B0029E7D130BC704786
:100BF00070B50023038000240FE005880B5D5D4085
:100C000008236E08ED0752BF354686F4204585F06F
:100C100001055B1EF5D10580641C9442EDDB0120CB
:100C200070BD0A4601464FF47A734C4800F06FBE1F
:100C3000010015D0FF2801D10A207047FE2801D1FC
:100C400064207047FD2802D14FF47A707047FC2869
:100C500002D142F210707047FB2801D14048704722
:100C60000120704710B504460846FFF7E1FF0A214E
:100C700014FB01F191FBF0F000B210BD70B50A4613
:100C800000230A24002A06D52D2152420170012397
:100C900001E00A256C43B2FBF4F10029F9D10A21E5
:100CA000B4FBF1F10BE0B2FBF1F4DEB204F130057C
:100CB00001FB142285550A245B1CB1FBF4F10029C9
:100CC000F1D1D8B270BD2DE9F041002700290646C8
:100CD00090464CBF4D420D46FFF7D0FF044665B32A
:100CE0004046FFF7A5FF0A21854203D24D4307F195
:100CF0000107F9D1721E611CFBB26BB101E03355E3
:100D0000641EE4B2135D2D2B18BF002CF7D13022E6
:100D100032550C467F1EEDE70A23B0FBF3F058B1C5
:100D20000A23B0FBF3F0E3B2641ED55CF55400284F
:100D3000F5D1E4B22E2030550C46E0B2BDE8F0818A
:100D400072B6BFF34F8F074907480A6802F4E062A2
:100D500002430A60BFF34F8F00BFFDE7200A002067
:100D6000A08601000CED00E00400FA052DE9F84F23
:100D70000D4600267A497B4A0F23044601202F683E
:100D8000B04000EA0708804540F0CA804FEA460CB0
:100D9000032707FA0CF76FEA070E6F6807F00309DD
:100DA000B9F1010F1CBF07F00307022F12D1A7688A
:100DB000D5F80C900EEA070709FA0CF949EA07077B
:100DC000A760676827EA00006F68C7F30017B7409D
:100DD00038436060B0002F7907F00307032F21D05C
:100DE000E768D5F808900EEA070709FA0CF949EA0E
:100DF0000707E7602F7907F00307022F12D1F708E2
:100E000004EB870700F01C09D7F820A003FA09FBC0
:100E10002AEA0B0AD5F810B00BFA09F949EA0A09CF
:100E2000C7F8209027680EEA070E2F7907F003070E
:100E300007FA0CF747EA0E0727606F6817F4403F80
:100E40006ED0002700974FEA960C176847F480474A
:100E5000176000F00C00176807F48047009703FA4A
:100E600000FE009F404F57F82C7027EA0E0E3F4FB0
:100E7000BC4208BF002722D03D4FBC4208BF01271B
:100E80001DD03C4FBC4208BF022718D03A4FBC428D
:100E900008BF032713D0394FBC4208BF04270ED028
:100EA000374FBC4208BF052709D0364FBC4208BFA8
:100EB000062704D0344FBC420CBF0727082707FA87
:100EC00000F0294F40EA0E0047F82C006FEA0800B6
:100ED0008F6800EA070C6F68FF0248BF48EA0C0CF5
:100EE000C1F808C0CF6800EA070C6F68BF0248BFAE
:100EF00048EA0C0CC1F80CC04F6800EA070C6F6898
:100F0000BF0348BF48EA0C0CC1F804C00F6800EAF0
:100F1000070C6868C00348BF48EA0C0CC1F800C061
:100F2000761C0F2E7FF62AAFBDE8F18F00690840CE
:100F300018BF0120C0B2704702B90904816170472F
:100F4000426901EA0203914341EA0341816170472A
:100F50000E4A136803421CBF106001F02FB870479F
:100F6000003C014044380240083801400000024083
:100F70000004024000080240000C02400010024041
:100F80000014024000180240001C0240143C0140C2
:100F900038B5044600F070FC14F1010F054602D08C
:100FA00004480178641800F067FC401BA042FAD3A3
:100FB00031BD00BF0000002001222F4915E010B50F
:100FC0002A4C2948012204F11C0100F0F8FC0122FE
:100FD0002146274800F0F3FC0122611C254800F05F
:100FE000EEFCA11CBDE810400122244800F0E7BC43
:100FF00038B505461E48296802681C4C91420CD140
:101000002189642905D2636822785A542189491CB0
:1010100021810122214600F0D2FC1648296802688D
:1010200091420CD1218A322905D2E36862785A5460
:10103000218A491C21820122611C00F0C0FC0F485A
:101040002968026891420ED1218B642905D2636917
:10105000A2785A54218B491C2183A11CBDE8384039
:10106000012200F0ACBC31BD98090020EC06002044
:10107000DC09002054090020EE060020200A002090
:1010800010B5DFF8484404212046FFF779FD05211B
:101090002046FFF775FD06212046FFF771FD012070
:1010A00010BD80B5DFF82824D17921B1DFF8240400
:1010B00000F05EF902E0014600F00EF8012002BDEA
:1010C00080B5032100F008F8012301220121062048
:1010D00000F060F8012002BDDFF8F003FFF758BD13
:1010E00080B5012301220021062000F053F8DFF82B
:1010F000E80300210171012002BD38B5DFF8CC53AF
:10110000A96CB1F5FA6F044605D1002000F068F92A
:101110002821A96405E0002000F06AF94FF4FA6084
:10112000A86421462846FFF733FD012032BD70B583
:10113000DFF8A863DFF894530446307880B1A96DD6
:10114000502905D1012000F04BF92821A96507E0BD
:10115000012000F04DF95020A86531784A1E327008
:1011600021462846FFF714FD012070BD10B5044646
:10117000DFF86C030178012903D1022000F028F97F
:1011800002E0022000F034F92146FFF7A5FF01201C
:1011900010BD00002DE9F04107460C46200018BFA5
:1011A000012C1546984635D1062FCE4E27D8DFE8BC
:1011B00007F004090E13181D2200002000F02CF87F
:1011C00074701CE0012000F027F8B47017E00220D2
:1011D00000F022F8F47012E0032000F01DF83471E2
:1011E0000DE0042000F018F8747108E0052000F00C
:1011F00013F8B47103E0062000F00EF8F4712246F3
:101200003946284600F0C4F8224639464046BDE833
:10121000F041FDE0BDE8F081B34A02EB800332F813
:1012200010001B69012901460CBF0122002218464B
:10123000FFF782BE80B500F030F8BDE801404EE017
:10124000E0B500F047F8AA218DF8001007228DF8CC
:101250000120A4494A788B788DF802208DF803305C
:10126000CA780B798DF804208DF80530C8794A7951
:101270008B798DF808008DF806208DF807304FF433
:10128000405000F08FF90120FFF782FE09224FF451
:101290004051684600F019FA07BDE0B500F01AF8B1
:1012A00009224FF44051684600F02DFA9DF80000E5
:1012B000AA2804BF9DF8011007290AD19DF8031040
:1012C000884A0129D8BF91709DF807000128D8BF2E
:1012D000907107BD09220021684600F097BE70B5E5
:1012E000804C82486178824D824E01290CBF0122D8
:1012F00000224FF40041FFF71FFEA07801280CBF29
:101300000122002202212846FFF716FEE07801287C
:101310000CBF0122002204212846FFF70DFE207990
:1013200001280CBF012200224FF480713046FFF7E4
:1013300003FE607901280CBF012200224FF40071E6
:101340003046FFF7F9FDA07901280CBF01220022E9
:1013500040212846FFF7F0FDE07901282846BDE846
:10136000704007BF0122012100220121FFF7E4BDE7
:1013700010B5594A554C01211171A0630221204634
:10138000FFF706FC2046BDE810400121FFF700BC36
:10139000012800D070471FB550248DF8044002206A
:1013A00001AC00236070A1708DF80720ADF800300B
:1013B000042201A96846FFF71BFCBDF8000020715C
:1013C000010A8DF8091001A80621FFF715FA1FBDC3
:1013D0006BA2494B32F8101053F82000FFF7B0BD54
:1013E00010B500F00DF8BDE810400122FFF7A4BDD4
:1013F00010B500F005F8BDE810400022FFF79CBDD5
:101400005FA33D4C33F8101054F8200070470000E3
:1014100010B501280C4636D1012A07BF1B220FF256
:10142000DC011C220FF2F0010220FFF78DFB062CDD
:1014300022D8DFE804F004070B0F13171B000A2261
:101440003CA116E05FF008023DA112E05FF00D0242
:101450003DA10EE05FF007023FA10AE05FF00D0240
:101460003FA106E05FF0060241A102E05FF0060244
:1014700041A10220FFF768FBBDE81040032212A142
:101480000220FFF761BB10BD70B5002400250F4896
:1014900000EB05167278012A11D17068012430B171
:1014A00000F0EAF97168B268401A904207D3002050
:1014B000707000F0E1F97060E8B2F16888476D1C67
:1014C000072DE4DB204670BD0D0A00002C0500202E
:1014D00088010020E093040000050020D60A0020C7
:1014E000D70A0020B80A00209C0500200000024016
:1014F0000010024000040240C805002075736572A8
:101500005F6170705F72656C61793A204F4E205256
:10151000656C61793A200000757365725F61707067
:101520005F72656C61793A204F46462052656C6166
:10153000793A2000454C455641544F522000000056
:1015400053435245454E20004652494447452043A7
:101550004F4F4C2000000000414C41524D200000F4
:101560004652494447452048454154200000000068
:101570004C414D50200000005741524D20000000CA
:1015800000020001800000000320FFF7E5BA80B5EB
:1015900000F0ECF8062000F04DFDBDE8024001200F
:1015A00000F03EBD38B505460324FFF7F0FF4FF4C9
:1015B0007A7000F037F8012803D0641EF5D10020BE
:1015C00032BD00F0D3F8202000F034FD00F079F8AF
:1015D000280400F077F8E8B200F02CFD00F007F8DE
:1015E0004FF47A7000F006F80128E9D0E7E701200F
:1015F00000F016BD70B500F0B6F8052000F01AFD39
:1016000005E016F0030F09D00120FFF7C1FC00F040
:1016100006F800F01BF80128F3D11CE01FE0A5201C
:1016200000F008BD70B500F09EF8052000F002FD46
:1016300004E0B00709D40120FFF7AAFCFFF7EFFF91
:1016400000F004F80128F4D105E008E00646214640
:101650002846FFF721BA00F0E3FC002070BDFFF739
:10166000C6FF012070BD78B5C1B004460D461646D0
:10167000FFF78DFF4FF47A70FFF7D4FF01281ED1DA
:1016800000F074F8022000F0D5FC00F01AF82804ED
:1016900000F018F8E8B200F0CDFC6420009033466A
:1016A00001AA2146DFF8CC0000F038FDFFF79FFFCC
:1016B0006420FFF79FFF012801D142B070BD0020D8
:1016C000FBE72802000E00F0B5BC70B504460D46DD
:1016D00016464FF47A70FFF78DFF01280CD1324681
:1016E00029462046FFF7BFFF012805D00FF28C01E5
:1016F000FFF74AFF002070BD0FF29C010320FFF7A7
:101700002BFA012070BD2DE9F8430E468046914624
:101710003502370403244FF47A70FFF76BFF01287A
:1017200004D0641EF7D10020BDE8F28300F01EF85B
:10173000032000F07FFC280E00F07CFC380E00F047
:1017400079FCF0B200F076FC03E0FFF768FF08F8E0
:10175000010B4846A0F1010980B20028F5D1FFF73E
:1017600046FF0120E0E704490D680446002000F030
:1017700057BC0000B4080020CC0A0020755F6578D3
:101780005F666C6173683A20777269746520666180
:10179000696C210D0A000000755F65785F666C61F9
:1017A00073683A207772697465204F4B210D0A00E7
:1017B00050B50024047043600E46564344680461EB
:1017C0009B198360002443680475C3604175C2821D
:1017D00050BD38B504461046657D237D00226D1E40
:1017E000AB4223DAE38AEBB11A4660B9E06800F055
:1017F0002FFEE168E08A0844A168E060884211D3C6
:101800006068E0600EE020695B421844206100F0EF
:101810001FFE20696168884204D2E18AA0684942BB
:10182000014421610122207D401C2075104632BDFB
:1018300010B5044608461146227DC2B1E28A19B9A4
:10184000216900F005FE10E062B110B1216900F0DD
:10185000FFFD2069E18AA26808442061904224BF0C
:1018600060682061207D411E2175012010BD00208F
:1018700010BD007D7047000001484068704700BF00
:10188000000000204018491C1CBFB1F1010100F804
:10189000012DF9D17047000038B5040001D10120B5
:1018A00032BD00F017F808B900F018F800F01BF886
:1018B00000F023F8FFE7416100F001F832BD206835
:1018C000C16841F40051C160002068602021697046
:1018D000A970704704F13C056878704700212970B1
:1018E000204600F0F6BD242068702068C16821F40D
:1018F0000051C160204600F0D9BA2068016921F486
:10190000904101612068416921F02A0170472DE969
:10191000F843054605F13C060C467078202817462A
:10192000994649D10CB1380001D1012045E0307809
:10193000012841D001213170002070602122727095
:10194000FFF79AFFAF848046EF84A868B0F5805F08
:1019500004BF286900280EBF274620460027002123
:10196000317004460EE014F8012B426007E028684D
:10197000002CF8D137F8021BC1F308014160E88C54
:10198000411EE9844346E88CCDF80090002807D03A
:1019900000228021284600F081F90028E7D005E0E8
:1019A00000224021284600F079F908B1032004E024
:1019B00020207070002000E00220BDE8F28338B5DE
:1019C00000F130039C7B202C0FD109B1140001D110
:1019D000012032BD1C7B012C07D001241C73002583
:1019E0001D60BDE8384000F0A3B9022032BD216877
:1019F00001F1140252E8001F206800F1140321F0E5
:101A0000400143E80010002870477CB50446216877
:101A10000B68CD684A6913F00F0007D1980661D5AD
:101A2000AA065FD52046BDE87640D5E1D00702D4AE
:101A300015F4907F56D0D80705D5E90503D5206C5D
:101A400040F001002064580705D5D10703D5206C6C
:101A500040F002002064980705D5D10703D5206C1B
:101A600040F004002064180707D5A90601D4D00768
:101A700003D5216C41F008012164206C002830D08E
:101A8000980604D5A90644BF204600F0A5F92068B1
:101A90004069216C0A0701D440061DD5204600F09C
:101AA00070F920684169480611D5FFF7A0FFFCD105
:101AB000A06B60B10FF215310165A06B00F0BCFEA8
:101AC00000280ED0A06B016DBDE87C400847204681
:101AD000BDE8764000F0CABF204600F0C7FF0020F6
:101AE000206473BD206B012804F13D0240F0868024
:101AF000D80600D5EE0640F18180002300930D68E2
:101B000000954B6800930098496948063FD5A16B42
:101B10000868406880B20028E3D0A38D9842E0DADC
:101B2000E085C869B0F5807F2DD0216801F10C00F7
:101B300050E8001F236803F10C0521F4807145E88B
:101B400000100028F1D100F09BF8490800F11405BD
:101B5000490045E800100028F5D100F091F800F1A7
:101B6000140521F0400145E800100028F5D120209F
:101B700050700021216300F089F800F0BEF8FAD11E
:101B8000A06B00F01DFEA18DE08D091A30E0A08D44
:101B9000E18D411AE08D00281CBF88B2002868D072
:101BA000206800F10C0353E8003F00F10C0623F419
:101BB000907346E800300028F2D1206800F05AF80F
:101BC00000F114065B0046E800300028F5D1202023
:101BD000507000222263206800F10C0252E8002FAE
:101BE00000F10C0522F0100245E800200028F2D197
:101BF0002046BDE87C4089B200F039BF180629D5DF
:101C00002E0627D51078212833D1A068B0F5805F43
:101C100004BF2069002808D1206A0288C2F30802A4
:101C20004A60206A811C216204E0206A421C226210
:101C300000784860E08C401EE08480B2C8B920681B
:101C4000C16821F08001C1602068C16841F0400195
:101C5000C16073BD58060CD56B060AD5C86820F064
:101C60004000C860202111702046BDE8764000F099
:101C7000FFBE73BD00F1140353E8003F5B087047DB
:101C8000206800F1140151E8001F7047206800F13E
:101C90000C0151E8001F00F10C0370472DE9F041E1
:101CA000069C05460E4690461F462868016831404E
:101CB000B1420CBF0120002040451BD114F1010F9F
:101CC000F3D024B1FFF7D8FDC01B8442EDD200F061
:101CD0001AF821F4D07100F012F8F8D100F01BF8D6
:101CE000FCD105F13C002021417081700021017080
:101CF000032000E00020BDE8F08121F0100143E85E
:101D0000001000287047286800F10C0151E8001FFE
:101D100000F10C037047286800F1140151E8001F1E
:101D2000490800F11403490043E8001000287047F7
:101D300081628285C28500F13C0100224A60222333
:101D40008B700A70016921B10168CA6842F480721F
:101D5000CA6001684A6942F001024A610068C168CC
:101D600041F02001C1600020704744E800210029B3
:101D70007047016801F10C0252E8002F01F10C04D8
:101D8000704710B5FFF7F5FF22F49072FFF7EDFFF3
:101D9000F8D100F00BF8016B012901D100F071F8C6
:101DA000202180F83E100022026310BD016801F17D
:101DB000140252E8002F520801F11404520044E8C2
:101DC00000210029F2D1704700000000806B002143
:101DD000C185C18400F04ABE1CB590F83E1022298E
:101DE0004DD18168826AB1F5805F0AD1016969B914
:101DF00003685968C1F308011180826A911C8162ED
:101E00000FE0002904BF0169002902D10368596865
:101E100003E00168496801F07F011170816A4A1C82
:101E20008262C18D491EC18589B231BB0168CA6811
:101E300022F02002CA600168CA6822F48072CA6077
:101E400001684A69520852004A6100F029F812D12B
:101E50000021016300F015F802681168CB0606D571
:101E60000024009413680093526800920099818DB9
:101E700000F0FDFD01E0FFF7BBF8002016BD0220D9
:101E800016BD026802F10C0151E8002F036803F14E
:101E90000C0422F0100244E800210029F1D170471F
:101EA000202180F83E10026B012A704770B504466D
:101EB00022681169E06821F4405101431161D3683F
:101EC0002648A168034020690B4361690343E06928
:101ED0000B430343D3605169A06921F4407101436E
:101EE00051611F498A421CBF1E48824202D100F044
:101EF0004FFE01E000F044FE62682568E469642654
:101F00001921B4F5004FA1FB000112D1D30F5200EB
:101F100000F086FE00F028F8F60032366420B6FBAA
:101F2000F0F0420002F4F87202EB011200F0070038
:101F300010E0930F920000F073FE00F015F83601E8
:101F400032366420B6FBF0F000F0F00202EB011232
:101F500000F00F008018A86070BD0000F369FFFF5B
:101F600000100140001401406421B0FBF1F106FBB8
:101F70001106704700F1010310F8011B11B110F8B0
:101F8000011BFBE7C01A704700B500BF130096465F
:101F90009446103928BFA0E80C50FAD85FEA417C7B
:101FA00028BF0CC048BF40F8042BC90728BF20F841
:101FB000022B48BF00F8012B00BD0000102811497A
:101FC00003D18879401C88717047B0F5006F03D148
:101FD0004879401C4871704702280B4903D1886832
:101FE000401C88607047B0F5007F03D14868401CF2
:101FF00048607047B0F5805F02D10868401C0860F7
:10200000704700BFAC0A0020D806002010B5044677
:1020100010460A4601462046FFF734FC204610BD14
:102020000D4B00280CBF002201224FF4007118460E
:10203000FEF782BF01B582B000204FF47A718DF8AF
:1020400004000091012301AA02A9044800F066F8E7
:102050009DF804000EBD0000000C0240B4080020F2
:1020600038B5040001D1012032BD606A28B900F002
:1020700051F805D00021E16102E00020206160619B
:102080000020A06204F15005687820B90021297071
:10209000204600F067FE0220687000F040F960689A
:1020A000A168E26800F4827001F404410843217CD5
:1020B00002F400621043227D01F002010843A1698D
:1020C00002F001021043227F01F40071084394F8EA
:1020D000201002F038021043A26A01F08001084388
:1020E000216802F4005210430860A06994F824109B
:1020F0002268000C00F0040001F010010843506059
:102100002068C16921F40061C1610020686001217B
:10211000697032BD6068B0F5827F70472DE9FC4779
:1021200000F0DCF84FF0010808BF022000F0C68084
:102130009A4687F80080FFF79FFB7B78012B09D038
:102140006968B1F5827F02BFA9680029042B01D01C
:102150000226AEE0002C1CBFB9F1000FBAF1000F4F
:1021600001D10126A5E07B78042B1CBF05217970E5
:102170007E60C5F83890A5F83EA0A5F83CA02C6379
:10218000A5F836A0A5F834A02E646E6429680C6802
:10219000630603D40C6844F040040C60E9680A9CB0
:1021A000B1F5006F696838D1002918BFBAF1010F85
:1021B00000F0A9F88146E88E002804BFE88F0028C7
:1021C00068D02968886882070BD5E88E002818BF78
:1021D000B8F1000F05D0286B0288CA60B04600F045
:1021E0006FF829688868C2070CD5E88F50B1C868B5
:1021F000A96B08804FF00108A86B821CAA63E88FC6
:10220000411EE987FFF738FBA0EB0900A042D2D3BB
:1022100014F1010FCFD003264BE0002918BFBAF10B
:10222000010F00F064F88146E88E002804BFE88FB3
:1022300000282FD02968886882070DD5E88E0028ED
:1022400018BFB8F1000F07D0286B02780A73B046A8
:10225000286B411C00F036F829688868C2070CD545
:10226000E88F50B1C868A96B08704FF00108A86BDF
:10227000421CAA63E88F411EE987FFF7FDFAA0EB35
:102280000900A04203D314F1010FCDD0C3E7002C05
:10229000CAD1C0E74A462146284600F0A6F818B140
:1022A00020200126786004E0A86810B900F00FF83B
:1022B000009801217970002038703046BDE8F6871B
:1022C000286B811C2963E88E411EE98670470096C1
:1022D0002968CA680092896800917047054605F12F
:1022E00050070026387801280C469146704709D1DE
:1022F000296B2B680A781A73296B4A1C2A63E98EAA
:102300004A1EEA86704709D1296B2B680A88DA6071
:10231000296B8A1C2A63E98E4A1EEA867047206868
:10232000016821F04001016070472DE9F843089CE5
:1023300005460E4690461F46FFF79EFA381A2418A7
:10234000FFF79AFA8146404801684901090D614347
:10235000009105E0009800B900240098401E00900C
:10236000286881683140B1420CBF012000204045FF
:1023700032D017F1010FF3D0FFF77EFAA0EB09007E
:10238000A04201D2002CE5D12868416821F0E0018B
:1023900041606868B0F5827F08D1A868B0F5004F49
:1023A00018BFB0F5806F01D100F019F8A86AB0F538
:1023B000005F09D12868016821F400510160286894
:1023C000026842F40052026005F1500001214170A0
:1023D00000220270032000E00020BDE8F28328689C
:1023E000016821F04001016070477CB50446164841
:1023F000164E0B4601681825B1FBF5F5B5FBF6F650
:102400004FF47A70464300966168B1F5827F09D136
:102410000092802100222046FFF787FF58B100F08C
:102420000CF876BD009830B10098401E00902168ED
:1024300088680106F6D4002076BD606D40F020006B
:1024400060650320704700000C00002040420F0030
:102450004AB1000011F8013B521E00F8013B1CBFBD
:1024600011F8013BF8E7704780B575487549016080
:102470004FF4165200F01AF800B108E001BD80B523
:102480007148724900F00FF800B100E001BDBDE8ED
:10249000014000F011BD80B56D486E4900F003F8B1
:1024A00000B1F4E701BD01604FF4E13200230C21DB
:1024B00042608360C360036141618361C361FFF770
:1024C000EBB980B564486549FFF7EDFF00B1DEE781
:1024D00001BD10B586B00446142200216846FFF7FE
:1024E00095FD2268574B5E485E499A4219D10022F9
:1024F00005920B6943F400230B6100230A6902F47F
:1025000000220592059A0593032200F089F808221B
:1025100000F081F800220021342000F0E9FC342092
:1025200064E04A4B9A4219D1002205920B6943F4A8
:1025300000330B6100230A6902F400320592059A08
:1025400005930C2200F06CF8072200F064F80022DA
:102550000021262000F0CCFC262047E03D488242A6
:1025600021D100220592086940F4802008610869A1
:1025700000F4802000F044F843F002030B60086888
:1025800000F0020005904FF440610598364800F0D5
:1025900031F8072100F03AF800220021272000F04E
:1025A000A7FC272022E02D48824221D1002205925B
:1025B000486940F020004861486900F0200000F0C0
:1025C0001FF843F004030B60086800F00400059056
:1025D000C0210598254800F00DF8082100F016F8F4
:1025E00000220121472000F083FC472000F09DFCE1
:1025F00006B010BD009101920021029103227047A4
:1026000005900598059202220B6870470491039289
:102610006946FEF7ABBB039304926946FEF7A6BB7F
:102620000C6844F001040C600223096801F0010108
:1026300005910599009201930022029203237047AD
:1026400054090020004C004098090020004400403C
:10265000DC09002000480040200A0020001401404E
:1026600000000240303802400004024000080240EE
:1026700070B50446FFF700F906460CB9012070BD9D
:1026800004F1340502206870002129702068026876
:1026900052085200026022681068C1070AD5FFF78D
:1026A000EBF8801B0628F6D32020286203216970EE
:1026B000032070BD1368DFF82C0361680340A06835
:1026C0000B43E168034320690B4361690343A0693D
:1026D0000B43E1690343206A0B43616A0343042906
:1026E00003D1E16A206B01430B43136023685A69ED
:1026F000606AD208042840EAC2020AD1A66AE16AE6
:10270000324331B1A06988B9002E18BF022E1FD004
:1027100016D35A61204600F091F9A96A3F228A40F7
:102720008260002028620121697070BDB0F5005FF1
:102730000AD1032EEDD8DFE806F00D0B0D03E8E714
:10274000B1F1C07FE5D105E0022E03D9F61EE0D13C
:10275000C801DED5402129620120687070BDF8B53E
:10276000044604F1340600253078776A012801D147
:102770000220F2BD01203070707801281CD10220A7
:1027800070703562204600F049F9B06A3F2101FAC5
:1027900000F0B8602068016841F016010160F0683F
:1027A00020B12068016841F00801016020680168DB
:1027B00041F00101016001E0357002252846F2BDBB
:1027C000F8B5044604F134056E6AFFF755F807467C
:1027D0006878022805D08021296200202870012015
:1027E000F2BD2068016821F01601016000F003F9D4
:1027F000E868002804BF6869002801D000F007F9E4
:1028000000F0FFF820680168CA070CD5FFF734F81C
:10281000C01B0628F6D320202862032169700020FF
:1028200028700320F2BDA86A3F218140B1600020DA
:10283000012169702870F2BD90F83510022903D08B
:102840008022426501207047052180F8351000681C
:102850000268520852000260002070472DE9FC41D6
:10286000044604F1340600205F4900904FF41650EE
:10287000776A0A683D68B2FBF0F8B06A082100F098
:10288000B6F80ED02068026853070AD5026822F015
:1028900004020260B06A8140B960316A41F001010E
:1028A0003162B06A25FA00F1CA070BD521684A697E
:1028B000110607D5012202FA00F0B860306A40F034
:1028C00002003062042100F091F808D021680A6803
:1028D000930704D5B860306A40F0040030621021DC
:1028E00000F084F81BD021680A68130717D5B86078
:1028F000206801684A0307D5006801030BD5716998
:1029000069B1204688470AE00168CA0503D4016816
:1029100021F008010160F16809B120468847B06ADA
:10292000202100F064F83FD021680A68D3063BD527
:10293000B8602068717805291CD1026822F016025F
:10294000026000F058F8F068002804BF70690028A1
:1029500001D000F05CF83F22B06A8240BA600121E9
:1029600071700020F1693070002939D02046BDE82F
:10297000FC41084701684A0307D5006801030FD4EA
:10298000316989B1204688470EE00168CA0507D43D
:10299000016821F010010160012070700021317088
:1029A000B16809B120468847306AC8B1306AC107AA
:1029B00010D50520707000F024F80098401C804568
:1029C000009003D320680168CA07F6D40120707014
:1029D00000213170B16919B12046BDE8FC410847BA
:1029E000BDE8F3813F8010F00C000020B06A01FACE
:1029F00000F0054270472068416921F08001416183
:102A000070472068016849084900016070472068E4
:102A1000016821F0080101607047000030B50468CA
:102A2000256825F48025256063608068402802D1F0
:102A3000A260E16030BDA160E26030BD30B50168E8
:102A400008A401F0FF02103A1823B2FBF3F2890A3E
:102A50008902A55CC565042A28BF091D8165084651
:102A600030BD0000000610160006101670477047B3
:102A7000704700002DE9F04104000F4654D0494E44
:102A8000306800F00700B84202D200F073F84BD172
:102A90002068454D810712D5400703D5A96841F448
:102AA000E051A9602078010703D5A86840F4604090
:102AB000A860A968A06821F0F0010143A96021780D
:102AC000C80729D56068012802D129688A0305E072
:102AD000022818BF032803D129688A0103D423E000
:102AE00029688A0720D5A968890840EA8100A8607A
:102AF000FEF7C2FE8046A868616800F00C00B0EBEB
:102B0000810F09D0FEF7B8FEA0EB080041F2893131
:102B10008842F0D303202BE0306800F007008742A2
:102B200004D200F027F801D0012021E020784107ED
:102B300005D5AA68E06822F4E0520243AA60217831
:102B4000080706D5A968206921F4604141EAC0015F
:102B5000A96000F035F8AA681449154BC2F30312B6
:102B6000895CC84018601348006800F009FA00202A
:102B7000BDE8F0813770316801F00701B942704754
:102B80000B480D4A006813680C49C3F3822206E023
:102B90000748094A006813680849C3F34232895C50
:102BA000C8407047003C02400038024024550008ED
:102BB0000C00002008000020083802403C560008A5
:102BC00030B5144C606800F00C00042802D00828CE
:102BD00002D01DE0104830BD226820680023410269
:102BE00002F03F0204D525680B49C5F3881003E0C5
:102BF00020680A49C0F38810A1FB000100F010F81A
:102C00002168C1F30141491C4900B0FBF1F030BD1E
:102C1000024830BD0438024040787D010024F400B1
:102C2000D3BBD9B1B2F5803F5BD2022A1ED98C4604
:102C3000B1FBF2F102FB11C31B0443EA1043B3FBE7
:102C4000F2FC02FB1C3380B240EA0343B3FBF2F018
:102C500002FB103240EA0C4000237047022A05D9DB
:102C60008446B0FBF2F002FB10C270474AB105D1B6
:102C700000F0010249085FEA30007047002200239B
:102C8000704700F09DB90B00020000210020704742
:102C9000F7D3002200237047904271EB030CF2D36C
:102CA00070B5B1FA81F4B3FA83F52C1BA340C4F1DB
:102CB000200532FA05F63343A2405FF00046E640B5
:102CC00002E05B085FEA3202841A71EB030524BF5D
:102CD000204629467641F4D302000B003000002143
:102CE00070BD70B5B1FA81F4B2FA82F5C4F1200476
:102CF0006419B4F12006DAD3B2405FF00044F44026
:102D0000002502E052085FEA3303C61A71EB020E97
:102D100024BF3046714664416D41F3D302000B007D
:102D20002000290070BD000080B5284828490160B6
:102D30004FF4827208214260C16100234FF4007297
:102D40000A218360C360036143618261036243625D
:102D50008362C162FFF784F918B1BDE8014000F059
:102D6000ABB801BD10B586B004461422002101A8FD
:102D7000FFF74CF921681648814224D100221548FA
:102D80000092016941F480410161016901F48041CF
:102D90000091009900924FF46041036843F00203F0
:102DA00003600222006800F00200009000980A48C8
:102DB00001910292002103910322052105910492C1
:102DC00001A9FDF7D3FF06B010BD0000B408002034
:102DD00000380040303802400004024080B500F066
:102DE000F1F800F013F800F007F900F013FA00F022
:102DF0002BFAFFF750FBFFF764FBFFF735FBFFF7FC
:102E00003EFBFFF791FF00F0BBFAFEE780B592B002
:102E10003022002106A8FFF7F9F81422002101A8AA
:102E2000FFF7F4F8002000902148016841F080513C
:102E300001600021006800F08050009000981D485B
:102E400000910221026842F480420260012200687F
:102E500000F48040009000980691099210210A9198
:102E6000022200210C920D9110224FF4A8710E92B3
:102E70000F91022204211092119106A800F0BEFACF
:102E800008B172B6FEE702210291002203920F20E0
:102E90004FF4A051019004914FF480520592052106
:102EA00001A8FFF7E7FD08B172B6FEE713B000BD59
:102EB000403802400070004072B6FEE7090102008F
:102EC00002D4294881547047284B02F00F021A445B
:102ED00002F8041C7047264B19684FF6FF020002E7
:102EE000114000F4E060084322490843186070472D
:102EF00070B51F4B1C68C4F302230124C3F10705FE
:102F0000052D2EBF0F2504FA05F56D1E1E1D072E7B
:102F100034BF0023DB1E2940994004FA03F3BDE8C7
:102F200070405B1E1A401143C8E7010007D401221C
:102F300000F01F01104B8A40400943F820207047E1
:102F400010B5401EB0F1807F01D3012010BD0B4CA5
:102F500060600F214FF0FF30FFF7B0FF0021A1604C
:102F600007202060002010BD00E400E018ED00E024
:102F70000CED00E00000FA0500E100E010E000E0E8
:102F800038B50D4D0D4B2A7804464FF47A71186808
:102F9000B1FBF2F2B0FBF2F0FFF7D2FF50B9102C08
:102FA00008D2002221464FF0FF30FFF7A1FFAC60AE
:102FB000002032BD012032BD000000200C000020A6
:102FC0007047000080B50B48016841F40071016052
:102FD000026842F480620260016841F4807101601D
:102FE0000320FFF778FF0F20FFF7CAFF00F094FBE4
:102FF000002002BD003C02402DE9F84F86B01422AB
:1030000000216846FFF702F800217448DFF8D091EC
:10301000DFF8D0A1DFF8D0B1DFF8D081059140F220
:10302000EF35026842F0100202600022016801F0F0
:103030001001059141F601570599059248F24006A5
:10304000036843F00403036040F2FF24016801F0C9
:103050000401059105990592036843F0010303609B
:10306000016801F00101059105990592036843F09B
:1030700002030360016801F00201059105990592C0
:103080002946036843F008030360006800F0080065
:10309000059005984846FDF74FFF002239465046F7
:1030A000FDF74AFF002231465846FDF745FF012251
:1030B0004FF480714046FDF73FFF00222146404615
:1030C000FDF73AFF00224FF47E714948FDF734FFC7
:1030D000009500F097F84846FDF748FE41F21000D1
:1030E00000904FF4881501950221029148466946E7
:1030F000FDF73CFE009700F085F85046FDF736FEE0
:1031000040F2022100910195022102915046694648
:10311000FDF72CFE01200021019002220391029272
:10312000009669465846FDF721FE4FF4C040002145
:10313000009001910222029269464846FDF716FE70
:103140000122019202924FF48071009100220392B9
:1031500069464046FDF70AFE009400F053F84046E9
:10316000FDF704FE4FF48060002100F043F84FF4B7
:1031700000604FF4041100F03DF84FF47E710091AF
:10318000012201920221029100220392694618480D
:10319000FDF7ECFD002200210720FFF7A9FE072024
:1031A000FFF7C3FE002200210A20FFF7A1FE0A203C
:1031B000FFF7BBFE002200211720FFF799FE172022
:1031C000FFF7B3FE002200212820FFF791FE282000
:1031D000FFF7ABFE07B0BDE8F08F000030380240CB
:1031E000001002400008024000000240000C0240B3
:1031F0000004024000900191022202926946584662
:10320000FDF7B4BD0120002101900222039102923A
:103210006946704780B50020009000220948016887
:1032200041F4800101600021006800F480000090FA
:1032300000983820FFF75CFEBDE802403820FFF719
:1032400074BE00BF303802401FB51022002168460E
:10325000FEF7DCFE434C444820604FF480310120EF
:10326000206100224148A06261600320E061A26009
:1032700001206061227684F82020E262E26084F816
:103280003020204600F064FA08B1FFF715FE082050
:103290000121009001910722029200F015F808B177
:1032A000FFF70AFE09210091022200F00CF808B194
:1032B000FFF702FE11210091032200F004F808B18B
:1032C000FFF7FAFD1FBD01926946204600F09BBB47
:1032D00038B586B004461422002101A8FEF796FEF8
:1032E0002168214881423AD100222148214D009293
:1032F000416941F480714161416901F4807100913B
:10330000009900920321036843F002030360006800
:1033100000F00200009000980191029100210391B9
:1033200001A91548FDF722FD00216960E9604FF40D
:1033300080611248286029614FF480500022686142
:103340004FF48041AA60A961EA612A626A62284654
:10335000FFF78EF908B1FFF7AFFDA563AC6307B0C7
:1033600030BD00000C090020002001400100000FCA
:10337000303802405408002000040240106402402B
:1033800010B5FDF757FFFDF78FFA00F0EDFDFDF7E3
:1033900094FAFDF714FE01F08FF83220FDF7F8FDE6
:1033A000114C01F016F900F025F8FDF700FB00F0D4
:1033B0001DF801F061FA00F01DF801F071FB00F05A
:1033C00015F800F005FE00F015F8FEF75DF800F0C6
:1033D0000DF801F04DF800F00DF801F098FC00F048
:1033E00005F8DEE700000000C70A0020227810433D
:1033F0002070704721780843207070472DE9F8430A
:10340000040016D02078DFF80063C10713D5B06838
:1034100000F00C00042807D0B06800F00C00082869
:103420003DD1706841023AD53068810303D56068A8
:10343000002800F063812078B44F810719D5B06867
:1034400010F00C0F07D0B06800F00C0008285BD11A
:103450007068410258D43068810703D5E0680128BC
:1034600040F04C813168206921F0F80141EAC00147
:1034700031602178080779D56069A549002868D0AE
:1034800001220A60FEF7F8F90546706F81076DD4D6
:10349000FEF7F2F9401B0228F7D9032031E16068FA
:1034A000B0F5803F04D1306840F48030306011E0E6
:1034B000B0F5A02F306806D140F48020306031682C
:1034C00041F4803105E020F480303060316821F42F
:1034D00080213160606858B1FEF7CEF9054630684A
:1034E0008103A8D4FEF7C8F9401B6528F7D3D4E7B9
:1034F000FEF7C2F90546306881039CD5FEF7BCF99A
:10350000401B6528F7D3C8E7E068A8B101213960FE
:10351000FEF7B2F905463068810705D4FEF7ACF92D
:10352000401B0228F7D9B8E73068216920F0F8007D
:1035300040EAC10030609CE73860FEF79DF905461F
:103540003168880795D5FEF797F9401B0228F7D90F
:10355000A3E70860FEF790F90546706F810705D56F
:10356000FEF78AF9401B0228F7D996E72078410731
:103570005FD5306C0025C1000AD400950125316C5F
:1035800041F080513164306C00F080500090009820
:10359000DFF88081D8F80000C10513D4D8F8000006
:1035A00040F48070C8F80000FEF766F98146D8F84C
:1035B0000000C10506D4FEF75FF9A0EB0900022860
:1035C000F5D96AE7A068012805D00528306F06D133
:1035D00040F004003067306F40F0010005E0400823
:1035E00040003067306F20F00400306741F28938C6
:1035F000A06860B1FEF740F98146306F810713D4AF
:10360000FEF73AF9A0EB09004045F6D345E7FEF78F
:1036100033F98146306F810706D5FEF72DF9A0EB0F
:1036200009004045F6D338E71DB1306C20F08050DA
:103630003064A069002863D0B16801F00C0108294A
:103640003AD002282AD100203866FEF715F905463F
:103650003068810105D5FEF70FF9401B0228F7D924
:103660001BE7E069216A626A0843A16A490840EAE7
:103670008210491E40EA0140E16A40EA0160706040
:1036800001203866FEF7F8F804463068810137D427
:10369000FEF7F2F8001B0228F7D9FEE60020386694
:1036A000FEF7EAF804463068810129D5FEF7E4F810
:1036B000001B0228F7D9F0E601281FD07068E269E4
:1036C00000F48001914202BF00F03F01226A914262
:1036D00001BF47F6C0710140626AB1EB821F0DD194
:1036E000A26A520800F44031521EB1EB024F02BFF1
:1036F00000F07060E16AB0EB016F01D0012000E0E2
:103700000020BDE8F28300BF0038024000004742BD
:10371000800E47420070004081B0002000900022DF
:103720000A48416841F480414160416801F48041A8
:10373000009100990092036843F080530360006891
:1037400000F080500090009801B07047403802406F
:1037500070B5044600250CB9012070BD04F1300697
:10376000306920B92046FFF7B3FD756135733069C4
:10377000C10600F192803069DFF8C01320F4885050
:1037800040F002003061086820F4403008600A68A8
:10379000606802430A602068416821F480714160DA
:1037A00020684168226941EA02214160206841683D
:1037B00021F04071416021684A68A06802434A6074
:1037C0002068816821F40061816021688A68E0686E
:1037D00002438A602068A16ADFF86423914281680D
:1037E00021F0706181600CD021688A68A06A024370
:1037F0008A6000F05BF821688A68E06A02438A60A8
:1038000001E000F053F82068816821F0020100F027
:1038100049F8227E41EA4201816094F82000216843
:10382000002848680FD040F4006048602068416874
:1038300021F46041416020684168626A521E41EA99
:103840004231416002E020F4006048602068C16AB3
:1038500021F47001C1622068C16AE269521E41EA26
:103860000251C1622068816821F4007100F01AF8E9
:10387000327841EA422100F015F821F4806100F02D
:1038800011F8626941EA822181607561316921F034
:10389000020141F00101316100E001250020307397
:1038A000284670BD81602068816870472068816803
:1038B00021F0405181607047126802F01F02102A07
:1038C0007047016841F0804101607047816841F0B4
:1038D000804181607047F8B50446002004F13C0344
:1038E00000901D78012D01D10220F2BD0120187039
:1038F00020688568EE070DD48568974E45F0010570
:10390000856096480568B5FBF6F606EB4606009618
:1039100000F00BF920688568EE0503D5856825F46D
:10392000807585602568A868C60762D55F68884885
:10393000074047F480775F606868450505D558689B
:1039400020F4005040F4805058605868C50446BFC9
:10395000986820F006000020986000251D70A36B79
:103960000FF2FD10D863A36B0FF25D201864A36BF8
:103970000FF25D20D8646FF022002568286020686F
:10398000436843F08063436013462068856845F4CC
:10399000807585600A46206800F14C01A06BFEF737
:1039A000DEFE2068654A6B49136813F01F0F16D1BD
:1039B00088420DD06349884204D1126812F01F0F6B
:1039C0001FD105E0604988421BD1FFF775FF18D26F
:1039D000816811F0405F14D1FFF778FF11E0884251
:1039E00002BF5A48016811F0405F0AD1FFF769FF32
:1039F00007E0586840F010005860986840F00100F7
:103A000098600020F2BD78B502460020009092F840
:103A10003C30012B01D1022072BD012082F83C0014
:103A200007240B6810680A2B11D30A3BC56803EB07
:103A3000430300F076F8C460C3680D688C68A5F194
:103A40000A0606EB4606B4402343C3600FE005694F
:103A500003EB430304FA03F325EA03030361036959
:103A60000D688C6805EB4505AC40234303611F24BA
:103A70004B68072B0CD25B1E456B00F050F844637B
:103A8000436B4D680C886E1E00F044F843631BE0E6
:103A90000D2B0CD2DB1F056B00F041F80463036BA8
:103AA0004D680C88EE1F00F035F803630CE00D3B09
:103AB000C56A00F034F8C462C36A4D680C88A5F189
:103AC0000D0600F027F8C362224B98421DD10C6806
:103AD0001A48122C03D1036843F4800303600B6877
:103AE000102B18BF112B10D1036843F4000303609F
:103AF0000868102809D11949174C0B68B3FBF4F476
:103B00000A204443009400F010F8002182F83C1091
:103B1000002072BD06EB8606B4402343704703EBDA
:103B200083039C4025EA0404704702E00098401E8D
:103B3000009000980028F9D170470000042301404C
:103B40000100000F00210140002201400820014037
:103B5000FEF9FFFF0020014040420F000C00002052
:103B6000816B0A6C12F0500F24D1086C40F4007085
:103B700008640A68906810F0405F04BF087E00285F
:103B800015D1D06A10F4700F02D0906843050ED49E
:103B9000506820F020005060086C20F480700864A9
:103BA000086CC20403D4086C40F0010008640846A5
:103BB00001F0E4B80A6CD30644BF084601F0DFB850
:103BC000896BCA6C10470000806B01F0D9B8000007
:103BD000806B40210164426C42F00402426401F0B7
:103BE000CEB8000010B5DFF82C4401212046FCF7C8
:103BF000C7FF052120462AE178B50FF2AC41DFF876
:103C00001864D1E9002385B003ADCDE90123019506
:103C1000042100910446DFF804542978022303228A
:103C200001A801F0C6F8DFF8F85301224021284628
:103C3000FDF782F90520FDF7ABF9B2883068002165
:103C4000FCF77BFF0020B08000F020F9002240212B
:103C50002846FDF771F9DFF8BC5302212846FCF72E
:103C60008FFF032100F0B6F800F0B3F8012006B092
:103C700070BD10B50146DFF8A0038288DFF8940319
:103C80005AB1DFF8A0331C88944205D100221A8073
:103C90000321FCF775FF02E01A80FCF779FF012091
:103CA00010BDF8B5DFF87043A1882068DFF87853BD
:103CB0004218921E5378167846EA0326891E01F0B0
:103CC00060F8DFF858134A7BB0424FF6FF731AD101
:103CD00020680F780678BE4204BF4678032E17D1BD
:103CE000C678077947EA06274F800127467A807A07
:103CF00040EA0620642690FBF6F68E802F701700AF
:103D000006D0521E04E04B808B8000202870521C8D
:103D1000A08818B94B808B802870521C087BD3B2C6
:103D20009BB94B886E2B05DA0228D8BF401C04DDF6
:103D3000032005E0030018BF401EC3B2022B01DDC3
:103D4000002306E033B9012303E0022B02DD032246
:103D50000223CB7108734A730221AE48FCF722FF9D
:103D60000120F2BD7CB5AD4EAA4D327A0446F07901
:103D700090422AD005216846FCF71AFF684600F0F9
:103D80006AF801466846FCF737FDF079307200F0BA
:103D900085F8F0799EA618B95FF01802A7A108E08F
:103DA000012803D15FF01702AAA103E05FF01F0210
:103DB000AEA10120FCF7C8FE032231460120FCF72A
:103DC000C3FE06212846FCF7DBFE00F002F80120C6
:103DD00076BD21462846FCF7DBBE38B5934C8F4AAA
:103DE000A179D07920BB012905D10123012200212D
:103DF0000520FDF7CFF9E078012803D107218C4891
:103E0000FCF7BEFE6079012805D1012301220021C3
:103E10000420FDF7BFF9E079864D012803D1032185
:103E20002846FCF7ADFE02212846FCF7BBFE06E063
:103E300029B90123012201210520FDF7ABF9012059
:103E400032BD10B5044600F097F821467148FCF7E2
:103E50009FFE012010BD1CB504460020ADF80000F7
:103E60000F21217001226D4862700322C379A37073
:103E700021466846FCF7BCFEBDF80000E070052056
:103E8000BDF80010090A217116BD0000BDF8082018
:103E9000019969484FF47A73FDF739BD80B500F098
:103EA00043F800F045F8C1798DF800208DF8021034
:103EB0004FF48040FDF776FB0120FDF769F80322FF
:103EC0004FF480412CE080B500F02EF803224FF42F
:103ED00080416846FDF717FC9DF80000AA2804BF42
:103EE0009DF80110012906D19DF80200022802DC8C
:103EF0004A49C871087201BD80B500F015F800F09C
:103F000017F801788DF800208DF802104FF4A040CA
:103F1000FDF748FB0120FDF73BF803224FF4A041D9
:103F20006846FDF7D2FB01BD03216846FCF740BEA1
:103F300001218DF80110AA223848704780B5FFF79B
:103F4000F3FF03224FF4A0416846FDF7DCFB9DF828
:103F50000000AA2804BF9DF80100012803D19DF8A4
:103F600002002E49087001BD80B5FFF7E7FFBDE8EC
:103F70000140A8E7000000003EB505216846FCF7B7
:103F800017FE264CA27961886846FCF79CFE054620
:103F90005FF012023DA10220FCF7D6FD2A466946D9
:103FA0000220FCF7D1FD05223DA10220FCF7CCFD4B
:103FB000A279A1886846FCF786FE0246694602207F
:103FC000FCF7C2FD032212A10220FCF7BDFD37BDA4
:103FD00070B5002400250F4800EB05167278012A01
:103FE00011D17068012430B1FDF746FC7168B268E8
:103FF000401A904207D300207070FDF73DFC7060BE
:10400000E8B2F16888476D1C072DE4DB204670BDDF
:104010000D0A000018010020F80600208801002089
:1040200000000240D00A0020D70A0020B80A002071
:10403000D40500202C050020540900206170705F19
:10404000656C6563747269633A20504F574552201E
:104050004F4646006170705F656C6563747269639A
:104060003A20504F574552204F4E00006170705F0C
:10407000656C6563747269633A20504F57455220EE
:10408000444953434F4E4E45435400006170705FA6
:10409000656C6563747269633A20563A20000000CB
:1040A00020413A2000000000000000000000000055
:1040B00070B50446DFF82054DFF820641420A860AF
:1040C0000322307A401C307206F10C01DFF8100434
:1040D000FFF701FC307A642804D101212846FCF75F
:1040E0004FFD03E021462846FCF752FD012070BD3C
:1040F00038B50446DFF8E453DFF8E403032205F1A2
:104100000C01FFF7E8FB58B9A969E8684118A961F3
:104110002869E9694118E9616869296A41182962D1
:10412000697ADFF8B403491C6972C9B2642905DBF6
:10413000002169720221FCF723FD02E02146FCF711
:1041400027FD012032BD000010B5DFF89013DFF825
:10415000943388696422B0FBF2F2C86900EE102A39
:104160006422B0FBF2F2086A81ED060A00EE902AA2
:104170006422B0FBF2F201EE102AC1ED070A81EDD4
:10418000081A40F6E4401C88444301EE904AF8EED9
:10419000611AB8EE411A81EE811A9FEDAC2AF8EE51
:1041A000600A81EE021AB8EE400A60EE810A9FEDC5
:1041B000A83A20EE010ADFEDA62AC0EE830A9FEDA1
:1041C000A51A80EE220AC0EE811A9FEDA32A9FED68
:1041D000A31AF1EE0C2A01EE821A80EE220A71EE89
:1041E000402ADFEDB31A30EE410A62EEA11A30EE3A
:1041F000200A81EE800ADFEDAF0A30EE200A9FED43
:10420000B11A9FEDB12A00EE012ADFEDB01A42EE9D
:10421000001ADFEDAF0A41EE800AB2EE040A20EE8A
:10422000800ABDEEC00A10EE100AA0F10A02FF23B8
:1042300000208A808B718861C8610862AA49C879A8
:1042400018B10521A448FCF79BFC012010BD80B5E6
:10425000A6488178B0F9000000F071F800F08CF801
:10426000012002BD80B568460021016004224FF4A0
:104270008051FDF748FA9DF80000AA280AD19DF860
:1042800001209DF80210954841EA02219DF8032083
:1042900001808270012002BD38B590488178B0F964
:1042A0000420B0F900008C4C914D0B189A4217DB9A
:1042B000687928B90023012201210420FCF76AFF54
:1042C000E87828B90023012201210220FCF762FFCF
:1042D00007212046FCF766FC8649012088700FE024
:1042E000411A91420CDB6879012805D10023012293
:1042F00000210420FCF74EFF07212046FCF748FC74
:1043000000F060F806212046FCF742FC012032BD97
:1043100080B501217048FCF733FC012002BD80B557
:104320007348C178012905D1002301220021022010
:10433000FCF730FF6F4800218170012002BD80B57D
:1043400000230093FCF78EFC644A8DF80200108075
:10435000AA21031290788DF803008DF800108DF8D3
:1043600001304FF48050FDF71DF904224FF48051C5
:104370006846FDF7AAF901BD1FB501AC01206070C8
:104380000021ADF8001015225848415E80788DF864
:1043900004208DF807100A12A2708DF8080005227B
:1043A00001A96846FCF724FCBDF80010BDF8000028
:1043B0006071090A8DF80A1001A80721FCF71CFAA0
:1043C0001FBD00003EB505216846FCF7F1FB434CDC
:1043D000A279B4F904106846FCF775FC054618226A
:1043E00046A100F03DF82A4669460220FCF7ACFBE6
:1043F0005FF0090247A13E4D00F032F8E278B4F9CF
:1044000000106846FCF75FFC024669460220FCF794
:104410009BFB30A400F027F86879012807BF102221
:104420000FF2FC0111220FF2081100F019F8E878E0
:10443000012807BF10220FF20C1111220FF21411E4
:1044400000F00EF800F00FF837BD000000007A44CD
:1044500000F07F4500EC7E460058C5456F12033BD7
:104460000220FCF771BB032221460220FCF76CBB43
:1044700070B500240025184800EB05167278012A53
:1044800011D17068012430B1FDF7F6F97168B26896
:10449000401A904207D300207070FDF7EDF970606C
:1044A000E8B2F16888476D1C082DE4DB204670BD3A
:1044B0000000FA430000F0C202220F490848FFF74B
:1044C0000ABA0000CF7389352CAC273A7E8C19408C
:1044D0003D4A77C30D0A0000D40500205406002091
:1044E0000C0900202A7AFF1F88010020C80A00203A
:1044F000B80A002000050020600600206170705F8F
:1045000074656D70657261747572653A2054656D7D
:10451000703A20002053657475703A200000000046
:1045200052656C617920486561743A204F4E2000D5
:1045300052656C617920486561743A204F46462087
:104540000000000052656C617920436F6F6C3A2067
:104550004F4E200052656C617920436F6F6C3A209A
:104560004F4646200000000010B5012129482A4C82
:10457000FCF706FB00F028F80020A080012010BD09
:1045800080B501462448828822484AB1038E93426E
:1045900005D1002202860221FCF7F2FA02E002862F
:1045A000FCF7F6FA012002BD10B51B4C0121204694
:1045B00000F074FD00F008F80020A08001211548EB
:1045C000FCF7DEFA012010BDA28820680021FCF76C
:1045D000B4BA70B5002400250E4800EB05167278B9
:1045E000012A11D17068012430B1FDF745F97168D5
:1045F000B268401A904207D300207070FDF73CF972
:104600007060E8B2F16888476D1C032DE4DB20463A
:1046100070BD000010000020F006002010B5A74C6F
:10462000A07848B13D2807DA00202081A072E07010
:1046300000F09DF801212171012010BD38B59F4C7B
:104640009F4DE1780020491CA071E17028460321AC
:10465000FCF79EFA04212846FCF79AFA0221284624
:10466000FCF78EFAA07800F087F8012032BD70B513
:10467000924D934C0646687903280BD1FDF7FCF860
:10468000616B401AB0F57A7F0AD2287A401C022169
:104690002872697131462046FCF77AFA012070BD14
:1046A00000F08CF80020687103212046FCF77AFAAC
:1046B000F4E780B500F082F88048427A0021521C6D
:1046C00041714272012002BDF8B584B00020ADF8FE
:1046D000000001AC79497B4D0A788878012A25D100
:1046E0008A798B7A4E78CF78D318B7428B720CD2F6
:1046F00040218DF804100423A0706370E2702771CC
:10470000667100F034F806261BE00022A0700A71E2
:104710000422087A497A62704126E370207161713F
:104720008DF8046000F068F8062608E000220A719F
:10473000162101228DF804106270A070032600205B
:104740002870324601A96846FCF752FABDF800000D
:10475000A055761CBDF80020F0B2120A2254761C37
:10476000F1B201A8FCF748F8012005B0F0BD012125
:104770005348FCF705BA000070B5441EE4B20A20A5
:10478000DFF844615DA394FBF0F533F8151056F89B
:1047900025000122FCF7D0FB0120FCF7F9FB0A20E1
:1047A0005AA100FB154406EB840031F81410C069CF
:1047B000BDE870400122FCF7BFBB000070B50024CB
:1047C000DFF804514DA636F8141055F824000022E5
:1047D000FCF7B2FB641C072CF5DB00BF4BA60024E2
:1047E00005EB840036F81410C0690022FCF7A4FB26
:1047F000641C0A2CF4DB70BD1CB5304CA17800F0B1
:1048000038F8152231A100F02CF800F02DF8002026
:104810008DF801005FF0050232A100F022F8A17AC4
:1048200000F027F800F020F800208DF801000822A1
:104830002EA100F016F8217A00F01BF800F014F811
:1048400000208DF8010007222AA100F00AF8617A01
:1048500000F00FF800F008F8032217A100F001F8AB
:1048600013BD0220FCF770B9022269460220FCF752
:104870006BB96846FCF702BA70B5002400251048F1
:1048800000EB05167278012A11D17068012430B14D
:10489000FCF7F2FF7168B268401A904207D300201B
:1048A0007070FCF7E9FF7060E8B2F16888476D1C32
:1048B000042DE4DD204670BD0D0A0000AC0A002086
:1048C0004400002000050020940000206170705F0B
:1048D0006374726C5F6D6F746F723A20506F733ACD
:1048E000000000002049523A00000000204561729B
:1048F0006C793A00204C6174653A000004000200B3
:1049000001000010000800040080000008001000F2
:1049100020004000800008001000200040008000BF
:1049200080B501216F48FCF72BF9012002BD70B55D
:1049300004466D4D4FF480412846FCF7F7FA401EBF
:1049400080416A4EC00F30704FF400512846FCF78A
:10495000EDFA401E8041C00F70700221614D284663
:10496000FCF70EF921462846FCF712F9012070BD2C
:1049700010B55E4C2078012806D1607801280BD153
:1049800001210320A1710CE0002804BF60780128F8
:1049900005D10220012104E008B9012000E0002037
:1049A0000146534A5170607121796079884205D07F
:1049B0000122A27003214B48FCF7E2F8A17960794B
:1049C0002071012908BF002806D1A0714949C87982
:1049D00010B14948FCF7CCFC012010BD1CB50446C1
:1049E0004248017801291FBF4178012981780129B6
:1049F0000AD100228270684600F00CF80146684631
:104A0000FBF7FAFE00F022F821463648FCF7C0F822
:104A1000012016BD1CB504460020ADF80000312170
:104A2000217002223148627004220178A17021466F
:104A30004378E3706846FCF7DBF8BDF800002071AE
:104A40000620BDF80010090A617116BD70B5192263
:104A50002AA1264E0FF2C8042FA500F01EF83078C8
:104A6000012807BF052229460622214600F015F835
:104A70005FF009022CA100F010F87078012807BF40
:104A8000052229460622214600F007F8BDE87040BD
:104A9000032213A10220FCF757B80220FCF754B8F8
:104AA00070B5002400250F4800EB05167278012A26
:104AB00011D17068012430B1FCF7DEFE7168B26874
:104AC000401A904207D300207070FCF7D5FE70604A
:104AD000E8B2F16888476D1C042DE4DB204670BD08
:104AE0000D0A0000D800002000100240C00A00207B
:104AF0000005002088010020A0BB0D006170705FE0
:104B0000646F6F725F73656E736F723A20446F6F7C
:104B100072313A20000000004F50454E0000000066
:104B2000434C4F534500000020446F6F72323A20CF
:104B30000000000080B502218648FCF721F8012022
:104B400002BD80B501468448026E0368934238BFB7
:104B50000260426E4368934238BF4260826E83684F
:104B6000934238BF8260002202664266826610303D
:104B7000FCF70EF8012002BD3EB5774D04462868CB
:104B800010B1287B401C28736868512802D3287B09
:104B9000401C2873A868A12802D3287B401C2873D6
:104BA000002028606860A860287B88B3684600F011
:104BB0007CF801466846FBF71FFE00F091F8287B61
:104BC000022823DB042105F11000FBF7D9FF287B25
:104BD00003281BD1012301220121FCF7DBFAFCF79A
:104BE0004BFE0146286F091A4EF66022914204D20C
:104BF00018B142F21070A86402E041F28831A96451
:104C0000032100F04EF8FCF737FE286700202873D8
:104C100000F046F801203EBD80B5012301220021AD
:104C20000320FCF7B7FA012002BD70B54A4D4B4E88
:104C30000446A86D962819D1707860B90121052025
:104C4000FCF7EAFA3178091F022998BFC82022D957
:104C50001E21A96520E00020414A707030700520B7
:104C60009179FCF7D9FA0020A86517E0002105200A
:104C7000FCF7D2FA9620A8653078401C3070C0B29C
:104C80000A2809DB002030707078401C7070C0B2B8
:104C900010B94FF47A70A86500F002F8012070BDD9
:104CA000214605F11000FBF773BF1CB50446002038
:104CB000ADF80000302121700122274862700322E4
:104CC000037BA37021466846FBF792FFBDF8000006
:104CD000E0700520BDF80010090A217116BD000022
:104CE00080B51D48017B6846FBF7C8FF5FF01602E0
:104CF0001CA10220FBF728FF012269460220FBF7D6
:104D000023FF032212A10220FBF71EFF01BD70B595
:104D100000240025104800EB0516727C012A11D1F1
:104D20007069012430B1FCF7A7FD7169B269401ABE
:104D3000904207D300207074FCF79EFD7061E8B2CA
:104D4000F16988476D1C052DE4DB204670BD00002D
:104D50000D0A00008806002078060020D40A0020F2
:104D6000B80A00206170705F7669625F73656E7368
:104D70006F723A204C6576656C2000007047704772
:104D8000704730B503464FF6FF7000240DE01A5D02
:104D9000504008224508C00752BF284685F42040ED
:104DA00080F00100521EF5D1641C8C42EFDB80B212
:104DB00030BD38B5044625680498297021684A70CA
:104DC0001A0A2568AA70020A2168CB700621236896
:104DD0001A71256868712068FFF7D3FF2168887110
:104DE000000A2268D0710820A080012032BD000096
:104DF00080B500F055F80222A7A100F053F8FCF7A7
:104E00001FFABDE80140FBF79BBF80B5DFF83C030C
:104E10008288016800F046F8BDE8084003229EA1A0
:104E2000E3E070B586B004460D4616216846FBF7F0
:104E3000BFFEAA228DF800201422A088C34E8DF850
:104E4000010000210020B0803068FBF776FE0DE005
:104E50002068415D0DEB050291702068415D32686C
:104E6000B08811546D1CB188491CB180EDB2A08886
:104E70008542B8BF142DEBDB4FF40050FCF792FBDA
:104E8000A288921C92B24FF400516846FCF71DFCB8
:104E900000F006F80222ABA100F004F806B070BDE5
:104EA0000222A9A10120FBF74FBE00001CB500F0B3
:104EB0005AF8A748C278B0F900106846FBF703FF1C
:104EC00004460C22A7A140E0F8B5026811782D290C
:104ED00071A49DA507D130231370026800F017F864
:104EE00080B2404204E030390A2908D200F00FF8BD
:104EF000FF2100B2FFF723FA0222294601E0052232
:104F00009BA1FFF7CFFF2146BDE8F8406CE0868803
:104F10000021002301E0491C5B1CB34203DAD75C8B
:104F2000303F0A2FF7D3C9B21046FBF7CABD0000C5
:104F30001CB500F018F88648C27881786846FBF7FF
:104F4000C2FE04465FF00D028BA10120FBF7FCFDC1
:104F5000224669460120FBF7F7FD032279A10120D3
:104F6000FBF7F2FD13BD05216846FBF721BE0000EB
:104F700070B500F03DF80DD200F040F8744DFBF72D
:104F8000A0FDA870FF21B5F90000FFF7D8F90222B3
:104F90006DA102E05FF0050275A120E01CB5FFF7EE
:104FA000E2FF6C4A11786846FBF768FE04460B2264
:104FB00075A1CAE770B500F01BF80ED200F01EF81C
:104FC000FBF77FFD00B2411EFF2906D2614A107037
:104FD000FEF792FF02225CA101E0052264A1FFF727
:104FE00061FF2146BDE8704002220120FBF7ACBD05
:104FF0000268117830390A2952A470478588002147
:10500000002301E0491C5B1CAB4203DAD65C303E56
:105010000A2EF7D3C9B21046704780B50068405CCD
:10502000303804D1012301220021012004E00128AD
:1050300004D1012301220121FCF7ACF810E080B576
:105040000068405C303803D101230122002104E0D4
:10505000012805D10123012201210520FCF79AF83E
:10506000BDE80140FCF7ECB810B500683A4C405C74
:10507000303808BF032108D001280BD13549C87941
:1050800040B13648FCF774F902212046BDE81040D3
:10509000FBF776BD10BD00000D0A0000FEB5054609
:1050A0003CA00C46D0E90023CDE90023002007E016
:1050B000A2F141031A2B3CBF20320A54401C80B29B
:1050C000A988884205DA29680A5C3D2A18BF3F2A68
:1050D000EED10027224A02EB0716294606F1080006
:1050E00000F05CF8010001D4706820B97F1C0C2F1F
:1050F000F0DD0020FEBDB08941180BE0BDF80400D2
:10510000802806D2009B1A54BDF80400401CADF85C
:105110000400491C89B2AB8899420ADA2868425CCB
:105120000D2AEBD15B1E9942E8DA084440780A2840
:10513000E4D1641E012C03D87268002168469047B0
:105140000120FEBD0D0A00004F4B0000100500209D
:1051500054060020880100202C050020A0BB0D0073
:10516000D4520008536574757054656D703A200010
:105170004552524F5200000054687265736854657E
:105180006D703A2000000000536C61766520494440
:105190003A2000000C070020000000002DE9FE4F1F
:1051A00005464FF000090E46ADF80490C846296840
:1051B0000878212808BF4FF0010800272DE0002CB7
:1051C0000FFA8BFB3AD12968336811F80A20DB19F2
:1051D00013F80A108A421ED1DA46A9888A4533DAC2
:1051E0002A6812F80A107C290AF1010BE7D1BDF9EF
:1051F000040010B901240AEB070901A800900FFA76
:1052000089F3324629460FFA8BF000F032F8C1B22A
:105210000129D4D11BE07F1C3FB2B088874219DA44
:105220002968306811F80820C35D9A42F3D1002440
:10523000012008F1010AADF80440CEE7BDF90410E1
:105240008A45C9DA8A46C8E7C0B20128E3D1414697
:10525000384602E041464FF0FF3000F002F8BDE86A
:10526000FE8F29B1002802D44FF0FF307047002094
:1052700070472DE9F84604460D46089801214FF085
:10528000000C4FF0FF3914E097880CEB030A5745E8
:1052900002DA791C0180494616F80CE01668F61807
:1052A00016F80C70BE450CF1010618BF49460FFAFE
:1052B00086FCAE880CEB0407B74207DA2F683E196C
:1052C00016F80C707C2FDFD1644404800846BDE8DA
:1052D000F286000000000000F14D0008DC550008D7
:1052E0000B000000010000000B4E0008E85500080C
:1052F0000800000002000000234E0008F4550008DA
:105300000800000003000000AD4E00087C550008B6
:105310000D00000004000000C94E00088C55000874
:105320000D00000005000000314F00089C550008EA
:105330000E00000006000000714F0008AC55000888
:105340000E000000070000009D4F000800560008F6
:105350000B00000008000000B54F00080C560008C4
:105360000B000000090000001B500008BC5500089D
:105370000C0000000A0000003F500008185600080A
:105380000A0000000B0000006950000824560008C5
:105390000A0000000C000000000000004456000855
:1053A00006000000FEE7FEE7FEE7FEE7FEE77047C7
:1053B0007047704714480168491C016000F030B81C
:1053C0000220FBF7C5BD1020FBF7C2BD4FF40070F3
:1053D000FBF7BEBD0D48FCF718BB0D48FCF715BB2D
:1053E00080B54FF40060FBF7B3FDBDE802404FF419
:1053F0008050FBF7ADBD0748FCF707BB0648FDF73B
:105400002DBA0648FCF701BBCC0A00209809002001
:10541000DC0900205409002054080020200A002044
:105420000248416802788A184260704700000020F4
:10543000F0B40246106895681318506803EB5004E6
:10544000C0071CD54D441AE013F8017B05F8017B19
:10545000491EF9D198B113F8011BC6F38106032E3A
:1054600008BF13F8016B01EB06214942801C294457
:1054700005D011F8016B05F8016B401EF9D1A3426C
:105480000ED013F8016B16F0030104BF13F8011BD3
:10549000C91C30090F28DBD113F8010B0F30D7E7F7
:1054A000F0BC02F10C00704710B50749794418317F
:1054B000064C7C44163404E00A68081D11448847F1
:1054C0000146A142F8D110BD2C00000048000000A8
:1054D0004EF68851CEF20001086840F47000086072
:1054E000BFF34F8FBFF36F8F4FF00070E1EE100AE4
:1054F00070470000C3B6FFFFCC0300000C0700207C
:10550000000000002DFFFFFF580200001204000001
:10551000000000200248016841F4700101607047FA
:1055200088ED00E00000000000000000010203041C
:105530000607080900F00DF8002801D0FFF7B4FFB6
:10554000AFF300800020AFF30080FDF747FC00F0D0
:1055500002F80120704700F001B800000746384605
:1055600000F002F8FBE7000080B5AFF30080024ACC
:1055700011001820ABBEFBE72600020061742B73FC
:105580006574757074656D703F00000061742B73F5
:105590006574757074656D703D00000061742B74E6
:1055A000687265736874656D703F000061742B7478
:1055B000687265736874656D703D000061742B726C
:1055C0006C73637265656E3D0000000001488047A2
:1055D00001480047155500083156000861742B72C8
:1055E000657365746463750061742B736572693FDC
:1055F0000000000061742B736572693D00000000BB
:1056000061742B736C61766569643F0061742B7300
:105610006C61766569643D0061742B726C6C616DC0
:10562000703D000061742B726C7761726D3D0000FB
:10563000AFF30080FFF74CFFFFF77CFF0000000096
:105640000102030461742B656E640000FFF7FEBF66
:10565000FFF7FEBFFFF7FEBFFFF7FEBFFFF7FEBF7E
:10566000FFF7FEBFFFF7FEBFFFF7FEBFFFF7FEBF6E
:10567000FFF7FEBFFFF7FEBFFFF7FEBFFFF7FEBF5E
:10568000FFF7FEBFFFF7FEBFFFF7FEBFFFF7FEBF4E
:10569000FFF7FEBFFFF7FEBFFFF7FEBFFFF7FEBF3E
:1056A000FFF7FEBFFFF7FEBFFFF7FEBFFFF7FEBF2E
:1056B000FFF7FEBFFFF7FEBFFFF7FEBFFFF7FEBF1E
:1056C000FFF7FEBFFFF7FEBFFFF7FEBFFFF7FEBF0E
:1056D000FFF7FEBFFFF7FEBFFFF7FEBFFFF7FEBFFE
:1056E000FFF7FEBFFFF7FEBFFFF7FEBFFFF7FEBFEE
:1056F000FFF7FEBFFFF7FEBFFFF7FEBFFFF7FEBFDE
:10570000FFF7FEBFFFF7FEBFFFF7FEBFFFF7FEBFCD
:10571000FFF7FEBFFFF7FEBFFFF7FEBFFFF7FEBFBD
:10572000FFF7FEBFFFF7FEBFFFF7FEBFFFF7FEBFAD
:10573000FFF7FEBFFFF7FEBFFFF7FEBFFFF7FEBF9D
:10574000FFF7FEBFFFF7FEBFFFF7FEBFFFF7FEBF8D
:10575000FFF7FEBFFFF7FEBFFFF7FEBFFFF7FEBF7D
:1057600043010001221008100224F4000011120568
:105770000C6006881300006945000820211412817E
:105780001092021012A9109200012114C31D463478
:10579000C33D4634126F105203101003B80B0000C3
:1057A000B310520410217412C9107002000C024090
:1057B00004920804920018A104F202040451C821C2
:1057C00001832149948004D00700002F49942101CE
:1057D00083714994100360EA0000DD10A50813E509
:1057E0003B40511012E829C3F93BD483733C40126B
:1057F000F42812A31052043021502002433E000826
:105800000C210421F48004653D00080600A063DB40
:105810003DA0F0020EFF020200019198C789016CC1
:10582000C33902981271105203308404983A000070
:1058300059056C2114438B05982101210843CB05A0
:105840009821012110500347060008076121F81232
:10585000095025F1211C254812A5205209202114A8
:105860005003090700080A402120124310520B8000
:10587000F007FFA0BB0D007F0700080001F1FF014A
:10588000F166012802980A00209C100318050020E8
:105890000E092007535656444D43323330015A31D6
:1058A000B699EC8F811014044C0480EE3600A310DE
:1058B0007C0321108C0430750000C11014042114E5
:1058C0004FE1107C036D3C038FFB10140412500455
:1058D0008F2F1114042D6C03126D10100200800222
:1058E00000344F0100CF04110111095210046DE87A
:1058F00004F20210049D24048FB14024042D9C0363
:10590000CFF140FC04834941A821014F4F42BC0420
:1059100061018F6542240421018F9942240421E80A
:105920001F1143240451101003E09304001F10F0D2
:10593000031F320019FF0001517421B447354B5C3D
:10594000210112C80783434BB42D4005C3794BB4E2
:105950008F194CD8042101FF092B4C6804478C0790
:09596000E85664F052F010020058
:040000050800563168
:00000001FF
