:020000040800F2
:10000000C81A002059610008515E0008535E0008BC
:10001000555E0008575E0008595E000800000000A9
:100020000000000000000000000000005B5E00080F
:100030005D5E0008000000005F5E0008615E000871
:10004000D9610008DD610008E1610008E561000890
:10005000E9610008ED610008F16100086D5E0008CB
:10006000F5610008F9610008735E0008FD61000891
:100070000162000805620008096200080D620008BC
:100080001162000815620008196200081D6200086C
:10009000216200082562000829620008795E0008D4
:1000A0002D620008316200083562000839620008DC
:1000B0003D6200084162000845620008496200088C
:1000C0004D6200085162000855620008596200083C
:1000D0005D62000861620008815E0008875E0008BA
:1000E0008D5E000865620008696200086D620008A4
:1000F0007162000875620008796200087D6200087C
:100100008162000885620008896200088D6200082B
:10011000A35E0008916200089562000899620008D9
:10012000A95E00089D620008A1620008A56200089F
:10013000A96200080000000000000000AD62000895
:10014000B1620008B5620008B9620008BD6200082B
:10015000C1620008C5620008C9620008AF5E0008FD
:10016000CD620008D1620008D5620008D96200089B
:10017000DD620008E16200080000000000000000ED
:10018000E5620008E962000810B5DFF8540BDFF8FB
:10019000544B002101840E2200F0AAFA00F0B4FAB8
:1001A00008220FF6803100F03DFDA2882068002172
:1001B00000F045FE0020A0800121DFF82C4B00F06C
:1001C00079FA0A2100F076FA0D2100F0E0FA012018
:1001D00010BD38B50446DFF8145B01220121284622
:1001E00000F036FF012000F05FFF002201212846C9
:1001F00000F02EFF2146DFF8F00AA9E110B5014614
:10020000DFF8E00A8288DFF8E00A5AB1DFF8E03A66
:100210001C88944205D100221A80022100F058FF68
:1002200002E01A8000F05CFF012010BD2DE9FC41C6
:10023000DFF8B05ADFF8A87AA9882868DFF8A88A1A
:100240000024ADF804400022C9B200F0EFFCA888F9
:1002500029680A18921E53781678821E46EA0326E9
:1002600092B201A800F04CFFBDF80410B1421CBFCF
:10027000387B002840F03C81F87A70B90C21404668
:1002800000F026FF09E000F049F906D1661CB142F2
:1002900003DB105D01F0D9F83446A988A0B2891EAD
:1002A000821C9142C0F229812A68DFF84CCA105C96
:1002B000641CA4B2631C0B289BB200F0A0800C2825
:1002C00000F0C3800D2800F0C8800E2825D0152826
:1002D00077D01628D7D01B2800F0D98020280FD03F
:1002E000212826D0222834D023284DD0602800F0A1
:1002F000DA80612800F0E480622800F0ED80CCE72D
:10030000105D02281C46C8D1A61CB142C5DB1019DD
:100310004178105D01F0ADF8BEE700F0FFF8BCD108
:10032000601C8142B9DB115D0129B6D100F04AFCA5
:10033000B3E700F0F3F8B0D1661CB142ADDB115D5C
:100340000129AADC002200920123012201F098FA7F
:10035000A2E700F0E3F8A0D1661CB1429DDB115D7D
:1003600001299ADC9CF8120020B10022009201239E
:10037000012207E00846DFF8841908730122009281
:10038000012300210520E1E700F0C8F885D1661CB3
:10039000B14282DB105D0128F8DCDFF8644958B116
:1003A00001280DD19CF8120030B1DFF858190878F7
:1003B00001F083FB022100E00321204600F088FECB
:1003C0006AE7105D03281C4618D1E01C814215DB4A
:1003D000115DDFF834391980641CA4B20902198058
:1003E000105D0143641C1980A4B2DFF82009115D7F
:1003F0009970241D032100F06BFEA4B24DE7105D3F
:100400001C4602199142F9DB002139840B22F9695B
:100410000A70398CFA69491C398489B25054398C74
:10042000491C398409E02B681B5D5354641C398CCA
:10043000491C401EA4B23984C0B2398CFA69002824
:10044000F1D1104600F0E3F927E7165D1C46361996
:10045000B142F9DB05214046B0E7105D1C460219A8
:100460009142F1DB002139830DE0398B142908DA40
:100470002A68135D7A695354641C398B491CA4B2F1
:100480003983401EC0B20028EFD10421F7E600F006
:1004900045F808D1601C814205DB135D012BDCBFF0
:1004A00000243C720446A0B2641C105C0128A4B273
:1004B00006D1661CB14203DB105D00F0D5FA34466C
:1004C00000F030F808D1A888661C801EB04203DB1B
:1004D000085D01F06AF9344600F024F8B4D1A88828
:1004E000661C801EB042AFDB085D01F072F9D3E6F6
:1004F00005210FF63C0000F0B7F9AA88DFF81008D4
:1005000002700021286800F09AFC0020A8800121D8
:10051000404600F0DDFD0120BDE8F681105D0128B8
:100520001C4670472968A0B2641C085C0128A4B26C
:10053000704738B5DFF8A817DFF8AC578A7A044659
:100540004EF660204243AA6300F0A2F921462846F5
:1005500000F0C6FD012032BD38B5DFF88447002029
:100560002084AA21E0690170208CE269218B00F0CF
:10057000B3FA401C2084002009E06169E569C2B239
:10058000401C8B5C218C6B54228C521C2284C1B287
:10059000228B9142F1D34FF4005001F0ADFB228B3E
:1005A000E069921C92B24FF4005101F038FCE1690D
:1005B0000D200870218CE06900F029F9012032BD7E
:1005C00070B5DFF81C27002010840C21D069017061
:1005D000108CD369118B401C108480B219540023F5
:1005E00004E05469DDB25B1C665D4654108C401C0F
:1005F0001084DCB2158B118CD069AC42F1D300F0C1
:1006000006F9012070BD38B50446DFF8DC5605F662
:10061000147001F0D8FC08B900F0D4FA214628463D
:1006200000F056FD012032BD70B5DFF8BC5604461F
:1006300005F61476304601F0C6FC90B1DFF8A0064E
:10064000C17A01290BD105F1E0040122214630468F
:1006500001F098FC95F80311204600F0FAF8092102
:1006600000E02146284600F03BFD012070BD70B53A
:10067000DFF8744604F61475284601F0A4FC18B996
:10068000082100F017F813E0DFF85406C17A0129B9
:100690000BD104F1E00601223146284601F072FC3C
:1006A00094F80311304600F0D4F8092100F06FF8F7
:1006B000012070BD204600F00BBD38B50546DFF8BF
:1006C0002006DFF82446017A0A2903DB0B21FFF715
:1006D000F1FF0BE0491C01721B220021018400F094
:1006E00007F8027A00F010F800F050F8012032BD4F
:1006F000C1690A700122018CC369491C018489B255
:100700005A54018CC3697047491C018489B25A54F8
:10071000018C491C018489B2C06978E038B5DFF8E2
:10072000C025DFF8C445117C0546DFF8E80509BBA4
:10073000002301211372117111740122082100F0AC
:1007400087FC0122009201230021012001F098F88A
:1007500000F01CF80A21204600F0CCFC18220FF211
:10076000D85100F05FFA00F05BFA01F078FC01F07C
:1007700052FD09E00021D17211740022082100F01D
:1007800067FC0C2100F003F8012032BD2946204609
:1007900000F0A6BC10B5DFF84845DFF84C05012293
:1007A000E2720A2100F094FC00212171012010BDA9
:1007B00038B5DFF82C15DFF83055044608780028E6
:1007C00004BF487800281CD18878002804BFC87866
:1007D000002816D10879A0B901F084FD696BAA6BD5
:1007E000401AB0EB520F0CD30721284600F078FCDA
:1007F0000121284600F07EFC0221284600F07AFC08
:1008000003E02146284600F063FC012032BD38B5E4
:10081000002304460D46ADF800302A4621466846BE
:1008200000F06EFCBDF8000060556D1CABB20022FC
:10083000E2546D1C20781B2818BF0E2804D1E9B2A1
:10084000204600F006F831BDE9B2204600F00CF871
:1008500031BD38B504460D4600F06BFC29462046F4
:10086000BDE838400122E1E100B589B000228DF8F1
:10087000231003E0835C0DF80230521C8A42F9DB3E
:1008800000226946DFF8900401F04DFB09B000BD7D
:1008900038B5DFF84C04002101840A22C1690A70CE
:1008A000002200F091F85A54028CDFF84C1400F04A
:1008B0006EF88B7CA354DFF8442400F05FF8547882
:1008C00000F05BF8547900F058F8947900F055F88E
:1008D0001479EC54038CC46900F052F89278E25415
:1008E000DFF83834028C00F05FF8028CDFF8303427
:1008F00000F05AF8FF2300F049F800F046F84B8862
:1009000000F042F84B8800F040F88B8800F03CF88B
:100910008B8800F03AF80B7C00F037F88B681B12DC
:1009200000F033F88B6800F037F81B0E00F034F855
:100930001B0C00F031F81B0A00F02EF8A354028CB7
:10094000C36900F025F8497C9954DFF8B823018C7D
:10095000C469491C018489B21378635400F034F8E7
:1009600052785A54018CC269491C0184891E517005
:10097000BDE83440018CC06949E7EC54038CC5697B
:100980005B1C03849BB270471B0AA354028CC4698E
:10099000521C028492B27047A354028CC469521C48
:1009A000028492B2CB687047C569521C028492B22D
:1009B000B3F900402412AC54028CC469521C028466
:1009C00092B21B88A3547047018CC369491C0184EF
:1009D00089B27047C44800F582732422642100F66E
:1009E000147001F08FBA70B586B01621684601F018
:1009F0007FFC16224FF40051684601F02EFA9DF854
:100A00000020B74CAA2A0DF102000FD19DF8011069
:100A100000222283D3B28B4224DA6569268BC35C21
:100A2000AB55521C238B5B1C2383F3E7AA228DF862
:100A300000200021228B8DF8012003E063695D5CBA
:100A40004554491C9142F9DB4FF4005001F054F930
:100A5000012000F029FB228B921C92B24FF400512E
:100A600000F06AF806B070BD1CB501009C4C08BFD0
:100A700001200021ADF800102184A0726020E169FE
:100A800008700121208CE26900F026F8E269A17A61
:100A9000401C208480B21154218CE069491C2184BF
:100AA00089B2FFF7B4FEA07A8DF80100AA218DF873
:100AB00000104FF4C04001F01FF902224FF4C04172
:100AC00000F03AF8A27A88484EF660214A438263E1
:100AD000032100F005FB13BD401C208480B211549B
:100AE000208C704780B568460021018002224FF4B7
:100AF000104101F0B2F99DF80000AA2806D19DF836
:100B000001007749012814BF0028087301BD80B592
:100B10000021ADF80010AA218DF800107048017B6B
:100B20008DF801104FF4104001F0E6F802224FF466
:100B3000104100F001F801BD684601F070B91CB524
:100B40000100674C08BF012060720321684601F074
:100B5000CFFB607A8DF80100AA228DF800204FF4B7
:100B6000E04001F0C9F803224FF4E041FFF7E4FF51
:100B7000617A5D4A1FE01CB56846002101800222AF
:100B80004FF4C04101F069F99DF80000544CAA28C7
:100B900004BF9DF80100A07202224FF4E0416846B4
:100BA00001F05BF99DF800004F4AAA2804BF9DF8A8
:100BB00001006072617A4EF660204143C2F8C810AD
:100BC00013BD00001FB54FF47A7000F06DFA0521D7
:100BD00001A801F08DFB01AC00210E220120ADF82F
:100BE00000108DF8042060708DF80610032201A912
:100BF000684600F085FABDF80000E07000218DF82D
:100C0000081001A80521FFF724FE092251A100F0D8
:100C100009F84FF4FA7000F047FA00F036FB1FBDF8
:100C2000022234A1012000F011B9000078B59BB078
:100C300004460D461646462109A801F059FB0294C8
:100C4000ADF80C500DF1100045A1132201F054FB3A
:100C50002EB9122204A9012000F0F8F803E01322B3
:100C600044A1FFF7DFFF00BF4AA1BDF80C00D1E9A6
:100C70000023CDE9002309AC4628009407DA02A935
:100C8000684600F0BAF8BDF80420009901E00A2295
:100C90003DA1FFF7C7FFFFF7C3FF1CB070BD70B5E4
:100CA00000240025104800EB05167278012A11D1A6
:100CB0007068012430B101F015FB7168B268401A08
:100CC000904207D30020707001F00CFB7060E8B216
:100CD000F16888476D1C0E2DE4DB204670BD0000D6
:100CE000E0100020D8120020A001002000080240DF
:100CF000C21600200D0A0000880100209416002072
:100D000004110020E2120020B8160020AC110020CF
:100D1000C616002000100240B41000202C12002043
:100D2000301200204F4E5F4D43550D0A0000000069
:100D30004552524F520000006170705F70635F62F5
:100D40006F783A20526573657420506320426F7843
:100D5000000000004F46465F4D43550D0A0000005D
:100D60006170705F70635F626F783A20526563767E
:100D70003A2000006170705F70635F626F783A20A4
:100D80005472616E733A200044617461204C617248
:100D900067650000000000000000000010B5DFF8EB
:100DA000DC200C46116800F005F8A0428041C043E9
:100DB000C00F10BD814204D24FF0FF32101A081844
:100DC0007047081A704738B5034600208DF80000B8
:100DD000002207E0E4B2002A1ABF0A2505FB004002
:100DE0002046521C8A4207DA9C5CA4F130050A2D89
:100DF00034BF303C0024EDE732BD30B500220FE0B7
:100E000004F812300B689C5C056804F00F0405EBD5
:100E100042030A2CACBF37343034521C5C7092B29F
:100E20008B889A4208DA0B689B5C04681B090A2BC2
:100E3000B4BF30333733E3E75B00838030BD13004A
:100E400003D00A46194601F063BA7047032804DA52
:100E50004FF47A730A4801F0A0BA704738B500F031
:100E600006F882B229462046BDE83840EEE704463F
:100E70000D46284601F0C4BD00000000BC1600204D
:100E8000B41500202DE9F84F0D4600267A497B4A1B
:100E90000F23044601202F68B04000EA0708804570
:100EA00040F0CA804FEA460C032707FA0CF76FEAB6
:100EB000070E6F6807F00309B9F1010F1CBF07F0B7
:100EC0000307022F12D1A768D5F80C900EEA070786
:100ED00009FA0CF949EA0707A760676827EA0000E2
:100EE0006F68C7F30017B74038436060B0002F79D0
:100EF00007F00307032F21D0E768D5F808900EEA22
:100F0000070709FA0CF949EA0707E7602F7907F0A4
:100F10000307022F12D1F70804EB870700F01C0922
:100F2000D7F820A003FA09FB2AEA0B0AD5F810B07B
:100F30000BFA09F949EA0A09C7F8209027680EEA6E
:100F4000070E2F7907F0030707FA0CF747EA0E0799
:100F500027606F6817F4403F6ED0002700974FEA74
:100F6000960C176847F48047176000F00C0017686C
:100F700007F48047009703FA00FE009F404F57F8A0
:100F80002C7027EA0E0E3F4FBC4208BF002722D02C
:100F90003D4FBC4208BF01271DD03C4FBC4208BF9B
:100FA000022718D03A4FBC4208BF032713D0394F4D
:100FB000BC4208BF04270ED0374FBC4208BF0527EC
:100FC00009D0364FBC4208BF062704D0344FBC427C
:100FD0000CBF0727082707FA00F0294F40EA0E0048
:100FE00047F82C006FEA08008F6800EA070C6F686A
:100FF000FF0248BF48EA0C0CC1F808C0CF6800EAFD
:10100000070C6F68BF0248BF48EA0C0CC1F80CC05F
:101010004F6800EA070C6F68BF0348BF48EA0C0C32
:10102000C1F804C00F6800EA070C6868C00348BF35
:1010300048EA0C0CC1F800C0761C0F2E7FF62AAFD0
:10104000BDE8F18F0069084018BF0120C0B27047A9
:1010500002B9090481617047426901EA02039143C0
:1010600041EA0341816170470E4A136803421CBF85
:10107000106001F0CFBC7047003C01404438024092
:10108000083801400000024000040240000802400D
:10109000000C024000100240001402400018024000
:1010A000001C0240143C014038B5044601F01AF916
:1010B00014F1010F054602D004480178641801F0CC
:1010C00011F9401BA042FAD331BD00BF000000203F
:1010D00000EB0110012100224170426001207047A5
:1010E00010B500EB01140120607001F0FBF86060A6
:1010F000012010BD00EB011000224270012070475A
:1011000070B50023038000240FE005880B5D5D406F
:1011100008236E08ED0752BF354686F4204585F05A
:1011200001055B1EF5D10580641C9442EDDB0120B6
:1011300070BD0A4601464FF47A735B4801F02DB941
:10114000010015D0FF2801D10A207047FE2801D1E7
:1011500064207047FD2802D14FF47A707047FC2854
:1011600002D142F210707047FB2801D14F487047FE
:101170000120704710B504460846FFF7E1FF0A2139
:1011800014FB01F191FBF0F000B210BD2DE9F04F1E
:101190000F4600250A26002F0446A946B0460AD568
:1011A0002D207F422070012505E040464946A6FBE0
:1011B000008906FB01993846002142464B4601F062
:1011C00051FC002908BF0028EFD140464946B846E7
:1011D00010E0404600213246534601F043FCEBB29A
:1011E00000F13002E254A6FB007B6D1CA8EB07085F
:1011F000304651460A22002301F034FC06465FEADD
:10120000010A08BF002EE4D1E8B2BDE8F08F2DE955
:10121000F04100270029064690464CBF4D420D463E
:10122000FFF7B4FF04466DB34046FFF789FF0A217C
:10123000854203D24D4307F10107F9D1731E611CAA
:10124000FAB26AB101E03255641EE4B21A5D2D2A89
:1012500018BF002CF7D1302232550C467F1EEDE727
:101260000A25B0FBF5F0224660B10A25B0FBF5F087
:10127000D5B2521E5F5D77550028F5D1D2B22E202F
:10128000B0540C46E0B2BDE8F08172B6BFF34F8FA8
:10129000074908480A6802F4E06202430A60BFF3A3
:1012A0004F8F00BFFDE70000F8150020A086010069
:1012B0000CED00E00400FA0510B5CE4C00202081B2
:1012C000A072E0700121CC48FFF702FF01212171DB
:1012D000012010BD38B5C74CC74DE1780020491C2E
:1012E000A071E17028460321FFF7FAFE0421284689
:1012F000FFF7F6FE02212846FFF7EAFEA07800F08D
:10130000D7F8012032BD70B5BA4DBB4C064668799E
:1013100003280BD100F0E6FF616B401AB0F57A7F2D
:101320000AD2287A401C022128726971314620466F
:10133000FFF7D6FE012070BD00F0DCF800206871D8
:1013400003212046FFF7D6FEF4E780B500F0D2F87F
:10135000A848427A0021521C41714272012002BD0C
:1013600038B5A64CA3492268A54D0020A080087876
:10137000012837D18B7A8879C3188B724878CB785B
:10138000834216D24023137000F04BF88A791A5426
:10139000A088236800F041F8CA7800F03BF849784B
:1013A00011540121A088401CA0809348FFF790FEB3
:1013B0002AE000230B714120107000F032F88A7A85
:1013C0001A54A088236800F028F80A7A00F022F85E
:1013D000497A1154A088401CA08000F0A9F8002090
:1013E000287011E000230B71162010700122A088D4
:1013F000236800F012F800F00DF8897811540021EC
:10140000A088401CA0802970A1882068FFF7FFF900
:10141000012032BD1A54A0882268401CA08080B2EE
:1014200070470422A0882368401CA08080B21A5410
:10143000A0882368401CA08080B28A781A54A088B3
:101440002368401CA08080B27047010000D1704723
:1014500010B53D280CDA674A117949B9684901236A
:101460000B7000241470137153705371907018E056
:1014700010BD020000D1704710B53D2810DA0A00F7
:101480000ED007290CDA5B4B1A794AB95C4A012461
:1014900014701C701C7100225A719870597000E011
:1014A00010BD0021BDE810405348FFF711BE0000F9
:1014B00070B5441EE4B20A20DFF848615EA394FBD5
:1014C000F0F533F8151056F825000122FFF7C0FD9E
:1014D0000120FFF7E9FD0A205BA100FB154406EBA4
:1014E000840031F81410C069BDE870400122FFF794
:1014F000AFBD000070B50024DFF808514EA636F8E5
:10150000141055F824000022FFF7A2FD641C072CDC
:10151000F5DB00BF4CA6002405EB840036F8141060
:10152000C0690022FFF794FD641C0A2CF4DB70BD37
:101530001CB5304CA17800F038F8142232A100F02C
:101540002CF800F02DF800208DF801005FF0040267
:1015500033A100F022F8A17A00F027F800F020F87B
:1015600000208DF8010007222FA100F016F8217A43
:1015700000F01BF800F014F800208DF8010006229E
:101580002BA100F00AF8617A00F00FF800F008F8DB
:10159000022217A100F001F813BD0220FFF756BC8C
:1015A000022269460220FFF751BC6846FFF7EEBDF4
:1015B00070B500240025104800EB05167278012A4A
:1015C00011D17068012430B100F08CFE7168B268EE
:1015D000401A904207D30020707000F083FE7060C4
:1015E000E8B2F16888476D1C042DE4DD204670BD2B
:1015F0000D0A0000A416002044000020FC1000206A
:10160000E0100020940000206170705F6374726CC1
:101610005F6D6F746F723A20506F733A0000000074
:101620002049523A00000000204561726C793A006E
:10163000204C6174653A00000400020001000010B3
:101640000008000400800000080010002000400096
:1016500080000800100020004000800010B5DFF876
:10166000BC4504212046FFF733FD05212046FFF746
:101670002FFD06212046FFF72BFD012010BD10B5E0
:10168000DFF89C150446887C20B1DFF898150878AF
:1016900000F013FA82E010B5DFF880450121204602
:1016A000FFF728FD03212046FFF71AFD0121062040
:1016B00000F039F9DFF87015012088710122062148
:1016C00000F007FA01220621012000F049FA01206A
:1016D00010BD80B50021062000F025F9DFF848058F
:1016E0000021817100220621012000F0F2F9002280
:1016F0000621012000F034FADFF830150020C87010
:101700000121DFF81805FFF7EBFC012002BD38B519
:10171000DFF80855A96CB1F5FA6F044605D1002031
:1017200000F006FA2821A96405E0002000F008FA7C
:101730004FF4FA60A86421462846FFF7D1FC012047
:1017400032BD70B5DFF8E864DFF8D0540446307875
:1017500080B1A96D502905D1012000F0E9F92821B7
:10176000A96507E0012000F0EBF95020A865317869
:101770004A1E327021462846FFF7B2FC012070BD98
:1017800010B50446DFF8AC040178012903D102202A
:1017900000F0C6F902E0022000F0D2F92146DFF89D
:1017A0007C04FFF79DFC012010BD10B5010008BFAF
:1017B000012002D01F28A8BF1E20DFF868446178EE
:1017C00000F035F800F01FF8612200F022F82278CE
:1017D00012E010B5010008BF012102D00428D8BFD3
:1017E0000521DFF84044207800F021F800F00BF8E4
:1017F000622200F00EF8627800F08CF9BDE810402B
:101800000068FFF704B8DFF8300403680021818026
:1018100070471A70012281880368491C818089B24F
:101820005A5481880368491C818089B27047DFF867
:10183000F423107051704EF66020DFF8E02341432E
:101840009161704780B5042200F0C7F803224FF47D
:101850000041684600F001FB9DF80010DFF8C4036A
:10186000AA2905D19DF801109DF80220017042704F
:101870004178DFF8A8234EF660204143916101BD15
:101880002DE9F8430E0018BF012E054690469946F3
:1018900047D1089CDFF89073062D37D8DFE805F0B4
:1018A000040B121920273000002000F03CF83E7095
:1018B00064BBFE712AE0012000F035F87E70E4B9C7
:1018C0003E721AE0022000F02EF8BE70F4B97E726B
:1018D0001CE0032000F027F8FE70BCB9BE7215E0D2
:1018E000042000F020F83E7184B9FE720EE005205D
:1018F00000F019F87E7104B93E7300F02AF805E093
:10190000062000F010F8BE7104B97E7332462946F5
:10191000404600F0DEF8324629464846BDE8F84326
:101920001EE1BDE8F183C54A02EB800332F81000E6
:101930001B69012901460CBF012200221846FFF74E
:1019400087BB80B500F04DF800F06EF8BDE80140AF
:1019500078E7F8B500F040F8AA218DF800100722CA
:101960008DF80120B0490B784A788DF802308DF857
:1019700003208B78CA788DF804308DF805200B7918
:101980004A798DF806308DF807208B79CA798DF861
:1019900008308DF80920087B0B7A4A7A8DF80E0002
:1019A0008DF80A308DF80B20487B8B7ACA7A8DF837
:1019B0000F008DF80C308DF80D204FF4405000F0E2
:1019C0009BF90120FFF770FB10224FF4405168464D
:1019D00000F025FA05B000BD10220021684601F094
:1019E000C4B8F8B5FFF7F8FF10224FF4405168462D
:1019F00000F033FA9DF80000AA2804BF9DF80110FA
:101A000007290FD19DF80310874A0129D8BF5170CB
:101A10009DF807100129D8BF51719DF80E000128CB
:101A2000D8BF107305B000BD70B57F4C84482178D5
:101A3000844D854E01290CBF012200224FF4004144
:101A4000FFF706FB607801280CBF0122002202216B
:101A50002846FFF7FDFAA07801280CBF01220022DA
:101A600004212846FFF7F4FAE07801280CBF012290
:101A700000224FF480713046FFF7EAFA20790128FE
:101A80000CBF012200224FF400713046FFF7E0FA4C
:101A9000607901280CBF0122002240212846FFF76F
:101AA000D7FAA07901282846BDE8704007BF012277
:101AB000012100220121FFF7CBBA5C4A0121D1703C
:101AC0004EF66023554A5843906302211046FFF7B3
:101AD000FFBA012800D0704738B557480568002381
:101AE000838050242C700224838805685B1C8380CB
:101AF0009BB2EC54838804685B1C83809BB2E154E6
:101B000081880368491C818089B200F003F8BDE830
:101B1000344075E65A548188491C818089B27047E7
:101B20006CA24A4B32F8101053F82000FFF794BA19
:101B300010B500F00DF8BDE810400122FFF788BA9B
:101B400010B500F005F8BDE810400022FFF780BA9C
:101B500060A33E4C33F8101054F82000704700008A
:101B600010B501280C4636D1012A07BF1A220FF200
:101B7000E0011B220FF2F4010220FFF767F9062CA7
:101B800022D8DFE804F004070B0F13171B0009220B
:101B90003DA116E05FF007023EA112E05FF00C02EB
:101BA0003EA10EE05FF0060240A10AE05FF00C02E9
:101BB00040A106E05FF0050242A102E05FF00502ED
:101BC00042A10220FFF742F9BDE81040022212A113
:101BD0000220FFF73BB910BD70B5002400250F4867
:101BE00000EB05167278012A11D17068012430B11A
:101BF00000F078FB7168B268401A904207D3002069
:101C0000707000F06FFB7060E8B2F16888476D1C7F
:101C1000072DE4DB204670BD0D0A000004110020F2
:101C200088010020E212002094160020E01000201D
:101C3000C6160020C7160020FC10002074110020DA
:101C4000000002400010024000040240A0110020E9
:101C5000757365725F6170705F72656C61793A204F
:101C60004F4E2052656C61793A20000075736572A1
:101C70005F6170705F72656C61793A204F464620F3
:101C800052656C61793A2000454C455641544F529B
:101C90002000000053435245454E2000465249441F
:101CA000474520434F4F4C2000000000414C41521B
:101CB0004D200000465249444745204845415420A4
:101CC000000000004C414D50200000005741524D93
:101CD0002000000000020001800000000320FFF748
:101CE000BDB880B500F0ECF8062000F053FFBDE869
:101CF0000240012000F044BF38B505460324FFF739
:101D0000F0FF4FF47A7000F037F8012803D0641E1A
:101D1000F5D1002032BD00F0D3F8202000F03AFFCA
:101D200000F079F8280400F077F8E8B200F032FF0C
:101D300000F007F84FF47A7000F006F80128E9D0B7
:101D4000E7E7012000F01CBF70B500F0B6F80520F1
:101D500000F020FF05E016F0030F09D00120FFF787
:101D6000A3F900F006F800F01BF80128F3D11CE0FD
:101D70001FE0A52000F00EBF70B500F09EF8052012
:101D800000F008FF04E0B00709D40120FFF78CF948
:101D9000FFF7EFFF00F004F80128F4D105E008E0B8
:101DA000064621462846FEF7F9BF00F0E9FE00206E
:101DB00070BDFFF7C6FF012070BD78B5C1B0044605
:101DC0000D461646FFF78DFF4FF47A70FFF7D4FFEC
:101DD00001281ED100F074F8022000F0DBFE00F0B4
:101DE0001AF8280400F018F8E8B200F0D3FE6420D6
:101DF0000090334601AA2146DFF8CC0000F03EFFF8
:101E0000FFF79FFF6420FFF79FFF012801D142B039
:101E100070BD0020FBE72802000E00F0BBBE70B5CD
:101E200004460D4616464FF47A70FFF78DFF0128E1
:101E30000CD1324629462046FFF7BFFF012805D0C6
:101E40000FF28C01FFF74AFF002070BD0FF29C01DA
:101E50000320FFF703F8012070BD2DE9F8430E467B
:101E6000804691463502370403244FF47A70FFF719
:101E70006BFF012804D0641EF7D10020BDE8F28377
:101E800000F01EF8032000F085FE280E00F082FE10
:101E9000380E00F07FFEF0B200F07CFE03E0FFF7AA
:101EA00068FF08F8010B4846A0F1010980B200283C
:101EB000F5D1FFF746FF0120E0E704490D6804462D
:101EC000002000F05DBE00008C140020BC16002035
:101ED000755F65785F666C6173683A2077726974C4
:101EE00065206661696C210D0A000000755F6578E8
:101EF0005F666C6173683A207772697465204F4B36
:101F0000210D0A0050B50024047043600E4656436C
:101F1000446804619B198360002443680475C360AE
:101F20004175C28250BD38B504461046657D237D9B
:101F300000226D1EAB4223DAE38AEBB11A4660B988
:101F4000E06800F0D9F9E168E08A0844A168E0603F
:101F5000884211D36068E0600EE020695B4218445B
:101F6000206100F0C9F920696168884204D2E18AE1
:101F7000A0684942014421610122207D401C207556
:101F8000104632BD10B5044608461146227DC2B146
:101F9000E28A19B9216900F0AFF910E062B110B11D
:101FA000216900F0A9F92069E18AA268084420614A
:101FB000904224BF60682061207D411E2175012070
:101FC00010BD002010BD007D704730B4002513E027
:101FD00050F8042BD30744BFA9F101039A18091F35
:101FE000042942F8045BFAD213468C0744BF1580DB
:101FF0009B1CC90748BF1D7050F8041B0029E7D17E
:1020000030BC704780B57548754901604FF4165271
:1020100000F01AF800B108E001BD80B571487249BE
:1020200000F00FF800B100E001BDBDE8014001F093
:102030002DB880B56D486E4900F003F800B1F4E7A3
:1020400001BD01604FF4E13200230C214260836046
:10205000C360036141618361C36100F063B980B50E
:1020600064486549FFF7EDFF00B1DEE701BD10B53B
:1020700086B0044614220021684600F076FD2268EE
:10208000574B5E485E499A4219D1002205920B696E
:1020900043F400230B6100230A6902F40022059235
:1020A000059A0593032200F089F8082200F081F8D0
:1020B00000220021342001F005F8342064E04A4B6E
:1020C0009A4219D1002205920B6943F400330B6147
:1020D00000230A6902F400320592059A05930C2246
:1020E00000F06CF8072200F064F80022002126209E
:1020F00000F0E8FF262047E03D48824221D100223F
:102100000592086940F480200861086900F4802085
:1021100000F044F843F002030B60086800F002008E
:1021200005904FF440610598364800F031F80721DA
:1021300000F03AF800220021272000F0C3FF2720FA
:1021400022E02D48824221D100220592486940F0C8
:1021500020004861486900F0200000F01FF843F0BB
:1021600004030B60086800F004000590C021059886
:10217000254800F00DF8082100F016F80022012192
:10218000472000F09FFF472000F0B9FF06B010BDC8
:102190000091019200210291032270470590059859
:1021A000059202220B687047049103926946FEF77C
:1021B00069BE039304926946FEF764BE0C6844F05E
:1021C00001040C600223096801F0010105910599E1
:1021D0000092019300220292032370472C150020E5
:1021E000004C00407015002000440040B415002051
:1021F00000480040F8150020001401400000024093
:1022000030380240000402400008024001223149F7
:10221000314800F01AB90122304915E010B52B4CB5
:102220002948012204F11C0100F00FF90122214686
:10223000274800F00AF90122611C274800F005F93F
:10224000A11CBDE810400122254800F0FEB838B5B9
:1022500005461F48296802681C4C91420CD121890F
:10226000642905D2636822785A542189491C218146
:102270000122214600F0E9F81748296802689142D6
:102280000CD1218A322905D2E36862785A54218A16
:10229000491C21820122611C00F0D7F810482968EE
:1022A000026891420ED1218B642905D26369A2781C
:1022B0005A54218B491C2183A11CBDE838400122BE
:1022C00000F0C3B831BD000070150020C41200201A
:1022D000B4150020C51200202C150020C6120020C5
:1022E000F815002001484068704700BF000000203A
:1022F000002200F02FBF00004AB1000011F8013B9E
:10230000521E00F8013B1CBF11F8013BF8E7704773
:102310004018491C1CBFB1F1010100F8012DF9D191
:102320007047000038B5040001D1012032BD00F033
:1023300017F808B900F018F800F01BF800F023F8BF
:10234000FFE7416100F001F832BD2068C16841F447
:102350000051C1600020686020216970A970704739
:1023600004F13C0568787047002129702046FFF78A
:102370007EBE242068702068C16821F40051C160CD
:10238000204600F0D9BA2068016921F4904101612A
:102390002068416921F02A0170472DE9F84305467C
:1023A00005F13C060C46707820281746994649D11D
:1023B0000CB1380001D1012045E03078012841D02E
:1023C000012131700020706021227270FFF78AFFB6
:1023D000AF848046EF84A868B0F5805F04BF2869A9
:1023E00000280EBF274620460027002131700446F2
:1023F0000EE014F8012B426007E02868002CF8D1A9
:1024000037F8021BC1F308014160E88C411EE984E2
:102410004346E88CCDF80090002807D000228021A8
:10242000284600F081F90028E7D005E0002240218D
:10243000284600F079F908B1032004E020207070EC
:10244000002000E00220BDE8F28338B500F130033F
:102450009C7B202C0FD109B1140001D1012032BD89
:102460001C7B012C07D001241C7300251D60BDE8D6
:10247000384000F0A3B9022032BD216801F11402F6
:1024800052E8001F206800F1140321F0400143E8E6
:102490000010002870477CB5044621680B68CD68A1
:1024A0004A6913F00F0007D1980661D5AA065FD5D7
:1024B0002046BDE87640D5E1D00702D415F4907FE0
:1024C00056D0D80705D5E90503D5206C40F00100AA
:1024D0002064580705D5D10703D5206C40F00200D1
:1024E0002064980705D5D10703D5206C40F004007F
:1024F0002064180707D5A90601D4D00703D5216C9D
:1025000041F008012164206C002830D0980604D5E1
:10251000A90644BF204600F0A5F920684069216C57
:102520000A0701D440061DD5204600F070F9206846
:102530004169480611D5FFF7A0FFFCD1A06B60B13F
:102540000FF215310165A06B00F002FF00280ED0DC
:10255000A06B016DBDE87C4008472046BDE8764091
:1025600001F010B8204601F00DF80020206473BD82
:10257000206B012804F13D0240F08680D80600D58A
:10258000EE0640F18180002300930D6800954B68B2
:1025900000930098496948063FD5A16B08684068D8
:1025A00080B20028E3D0A38D9842E0DAE085C869C4
:1025B000B0F5807F2DD0216801F10C0050E8001F9C
:1025C000236803F10C0521F4807145E80010002810
:1025D000F1D100F09BF8490800F11405490045E8E5
:1025E00000100028F5D100F091F800F1140521F059
:1025F000400145E800100028F5D12020507000214E
:10260000216300F089F800F0BEF8FAD1A06B00F069
:1026100063FEA18DE08D091A30E0A08DE18D411A95
:10262000E08D00281CBF88B2002868D0206800F127
:102630000C0353E8003F00F10C0623F4907346E8C6
:1026400000300028F2D1206800F05AF800F114069A
:102650005B0046E800300028F5D1202050700022B1
:102660002263206800F10C0252E8002F00F10C05F3
:1026700022F0100245E800200028F2D12046BDE8F3
:102680007C4089B200F07FBF180629D52E0627D5D9
:102690001078212833D1A068B0F5805F04BF20698D
:1026A000002808D1206A0288C2F308024A60206A22
:1026B000811C216204E0206A421C2262007848608A
:1026C000E08C401EE08480B2C8B92068C16821F067
:1026D0008001C1602068C16841F04001C16073BDE4
:1026E00058060CD56B060AD5C86820F04000C860B3
:1026F000202111702046BDE8764000F045BF73BD33
:1027000000F1140353E8003F5B087047206800F1B4
:10271000140151E8001F7047206800F10C0151E8D6
:10272000001F00F10C0370472DE9F041069C05469F
:102730000E4690461F46286801683140B1420CBFE2
:102740000120002040451BD114F1010FF3D024B12A
:10275000FFF7C8FDC01B8442EDD200F01AF821F447
:10276000D07100F012F8F8D100F01BF8FCD105F19F
:102770003C0020214170817000210170032000E0A5
:102780000020BDE8F08121F0100143E8001000288E
:102790007047286800F10C0151E8001F00F10C039C
:1027A0007047286800F1140151E8001F490800F142
:1027B0001403490043E800100028704781628285B5
:1027C000C28500F13C0100224A6022238B700A700E
:1027D000016921B10168CA6842F48072CA60016867
:1027E0004A6942F001024A610068C16841F0200173
:1027F000C1600020704744E800210029704701684B
:1028000001F10C0252E8002F01F10C04704710B5E1
:10281000FFF7F5FF22F49072FFF7EDFFF8D100F01B
:102820000BF8016B012901D100F071F8202180F82B
:102830003E100022026310BD016801F1140252E84B
:10284000002F520801F11404520044E8002100292D
:10285000F2D1704700000000806B0021C185C18467
:1028600000F090BE1CB590F83E1022294DD1816831
:10287000826AB1F5805F0AD1016969B90368596854
:10288000C1F308011180826A911C81620FE0002966
:1028900004BF0169002902D10368596803E0016897
:1028A000496801F07F011170816A4A1C8262C18D02
:1028B000491EC18589B231BB0168CA6822F0200275
:1028C000CA600168CA6822F48072CA6001684A69F5
:1028D000520852004A6100F029F812D10021016328
:1028E00000F015F802681168CB0606D500240094A4
:1028F00013680093526800920099818D00F043FEA6
:1029000001E0FFF7A4FC002016BD022016BD0268FE
:1029100002F10C0151E8002F036803F10C0422F0CE
:10292000100244E800210029F1D17047202180F8ED
:102930003E10026B012A704770B504462268116987
:10294000E06821F4405101431161D3682648A16831
:10295000034020690B4361690343E0690B43034370
:10296000D3605169A06921F44071014351611F494D
:102970008A421CBF1E48824202D100F095FE01E04F
:1029800000F08AFE62682568E46964261921B4F5BE
:10299000004FA1FB000112D1D30F520000F062F8EA
:1029A00000F028F8F60032366420B6FBF0F0420062
:1029B00002F4F87202EB011200F0070010E0930F2E
:1029C000920000F04FF800F015F83601323664201E
:1029D000B6FBF0F000F0F00202EB011200F00F0085
:1029E0008018A86070BD0000F369FFFF001001406F
:1029F000001401406421B0FBF1F106FB11067047A1
:102A000000F1010310F8011B11B110F8011BFBE7E5
:102A1000C01A70471028114903D18879401C887169
:102A20007047B0F5006F03D14879401C487170477A
:102A300002280B4903D18868401C88607047B0F5B4
:102A4000007F03D14868401C48607047B0F5805F44
:102A500002D10868401C0860704700BFA41600201F
:102A6000B0120020D3BBD9B1B2F5803F5BD2022AAD
:102A70001ED98C46B1FBF2F102FB11C31B0443EAE1
:102A80001043B3FBF2FC02FB1C3380B240EA034369
:102A9000B3FBF2F002FB103240EA0C400023704717
:102AA000022A05D98446B0FBF2F002FB10C270473F
:102AB0004AB105D100F0010249085FEA30007047D1
:102AC00000220023704700F037BE0B0002000021F7
:102AD00000207047F7D3002200237047904271EB2B
:102AE000030CF2D370B5B1FA81F4B3FA83F52C1B61
:102AF000A340C4F1200532FA05F63343A2405FF04B
:102B00000046E64002E05B085FEA3202841A71EB9D
:102B1000030524BF204629467641F4D302000B006A
:102B20003000002170BD70B5B1FA81F4B2FA82F5BF
:102B3000C4F120046419B4F12006DAD3B2405FF086
:102B40000044F440002502E052085FEA3303C61A4D
:102B500071EB020E24BF3046714664416D41F3D3E0
:102B600002000B002000290070BD10B5044610467D
:102B70000A4601462046FFF7CBFB204610BD000069
:102B80000D4B00280CBF002201224FF400711846A3
:102B9000FEF75EBA01B582B000204FF47A718DF86D
:102BA00004000091012301AA02A9044800F066F87C
:102BB0009DF804000EBD0000000C02408C140020A3
:102BC00038B5040001D1012032BD606A28B900F097
:102BD00051F805D00021E16102E000202061606130
:102BE0000020A06204F15005687820B90021297006
:102BF000204600F0C1FD0220687000F040F96068D6
:102C0000A168E26800F4827001F404410843217C69
:102C100002F400621043227D01F002010843A16921
:102C200002F001021043227F01F40071084394F87E
:102C3000201002F038021043A26A01F0800108431C
:102C4000216802F4005210430860A06994F824102F
:102C50002268000C00F0040001F0100108435060ED
:102C60002068C16921F40061C16100206860012110
:102C7000697032BD6068B0F5827F70472DE9FC470E
:102C800000F0DCF84FF0010808BF022000F0C68019
:102C90009A4687F80080FFF725FB7B78012B09D047
:102CA0006968B1F5827F02BFA9680029042B01D0B1
:102CB0000226AEE0002C1CBFB9F1000FBAF1000FE4
:102CC00001D10126A5E07B78042B1CBF052179707A
:102CD0007E60C5F83890A5F83EA0A5F83CA02C630E
:102CE000A5F836A0A5F834A02E646E6429680C6897
:102CF000630603D40C6844F040040C60E9680A9C45
:102D0000B1F5006F696838D1002918BFBAF1010F19
:102D100000F0A9F88146E88E002804BFE88F00285B
:102D200068D02968886882070BD5E88E002818BF0C
:102D3000B8F1000F05D0286B0288CA60B04600F0D9
:102D40006FF829688868C2070CD5E88F50B1C86849
:102D5000A96B08804FF00108A86B821CAA63E88F5A
:102D6000411EE987FFF7BEFAA0EB0900A042D2D3CB
:102D700014F1010FCFD003264BE0002918BFBAF1A0
:102D8000010F00F064F88146E88E002804BFE88F48
:102D900000282FD02968886882070DD5E88E002882
:102DA00018BFB8F1000F07D0286B02780A73B0463D
:102DB000286B411C00F036F829688868C2070CD5DA
:102DC000E88F50B1C868A96B08704FF00108A86B74
:102DD000421CAA63E88F411EE987FFF783FAA0EB44
:102DE0000900A04203D314F1010FCDD0C3E7002C9A
:102DF000CAD1C0E74A462146284600F0A6F818B1D5
:102E000020200126786004E0A86810B900F00FF8CF
:102E1000009801217970002038703046BDE8F687AF
:102E2000286B811C2963E88E411EE9867047009655
:102E30002968CA680092896800917047054605F1C3
:102E400050070026387801280C469146704709D172
:102E5000296B2B680A781A73296B4A1C2A63E98E3E
:102E60004A1EEA86704709D1296B2B680A88DA6006
:102E7000296B8A1C2A63E98E4A1EEA8670472068FD
:102E8000016821F04001016070472DE9F843089C7A
:102E900005460E4690461F46FFF724FA381A2418B6
:102EA000FFF720FA8146404801684901090D614356
:102EB000009105E0009800B900240098401E0090A1
:102EC000286881683140B1420CBF01200020404594
:102ED00032D017F1010FF3D0FFF704FAA0EB09008D
:102EE000A04201D2002CE5D12868416821F0E00120
:102EF00041606868B0F5827F08D1A868B0F5004FDE
:102F000018BFB0F5806F01D100F019F8A86AB0F5CC
:102F1000005F09D12868016821F400510160286828
:102F2000026842F40052026005F150000121417034
:102F300000220270032000E00020BDE8F283286830
:102F4000016821F04001016070477CB504461648D5
:102F5000164E0B4601681825B1FBF5F5B5FBF6F6E4
:102F60004FF47A70464300966168B1F5827F09D1CB
:102F70000092802100222046FFF787FF58B100F021
:102F80000CF876BD009830B10098401E0090216882
:102F900088680106F6D4002076BD606D40F0200000
:102FA00060650320704700000C00002040420F00C5
:102FB00080B500F01DFC00F013F800F033FC00F0C9
:102FC0003FFD00F057FDFFF734F8FFF748F8FFF733
:102FD00019F8FFF722F800F0B1FB00F0E7FDFEE77B
:102FE00080B592B03022002106A8FFF7BEFD142262
:102FF000002101A8FFF7B9FD0020009021480168D9
:1030000041F0805101600021006800F08050009084
:1030100000981D4800910221026842F4804202603B
:103020000122006800F48040009000980691099207
:1030300010210A91022200210C920D9110224FF4CE
:10304000A8710E920F91022204211092119106A8EC
:1030500000F0ECFD08B172B6FEE7022102910022F9
:1030600003920F204FF4A051019004914FF480522D
:103070000592052101A800F089FA08B172B6FEE7B1
:1030800013B000BD403802400070004072B6FEE749
:103090000901020002D4294881547047284B02F0EC
:1030A0000F021A4402F8041C7047264B19684FF6A9
:1030B000FF020002114000F4E06008432249084387
:1030C0001860704770B51F4B1C68C4F302230124BD
:1030D000C3F10705052D2EBF0F2504FA05F56D1E5A
:1030E0001E1D072E34BF0023DB1E2940994004FA21
:1030F00003F3BDE870405B1E1A401143C8E70100AE
:1031000007D4012200F01F01104B8A40400943F808
:103110002020704710B5401EB0F1807F01D3012000
:1031200010BD0B4C60600F214FF0FF30FFF7B0FF78
:103130000021A16007202060002010BD00E400E015
:1031400018ED00E00CED00E00000FA0500E100E001
:1031500010E000E000B500BF130096469446103919
:1031600028BFA0E80C50FAD85FEA417C28BF0CC009
:1031700048BF40F8042BC90728BF20F8022B48BFDE
:1031800000F8012B00BD000070B50446FFF7AAF857
:1031900006460CB9012070BD04F1340502206870A8
:1031A00000212970206802685208520002602268DB
:1031B0001068C1070AD5FFF795F8801B0628F6D3DB
:1031C0002020286203216970032070BD1368DFF896
:1031D0002C0361680340A0680B43E1680343206946
:1031E0000B4361690343A0690B43E1690343206A10
:1031F0000B43616A0343042903D1E16A206B014355
:103200000B43136023685A69606AD208042840EAB5
:10321000C2020AD1A66AE16A324331B1A06988B913
:10322000002E18BF022E1FD016D35A61204600F080
:1032300091F9A96A3F228A40826000202862012118
:10324000697070BDB0F5005F0AD1032EEDD8DFE8DC
:1032500006F00D0B0D03E8E7B1F1C07FE5D105E005
:10326000022E03D9F61EE0D1C801DED54021296225
:103270000120687070BDF8B5044604F134060025DD
:103280003078776A012801D10220F2BD0120307028
:10329000707801281CD1022070703562204600F041
:1032A00049F9B06A3F2101FA00F0B860206801686E
:1032B00041F016010160F06820B12068016841F01A
:1032C000080101602068016841F00101016001E02E
:1032D000357002252846F2BDF8B5044604F13405E0
:1032E0006E6AFEF7FFFF07466878022805D0802146
:1032F0002962002028700120F2BD2068016821F0B9
:103300001601016000F003F9E868002804BF68694D
:10331000002801D000F007F900F0FFF820680168EC
:10332000CA070CD5FEF7DEFFC01B0628F6D3202007
:10333000286203216970002028700320F2BDA86A6A
:103340003F218140B1600020012169702870F2BDE9
:1033500090F83510022903D0802242650120704781
:10336000052180F83510006802685208520002609A
:10337000002070472DE9FC41044604F1340600208A
:103380005F4900904FF41650776A0A683D68B2FBB7
:10339000F0F8B06A082100F0B6F80ED02068026894
:1033A00053070AD5026822F004020260B06A814025
:1033B000B960316A41F001013162B06A25FA00F169
:1033C000CA070BD521684A69110607D5012202FAFE
:1033D00000F0B860306A40F002003062042100F072
:1033E00091F808D021680A68930704D5B860306A5C
:1033F00040F004003062102100F084F81BD02168F6
:103400000A68130717D5B860206801684A0307D512
:10341000006801030BD5716969B1204688470AE04D
:103420000168CA0503D4016821F008010160F16850
:1034300009B120468847B06A202100F064F83FD0E7
:1034400021680A68D3063BD5B860206871780529E1
:103450001CD1026822F01602026000F058F8F068F1
:10346000002804BF7069002801D000F05CF83F22FA
:10347000B06A8240BA60012171700020F169307039
:10348000002939D02046BDE8FC41084701684A03BD
:1034900007D5006801030FD4316989B120468847F8
:1034A0000EE00168CA0507D4016821F0100101602F
:1034B0000120707000213170B16809B12046884741
:1034C000306AC8B1306AC10710D50520707000F0AD
:1034D00024F80098401C8045009003D320680168C0
:1034E000CA07F6D40120707000213170B16919B19A
:1034F0002046BDE8FC410847BDE8F3813F8010F05D
:103500000C000020B06A01FA00F005427047206804
:10351000416921F0800141617047206801684908D4
:103520004900016070472068016821F008010160CE
:103530007047000030B50468256825F480252560B3
:1035400063608068402802D1A260E16030BDA16064
:10355000E26030BD30B5016808A401F0FF02103A06
:103560001823B2FBF3F2890A8902A55CC565042A17
:1035700028BF091D8165084630BD000000061016F1
:103580000006101670477047704700002DE9F041A3
:1035900004000F4654D0494E306800F00700B8428E
:1035A00002D200F073F84BD12068454D810712D547
:1035B000400703D5A96841F4E051A96020780107CC
:1035C00003D5A86840F46040A860A968A06821F00D
:1035D000F0010143A9602178C80729D56068012856
:1035E00002D129688A0305E0022818BF032803D105
:1035F00029688A0103D423E029688A0720D5A968AD
:10360000890840EA8100A860FEF76CFE8046A86841
:10361000616800F00C00B0EB810F09D0FEF762FE8C
:10362000A0EB080041F289318842F0D303202BE05F
:10363000306800F00700874204D200F027F801D07C
:10364000012021E02078410705D5AA68E06822F42E
:10365000E0520243AA602178080706D5A9682069CC
:1036600021F4604141EAC001A96000F035F8AA6880
:103670001449154BC2F30312895CC8401860134803
:10368000006800F061FC0020BDE8F081377031680F
:1036900001F00701B94270470B480D4A00681368F2
:1036A0000C49C3F3822206E00748094A0068136800
:1036B0000849C3F34232895CC8407047003C02406D
:1036C00000380240D05F00080C00002008000020F5
:1036D00008380240C861000830B5144C606800F03A
:1036E0000C00042802D0082802D01DE0104830BD8C
:1036F000226820680023410202F03F0204D52568B9
:103700000B49C5F3881003E020680A49C0F388100C
:10371000A1FB0001FFF7A6F92168C1F30141491C93
:103720004900B0FBF1F030BD024830BD0438024022
:1037300040787D010024F4007047000080B52848DF
:10374000284901604FF4827208214260C161002360
:103750004FF400720A218360C36003614361826198
:10376000036243628362C162FFF72AFA18B1BDE8BF
:103770000140FFF78BBC01BD10B586B00446142292
:10378000002101A8FFF7F1F921681648814224D1F0
:10379000002215480092016941F4804101610169EC
:1037A00001F480410091009900924FF46041036858
:1037B00043F0020303600222006800F00200009060
:1037C00000980A48019102920021039103220521E9
:1037D0000591049201A9FDF755FB06B010BD00004C
:1037E0008C140020003800403038024000040240B1
:1037F00080B50B48016841F400710160026842F431
:1038000080620260016841F4807101600320FFF76B
:103810004CFC0F2000F098FB00F0B6FB002002BD2E
:10382000003C02402DE9F84F86B014220021684682
:10383000FFF79BF900217448DFF8D091DFF8D0A1A1
:10384000DFF8D0B1DFF8D081059140F2EF350268A2
:1038500042F0100202600022016801F0100105919F
:1038600041F601570599059248F24006036843F076
:103870000403036040F2FF24016801F00401059194
:1038800005990592036843F001030360016801F0A4
:103890000101059105990592036843F00203036055
:1038A000016801F002010591059905922946036816
:1038B00043F008030360006800F0080005900598D5
:1038C0004846FDF7C5FB002239465046FDF7C0FBD0
:1038D000002231465846FDF7BBFB01224FF48071B0
:1038E0004046FDF7B5FB002221464046FDF7B0FB00
:1038F00000224FF47E714948FDF7AAFB009500F0C5
:1039000097F84846FDF7BEFA41F2100000904FF4D8
:10391000881501950221029148466946FDF7B2FAE1
:10392000009700F085F85046FDF7ACFA40F202210E
:10393000009101950221029150466946FDF7A2FAD5
:103940000120002101900222039102920096694613
:103950005846FDF797FA4FF4C040002100900191BE
:103960000222029269464846FDF78CFA0122019232
:1039700002924FF480710091002203926946404602
:10398000FDF780FA009400F053F84046FDF77AFA0C
:103990004FF48060002100F043F84FF400604FF4D2
:1039A000041100F03DF84FF47E7100910122019264
:1039B000022102910022039269461848FDF762FA3B
:1039C000002200210720FFF77DFB0720FFF797FB70
:1039D000002200210A20FFF775FB0A20FFF78FFB6A
:1039E000002200211720FFF76DFB1720FFF787FB50
:1039F000002200212820FFF765FB2820FFF77FFB2E
:103A000007B0BDE8F08F00003038024000100240DF
:103A10000008024000000240000C02400004024086
:103A2000009001910222029269465846FDF72ABA97
:103A30000120002101900222039102926946704701
:103A400080B50020009000220948016841F48001FF
:103A500001600021006800F4800000900098382088
:103A6000FFF730FBBDE802403820FFF748BB00BF3E
:103A7000303802401FB5102200216846FFF775F864
:103A8000434C444820604FF48031012020610022E3
:103A90004148A06261600320E061A2600120606192
:103AA000227684F82020E262E26084F8302020460A
:103AB00000F086FA08B1FFF7E9FA0820012100902A
:103AC00001910722029200F015F808B1FFF7DEFA23
:103AD00009210091022200F00CF808B1FFF7D6FA94
:103AE00011210091032200F004F808B1FFF7CEFA8B
:103AF0001FBD01926946204600F0BDBB38B586B0B7
:103B000004461422002101A8FFF72FF8216821485C
:103B100081423AD100222148214D0092416941F46D
:103B200080714161416901F48071009100990092B6
:103B30000321036843F002030360006800F0020001
:103B400000900098019102910021039101A915486C
:103B5000FDF798F900216960E9604FF4806112482F
:103B6000286029614FF48050002268614FF4804141
:103B7000AA60A961EA612A626A622846FFF704FB2B
:103B800008B1FFF783FAA563AC6307B030BD00004E
:103B9000E4140020002001400100000F30380240F2
:103BA0002C140020000402401064024010B5FDF700
:103BB000C8FEFCF70FFF00F035FE01F05BF9FCF7E3
:103BC00012FFFCF7D8FFFCF78DFFFEF727FB322032
:103BD000FDF76AFA104C01F0E2F900F023F8FDF766
:103BE0005EF800F01BF8FDF7E3FC00F01BF801F0B5
:103BF000C1FA00F013F800F065FE00F013F8FDF7CD
:103C0000EBFF00F00BF801F015F900F00BF801F0F4
:103C1000ECFB00F003F8DEE7B71600202278104333
:103C20002070704721780843207070472DE9F843D1
:103C3000040016D02078DFF80063C10713D5B06800
:103C400000F00C00042807D0B06800F00C00082831
:103C50003DD1706841023AD53068810303D5606870
:103C6000002800F063812078B44F810719D5B0682F
:103C700010F00C0F07D0B06800F00C0008285BD1E2
:103C80007068410258D43068810703D5E068012884
:103C900040F04C813168206921F0F80141EAC0010F
:103CA00031602178080779D56069A549002868D076
:103CB00001220A60FEF716FB0546706F81076DD47E
:103CC000FEF710FB401B0228F7D9032031E16068A2
:103CD000B0F5803F04D1306840F48030306011E0AE
:103CE000B0F5A02F306806D140F4802030603168F4
:103CF00041F4803105E020F480303060316821F4F7
:103D000080213160606858B1FEF7ECFA05463068F2
:103D10008103A8D4FEF7E6FA401B6528F7D3D4E761
:103D2000FEF7E0FA0546306881039CD5FEF7DAFA23
:103D3000401B6528F7D3C8E7E068A8B101213960C6
:103D4000FEF7D0FA05463068810705D4FEF7CAFAB7
:103D5000401B0228F7D9B8E73068216920F0F80045
:103D600040EAC10030609CE73860FEF7BBFA0546C8
:103D70003168880795D5FEF7B5FA401B0228F7D9B8
:103D8000A3E70860FEF7AEFA0546706F810705D518
:103D9000FEF7A8FA401B0228F7D996E720784107DA
:103DA0005FD5306C0025C1000AD400950125316C27
:103DB00041F080513164306C00F0805000900098E8
:103DC000DFF88081D8F80000C10513D4D8F80000CE
:103DD00040F48070C8F80000FEF784FA8146D8F8F5
:103DE0000000C10506D4FEF77DFAA0EB0900022809
:103DF000F5D96AE7A068012805D00528306F06D1FB
:103E000040F004003067306F40F0010005E04008EA
:103E100040003067306F20F00400306741F289388D
:103E2000A06860B1FEF75EFA8146306F810713D457
:103E3000FEF758FAA0EB09004045F6D345E7FEF738
:103E400051FA8146306F810706D5FEF74BFAA0EB99
:103E500009004045F6D338E71DB1306C20F08050A2
:103E60003064A069002863D0B16801F00C01082912
:103E70003AD002282AD100203866FEF733FA0546E8
:103E80003068810105D5FEF72DFA401B0228F7D9CD
:103E90001BE7E069216A626A0843A16A490840EAAF
:103EA0008210491E40EA0140E16A40EA0160706008
:103EB00001203866FEF716FA04463068810137D4CF
:103EC000FEF710FA001B0228F7D9FEE6002038663C
:103ED000FEF708FA04463068810129D5FEF702FA98
:103EE000001B0228F7D9F0E601281FD07068E269AC
:103EF00000F48001914202BF00F03F01226A91422A
:103F000001BF47F6C0710140626AB1EB821F0DD15B
:103F1000A26A520800F44031521EB1EB024F02BFB8
:103F200000F07060E16AB0EB016F01D0012000E0A9
:103F30000020BDE8F28300BF003802400000474285
:103F4000800E47420070004038B50D4D0D4B2A7869
:103F500004464FF47A711868B1FBF2F2B0FBF2F04C
:103F6000FFF7D8F850B9102C08D2002221464FF0A4
:103F7000FF30FFF7A7F8AC60002032BD012032BD52
:103F8000000000200C00002081B0002000900022E2
:103F90000A48416841F480414160416801F4804130
:103FA000009100990092036843F080530360006819
:103FB00000F080500090009801B0704740380240F7
:103FC00070B5044600250CB9012070BD04F130061F
:103FD000306920B92046FFF791FD7561357330696E
:103FE000C10600F192803069DFF8C01320F48850D8
:103FF00040F002003061086820F4403008600A6830
:10400000606802430A602068416821F48071416061
:1040100020684168226941EA0221416020684168C4
:1040200021F04071416021684A68A06802434A60FB
:104030002068816821F40061816021688A68E068F5
:1040400002438A602068A16ADFF864239142816894
:1040500021F0706181600CD021688A68A06A0243F7
:104060008A6000F05BF821688A68E06A02438A602F
:1040700001E000F053F82068816821F0020100F0AF
:1040800049F8227E41EA4201816094F820002168CB
:10409000002848680FD040F40060486020684168FC
:1040A00021F46041416020684168626A521E41EA21
:1040B0004231416002E020F4006048602068C16A3B
:1040C00021F47001C1622068C16AE269521E41EAAE
:1040D0000251C1622068816821F4007100F01AF871
:1040E000327841EA422100F015F821F4806100F0B5
:1040F00011F8626941EA822181607561316921F0BC
:10410000020141F00101316100E00125002030731E
:10411000284670BD8160206881687047206881688A
:1041200021F0405181607047126802F01F02102A8E
:104130007047016841F0804101607047816841F03B
:10414000804181607047F8B50446002004F13C03CB
:1041500000901D78012D01D10220F2BD01201870C0
:1041600020688568EE070DD48568974E45F00105F7
:10417000856096480568B5FBF6F606EB46060096A0
:1041800000F00BF920688568EE0503D5856825F4F5
:10419000807585602568A868C60762D55F6888480D
:1041A000074047F480775F606868450505D5586823
:1041B00020F4005040F4805058605868C50446BF51
:1041C000986820F006000020986000251D70A36B01
:1041D0000FF2FD10D863A36B0FF25D201864A36B80
:1041E0000FF25D20D8646FF02200256828602068F7
:1041F000436843F08063436013462068856845F454
:10420000807585600A46206800F14C01A06BFFF7BD
:1042100032F82068654A6B49136813F01F0F16D1F6
:1042200088420DD06349884204D1126812F01F0FF2
:104230001FD105E0604988421BD1FFF775FF18D2F6
:10424000816811F0405F14D1FFF778FF11E08842D8
:1042500002BF5A48016811F0405F0AD1FFF769FFB9
:1042600007E0586840F010005860986840F001007E
:1042700098600020F2BD78B502460020009092F8C8
:104280003C30012B01D1022072BD012082F83C009C
:1042900007240B6810680A2B11D30A3BC56803EB8F
:1042A000430300F076F8C460C3680D688C68A5F11C
:1042B0000A0606EB4606B4402343C3600FE00569D7
:1042C00003EB430304FA03F325EA030303610369E1
:1042D0000D688C6805EB4505AC40234303611F2442
:1042E0004B68072B0CD25B1E456B00F050F8446303
:1042F000436B4D680C886E1E00F044F843631BE06E
:104300000D2B0CD2DB1F056B00F041F80463036B2F
:104310004D680C88EE1F00F035F803630CE00D3B90
:10432000C56A00F034F8C462C36A4D680C88A5F110
:104330000D0600F027F8C362224B98421DD10C688D
:104340001A48122C03D1036843F4800303600B68FE
:10435000102B18BF112B10D1036843F40003036026
:104360000868102809D11949174C0B68B3FBF4F4FD
:104370000A204443009400F010F8002182F83C1019
:10438000002072BD06EB8606B4402343704703EB62
:1043900083039C4025EA0404704702E00098401E15
:1043A000009000980028F9D17047000004230140D4
:1043B0000100000F002101400022014008200140BF
:1043C000FEF9FFFF0020014040420F000C000020DA
:1043D000816B0A6C12F0500F24D1086C40F400700D
:1043E00008640A68906810F0405F04BF087E0028E7
:1043F00015D1D06A10F4700F02D0906843050ED426
:10440000506820F020005060086C20F48070086430
:10441000086CC20403D4086C40F00100086408462C
:1044200001F01CB80A6CD30644BF084601F017B867
:10443000896BCA6C10470000806B01F011B8000056
:10444000806B40210164426C42F00402426401F03E
:1044500006B8000010B5DFF8AC4401212046FCF797
:1044600037FE052120465BE178B50FF24051DFF8B9
:104470009864D1E9002385B003ADCDE9012301950E
:104480000C2100910446DFF884542978022303228A
:1044900001A800F0FEFFDFF87854012240212846F1
:1044A000FCF7D6FD0520FCF7FFFDB288306800213F
:1044B000FCF7C5FC0020B08000F056F90022402136
:1044C0002846FCF7C5FDDFF83C5402212846FCF7DE
:1044D000FFFD03212846FCF703FE21462846FCF792
:1044E000FFFD012006B070BD10B50146DFF81804CD
:1044F0008288DFF810045AB1DFF818341C8894421F
:1045000005D100221A800321FCF7E2FD02E01A80A7
:10451000FCF7E6FD012010BD2DE9F843DFF8E87354
:10452000B9883868DFF8F053DFF8E063DFF8D48348
:104530004218921E891E5378127842EA032900F02D
:1045400090FF48454FF6FF743ED106214046FCF7E8
:10455000C7FD396832780878904204BF487803284C
:104560003AD1C8780A7942EA002272800A23487A4E
:104570008A7A42EA002292FBF3F292B20A2092FB7C
:10458000F0F300FB1322042AC8BF5B1CB3800A7C33
:10459000C87B4B7C120442EA0062887C42EA032218
:1045A0000243B2600B7ECA7D887E1B0443EA02632D
:1045B0004A7E43EA02230343F36001212970707DA0
:1045C00050B1401E707507E07480B480B460002064
:1045D0002870717D491C7175717DB88820B974800F
:1045E000B480B4602870491C307DCAB29AB9728810
:1045F0006E2A05DA0228D8BF401C04DD032005E03E
:10460000020018BF401EC2B2022A01DD002206E0ED
:1046100032B9012203E0022A02DD03210222B27430
:104620003075717540460221FCF764FD0120BDE83C
:10463000F28310B5044600F0FDF86FE038B5B34DD5
:10464000E97C0446A87C88421FD000F06DF8A87C65
:10465000E87400F091F8A87C95A518B917220FF21C
:10466000D02108E0012803D116220FF2DC2103E05B
:104670001E220FF2EC210120FCF7E8FB0222294662
:104680000120FCF7E3FB00F006F821469D48FCF70B
:1046900027FD012032BD38B5A04C9C4A6179907C41
:1046A00048BB012907D101200090012301220021EC
:1046B0000520FDF7E5F8A078012803D106219848E8
:1046C000FCF706FD2079012807D101210091012383
:1046D000012200210420FDF7D3F8A079914D012893
:1046E00003D103212846FCF7F3FC2846BDE83440FB
:1046F0000221FCF7FFBC002904BF207B012806D162
:1047000001210091012301220520FDF7B9F831BDF7
:1047100010B50446FDF776FCFDF778FD2146794893
:10472000FCF7DEFC012010BD10B57F4803680021B6
:1047300081800F221A70012281880368491C8180C0
:1047400089B25A548188714A0468491C818089B2AF
:10475000937C63548188491C818089B2BDE81040F4
:104760000068FCF754B80000BDF8082001996F48B4
:104770004FF47A73FDF711BE80B50021ADF800103B
:10478000AA218DF800106148817C8DF801104FF44A
:104790008040FDF7B1FA0120FCF786FC02224FF4BD
:1047A000804129E080B568460021018002224FF453
:1047B0008041FDF752FB9DF80000AA2806D19DF824
:1047C0000100032802DA51498874C87401BD80B51C
:1047D00000214E480278ADF800108DF80120AA2182
:1047E0008DF800104FF4A040FDF786FA0120FCF789
:1047F0005BFC02224FF4A0416846FDF710FB01BDAF
:1048000080B568460021018002224FF4A041FDF7E7
:1048100024FB9DF80000AA2803D19DF801003B4924
:10482000087001BD80B5FFF7EBFFBDE80140B9E7B7
:10483000000000003EB5684600210022002380E809
:104840000E00324C227C6188FCF7E1FC0546112207
:104850004BA100F034F82A4600F02DF85FF0040276
:104860004CA100F02CF8227CA1886846FCF7CFFC14
:1048700000F020F85FF0040248A100F020F8627C0C
:10488000A1686846FCF7C3FC00F014F85FF004026E
:1048900044A100F014F8627CE1686846FCF7B7FCBC
:1048A00000F008F8022202A100F009F837BD00006C
:1048B0000D0A0000024669460220FCF7C7BA022032
:1048C000FCF7C4BA70B5002400250E4800EB0516AD
:1048D0007278012A11D17068012430B1FDF702FD10
:1048E0007168B268401A904207D300207070FDF7DB
:1048F000F9FC7060E8B2F16888476D1C072DE4DBB5
:10490000204670BD18010020D01200208801002030
:1049100000000240C0160020C71600209416002098
:10492000AC11002004110020FC1000202C150020E8
:104930006170705F656C6563747269633A20504F93
:10494000574552204F4646006170705F656C656345
:10495000747269633A20504F574552204F4E000001
:104960006170705F656C6563747269633A20504F63
:1049700057455220444953434F4E4E45435400003F
:104980006170705F656C6563747269633A20563A52
:104990002000000020413A200000000020503A2072
:1049A0000000000020453A20000000000000000048
:1049B0000000000070B50446DFF8D854DFF8D86472
:1049C0001420A8600322307A401C307206F10C01DA
:1049D000DFF8C804FFF7B7FB307A642804D101215F
:1049E0002846FCF775FB03E021462846FCF778FBD8
:1049F000012070BD38B50446DFF89C54DFF89C04F4
:104A0000032205F10C01FFF79EFB58B9A969E8687C
:104A10004118A9612869E9694118E9616869296A49
:104A200041182962697ADFF86C04491C6972C9B2BD
:104A3000642905DB002169720221FCF749FB02E0D1
:104A40002146FCF74DFB012032BD000038B5DFF8F0
:104A50004844DFF84C24A069DFF838546421B0FBE7
:104A6000F1F1E06900EE101A6421B0FBF1F1206A67
:104A700084ED060A00EE901A6421B0FBF1F101EE1C
:104A8000101AC4ED070A84ED081A40F6E4401388B2
:104A9000434301EE903AF8EE611AB8EE411A81EE06
:104AA000811A9FEDA72AF8EE600A81EE021AB8EE8D
:104AB000400A60EE810A9FEDA33A20EE010ADFED85
:104AC000A12AC0EE830A9FEDA01A80EE220AC0EE52
:104AD000811A9FED9E2A9FED9E1AF1EE0C2A01EE9F
:104AE000821A80EE220A71EE402ADFED9A1A30EE29
:104AF000410A62EEA11A30EE200A81EE800ADFED53
:104B0000960A30EE200A9FED951A9FED952A00EE49
:104B1000012ADFED941A42EE001ADFEDC00A41EEE1
:104B2000800AB2EE040A20EE800ABDEEC00A10EE42
:104B3000100AA0F10A010020A180FF22A061E0611B
:104B40002062A27104212846FCF7C2FAB4F90400DD
:104B500000F5967040F22131884204D3072128469F
:104B6000FCF7B6FA03E007212846FCF7C3FA012058
:104B700032BD80B5CB488178B0F9000000F09DF8D7
:104B800000F0B8F8012002BD80B568460021016040
:104B900004224FF48051FDF760F99DF80000AA2827
:104BA0000AD19DF801109DF80220BB4842EA01227B
:104BB0009DF803100280817001BD7CB5BA49B54CE7
:104BC000887C002836D0B4488178B0F90420B0F948
:104BD0000000B64D0B189A421ADB287938B9012625
:104BE00000960023012201210420FCF749FEA87849
:104BF00030B901210091002301220220FCF740FE80
:104C000006212046FCF776FAA9490120887011E0B8
:104C1000411A91420EDB2879012807D10121009128
:104C20000023012200210420FCF72AFE0621204651
:104C3000FCF756FA00F09EF805212046FCF750FAE2
:104C4000012076BD80B501219248FCF741FA012090
:104C500002BD80B595488178012907D101200090D7
:104C60000023012200210220FCF70AFE90480021C7
:104C70008170012002BD10B5044600F006F82146FF
:104C80008448FCF72DFA012010BD8A4803680021F2
:104C9000818032221A70012281880368491C818038
:104CA00089B25A5481880368491C818089B25A5458
:104CB0008188491C818089B23FE080B50023009340
:104CC000FCF758FA744A8DF802001080AA210312EA
:104CD00090788DF803008DF800108DF801304FF4B6
:104CE0008050FDF709F804224FF480516846FDF723
:104CF00096F801BD10B56F48036800218180152228
:104D00001A70032200F030F85A548188624A04680D
:104D100000F02CF8B2F900301B126354818804684B
:104D200000F024F81388635400F01EF8D2785A5427
:104D3000818800F01BF8BDE810400068FBF767BDF4
:104D400000007A4400F07F4500EC7E460058C545DF
:104D50006F12033B0000FA430000F0C2CF738935A5
:104D60002CAC273A7E8C194081880368491C8180CD
:104D700089B270473EB505216846FDF7B9FA464C41
:104D8000A279B4F904106846FCF741FA05461722E7
:104D90004AA100F04CF82A4600F043F83BA500F089
:104DA00044F808224BA100F042F8E278B4F9001070
:104DB0006846FCF72CFA00F033F800F036F80922C8
:104DC00047A100F034F8E278A1786846FCF71FFAB2
:104DD00000F026F800F029F82DA40222214600F068
:104DE00026F8324D2879012807BF0F220FF2FC0167
:104DF00010220FF2081100F01AF8A878012807BF56
:104E00000F220FF20C1110220FF2141100F00FF804
:104E10000222214600F00BF837BD00003D4A77C35F
:104E2000024669460220FCF711B8022229460220F8
:104E3000FCF70CB870B500240025164800EB0516E9
:104E40007278012A11D17068012430B1FDF74AFA55
:104E50007168B268401A904207D300207070FDF765
:104E600041FA7060E8B2F16888476D1C082DE4DBF8
:104E7000204670BD80B5FFF787FEBDE80840FFE71C
:104E800002220D490548FFF75EB90000B04300005B
:104E90000D0A0000AC1100202C120020E4140020A8
:104EA0002A7AFF1FB81600208801002094160020DF
:104EB000E0100020FC100020381200206170705FAC
:104EC00074656D70657261747572653A2054656DB4
:104ED000703A20002053657475703A20000000007D
:104EE000205468726573683A2000000052656C6156
:104EF0007920486561743A204F4E200052656C61FC
:104F00007920486561743A204F4646200000000031
:104F100052656C617920436F6F6C3A204F4E2000D0
:104F200052656C617920436F6F6C3A204F46462082
:104F30000000000010B5012129482A4CFCF7C8F8F0
:104F400000F028F80020A080012010BD80B50146A7
:104F50002448828822484AB1038E934205D1002218
:104F600002860221FCF7B4F802E00286FCF7B8F8EA
:104F7000012002BD10B51B4C0121204600F04AFD66
:104F800000F008F80020A08001211548FCF7A0F8E7
:104F9000012010BDA28820680021FBF750BF70B52A
:104FA000002400250E4800EB05167278012A11D165
:104FB0007068012430B1FDF795F97168B268401A44
:104FC000904207D300207070FDF78CF97060E8B252
:104FD000F16888476D1C032DE4DB204670BD00009E
:104FE00010000020C812002080B501217248FCF793
:104FF0006FF8012002BD70B50446704E4FF4804139
:105000003046FCF71FF8401E80416D4DC00F2870E0
:105010004FF400513046FCF715F8012818BF002066
:1050200068700221644D2846FCF752F82146284654
:10503000FCF756F8012070BD10B5614C20780128AE
:1050400006D1607801280BD101210320A1710CE069
:10505000002804BF6078012805D10220012104E066
:1050600008B9012000E000200146564A51706071E5
:1050700021796079884205D00122A27003214E482F
:10508000FCF726F8A17960792071012908BF002872
:1050900007D1A0714C49887C18B14C490878FCF7BD
:1050A0000CFD012010BD10B50446454801780129CA
:1050B0001FBF417801298178012905D10022827022
:1050C00000F008F800F02CF821463B48FCF708F8FF
:1050D000012010BD10B53E480368002181803122B7
:1050E0001A70022200F016F85A548188344A046873
:1050F000491C818089B21378635400F00BF8527810
:105100005A548188491C818089B2BDE810400068EA
:10511000FBF77DBB81880368491C818089B2704799
:1051200070B518222BA1264E0FF2CC0430A500F04A
:105130001EF83078012807BF04222946052221469F
:1051400000F015F85FF008022DA100F010F870785B
:10515000012807BF042229460522214600F007F84E
:10516000BDE87040022213A10220FBF76FBE0220AF
:10517000FBF76CBE70B5002400250F4800EB051648
:105180007278012A11D17068012430B1FDF7AAF8B4
:105190007168B268401A904207D300207070FDF722
:1051A000A1F87060E8B2F16888476D1C042DE4DB5B
:1051B000204670BD0D0A0000D800002000100240FB
:1051C000B0160020E010002088010020E21200202C
:1051D000FC1000206170705F646F6F725F73656EAA
:1051E000736F723A20446F6F72313A2000000000F2
:1051F0004F50454E00000000434C4F534500000007
:1052000020446F6F72323A200000000080B5022106
:105210008748FBF75DFF012002BD80B50146854848
:10522000026E0368934238BF0260426E4368934245
:1052300038BF4260826E8368934238BF826000222A
:105240000266426682661030FBF74AFF012002BD0B
:1052500038B5784D0446286810B1287B401C287367
:10526000686800F03BF8A86800F038F80020286073
:105270006860A860287B68B300F081F800F09EF8B1
:10528000287B022824DB042105F11000FBF720FF16
:10529000287B03281CD10121009101230122FCF766
:1052A000EFFAFDF71FF80146286F091A4EF6602243
:1052B000914204D218B142F21070A86402E040F6A4
:1052C000B831A964032100F056F8FDF70BF8286700
:1052D0000020287300F04EF8012032BD3D2802D393
:1052E000287B401C2873704780B501200090012363
:1052F000012200210320FCF7C3FA012002BD70B592
:105300004C4D4D4E0446A86D962819D1707860B961
:1053100001210520FCF707FB3178091F022998BFFE
:10532000C82022D91E21A96520E00020434A7070C0
:10533000307005205179FCF7F6FA0020A86517E0D7
:1053400000210520FCF7EFFA9620A8653078401C74
:105350003070C0B20A2809DB002030707078401C21
:105360007070C0B210B94FF47A70A86500F002F8FE
:10537000012070BD214605F11000FBF7B1BE10B54C
:105380002F4803680021818030221A700122818811
:105390000368491C818089B25A548188254A04686F
:1053A000491C818089B2137B63548188491C8180A8
:1053B00089B2BDE810400068FBF729BA80B51D48E6
:1053C000017B6846FBF7E2FE5FF016021DA102209A
:1053D000FBF73CFD012269460220FBF737FD022264
:1053E00012A10220FBF732FD01BD70B5002400259B
:1053F000104800EB0516727C012A11D17069012456
:1054000030B1FCF76FFF7169B269401A904207D35F
:1054100000207074FCF766FF7061E8B2F16988479C
:105420006D1C052DE4DB204670BD00000D0A000058
:105430006012002050120020C41600209416002094
:10544000FC1000206170705F7669625F73656E7337
:105450006F723A204C6576656C200000704770478B
:10546000704730B503464FF6FF7000240DE01A5D1B
:10547000504008224508C00752BF284685F4204006
:1054800080F00100521EF5D1641C8C42EFDB80B22B
:1054900030BD38B5044625680498297021684A70E3
:1054A0001A0A2568AA70020A2168CB7006212368AF
:1054B0001A71256868712068FFF7D3FF2168887129
:1054C000000A2268D0710820A080012032BD0000AF
:1054D00080B500F04AF90222B7A100F048F9BDE812
:1054E0000140FBF76FBB0B21DFF8D805FBF7F0BDE0
:1054F00070B500F067F907D200F096F9C0B2FBF77B
:10550000A4FF0222BCA101E000F058F93FE0F8B589
:1055100002681178002530390A29A7A41AD2868892
:105520000021002301E0491C5B1CB34207DAD75C71
:10553000303F0A2FF7D3D0184078A0F13005C9B218
:105540001046FBF740FCE9B2C0B2FBF792FF022223
:10555000B4A101E000F032F900F009F92146BDE8FC
:10556000F8401AE01CB500F0FCF8DFF85C1589780B
:105570001DE070B500F026F907D200F055F9C0B271
:10558000FBF772FA02229CA101E000F017F901205A
:10559000FBF75CFC2146BDE8704002220120FBF7CE
:1055A00055BC1CB500F0DDF8DFF81C15497800F09B
:1055B00018F804460B220FF238510120FBF746FC85
:1055C000224669460120FBF741FC04220FF22C51D0
:1055D0000120FBF73BFC02227DA10120FBF736FCFA
:1055E00013BD00226846FBF712BE70B500F0EAF862
:1055F00007D200F019F9C0B2FBF7A1FA022289A183
:1056000001E000F0DBF8C2E780B5DFF8C004828873
:10561000016800F0ACF8BDE8084002226CA1BDE7CB
:1056200070B586B004460D4616216846FCF760FE4C
:10563000AA228DF800201422A088DFF890648DF84B
:10564000010000210020B0803068FBF7F8FB0DE07E
:105650002068415D0DEB050291702068415D326864
:10566000B08811546D1CB188491CB180EDB2A0887E
:105670008542B8BF142DEBDB4FF40050FCF73CFB28
:10568000A288921C92B24FF400516846FCF7C7FB07
:1056900000F06BF802224EA100F069F806B070BD70
:1056A0001CB500F05EF8DFF82804C278B0F90010ED
:1056B000FFF798FF04460B220FF2484100F057F81D
:1056C00000F04AF80222AFA182E7F8B5026811782B
:1056D0002D2939A453A507D130231370026800F097
:1056E00017F880B2404204E030390A2908D200F0AD
:1056F0000FF8FF2100B2FFF7E0FA0222294601E08D
:1057000000F05CF800F033F82146BDE8F84044E7CB
:1057100086880021002301E0491C5B1CB34203DAA8
:10572000D75C303F0A2FF7D3C9B21046FBF74BBB0B
:105730001CB500F016F8DFF89803C2788178FFF7FF
:1057400051FF04460C220FF2C83100F010F800F0AF
:1057500003F802228BA13BE7224669460120FBF7B2
:1057600075BB05216846FCF7C3BD02222DA10120AF
:10577000FBF76CBB70B500F025F81AD285880021C4
:10578000002301E0491C5B1CAB4203DAD65C303ECF
:105790000A2EF7D3C9B21046DFF83453FBF713FBD8
:1057A000A870FF21B5F90000FFF787FA02221DA1BA
:1057B00001E000F003F8EAE60D0A000005220FF20E
:1057C000283170470268117830390A2900A47047DF
:1057D0000D0A00001CB5FFF7C4FFBE4A11786846E9
:1057E000FBF7D4FC04460A220FF23431FFF7BFFF67
:1057F000FFF7B2FFEFE600004F4B000070B5FFF778
:10580000E1FF0CD200F010F800B2411EFF2906D2D1
:10581000B04A1070FEF7DBFF022202A101E0FFF7A1
:10582000CDFFB4E64F4B000085880021002301E046
:10583000491C5B1CAB4203DAD65C303E0A2EF7D320
:10584000C9B21046FBF7BFBA38B500F047F818BF29
:10585000312805D1FFF789FF022298A1FFF787FFC2
:105860002068405D303804D10090012301220021DE
:1058700006E0012807D10020009001230122012128
:105880000120FBF7FDFF31BD38B500F027F818BF48
:10589000312805D1FFF769FF022288A1FFF767FFD2
:1058A0002068405D303803D100900123012210E0D0
:1058B000012812D18749887C28B100210091012359
:1058C0000122012106E0844901200122087300928F
:1058D000012300210520FBF7D3FF31BD04460D460F
:1058E0002068405D3028704738B5FFF7F7FF18BFD4
:1058F000312805D1FFF739FF022270A1FFF737FFEA
:105900002068764C405D303808BF032109D001285B
:105910000CD17049887C48B171490878FCF7CDF802
:1059200002212046BDE83440FBF7D2BB31BD000068
:105930001CB5FFF716FF6A490978FFF752FE0446C7
:105940005FF00F0279A138E670B5FFF73BFF09D28F
:10595000FFF76AFF62494978C0B2FBF768FF02228D
:1059600057A101E0FFF72AFF11E600001CB5FFF781
:10597000F8FE5B494978FFF734FE04465FF01002F9
:105980006EA11AE6B043000070B5FFF71BFF09D205
:10599000FFF74AFFC1B252480078FBF748FF0222E6
:1059A00047A101E0FFF70AFFF1E50000464810B506
:1059B0000179012941A406D15FF00F0264A1FFF72C
:1059C000D6FE032204E00C2265A1FFF7D0FE0222DE
:1059D0002146BDE81040E1E510B500680078A0F16F
:1059E00030010A2935A40DD23028374908BF0020DC
:1059F00002D0312801D101200871FBF788F802227A
:105A00002FA101E0FFF7DAFEFFF7B1FE2146BDE866
:105A10001040C2E5FEB5054655A00C46D0E900236E
:105A2000CDE90023002007E0A2F141031A2B3CBF7F
:105A300020320A54401C80B2A988884205DA2968BD
:105A40000A5C3D2A18BF3F2AEED10027254A02EB07
:105A50000716294606F1080000F08EF8010001D46F
:105A6000706820B97F1C1A2FF0DB0020FEBDB089C2
:105A700041180BE0BDF80400802806D2009B1A54A0
:105A8000BDF80400401CADF80400491C89B2AB8885
:105A900099420ADA2868425C0D2AEBD15B1E9942D2
:105AA000E8DA084440780A28E4D1641E012C03D8BF
:105AB00072680021684690470120FEBD0D0A000073
:105AC0004F4B0000A0010020E8100020F41000203F
:105AD0002C120020880100209416002004110020C0
