:020000040800F2
:10000000B80D0020C94A000871480008734800086C
:10001000754800087748000879480008000000008B
:100020000000000000000000000000007B48000805
:100030007D480008000000007F4800088148000853
:10004000194B00081D4B0008214B0008254B0008E8
:10005000294B00082D4B0008314B00088D48000843
:10006000354B0008394B0008934800083D4B000809
:10007000414B0008454B0008494B00084D4B000818
:10008000514B0008554B0008594B00085D4B0008C8
:10009000614B0008654B0008694B0008994800084F
:1000A0006D4B0008714B0008754B0008794B000838
:1000B0007D4B0008814B0008854B0008894B0008E8
:1000C0008D4B0008914B0008954B0008994B000898
:1000D0009D4B0008A14B0008A1480008A748000854
:1000E000AD480008A54B0008A94B0008AD4B00081F
:1000F000B14B0008B54B0008B94B0008BD4B0008D8
:10010000C14B0008C54B0008C94B0008CD4B000887
:10011000C3480008D14B0008D54B0008D94B000854
:10012000C9480008DD4B0008E14B0008E54B00081A
:10013000E94B00080000000000000000ED4B000843
:10014000F14B0008F54B0008F94B0008FD4B000887
:10015000014C0008054C0008094C0008CF48000875
:100160000D4C0008114C0008154C0008194C0008F3
:100170001D4C0008214C0008000000000000000099
:10018000254C0008294C000810B5DFF880460321F3
:1001900000F030FA0B2100F029FA012010BD38B52B
:1001A0000446DFF86C5601220121284600F050FC7D
:1001B000012000F071FC00220121284600F048FCDB
:1001C0002146DFF8500600F083FC012032BD10B557
:1001D0000146DFF84406DFF83426808868B1DFF88E
:1001E0003C361C88844207D100201880022102F18D
:1001F000180000F065FC04E0188002F1180000F01F
:1002000067FC012010BD2DE9FC47DFF80C96B9F81A
:100210000400D9F80010DFF8F4A5DFF804860A1806
:100220000024921EADF8004053781778821E47EAEA
:10023000032792B2684600F05BFCBDF80000B842AC
:1002400037D100F011FD05210FF2086000F0EEF942
:1002500000F08CFAB9F80420D9F80000002100F071
:10026000B4FD0020A9F8040001210AF1180000F0F3
:1002700027FC0120BDE8F687485D01283C4618D1DF
:10028000A3B25F1CBC4514DB9EF8040080B90027B4
:1002900001208EF800708EF80400C95C8EF8021000
:1002A0008EF801008EF805000021104600F008FCD1
:1002B000641CB9F80400A0F1020CA0B2811C8C45AA
:1002C000C0F2E180D9F80010DFF858250E5CDFF8A5
:1002D00058E5DFF85805DFF85835641C671C0B2E0D
:1002E000A5B200F08C800C2E00F0AC800D2E00F03A
:1002F000B1800E2E2CD0152E65D0162EBCD0202EFF
:1003000006D0212E32D0222E3FD0232E4CD0D0E743
:10031000485D02283C46CCD1A3B29F1CBC45C8DB3B
:100320009EF8040090B901278EF800708EF80470D2
:10033000C85C8EF80200481CC15C8EF801100023D6
:100340008EF805300021104600F0BAFBA41CB0E77F
:10035000485D01283C46ACD1A0B2401C8445A8DBD6
:1003600008210AF1180000F0ABFBA2E74A5D012A60
:100370003C469ED1A2B2531C9C459ADB895C012964
:1003800097DC88F80110022190E74A5D012A3C467B
:100390008FD1A2B2531C9C458BDB895C012988DC80
:1003A00088F80510062181E74A5D012A3C46EFD115
:1003B000A2B2531C9C45EFDB895C0129EFDC88F875
:1003C0000610072172E7485D03283C46E0D1A0B241
:1003D000C21C9445E0DB0A5CDFF858341A80641CC8
:1003E0001202A7B21A80641CC85D02431A80A2B22E
:1003F000641C895CDFF8400499700321B3E700F0C6
:1004000045F8C9DB1F6800229A800B213970998852
:100410001A68491C998089B250549988491C99805E
:100420000BE0D9F80010A2B2641C8F5C1A6899889E
:100430005754401E9A88521C9A80C1B20029F0D1AC
:1004400004218EE7485D3C4610FA84F08445A3DB26
:10045000062186E700F01AF89EDB00229A810DE063
:100460009989142909DAD9F800209D68A7B2641C7B
:10047000D25D6A549989491C9981401EC1B20029F4
:10048000EED105216DE70221B3A0DFE6485D3C46D1
:10049000014611FA84F18C45704700B58DB03221C8
:1004A000684600F0B5FC684600F0D3F8014668469F
:1004B00000F0BCF80321D74800F00AFB01200DB082
:1004C00000BD1CB50020DA4CA2882168ADF8000000
:1004D000684600F00DFB2168A288BDF80000885432
:1004E0000021A0882268401CA08080B21154A188FD
:1004F0002068491CA180C9B200F098F8012016BDFF
:1005000038B586B016216846C94C00F081FCA08938
:100510008DF80100AA228DF80020002105E0A268D4
:10052000535C0DEB0105491CAB708142F7DB4FF4C6
:10053000005000F09BFC00F011F9A189A068C9B23D
:1005400000F074F8012007B030BD80B5B84881894B
:100550008068C9B200F06AF8012002BD38B50446CF
:10056000AA4D05F51F7000F0E8FD18B900F08FFEE8
:1005700000F064FB214605F1180000F0A1FA01200B
:1005800032BD70B5A14D044605F51F76304600F02A
:10059000D4FD50B101222946304600F0ADFD297D41
:1005A000284600F0BEFA0A2100E0214605F11800B5
:1005B00000F08EFA012070BD38B5944C04F51F751B
:1005C000284600F0BAFD18B9092100F013F80BE035
:1005D00001222146284600F08FFD217D204600F0B3
:1005E000A0FA0A2100F002F8012032BD04F118003F
:1005F00000F06EBA04F1180000F062BA10B58F4A2C
:10060000824C0146106868B90821FFF7F3FF012109
:1006100004F1180000F066FA022104F1180000F05D
:1006200061FA01E0FFF7E2FF012010BD80B586B05E
:1006300000228DF8141003E0835C0DF80230521C88
:100640008A42F9DB002269467D4800F026FD07B0AA
:1006500000BD1CB504460020ADF800000A21217041
:1006600060701023774801786D48A1704178E1707F
:1006700042792271817961710279A2718078E07189
:100680007148B0F9001009122172008860726F4839
:10069000B0F900100912A172FF210088E0722173E5
:1006A0006B484188090A61734188A1730288120A64
:1006B000E27312220188217421460079607463700C
:1006C000684600F015FABDF80000A0741420BDF8CB
:1006D0000010090AE17416BD4C4800F1D803152238
:1006E000142100F51F7000F0C7BC38B586B0162184
:1006F000684600F08DFB16224FF40051684600F06A
:1007000066FC9DF800204A4CAA2A0DF102000AD18D
:100710009DF8011000228A42BFBF835CA568AB54DC
:10072000521CF8DB16E0AA228DF800200021A289D5
:100730008DF8012003E0A3685D5C4554491C91429B
:10074000F9DB4FF4005000F091FB012000F0A4F918
:1007500000F004F807B030BD4F4B0000A289921C96
:1007600092B24FF40051684600F013BC18B58FB038
:100770005FF0130239A1022000F02EFB322102A803
:1007800000F046FB3DA102ACD1E900232249888854
:10079000CDE900231928009406DA684600F0F3FA40
:1007A000BDF80420009902E05FF00B0230A10220A6
:1007B00000F012FB032214A1022000F00DFB012027
:1007C00000F06AF910B010BD70B5002400250F4884
:1007D00000EB0516727E012A11D1F069012430B1B7
:1007E00000F0DCFEF169326A401A904207D3002023
:1007F000707600F0D3FEF061E8B2716A88476D1C34
:100800000C2DE4DB204670BD0D0A000080010020A5
:100810000008024098010020C8050020B00900200F
:10082000940900204400002088090020380400209A
:1008300014040020A8090020E4040020A4090020DA
:10084000FC030020D10500206A050020640500207B
:10085000780100204552524F520000006170705FD5
:1008600070635F626F783A20526563763A200000C9
:1008700044617461204C61726765000000000000F3
:10088000000000002DE9F84F0D4600267649774A12
:100890000F23044601202F68B04000EA0708804576
:1008A00040F0CA804FEA460C032707FA0CF76FEABC
:1008B000070E6F6807F00309B9F1010F1CBF07F0BD
:1008C0000307022F12D1A768D5F80C900EEA07078C
:1008D00009FA0CF949EA0707A760676827EA0000E8
:1008E0006F68C7F30017B74038436060B0002F79D6
:1008F00007F00307032F21D0E768D5F808900EEA28
:10090000070709FA0CF949EA0707E7602F7907F0AA
:100910000307022F12D1F70804EB870700F01C0928
:10092000D7F820A003FA09FB2AEA0B0AD5F810B081
:100930000BFA09F949EA0A09C7F8209027680EEA74
:10094000070E2F7907F0030707FA0CF747EA0E079F
:1009500027606F6817F4403F6ED0002700974FEA7A
:10096000960C176847F48047176000F00C00176872
:1009700007F48047009703FA00FE009F3C4F57F8AA
:100980002C7027EA0E0E3B4FBC4208BF002722D036
:10099000394FBC4208BF01271DD0384FBC4208BFA9
:1009A000022718D0364FBC4208BF032713D0354F5B
:1009B000BC4208BF04270ED0334FBC4208BF0527F6
:1009C00009D0324FBC4208BF062704D0304FBC428A
:1009D0000CBF0727082707FA00F0254F40EA0E0052
:1009E00047F82C006FEA08008F6800EA070C6F6870
:1009F000FF0248BF48EA0C0CC1F808C0CF6800EA03
:100A0000070C6F68BF0248BF48EA0C0CC1F80CC065
:100A10004F6800EA070C6F68BF0348BF48EA0C0C38
:100A2000C1F804C00F6800EA070C6868C00348BF3B
:100A300048EA0C0CC1F800C0761C0F2E7FF62AAFD6
:100A4000BDE8F18F0069084018BF0120C0B27047AF
:100A500002B90904816170470E4A136803421CBF42
:100A6000106000F0A1BD7047003C014044380240D6
:100A70000838014000000240000402400008024023
:100A8000000C024000100240001402400018024016
:100A9000001C0240143C014038B5044600F07EFDC5
:100AA00014F1010F054602D004480178641800F0E3
:100AB00075FD401BA042FAD331BD00BF00000020ED
:100AC00000EB0110012100224170426001207047BB
:100AD00010B500EB01140120607000F05FFD606054
:100AE000012010BD00EB0110002242700120704770
:100AF00070B50023038000240FE005880B5D5D4086
:100B000008236E08ED0752BF354686F4204585F070
:100B100001055B1EF5D10580641C9442EDDB0120CC
:100B200070BD0A4601464FF47A734B4800F09FBDF2
:100B3000010015D0FF2801D10A207047FE2801D1FD
:100B400064207047FD2802D14FF47A707047FC286A
:100B500002D142F210707047FB2801D13F48704724
:100B60000120704710B504460846FFF7E1FF0A214F
:100B700014FB01F191FBF0F000B210BD70B50A4614
:100B800000230A24002A06D52D2152420170012398
:100B900001E00A256C43B2FBF4F10029F9D10A21E6
:100BA000B4FBF1F10BE0B2FBF1F4DEB204F130057D
:100BB00001FB142285550A245B1CB1FBF4F10029CA
:100BC000F1D1D8B270BD2DE9F041002600290546CB
:100BD00017464CBFC1F100088846FFF7CFFF044617
:100BE0003846FFF7A5FF0A2102E001FB08F8761C52
:100BF0008045FAD36A1E611CF3B26BB101E02B553C
:100C0000641EE4B2135D2D2B18BF002CF7D13022E7
:100C10002A550C46761EEDE70A23B0FBF3F00A26B0
:100C200004E0D75CEF54B0FBF6F0641E0028E3B29A
:100C3000F7D12E20E854C8B2BDE8F08172B6BFF3F8
:100C40004F8F074907480A6802F4E06202430A60CE
:100C5000BFF34F8F00BFFDE7EC080020A086010026
:100C60000CED00E00400FA0510B52B4C29480122D8
:100C700004F11C0100F053FD01222146274800F039
:100C80004EFD0122611C264800F049FDA11CBDE873
:100C900010400122234800F042BD38B505461F48E8
:100CA000296802681C4C91420CD12189642905D223
:100CB000636822785A542189491C218101222146E6
:100CC00000F02DFD16482968026891420CD1218A56
:100CD000322905D2E36862785A54218A491C21825C
:100CE0000122611C00F01BFD0E4829680268914238
:100CF0000ED1218B642905D26369A2785A54218BC5
:100D0000491C2183A11CBDE83840012200F007BD29
:100D100031BD000064080020B4050020A8080020B0
:100D200020080020EC08002010B5DFF8DC200C467D
:100D3000116800F005F8A0428041C043C00F10BD0B
:100D4000814204D24FF0FF32101A08187047081A77
:100D5000704738B5034600208DF80000002207E0F8
:100D6000E4B2002A1ABF0A2505FB00402046521CA7
:100D70008A4207DA9C5CA4F130050A2D34BF303C6E
:100D80000024EDE732BD30B500220FE004F8123048
:100D90000B689C5C056804F00F0405EB42030A2C09
:100DA000ACBF37343034521C5C7092B28B889A429C
:100DB00008DA0B689B5C04681B090A2BB4BF30334C
:100DC0003733E3E75B00838030BD130003D00A466E
:100DD000194600F07FBF7047032804DA4FF47A7396
:100DE0000A4800F044BC704738B500F006F882B2FB
:100DF00029462046BDE83840EEE704460D46284621
:100E000000F072BF00000000AC090020A80800201C
:100E1000002200F073BF30B4002513E050F8042B1B
:100E2000D30744BFA9F101039A18091F042942F806
:100E3000045BFAD213468C0744BF15809B1CC9077C
:100E400048BF1D7050F8041B0029E7D130BC704723
:100E50000320FFF7C9BF80B500F0ECF8062000F0D2
:100E600071FFBDE80240012000F062BF38B50546C1
:100E70000324FFF7F0FF4FF47A7000F037F80128F1
:100E800003D0641EF5D1002032BD00F0D3F820203D
:100E900000F058FF00F079F8280400F077F8E8B285
:100EA00000F050FF00F007F84FF47A7000F006F8F9
:100EB0000128E9D0E7E7012000F03ABF70B500F063
:100EC000B6F8052000F03EFF05E016F0030F09D04C
:100ED0000120FFF7E1FD00F006F800F01BF8012803
:100EE000F3D11CE01FE0A52000F02CBF70B500F08E
:100EF0009EF8052000F026FF04E0B00709D4012089
:100F0000FFF7CAFDFFF7EFFF00F004F80128F4D166
:100F100005E008E0064621462846FFF705BF00F039
:100F200007FF002070BDFFF7C6FF012070BD78B538
:100F3000C1B004460D461646FFF78DFF4FF47A7098
:100F4000FFF7D4FF01281ED100F074F8022000F052
:100F5000F9FE00F01AF8280400F018F8E8B200F0E2
:100F6000F1FE64200090334601AA2146DFF8CC0050
:100F700000F05CFFFFF79FFF6420FFF79FFF012851
:100F800001D142B070BD0020FBE72802000E00F046
:100F9000D9BE70B504460D4616464FF47A70FFF779
:100FA0008DFF01280CD1324629462046FFF7BFFFAE
:100FB000012805D00FF28C01FFF74AFF002070BD19
:100FC0000FF29C010320FFF70FFF012070BD2DE9F8
:100FD000F8430E46804691463502370403244FF409
:100FE0007A70FFF76BFF012804D0641EF7D1002050
:100FF000BDE8F28300F01EF8032000F0A3FE280EE7
:1010000000F0A0FE380E00F09DFEF0B200F09AFE57
:1010100003E0FFF768FF08F8010B4846A0F101095B
:1010200080B20028F5D1FFF746FF0120E0E7044930
:101030000D680446002000F07BBE00008007002001
:10104000AC090020755F65785F666C6173683A2053
:101050007772697465206661696C210D0A00000071
:10106000755F65785F666C6173683A207772697442
:1010700065204F4B210D0A0050B5002404704360D9
:101080000E465643446804619B19836000244368FC
:101090000475C3604175C28250BD38B50446104620
:1010A000657D237D00226D1EAB4223DAE38AEBB11E
:1010B0001A4660B9E06801F053F8E168E08A084434
:1010C000A168E060884211D36068E0600EE02069AA
:1010D0005B421844206101F043F82069616888424E
:1010E00004D2E18AA0684942014421610122207DA5
:1010F000401C2075104632BD10B504460846114606
:10110000227DC2B1E28A19B9216901F029F810E003
:1011100062B110B1216901F023F82069E18AA26867
:1011200008442061904224BF60682061207D411EF8
:101130002175012010BD002010BD007D704700000A
:1011400080B50221A8A0FFF771FA012002BD80B589
:10115000DFF8AC030078012805D1002000F09DF9EC
:101160000021012004E028B900F09EF900210020B0
:1011700000F05AF9012002BD80B5DFF88403407801
:10118000012807D100F089F90121012000F04CF974
:10119000012108E050B9012000F086F9012100206A
:1011A00000F042F90021212000F023F9012002BDC6
:1011B00080B5DFF84C038078012803D1022000F0CD
:1011C0006CF903E010B9022000F06EF9012002BDB5
:1011D00080B5CB48C078012805D1032000F05DF927
:1011E0000321012005E030B9032000F05DF903215F
:1011F000002000F019F9012002BD80B5C048007937
:10120000012803D1042000F048F903E010B90420BC
:1012100000F04AF9012002BD80B5B94840790128A3
:1012200008D1052000F039F90521012000F0FCF873
:10123000012108E050B9052000F036F90521002011
:1012400000F0F2F80021222000F0D3F8012002BDC6
:1012500080B5AB488079012805D1062000F01DF942
:101260000621012005E050B9062000F01DF90621F5
:10127000002000F0D9F80021232000F0BAF8012066
:1012800002BD80B500F030F8BDE8014067E0E0B590
:1012900000F060F8AA218DF8001007228DF80120D7
:1012A00097490B784A788DF802308DF803208B78B7
:1012B000CA788DF804308DF8052088790B794A7941
:1012C0008DF808008DF806308DF807204FF4405057
:1012D000FFF7CCFD0120FFF7DFFB09224FF440515F
:1012E0006846FFF756FE07BDE0B500F033F8092267
:1012F0004FF440516846FFF76AFE9DF80000AA28A7
:1013000004BF9DF80110072923D19DF802207C49D4
:10131000022AB8BF0A709DF80320022AB8BF4A709B
:101320009DF80420022AB8BF8A709DF80520022A81
:10133000B8BFCA709DF80620022AB8BF0A719DF88E
:101340000720022AB8BF4A719DF808000228B8BFDA
:10135000887107BD09220021684600F00DBF70B5F5
:10136000674D684C2878684E012807BF012201218B
:101370000022012100F03AF8687801280CBF012210
:101380000022022100F032F8A87801280CBF0122C7
:101390000022042100F02AF8E87801280CBF01227D
:1013A00000224FF480713046FFF752FB2879012864
:1013B0000CBF012200224FF400713046FFF748FBBA
:1013C000687901280CBF01220022402100F00EF8AC
:1013D000A9794E48BDE8704001290CBF01220022C6
:1013E0004FF40041FFF734BB4F4E00002046FFF79B
:1013F0002FBB1FB58DF8040001AC012000236070E5
:101400008DF80610ADF80030032201A96846FFF7F9
:101410006FFBBDF80000E070010A8DF8081001A80C
:101420000521FFF703F91FBD10B50C46012807BFC2
:101430001B220FF2E4011C220FF2F8010220FFF739
:10144000CBFC062C22D8DFE804F004070B0F13179F
:101450001B000A223EA116E05FF008023FA112E045
:101460005FF00D023FA10EE05FF0070241A10AE02C
:101470005FF00D0241A106E05FF0060243A102E029
:101480005FF0060243A10220FFF7A6FCBDE8104072
:1014900003221AA10220FFF79FBC1D4B33F8101046
:1014A00003EB8003012205E0194B33F8101003EB26
:1014B000800300221869FFF7CBBA70B5002400251D
:1014C000144800EB05167278012A11D170680124C6
:1014D00030B100F063F87168B268401A904207D3E7
:1014E0000020707000F05AF87060E8B2F168884728
:1014F0006D1C082DE4DB204670BD00000D0A0000C5
:101500009409002000100240000402400000024044
:10151000B804002038040020757365725F61707034
:101520005F72656C61793A204F4E2052656C61792B
:101530003A200000757365725F6170705F72656C50
:1015400061793A204F46462052656C61793A200015
:10155000454C455641544F522000000053435245DC
:10156000454E200046524944474520434F4F4C20AA
:1015700000000000414C41524D20000046524944B9
:101580004745204845415420000000004C414D5043
:10159000200000005741524D2000000001484068E3
:1015A000704700BF000000201028114903D188793E
:1015B000401C88717047B0F5006F03D14879401C1A
:1015C0004871704702280B4903D18868401C886025
:1015D0007047B0F5007F03D14868401C48607047F1
:1015E000B0F5805F02D10868401C0860704700BFFA
:1015F000880900207809002038B5040001D10120B5
:1016000032BD00F017F808B900F018F800F01BF828
:1016100000F023F8FFE7416100F001F832BD2068D7
:10162000C16841F40051C1600020686020216970E8
:10163000A970704704F13C05687870470021297053
:10164000204600F0D5BD242068702068C16821F4D0
:101650000051C160204600F0D9BA2068016921F428
:10166000904101612068416921F02A0170472DE90C
:10167000F843054605F13C060C46707820281746CD
:10168000994649D10CB1380001D1012045E03078AC
:10169000012841D001213170002070602122727038
:1016A000FFF77CFFAF848046EF84A868B0F5805FC9
:1016B00004BF286900280EBF2746204600270021C6
:1016C000317004460EE014F8012B426007E02868F0
:1016D000002CF8D137F8021BC1F308014160E88CF7
:1016E000411EE9844346E88CCDF80090002807D0DD
:1016F00000228021284600F081F90028E7D005E08B
:1017000000224021284600F079F908B1032004E0C6
:1017100020207070002000E00220BDE8F28338B580
:1017200000F130039C7B202C0FD109B1140001D1B2
:10173000012032BD1C7B012C07D001241C73002525
:101740001D60BDE8384000F0A3B9022032BD216819
:1017500001F1140252E8001F206800F1140321F087
:10176000400143E80010002870477CB5044621681A
:101770000B68CD684A6913F00F0007D1980661D550
:10178000AA065FD52046BDE87640D5E1D00702D451
:1017900015F4907F56D0D80705D5E90503D5206C00
:1017A00040F001002064580705D5D10703D5206C0F
:1017B00040F002002064980705D5D10703D5206CBE
:1017C00040F004002064180707D5A90601D4D0070B
:1017D00003D5216C41F008012164206C002830D031
:1017E000980604D5A90644BF204600F0A5F9206854
:1017F0004069216C0A0701D440061DD5204600F03F
:1018000070F920684169480611D5FFF7A0FFFCD1A7
:10181000A06B60B10FF215310165A06B00F09CFE6A
:1018200000280ED0A06B016DBDE87C400847204623
:10183000BDE8764000F0AABF204600F0A7FF0020D8
:10184000206473BD206B012804F13D0240F08680C6
:10185000D80600D5EE0640F18180002300930D6884
:1018600000954B6800930098496948063FD5A16BE5
:101870000868406880B20028E3D0A38D9842E0DA7F
:10188000E085C869B0F5807F2DD0216801F10C009A
:1018900050E8001F236803F10C0521F4807145E82E
:1018A00000100028F1D100F09BF8490800F1140560
:1018B000490045E800100028F5D100F091F800F14A
:1018C000140521F0400145E800100028F5D1202042
:1018D00050700021216300F089F800F0BEF8FAD1C1
:1018E000A06B00F0FDFDA18DE08D091A30E0A08D08
:1018F000E18D411AE08D00281CBF88B2002868D015
:10190000206800F10C0353E8003F00F10C0623F4BB
:10191000907346E800300028F2D1206800F05AF8B1
:1019200000F114065B0046E800300028F5D12020C5
:10193000507000222263206800F10C0252E8002F50
:1019400000F10C0522F0100245E800200028F2D139
:101950002046BDE87C4089B200F019BF180629D5A1
:101960002E0627D51078212833D1A068B0F5805FE6
:1019700004BF2069002808D1206A0288C2F3080247
:101980004A60206A811C216204E0206A421C2262B3
:1019900000784860E08C401EE08480B2C8B92068BE
:1019A000C16821F08001C1602068C16841F0400138
:1019B000C16073BD58060CD56B060AD5C86820F007
:1019C0004000C860202111702046BDE8764000F03C
:1019D000DFBE73BD00F1140353E8003F5B0870479E
:1019E000206800F1140151E8001F7047206800F1E1
:1019F0000C0151E8001F00F10C0370472DE9F04184
:101A0000069C05460E4690461F46286801683140F0
:101A1000B1420CBF0120002040451BD114F1010F41
:101A2000F3D024B1FFF7BAFDC01B8442EDD200F021
:101A30001AF821F4D07100F012F8F8D100F01BF878
:101A4000FCD105F13C002021417081700021017022
:101A5000032000E00020BDE8F08121F0100143E800
:101A6000001000287047286800F10C0151E8001FA1
:101A700000F10C037047286800F1140151E8001FC1
:101A8000490800F11403490043E80010002870479A
:101A900081628285C28500F13C0100224A602223D6
:101AA0008B700A70016921B10168CA6842F48072C2
:101AB000CA6001684A6942F001024A610068C1686F
:101AC00041F02001C1600020704744E80021002956
:101AD0007047016801F10C0252E8002F01F10C047B
:101AE000704710B5FFF7F5FF22F49072FFF7EDFF96
:101AF000F8D100F00BF8016B012901D100F071F869
:101B0000202180F83E100022026310BD016801F11F
:101B1000140252E8002F520801F11404520044E864
:101B200000210029F2D1704700000000806B0021E5
:101B3000C185C18400F02ABE1CB590F83E10222950
:101B40004DD18168826AB1F5805F0AD1016969B9B6
:101B500003685968C1F308011180826A911C81628F
:101B60000FE0002904BF0169002902D10368596808
:101B700003E00168496801F07F011170816A4A1C25
:101B80008262C18D491EC18589B231BB0168CA68B4
:101B900022F02002CA600168CA6822F48072CA601A
:101BA00001684A69520852004A6100F029F812D1CE
:101BB0000021016300F015F802681168CB0606D514
:101BC0000024009413680093526800920099818D5C
:101BD00000F0DDFD01E0FFF760F8002016BD0220F7
:101BE00016BD026802F10C0151E8002F036803F1F1
:101BF0000C0422F0100244E800210029F1D17047C2
:101C0000202180F83E10026B012A704770B504460F
:101C100022681169E06821F4405101431161D368E1
:101C20002648A168034020690B4361690343E069CA
:101C30000B430343D3605169A06921F44071014310
:101C400051611F498A421CBF1E48824202D100F0E6
:101C50002FFE01E000F024FE62682568E469642636
:101C60001921B4F5004FA1FB000112D1D30F52008E
:101C700000F066FE00F028F8F60032366420B6FB6D
:101C8000F0F0420002F4F87202EB011200F00700DB
:101C900010E0930F920000F053FE00F015F83601AB
:101CA00032366420B6FBF0F000F0F00202EB0112D5
:101CB00000F00F008018A86070BD0000F369FFFFFE
:101CC00000100140001401406421B0FBF1F106FB5B
:101CD000110670474018491C1CBFB1F1010100F802
:101CE000012DF9D17047000000F1010310F8011B2C
:101CF00011B110F8011BFBE7C01A704700B500BF17
:101D0000130096469446103928BFA0E80C50FAD824
:101D10005FEA417C28BF0CC048BF40F8042BC907CC
:101D200028BF20F8022B48BF00F8012B00BD00009F
:101D30000D4B00280CBF002201224FF40071184601
:101D4000FEF786BE01B582B000204FF47A718DF89F
:101D500004000091012301AA02A9044800F066F8DA
:101D60009DF804000EBD0000000C0240800700201A
:101D700038B5040001D1012032BD606A28B900F0F5
:101D800051F805D00021E16102E00020206160618E
:101D90000020A06204F15005687820B90021297064
:101DA000204600F06FFE0220687000F040F9606885
:101DB000A168E26800F4827001F404410843217CC8
:101DC00002F400621043227D01F002010843A16980
:101DD00002F001021043227F01F40071084394F8DD
:101DE000201002F038021043A26A01F0800108437B
:101DF000216802F4005210430860A06994F824108E
:101E00002268000C00F0040001F01001084350604B
:101E10002068C16921F40061C1610020686001216E
:101E2000697032BD6068B0F5827F70472DE9FC476C
:101E300000F0DCF84FF0010808BF022000F0C68077
:101E40009A4687F80080FFF7A9FB7B78012B09D021
:101E50006968B1F5827F02BFA9680029042B01D00F
:101E60000226AEE0002C1CBFB9F1000FBAF1000F42
:101E700001D10126A5E07B78042B1CBF05217970D8
:101E80007E60C5F83890A5F83EA0A5F83CA02C636C
:101E9000A5F836A0A5F834A02E646E6429680C68F5
:101EA000630603D40C6844F040040C60E9680A9CA3
:101EB000B1F5006F696838D1002918BFBAF1010F78
:101EC00000F0A9F88146E88E002804BFE88F0028BA
:101ED00068D02968886882070BD5E88E002818BF6B
:101EE000B8F1000F05D0286B0288CA60B04600F038
:101EF0006FF829688868C2070CD5E88F50B1C868A8
:101F0000A96B08804FF00108A86B821CAA63E88FB8
:101F1000411EE987FFF742FBA0EB0900A042D2D3A4
:101F200014F1010FCFD003264BE0002918BFBAF1FE
:101F3000010F00F064F88146E88E002804BFE88FA6
:101F400000282FD02968886882070DD5E88E0028E0
:101F500018BFB8F1000F07D0286B02780A73B0469B
:101F6000286B411C00F036F829688868C2070CD538
:101F7000E88F50B1C868A96B08704FF00108A86BD2
:101F8000421CAA63E88F411EE987FFF707FBA0EB1D
:101F90000900A04203D314F1010FCDD0C3E7002CF8
:101FA000CAD1C0E74A462146284600F0A6F818B133
:101FB00020200126786004E0A86810B900F00FF82E
:101FC000009801217970002038703046BDE8F6870E
:101FD000286B811C2963E88E411EE98670470096B4
:101FE0002968CA680092896800917047054605F122
:101FF00050070026387801280C469146704709D1D1
:10200000296B2B680A781A73296B4A1C2A63E98E9C
:102010004A1EEA86704709D1296B2B680A88DA6064
:10202000296B8A1C2A63E98E4A1EEA86704720685B
:10203000016821F04001016070472DE9F843089CD8
:1020400005460E4690461F46FFF7A8FA381A241890
:10205000FFF7A4FA8146404801684901090D614330
:10206000009105E0009800B900240098401E0090FF
:10207000286881683140B1420CBF012000204045F2
:1020800032D017F1010FF3D0FFF788FAA0EB090067
:10209000A04201D2002CE5D12868416821F0E0017E
:1020A00041606868B0F5827F08D1A868B0F5004F3C
:1020B00018BFB0F5806F01D100F019F8A86AB0F52B
:1020C000005F09D12868016821F400510160286887
:1020D000026842F40052026005F150000121417093
:1020E00000220270032000E00020BDE8F28328688F
:1020F000016821F04001016070477CB50446164834
:10210000164E0B4601681825B1FBF5F5B5FBF6F642
:102110004FF47A70464300966168B1F5827F09D129
:102120000092802100222046FFF787FF58B100F07F
:102130000CF876BD009830B10098401E00902168E0
:1021400088680106F6D4002076BD606D40F020005E
:1021500060650320704700000C00002040420F0023
:102160004AB1000011F8013B521E00F8013B1CBFB0
:1021700011F8013BF8E7704710B5044610460A46CF
:1021800001462046FFF7A6FD204610BD80B57448E5
:10219000744900F017F800B108E001BD80B572483D
:1021A000724900F00FF800B100E001BDBDE8014048
:1021B00000F012BD80B56E486E4900F003F800B122
:1021C000F4E701BD01604FF4E13200230C214260CD
:1021D0008360C360036141618361C361FFF70CBA2F
:1021E00080B565486549FFF7EDFF00B1DEE701BD49
:1021F00010B586B00446142200216846FFF7BCFFE4
:102200002268584B5E485F499A4219D100220592D4
:102210000B6943F400230B6100230A6902F40022D6
:102220000592059A0593032200F089F8082200F030
:1022300081F800220021342000F0EAFC342064E020
:102240004A4B9A4219D1002205920B6943F400339C
:102250000B6100230A6902F400320592059A059386
:102260000C2200F06CF8072200F064F80022002134
:10227000262000F0CDFC262047E03E48824221D1B6
:1022800000220592086940F480200861086900F482
:10229000802000F044F843F002030B60086800F06F
:1022A000020005904FF440610598374800F031F87E
:1022B000072100F03AF800220021272000F0A8FCB6
:1022C000272022E02D48824221D100220592486930
:1022D00040F020004861486900F0200000F01FF83D
:1022E00043F004030B60086800F004000590C0216F
:1022F0000598264800F00DF8082100F016F8002295
:102300000121472000F084FC472000F09EFC06B02D
:1023100010BD0091019200210291032270470590A7
:102320000598059202220B68704704910392694652
:10233000FEF7A8BA039304926946FEF7A3BA0C68A5
:1023400044F001040C600223096801F001010591C9
:102350000599009201930022029203237047000026
:1023600020080020004C0040640800200044004089
:10237000A808002000480040EC080020001401409C
:1023800000000240303802400004024000080240D1
:1023900070B50446FFF702F906460CB9012070BD7E
:1023A00004F1340502206870002129702068026859
:1023B00052085200026022681068C1070AD5FFF770
:1023C000EDF8801B0628F6D32020286203216970CF
:1023D000032070BD1368DFF82C0361680340A06818
:1023E0000B43E168034320690B4361690343A06920
:1023F0000B43E1690343206A0B43616A03430429E9
:1024000003D1E16A206B01430B43136023685A69CF
:10241000606AD208042840EAC2020AD1A66AE16AC8
:10242000324331B1A06988B9002E18BF022E1FD0E7
:1024300016D35A61204600F091F9A96A3F228A40DA
:102440008260002028620121697070BDB0F5005FD4
:102450000AD1032EEDD8DFE806F00D0B0D03E8E7F7
:10246000B1F1C07FE5D105E0022E03D9F61EE0D11F
:10247000C801DED5402129620120687070BDF8B521
:10248000044604F1340600253078776A012801D12A
:102490000220F2BD01203070707801281CD102208A
:1024A00070703562204600F049F9B06A3F2101FAA8
:1024B00000F0B8602068016841F016010160F06822
:1024C00020B12068016841F00801016020680168BE
:1024D00041F00101016001E0357002252846F2BD9E
:1024E000F8B5044604F134056E6AFFF757F807465D
:1024F0006878022805D080212962002028700120F8
:10250000F2BD2068016821F01601016000F003F9B6
:10251000E868002804BF6869002801D000F007F9C6
:1025200000F0FFF820680168CA070CD5FFF736F8FD
:10253000C01B0628F6D320202862032169700020E2
:1025400028700320F2BDA86A3F218140B1600020BD
:10255000012169702870F2BD90F83510022903D06E
:102560008022426501207047052180F835100068FF
:102570000268520852000260002070472DE9FC41B9
:10258000044604F1340600205F4900904FF41650D1
:10259000776A0A683D68B2FBF0F8B06A082100F07B
:1025A000B6F80ED02068026853070AD5026822F0F8
:1025B00004020260B06A8140B960316A41F00101F1
:1025C0003162B06A25FA00F1CA070BD521684A6961
:1025D000110607D5012202FA00F0B860306A40F017
:1025E00002003062042100F091F808D021680A68E6
:1025F000930704D5B860306A40F0040030621021BF
:1026000000F084F81BD021680A68130717D5B8605A
:10261000206801684A0307D5006801030BD571697A
:1026200069B1204688470AE00168CA0503D40168F9
:1026300021F008010160F16809B120468847B06ABD
:10264000202100F064F83FD021680A68D3063BD50A
:10265000B8602068717805291CD1026822F0160242
:10266000026000F058F8F068002804BF7069002884
:1026700001D000F05CF83F22B06A8240BA600121CC
:1026800071700020F1693070002939D02046BDE812
:10269000FC41084701684A0307D5006801030FD4CD
:1026A000316989B1204688470EE00168CA0507D420
:1026B000016821F01001016001207070002131706B
:1026C000B16809B120468847306AC8B1306AC1078D
:1026D00010D50520707000F024F80098401C80454B
:1026E000009003D320680168CA07F6D401207070F7
:1026F00000213170B16919B12046BDE8FC4108479D
:10270000BDE8F3813F8010F00C000020B06A01FAB0
:1027100000F0054270472068416921F08001416165
:1027200070472068016849084900016070472068C7
:10273000016821F0080101607047000030B50468AD
:10274000256825F48025256063608068402802D1D3
:10275000A260E16030BDA160E26030BD30B50168CB
:1027600008A401F0FF02103A1823B2FBF3F2890A21
:102770008902A55CC565042A28BF091D8165084634
:1027800030BD000000061016000610167047704796
:10279000704700002DE9F04104000F4654D0494E27
:1027A000306800F00700B84202D200F073F84BD155
:1027B0002068454D810712D5400703D5A96841F42B
:1027C000E051A9602078010703D5A86840F4604073
:1027D000A860A968A06821F0F0010143A9602178F0
:1027E000C80729D56068012802D129688A0305E055
:1027F000022818BF032803D129688A0103D423E0E3
:1028000029688A0720D5A968890840EA8100A8605C
:10281000FEF7C4FE8046A868616800F00C00B0EBCB
:10282000810F09D0FEF7BAFEA0EB080041F2893112
:102830008842F0D303202BE0306800F00700874285
:1028400004D200F027F801D0012021E020784107D0
:1028500005D5AA68E06822F4E0520243AA60217814
:10286000080706D5A968206921F4604141EAC00142
:10287000A96000F035F8AA681449154BC2F3031299
:10288000895CC84018601348006800F009FA00200D
:10289000BDE8F0813770316801F00701B942704737
:1028A0000B480D4A006813680C49C3F3822206E006
:1028B0000748094A006813680849C3F34232895C33
:1028C000C8407047003C024000380240504A0008AF
:1028D0000C0000200800002008380240084B0008C7
:1028E00030B5144C606800F00C00042802D00828B1
:1028F00002D01DE0104830BD22682068002341024C
:1029000002F03F0204D525680B49C5F3881003E0A7
:1029100020680A49C0F38810A1FB000100F010F8FC
:102920002168C1F30141491C4900B0FBF1F030BD01
:10293000024830BD0438024040787D010024F40094
:10294000D3BBD9B1B2F5803F5BD2022A1ED98C46E7
:10295000B1FBF2F102FB11C31B0443EA1043B3FBCA
:10296000F2FC02FB1C3380B240EA0343B3FBF2F0FB
:1029700002FB103240EA0C4000237047022A05D9BE
:102980008446B0FBF2F002FB10C270474AB105D199
:1029900000F0010249085FEA30007047002200237E
:1029A000704700F09DB90B00020000210020704725
:1029B000F7D3002200237047904271EB030CF2D34F
:1029C00070B5B1FA81F4B3FA83F52C1BA340C4F1BE
:1029D000200532FA05F63343A2405FF00046E64098
:1029E00002E05B085FEA3202841A71EB030524BF40
:1029F000204629467641F4D302000B003000002126
:102A000070BD70B5B1FA81F4B2FA82F5C4F1200458
:102A10006419B4F12006DAD3B2405FF00044F44008
:102A2000002502E052085FEA3303C61A71EB020E7A
:102A300024BF3046714664416D41F3D302000B0060
:102A40002000290070BD000080B528482849016099
:102A50004FF4827208214260C16100234FF400727A
:102A60000A218360C3600361436182610362436240
:102A70008362C162FFF77CF918B1BDE8014000F044
:102A8000ABB801BD10B586B004461422002101A8E0
:102A9000FFF772FB21681648814224D100221548B5
:102AA0000092016941F480410161016901F48041B2
:102AB0000091009900924FF46041036843F00203D3
:102AC00003600222006800F00200009000980A48AB
:102AD00001910292002103910322052105910492A4
:102AE00001A9FDF7CFFE06B010BD00008007002051
:102AF00000380040303802400004024080B500F049
:102B0000F1F800F013F800F007F900F013FA00F004
:102B10002BFAFFF74FFBFFF763FBFFF737FBFFF7DE
:102B20003DFBFFF791FF00F0BBFAFEE780B592B0E6
:102B30003022002106A8FFF71FFB1422002101A864
:102B4000FFF71AFB002000902148016841F08051F6
:102B500001600021006800F08050009000981D483E
:102B600000910221026842F4804202600122006862
:102B700000F48040009000980691099210210A917B
:102B8000022200210C920D9110224FF4A8710E9296
:102B90000F91022204211092119106A800F0BCFAB4
:102BA00008B172B6FEE702210291002203920F20C3
:102BB0004FF4A051019004914FF4805205920521E9
:102BC00001A8FFF7E7FD08B172B6FEE713B000BD3C
:102BD000403802400070004072B6FEE70901020072
:102BE00002D4294881547047284B02F00F021A443E
:102BF00002F8041C7047264B19684FF6FF020002CA
:102C0000114000F4E060084322490843186070470F
:102C100070B51F4B1C68C4F302230124C3F10705E0
:102C2000052D2EBF0F2504FA05F56D1E1E1D072E5E
:102C300034BF0023DB1E2940994004FA03F3BDE8AA
:102C400070405B1E1A401143C8E7010007D40122FF
:102C500000F01F01104B8A40400943F820207047C4
:102C600010B5401EB0F1807F01D3012010BD0B4C88
:102C700060600F214FF0FF30FFF7B0FF0021A1602F
:102C800007202060002010BD00E400E018ED00E007
:102C90000CED00E00000FA0500E100E010E000E0CB
:102CA00038B50D4D0D4B2A7804464FF47A711868EB
:102CB000B1FBF2F2B0FBF2F0FFF7D2FF50B9102CEB
:102CC00008D2002221464FF0FF30FFF7A1FFAC6091
:102CD000002032BD012032BD000000200C00002089
:102CE0007047000080B50B48016841F40071016035
:102CF000026842F480620260016841F48071016000
:102D00000320FFF778FF0F20FFF7CAFF00F092FBC8
:102D1000002002BD003C02402DE9F84F86B014228D
:102D200000216846FFF728FA00217448DFF8D091A7
:102D3000DFF8D0A1DFF8D0B1DFF8D081059140F203
:102D4000EF35026842F0100202600022016801F0D3
:102D50001001059141F601570599059248F2400688
:102D6000036843F00403036040F2FF24016801F0AC
:102D70000401059105990592036843F0010303607E
:102D8000016801F00101059105990592036843F07E
:102D900002030360016801F00201059105990592A3
:102DA0002946036843F008030360006800F0080048
:102DB000059005984846FDF74BFE002239465046DF
:102DC000FDF746FE002231465846FDF741FE01223E
:102DD0004FF480714046FDF73BFE002221464046FD
:102DE000FDF736FE00224FF47E714948FDF730FEB4
:102DF000009500F097F84846FDF744FD41F21000B9
:102E000000904FF4881501950221029148466946C9
:102E1000FDF738FD009700F085F85046FDF732FDCC
:102E200040F202210091019502210291504669462B
:102E3000FDF728FD0120002101900222039102925A
:102E4000009669465846FDF71DFD4FF4C04000212D
:102E5000009001910222029269464846FDF712FD58
:102E60000122019202924FF480710091002203929C
:102E700069464046FDF706FD009400F053F84046D1
:102E8000FDF700FD4FF48060002100F043F84FF49F
:102E900000604FF4041100F03DF84FF47E71009192
:102EA00001220192022102910022039269461848F0
:102EB000FDF7E8FC002200210720FFF7A9FE07200C
:102EC000FFF7C3FE002200210A20FFF7A1FE0A201F
:102ED000FFF7BBFE002200211720FFF799FE172005
:102EE000FFF7B3FE002200212820FFF791FE2820E3
:102EF000FFF7ABFE07B0BDE8F08F000030380240AE
:102F0000001002400008024000000240000C024095
:102F10000004024000900191022202926946584644
:102F2000FDF7B0BC01200021019002220391029222
:102F30006946704780B5002000900022094801686A
:102F400041F4800101600021006800F480000090DD
:102F500000983820FFF75CFEBDE802403820FFF7FC
:102F600074BE00BF303802401FB5102200216846F1
:102F7000FFF702F9434C444820604FF480310120B0
:102F8000206100224148A06261600320E061A260EC
:102F900001206061227684F82020E262E26084F8F9
:102FA0003020204600F062FA08B1FFF715FE082035
:102FB0000121009001910722029200F015F808B15A
:102FC000FFF70AFE09210091022200F00CF808B177
:102FD000FFF702FE11210091032200F004F808B16E
:102FE000FFF7FAFD1FBD01926946204600F099BB2C
:102FF00038B586B004461422002101A8FFF7BCF8BA
:103000002168214881423AD100222148214D009275
:10301000416941F480714161416901F4807100911D
:10302000009900920321036843F0020303600068E3
:1030300000F002000090009801910291002103919C
:1030400001A91548FDF71EFC00216960E9604FF4F5
:1030500080611248286029614FF480500022686125
:103060004FF48041AA60A961EA612A626A62284637
:10307000FFF78EF908B1FFF7AFFDA563AC6307B0AA
:1030800030BD0000D8070020002001400100000FE3
:103090003038024020070020000402401064024043
:1030A00010B5FEF7EEF8FDF717FBFDF71EFBFDF779
:1030B000DBFD00F0E3FD3220FDF7EEFC114C00F0EB
:1030C00044FE00F025F8FDF77FFB00F01DF800F04E
:1030D00089FF00F01DF801F085F800F015F801F007
:1030E0004DF900F015F8FEF7E8F900F00DF800F0E2
:1030F000A2FD00F00DF801F0E8F900F005F8DEE7B8
:1031000000000000B20900202278104320707047B0
:1031100021780843207070472DE9F843040016D049
:103120002078DFF80063C10713D5B06800F00C0009
:10313000042807D0B06800F00C0008283DD1706862
:1031400041023AD53068810303D56068002800F059
:1031500063812078B44F810719D5B06810F00C0F47
:1031600007D0B06800F00C0008285BD170684102FD
:1031700058D43068810703D5E068012840F04C81BD
:103180003168206921F0F80141EAC00131602178FD
:10319000080779D56069A549002868D001220A602E
:1031A000FEF7FCF90546706F81076DD4FEF7F6F95E
:1031B000401B0228F7D9032031E16068B0F5803F59
:1031C00004D1306840F48030306011E0B0F5A02FB9
:1031D000306806D140F480203060316841F480319D
:1031E00005E020F480303060316821F480213160C6
:1031F000606858B1FEF7D2F9054630688103A8D45B
:10320000FEF7CCF9401B6528F7D3D4E7FEF7C6F9E3
:103210000546306881039CD5FEF7C0F9401B652840
:10322000F7D3C8E7E068A8B101213960FEF7B6F925
:1032300005463068810705D4FEF7B0F9401B022827
:10324000F7D9B8E73068216920F0F80040EAC100FA
:1032500030609CE73860FEF7A1F9054631688807C1
:1032600095D5FEF79BF9401B0228F7D9A3E7086024
:10327000FEF794F90546706F810705D5FEF78EF9C4
:10328000401B0228F7D996E7207841075FD5306CBC
:103290000025C1000AD400950125316C41F0805110
:1032A0003164306C00F0805000900098DFF880812D
:1032B000D8F80000C10513D4D8F8000040F480709D
:1032C000C8F80000FEF76AF98146D8F80000C10589
:1032D00006D4FEF763F9A0EB09000228F5D96AE7E6
:1032E000A068012805D00528306F06D140F0040001
:1032F0003067306F40F0010005E040084000306763
:10330000306F20F00400306741F28938A06860B166
:10331000FEF744F98146306F810713D4FEF73EF97A
:10332000A0EB09004045F6D345E7FEF737F98146A3
:10333000306F810706D5FEF731F9A0EB0900404553
:10334000F6D338E71DB1306C20F080503064A069AE
:10335000002863D0B16801F00C0108293AD0022896
:103360002AD100203866FEF719F905463068810138
:1033700005D5FEF713F9401B0228F7D91BE7E069D2
:10338000216A626A0843A16A490840EA8210491E1C
:1033900040EA0140E16A40EA01607060012038665D
:1033A000FEF7FCF804463068810137D4FEF7F6F8E2
:1033B000001B0228F7D9FEE600203866FEF7EEF87B
:1033C00004463068810129D5FEF7E8F8001B022881
:1033D000F7D9F0E601281FD07068E26900F4800197
:1033E000914202BF00F03F01226A914201BF47F6BD
:1033F000C0710140626AB1EB821F0DD1A26A52080E
:1034000000F44031521EB1EB024F02BF00F0706079
:10341000E16AB0EB016F01D0012000E00020BDE8BF
:10342000F28300BF0038024000004742800E47424E
:103430000070004081B00020009000220A484168DE
:1034400041F480414160416801F48041009100995C
:103450000092036843F080530360006800F08050DE
:103460000090009801B070474038024070B50446A3
:1034700000250CB9012070BD04F13006306920B977
:103480002046FFF7B5FD756135733069C10600F15F
:1034900092803069DFF8C01320F4885040F00200B9
:1034A0003061086820F4403008600A6860680243B0
:1034B0000A602068416821F4807141602068416899
:1034C000226941EA022141602068416821F040718F
:1034D000416021684A68A06802434A6020688168A8
:1034E00021F40061816021688A68E06802438A6093
:1034F0002068A16ADFF864239142816821F070613D
:1035000081600CD021688A68A06A02438A6000F05A
:103510005BF821688A68E06A02438A6001E000F093
:1035200053F82068816821F0020100F049F8227EFA
:1035300041EA4201816094F820002168002848682F
:103540000FD040F4006048602068416821F4604179
:10355000416020684168626A521E41EA423141601E
:1035600002E020F4006048602068C16A21F4700124
:10357000C1622068C16AE269521E41EA0251C16219
:103580002068816821F4007100F01AF8327841EA6D
:10359000422100F015F821F4806100F011F8626911
:1035A00041EA822181607561316921F0020141F0B7
:1035B0000101316100E0012500203073284670BD13
:1035C00081602068816870472068816821F04051DF
:1035D00081607047126802F01F02102A704701686C
:1035E00041F0804101607047816841F08041816015
:1035F0007047F8B50446002004F13C0300901D78A4
:10360000012D01D10220F2BD0120187020688568CB
:10361000EE070DD48568974E45F001058560964804
:103620000568B5FBF6F606EB4606009600F00BF9CA
:1036300020688568EE0503D5856825F4807585606A
:103640002568A868C60762D55F688848074047F4C0
:1036500080775F606868450505D5586820F400509C
:1036600040F4805058605868C50446BF986820F000
:1036700006000020986000251D70A36B0FF2FD105E
:10368000D863A36B0FF25D201864A36B0FF25D206B
:10369000D8646FF02200256828602068436843F0F2
:1036A0008063436013462068856845F480758560B3
:1036B0000A46206800F14C01A06BFEF7E0FE20688E
:1036C000654A6B49136813F01F0F16D188420DD05D
:1036D0006349884204D1126812F01F0F1FD105E020
:1036E000604988421BD1FFF775FF18D2816811F03D
:1036F000405F14D1FFF778FF11E0884202BF5A48BB
:10370000016811F0405F0AD1FFF769FF07E05868D0
:1037100040F010005860986840F001009860002068
:10372000F2BD78B502460020009092F83C30012BA3
:1037300001D1022072BD012082F83C0007240B68F1
:1037400010680A2B11D30A3BC56803EB430300F052
:1037500076F8C460C3680D688C68A5F10A0606EBAC
:103760004606B4402343C3600FE0056903EB4303FF
:1037700004FA03F325EA0303036103690D688C6807
:1037800005EB4505AC40234303611F244B68072B21
:103790000CD25B1E456B00F050F84463436B4D68E0
:1037A0000C886E1E00F044F843631BE00D2B0CD216
:1037B000DB1F056B00F041F80463036B4D680C8858
:1037C000EE1F00F035F803630CE00D3BC56A00F016
:1037D00034F8C462C36A4D680C88A5F10D0600F088
:1037E00027F8C362224B98421DD10C681A48122C4C
:1037F00003D1036843F4800303600B68102B18BFE8
:10380000112B10D1036843F40003036008681028EB
:1038100009D11949174C0B68B3FBF4F40A2044434F
:10382000009400F010F8002182F83C10002072BDD6
:1038300006EB8606B4402343704703EB83039C40AA
:1038400025EA0404704702E00098401E00900098AA
:103850000028F9D170470000042301400100000F47
:10386000002101400022014008200140FEF9FFFF35
:103870000020014040420F000C000020816B0A6CC8
:1038800012F0500F24D1086C40F4007008640A68EC
:10389000906810F0405F04BF087E002815D1D06A00
:1038A00010F4700F02D0906843050ED4506820F0D9
:1038B00020005060086C20F480700864086CC2041A
:1038C00003D4086C40F001000864084600F034BEE0
:1038D0000A6CD30644BF084600F02FBE896BCA6C41
:1038E00010470000806B00F029BE0000806B402173
:1038F0000164426C42F00402426400F01EBE00000B
:1039000038B5DFF8B05304462879401C28710322EB
:1039100005F10801DFF8A003FFF76BFE2979DFF856
:103920009C03642903D10121FDF7CAF802E0214676
:10393000FDF7CEF8012032BD70B50446DD4EDE48FD
:10394000032206F10801FFF754FEDC4DB8B9726995
:10395000B068717982187261491CB269F06871713E
:103960008218B261C9B2F269306982186429F261C1
:1039700005DB00207071022100F0D9F803E0214638
:103980002846FDF7A5F8012070BD000010B5C94913
:10399000CB4B48696422B0FBF2F2886900EE102A32
:1039A0006422B0FBF2F2C86981ED050A00EE902AAC
:1039B0006422B0FBF2F201EE102AC1ED060A81ED9D
:1039C000071A40F6E4401C88444301EE904AF8EEA2
:1039D000611AB8EE411A81EE811A9FEDA72AF8EE1E
:1039E000600A81EE021AB8EE400A60EE810A9FED8D
:1039F000A63A20EE010ADFEDA42AC0EE830A9FED6D
:103A0000A31A80EE220AC0EE811A9FEDA12A9FED33
:103A1000A11AF1EE0C2A01EE821A80EE220A71EE52
:103A2000402ADFED9D1A30EE410A62EEA11A30EE17
:103A3000200A81EE800ADFED990A30EE200A9FED20
:103A4000981A9FED982A00EE012ADFED971A42EEB0
:103A5000001ADFED960A41EE800AB2EE040A20EE6B
:103A6000800ABDEEC00A10EE100AA0F10A02FF2380
:103A700000200A808B7048618861C86100F0AEF850
:103A800005218E48FDF71CF8012010BD80B58D483A
:103A90008178B0F9000000F05BF800F079F80120BF
:103AA00002BD80B503216846FDF7B2F903224FF449
:103AB00080516846FDF78BFA9DF80000AA2807D1CF
:103AC0009DF801009DF8021041EA00217948C1806B
:103AD000012002BD70B57748784CB0F90610B0F9F6
:103AE0000000794D794E01F1190282420DDA01236D
:103AF000337100F01BF801223271032100F017F836
:103B000007212046FCF7EEFF0AE01939884207DA60
:103B10000020307100F00AF807212046FCF7D8FF9A
:103B200006212046FCF7D4FF012070BD0521284660
:103B3000FCF7C6BF80B50121604805E080B5634948
:103B40000020887003216048FCF7BAFF012002BD05
:103B500038B504460D4603216846FDF759F9294654
:103B60002046FCF7FFFF53498DF80200C880AA22C7
:103B700003128DF800208DF801304FF48050FDF7CE
:103B800075F903224FF480516846FDF702FA31BD02
:103B90001FB501AC012060700021ADF800101522A6
:103BA0004848415E80788DF804208DF807100A128D
:103BB000A2708DF80800052201A96846FCF798FF5D
:103BC000BDF80010BDF800006071090A8DF80A10F8
:103BD00001A80721FCF72AFD1FBD00003EB5052105
:103BE0006846344CFDF714F9B4F90010FF2268461A
:103BF000FCF7E9FF0546122236A10220FDF7ECF89A
:103C00002A4669460220FDF7E7F80D2236A1022078
:103C1000FDF7E2F8B4F90610FF226846FCF7D3FF7F
:103C2000024669460220FDF7D7F8032220A10220B0
:103C3000FDF7D2F837BD70B5002400251F4800EB12
:103C400005167278012A11D17068012430B1FDF790
:103C5000A5FC7168B268401A904207D300207070CA
:103C6000FDF79CFC7060E8B2F16888476D1C082D78
:103C7000E4DB204670BD000000007A4402221449B3
:103C80000D48FFF7B6BC000000F07F4500EC7E4613
:103C90000058C5456F12033B0000FA430000F0C214
:103CA000CF7389352CAC273A7E8C19403D4A77C3B7
:103CB0000D0A000064050020D8070020E40400205D
:103CC0002A7AFF1FA8090020380400209409002048
:103CD0006C0500206170705F74656D706572617451
:103CE0007572653A20000000205468726573686F31
:103CF0006C643A20000000000120704780B5014646
:103D00002248828822484AB1038E934205D100227C
:103D100002860221FCF7D4FE02E00286FCF7D8FE00
:103D2000012002BD10B5194C0121204600F09AFC7B
:103D3000A28820680021FDF748F80020A08001211A
:103D40001348FCF7BDFE012010BD70B5002400250E
:103D50000F4800EB05167278012A11D17068012412
:103D600030B1FDF71BFC7168B268401A904207D36E
:103D700000207070FDF712FC7060E8B2F1688847AF
:103D80006D1C032DE4DB204670BD0000B80500204B
:103D90001000002010B5A44CA0783D2807DA0021BF
:103DA0002181A172E17000F099F8012121710120B7
:103DB00010BD38B59C4C9D4DE1780020491CA07188
:103DC000E17028460321FCF783FE04212846FCF716
:103DD0007FFE02212846FCF773FEA07800F082F8EF
:103DE000012032BD70B5904D904C0646687903288D
:103DF0000BD1FDF7D3FB616B401AB0F57A7F0AD285
:103E0000287A401C02212872697131462046FCF74D
:103E10005FFE012070BD00F087F80020687103216B
:103E20002046FCF75FFEF4E780B500F07DF87E48A1
:103E3000427A0021521C41714272012002BD7FB5BD
:103E40000020ADF8000001AC77480178012927D1A6
:103E50008179827A4378C5788A189D4282720DD220
:103E60008078A0704022E1708DF8042004266371F0
:103E70006670257100F032F8062519E00021017105
:103E8000412304218DF804306170E2708378017A57
:103E9000407AA37021716071062500F063F807E095
:103EA0008078162101228DF804106270A07003251D
:103EB0002A4601A96846FCF71BFEBDF800006055C4
:103EC0006D1CBDF80020E8B2120A22546D1CE9B244
:103ED00001A8FCF7ABFB012004B070BD01215348E1
:103EE000FCF7EEBD70B5441EE4B20A20DFF8406175
:103EF0005CA394FBF0F533F8151056F82500012269
:103F0000FCF7A6FD0120FCF7C7FD0A2059A100FB24
:103F1000154406EB840031F81410C069BDE8704008
:103F20000122FCF795BD000070B50024DFF80051B8
:103F30004CA636F8141055F824000022FCF788FD32
:103F4000641C072CF5DB00BF4AA6002405EB8400A7
:103F500036F81410C0690022FCF77AFD641C0A2CA4
:103F6000F4DB70BD1CB5304CA17800F038F8152298
:103F700030A100F02CF800F02DF800208DF80100A1
:103F80005FF0050231A100F022F8A17A00F027F8D5
:103F900000F020F800208DF8010008222DA100F08B
:103FA00016F8217A00F01BF800F014F800208DF8C4
:103FB0000100072229A100F00AF8617A00F00FF849
:103FC00000F008F8032217A100F001F813BD022049
:103FD000FCF702BF022269460220FCF7FDBE6846DC
:103FE000FCF7CCBD70B500240025104800EB051689
:103FF0007278012A11D17068012430B1FDF7CEFA30
:104000007168B268401A904207D300207070FDF7C3
:10401000C5FA7060E8B2F16888476D1C042DE4DDD4
:10402000204670BD0D0A00008809002044000020D1
:10403000940000206170705F6374726C5F6D6F74C8
:104040006F723A20506F733A000000002049523AD4
:1040500000000000204561726C793A00204C6174C8
:10406000653A00000400020001000010000800048E
:1040700000800000080010002000400080000800C0
:10408000100020004000800080B501216648FCF748
:1040900017FD012002BD70B50446644D4FF4804108
:1040A0002846FCF7CFFC401E8041614EC00F3070A7
:1040B0004FF400512846FCF7C5FC401E8041C00F5C
:1040C00070700221584D2846FCF7FAFC214628461C
:1040D000FCF7FEFC012070BD10B5554C207801287E
:1040E00004D16078012808D1032009E0002803BF2B
:1040F000607801280220002002E0401E8041C00FAD
:10410000607121796079884205D00122A270032173
:104110004548FCF7D5FC60792071012010BD1CB525
:1041200004464348017801291FBF4178012981785D
:1041300001290AD100228270684600F00CF801467D
:104140006846FCF773FA00F023F821463648FCF77E
:10415000BFFC012016BD1CB504460020ADF80000D0
:104160003121217002223248627004220178A1704C
:1041700021464378E3706846FCF7BAFCBDF80000BE
:1041800020710620BDF80010090A617116BD0000FB
:1041900070B5192227A1264E0FF2BC042CA500F001
:1041A0001EF83078012807BF05222946062221463D
:1041B00000F015F85FF0090229A100F010F87078FE
:1041C000012807BF052229460622214600F007F8EC
:1041D000BDE87040032213A10220FCF7FDBD0220C0
:1041E000FCF7FABD70B5002400250F4800EB05165A
:1041F0007278012A11D17068012430B1FDF7CEF92F
:104200007168B268401A904207D300207070FDF7C1
:10421000C5F97060E8B2F16888476D1C042DE4DBD5
:10422000204670BD0D0A0000D8000020001002409A
:104230009C0900206170705F646F6F725F73656EC0
:10424000736F723A20446F6F72313A2000000000A1
:104250004F50454E00000000434C4F5345000000B6
:1042600020446F6F72323A200000000080B50121B7
:104270005348FCF725FC012002BD70B50446514DA2
:104280004FF480612846FCF7DDFB4F4EB178884241
:104290000AD17178491CCAB20A2A06DB0A21421ED9
:1042A0009241D20F327000E00021717028464FF425
:1042B0008061FCF7C7FBB07000F042F8012070BDD0
:1042C0000120704710B50146404882883C4852B1F1
:1042D0003F4B1C88944205D100221A800421FCF730
:1042E000EFFB02E01A80FCF7F3FB012010BD10B5D4
:1042F000364CA28820680021FCF767FD0021A180D0
:1043000003212F48FCF7DCFB012010BD3EB52E4DEC
:104310002B7904462878E87098420BD005220021BA
:104320006846FDF729FF684600F00EF8014668462A
:10433000FCF77CF9E878287100F002F801203EBD16
:1043400021461F48FCF7C4BB1CB504460020ADF84D
:1043500000000F21217001221B48627003220378A4
:10436000A37021466846FCF7C3FBBDF80000E0706F
:104370000520BDF80010090A217116BD70B5002492
:1043800000250F4800EB05167278012A11D17068DC
:10439000012430B1FDF702F97168B268401A904209
:1043A00007D300207070FDF7F9F87060E8B2F1688B
:1043B00088476D1C062DE4DB204670BD0000000020
:1043C0001801002000000240D1050020C005002097
:1043D000A20900207CB54E4D0446286810B100F0BB
:1043E00026F82960686810B100F021F86960A868B3
:1043F00010B100F01CF8A960287B464E88B16846D1
:1044000000F031F801466846FCF710F900F046F874
:10441000287B032803D101213046FCF751FB002003
:10442000287321463046FCF753FB012076BD287BDC
:10443000401C00212873704780B53749012000F0E7
:104440000DF802213348FCF743FB012002BD80B583
:104450003149002000F002F8012002BDC87004219B
:104460002E48FCF72DBB1CB504460020ADF800001B
:10447000302121700122264862700322037BA37041
:1044800021466846FCF734FBBDF80000E0700520CB
:10449000BDF80010090A217116BD000080B51C4846
:1044A000017B6846FCF76AFB5FF016021CA1022044
:1044B000FCF792FC012269460220FCF78DFC0322E6
:1044C00012A10220FCF788FC01BD70B50024002574
:1044D000104800EB05167278012A11D1706801248A
:1044E00030B1FDF75BF87168B268401A904207D3AB
:1044F00000207070FDF752F87060E8B2F1688847EC
:104500006D1C032DE4DB204670BD00000D0A000089
:104510007809002084050020940900203804002038
:104520006170705F7669625F73656E736F723A2057
:104530004C6576656C20000070477047704700003E
:1045400080B500F04EF8022270A100F04CF8FCF7A4
:104550009EFEBDE80140FCF771BB80B56D488288C6
:10456000016800F040F8BDE80840032276E038B565
:1045700086B004460D4616216846FCF749FCAA227F
:104580008DF800200021A0888DF80100614881800D
:104590000FE0142D0CDA21684A5D0DEB05039A70CB
:1045A00021684A5D036881885A548288521C82803F
:1045B0006D1CEDB2A1888D42EBDB4FF40050FCF78F
:1045C00055FCA288921C92B24FF400516846FCF749
:1045D000E0FC00F006F802224CA100F004F807B05D
:1045E00030BD02224AA10120FCF7F6BB1CB5052113
:1045F0006846FCF70DFC4849B1F90010FF226846F7
:10460000FCF7E1FA04460D2245A1FFF7ECFF224634
:1046100069460120FCF7E0FB03223CA1FFF7E3FF22
:1046200013BD80B5026811782D2909D1302313708C
:1046300081880068C9B2FCF78CFB80B2404204E07C
:104640008188C9B21046FCF784FBFF2100B2FFF756
:104650007FFAFFF7C6FFBDE8084002222BA1012028
:10466000FCF7BABBFEB5054631A00C46D0E90023E5
:10467000CDE90023002007E0A2F141031A2B3CBF43
:1046800020320A54401C80B2A988884205DA296881
:104690000A5C3D2A18BF3F2AEED100271F4A02EBD1
:1046A0000716294606F1080000F046F8010001D47B
:1046B000706820B97F1C062FF0DB0020FEBDB0899A
:1046C00041180BE0BDF80400802806D2009B1A5464
:1046D000BDF80400401CADF80400491C89B2AB8849
:1046E00099420ADA2868425C0D2AEBD15B1E994296
:1046F000E8DA084440780A28E4D1641E012C03D883
:1047000072680021684690470120FEBD0D0A000036
:104710004F4B00001C0400206A050020744900086B
:10472000205468726573686F6C643A200000000062
:10473000D8050020000000002DE9FE4F05464FF08F
:1047400000090E46ADF80490C8462968087821286B
:1047500008BF4FF0010800272DE0002C0FFA8BFB5B
:104760003AD12968336811F80A20DB1913F80A10C6
:104770008A421ED1DA46A9888A4533DA2A6812F8B5
:104780000A107C290AF1010BE7D1BDF9040010B928
:1047900001240AEB070901A800900FFA89F33246B9
:1047A00029460FFA8BF000F032F8C1B20129D4D1BA
:1047B0001BE07F1C3FB2B088874219DA2968306855
:1047C00011F80820C35D9A42F3D10024012008F1BA
:1047D000010AADF80440CEE7BDF904108A45C9DAF4
:1047E0008A46C8E7C0B20128E3D14146384602E014
:1047F00041464FF0FF3000F002F8BDE8FE8F29B1CE
:10480000002802D44FF0FF307047002070472DE998
:10481000F84604460D46089801214FF0000C4FF071
:10482000FF3914E097880CEB030A574502DA791C2C
:104830000180494616F80CE01668F61816F80C7058
:10484000BE450CF1010618BF49460FFA86FCAE883A
:104850000CEB0407B74207DA2F683E1916F80C7004
:104860007C2FDFD1644404800846BDE8F286000056
:10487000FEE7FEE7FEE7FEE7FEE77047704770479A
:1048800014480168491C016000F030B80220FCF7B0
:10489000E3B81020FCF7E0B84FF40070FCF7DCB888
:1048A0000D48FCF762BF0D48FCF75FBF80B54FF4C1
:1048B0000060FCF7D1F8BDE802404FF48050FCF7EF
:1048C000CBB80748FCF751BF0648FDF757BE06486E
:1048D000FCF74BBFAC09002064080020A8080020AA
:1048E0002008002020070020EC0800200248416832
:1048F00002788A184260704700000020F0B4024637
:10490000106895681318506803EB5004C0071CD555
:104910004D441AE013F8017B05F8017B491EF9D1DB
:1049200098B113F8011BC6F38106032E08BF13F8D4
:10493000016B01EB06214942801C294405D011F886
:10494000016B05F8016B401EF9D1A3420ED013F89C
:10495000016B16F0030104BF13F8011BC91C3009D9
:104960000F28DBD113F8010B0F30D7E7F0BC02F1B1
:104970000C0070470000000041450008D84A0008BC
:104980000B000000010000005B450008E44A00083D
:1049900008000000020000006F450008F04A00080F
:1049A0000800000003000000ED450008A84A0008C8
:1049B0000E0000000400000023460008B84A00086A
:1049C0000E0000000500000000000000104B000871
:1049D0000600000010B5074979441831064C7C44A4
:1049E000163404E00A68081D114488470146A142B4
:1049F000F8D110BD2C000000480000004EF6885190
:104A0000CEF20001086840F470000860BFF34F8FD9
:104A1000BFF36F8F4FF00070E1EE100A7047000097
:104A2000F7C3FFFFDC030000D805002000000000F2
:104A3000CDFEFFFFF8010000880300000000002009
:104A40000248016841F470010160704788ED00E0A0
:104A5000000000000000000001020304060708092E
:104A600000F00DF8002801D0FFF7B4FFAFF300808D
:104A70000020AFF30080FEF741F800F002F80120BB
:104A8000704700F001B800000746384600F002F811
:104A9000FBE7000080B5AFF30080024A1100182048
:104AA000ABBEFBE72600020061742B74687265736D
:104AB0006874656D703F000061742B746872657373
:104AC0006874656D703D00000148804701480047EB
:104AD000414A0008FD4A000861742B7265736574D1
:104AE0006463750061742B736572693F0000000098
:104AF00061742B736572693D00000000AFF30080A4
:104B0000FFF77CFFFFF7ACFF000000000102030489
:104B100061742B656E640000FFF7FEBFFFF7FEBFF8
:104B2000FFF7FEBFFFF7FEBFFFF7FEBFFFF7FEBFB9
:104B3000FFF7FEBFFFF7FEBFFFF7FEBFFFF7FEBFA9
:104B4000FFF7FEBFFFF7FEBFFFF7FEBFFFF7FEBF99
:104B5000FFF7FEBFFFF7FEBFFFF7FEBFFFF7FEBF89
:104B6000FFF7FEBFFFF7FEBFFFF7FEBFFFF7FEBF79
:104B7000FFF7FEBFFFF7FEBFFFF7FEBFFFF7FEBF69
:104B8000FFF7FEBFFFF7FEBFFFF7FEBFFFF7FEBF59
:104B9000FFF7FEBFFFF7FEBFFFF7FEBFFFF7FEBF49
:104BA000FFF7FEBFFFF7FEBFFFF7FEBFFFF7FEBF39
:104BB000FFF7FEBFFFF7FEBFFFF7FEBFFFF7FEBF29
:104BC000FFF7FEBFFFF7FEBFFFF7FEBFFFF7FEBF19
:104BD000FFF7FEBFFFF7FEBFFFF7FEBFFFF7FEBF09
:104BE000FFF7FEBFFFF7FEBFFFF7FEBFFFF7FEBFF9
:104BF000FFF7FEBFFFF7FEBFFFF7FEBFFFF7FEBFE9
:104C0000FFF7FEBFFFF7FEBFFFF7FEBFFFF7FEBFD8
:104C1000FFF7FEBFFFF7FEBFFFF7FEBFFFF7FEBFC8
:104C2000FFF7FEBFFFF7FEBFFFF7FEBF4301000126
:104C30002210083324F40E5205145003F93C0008E6
:104C40000121211412FD1052021C21109003253D58
:104C5000000800012114129514920124C3B33D34BD
:104C600012E5105203105007B80B0000293E00084F
:104C700004101003881300003F107002000C024063
:104C800004920804920018A104F20204048201C8EC
:104C900083894094217483974094210183D940945F
:104CA000600660EA00001F410008408404983A0052
:104CB000006D4208120A07C37B42D412C11096034A
:104CC0002883C542D4211012EF105205204404D08D
:104CD0000700000D4338F30AFF00019180C78901E6
:104CE00088C3CF0180C30702C0C39B048012C310D6
:104CF0009205109003010500080610124B10520790
:104D00001012E849129F6065D921B0125D20920906
:104D100080128310920A2012B910570B0070F0060F
:104D2000FFB84C0AFD0500080001F19A0124026455
:104D3000090020C01003240400200E092007535648
:104D400056444D43323330015631DA59A02900CF51
:104D50004111F403CB4F11A08B7911A02110CBB1DD
:104D600011A0CBD111A0CBFB11A08B1912A0211047
:104D70001251101002010002004411071D17041205
:104D8000801512100961046D0404210C2121519D2C
:104D9000121407830139AC29C4CF39390C04838D2F
:104DA00039AC2101138D3AAC82011183A33AAC21B5
:104DB0000183D53AAC800430750000353BAC6C04FF
:104DC000C02709003D3B0C03F30832000151602D60
:104DD0009C04C7D5434C833944A01710275C424438
:104DE00050475806A45630AC52BC10214C03010168
:0400000508004AFDA8
:00000001FF
