:020000040800F2
:100000005010002081570008595500085B55000822
:100010005D5500085F5500086155000800000000AC
:100020000000000000000000000000006355000810
:100030006555000800000000675500086955000874
:100040000158000805580008095800080D58000814
:10005000115800081558000819580008755500086F
:100060001D580008215800087B5500082558000835
:10007000295800082D580008315800083558000844
:10008000395800083D5800084158000845580008F4
:10009000495800084D58000851580008815500087B
:1000A00055580008595800085D5800086158000864
:1000B00065580008695800086D5800087158000814
:1000C00075580008795800087D58000881580008C4
:1000D0008558000889580008895500088F55000880
:1000E000955500088D58000891580008955800084B
:1000F000995800089D580008A1580008A558000804
:10010000A9580008AD580008B1580008B5580008B3
:10011000AB550008B9580008BD580008C158000880
:10012000B1550008C5580008C9580008CD58000846
:10013000D15800080000000000000000D558000859
:10014000D9580008DD580008E1580008E5580008B3
:10015000E9580008ED580008F1580008B7550008A4
:10016000F5580008F9580008FD5800080159000822
:1001700005590008095900080000000000000000AF
:100180000D590008115900081FB500F0BEFA01AC66
:1001900000220E210120ADF800208DF804106070BF
:1001A00000F0B7FABDF80000E0700021217101A84D
:1001B000052100F08FFB09220FF68011DFF82C4992
:1001C000012000F04FFDA2882068002100F043FDCF
:1001D0000020A0800121DFF81849204600F05EFDD4
:1001E0000B21204600F05AFD0E21204600F05EFD56
:1001F000012004B010BD38B50446DFF8F8580122DC
:100200000121284600F048FE012000F071FE002286
:100210000121284600F040FE2146DFF8D40800F016
:1002200045FD012032BD10B50146DFF8C0088288C7
:10023000DFF8BC085AB1DFF8C0381C88944205D1F9
:1002400000221A80022100F029FD02E01A8000F04D
:100250002DFD012010BD2DE9FC47DFF89058DFF897
:100260009098A98828680024ADF800400022C9B2FF
:1002700000F0E2FBA88829680A18921EA24653786B
:10028000127842EA0326821E92B2684600F044FECB
:10029000BDF80000B04234D100F018FF05210FF680
:1002A000A80000F017FBAA88DFF8500802700021B0
:1002B000286800F0D0FC0020A8800121484600F00A
:1002C000EDFC0120BDE8F687D65D012E744618D1FD
:1002D0001FFA8EF6771CB94213DB9CF8041079B92B
:1002E00001271F708CF800108CF804700021925DBB
:1002F0008CF802208CF801708CF8057000F0CEFCB0
:10030000641CA988A6B2891EB01C8142C0F21F815C
:100310002A68DFF8EC07965DDFF8E8C7DFF8E887C2
:10032000DFF8E837641C0B2E04F1010EA7B200F0D1
:10033000B3800C2E00F0D6800D2E00F0DB800E2E48
:1003400032D0152E00F08C80162EBDD01B2E00F062
:10035000ED80202E06D0212E3BD0222E4CD0232EF5
:1003600062D0CEE7D65D022E7446CAD11FFA8EF651
:10037000B71CB942C5DB9CF8041099B94FF0010ACB
:1003800083F800A08CF800A08CF804A0915D8CF894
:100390000210521C0021935D8CF801308CF805107E
:1003A00000F07CFCA41CACE7D05D01287446A8D109
:1003B000A0B2401C8142A4DB0121484600F080FC31
:1003C0000221484600F07CFC0821484600F066FC0B
:1003D00097E7D05D0128744693D1A0B2431C99429F
:1003E0008FDB115C02298CDA01230122012000F04D
:1003F0004FFF00F0A3FF83E7D05D01287446EBD1E7
:10040000A0B2431C9942EBDB115C0229EBDA98F8AD
:10041000120010B10123012202E001230122002178
:10042000052000F035FF6BE7D05D01287446D3D17D
:10043000A0B2431C9942D3DB105C0228D3DADFF868
:10044000D06650B10128EED198F8120028B1DFF83B
:10045000C40601F00BF8022100E0032130464DE70D
:10046000D05D03287446B7D1A0B2C31C9942B7DB54
:10047000115CDFF8A4361980641C0902A6B2198049
:10048000641C905D01431980A1B2641C525CDFF8CA
:100490008C069A70032199E7D05D7446024612FAE1
:1004A00084F291429CDB002119820B22D9680A70E8
:1004B000198ADA68491C198289B25054198A491C70
:1004C00019820AE02968DE68A2B2641C8A5C198A73
:1004D0007254401E1A8A521C1A82C1B20029F1D1EC
:1004E000042172E7D05D744610FA84F0814225DB66
:1004F00006216AE7D05D7446024612FA84F2914200
:100500001CDB002119830CE0198B142908DA2A68F6
:10051000A6B2641C925D5E697254198B491C1983E2
:10052000401EC1B20029EFD105214EE7D05D012860
:1005300074467FF4E6AEA0B2461CB142FFF6E1AECF
:10054000105C0228BFF6DDAE00211972D8E6BAF1C0
:10055000000F3FF4A8AE0221BEA0A2E630B50446CB
:10056000DFF88C554EF66020A86389B023216846D9
:1005700001F086F8684600F0C0F90146684600F0D0
:10058000A9F900F097F9012009B030BD1CB5002091
:10059000DFF87845228AE168ADF80000684600F08F
:1005A000BBFCE168228ABDF8000088540021208A43
:1005B000E268401C208280B21154218AE068491C04
:1005C0002182C9B200F086F9012016BD2DE9F8415B
:1005D00087B0182101A8DFF8347501F051F8AA217D
:1005E0008DF8041001AC388B60700022ADF800204B
:1005F0000225002106E07A69CBB23546D25C04F8C8
:100600000820491C6E1CCAB282425FFA85F8F2D3F8
:100610004FF4005001F062F83A8B921C92B24FF402
:10062000005101A801F0EDF80D208DF80400EAB2A8
:1006300000F072F8BDF8000004F8080000F02DF892
:10064000012008B0BDE8F081F0B587B0182101A8FD
:1006500001F016F80C218DF804100022DFF8AC042C
:10066000ADF8002001AC018B61700222002304E090
:100670004269D25D62555B1C3246561CDFB28F4226
:10068000D5B2F5D3D2B200F047F8BDF800006055FE
:1006900000F003F8012007B0F0BDF2B20021A15430
:1006A000761CF1B201A815E17FB50446DFF840548D
:1006B00005F2944001F079F9F0B94FF47A7000F046
:1006C00017FC00F022F801AE00210E2200F091F894
:1006D00070708DF8061000F01EF8BDF80000F07084
:1006E00000F081F800F0EAF80A220FF264410120DC
:1006F00000F0B8FA00F0D4FC00F003F8012004B0D8
:1007000070BD2146284600F0C9BA052101A800F0B5
:10071000B7BF8DF80600032201A9684600F0FCBBB4
:1007200070B5DFF8CC53044605F29446304601F02C
:100730003CF960B1DFF8E84301222146304601F080
:1007400013F9A17F204600F0B9F80A2100E0214604
:1007500000F0B1F8012070BD70B5DFF8944304F2E9
:100760009445284601F021F920B90921204600F0DE
:1007700095FA0EE0DFF8A86301223146284601F021
:10078000F3F8B17F304600F099F80A21204600F0D6
:100790008DFA012070BDFEB5DFF87063D44D0446BC
:1007A000307A052807DD00213172012272710C2197
:1007B000FFF7A8FF15E0FFF7A8FF01AF00211B22FC
:1007C00000F017F87870FFF7A4FFBDF80000F8708C
:1007D00000F009F800F07EF8307A401C307200F02A
:1007E00069F80120FEBD00218DF8081001A805213F
:1007F00070470120ADF800108DF80420704738B51F
:10080000C84ABB4D11780446C74871B9012313701B
:100810000122082100F040FB00F04CF819220FF2F1
:100820003C31012000F01EFA08E000211170002286
:10083000082100F031FB0D2100F03DF8012032BD10
:1008400080B50B21AA4800F029FAB0480021417177
:10085000012002BD4F4B000038B5AC49A44D044601
:100860000878002804BF487800281FD1C8780028DD
:1008700004BF8878002819D10879002804BF487976
:10088000002813D101F094F8696B401A4AF6C87237
:1008900090420BD3082100F00EF80121284600F009
:1008A0000FFA0221284600F00BFA01E0FFF729FFBA
:1008B000012032BD2146284600F0F8B938B504467B
:1008C0000D46012200F0B8F829462046BDE8344024
:1008D00000F03BBB80B588B000228DF81E1003E00D
:1008E000835C0DF80230521C8A42F9DB0022694613
:1008F0008E4801F00AF809B000BD1CB5044600207E
:10090000ADF800000A21217060707F48817CA170E1
:1009100087498A78E2708B792371CA7962714B7941
:10092000A3711723C978E1718249B1F9002012122D
:100930002272098861728049B1F900201212A272F4
:10094000FF220988E17222734188090A6173418894
:10095000A1738288120AE27381882174027C627416
:1009600081680912A1748168E174C268120E22754F
:100970001922C168090C6175C168090AA175C168AD
:10098000E1752146407C20766370684600F0C4FA29
:10099000BDF8000060761B20BDF80010090AA176A2
:1009A00016BD534800F1F0031F22142100F29440B9
:1009B00000F09ABF70B586B01621684600F060FE60
:1009C00016224FF40051684600F039FF9DF80020D0
:1009D0004E4CAA2A0DF102000FD19DF80110002201
:1009E0002283D3B28B4225DA6569268BC35CAB5573
:1009F000521C238B5B1C2383F3E7AA228DF8002073
:100A00000021228B8DF8012003E063695D5C455471
:100A1000491C9142F9DB4FF4005000F05FFE0120C9
:100A200000F066FA228B921C92B24FF40051684695
:100A300000F0E7FE06B070BD78B591B004460D46F3
:100A40001646322104A800F01BFE002E07BF132219
:100A50000FF2241114220FF234110294ADF80C504D
:100A6000022000F0FFF800BF50A1BDF80C00D1E952
:100A70000023CDE9002304AC3228009407DA02A950
:100A8000684600F0C6F8BDF80420009901E00B228A
:100A900043A1022000F0E6F8032213A1022000F097
:100AA000E1F812B070BD70B500240025104800EBCD
:100AB00005167278012A11D17068012430B100F056
:100AC00077FF7168B268401A904207D300207070B7
:100AD00000F06EFF7060E8B2F16888476D1C0F2D62
:100AE000E4DB204670BD00000D0A00005008002025
:100AF000A001002000080240420C0020470C00200A
:100B0000440000201C0C0020880100204C0600201E
:100B10007C060020E0930400380C0020240700200D
:100B2000E80B0020460C0020001002403406002094
:100B3000280C0020A4070020A80700204F4E5F4D7E
:100B400043550D0A000000004552524F520000006C
:100B50004F46465F4D43550D0A0000006170705FBF
:100B600070635F626F783A205265736574205063DA
:100B700020426F78000000006170705F70635F62F8
:100B80006F783A20526563763A2000006170705F9A
:100B900070635F626F783A205472616E733A20001E
:100BA00044617461204C61726765000000000000C0
:100BB0000000000010B5DFF8DC200C46116800F0E2
:100BC00005F8A0428041C043C00F10BD814204D24D
:100BD0004FF0FF32101A08187047081A704738B5DE
:100BE000034600208DF80000002207E0E4B2002A4E
:100BF0001ABF0A2505FB00402046521C8A4207DA2C
:100C00009C5CA4F130050A2D34BF303C0024EDE794
:100C100032BD30B500220FE004F812300B689C5C46
:100C2000056804F00F0405EB42030A2CACBF37340F
:100C30003034521C5C7092B28B889A4208DA0B688E
:100C40009B5C04681B090A2BB4BF30333733E3E7DE
:100C50005B00838030BD130003D00A46194600F0C4
:100C6000ADBE7047032804DA4FF47A730A4800F0E7
:100C7000EABE704738B500F006F882B22946204631
:100C8000BDE83840EEE704460D46284601F00EBAAE
:100C9000000000003C0C00202C0B002000EB011099
:100CA00001210022417042600120704710B500EB25
:100CB00001140120607000F07BFE6060012010BD17
:100CC00000EB011000224270012070472DE9F84F1F
:100CD0000D4600267A497B4A0F23044601202F68DF
:100CE000B04000EA0708804540F0CA804FEA460C51
:100CF000032707FA0CF76FEA070E6F6807F003097E
:100D0000B9F1010F1CBF07F00307022F12D1A7682A
:100D1000D5F80C900EEA070709FA0CF949EA07071B
:100D2000A760676827EA00006F68C7F30017B7403D
:100D300038436060B0002F7907F00307032F21D0FC
:100D4000E768D5F808900EEA070709FA0CF949EAAE
:100D50000707E7602F7907F00307022F12D1F70882
:100D600004EB870700F01C09D7F820A003FA09FB61
:100D70002AEA0B0AD5F810B00BFA09F949EA0A0970
:100D8000C7F8209027680EEA070E2F7907F00307AF
:100D900007FA0CF747EA0E0727606F6817F4403F21
:100DA0006ED0002700974FEA960C176847F48047EB
:100DB000176000F00C00176807F48047009703FAEB
:100DC00000FE009F404F57F82C7027EA0E0E3F4F51
:100DD000BC4208BF002722D03D4FBC4208BF0127BC
:100DE0001DD03C4FBC4208BF022718D03A4FBC422E
:100DF00008BF032713D0394FBC4208BF04270ED0C9
:100E0000374FBC4208BF052709D0364FBC4208BF48
:100E1000062704D0344FBC420CBF0727082707FA27
:100E200000F0294F40EA0E0047F82C006FEA080056
:100E30008F6800EA070C6F68FF0248BF48EA0C0C95
:100E4000C1F808C0CF6800EA070C6F68BF0248BF4E
:100E500048EA0C0CC1F80CC04F6800EA070C6F6838
:100E6000BF0348BF48EA0C0CC1F804C00F6800EA91
:100E7000070C6868C00348BF48EA0C0CC1F800C002
:100E8000761C0F2E7FF62AAFBDE8F18F006908406F
:100E900018BF0120C0B2704702B9090481617047D0
:100EA000426901EA0203914341EA034181617047CB
:100EB0000E4A136803421CBF106001F001B970476D
:100EC000003C014044380240083801400000024024
:100ED0000004024000080240000C024000100240E2
:100EE0000014024000180240001C0240143C014063
:100EF00038B5044600F05CFD14F1010F054602D040
:100F000004480178641800F053FD401BA042FAD356
:100F100031BD00BF0000002070B500230380002415
:100F20000FE005880B5D5D4008236E08ED0752BF9A
:100F3000354686F4204585F001055B1EF5D1058018
:100F4000641C9442EDDB012070BD0A4601464FF45B
:100F50007A735A4800F077BD010015D0FF2801D1FF
:100F60000A207047FE2801D164207047FD2802D175
:100F70004FF47A707047FC2802D142F2107070472B
:100F8000FB2801D14E4870470120704710B5044638
:100F90000846FFF7E1FF0A2114FB01F191FBF0F095
:100FA00000B210BD2DE9F04F0F4600250A26002F94
:100FB0000446A946B0460AD52D207F42207001255F
:100FC00005E040464946A6FB008906FB01993846E4
:100FD000002142464B4601F09BF8002908BF00283B
:100FE000EFD140464946B84610E04046002132461F
:100FF000534601F08DF8EBB200F13002E254A6FB4B
:10100000007B6D1CA8EB0708304651460A220023DE
:1010100001F07EF806465FEA010A08BF002EE4D11F
:10102000E8B2BDE8F08F2DE9F0410027002906461F
:1010300090464CBF4D420D46FFF7B4FF044665B3E2
:101040004046FFF789FF0A21854203D24D4307F14D
:101050000107F9D1721E611CFBB26BB101E033557F
:10106000641EE4B2135D2D2B18BF002CF7D1302283
:1010700032550C467F1EEDE70A23B0FBF3F058B162
:101080000A23B0FBF3F0E3B2641ED55CF5540028EC
:10109000F5D1E4B22E2030550C46E0B2BDE8F08127
:1010A00072B6BFF34F8F074907480A6802F4E0623F
:1010B00002430A60BFF34F8F00BFFDE7700B0020B3
:1010C000A08601000CED00E00400FA0501222F4982
:1010D00015E010B52A4C2948012204F11C0100F04A
:1010E0000AFD01222146274800F005FD0122611C6E
:1010F000254800F000FDA11CBDE810400122244855
:1011000000F0F9BC38B505461E48296802681C4C39
:1011100091420CD12189642905D2636822785A54FE
:101120002189491C21810122214600F0E4FC164856
:101130002968026891420CD1218A322905D2E368DC
:1011400062785A54218A491C21820122611C00F0D4
:10115000D2FC0F482968026891420ED1218B642984
:1011600005D26369A2785A54218B491C2183A11CA2
:10117000BDE83840012200F0BEBC31BDE80A0020C5
:101180003C0800202C0B0020A40A00203E08002070
:10119000700B002010B5DFF83444042100F075F91D
:1011A000052100F072F9062100F06FF9012010BD51
:1011B00080B5014600F00EF8012002BD80B5032184
:1011C00000F008F8012301220121062000F060F858
:1011D000012002BDDFF8F403FFF768BD80B50123ED
:1011E00001220021062000F053F8DFF8E40300217B
:1011F0000171012002BD38B5DFF8D053A96CB1F5FB
:10120000FA6F044605D1002000F06AF92821A9648C
:1012100005E0002000F06CF94FF4FA60A864214664
:101220002846FFF743FD012032BD70B5DFF8A46307
:10123000DFF898530446307880B1A96D502905D164
:10124000012000F04DF92821A96507E0012000F0F8
:101250004FF95020A86531784A1E32702146284641
:10126000FFF724FD012070BD10B50446DFF86803C8
:101270000178012903D1022000F02AF902E00220BE
:1012800000F036F92146FFF7A5FF012010BD000050
:101290002DE9F04107460C46200018BF012C1546E9
:1012A000984635D1062FCD4E27D8DFE807F0040940
:1012B0000E13181D2200002000F02CF874701CE0A2
:1012C000012000F027F8B47017E0022000F022F8A7
:1012D000F47012E0032000F01DF834710DE00420DA
:1012E00000F018F8747108E0052000F013F8B471EC
:1012F00003E0062000F00EF8F47122463946284635
:1013000000F0C6F8224639464046BDE8F041FFE00D
:10131000BDE8F081B24A02EB800332F810001B698D
:10132000012901460CBF012200221846FFF7B4BD77
:1013300080B500F030F8BDE801404EE0E0B500F0C7
:1013400047F8AA218DF8001007228DF80120A34943
:101350004A788B788DF802208DF80330CA780B79A3
:101360008DF804208DF80530C8794A798B798DF88D
:1013700008008DF806208DF807304FF4405000F03B
:10138000ADF90120FFF7B4FD09224FF44051684642
:1013900000F037FA07BDE0B500F01AF809224FF463
:1013A0004051684600F04BFA9DF80000AA2804BF9F
:1013B0009DF8011007290AD19DF80310874A0129D9
:1013C000D8BF91709DF807000128D8BF907107BD64
:1013D00009220021684600F01EBF70B57F4C81488D
:1013E0006178814D814E01290CBF012200224FF40A
:1013F0000041FFF751FDA07801280CBF0122002217
:1014000002212846FFF748FDE07801280CBF0122A1
:10141000002204212846FFF73FFD207901280CBF58
:10142000012200224FF480713046FFF735FD6079CC
:1014300001280CBF012200224FF400713046FFF753
:101440002BFDA07901280CBF012200224021284653
:10145000FFF722FDE07901282846BDE8704007BF6C
:101460000122012100220121FFF716BD10B5584AC3
:10147000564C01211171A063022100F006F82046AC
:10148000BDE810400121FFF711BC2046FFF706BC64
:10149000012800D070471FB550248DF80440022069
:1014A00001AC00236070A1708DF80720ADF800300A
:1014B000042201A96846FFF72FFDBDF80000207146
:1014C000010A8DF8091001A80621FFF703FA1FBDD4
:1014D00069A2474B32F8101053F82000FFF7E0BC28
:1014E00010B500F00DF8BDE810400122FFF7D4BCA4
:1014F00010B500F005F8BDE810400022FFF7CCBCA5
:101500005DA33B4C33F8101054F8200070470000E6
:1015100010B501280C4636D1012A07BF1B220FF255
:10152000D4011C220FF2E8010220FFF79BFB062CDE
:1015300022D8DFE804F004070B0F13171B000A2260
:101540003AA116E05FF008023BA112E05FF00D0245
:101550003BA10EE05FF007023DA10AE05FF00D0243
:101560003DA106E05FF006023FA102E05FF0060247
:101570003FA10220FFF776FBBDE81040032212A135
:101580000220FFF76FBB10BD70B5002400250F4887
:1015900000EB05167278012A11D17068012430B170
:1015A00000F006FA7168B268401A904207D3002032
:1015B000707000F0FDF97060E8B2F16888476D1C4A
:1015C000072DE4DB204670BD0D0A00007C060020DC
:1015D0004C060020470C0020480C0020280C00205E
:1015E000EC0600200000024000100240000402400F
:1015F00018070020757365725F6170705F72656CAB
:1016000061793A204F4E2052656C61793A20000092
:10161000757365725F6170705F72656C61793A2095
:101620004F46462052656C61793A2000454C45563C
:1016300041544F522000000053435245454E200074
:1016400046524944474520434F4F4C20000000007C
:10165000414C41524D2000004652494447452048E4
:1016600045415420000000004C414D502000000036
:101670005741524D20000000000200018000000090
:10168000002200F0D3BD30B4002513E050F8042B45
:10169000D30744BFA9F101039A18091F042942F88E
:1016A000045BFAD213468C0744BF15809B1CC90704
:1016B00048BF1D7050F8041B0029E7D130BC7047AB
:1016C0000320FFF7D7BA80B500F0ECF8062000F051
:1016D000D1FDBDE80240012000F0C2BD38B505468D
:1016E0000324FFF7F0FF4FF47A7000F037F8012879
:1016F00003D0641EF5D1002032BD00F0D3F82020C5
:1017000000F0B8FD00F079F8280400F077F8E8B2AE
:1017100000F0B0FD00F007F84FF47A7000F006F822
:101720000128E9D0E7E7012000F09ABD70B500F08C
:10173000B6F8052000F09EFD05E016F0030F09D075
:101740000120FFF7D5FB00F006F800F01BF8012898
:10175000F3D11CE01FE0A52000F08CBD70B500F0B7
:101760009EF8052000F086FD04E0B00709D40120B2
:10177000FFF7BEFBFFF7EFFF00F004F80128F4D1FC
:1017800005E008E0064621462846FFF713BA00F0B8
:1017900067FD002070BDFFF7C6FF012070BD78B562
:1017A000C1B004460D461646FFF78DFF4FF47A7020
:1017B000FFF7D4FF01281ED100F074F8022000F0DA
:1017C00059FD00F01AF8280400F018F8E8B200F00B
:1017D00051FD64200090334601AA2146DFF8CC0079
:1017E00000F0BCFDFFF79FFF6420FFF79FFF01287B
:1017F00001D142B070BD0020FBE72802000E00F0CE
:1018000039BD70B504460D4616464FF47A70FFF7A1
:101810008DFF01280CD1324629462046FFF7BFFF35
:10182000012805D00FF28C01FFF74AFF002070BDA0
:101830000FF29C010320FFF71DFA012070BD2DE976
:10184000F8430E46804691463502370403244FF490
:101850007A70FFF76BFF012804D0641EF7D10020D7
:10186000BDE8F28300F01EF8032000F003FD280E0F
:1018700000F000FD380E00F0FDFCF0B200F0FAFCC4
:1018800003E0FFF768FF08F8010B4846A0F10109E3
:1018900080B20028F5D1FFF746FF0120E0E70449B8
:1018A0000D680446002000F0DBBC0000040A0020A4
:1018B0003C0C0020755F65785F666C6173683A2048
:1018C0007772697465206661696C210D0A000000F9
:1018D000755F65785F666C6173683A2077726974CA
:1018E00065204F4B210D0A0050B500240470436061
:1018F0000E465643446804619B1983600024436884
:101900000475C3604175C28250BD38B504461046A7
:10191000657D237D00226D1EAB4223DAE38AEBB1A5
:101920001A4660B9E06800F0B3FEE168E08A084456
:10193000A168E060884211D36068E0600EE0206931
:101940005B421844206100F0A3FE20696168884270
:1019500004D2E18AA0684942014421610122207D2C
:10196000401C2075104632BD10B50446084611468D
:10197000227DC2B1E28A19B9216900F089FE10E026
:1019800062B110B1216900F083FE2069E18AA2688A
:1019900008442061904224BF60682061207D411E80
:1019A0002175012010BD002010BD007D7047000092
:1019B00001484068704700BF000000204018491CE3
:1019C0001CBFB1F1010100F8012DF9D170470000F1
:1019D00038B5040001D1012032BD00F017F808B974
:1019E00000F018F800F01BF800F023F8FFE7416161
:1019F00000F001F832BD2068C16841F40051C160B7
:101A00000020686020216970A970704704F13C05CE
:101A10006878704700212970204600F07ABE2420A3
:101A200068702068C16821F40051C160204600F050
:101A3000D9BA2068016921F49041016120684169A7
:101A400021F02A0170472DE9F843054605F13C06CF
:101A50000C46707820281746994649D10CB13800B9
:101A600001D1012045E03078012841D001213170B9
:101A70000020706021227270FFF79AFFAF848046C9
:101A8000EF84A868B0F5805F04BF286900280EBF06
:101A90002746204600270021317004460EE014F846
:101AA000012B426007E02868002CF8D137F8021BB0
:101AB000C1F308014160E88C411EE9844346E88C8B
:101AC000CDF80090002807D000228021284600F0A1
:101AD00081F90028E7D005E000224021284600F0E7
:101AE00079F908B1032004E020207070002000E0A4
:101AF0000220BDE8F28338B500F130039C7B202C36
:101B00000FD109B1140001D1012032BD1C7B012C81
:101B100007D001241C7300251D60BDE8384000F08B
:101B2000A3B9022032BD216801F1140252E8001F5E
:101B3000206800F1140321F0400143E80010002860
:101B400070477CB5044621680B68CD684A6913F07C
:101B50000F0007D1980661D5AA065FD52046BDE8DB
:101B60007640D5E1D00702D415F4907F56D0D8073F
:101B700005D5E90503D5206C40F001002064580725
:101B800005D5D10703D5206C40F0020020649807EA
:101B900005D5D10703D5206C40F004002064180758
:101BA00007D5A90601D4D00703D5216C41F008015F
:101BB0002164206C002830D0980604D5A90644BFC3
:101BC000204600F0A5F920684069216C0A0701D47D
:101BD00040061DD5204600F070F92068416948068E
:101BE00011D5FFF7A0FFFCD1A06B60B10FF215314A
:101BF0000165A06B00F040FF00280ED0A06B016DC6
:101C0000BDE87C4008472046BDE8764001F04EB86C
:101C1000204601F04BF80020206473BD206B0128A2
:101C200004F13D0240F08680D80600D5EE0640F172
:101C30008180002300930D6800954B680093009805
:101C4000496948063FD5A16B0868406880B2002802
:101C5000E3D0A38D9842E0DAE085C869B0F5807FD3
:101C60002DD0216801F10C0050E8001F236803F11A
:101C70000C0521F4807145E800100028F1D100F036
:101C80009BF8490800F11405490045E800100028B8
:101C9000F5D100F091F800F1140521F0400145E87C
:101CA00000100028F5D1202050700021216300F0A1
:101CB00089F800F0BEF8FAD1A06B00F0A1FEA18D6A
:101CC000E08D091A30E0A08DE18D411AE08D0028E9
:101CD0001CBF88B2002868D0206800F10C0353E8CC
:101CE000003F00F10C0623F4907346E80030002812
:101CF000F2D1206800F05AF800F114065B0046E8C3
:101D000000300028F5D12020507000222263206886
:101D100000F10C0252E8002F00F10C0522F0100235
:101D200045E800200028F2D12046BDE87C4089B279
:101D300000F0BDBF180629D52E0627D5107821281A
:101D400033D1A068B0F5805F04BF2069002808D1B6
:101D5000206A0288C2F308024A60206A811C21625C
:101D600004E0206A421C226200784860E08C401E39
:101D7000E08480B2C8B92068C16821F08001C160E8
:101D80002068C16841F04001C16073BD58060CD5A0
:101D90006B060AD5C86820F04000C8602021117089
:101DA0002046BDE8764000F083BF73BD00F1140308
:101DB00053E8003F5B087047206800F1140151E8C8
:101DC000001F7047206800F10C0151E8001F00F16E
:101DD0000C0370472DE9F041069C05460E469046DF
:101DE0001F46286801683140B1420CBF0120002025
:101DF00040451BD114F1010FF3D024B1FFF7D8FDFA
:101E0000C01B8442EDD200F01AF821F4D07100F02A
:101E100012F8F8D100F01BF8FCD105F13C002021AC
:101E20004170817000210170032000E00020BDE8B6
:101E3000F08121F0100143E8001000287047286865
:101E400000F10C0151E8001F00F10C0370472868F5
:101E500000F1140151E8001F490800F11403490082
:101E600043E800100028704781628285C28500F136
:101E70003C0100224A6022238B700A70016921B163
:101E80000168CA6842F48072CA6001684A6942F017
:101E900001024A610068C16841F02001C160002070
:101EA000704744E8002100297047016801F10C02E5
:101EB00052E8002F01F10C04704710B5FFF7F5FF51
:101EC00022F49072FFF7EDFFF8D100F00BF8016BF0
:101ED000012901D100F071F8202180F83E10002284
:101EE000026310BD016801F1140252E8002F52088C
:101EF00001F11404520044E800210029F2D1704796
:101F000000000000806B0021C185C18400F0CEBEBE
:101F10001CB590F83E1022294DD18168826AB1F536
:101F2000805F0AD1016969B903685968C1F3080182
:101F30001180826A911C81620FE0002904BF01694F
:101F4000002902D10368596803E00168496801F07B
:101F50007F011170816A4A1C8262C18D491EC18550
:101F600089B231BB0168CA6822F02002CA600168E8
:101F7000CA6822F48072CA6001684A695208520035
:101F80004A6100F029F812D10021016300F015F830
:101F900002681168CB0606D50024009413680093EC
:101FA000526800920099818D00F081FE01E0FFF7F8
:101FB000A9F8002016BD022016BD026802F10C012E
:101FC00051E8002F036803F10C0422F0100244E8EA
:101FD00000210029F1D17047202180F83E10026BCA
:101FE000012A704770B5044622681169E06821F43F
:101FF000405101431161D3682648A168034020691C
:102000000B4361690343E0690B430343D3605169A8
:10201000A06921F44071014351611F498A421CBFEC
:102020001E48824202D100F0D3FE01E000F0C8FE5B
:1020300062682568E46964261921B4F5004FA1FBA4
:10204000000112D1D30F520000F062F800F028F81E
:10205000F60032366420B6FBF0F0420002F4F8726B
:1020600002EB011200F0070010E0930F920000F065
:102070004FF800F015F8360132366420B6FBF0F068
:1020800000F0F00202EB011200F00F008018A860CF
:1020900070BD0000F369FFFF001001400014014013
:1020A0006421B0FBF1F106FB1106704700F101035A
:1020B00010F8011B11B110F8011BFBE7C01A7047A3
:1020C0001028114903D18879401C88717047B0F5F8
:1020D000006F03D14879401C4871704702280B49B2
:1020E00003D18868401C88607047B0F5007F03D139
:1020F0004868401C48607047B0F5805F02D10868AE
:10210000401C0860704700BF1C0C002028080020FD
:10211000D3BBD9B1B2F5803F5BD2022A1ED98C461F
:10212000B1FBF2F102FB11C31B0443EA1043B3FB02
:10213000F2FC02FB1C3380B240EA0343B3FBF2F033
:1021400002FB103240EA0C4000237047022A05D9F6
:102150008446B0FBF2F002FB10C270474AB105D1D1
:1021600000F0010249085FEA3000704700220023B6
:10217000704700F075BE0B00020000210020704780
:10218000F7D3002200237047904271EB030CF2D387
:1021900070B5B1FA81F4B3FA83F52C1BA340C4F1F6
:1021A000200532FA05F63343A2405FF00046E640D0
:1021B00002E05B085FEA3202841A71EB030524BF78
:1021C000204629467641F4D302000B00300000215E
:1021D00070BD70B5B1FA81F4B2FA82F5C4F1200491
:1021E0006419B4F12006DAD3B2405FF00044F44041
:1021F000002502E052085FEA3303C61A71EB020EB3
:1022000024BF3046714664416D41F3D302000B0098
:102210002000290070BD10B5044610460A4601464C
:102220002046FFF7CBFB204610BD000000B500BFE5
:10223000130096469446103928BFA0E80C50FAD8EF
:102240005FEA417C28BF0CC048BF40F8042BC90797
:1022500028BF20F8022B48BF00F8012B00BD00006A
:102260000D4B00280CBF002201224FF400711846CC
:10227000FEF712BE01B582B000204FF47A718DF8DE
:1022800004000091012301AA02A9044800F066F8A5
:102290009DF804000EBD0000000C0240040A00205E
:1022A00038B5040001D1012032BD606A28B900F0C0
:1022B00051F805D00021E16102E000202061606159
:1022C0000020A06204F15005687820B9002129702F
:1022D000204600F0E5FD0220687000F040F96068DB
:1022E000A168E26800F4827001F404410843217C93
:1022F00002F400621043227D01F002010843A1694B
:1023000002F001021043227F01F40071084394F8A7
:10231000201002F038021043A26A01F08001084345
:10232000216802F4005210430860A06994F8241058
:102330002268000C00F0040001F010010843506016
:102340002068C16921F40061C16100206860012139
:10235000697032BD6068B0F5827F70472DE9FC4737
:1023600000F0DCF84FF0010808BF022000F0C68042
:102370009A4687F80080FFF71BFB7B78012B09D07A
:102380006968B1F5827F02BFA9680029042B01D0DA
:102390000226AEE0002C1CBFB9F1000FBAF1000F0D
:1023A00001D10126A5E07B78042B1CBF05217970A3
:1023B0007E60C5F83890A5F83EA0A5F83CA02C6337
:1023C000A5F836A0A5F834A02E646E6429680C68C0
:1023D000630603D40C6844F040040C60E9680A9C6E
:1023E000B1F5006F696838D1002918BFBAF1010F43
:1023F00000F0A9F88146E88E002804BFE88F002885
:1024000068D02968886882070BD5E88E002818BF35
:10241000B8F1000F05D0286B0288CA60B04600F002
:102420006FF829688868C2070CD5E88F50B1C86872
:10243000A96B08804FF00108A86B821CAA63E88F83
:10244000411EE987FFF7B4FAA0EB0900A042D2D3FE
:1024500014F1010FCFD003264BE0002918BFBAF1C9
:10246000010F00F064F88146E88E002804BFE88F71
:1024700000282FD02968886882070DD5E88E0028AB
:1024800018BFB8F1000F07D0286B02780A73B04666
:10249000286B411C00F036F829688868C2070CD503
:1024A000E88F50B1C868A96B08704FF00108A86B9D
:1024B000421CAA63E88F411EE987FFF779FAA0EB77
:1024C0000900A04203D314F1010FCDD0C3E7002CC3
:1024D000CAD1C0E74A462146284600F0A6F818B1FE
:1024E00020200126786004E0A86810B900F00FF8F9
:1024F000009801217970002038703046BDE8F687D9
:10250000286B811C2963E88E411EE986704700967E
:102510002968CA680092896800917047054605F1EC
:1025200050070026387801280C469146704709D19B
:10253000296B2B680A781A73296B4A1C2A63E98E67
:102540004A1EEA86704709D1296B2B680A88DA602F
:10255000296B8A1C2A63E98E4A1EEA867047206826
:10256000016821F04001016070472DE9F843089CA3
:1025700005460E4690461F46FFF71AFA381A2418E9
:10258000FFF716FA8146404801684901090D614389
:10259000009105E0009800B900240098401E0090CA
:1025A000286881683140B1420CBF012000204045BD
:1025B00032D017F1010FF3D0FFF7FAF9A0EB0900C1
:1025C000A04201D2002CE5D12868416821F0E00149
:1025D00041606868B0F5827F08D1A868B0F5004F07
:1025E00018BFB0F5806F01D100F019F8A86AB0F5F6
:1025F000005F09D12868016821F400510160286852
:10260000026842F40052026005F15000012141705D
:1026100000220270032000E00020BDE8F283286859
:10262000016821F04001016070477CB504461648FE
:10263000164E0B4601681825B1FBF5F5B5FBF6F60D
:102640004FF47A70464300966168B1F5827F09D1F4
:102650000092802100222046FFF787FF58B100F04A
:102660000CF876BD009830B10098401E00902168AB
:1026700088680106F6D4002076BD606D40F0200029
:1026800060650320704700000C00002040420F00EE
:102690004AB1000011F8013B521E00F8013B1CBF7B
:1026A00011F8013BF8E7704780B57548754901603E
:1026B0004FF4165200F01AF800B108E001BD80B5E1
:1026C0007148724900F00FF800B100E001BDBDE8AB
:1026D000014000F08FBC80B56D486E4900F003F8F2
:1026E00000B1F4E701BD01604FF4E13200230C2199
:1026F00042608360C360036141618361C361FFF72E
:1027000067B980B564486549FFF7EDFF00B1DEE7C2
:1027100001BD10B586B00446142200216846FFF7BB
:102720007AFD2268574B5E485E499A4219D10022D1
:1027300005920B6943F400230B6100230A6902F43C
:1027400000220592059A0593032200F089F80822D9
:1027500000F081F800220021342000F067FC3420D2
:1027600064E04A4B9A4219D1002205920B6943F466
:1027700000330B6100230A6902F400320592059AC6
:1027800005930C2200F06CF8072200F064F8002298
:102790000021262000F04AFC262047E03D488242E6
:1027A00021D100220592086940F48020086108695F
:1027B00000F4802000F044F843F002030B60086846
:1027C00000F0020005904FF440610598364800F093
:1027D00031F8072100F03AF800220021272000F00C
:1027E00025FC272022E02D48824221D1002205929B
:1027F000486940F020004861486900F0200000F07E
:102800001FF843F004030B60086800F00400059013
:10281000C0210598254800F00DF8082100F016F8B1
:1028200000220121472000F001FC472000F01BFCA2
:1028300006B010BD00910192002102910322704761
:1028400005900598059202220B6870470491039247
:102850006946FEF73BBA039304926946FEF736BA1F
:102860000C6844F001040C600223096801F00101C6
:10287000059105990092019300220292032370476B
:10288000A40A0020004C0040E80A00200044004058
:102890002C0B002000480040700B00200014014069
:1028A00000000240303802400004024000080240AC
:1028B00070B50446FFF77CF806460CB9012070BDE0
:1028C00004F1340502206870002129702068026834
:1028D00052085200026022681068C1070AD5FFF74B
:1028E00067F8801B0628F6D3202028620321697030
:1028F000032070BD1368DFF82C0361680340A068F3
:102900000B43E168034320690B4361690343A069FA
:102910000B43E1690343206A0B43616A03430429C3
:1029200003D1E16A206B01430B43136023685A69AA
:10293000606AD208042840EAC2020AD1A66AE16AA3
:10294000324331B1A06988B9002E18BF022E1FD0C2
:1029500016D35A61204600F091F9A96A3F228A40B5
:102960008260002028620121697070BDB0F5005FAF
:102970000AD1032EEDD8DFE806F00D0B0D03E8E7D2
:10298000B1F1C07FE5D105E0022E03D9F61EE0D1FA
:10299000C801DED5402129620120687070BDF8B5FC
:1029A000044604F1340600253078776A012801D105
:1029B0000220F2BD01203070707801281CD1022065
:1029C00070703562204600F049F9B06A3F2101FA83
:1029D00000F0B8602068016841F016010160F068FD
:1029E00020B12068016841F0080101602068016899
:1029F00041F00101016001E0357002252846F2BD79
:102A0000F8B5044604F134056E6AFEF7D1FF0746B7
:102A10006878022805D080212962002028700120D2
:102A2000F2BD2068016821F01601016000F003F991
:102A3000E868002804BF6869002801D000F007F9A1
:102A400000F0FFF820680168CA070CD5FEF7B0FF58
:102A5000C01B0628F6D320202862032169700020BD
:102A600028700320F2BDA86A3F218140B160002098
:102A7000012169702870F2BD90F83510022903D049
:102A80008022426501207047052180F835100068DA
:102A90000268520852000260002070472DE9FC4194
:102AA000044604F1340600205F4900904FF41650AC
:102AB000776A0A683D68B2FBF0F8B06A082100F056
:102AC000B6F80ED02068026853070AD5026822F0D3
:102AD00004020260B06A8140B960316A41F00101CC
:102AE0003162B06A25FA00F1CA070BD521684A693C
:102AF000110607D5012202FA00F0B860306A40F0F2
:102B000002003062042100F091F808D021680A68C0
:102B1000930704D5B860306A40F004003062102199
:102B200000F084F81BD021680A68130717D5B86035
:102B3000206801684A0307D5006801030BD5716955
:102B400069B1204688470AE00168CA0503D40168D4
:102B500021F008010160F16809B120468847B06A98
:102B6000202100F064F83FD021680A68D3063BD5E5
:102B7000B8602068717805291CD1026822F016021D
:102B8000026000F058F8F068002804BF706900285F
:102B900001D000F05CF83F22B06A8240BA600121A7
:102BA00071700020F1693070002939D02046BDE8ED
:102BB000FC41084701684A0307D5006801030FD4A8
:102BC000316989B1204688470EE00168CA0507D4FB
:102BD000016821F010010160012070700021317046
:102BE000B16809B120468847306AC8B1306AC10768
:102BF00010D50520707000F024F80098401C804526
:102C0000009003D320680168CA07F6D401207070D1
:102C100000213170B16919B12046BDE8FC41084777
:102C2000BDE8F3813F8010F00C000020B06A01FA8B
:102C300000F0054270472068416921F08001416140
:102C400070472068016849084900016070472068A2
:102C5000016821F0080101607047000030B5046888
:102C6000256825F48025256063608068402802D1AE
:102C7000A260E16030BDA160E26030BD30B50168A6
:102C800008A401F0FF02103A1823B2FBF3F2890AFC
:102C90008902A55CC565042A28BF091D816508460F
:102CA00030BD000000061016000610167047704771
:102CB000704700002DE9F04104000F4654D0494E02
:102CC000306800F00700B84202D200F073F84BD130
:102CD0002068454D810712D5400703D5A96841F406
:102CE000E051A9602078010703D5A86840F460404E
:102CF000A860A968A06821F0F0010143A9602178CB
:102D0000C80729D56068012802D129688A0305E02F
:102D1000022818BF032803D129688A0103D423E0BD
:102D200029688A0720D5A968890840EA8100A86037
:102D3000FEF73EFE8046A868616800F00C00B0EB2C
:102D4000810F09D0FEF734FEA0EB080041F2893173
:102D50008842F0D303202BE0306800F00700874260
:102D600004D200F027F801D0012021E020784107AB
:102D700005D5AA68E06822F4E0520243AA602178EF
:102D8000080706D5A968206921F4604141EAC0011D
:102D9000A96000F035F8AA681449154BC2F3031274
:102DA000895CC84018601348006800F087F900206B
:102DB000BDE8F0813770316801F00701B942704712
:102DC0000B480D4A006813680C49C3F3822206E0E1
:102DD0000748094A006813680849C3F34232895C0E
:102DE000C8407047003C024000380240D8560008F6
:102DF0000C0000200800002008380240F0570008AE
:102E000030B5144C606800F00C00042802D008288B
:102E100002D01DE0104830BD226820680023410226
:102E200002F03F0204D525680B49C5F3881003E082
:102E300020680A49C0F38810A1FB0001FFF768F978
:102E40002168C1F30141491C4900B0FBF1F030BDDC
:102E5000024830BD0438024040787D010024F4006F
:102E60007047000080B52848284901604FF48272FD
:102E700008214260C16100234FF400720A2183607F
:102E8000C360036143618261036243628362C16222
:102E9000FFF706FA18B1BDE8014000F0ABB801BD7C
:102EA00010B586B004461422002101A8FFF7B3F93B
:102EB00021681648814224D10022154800920169F8
:102EC00041F480410161016901F480410091009960
:102ED00000924FF46041036843F002030360022252
:102EE000006800F00200009000980A4801910292E8
:102EF00000210391032205210591049201A9FDF708
:102F0000E5FE06B010BD0000040A002000380040B5
:102F1000303802400004024080B500F0EFF800F0C5
:102F200013F800F005F900F011FA00F029FAFFF7A4
:102F3000D2FBFFF7E6FBFFF7B7FBFFF7C0FBFFF79E
:102F400091FF00F0B9FAFEE780B592B0302200217F
:102F500006A8FFF760F91422002101A8FFF75BF92A
:102F6000002000902148016841F08051016000215B
:102F7000006800F08050009000981D4800910221E8
:102F8000026842F4804202600122006800F480403E
:102F9000009000980691099210210A9102220021C6
:102FA0000C920D9110224FF4A8710E920F910222F3
:102FB00004211092119106A800F0BCFA08B172B673
:102FC000FEE702210291002203920F204FF4A0514C
:102FD000019004914FF480520592052101A8FFF75A
:102FE00069FE08B172B6FEE713B000BD403802407A
:102FF0000070004072B6FEE70901020002D42948C1
:1030000081547047284B02F00F021A4402F8041C46
:103010007047264B19684FF6FF020002114000F47A
:10302000E0600843224908431860704770B51F4BA1
:103030001C68C4F302230124C3F10705052D2EBF2C
:103040000F2504FA05F56D1E1E1D072E34BF002343
:10305000DB1E2940994004FA03F3BDE870405B1E73
:103060001A401143C8E7010007D4012200F01F01F4
:10307000104B8A40400943F82020704710B5401E8D
:10308000B0F1807F01D3012010BD0B4C60600F2197
:103090004FF0FF30FFF7B0FF0021A1600720206054
:1030A000002010BD00E400E018ED00E00CED00E0B1
:1030B0000000FA0500E100E010E000E038B50D4D39
:1030C0000D4B2A7804464FF47A711868B1FBF2F27E
:1030D000B0FBF2F0FFF7D2FF50B9102C08D200225B
:1030E00021464FF0FF30FFF7A1FFAC60002032BD5A
:1030F000012032BD000000200C00002080B50B48EC
:10310000016841F400710160026842F4806202606B
:10311000016841F4807101600320FFF77AFF0F20FE
:10312000FFF7CCFF00F094FB002002BD003C024002
:103130002DE9F84F86B0142200216846FFF76BF89E
:1031400000217448DFF8D091DFF8D0A1DFF8D0B1CA
:10315000DFF8D081059140F2EF35026842F01002AD
:1031600002600022016801F01001059141F601574B
:103170000599059248F24006036843F00403036092
:1031800040F2FF24016801F00401059105990592C0
:10319000036843F001030360016801F00101059138
:1031A00005990592036843F002030360016801F08A
:1031B00002010591059905922946036843F0080329
:1031C0000360006800F00800059005984846FDF788
:1031D00063FE002239465046FDF75EFE002231466E
:1031E0005846FDF759FE01224FF480714046FDF725
:1031F00053FE002221464046FDF74EFE00224FF4CA
:103200007E714948FDF748FE009500F097F8484662
:10321000FDF75CFD41F2100000904FF48815019518
:103220000221029148466946FDF750FD009700F0E3
:1032300085F85046FDF74AFD40F2022100910195C4
:103240000221029150466946FDF740FD0120002110
:103250000190022203910292009669465846FDF7BA
:1032600035FD4FF4C04000210090019102220292EE
:1032700069464846FDF72AFD0122019202924FF469
:10328000807100910022039269464046FDF71EFDC1
:10329000009400F053F84046FDF718FD4FF48060AD
:1032A000002100F043F84FF400604FF4041100F0E7
:1032B0003DF84FF47E7100910122019202210291AA
:1032C0000022039269461848FDF700FD0022002104
:1032D0000720FFF7ABFE0720FFF7C5FE0022002105
:1032E0000A20FFF7A3FE0A20FFF7BDFE00220021FF
:1032F0001720FFF79BFE1720FFF7B5FE00220021E5
:103300002820FFF793FE2820FFF7ADFE07B0BDE8A9
:10331000F08F0000303802400010024000080240E8
:1033200000000240000C02400004024000900191A5
:103330000222029269465846FDF7C8BC01200021CE
:1033400001900222039102926946704780B50020E5
:10335000009000220948016841F4800101600021C9
:10336000006800F48000009000983820FFF75EFEAF
:10337000BDE802403820FFF776BE00BF303802407B
:103380001FB5102200216846FEF745FF434C444814
:1033900020604FF480310120206100224148A0626A
:1033A00061600320E061A26001206061227684F800
:1033B0002020E262E26084F83020204600F064FAC7
:1033C00008B1FFF717FE08200121009001910722A4
:1033D000029200F015F808B1FFF70CFE09210091E8
:1033E000022200F00CF808B1FFF704FE1121009151
:1033F000032200F004F808B1FFF7FCFD1FBD0192A5
:103400006946204600F09BBB38B586B004461422BE
:10341000002101A8FEF7FFFE2168214881423AD130
:1034200000222148214D0092416941F4807141619F
:10343000416901F4807100910099009203210368B1
:1034400043F002030360006800F00200009000985F
:10345000019102910021039101A91548FDF736FC65
:1034600000216960E9604FF4806112482860296199
:103470004FF48050002268614FF48041AA60A96136
:10348000EA612A626A622846FFF712FA08B1FFF77A
:10349000B1FDA563AC6307B030BD00005C0A00203D
:1034A000002001400100000F30380240A409002034
:1034B000000402401064024010B5FDF739FFFDF72B
:1034C00070FA00F005FEFDF775FAFDF702FE01F057
:1034D000CDF83220FDF70CFD114C01F054F900F04D
:1034E00025F8FDF7E0FA00F01DF801F09FFA00F072
:1034F0001DF801F0AFFB00F015F800F039FE00F008
:1035000015F8FEF741F800F00DF801F08BF800F027
:103510000DF801F0D6FC00F005F8DEE70000000031
:10352000370C002022781043207070472178084320
:10353000207070472DE9F843040016D02078DFF89A
:103540000063C10713D5B06800F00C00042807D051
:10355000B06800F00C0008283DD1706841023AD5EF
:103560003068810303D56068002800F0638120780B
:10357000B44F810719D5B06810F00C0F07D0B068B0
:1035800000F00C0008285BD17068410258D4306804
:10359000810703D5E068012840F04C81316820693B
:1035A00021F0F80141EAC00131602178080779D59E
:1035B0006069A549002868D001220A60FEF7F8F981
:1035C0000546706F81076DD4FEF7F2F9401B0228A3
:1035D000F7D9032031E16068B0F5803F04D130684D
:1035E00040F48030306011E0B0F5A02F306806D193
:1035F00040F480203060316841F4803105E020F4EF
:1036000080303060316821F480213160606858B1C9
:10361000FEF7CEF9054630688103A8D4FEF7C8F955
:10362000401B6528F7D3D4E7FEF7C2F9054630689A
:1036300081039CD5FEF7BCF9401B6528F7D3C8E78A
:10364000E068A8B101213960FEF7B2F9054630689B
:10365000810705D4FEF7ACF9401B0228F7D9B8E77B
:103660003068216920F0F80040EAC10030609CE732
:103670003860FEF79DF905463168880795D5FEF755
:1036800097F9401B0228F7D9A3E70860FEF790F9E5
:103690000546706F810705D5FEF78AF9401B0228A1
:1036A000F7D996E7207841075FD5306C0025C10037
:1036B0000AD400950125316C41F080513164306CA1
:1036C00000F0805000900098DFF88081D8F800006A
:1036D000C10513D4D8F8000040F48070C8F8000089
:1036E000FEF766F98146D8F80000C10506D4FEF75A
:1036F0005FF9A0EB09000228F5D96AE7A068012864
:1037000005D00528306F06D140F004003067306FD7
:1037100040F0010005E0400840003067306F20F0C5
:103720000400306741F28938A06860B1FEF740F9C3
:103730008146306F810713D4FEF73AF9A0EB0900F8
:103740004045F6D345E7FEF733F98146306F8107F0
:1037500006D5FEF72DF9A0EB09004045F6D338E772
:103760001DB1306C20F080503064A069002863D017
:10377000B16801F00C0108293AD002282AD10020B2
:103780003866FEF715F905463068810105D5FEF764
:103790000FF9401B0228F7D91BE7E069216A626A2A
:1037A0000843A16A490840EA8210491E40EA0140E4
:1037B000E16A40EA0160706001203866FEF7F8F8BF
:1037C00004463068810137D4FEF7F2F8001B022866
:1037D000F7D9FEE600203866FEF7EAF804463068BE
:1037E000810129D5FEF7E4F8001B0228F7D9F0E69D
:1037F00001281FD07068E26900F48001914202BF85
:1038000000F03F01226A914201BF47F6C0710140BA
:10381000626AB1EB821F0DD1A26A520800F44031F6
:10382000521EB1EB024F02BF00F07060E16AB0EBD4
:10383000016F01D0012000E00020BDE8F28300BF4D
:103840000038024000004742800E474200700040AE
:1038500081B00020009000220A48416841F4804174
:103860004160416801F48041009100990092036831
:1038700043F080530360006800F08050009000988F
:1038800001B070474038024070B5044600250CB9BD
:10389000012070BD04F13006306920B92046FFF7E1
:1038A000B3FD756135733069C10600F192803069EE
:1038B000DFF8C01320F4885040F00200306108683F
:1038C00020F4403008600A68606802430A6020689B
:1038D000416821F48071416020684168226941EAB1
:1038E000022141602068416821F0407141602168F7
:1038F0004A68A06802434A602068816821F4006138
:10390000816021688A68E06802438A602068A16A51
:10391000DFF864239142816821F0706181600CD0EE
:1039200021688A68A06A02438A6000F05BF8216817
:103930008A68E06A02438A6001E000F053F8206878
:10394000816821F0020100F049F8227E41EA42013B
:10395000816094F820002168002848680FD040F466
:10396000006048602068416821F46041416020683F
:103970004168626A521E41EA4231416002E020F42D
:10398000006048602068C16A21F47001C16220684B
:10399000C16AE269521E41EA0251C162206881682F
:1039A00021F4007100F01AF8327841EA422100F067
:1039B00015F821F4806100F011F8626941EA822172
:1039C00081607561316921F0020141F001013161CD
:1039D00000E0012500203073284670BD816020681A
:1039E000816870472068816821F04051816070478C
:1039F000126802F01F02102A7047016841F08041EE
:103A000001607047816841F0804181607047F8B57E
:103A10000446002004F13C0300901D78012D01D1E3
:103A20000220F2BD0120187020688568EE070DD4D1
:103A30008568974E45F00105856096480568B5FB99
:103A4000F6F606EB4606009600F00BF9206885684E
:103A5000EE0503D5856825F4807585602568A8681E
:103A6000C60762D55F688848074047F480775F6083
:103A70006868450505D5586820F4005040F480502A
:103A800058605868C50446BF986820F006000020BA
:103A9000986000251D70A36B0FF2FD10D863A36B17
:103AA0000FF25D201864A36B0FF25D20D8646FF0F5
:103AB0002200256828602068436843F080634360E3
:103AC00013462068856845F4807585600A4620683D
:103AD00000F14C01A06BFEF762FF2068654A6B495C
:103AE000136813F01F0F16D188420DD06349884226
:103AF00004D1126812F01F0F1FD105E060498842FF
:103B00001BD1FFF775FF18D2816811F0405F14D107
:103B1000FFF778FF11E0884202BF5A48016811F0B0
:103B2000405F0AD1FFF769FF07E0586840F01000D6
:103B30005860986840F0010098600020F2BD78B5A8
:103B400002460020009092F83C30012B01D1022067
:103B500072BD012082F83C0007240B6810680A2B14
:103B600011D30A3BC56803EB430300F076F8C46049
:103B7000C3680D688C68A5F10A0606EB4606B440DA
:103B80002343C3600FE0056903EB430304FA03F327
:103B900025EA0303036103690D688C6805EB45059D
:103BA000AC40234303611F244B68072B0CD25B1EE0
:103BB000456B00F050F84463436B4D680C886E1EF3
:103BC00000F044F843631BE00D2B0CD2DB1F056BA8
:103BD00000F041F80463036B4D680C88EE1F00F0A1
:103BE00035F803630CE00D3BC56A00F034F8C4629D
:103BF000C36A4D680C88A5F10D0600F027F8C36272
:103C0000224B98421DD10C681A48122C03D103682C
:103C100043F4800303600B68102B18BF112B10D1E5
:103C2000036843F4000303600868102809D11949A8
:103C3000174C0B68B3FBF4F40A204443009400F0E3
:103C400010F8002182F83C10002072BD06EB8606B9
:103C5000B4402343704703EB83039C4025EA0404EC
:103C6000704702E00098401E009000980028F9D1AB
:103C700070470000042301400100000F00210140B3
:103C80000022014008200140FEF9FFFF0020014012
:103C900040420F000C000020816B0A6C12F0500FA4
:103CA00024D1086C40F4007008640A68906810F031
:103CB000405F04BF087E002815D1D06A10F4700F51
:103CC00002D0906843050ED4506820F02000506068
:103CD000086C20F480700864086CC20403D4086C7B
:103CE00040F001000864084601F022B90A6CD306CE
:103CF00044BF084601F01DB9896BCA6C104700002B
:103D0000806B01F017B90000806B40210164426CA8
:103D100042F00402426401F00CB9000010B5DFF873
:103D2000904401212046FCF7B9FF0521204642E1DD
:103D300078B50FF22051DFF87C64D1E9002385B01B
:103D400003ADCDE9012301950C2100910446DFF874
:103D5000685429780223032201A801F004F9DFF84E
:103D60005C54012240212846FDF796F80520FDF716
:103D7000BFF8B28830680021FCF76DFF0020B080EA
:103D800000F038F9002240212846FDF785F8DFF8D9
:103D9000205402212846FCF781FF032100F0CEF8D1
:103DA00000F0CBF8012006B070BD10B50146DFF879
:103DB00004048288DFF8F8035AB1DFF804341C8861
:103DC000944205D100221A800321FCF767FF02E02C
:103DD0001A80FCF76BFF012010BDF8B5DFF8D44363
:103DE000A1882068DFF8DC534218921E53781678B9
:103DF00046EA0326891E01F09EF8DFF8BC134A7DCF
:103E0000B0424FF6FF7330D126680F783078B84251
:103E100004BF707803282ED1F078377947EA00275D
:103E20004F80707AB77A47EA0027642097FBF0F05A
:103E30008880307CF77B000440EA0760777C40EAAA
:103E40000727B07C38438860307EF77D000440EA65
:103E50000760777E40EA0727B07E3843C8600126B6
:103E60002E70160007D0521E05E04B808B808B60B1
:103E700000202870521CA08820B94B808B808B605A
:103E80002870521C087DD3B29BB94B886E2B05DA83
:103E90000228D8BF401C04DD032005E0030018BF42
:103EA000401EC3B2022B01DD002306E033B901231B
:103EB00003E0022B02DD032202238B7408754A758E
:103EC0000221BB48FCF7FCFE0120F2BD7CB5BA4ED6
:103ED000B74DF27C0446B07C90422AD0052168465A
:103EE000FDF7CEFB684600F06AF801466846FCF72D
:103EF000F1FCB07CF07400F085F8B07C97A618B99E
:103F000018220FF2D42108E0012803D117220FF262
:103F1000E02103E01F220FF2F0210120FCF7A2FEB6
:103F2000032231460120FCF79DFE06212846FCF7BE
:103F3000B5FE00F002F8012076BD21462846FCF7C8
:103F4000B5BE38B5A04C9C4AA179907C20BB012914
:103F500005D10123012200210520FDF799F9E07820
:103F6000012803D107219948FCF798FE60790128C0
:103F700005D10123012200210420FDF789F9E07910
:103F8000934D012803D103212846FCF787FE022127
:103F90002846FCF795FE06E029B9012301220121FC
:103FA0000520FDF775F9012032BD10B5044600F07B
:103FB00097F821467E48FCF779FE012010BD1CB51C
:103FC00004460020ADF800000F21217001227A483C
:103FD00062700322837CA37021466846FCF79CFF35
:103FE000BDF80000E0700520BDF80010090A21713D
:103FF00016BD0000BDF80820019976484FF47A7389
:10400000FDF721BD80B500F043F800F045F8817C54
:104010008DF800208DF802104FF48040FDF75EFB14
:104020000120FCF765FF03224FF480412CE080B5AE
:1040300000F02EF803224FF480416846FDF7FFFBA5
:104040009DF80000AA2804BF9DF80110012906D19F
:104050009DF80200022802DC57498874C87401BD2B
:1040600080B500F015F800F017F801788DF8002001
:104070008DF802104FF4A040FDF730FB0120FCF753
:1040800037FF03224FF4A0416846FDF7BAFB01BD9C
:1040900003216846FDF7F4BA01218DF80110AA2228
:1040A0004548704780B5FFF7F3FF03224FF4A04166
:1040B0006846FDF7C4FB9DF80000AA2804BF9DF8E0
:1040C0000100012803D19DF802003B49087001BDA1
:1040D00080B5FFF7E7FFBDE80140A8E7000000005A
:1040E0003EB5684600210022002380E80E00324CD5
:1040F000227C6188FCF797FF054612224AA100F056
:104100002FF82A4600F030F85FF005024BA100F0CE
:1041100027F8227CA1886846FCF785FF00F023F889
:104120005FF0050247A100F01BF8627CA1686846B9
:10413000FCF779FF00F017F85FF0050243A100F0EB
:104140000FF8627CE1686846FCF76DFF00F00BF841
:10415000032202A100F004F837BD00000D0A0000A0
:104160000220FCF77FBD024669460220FCF77ABDBB
:1041700070B5002400250E4800EB05167278012A60
:1041800011D17068012430B1FDF712FC7168B2687A
:10419000401A904207D300207070FDF709FC706050
:1041A000E8B2F16888476D1C072DE4DB204670BD3E
:1041B000180100204808002088010020000002406B
:1041C000400C0020480C0020280C00202407002070
:1041D0007C060020A40A00206170705F656C656336
:1041E000747269633A20504F574552204F4646003B
:1041F0006170705F656C6563747269633A20504FDB
:10420000574552204F4E00006170705F656C6563CA
:10421000747269633A20504F5745522044495343C2
:104220004F4E4E45435400006170705F656C65638E
:10423000747269633A20563A2000000020413A2007
:104240000000000020503A200000000020453A20E5
:1042500000000000000000000000000070B50446EF
:10426000DFF82454DFF824641420A8600322307A95
:10427000401C307206F10C01DFF81404FFF7C7FB95
:10428000307A642804D101212846FCF707FD03E0B9
:1042900021462846FCF70AFD012070BD38B50446CA
:1042A000DFF8E853DFF8E803032205F10C01FFF71C
:1042B000AEFB58B9A969E8684118A9612869E9699C
:1042C0004118E9616869296A41182962697ADFF849
:1042D000B803491C6972C9B2642905DB00216972FF
:1042E0000221FCF7DBFC02E02146FCF7DFFC0120A9
:1042F00032BD000010B5DFF89413DFF898338869F9
:104300006422B0FBF2F2C86900EE102A6422B0FB0E
:10431000F2F2086A81ED060A00EE902A6422B0FBF0
:10432000F2F201EE102AC1ED070A81ED081A40F6FB
:10433000E4401C88444301EE904AF8EE611AB8EE5E
:10434000411A81EE811A9FEDAD2AF8EE600A81EEE6
:10435000021AB8EE400A60EE810A9FEDA93A20EEFB
:10436000010ADFEDA72AC0EE830A9FEDA61A80EEB0
:10437000220AC0EE811A9FEDA42A9FEDA41AF1EE45
:104380000C2A01EE821A80EE220A71EE402ADFED3D
:10439000A01A30EE410A62EEA11A30EE200A81EE38
:1043A000800ADFEDB00A30EE200A9FEDAF1A9FEDD4
:1043B000B22A00EE012ADFEDB11A42EE001ADFED5B
:1043C000B00A41EE800AB2EE040A20EE800ABDEE89
:1043D000C00A10EE100AA0F10A02FF2300208A8012
:1043E0008B718861C8610862AB49887C18B105216E
:1043F000A548FCF753FC012010BD80B5A748817883
:10440000B0F9000000F074F800F08FF8012002BD50
:1044100080B568460021016004224FF48051FDF709
:104420000EFA9DF80000AA280AD19DF801209DF8F7
:104430000210964841EA02219DF803200180827013
:10444000012002BD38B591488178B0F90420B0F957
:1044500000008D4C924D0B189A4217DB687928B9F1
:104460000023012201210420FCF712FFE87828B97B
:104470000023012201210220FCF70AFF0721204628
:10448000FCF71EFC87490120887012E0411A914216
:104490000FDB6879012808D10023012200210420C4
:1044A000FCF7F6FE8048FCF7E1FF07212046FCF709
:1044B000FDFB00F05FF806212046FCF7F7FB01202A
:1044C00032BD80B501217048FCF7E8FB012002BD38
:1044D00080B57348C178012905D10023012200214C
:1044E0000220FCF7D5FE6F4800218170012002BD3B
:1044F00080B500230093FCF749FD644A8DF8020063
:104500001080AA21031290788DF803008DF8001016
:104510008DF801304FF48050FDF7E0F804224FF49D
:1045200080516846FDF76DF901BD1FB501AC012052
:1045300060700021ADF8001015225848415E807867
:104540008DF804208DF807100A12A2708DF808006B
:10455000052201A96846FCF7DFFCBDF80010BDF894
:1045600000006071090A8DF80A1001A80721FCF704
:10457000B1F91FBD3EB505216846FDF781F8434CF2
:10458000A279B4F904106846FCF74DFD05461822DF
:1045900047A100F03FF82A4669460220FCF762FB7B
:1045A0005FF0090248A13E4D00F034F8E278B4F91A
:1045B00000106846FCF737FD024669460220FCF70A
:1045C00051FB30A400F029F86879012807BF1022B8
:1045D0000FF2001111220FF20C1100F01BF8E87815
:1045E000012807BF10220FF2101111220FF218112B
:1045F00000F010F800F011F837BD000000007A4418
:1046000000F07F4500EC7E460058C5456F12033B25
:104610000000FA430220FCF725BB032221460220BA
:10462000FCF720BB70B500240025174800EB0516E9
:104630007278012A11D17068012430B1FDF7B8F900
:104640007168B268401A904207D300207070FDF77D
:10465000AFF97060E8B2F16888476D1C082DE4DBA3
:10466000204670BD0000F0C2CF73893502220F4989
:104670000748FFF7CCB900002CAC273A7E8C1940D4
:104680003D4A77C30D0A000024070020A40700203C
:104690005C0A00202A7AFF1F88010020380C0020C5
:1046A000280C00204C060020E0930400B0070020F6
:1046B0006170705F74656D70657261747572653A72
:1046C0002054656D703A20002053657475703A204F
:1046D0000000000052656C617920486561743A20E1
:1046E0004F4E200052656C617920486561743A2014
:1046F0004F4646200000000052656C617920436FF0
:104700006F6C3A204F4E200052656C617920436FE8
:104710006F6C3A204F4646200000000010B5012182
:1047200029482A4CFCF7BAFA00F028F80020A080AB
:10473000012010BD80B501462448828822484AB134
:10474000038E934205D1002202860221FCF7A6FACD
:1047500002E00286FCF7AAFA012002BD10B51B4C4C
:104760000121204600F074FD00F008F80020A08030
:1047700001211548FCF792FA012010BDA28820689B
:104780000021FCF768BA70B5002400250E4800EB44
:1047900005167278012A11D17068012430B1FDF735
:1047A00007F97168B268401A904207D30020707010
:1047B000FDF7FEF87060E8B2F16888476D1C032DC4
:1047C000E4DB204670BD00001000002040080020FF
:1047D00010B5A74CA07848B13D2807DA0020208109
:1047E000A072E07000F09DF801212171012010BD40
:1047F00038B59F4C9F4DE1780020491CA071E170B5
:1048000028460321FCF752FA04212846FCF74EFA09
:1048100002212846FCF742FAA07800F087F8012030
:1048200032BD70B5924D934C0646687903280BD182
:10483000FDF7BEF8616B401AB0F57A7F0AD2287A8C
:10484000401C02212872697131462046FCF72EFA7D
:10485000012070BD00F08CF8002068710321204613
:10486000FCF72EFAF4E780B500F082F88048427A2F
:104870000021521C41714272012002BDF8B584B082
:104880000020ADF8000001AC79497B4D0A788878AA
:10489000012A25D18A798B7A4E78CF78D318B742FE
:1048A0008B720CD240218DF804100423A070637029
:1048B000E2702771667100F034F806261BE00022D2
:1048C000A0700A710422087A497A62704126E37066
:1048D000207161718DF8046000F068F8062608E028
:1048E00000220A71162101228DF804106270A07056
:1048F000032600202870324601A96846FCF70CFB0D
:10490000BDF80000A055761CBDF80020F0B2120AD8
:104910002254761CF1B201A8FBF7DCFF012005B0A0
:10492000F0BD01215348FCF7B9B9000070B5441E31
:10493000E4B20A20DFF844615DA394FBF0F533F89C
:10494000151056F825000122FCF7A6FA0120FCF705
:10495000CFFA0A205AA100FB154406EB840031F877
:104960001410C069BDE870400122FCF795BA000040
:1049700070B50024DFF804514DA636F8141055F830
:1049800024000022FCF788FA641C072CF5DB00BF2A
:104990004BA6002405EB840036F81410C0690022F1
:1049A000FCF77AFA641C0A2CF4DB70BD1CB5304CA1
:1049B000A17800F038F8152231A100F02CF800F0B1
:1049C0002DF800208DF801005FF0050232A100F003
:1049D00022F8A17A00F027F800F020F800208DF8E6
:1049E000010008222EA100F016F8217A00F01BF831
:1049F00000F014F800208DF8010007222AA100F031
:104A00000AF8617A00F00FF800F008F8032217A105
:104A100000F001F813BD0220FCF724B90222694618
:104A20000220FCF71FB96846FCF7BCBA70B5002439
:104A30000025104800EB05167278012A11D1706824
:104A4000012430B1FCF7B4FF7168B268401A90429B
:104A500007D300207070FCF7ABFF7060E8B2F1681C
:104A600088476D1C042DE4DD204670BD0D0A000052
:104A70001C0C0020440000204C0600209400002064
:104A80006170705F6374726C5F6D6F746F723A20E7
:104A9000506F733A000000002049523A00000000B5
:104AA000204561726C793A00204C6174653A0000CF
:104AB0000400020001000010000800040080000053
:104AC00008001000200040008000080010002000B6
:104AD0004000800080B501216F48FCF7DFF801201D
:104AE00002BD70B504466D4D4FF480412846FCF779
:104AF000CDF9401E80416A4EC00F30704FF4005116
:104B00002846FCF7C3F9401E8041C00F7070022197
:104B1000614D2846FCF7C2F821462846FCF7C6F846
:104B2000012070BD10B55E4C2078012806D1607858
:104B300001280BD101210320A1710CE0002804BF42
:104B40006078012805D10220012104E008B9012084
:104B500000E000200146534A51706071217960796C
:104B6000884205D00122A27003214B48FCF796F839
:104B7000A17960792071012908BF002806D1A071B0
:104B80004949887C10B14948FCF770FC012010BDF0
:104B90001CB504464248017801291FBF417801290C
:104BA000817801290AD100228270684600F00CF851
:104BB00001466846FBF78EFE00F022F82146364893
:104BC000FCF774F8012016BD1CB504460020ADF8B2
:104BD00000003121217002223148627004220178E4
:104BE000A17021464378E3706846FCF795F9BDF85B
:104BF000000020710620BDF80010090A617116BD81
:104C000070B519222AA1264E0FF2C8042FA500F074
:104C10001EF83078012807BF0522294606222146C2
:104C200000F015F85FF009022CA100F010F8707880
:104C3000012807BF052229460622214600F007F871
:104C4000BDE87040032213A10220FCF70BB802203C
:104C5000FCF708B870B5002400250F4800EB0516D6
:104C60007278012A11D17068012430B1FCF7A0FEDE
:104C70007168B268401A904207D300207070FCF748
:104C800097FE7060E8B2F16888476D1C042DE4DB84
:104C9000204670BD0D0A0000D80000200010024020
:104CA000300C00204C06002088010020A0BB0D0025
:104CB0006170705F646F6F725F73656E736F723A6D
:104CC00020446F6F72313A20000000004F50454E73
:104CD00000000000434C4F534500000020446F6F1C
:104CE00072323A200000000080B502218648FBF7AE
:104CF000D5FF012002BD80B501468448026E0368DD
:104D0000934238BF0260426E4368934238BF4260AC
:104D1000826E8368934238BF8260002202664266D8
:104D200082661030FBF7C2FF012002BD3EB5774D11
:104D30000446286810B1287B401C287368685128F5
:104D400002D3287B401C2873A868A12802D3287BA3
:104D5000401C2873002028606860A860287B88B306
:104D6000684600F07CF801466846FBF7B3FD00F0AA
:104D700091F8287B022823DB042105F11000FBF7C2
:104D80008DFF287B03281BD1012301220121FCF781
:104D90007FFAFCF70DFE0146286F091A4EF66022D5
:104DA000914204D218B142F21070A86402E041F2BC
:104DB0008831A964032100F04EF8FCF7F9FD28675B
:104DC0000020287300F046F801203EBD80B5012385
:104DD000012200210320FCF75BFA012002BD70B51F
:104DE0004A4D4B4E0446A86D962819D1707860B98B
:104DF00001210520FCF78EFA3178091F022998BF9E
:104E0000C82022D91E21A96520E00020414A7070E7
:104E1000307005209179FCF77DFA0020A86517E035
:104E200000210520FCF776FA9620A8653078401C12
:104E30003070C0B20A2809DB002030707078401C46
:104E40007070C0B210B94FF47A70A86500F002F823
:104E5000012070BD214605F11000FBF727BF1CB5EE
:104E600004460020ADF800003021217001222748BF
:104E700062700322037BA37021466846FCF74CF85E
:104E8000BDF80000E0700520BDF80010090A21718E
:104E900016BD000080B51D48017B6846FCF782F80E
:104EA0005FF016021CA10220FBF7DCFE012269461E
:104EB0000220FBF7D7FE032212A10220FBF7D2FE4D
:104EC00001BD70B500240025104800EB0516727C6A
:104ED000012A11D17069012430B1FCF769FD7169B3
:104EE000B269401A904207D300207074FCF760FD4D
:104EF0007061E8B2F16988476D1C052DE4DB20463E
:104F000070BD00000D0A0000D8070020C80700206F
:104F1000440C0020280C00206170705F7669625F8D
:104F200073656E736F723A204C6576656C20000075
:104F300070477047704730B503464FF6FF70002446
:104F40000DE01A5D504008224508C00752BF2846B0
:104F500085F4204080F00100521EF5D1641C8C4283
:104F6000EFDB80B230BD38B504462568049829705F
:104F700021684A701A0A2568AA70020A2168CB7053
:104F8000062123681A71256868712068FFF7D3FF2E
:104F900021688871000A2268D0710820A080012051
:104FA00032BD000080B500F055F80222A7A100F044
:104FB00053F8FCF7C3F9BDE80140FCF771B880B5C0
:104FC000DFF83C038288016800F046F8BDE808403D
:104FD00003229EA1E3E070B586B004460D4616217B
:104FE0006846FCF74DFBAA228DF800201422A08809
:104FF000C34E8DF8010000210020B0803068FBF71F
:105000002AFE0DE02068415D0DEB050291702068DD
:10501000415D3268B08811546D1CB188491CB18063
:10502000EDB2A0888542B8BF142DEBDB4FF40050E1
:10503000FCF754FBA288921C92B24FF400516846D0
:10504000FCF7DFFB00F006F80222ABA100F004F849
:1050500006B070BD0222A9A10120FBF703BE00002B
:105060001CB500F05AF8A748C278B0F9001068469D
:10507000FBF7D9FF04460C22A7A140E0F8B502686F
:1050800011782D2971A49DA507D1302313700268D2
:1050900000F017F880B2404204E030390A2908D203
:1050A00000F00FF8FF2100B2FFF722FA0222294692
:1050B00001E005229BA1FFF7CFFF2146BDE8F840A4
:1050C0006CE086880021002301E0491C5B1CB34290
:1050D00003DAD75C303F0A2FF7D3C9B21046FBF78B
:1050E0007EBD00001CB500F018F88648C2788178B3
:1050F0006846FBF798FF04465FF00D028BA1012084
:10510000FBF7B0FD224669460120FBF7ABFD032209
:1051100079A10120FBF7A6FD13BD05216846FCF728
:10512000AFBA000070B500F03DF80DD200F040F8C5
:10513000744DFBF754FDA870FF21B5F90000FFF78F
:10514000D7F902226DA102E05FF0050275A120E00F
:105150001CB5FFF7E2FF6C4A11786846FBF722FFA7
:1051600004460B2275A1CAE770B500F01BF80ED2F9
:1051700000F01EF8FBF733FD00B2411EFF2906D2F6
:10518000614A1070FEF76CFF02225CA101E005226B
:1051900064A1FFF761FF2146BDE8704002220120B3
:1051A000FBF760BD0268117830390A2952A47047B4
:1051B00085880021002301E0491C5B1CAB4203DA17
:1051C000D65C303E0A2EF7D3C9B21046704780B580
:1051D0000068405C303804D1012301220021012005
:1051E00004E0012804D1012301220121FCF750F839
:1051F00010E080B50068405C303803D10123012203
:10520000002104E0012805D101230122012105200C
:10521000FCF73EF8BDE80140FCF790B810B5006817
:105220003A4C405C303808BF032108D001280BD12C
:105230003549887C40B13648FCF718F902212046F0
:10524000BDE81040FBF72ABD10BD00000D0A0000AC
:10525000FEB505463CA00C46D0E90023CDE900236D
:10526000002007E0A2F141031A2B3CBF20320A5470
:10527000401C80B2A988884205DA29680A5C3D2A68
:1052800018BF3F2AEED10027224A02EB0716294613
:1052900006F1080000F05CF8010001D4706820B944
:1052A0007F1C0C2FF0DD0020FEBDB08941180BE003
:1052B000BDF80400802806D2009B1A54BDF80400F3
:1052C000401CADF80400491C89B2AB8899420ADA47
:1052D0002868425C0D2AEBD15B1E9942E8DA08444B
:1052E00040780A28E4D1641E012C03D8726800219A
:1052F000684690470120FEBD0D0A00004F4B00009C
:1053000060060020A4070020880100207C06002001
:10531000A0BB0D0088540008536574757054656D0A
:10532000703A20004552524F520000005468726596
:10533000736854656D703A2000000000536C61760C
:10534000652049443A2000005C080020000000006D
:105350002DE9FE4F05464FF000090E46ADF80490CA
:10536000C84629680878212808BF4FF0010800279F
:105370002DE0002C0FFA8BFB3AD12968336811F825
:105380000A20DB1913F80A108A421ED1DA46A988CE
:105390008A4533DA2A6812F80A107C290AF1010BCF
:1053A000E7D1BDF9040010B901240AEB070901A8EF
:1053B00000900FFA89F3324629460FFA8BF000F07D
:1053C00032F8C1B20129D4D11BE07F1C3FB2B088B2
:1053D000874219DA2968306811F80820C35D9A42BB
:1053E000F3D10024012008F1010AADF80440CEE712
:1053F000BDF904108A45C9DA8A46C8E7C0B2012857
:10540000E3D14146384602E041464FF0FF3000F01C
:1054100002F8BDE8FE8F29B1002802D44FF0FF301A
:105420007047002070472DE9F84604460D4608985D
:1054300001214FF0000C4FF0FF3914E097880CEB7E
:10544000030A574502DA791C0180494616F80CE038
:105450001668F61816F80C70BE450CF1010618BF58
:1054600049460FFA86FCAE880CEB0407B74207DA10
:105470002F683E1916F80C707C2FDFD1644404802D
:105480000846BDE8F286000000000000A54F0008B5
:10549000905700080B00000001000000BF4F0008FB
:1054A0009C5700080800000002000000D74F0008C9
:1054B000A857000808000000030000006150000821
:1054C000305700080D000000040000007D50000867
:1054D000405700080D00000005000000E5500008DE
:1054E000505700080E00000006000000255100087B
:1054F000605700080E00000007000000515100082E
:10550000B45700080B0000000800000069510008B3
:10551000C05700080B00000009000000CF51000830
:10552000705700080C0000000A000000F35100084A
:10553000CC5700080A0000000B0000001D520008B4
:10554000D85700080A0000000C000000000000000E
:10555000F857000806000000FEE7FEE7FEE7FEE75A
:10556000FEE770477047704714480168491C0160A6
:1055700000F030B80220FBF79BBC1020FBF798BC72
:105580004FF40070FBF794BC0D48FCF7DABA0D48F5
:10559000FCF7D7BA80B54FF40060FBF789FCBDE893
:1055A00002404FF48050FBF783BC0748FCF7C9BAB0
:1055B0000648FDF773BA0648FCF7C3BA3C0C002056
:1055C000E80A00202C0B0020A40A0020A4090020D7
:1055D000700B00200248416802788A1842607047C8
:1055E00000000020F0B40246106895681318506857
:1055F00003EB5004C0071CD54D441AE013F8017B9F
:1056000005F8017B491EF9D198B113F8011BC6F3C7
:105610008106032E08BF13F8016B01EB06214942F6
:10562000801C294405D011F8016B05F8016B401E60
:10563000F9D1A3420ED013F8016B16F0030104BF99
:1056400013F8011BC91C30090F28DBD113F8010B1B
:105650000F30D7E7F0BC02F10C00704710B50749D6
:1056600079441831064C7C44163404E00A68081D5D
:10567000114488470146A142F8D110BD2C0000001A
:10568000480000004EF68851CEF20001086840F450
:1056900070000860BFF34F8FBFF36F8F4FF0007043
:1056A000E1EE100A70470000DFBFFFFFF0030000CB
:1056B0005C080020000000002DFFFFFF58020000E2
:1056C00042040000000000200248016841F470011B
:1056D0000160704788ED00E000000000000000005D
:1056E000010203040607080900F00DF8002801D0A4
:1056F000FFF7B4FFAFF300800020AFF30080FDF7A9
:105700000BFC00F002F80120704700F001B8000027
:105710000746384600F002F8FBE7000080B5AFF31B
:105720000080024A11001820ABBEFBE726000200F1
:1057300061742B736574757074656D703F00000043
:1057400061742B736574757074656D703D00000035
:1057500061742B74687265736874656D703F0000C6
:1057600061742B74687265736874656D703D0000B8
:1057700061742B726C73637265656E3D000000008E
:105780000148804701480047C9560008E55700080E
:1057900061742B72657365746463750061742B7337
:1057A0006572693F0000000061742B736572693D8A
:1057B0000000000061742B736C61766569643F00C2
:1057C00061742B736C61766569643D0061742B7242
:1057D0006C6C616D703D000061742B726C7761724E
:1057E0006D3D0000AFF30080FFF74CFFFFF77CFF3B
:1057F000000000000102030461742B656E64000068
:10580000FFF7FEBFFFF7FEBFFFF7FEBFFFF7FEBFCC
:10581000FFF7FEBFFFF7FEBFFFF7FEBFFFF7FEBFBC
:10582000FFF7FEBFFFF7FEBFFFF7FEBFFFF7FEBFAC
:10583000FFF7FEBFFFF7FEBFFFF7FEBFFFF7FEBF9C
:10584000FFF7FEBFFFF7FEBFFFF7FEBFFFF7FEBF8C
:10585000FFF7FEBFFFF7FEBFFFF7FEBFFFF7FEBF7C
:10586000FFF7FEBFFFF7FEBFFFF7FEBFFFF7FEBF6C
:10587000FFF7FEBFFFF7FEBFFFF7FEBFFFF7FEBF5C
:10588000FFF7FEBFFFF7FEBFFFF7FEBFFFF7FEBF4C
:10589000FFF7FEBFFFF7FEBFFFF7FEBFFFF7FEBF3C
:1058A000FFF7FEBFFFF7FEBFFFF7FEBFFFF7FEBF2C
:1058B000FFF7FEBFFFF7FEBFFFF7FEBFFFF7FEBF1C
:1058C000FFF7FEBFFFF7FEBFFFF7FEBFFFF7FEBF0C
:1058D000FFF7FEBFFFF7FEBFFFF7FEBFFFF7FEBFFC
:1058E000FFF7FEBFFFF7FEBFFFF7FEBFFFF7FEBFEC
:1058F000FFF7FEBFFFF7FEBFFFF7FEBFFFF7FEBFDC
:10590000FFF7FEBFFFF7FEBFFFF7FEBFFFF7FEBFCB
:10591000FFF7FEBF43010001221008100224F4002B
:10592000001112050C6006881300001D47000820B6
:105930002114123510920210125D109200012114F0
:10594000D2D134D2F134500323480008031010039D
:10595000B80B000067105204102174127D10700201
:10596000000C024004920804920018A104F2020400
:105970000451C8210183D54A948004D0070000E374
:105980004A94210183254B94100360EA0000911092
:10599000B508123D40511012E829C3313DD483AB04
:1059A0003D4012F42812DB1052043013102720203F
:1059B000013F00080C210421F48004CD3E000806BC
:1059C00000A083433FA061014001FFFD0263918875
:1059D000C789015CC32702881257105203301798F9
:1059E0003AA086055C2114438D05882101210843D6
:1059F000CD058821012110500349060008076121C7
:105A0000E812F77025E1211C253812A9205209203F
:105A100021145003210700080A4021201259105276
:105A20000B302548129710920C4012FF10520D10A7
:105A30008008A0BB0D00410800080E0110CB5908DA
:105A400050F1FF01F1FF01F1FF01F17B011DF903AD
:105A50002E20CC031003680600200E0920075356A1
:105A600056444D43323330015E31E6039D4C048F82
:105A7000951164054C0480EE3600B111DC0452052A
:105A8000048FBD11640521104FDD11DC046D5C0431
:105A90008FF71164051250048F2B1264052DCC046E
:105AA000126910100200800200344F01001F06111D
:105AB0000111095210046D3806F20210049D84058C
:105AC0008F5D4284052DFC04CF9D424C0683F54238
:105AD000A821014FFB430C0661018F11448405216D
