:020000040800F2
:10000000300B00202136000891340008933400089A
:1000100000000000000000000000000000000000E0
:1000200000000000000000000000000095340008FF
:100030000000000000000000973400089934000818
:100040007F15000863180008671900086B1900087D
:100050006F190008DF2D0008132F0008A1340008D5
:1000600000000000FF3500080B3600084536000888
:100070004736000849360008000000004B360008EB
:100080000000000000000000000000000000000070
:100090004D360008000000004F36000851360008B9
:1000A00000000000533600080000000000000000BF
:1000B000C9340008553600080000000000000000A8
:1000C00038B5040014D0250078356868002803D1BD
:1000D0002870200000F0F4FD24206860206801688A
:1000E000012291430160200000F022FA012801D191
:1000F000012032BD606A002802D0200000F002FB1F
:1001000020684168084A0A404260206881682A22C3
:1001100091438160FFE72068016801220A43026081
:10012000200000F05DFB32BDFFB7FFFFF1B584B0EA
:100130001F0006465036F06A202861D10C000FD00F
:1001400068460280002A0BD004988068802149010B
:10015000884207D104980069002803D1E00701D53F
:1001600001204EE0002575632120F06200F0E2FDE1
:1001700001006846008830806846008870803A0038
:100180000498806880235B01984209D10498006933
:10019000002805D12500049F0192029104001AE075
:1001A0002000F8E721788162641C11E0019800903A
:1001B000029B00228021380000F070FB00281BD138
:1001C0003868002CEED12988C905C90D8162AD1CA3
:1001D0007088401E708070880028E7D13800029B2C
:1001E000019900910022402100F058FB002803D122
:1001F0002020F062002004E02020F062032000E0D4
:10020000022005B0F0BD70B58023C358202B28D143
:1002100000290BD0130009D0836880246401A34215
:1002200006D10369002B03D1CB0701D5012070BD96
:100230000023036603680C4CA3420FD05B681B02CB
:100240000CD5EFF31083012484F31088046825682B
:100250008026F6042E43266083F3108800F066FBA8
:1002600070BD022070BD000000480040F8B50400D9
:100270002068C16902688368A84F0F40250058357F
:100280000026002F0AD18F0600D5970600D480E003
:100290002969002901D020008847F1BDDF0702D479
:1002A0009F4F174075D0CF0706D5D70504D5012736
:1002B0000762E86A0743EF62880708D5D80706D5C2
:1002C000022027683862E86A04270743EF6248077C
:1002D00008D5D80706D5042027683862E86A0227BF
:1002E0000743EF62080709D5900601D4D80705D562
:1002F000082023681862EB6A1843E862080509D5EC
:10030000500107D58020000123681862E86A202385
:100310000343EB62E86A002831D0880606D59006D0
:1003200004D52969002901D020008847E86A4027C0
:1003300021688968394002D12821014024D0200059
:1003400000F062FB20688068074019D0EFF310804E
:10035000012181F3108821688A6840239A438A60CA
:1003600080F31088E86900280AD06E498163E86943
:1003700000F00BFD002802D0E869816B8847F1BDD1
:10038000200000F029FDF1BD200000F025FDEE6207
:10039000F1BDAF68012F00D093E0CF0600D5D7069E
:1003A00000D48EE01021016220202168896849066E
:1003B0004BD5E9690A68526892B2002AE8D05823FE
:1003C000E35A9A42E4DA6A8009680968014034D144
:1003D000EFF31081012282F3108822681368524FD4
:1003E0001F40176081F31088EFF31081012282F320
:1003F0001088226893680127BB43936081F31088BB
:10040000EFF31081012282F310882268936840275D
:10041000BB43936081F31088A862AE60EFF3108055
:10042000012181F3108821680A6810239A430A6029
:1004300080F31088E86900F083FC0220E86058200F
:10044000205A6988411A89B237E05821615A6A886E
:10045000891A6A461180698800295DD06946098831
:10046000002959D0EFF31081012282F3108822680D
:1004700013682E4F1F40176081F31088EFF310812F
:10048000012282F31088226893680127BB4393609E
:1004900081F31088A862AE602E61EFF31080012115
:1004A00081F3108821680A6810239A430A6080F358
:1004B00010880220E86068460188200000F08DFC6A
:1004C000F1BDCF0208D55B0206D580214903016248
:1004D000200000F083FCF1BD080607D5100605D505
:1004E0006969002918D020008847F1BD480613D556
:1004F000500611D5EFF31080012181F31088216897
:100500000A6840239A430A6080F3108820206862BA
:100510006E61200000F063FCF1BD00000F080000D8
:10052000200100047D0A0008FFFEFFFFDFFEFFFF41
:10053000F1B582B00024056828687049014002982E
:100540008068084302990969014302984069084399
:100550000299C969014329606868694901400298A4
:10056000C0680843686002988069984FBD4203D014
:1005700001000298006A0843A968954A0A4010439E
:10058000A860944B10269448854228D1D86C0C2141
:10059000014036D0042938D0082934D00C2936D06F
:1005A000102000908D488108F202BD424AD1009D82
:1005B000002D06D0022D2CD0042D2FD0082D30D0A8
:1005C00093E000F032FF00284ED002994A685100B3
:1005D0008918884202D31103814224D285E0BD42AA
:1005E000DED1D86CC021090101400AD0180D81422A
:1005F0000BD04000814206D0C0200001814206D0CD
:10060000CEE70020CDE70220CBE70420C9E7082091
:10061000C7E71A681640D8D00800D6E700F0CCFE2D
:10062000D1E71000D1E7070E06025008002180191B
:100630007941002300F03FFF95494118954A9142C6
:1006400053D244E0944D029FFF699742009F26D108
:10065000002F06D0022F18D0042F1BD0082F1CD03B
:1006600043E000F0E2FE002840D0029949684000D3
:100670004A08801800F068FF01001039A94234D2FE
:1006800005400007400F284321E01A681640ECD0CF
:100690000800EAE700F090FEE5E71000E5E7002F2C
:1006A00006D0022F17D0042F1AD0082F1BD01CE021
:1006B00000F0BBFE002819D0029949684A0880184A
:1006C00000F042FF01001039A9420ED280B2029917
:1006D0000968C8600AE01A681640EDD00800EBE728
:1006E00000F06AFEE6E71000E6E701240020029928
:1006F00088660299C8662000FEBD0000F369FFEF1E
:10070000FFCFFFFF2421415CC90706D501684A6875
:10071000B14B1340826A1A434A602421415C890725
:1007200006D501684A68AD4B1340C26A1A434A6055
:100730002421415C490706D501684A68A84B13404B
:10074000026B1A434A602421415C090706D50168FF
:100750004A68A44B1340426B1A434A602421415C0F
:10076000C90606D501688A689F4B1340826B1A43FD
:100770008A602421415C890606D501688A689B4B02
:100780001340C26B1A438A602421415C490611D58B
:1007900001684A68994B1340026C1A434A60026C24
:1007A00080235B039A4205D14A68954B1340426C03
:1007B0001A434A602421415C090606D501684A684B
:1007C000904B1340806C18434860704700480040CD
:1007D000FFF4FFFF00100240004400400024F4003A
:1007E000FEB50600370078370024FC6000F0A2FA5E
:1007F0000190202530680068000717D59A480090BE
:10080000019B00222904300000F048F800280DD098
:10081000EFF31080012181F3108831680A6880238A
:100820009A430A6080F310887D6026E03068006893
:10083000400725D58C480090019B002269043000B8
:1008400000F02CF800281BD0EFF31080012181F379
:10085000108831680A68854B13400B6080F310885C
:10086000EFF31080012181F3108831688A68012339
:100870009A438A6080F31088BD603C700320FEBDFF
:100880007D60BD60346674663C700020FEBD000073
:1008900000FDFFFF00FD0F00F0FF0000FEB5802708
:1008A0003F0108240025060001916846027002936A
:1008B0003068C069019901400198814201D101204D
:1008C00000E000206946097888422DD1089800216F
:1008D000C9438842ECD000F02DFA0299401A0899D9
:1008E000814201D3002901D10320FEBD3068016897
:1008F0004907DDD5C16921400CD1C1693940D7D044
:100900000762300000F080F8300078302021C160AC
:100910000570E9E70462300000F076F830007830C6
:10092000C46005700120FEBD0020FEBD70B54165AC
:10093000010058310A804A8000230B618668FF2439
:1009400080225201964204D10569002D11D1484CF4
:100950000FE07F25002E03D10669002E06D108E0A6
:100960001404A64207D10469002C01D18D8003E054
:100970003F248C8000E08B80CB6222238B62EFF3DC
:100980001083012484F310880468A56801262E438F
:10099000A66083F31088836893420DD10269002A10
:1009A0000AD1344A0A61EFF31081012282F31088E0
:1009B0000068026820231BE02F4A0A6101690029B0
:1009C000F1D0EFF31081012282F3108800680268F1
:1009D00090235B00EFE70000FFFFFDFFFFFFFEFF3E
:1009E000FFFFFBFFFF7FFFFFFFEFFFFFFFDFFFFFCB
:1009F0001343036081F31088002070BDFFFFEFFFF9
:100A0000FFFF9FFFFFFFF7FF10B5EFF310810122FB
:100A100082F3108802681368144C1C40146081F340
:100A20001088EFF31081012282F310880268936826
:100A30000124A343936081F31088016E01290BD137
:100A4000EFF31081012282F31088026813681024EA
:100A5000A343136081F3108820218022815000215C
:100A60000166816610BD0000FFFFFF01DFFEFFFF92
:100A7000FF010000350B0008910A000880B5806A6C
:100A80000100523100220A810A8000F0A5F901BD5F
:100A900070B50100583102688B6A222B44D1526A2A
:100AA0008B881340426D1370426D521C42654A8818
:100AB000521E4A804A88002A3AD1EFF3108201235D
:100AC00083F3108803681C68434D25401D6082F342
:100AD0001088EFF31082012383F3108803689C6869
:100AE0000125AC439C6082F3108820228A62002298
:100AF0000A61CA600368394CA3420ED05B681B02CE
:100B00000BD5EFF31083012484F310880468256863
:100B1000334E2E40266083F310888B68012B00D162
:100B200060E000F035FD70BD9069082101439161DE
:100B300070BD000070B50100583102688B6A222B2D
:100B400044D1526A8B881340426D1380426D921CCF
:100B500042654A88521E4A804A88002A3AD1EFF3F9
:100B60001082012383F3108803681C681A4D254006
:100B70001D6082F31088EFF31082012383F3108845
:100B800003689C680125AC439C6082F31088202296
:100B90008A6200220A61CA600368104CA3420ED028
:100BA0005B681B020BD5EFF31083012484F31088DC
:100BB000046825680A4E2E40266083F310888B68EF
:100BC000012B00D10EE000F0E3FC70BD906908211C
:100BD0000143916170BD0000DFFEFFFF004800404F
:100BE000FFFFFFFB8A60EFF31081012282F3108880
:100BF000026813681024A343136081F3108801680E
:100C0000CB69234000D00C625821415A00F0E5F82E
:100C100070BDF1B401684218416848081318009883
:100C20008068C9071ED5494640181BE01778521C3A
:100C30000770401C761EF9D1002C13D01678521C78
:100C400089080D40032D01D11578521C2902711815
:100C50004D424119A41C05D00D78491C0570401C5B
:100C6000641EF9D19A420FD01178521C0325032635
:100C70000E4002D11678F61C521C0C090F2CD9D14B
:100C800014780F34521CD5E700980C30F2BC704732
:100C900080B52548254901609621890141600021E0
:100CA0008160C16001610C2242618161C1610162A8
:100CB0004162FFF705FA002801D000F0E1FC01BD18
:100CC00010B586B004001422002101A800F0DAFC5F
:100CD00020681649884224D11548C16880229202B2
:100CE0000A43C260012102680A43026000680140B1
:100CF000009100980C2001900220029000200390A7
:100D0000032004900420059001A9A020C00500F054
:100D1000C3FC002200211C2000F0C1FD1C2000F0BB
:100D2000C2FD06B010BD0000580500200044004080
:100D30002C10024001484068704700BF7800002036
:100D400030B50100243100222523C35C022B04D0DE
:100D50000423C3630A70012030BD03681C680E259C
:100D6000AC431C6003681C680125AC431C60012374
:100D70004424045D1C2525400124AC40056C6C60B6
:100D8000252403550A70002030BD70B500220024D0
:100D900001212523C35C022B03D00422C26301245A
:100DA00018E003681D680E26B5431D6003681D68C2
:100DB0008D431D604423C35C1C251D400123AB40B3
:100DC000056C6B602523C15424214254816B00299A
:100DD00000D08847200070BD70477047704770474B
:100DE000FEB5060060D0BB4CE0680C2101400091CC
:100DF000E06880214902084001903078C0070ED594
:100E00004F000098082804D00C2872D1019888421D
:100E10006FD12068074002D07068002844D0307835
:100E2000800733D5F0682021084204D0226811439E
:100E3000216020218843BB4F0921C943009A042A1D
:100E400005D00C2A01D1019A002A00D08CE022683A
:100E5000520701D5002827D0626817403269120274
:100E60003A436260226811400843206000F0A4FA0F
:100E7000AD49E2681206120F895CC840BC4908609F
:100E8000BC48006800F034FD010031D1A70D307876
:100E9000C00600D4B4E00098002800D091E020689B
:100EA000800503D5B069002800D1A4E16068B2498B
:100EB0000140306A0843606060680002000AF1691E
:100EC0000906014361600120316A490B491C8840D1
:100ED000C0039549E2681206120F895CC840A44914
:100EE0000860A448006800F003FD010000D187E01D
:100EF000FEBD7068884201D1206809E0A021C902C6
:100F00008842206806D17900014321602068790871
:100F100001430AE0BA49014021602068790808408D
:100F2000029002982068B74901402160706800284B
:100F30000DD0FFF7FFFE05002068384000D06EE7B7
:100F4000FFF7F8FE401B6528F6D30320FEBDFFF730
:100F5000F1FE05002068384000D160E7FFF7EAFEA7
:100F6000401B6528F6D3F0E704220192002817D031
:100F70002268114008432060FFF7DCFE050020686E
:100F80000199014005D1FFF7D5FE401B0228F6D993
:100F9000DBE760680740306900023843606075E74E
:100FA0002068012188432060FFF7C4FE0500206807
:100FB00001990140F3D0FFF7BDFE401B0228F6D98E
:100FC000C3E7B0690028206830D038432060FFF7BD
:100FD000B1FE05002068800505D4FFF7ABFE401B7D
:100FE0000228F7D9B1E7606863490140306A0843D5
:100FF000606060680002000AF169090601436160EF
:101000003078000730D570690028206D1DD001218F
:1010100001432165FFF78EFE0500206D800723D474
:10102000FFF788FE401B0228F7D98EE7764901407A
:101030002160FFF77FFE050020688005E0D5FFF7FF
:1010400079FE401B0228F7D97FE7012188432065FC
:10105000FFF770FE0500206D800705D5FFF76AFEDB
:10106000401B0228F7D970E73078400765D500208B
:1010700001903805A16B014004D1A16B0843A06326
:101080000120019061480068384011D15F48006834
:1010900038435E490860FFF74DFE05005B48006875
:1010A000384005D1FFF746FE401B6528F6D34CE7D4
:1010B000B168B9420AD0564800290DD0A022D2000A
:1010C000914209D1206D210D01432165206D074317
:1010D000276508E000100240216D4B4A0A40226556
:1010E000216D08402065670DB06800280CD0FFF71F
:1010F00021FE0500206D384018D1FFF71BFE401B74
:10110000A9498842F6D320E7FFF714FE0500206DB9
:1011100038400BD0FFF70EFE401BA3498842F6D3A0
:1011200013E700BFFFE0FFFFB83500080198002873
:1011300003D0A06B9D490140A163706A00285CD078
:1011400000990C2942D08027BF04994902282068C1
:101150002ED101402160FFF7EDFD050020683840E9
:101160000CD0FFF7E7FD401B0228F7D9EDE600BFE2
:101170008400002080000020FF1FFFFFE0688D49F1
:101180000140B06A0843F16A0143306B0843E060F4
:101190002068790801432160FFF7CCFD0500206835
:1011A00038402AD1FFF7C6FD401B0228F7D9CCE60C
:1011B00001402160FFF7BEFD0500206838401CD0CB
:1011C000FFF7B8FD401B0228F7D9BEE6012812D070
:1011D000E068802149020140B26A91420BD1F021BE
:1011E00089030140F26A914205D1C02109040140FE
:1011F000306B814201D00120FEBD0020FEBD00BF4A
:10120000FFFFFEFFFFFFFBFFFFFEFFFF0070004040
:10121000FFFBFFFFF1B582B000285CD00091624F68
:1012200086480068C107C90F0098814217D2834CD5
:10123000206801218843009901432160FFF77AFD6E
:10124000009D06002068C107C90FA94206D0FFF71C
:1012500071FD801BB842F5D30320FEBD00957A4C8A
:1012600002980078800706D5E068F021884302994B
:1012700089680143E1603E4602980078C0074DD579
:1012800002984068022819D12168890323D5E168B2
:10129000032291430843E060FFF74CFD07000298EA
:1012A00040680C25022818D1E0682840082835D06D
:1012B000FFF740FDC01BB042F6D3CDE7032802D1B3
:1012C0002168890103E00128216802D14907DED4A1
:1012D00001E08905DBD40120FEBD032809D1E068C7
:1012E00028400C281AD0FFF725FDC01BB042F6D3CA
:1012F000B2E7012809D1E068284004280ED0FFF7A2
:1013000019FDC01BB042F6D3A6E7E068284005D01F
:10131000FFF710FDC01BB0429ED2F6E70098474988
:101320000968CA07D20F904215D2444D286801219E
:101330008843009901432960FFF7FCFC07002868F7
:10134000C107C90F0098814205D0FFF7F3FCC01B0D
:10135000B042F4D380E702980078400706D5E068F1
:101360003A4901400298C0680843E060029800785A
:10137000000707D5E0683649014002980069C000BF
:101380000843E06000F018F83249E2681206120FD4
:10139000895CC840304908603048006800F0A8FA0D
:1013A000010000D10020FEBD89130000FFFFFFEF08
:1013B000FFFFFFFEFFFF02FF50B5234AD168102355
:1013C0000C200840042804D0082809D00C2809D093
:1013D00023E01068034001D0224850BD224850BD90
:1013E000224850BD22488C02240F005D09028C0F58
:1013F000641C0021D668F60301D51C4A03E012687C
:10140000134002D0174A002300E0174A00F092FA76
:101410002200002300F04FF850BD50680121000465
:10142000400F401C8140C80350BD0B480068114963
:101430000B4A1268520503E0000000000020024041
:10144000520F895CC840704700100240FFF8FFFF50
:10145000FFC7FFFFB835000884000020800000208F
:101460000C10024000093D000024F40000127A0034
:10147000C83500083C36000830B4DC0F03D05B42AE
:10148000524200D25B1E0D106C4013D0F446002572
:1014900002D349424042A94100F00DF8E40703D3CA
:1014A0005B425242AB41244202D549424042A941EB
:1014B00030BC604730BC124224D0994228D970B564
:1014C00000251B4202D00C00002109E00024012667
:1014D00049186441944200D3A41A7641F8D33100EC
:1014E000012601E0764109D2001864416D41A41A39
:1014F0009D41F7D2A4185D41B619F5D33000220002
:101500002B0070BD1B42D8D108B500F02DFA08BDE4
:1015100001D19042D3D202000B000021002070477D
:10152000CA0F00D0494203105A400DD004B500D371
:10153000404200F009F8009AD20701D34942124212
:1015400000D5404204BD0000094214D088420FD3A8
:101550000122030C01D100041204002300185B4196
:101560008B4200D35B1A5241F8D319001000704728
:1015700001000020704708B500F0F8F908BDFEE74B
:1015800080B5FFE701220E490E48FEF73CFE01BD83
:1015900001000C4809680268914200D0704710B5FC
:1015A00007490A89322A05D20B784C68A3540A8964
:1015B000521C0A810122FEF726FE10BD0000000029
:1015C000340100205805002080B500F0D1F900F06A
:1015D0000BF800F0E1F900F055FAFFF759FB00F0C5
:1015E0009DFA00F0B1FAFEE738B598B03422002138
:1015F0000BA800F047F814220021684600F042F8DA
:101600001822002105A800F03DF81B4801681B4A7C
:101610000A40C10C114301600A200B9001200E907A
:1016200010210F9110900224149400251595169501
:10163000800517900BA8FFF7D3FB002801D000F01E
:101640001FF80F2000900320019002950395049548
:1016500001216846FFF7DEFD002801D072B6FEE7E3
:101660000594079505A800F085FA002801D072B608
:10167000FEE719B030BD000000700040FFE7FFFF3B
:1016800072B6FEE710B50400080011000200200049
:1016900000F02CFB200010BDF0B585B000220F2318
:1016A000039331E0062303E0664B9842FAD1052309
:1016B000B3402B432360644B9D68019BDC43254072
:1016C0004B68DB0202D52B00019D1D435E4B9D60E4
:1016D000DD6825404E68B60202D52E00019D3543D7
:1016E000DD605D6825404E68B60302D52E00019D81
:1016F00035435D601D682C404D68ED0302D5250023
:10170000019C2C431C60521C0B681C00D44000D16F
:101710007FE00124944023400193019B002BF2D0F1
:10172000530003259D40EE4302964D68AE07B60F69
:10173000012E03D0AD07AD0F022D0ED18568029E9C
:101740002E40CD689D40354385604568A5434C6873
:10175000E606F60F96402E43466094006D466C7088
:1017600003244D682540032D25D0C568029E2E40D8
:101770008D689D403543C5604D682540022D1AD1C6
:10178000D508AD0045192E6A04966E4677781C265A
:101790003E406F463E70049EB446039F6E463678C8
:1017A000B7406646BE43B4460F696E463678B740CA
:1017B000664637432F620568029E2E404D682C40D6
:1017C0009C40344304604B68C024A4021C409AD05F
:1017D00001231E4C24681C431C4D2C601C4C950896
:1017E000AD00641925686E4677780C263E40039F4D
:1017F000B740BD43A027FF05B84201D1002357E7FA
:10180000144FB842FBD0144B984200D04CE702234F
:101810004EE705B0F0BD0069084000D00120C0B21D
:101820007047002A01D081617047816270470B4A7E
:101830001368034000D1704780B5106000F010F8C5
:1018400001BD0000001C00500004014034100240A3
:10185000080001400004005000080050140401403A
:101860007047FEE710B5C20018231340FF249C40C8
:10187000E2438907090E9940030004D418489B08E5
:101880009B00C01806E0174B0007000F08388008BF
:101890008000181803681A401143016010BD80B51C
:1018A000FFF7E0FF01BD010005D40121C006C00E15
:1018B00081400D480160704710B5401E80214904E9
:1018C000884201D3012010BD084C60600321002034
:1018D000C043FFF7C7FF0020A0600721216010BDB3
:1018E00000E400E01CED00E000E100E010E000E0BA
:1018F00038B505000D4CFA2080002178FFF724FE52
:1019000001000B480068FFF71FFEFFF7D5FF002816
:101910000AD1042D08D2002229000020C043FFF77D
:10192000BEFFA560002032BD012032BD780000203E
:101930008400002030B4434351435D18010C0C0077
:10194000130C5C432D1980B2434392B251430024DF
:10195000C918644124040B04090C09195043C01828
:10196000694130BC7047FEE77047FEE77047FEE70D
:1019700010B500240748016840220A430260032092
:10198000FFF7B6FF002801D0012401E000F0B4F910
:10199000200010BD00200240F8B586B014220021BE
:1019A0006846FFF76FFE0421334802680A4302606D
:1019B00002681140059105990124016821430160E5
:1019C00001682140059105990226016831430160B3
:1019D0000068304005900598A5030122290027489A
:1019E000FFF71FFFE703002239002448FFF719FF24
:1019F00000221021A020C005FFF713FF00220221C2
:101A00001F48FFF70EFF00950194029400250395EF
:101A100069461A48FFF740FE009701940296039525
:101A200069461648FFF738FE102000900194029690
:101A300003956946A020C005FFF72EFE009601948D
:101A40000295039569460E48FFF726FEC020C000A8
:101A5000009084208003019002946946A020C00574
:101A6000FFF71AFE002200210720FFF718FF0720CA
:101A7000FFF719FF07B0F0BD2C100240000800501E
:101A80000004005080B522482249016082214900AB
:101A9000416000218160C16001614161802292004A
:101AA00082611022C2610162416281620721C162CA
:101AB00000F030F9002801D0FFF7E2FD01BD10B5BC
:101AC00086B004001422002101A8FFF7DBFD206886
:101AD000104988421AD110488168820C0A438260FA
:101AE000012102680A4302600068014000910098E9
:101AF000E020019002200290002003900321049135
:101B0000059001A9A020C005FFF7C6FD06B010BDD5
:101B1000E0050020003001402C10024080B508484C
:101B200008490160062141609C214900C160816033
:101B300000F00AFB002801D0FFF7A2FD01BD00BFA5
:101B40001C0700200030004010B500F062FB01F0DF
:101B5000BFF801F0B0F8642001F012F9044C00F075
:101B600069FB01F0CBF8200000F019FBF7E700005B
:101B70001C070020FEB5070000200190514C38786A
:101B8000800679D580204005A16B014004D1A16B6E
:101B90000843A06301200190A50D4B480068284030
:101BA00013D1494800900068284300990860FFF766
:101BB000C1F8060000980068284006D1FFF7BAF87F
:101BC000801B6528F6D30320FEBD21687868C022FB
:101BD00092030A40C021890301408A420BD0C021F0
:101BE00089020140C0229202914204D121688903F6
:101BF00001D50120FEBDC026B602216D314020D0A6
:101C0000304081421DD0387880062ED5216D2F4876
:101C10000840216DEA020A432265216D2C4A0A40E0
:101C20002265206505400CD0FFF784F80500206D83
:101C3000800506D4FFF77EF8401B26498842F6D37C
:101C4000C1E73878800610D5786831000140B1428C
:101C500006D12168204A0A40310101401143216028
:101C6000206D79680E40064326650198002803D050
:101C7000A06B1A490140A1633878800705D5E06C54
:101C80000C218843B9680143E1643878400705D5E1
:101C9000E06C13490140F8680843E06438780007B5
:101CA00005D5E06C0F49014038690843E064387895
:101CB000000605D5E06C0C49014078690843E064F2
:101CC0000020FEBD0010024000700040FFFFFCFF3E
:101CD000FFFFF7FF89130000FFFFCFFFFFFFFFEFBC
:101CE000FFF3FFFFFFCFFFFFFFFFF3FF094202D02B
:101CF000491E4254FCD170470548016801220A433D
:101D000002604168802252050A434260704700BF6A
:101D100034100240F8B5040001D10120F2BD822741
:101D20007F000025606A002804D16068B84203D0B3
:101D3000E56101E025616561A56226005036707895
:101D4000002803D135702000FFF7B9FE0220707023
:101D500021680A6840239A430A600121626817409B
:101D6000A368842212021A403A43E36887023B4088
:101D7000134322691040184362690A400243A06974
:101D80004B0218401043237F38221A400243202080
:101D9000205C802318401043A26A4B031A40024380
:101DA00020680260A069000C042210402422A25C7A
:101DB00010231A4002432068426075607170002051
:101DC000F2BDF2B586B00400170001200590002096
:101DD000694608705020205C012801D1022015E1DD
:101DE0001D00012650216654FEF7A4FF0490200038
:101DF0005030417801290BD0626882235B009A42FF
:101E000004D1A268002A01D1042901D00220F3E004
:101E10000699002903D0002F01D02A0002D168467C
:101E20000670EEE0220050325378042B01D00523D7
:101E300053700022230050335A60A763E587A587BB
:101E40002163E586A58622646264216840220B68CE
:101E5000134002D10B681A430A600021C943039161
:101E6000090C6A46518002210191002102910C9FC8
:101E7000E168F2029142616850D1002901D0012D40
:101E80000BD1206B00882168C860206B801C206308
:101E9000E08E694649884018E086059E049DE08EE4
:101EA000002802D1E08F00284FD020688168019A75
:101EB0000A4010D0E18E00290DD0002E0BD0216BEE
:101EC0000988C160206B801C2063E08E69464988C8
:101ED0004018E086029E20688168C9070ED5E18F10
:101EE00000290BD0C068A16B0880A06B801CA06388
:101EF000E08F694649884018E0870126FEF71AFFFF
:101F0000401BB842CBD303988742C8D00320694610
:101F10000870012021005031487072E0002901D082
:101F2000012D0BD1206B007821680873206B401CB9
:101F30002063E08E694649884018E086059E049D2E
:101F4000E08E002802D1E08F002835D0206881681B
:101F5000019A0A4010D0E18E00290DD0002E0BD03E
:101F6000216B09780173206B401C2063E08E694669
:101F700049884018E086029E216801208A68024054
:101F80000ED0E28F002A0BD0C968A26B1170A16B32
:101F9000491CA163E18F6A4652888918E1870126AE
:101FA000FEF7C8FE401BB84203D303988742ADD169
:101FB000C6E7002FC4D1A9E739002A00200000F0AD
:101FC0008DF8002807D001206946087020202100E4
:101FD0005031486015E0A068002807D102980190B0
:101FE0002068C168019180680190019820005030FC
:101FF0004168002903D001206946087001E00121F1
:1020000041700020502160546846007807B0F0BD50
:10201000FEB582B006000A9C1D46FEF78BFE281A0C
:102020000719FEF787FE2C4909684901090D794314
:10203000009101240025019006E00098002800D1BD
:1020400000270098401E0090306880680299014087
:102050000298814201D1012000E000206946097BFD
:10206000884235D004980021C9438842ECD0FEF75D
:1020700061FE0199401AB84201D2002FDDD13068CB
:102080004168E022914341607068822149008842A2
:102090000BD1B068E103884202D04909884204D1DB
:1020A000306801684022914301606003B16A814257
:1020B00008D131680A68224B13400B6031680A6806
:1020C000104308603000503044700570032000E079
:1020D000002005B0F0BD0000840000207CB50400A5
:1020E0000D001600154800681821FFF72DFA154954
:1020F000FFF72AFAFA21890048430090606882219C
:10210000490088420ED100962B0000228021200039
:10211000FFF77EFF00280FD0606D2021014361652D
:10212000032076BD0098002806D00098401E00903D
:10213000206880680006F5D4002076BD8400002069
:10214000FFDFFFFF40420F0070B5050001D1012005
:1021500070BD2868144901601449016069684160D4
:10216000A9688160FEF7E6FD072406002868C168BB
:1021700021400AD0FEF7DEFD801B2B28F6D328680D
:10218000C0682040F2D0032070BDE96802698A422D
:1021900001D0016101E006490160002070BD0449E1
:1021A0000068016000207047CCCC0000555500004D
:1021B000AAAA000080B50100894800F0FDFD0120B9
:1021C00002BD80B50100874882888548002A09D071
:1021D000038E934205D100210186022100F0E4FD27
:1021E00002E0028600F0E8FD012002BD10B500F01B
:1021F00001F900F040F87B4CA2880021206800F033
:10220000E5FD0020A0800121754800F0CDFD0120F2
:1022100010BD80B5744802687449754B9A4203D169
:1022200042680A7080684860486800F0C7FBFFF7A2
:10223000A7F901BDF8B50027002400256848290149
:1022400046187078012811D101247068002806D042
:10225000FEF770FD7168401AB168884206D3777046
:10226000FEF768FD7060E8B2F16888476D1C032DC9
:10227000E4DB2000F2BDF8B59CB00020694608728E
:10228000584D2C68594E20783178884218D1322226
:1022900000210FA8FFF7F6F90FA80390A98860188E
:1022A000801E427812020078024368460280891E2E
:1022B000200000F095FD2C686778694609888842FF
:1022C00000D089E0012069460872A0780502E07814
:1022D00005432822002105A8FFF7D4F93A00803AE7
:1022E000032F20D1102D58DA20790002617908439C
:1022F0004400200451D01020401B4006000EA1B223
:1023000088424AD3A2B2290005A800F019FA05A80C
:1023100001902004400C00902B000322317803A888
:1023200000F078FD41E0062F39D12F4F280013D15E
:10233000207900026179084300B2411EFF292CD2A6
:10234000307072683178380000F054FB05A80190B5
:102350000120009000231AE0012D1ED120790002F7
:102360006179084300B2082817D2800030188068CD
:10237000706000F023FBFFF703F9726831783800D2
:1023800000F038FB05A801900120009001230622EF
:10239000317803A800F06CFD07E0032300E002237E
:1023A000D2B2317803A800F0A0FDA024E4050122F8
:1023B00010212000FFF735FA0A2000F0E1FCFA2393
:1023C0009B0003A8828803999248FDF7AFFE002284
:1023D00010212000FFF725FA6846007A1DB0F0BDF5
:1023E000D800002038010020007C00080C010020EB
:1023F000A5A5A5A570B500F020F90021C943884224
:102400002AD0B84DB84C012803D120709620800105
:102410007CE00121C943884202D100F091F870BDEF
:10242000B24A002102284BD10023908812688342CF
:1024300005DA1E005B1CDBB2965D202EF7D1D65C60
:10244000303E0A2E04D25B1CDBB2491C8342F6D11B
:102450005B1EDBB2CEB2002E68D0042E66DA401EC0
:10246000834263D1C8B2012802D1D05C30381BE06E
:10247000022809D1D0180178801E40780A224243F0
:102480008818842189000EE0C9B203294ED1D018E2
:10249000811E00784A780A235343C01809786422C1
:1024A0004A438018A549401A81B200293ED0FF292D
:1024B0003CDC2070072100BF57A000F019F92FE085
:1024C000032838D1002390881268DEB2864205D2F4
:1024D0001E005B1CF6B2965D202EF6D1DEB2965D34
:1024E000303E082E04D25B1C491CDEB28642F5D178
:1024F0005B1EC9B2012919D1DBB2401E834215D13E
:10250000D05C30380006800D20188068606007219C
:1025100041A000F0EDF8606800F050FAFFF730F8E5
:1025200062682178280000F065FA70BD052100BFBF
:1025300001A000F0DDF870BD4552524F520000007E
:10254000D8B587B001206A465070694608700F22DE
:10255000002101A8FFF796F86348047840680690C8
:10256000210000A8401C00F05BF80699684600F0C6
:1025700057F801A849210170462141703D21817021
:1025800068464678F61C771E12E020000A21FEF706
:10259000C7FF303101A8FAB2815420000A21FEF7AA
:1025A000BFFFC4B268464078401E694648707F1E2F
:1025B000684640780028E8D101AF2C20F1B2785469
:1025C00068460078401C30180590461E069C11E0B5
:1025D00020000A21FEF7B8FF3031F0B23954200054
:1025E0000A21FEF7B1FF040068460078401E6946E4
:1025F0000870761E684600780028E9D10598C1B2B7
:1026000001A800F075F8072103A000F071F808B0E8
:10261000D0BD000058050020535543434553530097
:1026200010B50400080002E02178491C21700A213D
:10263000FEF78AFF0028F7D110BD10B52B490868B6
:102640000278412A4BD14278542A48D182782B2AE9
:1026500045D1C278522A10D10279452A3FD1427918
:10266000532A3CD18279452A39D1C079542836D1B0
:102670008888082833D1012010BD1B4C492A0ED16F
:102680000279442A1CD142793D2A28D18A88062120
:1026900000F060F92178884221D1022010BD422A41
:1026A0001DD10279522A1AD142793D2A17D18A883E
:1026B000062100F04FF92178884210D1032010BD87
:1026C000462A0CD142793D2A09D18A88052100F099
:1026D00041F92178884202D10120C04310BD002079
:1026E00010BD0000007C00080C0100203801002013
:1026F000F3B581B0A027FF05012210213800FFF7B4
:1027000090F8AD4DB9A6FA24A400230003223100AD
:102710002800FDF70BFD23006846027A0199280086
:10272000FDF704FD2300032231002800FDF7FEFC25
:10273000002210213800FFF774F8F7BDD014000014
:10274000F4B50200002300240800A94D08D1694611
:10275000098800291ED01370B849097851700224E5
:10276000022817DA694609888C4215D20026B34838
:10277000010008313706BF0DC9594068814203D0B6
:10278000761CF0B20828F2DB1355641CE0B2165434
:10279000641C01E002280EDCE0B269460988884228
:1027A0000BD22888000AE1B25054641C2888E1B298
:1027B0005054641C01E004280BDAE0B26946098831
:1027C000884207D2E1B25354641CE1B25354641CF2
:1027D00000E00CDCE0B269460988884209D2E1B227
:1027E0005354641C0120E1B25054641C01E00528DC
:1027F0000EDCE0B26946098888420BD26888000A7C
:10280000E1B25054641C6888E1B25054641C01E089
:1028100006280BDCE0B269460988884208D2E1B29A
:102820005354641CE1B25354641C01E008280CDAD0
:10283000E0B269460988884208D2E1B25354641C68
:102840000120E1B25054641C00E00FDCE0B26946A4
:10285000098888420CD268680016E1B25054641CA2
:1028600068680014E1B25054641C01E009280EDCD1
:10287000E0B26946098888420BD268680012E1B26A
:102880005054641C6868E1B25054641C01E00A288A
:102890000BDCE0B269460988884208D2E1B25354A1
:1028A000641CE1B25354641C01E00B280CDCE0B260
:1028B00069460988884209D2E1B25354641C032056
:1028C000E1B25054641C01E00C2811DCE0B269460E
:1028D000098888420ED25B4803C8000EE1B250540A
:1028E000641C584803C8000CE1B25054641C01E059
:1028F0000D2814DCE0B269460988884211D2524D95
:102900002800083003C80004000EE1B25054641CD3
:102910002800083003C8E1B25054641C01E00E28BE
:102920000BDCE0B269460988884208D2E1B2535410
:10293000641CE1B25354641C01E00F2809DCE0B2CE
:1029400069460988884204D213540320641CE4B207
:102950001055F1BDF8B591421CD20023002400931C
:1029600001233A4D8EB2865D303E0A2E06D3491CB5
:102970008FB2BA42F6D28FB2BA4208D38EB2865D17
:10298000303E0A2E02D2491C641CF4E74919A2B257
:10299000092A01DB0020F2BD0200002008E08EB20F
:1029A000965D303E5E438019491964190A267343C7
:1029B0002604F4D1F2BD00005805002080B50100C6
:1029C0002348244A0260416000218160C1600161A6
:1029D0000C2242618161C16101624162FDF770FBBD
:1029E000002801D072B6FEE701BD00000D0A00000C
:1029F000DC0600207FB504000E00150000F0A3FAED
:102A0000002001900294082103910090694601A8DA
:102A100000F064FB104A2100022000F07BFA320033
:102A2000211D022000F076FA2A000834210002203D
:102A300000F070FA00F0ACFA7FBD00000C0100203D
:102A400000687047F0060020E8060020FFFF000045
:102A50005805002000440040A5A5A5A580B50100AB
:102A6000B74800F0A9F9012002BD70B50400A04DDF
:102A7000290008310D2000F067FC9E4EA868C02197
:102A8000490048439C49FEF75FFDB080AC4DB088DB
:102A90001A2809DB3078002801D000F00CF9022157
:102AA000280000F081F905E02100012030702800A5
:102AB00000F082F9012070BDF1B584B08C4C21008A
:102AC0001C310E2000F040FCE169260039369D489B
:102AD000814222D34842E06101D0002131709A49FD
:102AE0000CC9002180185941974A03C2FA2292006A
:102AF0000023FEF71FFF954A0023FEF7DCFCC822E7
:102B0000D2000023FEF7D7FC914A03C2794AD2686B
:102B10000023801859418F4A03C20020E0618E488B
:102B2000817801292AD100218170210030311420BF
:102B300000F00AFC206B400504D521002031102054
:102B400000F002FC01253020205C400608D5210061
:102B50003431152000F0F8FB606BC00300D53570F0
:102B60003020205C000609D521003431152000F00A
:102B7000EBFB606B400301D53A2025547748006891
:102B8000401C76490860652858D3210008310D2083
:102B900000F0DAFB21000B2000F0D6FB21002431ED
:102BA000002000F0D1FB21001031072000F0CCFB09
:102BB000206941422161A0680021694A0023FEF793
:102BC000B9FE684A0023FEF776FC06000F00206875
:102BD00000218E2292010023FEF7ACFE624A002300
:102BE000FEF769FC02AA03C22069C1175F4A0023ED
:102BF000FEF7A0FE5C4A0023FEF73EFC6A4603C2D5
:102C0000002F02D8052E00D200263A4A968002A84C
:102C100003C8D080684603C8906000253920205C36
:102C2000002802D0D580906A401C90620F2803D102
:102C30000321434800F0B8F8484805606846017C25
:102C40003F4800F0B9F8012005B0F0BD38B50500E7
:102C5000284C2000183003C8E060454A014645482A
:102C6000FFF7C8FE002000212200103203C222001C
:102C7000203203C22900324800F09EF8012032BD04
:102C800070B505003C4880210902FA24E4002C4E6E
:102C9000B26CA24205D10122FEF7C3FD2820B06428
:102CA00003E00022FEF7BDFDB4642900300000F00F
:102CB00083F8012070BD80B500228021C9012E4813
:102CC000FEF7AFFD052000F05BF800F05BFA01BDF8
:102CD00080B52848FFF7B4FE2549884207D1274828
:102CE000FFF7AEFE034AD0600021183203C201BDD7
:102CF00038060020D806002080969800F8B50027F6
:102D0000002400250E48290146187078012811D1A9
:102D100001247068002806D0FEF70CF87168401A8C
:102D2000B168884206D37770FEF704F87060E8B2A5
:102D3000F16888476D1C042DE4DD2000F2BD000021
:102D40008800002001943577E8060020BF49000084
:102D5000F8060020F0060020A80600204001002010
:102D60001896000000E1F50540420F00E71300004F
:102D7000A5A5A5A500780008000800500478000863
:102D800038B50500FDF7D6FF04000020C04385429A
:102D900002D0044800782D18FDF7CCFF001BA84294
:102DA000FAD331BD7800002009014018012141709B
:102DB000002141600120704710B50901441801202D
:102DC0006070FDF7B7FF6060012010BD0B001100BF
:102DD00000D1704780B51A00FEF788FF01BDFEE7FD
:102DE00030B50200094800230CE0200007E0D45C65
:102DF000604008254408C007F7D5054860406D1EAF
:102E0000F8D15B1C8B42F2DB80B230BDFFFF0000CB
:102E100001A00000F8B51400069A079B002506687B
:102E2000317001684C7051000468A17003210400E6
:102E300004E09F5D8EB28755491C6D1C2068AEB2C0
:102E40005700BE42F5DB6A46118069460988FFF7E4
:102E5000C7FF22686B461B88D05469460988491C05
:102E6000000A22688BB2D054491CA1800120F2BD17
:102E7000F8B504001D00069800232668317021680B
:102E80004A70290A2668B1702168CD700425062A87
:102E900002D0102A10D018E00799012801D0002094
:102EA000F2BD9AB24600B2420FDA8A5C2668AFB22F
:102EB000F2556D1C5B1CF4E7010A2268117122684F
:102EC00050714000216888710725AEB2310020683A
:102ED000FFF786FF226890556D1C000A2168AAB290
:102EE00088546D1CA5800120F2BD10B50400206837
:102EF0000170206842702068837003212068FFF70A
:102F00006FFF2268D070000A216808710520A08038
:102F100010BDFEE7F2B517003E4C207C012801D120
:102F20000220F2BD012020743B4D280000F03CF847
:102F30000026010005D1009866610760280000F0B6
:102F400033F82674F2BD0121344802680A400BD0E0
:102F5000EFF3108272B65B4B83605B4B836082F34E
:102F60001088026811400FD10222016811400DD073
:102F7000EFF3108172B6554BC360554BC36081F3BC
:102F800010880068024001D001207047002070477F
:102F90002248016802220A43026001680122FFE719
:102FA0000A4302600020704770B50500FDF7C2FEBD
:102FB0000600494C2068C0070CD50020C04385425C
:102FC000F8D0002D04D0FDF7B5FE801B8542F1D26C
:102FD000032070BD02202168014000D020602068DD
:102FE000C00511D4206880050ED4206840050BD49C
:102FF0002068000508D42068800405D42068800378
:1030000002D42068C00303D500F00AF8012070BD87
:10301000002070BD0407002050C3000004200240BF
:1030200030B500222B4880235B002B490C681C40E4
:1030300004D042690224144344611A004B0D0C6809
:103040001C4006D0446901252543456114001A003F
:1030500022430B0D0C681C4006D04469082525430B
:10306000456114001A002243CB0C0C681C4006D0AA
:10307000446904252543456114001A0022439B003E
:103080000C681C4006D04469102525434561140096
:103090001A0022430B689B0306D5202344691C4376
:1030A000446114002022224380235B020C681C40F0
:1030B00006D0446940252543456110001A000243AB
:1030C0000A6030BDEFCDAB8905040302BFAE9D8C15
:1030D000161514130407002018200240FEB507003F
:1030E0000E00194C207C012801D10220FEBD0120D8
:1030F000207416480090FFF757FF010020D10021EF
:10310000C94331607968124D01960E0000E08036A7
:10311000B968C9017A6889188E4211D2300000F06E
:103120001BF80098FFF740FF2968082291432960A7
:103130002968084A0A402A600100E8D001990E6017
:1031400000212174FEBD00000407002050C30000D0
:1031500004200240FFFDFFFF10B50021074A516126
:10316000074A1368540D1C431460136808241C4359
:1031700014607F229043016010BD0000040700200E
:103180000420024080B500F003F800F0C5F801BD4E
:1031900038B586B001A800BF92A10A68026004A8F1
:1031A00091A10CC90CC08A4C002202212000FEF71C
:1031B00038FB884D64200090042302AA01A928004E
:1031C000FEF7FFFD012202212000FEF72AFB00226C
:1031D00002212000FEF725FB64200090052302AAAF
:1031E00004A92800FEF7EDFD012202212000FEF7D0
:1031F00018FB07B030BDF1B588B008A80478764850
:10320000A2008018009002AE0078307000984078DC
:10321000707000250020B070704F04E0069A125CB8
:10322000F31C1A54401C62001219BA1806926A4A1A
:10323000A300D21892789042F0DB68468171002298
:1032400002216348FEF7EDFA6348A1004018807838
:10325000C01C69468880642000906846838804AA60
:1032600002A95C48FEF7ADFD012202215848FEF795
:10327000D8FA68468079002812D0002202215448EA
:10328000FEF7CFFA642000906846838804AA02A95A
:103290005048FEF796FD012202214D48FEF7C1FA83
:1032A0008020B07000204C49A20089188C78FF2241
:1032B000F31C01E01A54401CA042FBDB444E0022E8
:1032C00002213000FEF7ADFA642000906846838842
:1032D00004AA02A93F48FEF774FD01220221300032
:1032E000FEF79FFA04A808A909780D2909D0A5427C
:1032F0000FDAC11C495D069A525D914206D16D1CE0
:10330000F5E740792921795C884202D00020C0434A
:1033100000E0012009B0F0BD38B500250024E443E9
:103320000021E8B208E06D1CE8B228280ADA072874
:1033300001D00828F4D10121FFF75DFFA042F2D1AE
:10334000200032BD012032BD78B585B00C000021CF
:10335000234A43001818101801AA03781370437801
:1033600053708023937004E0FF23D51CCEB2AB557D
:10337000491C8678CBB2B342F6D3154D0022022108
:103380002800FEF74EFA64200090F31C9BB203AABB
:1033900001A91048FEF715FD012202212800FEF7C1
:1033A00040FA03A8022E02D0042E04D00EE0C17809
:1033B0000902007908E0C1780906027912040A437B
:1033C00041790902114380790843206006B070BD3D
:1033D00000040050E0050020F03300080000002049
:1033E000EC34000800FE00AD0120000030000000B9
:1033F00000040100000701050008010A000901108E
:10340000080001150100021A010202200103022531
:103410000104022A01070230010802350109023ABB
:1034200001100240020103450203034A0204035053
:10343000020503550224035A02250360022C03658A
:10344000022F036A02800370028103750282037AED
:1034500002830380028403850286038A0288039024
:1034600002890395028A039A028B03A0028C03A5AA
:10347000028D03AA028E03B0028F03B5029003BA35
:10348000029203C0029503C5029603CA029703D0B5
:10349000FEE7FEE77047704780B500F01FF801BDFA
:1034A00010B58024A4002100A020C005FEF7B3F9C8
:1034B000002802D10120074988702000FEF7B7F9E3
:1034C0006000FEF7B4F910BD80B50348FCF7CEFEEE
:1034D00001BD0000A80600205805002002484168F0
:1034E000027889184160704778000020010A0201C3
:1034F0000B02010C02010D02010E02031004031164
:1035000004031204031304031404031504031A042C
:10351000031B04031C04031E04031F0403200403F1
:103520002104032204032304032E040301040000E6
:1035300070B40123002413E00168001D194202D079
:103540004D466D1E49190C60091D121F042AFAD23E
:103550000D00960701D50C80AD1C1A4000D02C70D0
:103560000268001D002AE7D170BC704710B50749FA
:1035700079441831064C7C44163404E0081D0A686E
:10358000891888470100A142F8D110BD0800000049
:10359000240000009DFFFFFFEC050000400100201B
:1035A000000000006FD6FFFFAE00000048010000E1
:1035B0000000002070470000000000000000000034
:1035C0000102030406070809030406080C1018206A
:1035D0003000000000F00DF8002801D0FFF7C6FF12
:1035E00000BF00BF002000BF00BFFDF7EDFF00F0EF
:1035F00002F80120704780B500F002F801BDFEE737
:103600000746384600F002F8FBE7FEE780B500BF4A
:1036100000BF024A11001820ABBEFBE726000200E3
:103620000148804701480047B53500083136000899
:1036300000BF00BF00BF00BFFFF7CCFF00000000CD
:1036400001020304FEE7FEE7FEE7FEE7FEE7FEE712
:10365000FEE7FEE7FEE7B3400001900FFFFF00A08A
:10366000040049BF003B010000100000701F23E46C
:1036700019032124210110011007C70CC24003D1F6
:1036800001F10A1E52010F320408722011120507BF
:1036900060025D2A0008202110126B1052021112E4
:1036A0000A0712B9104303011C500700DD6D004DDD
:1036B0002C000804101003D00700008110530000F4
:1036C00020110113B52150916012C3109202604382
:1036D000ED21302123100380250000B095400460C7
:1036E000090000C0121013004B0412960412E104EA
:0A36F00042C249237406B50300002E
:040000050800363188
:00000001FF
