:020000040800F2
:10000000100B0020AD3300081D3200081F3200081D
:1000100000000000000000000000000000000000E0
:100020000000000000000000000000002132000875
:100030000000000000000000233200082532000804
:10004000E3140008431500081F18000823190008CE
:10005000271900082B190008F31A00082D32000890
:10006000000000006B2B00089F2C00088B33000859
:1000700097330008D133000800000000D333000894
:100080000000000000000000000000000000000070
:10009000D533000800000000D7330008D93300082A
:1000A00000000000DB33000800000000000000003A
:1000B00055320008DD330008000000000000000099
:1000C00038B5040014D0250078356868002803D1BD
:1000D0002870200000F0F4FD24206860206801688A
:1000E000012291430160200000F022FA012801D191
:1000F000012032BD606A002802D0200000F002FB1F
:1001000020684168084A0A404260206881682A22C3
:1001100091438160FFE72068016801220A43026081
:10012000200000F05DFB32BDFFB7FFFFF1B584B0EA
:100130001F0006465036F06A202861D10C000FD00F
:1001400068460280002A0BD004988068802149010B
:10015000884207D104980069002803D1E00701D53F
:1001600001204EE0002575632120F06200F0E2FDE1
:1001700001006846008830806846008870803A0038
:100180000498806880235B01984209D10498006933
:10019000002805D12500049F0192029104001AE075
:1001A0002000F8E721788162641C11E0019800903A
:1001B000029B00228021380000F070FB00281BD138
:1001C0003868002CEED12988C905C90D8162AD1CA3
:1001D0007088401E708070880028E7D13800029B2C
:1001E000019900910022402100F058FB002803D122
:1001F0002020F062002004E02020F062032000E0D4
:10020000022005B0F0BD70B58023C358202B28D143
:1002100000290BD0130009D0836880246401A34215
:1002200006D10369002B03D1CB0701D5012070BD96
:100230000023036603680C4CA3420FD05B681B02CB
:100240000CD5EFF31083012484F31088046825682B
:100250008026F6042E43266083F3108800F066FBA8
:1002600070BD022070BD000000480040F8B50400D9
:100270002068C16902688368A84F0F40250058357F
:100280000026002F0AD18F0600D5970600D480E003
:100290002969002901D020008847F1BDDF0702D479
:1002A0009F4F174075D0CF0706D5D70504D5012736
:1002B0000762E86A0743EF62880708D5D80706D5C2
:1002C000022027683862E86A04270743EF6248077C
:1002D00008D5D80706D5042027683862E86A0227BF
:1002E0000743EF62080709D5900601D4D80705D562
:1002F000082023681862EB6A1843E862080509D5EC
:10030000500107D58020000123681862E86A202385
:100310000343EB62E86A002831D0880606D59006D0
:1003200004D52969002901D020008847E86A4027C0
:1003300021688968394002D12821014024D0200059
:1003400000F062FB20688068074019D0EFF310804E
:10035000012181F3108821688A6840239A438A60CA
:1003600080F31088E86900280AD06E498163E86943
:1003700000F00BFD002802D0E869816B8847F1BDD1
:10038000200000F029FDF1BD200000F025FDEE6207
:10039000F1BDAF68012F00D093E0CF0600D5D7069E
:1003A00000D48EE01021016220202168896849066E
:1003B0004BD5E9690A68526892B2002AE8D05823FE
:1003C000E35A9A42E4DA6A8009680968014034D144
:1003D000EFF31081012282F3108822681368524FD4
:1003E0001F40176081F31088EFF31081012282F320
:1003F0001088226893680127BB43936081F31088BB
:10040000EFF31081012282F310882268936840275D
:10041000BB43936081F31088A862AE60EFF3108055
:10042000012181F3108821680A6810239A430A6029
:1004300080F31088E86900F083FC0220E86058200F
:10044000205A6988411A89B237E05821615A6A886E
:10045000891A6A461180698800295DD06946098831
:10046000002959D0EFF31081012282F3108822680D
:1004700013682E4F1F40176081F31088EFF310812F
:10048000012282F31088226893680127BB4393609E
:1004900081F31088A862AE602E61EFF31080012115
:1004A00081F3108821680A6810239A430A6080F358
:1004B00010880220E86068460188200000F08DFC6A
:1004C000F1BDCF0208D55B0206D580214903016248
:1004D000200000F083FCF1BD080607D5100605D505
:1004E0006969002918D020008847F1BD480613D556
:1004F000500611D5EFF31080012181F31088216897
:100500000A6840239A430A6080F3108820206862BA
:100510006E61200000F063FCF1BD00000F080000D8
:10052000200100047D0A0008FFFEFFFFDFFEFFFF41
:10053000F1B582B00024056828687049014002982E
:100540008068084302990969014302984069084399
:100550000299C969014329606868694901400298A4
:10056000C0680843686002988069984FBD4203D014
:1005700001000298006A0843A968954A0A4010439E
:10058000A860944B10269448854228D1D86C0C2141
:10059000014036D0042938D0082934D00C2936D06F
:1005A000102000908D488108F202BD424AD1009D82
:1005B000002D06D0022D2CD0042D2FD0082D30D0A8
:1005C00093E000F032FF00284ED002994A685100B3
:1005D0008918884202D31103814224D285E0BD42AA
:1005E000DED1D86CC021090101400AD0180D81422A
:1005F0000BD04000814206D0C0200001814206D0CD
:10060000CEE70020CDE70220CBE70420C9E7082091
:10061000C7E71A681640D8D00800D6E700F0CCFE2D
:10062000D1E71000D1E7070E06025008002180191B
:100630007941002300F020FF95494118954A9142E5
:1006400053D244E0944D029FFF699742009F26D108
:10065000002F06D0022F18D0042F1BD0082F1CD03B
:1006600043E000F0E2FE002840D0029949684000D3
:100670004A08801800F04AFF01001039A94234D21C
:1006800005400007400F284321E01A681640ECD0CF
:100690000800EAE700F090FEE5E71000E5E7002F2C
:1006A00006D0022F17D0042F1AD0082F1BD01CE021
:1006B00000F0BBFE002819D0029949684A0880184A
:1006C00000F024FF01001039A9420ED280B2029935
:1006D0000968C8600AE01A681640EDD00800EBE728
:1006E00000F06AFEE6E71000E6E701240020029928
:1006F00088660299C8662000FEBD0000F369FFEF1E
:10070000FFCFFFFF2421415CC90706D501684A6875
:10071000B14B1340826A1A434A602421415C890725
:1007200006D501684A68AD4B1340C26A1A434A6055
:100730002421415C490706D501684A68A84B13404B
:10074000026B1A434A602421415C090706D50168FF
:100750004A68A44B1340426B1A434A602421415C0F
:10076000C90606D501688A689F4B1340826B1A43FD
:100770008A602421415C890606D501688A689B4B02
:100780001340C26B1A438A602421415C490611D58B
:1007900001684A68994B1340026C1A434A60026C24
:1007A00080235B039A4205D14A68954B1340426C03
:1007B0001A434A602421415C090606D501684A684B
:1007C000904B1340806C18434860704700480040CD
:1007D000FFF4FFFF00100240004400400024F4003A
:1007E000FEB50600370078370024FC6000F0A2FA5E
:1007F0000190202530680068000717D59A480090BE
:10080000019B00222904300000F048F800280DD098
:10081000EFF31080012181F3108831680A6880238A
:100820009A430A6080F310887D6026E03068006893
:10083000400725D58C480090019B002269043000B8
:1008400000F02CF800281BD0EFF31080012181F379
:10085000108831680A68854B13400B6080F310885C
:10086000EFF31080012181F3108831688A68012339
:100870009A438A6080F31088BD603C700320FEBDFF
:100880007D60BD60346674663C700020FEBD000073
:1008900000FDFFFF00FD0F00F0FF0000FEB5802708
:1008A0003F0108240025060001916846027002936A
:1008B0003068C069019901400198814201D101204D
:1008C00000E000206946097888422DD1089800216F
:1008D000C9438842ECD000F02DFA0299401A0899D9
:1008E000814201D3002901D10320FEBD3068016897
:1008F0004907DDD5C16921400CD1C1693940D7D044
:100900000762300000F080F8300078302021C160AC
:100910000570E9E70462300000F076F830007830C6
:10092000C46005700120FEBD0020FEBD70B54165AC
:10093000010058310A804A8000230B618668FF2439
:1009400080225201964204D10569002D11D1484CF4
:100950000FE07F25002E03D10669002E06D108E0A6
:100960001404A64207D10469002C01D18D8003E054
:100970003F248C8000E08B80CB6222238B62EFF3DC
:100980001083012484F310880468A56801262E438F
:10099000A66083F31088836893420DD10269002A10
:1009A0000AD1344A0A61EFF31081012282F31088E0
:1009B0000068026820231BE02F4A0A6101690029B0
:1009C000F1D0EFF31081012282F3108800680268F1
:1009D00090235B00EFE70000FFFFFDFFFFFFFEFF3E
:1009E000FFFFFBFFFF7FFFFFFFEFFFFFFFDFFFFFCB
:1009F0001343036081F31088002070BDFFFFEFFFF9
:100A0000FFFF9FFFFFFFF7FF10B5EFF310810122FB
:100A100082F3108802681368144C1C40146081F340
:100A20001088EFF31081012282F310880268936826
:100A30000124A343936081F31088016E01290BD137
:100A4000EFF31081012282F31088026813681024EA
:100A5000A343136081F3108820218022815000215C
:100A60000166816610BD0000FFFFFF01DFFEFFFF92
:100A7000FF010000350B0008910A000880B5806A6C
:100A80000100523100220A810A8000F0A5F901BD5F
:100A900070B50100583102688B6A222B44D1526A2A
:100AA0008B881340426D1370426D521C42654A8818
:100AB000521E4A804A88002A3AD1EFF3108201235D
:100AC00083F3108803681C68434D25401D6082F342
:100AD0001088EFF31082012383F3108803689C6869
:100AE0000125AC439C6082F3108820228A62002298
:100AF0000A61CA600368394CA3420ED05B681B02CE
:100B00000BD5EFF31083012484F310880468256863
:100B1000334E2E40266083F310888B68012B00D162
:100B200060E000F017FD70BD9069082101439161FC
:100B300070BD000070B50100583102688B6A222B2D
:100B400044D1526A8B881340426D1380426D921CCF
:100B500042654A88521E4A804A88002A3AD1EFF3F9
:100B60001082012383F3108803681C681A4D254006
:100B70001D6082F31088EFF31082012383F3108845
:100B800003689C680125AC439C6082F31088202296
:100B90008A6200220A61CA600368104CA3420ED028
:100BA0005B681B020BD5EFF31083012484F31088DC
:100BB000046825680A4E2E40266083F310888B68EF
:100BC000012B00D10EE000F0C5FC70BD906908213A
:100BD0000143916170BD0000DFFEFFFF004800404F
:100BE000FFFFFFFB8A60EFF31081012282F3108880
:100BF000026813681024A343136081F3108801680E
:100C0000CB69234000D00C625821415A00F0E5F82E
:100C100070BDF1B401684218416848081318009883
:100C20008068C9071ED5494640181BE01778521C3A
:100C30000770401C761EF9D1002C13D01678521C78
:100C400089080D40032D01D11578521C2902711815
:100C50004D424119A41C05D00D78491C0570401C5B
:100C6000641EF9D19A420FD01178521C0325032635
:100C70000E4002D11678F61C521C0C090F2CD9D14B
:100C800014780F34521CD5E700980C30F2BC704732
:100C900080B52548254901609621890141600021E0
:100CA0008160C16001610C2242618161C1610162A8
:100CB0004162FFF705FA002801D000F0BFFC01BD3A
:100CC00010B586B004001422002101A800F0B8FC81
:100CD00020681649884224D11548C16880229202B2
:100CE0000A43C260012102680A43026000680140B1
:100CF000009100980C2001900220029000200390A7
:100D0000032004900420059001A9A020C00500F054
:100D1000A1FC002200211C2000F09FFD1C2000F0FF
:100D2000A0FD06B010BD00005005002000440040AA
:100D30002C10024001484068704700BF7800002036
:100D400030B50100243100222523C35C022B04D0DE
:100D50000423C3630A70012030BD03681C680E259C
:100D6000AC431C6003681C680125AC431C60012374
:100D70004424045D1C2525400124AC40056C6C60B6
:100D8000252403550A70002030BD70B500220024D0
:100D900001212523C35C022B03D00422C26301245A
:100DA00018E003681D680E26B5431D6003681D68C2
:100DB0008D431D604423C35C1C251D400123AB40B3
:100DC000056C6B602523C15424214254816B00299A
:100DD00000D08847200070BD70477047704770474B
:100DE000FEB5060060D0BB4CE0680C2101400091CC
:100DF000E06880214902084001903078C0070ED594
:100E00004F000098082804D00C2872D1019888421D
:100E10006FD12068074002D07068002844D0307835
:100E2000800733D5F0682021084204D0226811439E
:100E3000216020218843BB4F0921C943009A042A1D
:100E400005D00C2A01D1019A002A00D08CE022683A
:100E5000520701D5002827D0626817403269120274
:100E60003A436260226811400843206000F0A4FA0F
:100E7000AD49E2681206120F895CC840BC4908609F
:100E8000BC48006800F012FD010031D1A70D307898
:100E9000C00600D4B4E00098002800D091E020689B
:100EA000800503D5B069002800D1A4E16068B2498B
:100EB0000140306A0843606060680002000AF1691E
:100EC0000906014361600120316A490B491C8840D1
:100ED000C0039549E2681206120F895CC840A44914
:100EE0000860A448006800F0E1FC010000D187E040
:100EF000FEBD7068884201D1206809E0A021C902C6
:100F00008842206806D17900014321602068790871
:100F100001430AE0BA49014021602068790808408D
:100F2000029002982068B74901402160706800284B
:100F30000DD0FFF7FFFE05002068384000D06EE7B7
:100F4000FFF7F8FE401B6528F6D30320FEBDFFF730
:100F5000F1FE05002068384000D160E7FFF7EAFEA7
:100F6000401B6528F6D3F0E704220192002817D031
:100F70002268114008432060FFF7DCFE050020686E
:100F80000199014005D1FFF7D5FE401B0228F6D993
:100F9000DBE760680740306900023843606075E74E
:100FA0002068012188432060FFF7C4FE0500206807
:100FB00001990140F3D0FFF7BDFE401B0228F6D98E
:100FC000C3E7B0690028206830D038432060FFF7BD
:100FD000B1FE05002068800505D4FFF7ABFE401B7D
:100FE0000228F7D9B1E7606863490140306A0843D5
:100FF000606060680002000AF169090601436160EF
:101000003078000730D570690028206D1DD001218F
:1010100001432165FFF78EFE0500206D800723D474
:10102000FFF788FE401B0228F7D98EE7764901407A
:101030002160FFF77FFE050020688005E0D5FFF7FF
:1010400079FE401B0228F7D97FE7012188432065FC
:10105000FFF770FE0500206D800705D5FFF76AFEDB
:10106000401B0228F7D970E73078400765D500208B
:1010700001903805A16B014004D1A16B0843A06326
:101080000120019061480068384011D15F48006834
:1010900038435E490860FFF74DFE05005B48006875
:1010A000384005D1FFF746FE401B6528F6D34CE7D4
:1010B000B168B9420AD0564800290DD0A022D2000A
:1010C000914209D1206D210D01432165206D074317
:1010D000276508E000100240216D4B4A0A40226556
:1010E000216D08402065670DB06800280CD0FFF71F
:1010F00021FE0500206D384018D1FFF71BFE401B74
:10110000A9498842F6D320E7FFF714FE0500206DB9
:1011100038400BD0FFF70EFE401BA3498842F6D3A0
:1011200013E700BFFFE0FFFF4433000801980028E9
:1011300003D0A06B9D490140A163706A00285CD078
:1011400000990C2942D08027BF04994902282068C1
:101150002ED101402160FFF7EDFD050020683840E9
:101160000CD0FFF7E7FD401B0228F7D9EDE600BFE2
:101170008400002080000020FF1FFFFFE0688D49F1
:101180000140B06A0843F16A0143306B0843E060F4
:101190002068790801432160FFF7CCFD0500206835
:1011A00038402AD1FFF7C6FD401B0228F7D9CCE60C
:1011B00001402160FFF7BEFD0500206838401CD0CB
:1011C000FFF7B8FD401B0228F7D9BEE6012812D070
:1011D000E068802149020140B26A91420BD1F021BE
:1011E00089030140F26A914205D1C02109040140FE
:1011F000306B814201D00120FEBD0020FEBD00BF4A
:10120000FFFFFEFFFFFFFBFFFFFEFFFF0070004040
:10121000FFFBFFFFF1B582B000285CD00091624F68
:1012200086480068C107C90F0098814217D2834CD5
:10123000206801218843009901432160FFF77AFD6E
:10124000009D06002068C107C90FA94206D0FFF71C
:1012500071FD801BB842F5D30320FEBD00957A4C8A
:1012600002980078800706D5E068F021884302994B
:1012700089680143E1603E4602980078C0074DD579
:1012800002984068022819D12168890323D5E168B2
:10129000032291430843E060FFF74CFD07000298EA
:1012A00040680C25022818D1E0682840082835D06D
:1012B000FFF740FDC01BB042F6D3CDE7032802D1B3
:1012C0002168890103E00128216802D14907DED4A1
:1012D00001E08905DBD40120FEBD032809D1E068C7
:1012E00028400C281AD0FFF725FDC01BB042F6D3CA
:1012F000B2E7012809D1E068284004280ED0FFF7A2
:1013000019FDC01BB042F6D3A6E7E068284005D01F
:10131000FFF710FDC01BB0429ED2F6E70098474988
:101320000968CA07D20F904215D2444D286801219E
:101330008843009901432960FFF7FCFC07002868F7
:10134000C107C90F0098814205D0FFF7F3FCC01B0D
:10135000B042F4D380E702980078400706D5E068F1
:101360003A4901400298C0680843E060029800785A
:10137000000707D5E0683649014002980069C000BF
:101380000843E06000F018F83249E2681206120FD4
:10139000895CC840304908603048006800F086FA2F
:1013A000010000D10020FEBD89130000FFFFFFEF08
:1013B000FFFFFFFEFFFF02FF50B5234AD168102355
:1013C0000C200840042804D0082809D00C2809D093
:1013D00023E01068034001D0224850BD224850BD90
:1013E000224850BD22488C02240F005D09028C0F58
:1013F000641C0021D668F60301D51C4A03E012687C
:10140000134002D0174A002300E0174A00F070FA98
:101410002200002300F030F850BD50680121000484
:10142000400F401C8140C80350BD0B480068114963
:101430000B4A1268520503E0000000000020024041
:10144000520F895CC840704700100240FFF8FFFF50
:10145000FFC7FFFF44330008840000208000002005
:101460000C10024000093D000024F40000127A0034
:1014700054330008C8330008124224D0994228D9B6
:1014800070B500251B4202D00C00002109E00024A9
:10149000012649186441944200D3A41A7641F8D336
:1014A0003100012601E0764109D2001864416D4106
:1014B000A41A9D41F7D2A4185D41B619F5D33000A6
:1014C00022002B0070BD1B42D8D108B500F02AFACB
:1014D00008BD01D19042D3D202000B0000210020B0
:1014E0007047FEE7CA0F00D0494203105A400DD0A2
:1014F00004B500D3404200F009F8009AD20701D3A6
:101500004942124200D5404204BD0000094214D0B5
:1015100088420FD30122030C01D1000412040023DE
:1015200000185B418B4200D35B1A5241F8D319007B
:101530001000704701000020704708B500F0F4F972
:1015400008BDFEE780B5FFE701220E490E48FEF711
:101550005AFE01BD01000C4809680268914200D0A2
:10156000704710B507490A89322A05D20B784C68B2
:10157000A3540A89521C0A810122FEF744FE10BDC1
:1015800000000000280100205005002080B500F078
:10159000CDF900F009F800F0DDF900F051FAFFF79D
:1015A00077FB00F099FAFEE738B598B034220021B5
:1015B0000BA800F045F814220021684600F040F81E
:1015C0001822002105A800F03BF81A4801681A4AC1
:1015D0000A40C10C1143016002240B9401200E90BB
:1015E00010200F90149400251595169580041790DF
:1015F0000BA8FFF7F5FB002801D000F01FF80F2023
:1016000000900320019002950395049501216846FE
:10161000FFF700FE002801D072B6FEE7059407959B
:1016200005A800F067FA002801D072B6FEE719B0ED
:1016300030BD000000700040FFE7FFFF72B6FEE71C
:1016400010B50400080011000200200000F00EFB9D
:10165000200010BDF0B585B000220F23039331E0C8
:10166000062303E0664B9842FAD10523B3402B438F
:101670002360644B9D68019BDC4325404B68DB0283
:1016800002D52B00019D1D435E4B9D60DD6825400A
:101690004E68B60202D52E00019D3543DD605D68BF
:1016A00025404E68B60302D52E00019D35435D608E
:1016B0001D682C404D68ED0302D52500019C2C438C
:1016C0001C60521C0B681C00D44000D17FE0012438
:1016D000944023400193019B002BF2D0530003253B
:1016E0009D40EE4302964D68AE07B60F012E03D023
:1016F000AD07AD0F022D0ED18568029E2E40CD683C
:101700009D40354385604568A5434C68E606F60F65
:1017100096402E43466094006D466C7003244D68DD
:101720002540032D25D0C568029E2E408D689D4022
:101730003543C5604D682540022D1AD1D508AD004E
:1017400045192E6A04966E4677781C263E406F46F1
:101750003E70049EB446039F6E463678B740664698
:10176000BE43B4460F696E463678B7406646374387
:101770002F620568029E2E404D682C409C403443E9
:1017800004604B68C024A4021C409AD001231E4C64
:1017900024681C431C4D2C601C4C9508AD0064193A
:1017A00025686E4677780C263E40039FB740BD43C0
:1017B000A027FF05B84201D1002357E7144FB842D4
:1017C000FBD0144B984200D04CE702234EE705B003
:1017D000F0BD0069084000D00120C0B27047002A67
:1017E00001D081617047816270470B4A13680340E2
:1017F00000D1704780B5106000F010F801BD000006
:10180000001C005000040140341002400800014058
:101810000004005000080050140401407047FEE727
:1018200010B5C20018231340FF249C40E2438907EF
:10183000090E9940030004D418489B089B00C01867
:1018400006E0174B0007000F0838800880001818C2
:1018500003681A401143016010BD80B5FFF7E0FF37
:1018600001BD010005D40121C006C00E81400D4814
:101870000160704710B5401E80214904884201D3A1
:10188000012010BD084C606003210020C043FFF719
:10189000C7FF0020A0600721216010BD00E400E028
:1018A0001CED00E000E100E010E000E038B50500CC
:1018B0000D4CFA2080002178FFF728FE01000B482C
:1018C0000068FFF723FEFFF7D5FF00280AD1042D9B
:1018D00008D2002229000020C043FFF7BEFFA56008
:1018E000002032BD012032BD78000020840000209D
:1018F00030B4434351435D18010C0C00130C5C439E
:101900002D1980B2434392B251430024C918644157
:1019100024040B04090C09195043C018694130BC58
:101920007047FEE77047FEE77047FEE710B50024FA
:101930000748016840220A4302600320FFF7B6FF10
:10194000002801D0012401E000F096F9200010BD2C
:1019500000200240F8B586B0142200216846FFF747
:101960006FFE0421334802680A4302600268114096
:101970000591059901240168214301600168214016
:1019800005910599022601683143016000683040E5
:1019900005900598A503012229002748FFF71FFF9E
:1019A000E703002239002448FFF719FF0022102125
:1019B000A020C005FFF713FF002202211F48FFF7F8
:1019C0000EFF0095019402940025039569461A487C
:1019D000FFF740FE0097019402960395694616486A
:1019E000FFF738FE10200090019402960395694697
:1019F000A020C005FFF72EFE0096019402950395E6
:101A000069460E48FFF726FEC020C00000908420E3
:101A10008003019002946946A020C005FFF71AFEDA
:101A2000002200210720FFF718FF0720FFF719FF0A
:101A300007B0F0BD2C100240000800500004005018
:101A400080B522482249016082214900416000217D
:101A50008160C16001614161802292008261102237
:101A6000C2610162416281620721C16200F012F924
:101A7000002801D0FFF7E2FD01BD10B586B00400DB
:101A80001422002101A8FFF7DBFD206810498842DD
:101A90001AD110488168820C0A43826001210268D1
:101AA0000A4302600068014000910098E020019024
:101AB000022002900020039003210491059001A9C7
:101AC000A020C005FFF7C6FD06B010BDD805002058
:101AD000003001402C10024080B500F024FB00F0E3
:101AE000C3FF322001F012F800F02EFB00F0D3FF0C
:101AF000FAE7FEE7FEB5070000200190514C387868
:101B0000800679D580204005A16B014004D1A16BEE
:101B10000843A06301200190A50D4B4800682840B0
:101B200013D1494800900068284300990860FFF7E6
:101B300001F9060000980068284006D1FFF7FAF87E
:101B4000801B6528F6D30320FEBD21687868C0227B
:101B500092030A40C021890301408A420BD0C02170
:101B600089020140C0229202914204D12168890376
:101B700001D50120FEBDC026B602216D314020D026
:101B8000304081421DD0387880062ED5216D2F48F7
:101B90000840216DEA020A432265216D2C4A0A4061
:101BA0002265206505400CD0FFF7C4F80500206DC4
:101BB000800506D4FFF7BEF8401B26498842F6D3BD
:101BC000C1E73878800610D5786831000140B1420D
:101BD00006D12168204A0A403101014011432160A9
:101BE000206D79680E40064326650198002803D0D1
:101BF000A06B1A490140A1633878800705D5E06CD5
:101C00000C218843B9680143E1643878400705D561
:101C1000E06C13490140F8680843E0643878000735
:101C200005D5E06C0F49014038690843E064387815
:101C3000000605D5E06C0C49014078690843E06472
:101C40000020FEBD0010024000700040FFFFFCFFBE
:101C5000FFFFF7FF89130000FFFFCFFFFFFFFFEF3C
:101C6000FFF3FFFFFFCFFFFFFFFFF3FF094202D0AB
:101C7000491E4254FCD170470548016801220A43BD
:101C800002604168802252050A434260704700BFEB
:101C900034100240F8B5040001D10120F2BD8227C2
:101CA0007F000025606A002804D16068B84203D034
:101CB000E56101E025616561A56226005036707816
:101CC000002803D135702000FFF7D7FE0220707086
:101CD00021680A6840239A430A600121626817401C
:101CE000A368842212021A403A43E36887023B4009
:101CF000134322691040184362690A400243A069F5
:101D00004B0218401043237F38221A400243202000
:101D1000205C802318401043A26A4B031A40024300
:101D200020680260A069000C042210402422A25CFA
:101D300010231A40024320684260756071700020D1
:101D4000F2BDF2B586B00400170001200590002016
:101D5000694608705020205C012801D1022015E15D
:101D60001D00012650216654FEF7E4FF0490200078
:101D70005030417801290BD0626882235B009A427F
:101D800004D1A268002A01D1042901D00220F3E085
:101D90000699002903D0002F01D02A0002D16846FD
:101DA0000670EEE0220050325378042B01D0052358
:101DB00053700022230050335A60A763E587A5873C
:101DC0002163E586A58622646264216840220B684F
:101DD000134002D10B681A430A600021C9430391E2
:101DE000090C6A46518002210191002102910C9F49
:101DF000E168F2029142616850D1002901D0012DC1
:101E00000BD1206B00882168C860206B801C206388
:101E1000E08E694649884018E086059E049DE08E64
:101E2000002802D1E08F00284FD020688168019AF5
:101E30000A4010D0E18E00290DD0002E0BD0216B6E
:101E40000988C160206B801C2063E08E6946498848
:101E50004018E086029E20688168C9070ED5E18F90
:101E600000290BD0C068A16B0880A06B801CA06308
:101E7000E08F694649884018E0870126FEF75AFF3F
:101E8000401BB842CBD303988742C8D00320694691
:101E90000870012021005031487072E0002901D003
:101EA000012D0BD1206B007821680873206B401C3A
:101EB0002063E08E694649884018E086059E049DAF
:101EC000E08E002802D1E08F002835D0206881689C
:101ED000019A0A4010D0E18E00290DD0002E0BD0BF
:101EE000216B09780173206B401C2063E08E6946EA
:101EF00049884018E086029E216801208A680240D5
:101F00000ED0E28F002A0BD0C968A26B1170A16BB2
:101F1000491CA163E18F6A4652888918E18701262E
:101F2000FEF708FF401BB84203D303988742ADD1A8
:101F3000C6E7002FC4D1A9E739002A00200000F02D
:101F40008DF8002807D00120694608702020210064
:101F50005031486015E0A068002807D10298019030
:101F60002068C1680191806801900198200050307C
:101F70004168002903D001206946087001E0012171
:101F800041700020502160546846007807B0F0BDD1
:101F9000FEB582B006000A9C1D46FEF7CBFE281A4D
:101FA0000719FEF7C7FE2C4909684901090D794355
:101FB000009101240025019006E00098002800D13E
:101FC00000270098401E0090306880680299014008
:101FD0000298814201D1012000E000206946097B7E
:101FE000884235D004980021C9438842ECD0FEF7DE
:101FF000A1FE0199401AB84201D2002FDDD130680C
:102000004168E02291434160706882214900884222
:102010000BD1B068E103884202D04909884204D15B
:10202000306801684022914301606003B16A8142D7
:1020300008D131680A68224B13400B6031680A6886
:10204000104308603000503044700570032000E0F9
:10205000002005B0F0BD0000840000207CB5040025
:102060000D001600154800681821FFF74FFA1549B2
:10207000FFF74CFAFA2189004843009060688221FA
:10208000490088420ED100962B00002280212000BA
:10209000FFF77EFF00280FD0606D202101436165AE
:1020A000032076BD0098002806D00098401E0090BE
:1020B000206880680006F5D4002076BD84000020EA
:1020C000FFDFFFFF40420F0080B501008F4800F0A6
:1020D00039FD012002BD80B501008D4882888B4802
:1020E000002A09D0038E934205D1002101860221E6
:1020F00000F020FD02E0028600F024FD012002BD78
:1021000010B500F00DF900F040F8814CA2880021D4
:10211000206800F021FD0020A08001217B4800F014
:1021200009FD012010BD80B57A4802687A497B4BD1
:102130009A4203D142680A7080684860486800F09B
:102140004EFBFFF7FFF901BDF8B50027002400257D
:102150006E48290146187078012811D10124706851
:10216000002806D0FEF7E6FD7168401AB168884283
:1021700006D37770FEF7DEFD7060E8B2F16888473D
:102180006D1C032DE4DB2000F2BDF8B590B00020FB
:10219000694608725E4D2C685F4E2078317888421F
:1021A00018D11922002109A8FFF74AFA09A80390BB
:1021B000A9886018801E427812020078024368469F
:1021C0000280891E200000F0D1FC2C6867786946E7
:1021D0000988884200D094E0012069460872A078FE
:1021E0000502E07805431022002105A8FFF728FA30
:1021F0003A00803A032F2BD19A489B490B8883429F
:1022000023D04988814220D0082D5BDA2079000252
:10221000617908434400200454D00820401B400644
:10222000000EA1B288424DD3A2B2290005A800F049
:1022300021FA05A801902004400C00902B000322F5
:10224000317803A800F0ACFC44E0042383223DE095
:10225000062F39D12F4F280013D120790002617940
:10226000084300B2411EFF292CD2307072683178C9
:10227000380000F0CBFA05A801900120009000235F
:102280001AE0012D1ED1207900026179084300B2C5
:10229000082817D2800030188068706000F09FFA1C
:1022A000FFF750F972683178380000F0AFFA05A8EE
:1022B00001900120009001230622317803A800F04C
:1022C0009DFC07E0032300E00223D2B2317803A88B
:1022D00000F0D1FCA024E405012210212000FFF72A
:1022E0007EFA0A2000F012FCFA239B0003A88288E1
:1022F00003999548FDF71AFF002210212000FFF7EF
:102300006EFA6846007A11B0F0BD0000CC000020E3
:102310002C010020007C000800010020A5A5A5A537
:1023200070B500F024F90021C94388422AD0BA4D83
:10233000BA4C012803D12070962080017CE0012155
:10234000C943884202D100F095F870BDB44A00211B
:1023500002284BD1002390881268834205DA1E00C0
:102360005B1CDBB2965D202EF7D1D65C303E0A2E88
:1023700004D25B1CDBB2491C8342F6D15B1EDBB28C
:10238000CEB2002E68D0042E66DA401E834263D19E
:10239000C8B2012802D1D05C30381BE0022809D134
:1023A000D0180178801E40780A2242438818842180
:1023B00089000EE0C9B203294ED1D018811E0078E1
:1023C0004A780A235343C018097864224A43801884
:1023D000A749401A81B200293ED0FF293CDC207079
:1023E000072100BF59A000F01DF92FE0032838D1C4
:1023F000002390881268DEB2864205D21E005B1C64
:10240000F6B2965D202EF6D1DEB2965D303E082EF5
:1024100004D25B1C491CDEB28642F5D15B1EC9B2F8
:10242000012919D1DBB2401E834215D1D05C30386E
:102430000006800D201880686060072143A000F02E
:10244000F1F8606800F0CBF9FFF77CF8626821785A
:10245000280000F0DBF970BD052100BF03A000F0EB
:10246000E1F870BDFF7F0000FC0600204552524F8E
:1024700052000000D8B587B001206A465070694606
:1024800008700F22002101A8FFF7DAF863480478EA
:1024900040680690210000A8401C00F05BF80699F7
:1024A000684600F057F801A84921017046214170A3
:1024B0003D21817068464678F61C771E12E02000A8
:1024C0000A21FFF70FF8303101A8FAB28154200039
:1024D0000A21FFF707F8C4B268464078401E6946F3
:1024E00048707F1E684640780028E8D101AF2C2054
:1024F000F1B2785468460078401C30180590461EAA
:10250000069C11E020000A21FFF700F83031F0B2FC
:10251000395420000A21FEF7F9FF040068460078CC
:10252000401E69460870761E684600780028E9D18A
:102530000598C1B201A800F075F8072103A000F0CA
:1025400071F808B0D0BD000050050020535543433A
:102550004553530010B50400080002E02178491CDF
:1025600021700A21FEF7D2FF0028F7D110BD10B567
:102570002B4908680278412A4BD14278542A48D125
:1025800082782B2A45D1C278522A10D10279452A65
:102590003FD14279532A3CD18279452A39D1C07939
:1025A000542836D18888082833D1012010BD1B4C0F
:1025B000492A0ED10279442A1CD142793D2A28D1D8
:1025C0008A88062100F0DAF82178884221D1022099
:1025D00010BD422A1DD10279522A1AD142793D2AD0
:1025E00017D18A88062100F0C9F82178884210D1D5
:1025F000032010BD462A0CD142793D2A09D18A8890
:10260000052100F0BBF82178884202D10120C043A7
:1026100010BD002010BD0000007C0008000100205B
:102620002C010020F3B581B0A027FF050122102165
:102630003800FFF7D4F8874D87A6FA24A4002300BA
:10264000032231002800FDF771FD23006846027A5D
:1026500001992800FDF76AFD2300032231002800BC
:10266000FDF764FD002210213800FFF7B8F8F7BD30
:10267000D0140000F4B5002200230E00774C3E4D2C
:1026800007D16946098800291BD00270297841705A
:102690000223022E15DA6E463688B34213D2002189
:1026A0000E06B60DAE19B6686F68BE4203D0491C5F
:1026B000CEB2072EF4DDC2545B1CDDB241555B1C6B
:1026C00001E0022E0EDCD9B26D462D88A9420BD254
:1026D0002188090ADDB241555B1C2188DDB24155D4
:1026E0005B1C01E0032E0BDCD9B26D462D88A9429C
:1026F00008D2DDB242555B1CDDB242555B1C01E0E5
:10270000042E0CDCD9B26D462D88A94209D2DDB267
:1027100042555B1C0121DDB241555B1C01E0052ED9
:102720000EDCD9B26D462D88A9420BD26188090A08
:10273000DDB241555B1C6188DCB201555B1C01E0D8
:10274000062E0BDCD9B26C462488A14208D2DCB23A
:1027500002555B1CDCB202555B1C01E0072E09DC54
:10276000D9B26C462488A14204D2425403215B1C96
:10277000DBB2C154F1BD000000010020F8B5914268
:102780001CD20023002400930123354D8EB2865DB8
:10279000303E0A2E06D3491C8FB2BA42F6D28FB20F
:1027A000BA4208D38EB2865D303E0A2E02D2491C50
:1027B000641CF4E74919A2B2092A01DB0020F2BD2A
:1027C0000200002008E08EB2965D303E5E43801924
:1027D000491964190A2673432604F4D1F2BD80B561
:1027E00001001C481F4A0260416000218160C160F5
:1027F00001610C2242618161C16101624162FDF7A8
:102800005FFC002801D072B6FEE701BD7FB5040071
:102810000E00150000F05DFA0020019002940821DE
:1028200003910090694601A800F01EFB0E4A2100AA
:10283000022000F035FA3200211D022000F030FAAB
:102840002A0008342100022000F02AFA00F066FA7B
:102850007FBD0000500500200D0A0000FC0600208E
:10286000FFFF000000440040A5A5A5A538B5040061
:10287000994DFEF75FFA28642100280000F062F904
:10288000012032BD70B50400944D290008310D209F
:1028900000F020FC924EA868FF2180314843914906
:1028A000FEF734FEB0808C4DB0881A2809DB3078F2
:1028B000002801D000F0D8F80221280000F03AF9F1
:1028C00005E0210001203070280000F03BF90120D4
:1028D00070BDF1B582B084480068401C8249086030
:1028E0007E4C21001C310E2000F0F4FB7F480CC808
:1028F000E069C11780185941794E7D4A00239942F9
:1029000001D8904215D3320008320CCA00920193CC
:10291000784A0023FEF7ECFF000D0A031043090D6F
:10292000009A019B801859413200083203C20020EE
:1029300000216E4A03C200276F488178012935D1F2
:102940003169491C3161877021003031142000F059
:10295000C1FB206B800504D521001C310E2000F046
:10296000B9FB206B400504D521002031102000F078
:10297000B1FB01253020205C400609D5210034310F
:10298000152000F0A7FB606BC00301D53921655409
:102990003020205C000609D521003431152000F0DC
:1029A00099FB606B400301D53A2025544E4D2868B1
:1029B000652837D3210008310D2000F08BFB210062
:1029C0000B2000F087FBA068C0214900484345491F
:1029D000FEF79CFDB08020680021484A0023FEF7E6
:1029E00087FF474A0023FEF747FDF080E069002893
:1029F00002D03921675403E03920205C00280FD130
:102A000021001031072000F065FB2069C111090E7B
:102A1000081800123B49C968090A4843686100E088
:102A2000F7802F606846017A2B4800F08BF8012070
:102A3000FEBD70B50500344880210902FA24E40087
:102A4000254EB26BA24205D10122FEF7C8FE282016
:102A5000B06303E00022FEF7C2FEB4632900300039
:102A600000F070F8012070BD38B5274D8024E401D6
:102A7000012221002800FEF7B2FE012000F046F8F6
:102A8000002221002800FEF7AAFE052000F03EF8F3
:102A900000F03EFA31BDF8B50027002400250E48AD
:102AA000290146187078012811D101247068002886
:102AB00006D0FEF73FF97168401AB168884206D324
:102AC0007770FEF737F97060E8B2F16888476D1CDF
:102AD000042DE4DB2000F2BD880000203006002039
:102AE000F806002040420F00380100206801002055
:102AF00081841E00F7100000A00600201D160000B3
:102B000080969800E40600200008005038B50500C3
:102B1000FEF710F904000020C043854202D00448AB
:102B200000782D18FEF706F9001BA842FAD331BD34
:102B30007800002009014018012141700021416006
:102B40000120704710B50901441801206070FEF79C
:102B5000F1F86060012010BD0B00110000D170473A
:102B600080B51A00FFF782F801BDFEE730B502001C
:102B7000094800230CE0200007E0D45C60400825F1
:102B80004408C007F7D5054860406D1EF8D15B1CAE
:102B90008B42F2DB80B230BDFFFF000001A00000DD
:102BA000F8B51400069A079B002506683170016885
:102BB0004C7051000468A1700321040004E09F5D83
:102BC0008EB28755491C6D1C2068AEB25700BE42BC
:102BD000F5DB6A46118069460988FFF7C7FF22685E
:102BE0006B461B88D05469460988491C000A226834
:102BF0008BB2D054491CA1800120F2BDF8B504006D
:102C00001D00069800232668317021684A70290A41
:102C10002668B1702168CD700425062A02D0102ADA
:102C200010D018E00799012801D00020F2BD9AB217
:102C30004600B2420FDA8A5C2668AFB2F2556D1CCC
:102C40005B1CF4E7010A2268117122685071400090
:102C5000216888710725AEB231002068FFF786FF32
:102C6000226890556D1C000A2168AAB288546D1C18
:102C7000A5800120F2BD10B5040020680170206815
:102C800042702068837003212068FFF76FFF22687D
:102C9000D070000A216808710520A08010BDFEE7F1
:102CA000F2B517003E4C207C012801D10220F2BD74
:102CB000012020743B4D280000F03CF80026010064
:102CC00005D1009866610760280000F033F826748B
:102CD000F2BD0121344802680A400BD0EFF31082A4
:102CE00072B65B4B83605B4B836082F31088026833
:102CF00011400FD10222016811400DD0EFF3108175
:102D000072B6554BC360554BC36081F310880068A1
:102D1000024001D00120704700207047224801681E
:102D200002220A43026001680122FFE70A430260AF
:102D30000020704770B50500FDF7FCFF0600494C08
:102D40002068C0070CD50020C0438542F8D0002D74
:102D500004D0FDF7EFFF801B8542F1D2032070BD48
:102D600002202168014000D020602068C00511D4F5
:102D7000206880050ED4206840050BD4206800052B
:102D800008D42068800405D42068800302D4206819
:102D9000C00303D500F00AF8012070BD002070BD0B
:102DA000CC06002050C300000420024030B50022B1
:102DB0002B4880235B002B490C681C4004D04269DF
:102DC0000224144344611A004B0D0C681C4006D0C9
:102DD000446901252543456114001A0022430B0D67
:102DE0000C681C4006D04469082525434561140041
:102DF0001A002243CB0C0C681C4006D04469042501
:102E00002543456114001A0022439B000C681C40B6
:102E100006D0446910252543456114001A00224359
:102E20000B689B0306D5202344691C4344611400AE
:102E30002022224380235B020C681C4006D0446998
:102E400040252543456110001A0002430A6030BD49
:102E5000EFCDAB8905040302BFAE9D8C161514138C
:102E6000CC06002018200240FEB507000E00194CC9
:102E7000207C012801D10220FEBD012020741648CB
:102E80000090FFF757FF010020D10021C9433160B6
:102E90007968124D01960E0000E08036B968C901CC
:102EA0007A6889188E4211D2300000F01BF8009821
:102EB000FFF740FF29680822914329602968084AE2
:102EC0000A402A600100E8D001990E6000212174B7
:102ED000FEBD0000CC06002050C3000004200240CC
:102EE000FFFDFFFF10B50021074A5161074A136833
:102EF000540D1C431460136808241C4314607F2283
:102F00009043016010BD0000CC0600200420024068
:102F100080B500F003F800F0C5F801BD38B586B003
:102F200001A800BF92A10A68026004A891A10CC97F
:102F30000CC08A4C002202212000FEF750FC884D74
:102F400064200090042302AA01A92800FEF7F9FEDC
:102F5000012202212000FEF742FC00220221200073
:102F6000FEF73DFC64200090052302AA04A9280076
:102F7000FEF7E7FE012202212000FEF730FC07B039
:102F800030BDF1B588B008A804787648A200801852
:102F9000009002AE00783070009840787070002584
:102FA0000020B070704F04E0069A125CF31C1A54B3
:102FB000401C62001219BA1806926A4AA300D2187D
:102FC00092789042F0DB68468171002202216348CA
:102FD000FEF705FC6348A10040188078C01C6946D4
:102FE0008880642000906846838804AA02A95C480F
:102FF000FEF7A7FE012202215848FEF7F0FB6846C3
:103000008079002812D0002202215448FEF7E7FB05
:10301000642000906846838804AA02A95048FEF7FD
:1030200090FE012202214D48FEF7D9FB8020B070AE
:1030300000204C49A20089188C78FF22F31C01E083
:103040001A54401CA042FBDB444E002202213000F7
:10305000FEF7C5FB642000906846838804AA02A995
:103060003F48FEF76EFE012202213000FEF7B7FB5B
:1030700004A808A909780D2909D0A5420FDAC11CB6
:10308000495D069A525D914206D16D1CF5E7407983
:103090002921795C884202D00020C04300E0012051
:1030A00009B0F0BD38B500250024E4430021E8B2A2
:1030B00008E06D1CE8B228280ADA072801D00828A1
:1030C000F4D10121FFF75DFFA042F2D1200032BD13
:1030D000012032BD78B585B00C000021234A4300A1
:1030E0001818101801AA03781370437853708023BE
:1030F000937004E0FF23D51CCEB2AB55491C8678F3
:10310000CBB2B342F6D3154D002202212800FEF7C0
:1031100066FB64200090F31C9BB203AA01A910482F
:10312000FEF70FFE012202212800FEF758FB03A83C
:10313000022E02D0042E04D00EE0C17809020079DC
:1031400008E0C1780906027912040A4341790902AC
:10315000114380790843206006B070BD0004005020
:10316000D80500207C3100080000002078320008DB
:1031700000FE00AD0120000030000000000401004E
:10318000000701050008010A0009011008000115E7
:103190000100021A01020220010302250104022A91
:1031A00001070230010802350109023A011002400C
:1031B000020103450203034A0204035002050355BA
:1031C0000224035A02250360022C0365022F036ABE
:1031D00002800370028103750282037A02830380F6
:1031E000028403850286038A02880390028903957C
:1031F000028A039A028B03A0028C03A5028D03AA04
:10320000028E03B0028F03B5029003BA029203C08C
:10321000029503C5029603CA029703D0FEE7FEE7B4
:103220007047704780B500F01FF801BD10B58024CD
:10323000A4002100A020C005FEF7CBFA002802D18F
:103240000120074988702000FEF7CFFA6000FEF7E2
:10325000CCFA10BD80B50348FDF708F801BD0000A9
:10326000A006002050050020024841680278891815
:103270004160704778000020010A02010B02010C36
:1032800002010D02010E02031004031104031204D3
:10329000031304031404031504031A04031B040397
:1032A0001C04031E04031F0403200403210403223F
:1032B00004032304032E04030104000070B401235B
:1032C000002413E00168001D194202D04D466D1E16
:1032D00049190C60091D121F042AFAD20D00960725
:1032E00001D50C80AD1C1A4000D02C700268001D66
:1032F000002AE7D170BC704710B5074979441831EE
:10330000064C7C44163404E0081D0A688918884776
:103310000100A142F8D110BD080000002400000007
:103320009DFFFFFFD40500003801002000000000D1
:10333000E3D8FFFFAA0000002401000000000020E5
:1033400070470000000000000000000001020304BC
:1033500006070809030406080C10182030000000B6
:1033600000F00DF8002801D0FFF7C6FF00BF00BF36
:10337000002000BF00BFFEF709F900F002F80120AD
:10338000704780B500F002F801BDFEE707463846F9
:1033900000F002F8FBE7FEE780B500BF00BF024A7D
:1033A00011001820ABBEFBE7260002000148804751
:1033B0000148004741330008BD33000800BF00BF8B
:1033C00000BF00BFFFF7CCFF0000000001020304B4
:1033D000FEE7FEE7FEE7FEE7FEE7FEE7FEE7234047
:1033E0000001530400012006FFFF00A004003B0180
:1033F00003B0010010000123E4190321242101106E
:10340000011007C70CC24003D101F10A1E52010F7F
:10341000417A72201112050790036D2800080110EF
:10342000128510520230211012D3104303010C6098
:1034300006D0070000332A00085E520509C3C920E0
:1034400044C3D720444301213421231003802500A5
:1034500000B089400460090000C0121013004B0442
:1034600012960412E10442C249236C06A90300002B
:04000005080033BDFF
:00000001FF
