:020000040800F2
:10000000582F00201909010835F9000837F90008B0
:1000100039F900083BF900083DF90008000000002C
:100020000000000000000000000000003FF9000890
:1000300041F900080000000043F9000845F90008F4
:10004000F90C0108FD0C0108010D0108050D01085E
:10005000090D01080D0D010855F900085FF90008A8
:1000600069F9000873F900087DF90008110D01080D
:1000700087F90008150D0108190D01081D0D01086B
:1000800091F90008210D0108250D0108290D01082D
:100090002D0D0108310D0108350D01089BF90008EF
:1000A000390D01083D0D0108410D0108450D0108FC
:1000B000490D01084D0D0108510D0108550D0108AC
:1000C000590D01085D0D0108610D0108650D01085C
:1000D000690D0108C1F90008CBF90008D5F900083D
:1000E000DFF9000813FA00086D0D0108710D010811
:1000F000750D0108790D01087D0D0108810D0108BC
:10010000850D0108890D01088D0D0108910D01086B
:10011000950D0108990D01089D0D0108A10D01081B
:100120001DFA0008A50D010827FA0008A90D01080D
:10013000AD0D01080000000000000000B10D010835
:10014000B50D0108B90D0108BD0D0108C10D01086B
:10015000C50D0108C90D0108CD0D0108D10D01081B
:10016000D50D0108D90D0108DD0D0108E10D0108CB
:10017000E50D0108E90D0108000000000000000085
:10018000ED0D0108F10D0108F8B504000D00002681
:100190000027DFF89C0B0178022901D101210F0013
:1001A0003900C9B211FA85F11431A28891422DDBD0
:1001B00001230422DFF87C1B007801F035FF1422B4
:1001C0000021DFF8740B02F0C8F9DFF8701B002083
:1001D00008812E00320092B2A3883800C0B21B1AE8
:1001E0009A420EDA088914280BD22068320092B2A3
:1001F000805C4A680B89D0540889401C0881761CB1
:10020000E8E702F0BEFA01F0D7FE06E000230E2276
:10021000DFF8E41C007801F007FFF1BD38B50400F9
:100220000D00DFF8180B002302894168DFF8000B8E
:10023000007801F0F9FE31BD704770477047704794
:10024000704770472DE9F84304000F000025002691
:10025000A088390089B2491D884209DA00230D229D
:10026000DFF8DC1ADFF8C80A007801F0DDFE4AE0AA
:100270002068390089B2405CB0F130017F1C0A224D
:1002800020683B009BB2C05C02FB0101B1F1300869
:100290007F1C7F1C2068390089B2405C30387F1C8D
:1002A00010FB02F021683A0092B2895C4018B0F16C
:1002B00030097F1C4046C0B200281BD04046C0B267
:1002C000332817DA484680B23D2813DADFF82C0CC1
:1002D00080F80080A0F8029002F0BFFA02F046FC1D
:1002E00001230422DFF84C1ADFF8440A007801F0F9
:1002F0009BFE08E000230722DFF8041CDFF8300A29
:10030000007801F091FEBDE8F183FEB504000D0018
:1003100000260C2100226F46380002F08FFC684650
:1003200066213200D2B28154761C72213200D2B2E0
:100330008154761C65213200D2B28154761C712121
:100340003200D2B28154761C3D213200D2B28154A7
:10035000761CDFF8A81B0A780A2392FBF3F23032EE
:100360003300DBB2C254761C0A780A2392FBF3F7FF
:1003700003FB172230323300DBB2C254761C7822E2
:100380003300DBB2C254761C4A880A2392FBF3F294
:100390000A2392FBF3F703FB172230323300DBB260
:1003A000C254761C49880A2291FBF2F302FB131116
:1003B00030313200D2B28154761C00233200D2B2E6
:1003C00092B26946DFF86809007801F02DFEF7BDAA
:1003D0002DE9F04104000D002E0000275FF0000819
:1003E0003000A18880B288420DD22068310089B2E5
:1003F000405C302805DB2068310089B2405C3A2837
:1004000001DB761CECE73000A18880B2884219D26B
:100410002068310089B2405C80464046C0B2302836
:1004200008DB4046C0B23A2804DA3000A18880B226
:10043000884200D306E00A20474357FA88F7303F46
:10044000761CE0E7DFF8B40A476002F006FA02F033
:100450008DFB00230522DFF8641BDFF8D408007849
:1004600001F0E2FDBDE8F08138B588B004000D0070
:1004700003A8DFF84C1B142202F040FCDFF8100C3C
:10048000D0E90023CDE9012303A8019000200090CA
:10049000DFF8680A4268002301A801F079FE002312
:1004A000BDF808200199DFF88808007801F0BCFD4C
:1004B00009B030BD704770B504000D000021206800
:1004C0002A0092B2805CB0F130026D1C0A232068D1
:1004D0002E00B6B2805D03FB0202B2F130066D1C45
:1004E0003000C0B233280EDADFF8100A067002F0CE
:1004F000B4F901230422DFF83C18DFF8340800784F
:1005000001F092FD08E000230622DFF8881BDFF8E7
:100510002008007801F088FD70BD704738B50400F0
:100520000D00DFF80C08017801290BD1012304220A
:10053000DFF80018007801F077FD0621DFF8DC0C09
:1005400002F01FFC31BD2DE9F84304000D00A9465F
:10055000002600275FF000084846A18880B2884244
:100560000ED22068494689B2405C302805DB2068FD
:10057000494689B2405C3A2802DB19F10109EBE7F0
:100580002068494689B2405C2C281AD02068494628
:1005900089B2405C80464046C0B2302808DB404605
:1005A000C0B23A2804DA4846A18880B2884200D313
:1005B00007E00A20464356FA88F6303E19F1010951
:1005C000DEE74846A18880B288420ED220684946BC
:1005D00089B2405C302805DB2068494689B2405C1E
:1005E0003A2802DB19F10109EBE72068494689B294
:1005F000405C2C281AD02068494689B2405C80466D
:100600004046C0B2302808DB4046C0B23A2804DA7F
:100610004846A18880B2884200D307E00A204743B9
:1006200057FA88F7303F19F10109DEE7B6F5803F48
:100630000BD2B7F5803F08D20023022295A1DFF844
:10064000F006007801F0F0FC08E000230E22DFF84D
:10065000D41BDFF8DC06007801F0E6FCBDE8F1838E
:100660007047704770477047704770B40D000023A3
:1006700000242A00868892B2B2420DD202682E006F
:10068000B6B2925D302A05DB02682E00B6B2925DEA
:100690003A2A01DB6D1CECE702682E00B6B2925DCF
:1006A0002C2A19D002682E00B6B2925D14002200E6
:1006B000D2B2302A08DB2200D2B23A2A04DA2A0067
:1006C000868892B2B24200D306E00A22534353FA1C
:1006D00084F3303B6D1CDFE770BC7047704770B52A
:1006E00088B004000D000C2100226E46300002F09C
:1006F000A5FA1421002203AE300002F09FFA206810
:10070000290089B200EB0106B0783A2802D170794D
:100710003A2809D000230522DFF8EC1BDFF8100689
:10072000007801F081FC41E00A213278707801FB09
:100730000202B2F110008DF80000F278307901FB6E
:100740000202B2F110008DF80100B279F07901FBDC
:100750000201B1F110008DF80200684602F0A3FB1F
:10076000012809D000230522DFF89C1BDFF8C00513
:10077000007801F059FC19E09DF802008DF80E0098
:100780009DF801008DF80D009DF800008DF80C001B
:10079000002203A9DFF8D80B02F00AFC0023022292
:1007A0003CA1DFF88C05007801F03EFC08B070BD7C
:1007B0007FB504000D000C21002201AE300002F0D4
:1007C0003DFA042100226E46300002F037FA20681C
:1007D000290089B200EB010670782D2805D1307907
:1007E0002D2802D1F0792D2809D000230522DFF829
:1007F000181BDFF83C05007801F016FC49E0307862
:1008000031388DF807000A21B278F07801FB020236
:10081000B2F110008DF808007279B07901FB020284
:10082000B2F110008DF80900327A707A01FB0201F2
:10083000B1F110008DF80A0001A802F034FB012884
:1008400009D000230522DFF8C01ADFF8E40400789D
:1008500001F0EAFB1DE09DF807008DF800009DF80F
:1008600008008DF802009DF809008DF801009DF840
:100870000A008DF8030000226946DFF8F40A02F04E
:100880003EFC0023022203A1DFF8A404007801F05B
:10089000CBFB7FBD4F4B00007FB504000D000C214A
:1008A00000226E46300002F0C9F9206840782D28F9
:1008B00013D1206800792D280FD12068C0792D2808
:1008C0000BD12068807A2C2807D12068407B3A28F9
:1008D00003D12068007C3A2809D000230522DFF8E4
:1008E000281ADFF84C04007801F09EFB72E02068C3
:1008F000007831388DF803000A212068827820685A
:10090000C07801FB0202B2F110008DF804002068EB
:1009100042792068807901FB0202B2F110008DF863
:1009200005002068027A2068407A01FB0202B2F1D9
:1009300010008DF806002068C27A2068007B01FB59
:100940000202B2F110008DF800002068827B20685E
:10095000C07B01FB0202B2F110008DF8010020689B
:10096000427C2068807C01FB0201B1F110008DF80F
:100970000200684602F097FA012808D000230522F9
:10098000DFF88419EA48007801F04EFB22E0DFF836
:10099000D00A9DF80310C1709DF8041001719DF8F4
:1009A000051041719DF8061081719DF800100170CD
:1009B0009DF8011041709DF8021081700321DFF84D
:1009C0005C0802F0DEF900230222AFA1D8480078CB
:1009D00001F02AFB7FBDF8B58AB004000D000026A7
:1009E000282100226F46380002F028F96846742159
:1009F0003200D2B28154761C69213200D2B28154C5
:100A0000761C6D213200D2B28154761C65213200F1
:100A1000D2B28154761C3D213200D2B28154761C70
:100A2000DFF8A41B0A780A2392FBF3F2303233007A
:100A3000DBB2C254761C0A780A2392FBF3F703FB5D
:100A4000172230323300DBB2C254761C3A22330014
:100A5000DBB2C254761C4A780A2392FBF3F230329E
:100A60003300DBB2C254761C4A780A2392FBF3F7B8
:100A700003FB172230323300DBB2C254761C3A2219
:100A80003300DBB2C254761C8A780A2392FBF3F25D
:100A900030323300DBB2C254761C8A780A2392FBD0
:100AA000F3F703FB172230323300DBB2C254761C5B
:100AB0003B223300DBB2C254761C0D223300DBB282
:100AC000C254761C64223300DBB2C254761C61220D
:100AD0003300DBB2C254761C74223300DBB2C25442
:100AE000761C65223300DBB2C254761C3D223300F3
:100AF000DBB2C254761CCA7831323300DBB2C25446
:100B0000761C2D223300DBB2C254761C0A790A23EC
:100B100092FBF3F230323300DBB2C254761C0A7916
:100B20000A2392FBF3F703FB172230323300DBB2C8
:100B3000C254761C2D223300DBB2C254761C4A7993
:100B40000A2392FBF3F230323300DBB2C254761C3C
:100B50004A790A2392FBF3F703FB17223032330062
:100B6000DBB2C254761C2D223300DBB2C254761C99
:100B70008A790A2392FBF3F230323300DBB2C2549B
:100B8000761C89790A2291FBF2F302FB13113031B2
:100B90003200D2B28154761C00233200D2B292B21B
:100BA00069466348007801F03FFA0BB0F0BD70472A
:100BB00038B504000D000023022233A15C48007800
:100BC00001F032FA01F0F8F931BD38B504000D003A
:100BD0000221DFF8E80A02F0E3F800230722DFF839
:100BE000E01A5348007801F01FFA31BD38B504000F
:100BF0000D00DFF8D00A0023828801684C48007895
:100C000001F012FA31BD7047704778B58BB004001F
:100C10000D001E21002203AE300002F00FF8DFF8B5
:100C2000540BD0E90023CDE9012303A80190DFF89C
:100C3000486B00200090B28E002301A801F0A8FAB2
:100C40002F200199BDF808208854BDF80800401CE9
:100C5000ADF8080000200090F28D002301A801F0FB
:100C600097FA0023BDF8082001993148007801F077
:100C7000DBF90CB070BD38B504000D00DFF8A41C22
:100C8000022001F0DCFC31BD4F4B00007047704783
:100C900038B504000D00290089B2200000F032F9B7
:100CA000010089B2022002F0FBFE31BD38B504001C
:100CB0000D00290089B2200000F024F9010089B25A
:100CC000002002F0EDFE31BD38B504000D00290012
:100CD00089B2200000F016F9010089B2012002F06B
:100CE000DFFE31BD38B504000D00290089B22000B7
:100CF00000F008F9010089B2032002F0D1FE31BDF5
:100D000038B504000D0000230C22DFF8E01A084873
:100D1000007801F089F931BD38B504000D000023D9
:100D20000C22DFF8C81A0248007801F07DF931BDC5
:100D3000472B0020480C0108C0080020D4080020E0
:100D4000180801087047704770472DE9FC470400F8
:100D50000D005FF0FF360022DFF8243BD3E90001ED
:100D6000CDE900015FF000094846A18880B28842C1
:100D700024D22068494689B2405C3D2805D02068CD
:100D8000494689B2405C3F2800D117E020684946B7
:100D900089B2405C41280EDB2068494689B2405C3C
:100DA0005B2808DA2068494689B2405C2030216817
:100DB0004A4692B2885419F10109D5E70027380054
:100DC000C0B25A2880F29480DFF8F88A21003800F7
:100DD000C0B200014044083002F0ECFE0600002ED4
:100DE00000F184803800C0B200014044406800280F
:100DF0007CD0DFF838AB1AF1300001F026FB002080
:100E0000010089B2A288921B914224DA2168314400
:100E1000020092B2895C3F290BD021683144020064
:100E200092B2895C3D2904D0BAF83410B1F5807FC4
:100E300000DB10E021683144020092B2895CDAF8EC
:100E40003020BAF83430D154BAF83410491CAAF81A
:100E50003410401CD4E73900C9B2090141448989E2
:100E600016FA81F6B1464846A18880B2884226D259
:100E70002068494689B2405C0D280CD1484680B2B2
:100E8000A188491E884206DA2068494689B208448A
:100E900040780A2813D0BDF8040080280CD22068BE
:100EA000494689B2405C0099BDF804208854BDF8D9
:100EB0000400401CADF8040019F10109D3E7DFF884
:100EC000580C05702800C0B2401E012802D9801EAF
:100ED00009D009E0002168463A00D2B2120142442A
:100EE0005268904700E0FFE7012002E07F1C66E7C0
:100EF0000020BDE8F687000008080108200900204E
:100F0000500C010870B402004FF6FF70002300245B
:100F10000D009688ADB2B5422ED20D00691C166840
:100F2000ADB2755D282DF3D10025280000252C00D9
:100F300015680E00B6B2AD5D2B00491C1D00EDB268
:100F4000302D19DB1D00EDB23A2D15DA0A2510FB04
:100F500005F050FA83F03038641C15680E00B6B204
:100F6000AD5D2B00491C2500EDB2082D04DA9588F3
:100F70000E00B6B2B542E1D280B270BC7047704785
:100F80007047704770477047704738B504000D00D0
:100F900000230422DFF8781ADFF87C0B007801F0D8
:100FA00043F804F0ADF831BD38B504000D00092157
:100FB000DFF8DC0C01F0E5FE31BD0000580C010843
:100FC00024040108F8B504000D000026206800780C
:100FD000302852DB206800783A284EDA00270020BB
:100FE0000100C9B2A28889B291420FD221680200E1
:100FF000D2B2895C302905DB21680200D2B2895C5B
:101000003A2900DB02E07F1C401CE9E73900C9B245
:10101000206801F02CFA0600B6F5FA7F23D3DFF83A
:10102000FC0A8178022903D1300003F005FE2DE08F
:101030008078002809D002280ED00ED20D22DFF8C9
:10104000E01A012001F095FA07E01022DFF8D41A27
:10105000012001F08EFA00E0FFE7022270A10120DA
:1010600001F087FA12E000230622DFF8BC1ADFF84D
:10107000A80A007800F0D8FF08E000230722DFF874
:101080003C1BDFF8940A007800F0CEFFF1BD0000B1
:10109000C00C0108600C0108F8B504000D00002622
:1010A0002068007830284FDB206800783A284BDA37
:1010B000002700200100C9B2A28889B291420FD254
:1010C00021680200D2B2895C302905DB2168020068
:1010D000D2B2895C3A2900DB02E07F1C401CE9E7C0
:1010E0003900C9B2206801F0C2F90600B6F5FA7FEE
:1010F00020D3DFF8281A8878012802D088780028C1
:1011000003D1300003F05AFD27E08878002803D08F
:10111000022802D008D207E006E00B22DFF8381BD5
:10112000012001F026FAFFE702223DA1012001F093
:1011300020FA12E000230622DFF8EC19DFF8D809C4
:10114000007800F071FF08E000230722DFF86C1A36
:10115000DFF8C409007800F067FFF1BDF8B50400BE
:101160000D0000262068007830284DDB20680078CC
:101170003A2849DA002700200100C9B2A28889B2C2
:1011800091420FD221680200D2B2895C302905DB7E
:1011900021680200D2B2895C3A2900DB02E07F1CA0
:1011A000401CE9E73900C9B2206801F060F9060087
:1011B000300000B201281DDB300000B20B2819DA24
:1011C0003000C0B204F06EFF012809D100230422D0
:1011D000DFF83C18DFF84009007800F025FF1CE03C
:1011E00000231722DFF80C1BDFF82C09007800F031
:1011F0001BFF12E000230622DFF82C19DFF8180984
:10120000007800F011FF08E000230722DFF8AC1996
:10121000DFF80409007800F007FFF1BD08000020A6
:101220000D0A0000280801082DE9F04104000D0016
:10123000002600272068007830285ADB20680078D4
:101240003A2856DA5FF0000800200100C9B2A288EF
:1012500089B2914217D221680200D2B2895C30294A
:1012600005DB21680200D2B2895C3A2907DB2168DC
:101270000200D2B21144497830390F0003E018F16E
:101280000108401CE1E74146C9B2206801F0EFF8CF
:101290000600300000B20B2821DA380000B20B281B
:1012A0001DDADFF8041B087800280ED1300000B2E8
:1012B0000F5404F01BFF00230422DFF85417DFF85B
:1012C000340C007800F0B0FE1CE000231722DFF899
:1012D000241ADFF8200C007800F0A6FE12E00023AC
:1012E0000622DFF84418DFF80C0C007800F09CFEB2
:1012F00008E000230722DFF8C418DFF8F80B0078B5
:1013000000F092FEBDE8F081680C010878B58FB05E
:1013100004000D003221002202AE300001F08EFCEC
:101320000020ADF804000B2000900023DFF8FC2A19
:1013300001A902A805F008FD0023DFF8E0074278C4
:1013400001A902A805F041FC072000900023DFF866
:10135000E02A01A902A805F0F7FC0023BDF804204B
:1013600002A9DFF8900B007800F05EFE10B070BDAF
:1013700024290020F8B504000D000026206800781C
:1013800030282FDB206800783A282BDA002700204D
:101390000100C9B2A28889B291420FD2216802002D
:1013A000D2B2895C302905DB21680200D2B2895CA7
:1013B0003A2900DB02E07F1C401CE9E73900C9B292
:1013C000206801F054F806003000C0B203F03EFF80
:1013D00000230422DFF83816DFF8180B007800F03D
:1013E00023FE08E000230722DFF8D017DFF8040B04
:1013F000007800F019FEF1BD78B58FB004000D0043
:101400003221002202AE300001F018FC0020ADF8BD
:1014100004000B2000900023DFF8E42A01A902A8B1
:1014200005F092FCFF23DFF8DC0AB0F9002001A9E7
:1014300002A805F0CAFB042000900023DFF8C82AA8
:1014400001A902A805F080FC0023BDF8042002A930
:10145000DFF8A00A007800F0E7FD10B070BD0000D2
:10146000AC2A00202DE9F84304000D000026206876
:1014700000782D2836D100275FF000083020216841
:10148000087000200100C9B2A28889B2914210D22E
:1014900021680200D2B2895C302905DB2168020094
:1014A000D2B2895C3A2900DB03E018F10108401C44
:1014B000E8E74146C9B2206800F0D9FF81464846B6
:1014C00080B240420600FF21300000B205F0CEFDA0
:1014D00000230422DFF83815DFF8180A007800F03E
:1014E000A3FD3DE020680078302830DB20680078DC
:1014F0003A282CDA002700200100C9B2A28889B25C
:1015000091420FD221680200D2B2895C302905DBFA
:1015100021680200D2B2895C3A2900DB02E07F1C1C
:10152000401CE9E73900C9B2206800F0A0FF0600BE
:10153000FF21300000B205F099FD00230422DFF8FE
:10154000D014DFF8B009007800F06EFD08E0002349
:101550000722DFF86816DFF89C09007800F064FDC8
:10156000BDE8F18378B58FB004000D003221002270
:1015700002AE300001F062FB0020ADF804000C2048
:1015800000900023DFF8842901A902A805F0DCFB04
:10159000FF23DFF87009827801A902A805F015FB86
:1015A000042000900023DFF8602901A902A805F0BB
:1015B000CBFB0023BDF8042002A9DFF8380900782E
:1015C00000F032FD10B070BDB82A0020F8B504005C
:1015D0000D00002620680078302833DB2068007872
:1015E0003A282FDA002700200100C9B2A28889B268
:1015F00091420FD221680200D2B2895C302905DB0A
:1016000021680200D2B2895C3A2900DB02E07F1C2B
:10161000401CE9E73900C9B2206800F028FF060045
:10162000DFF8E0088670FF21B0F9000005F01EFD2C
:1016300000230422DFF8D813DFF8B808007800F0A0
:10164000F3FC08E000230722DFF87015DFF8A40898
:10165000007800F0E9FCF1BD78B58FB004000D0012
:101660003221002202AE300001F0E8FA0020ADF88D
:1016700004000A2000900023DFF8942801A902A8A2
:1016800005F062FB0023DFF88C08027801A902A8AC
:1016900005F09BFA022000900023A3A201A902A852
:1016A00005F052FB0023BDF8042002A9DFF844082E
:1016B000007800F0B9FC10B070BD000024030020D9
:1016C000700C010878000020F8B504000D00002619
:1016D00020680078302842DB206800783A283EDA1B
:1016E000002700200100C9B2A28889B291420FD21E
:1016F00021680200D2B2895C302905DB2168020032
:10170000D2B2895C3A2900DB02E07F1C401CE9E789
:101710003900C9B2206800F0AAFE0600300000B20D
:10172000012812DB300000B2B0F5807F0DDADFF85F
:10173000E407067005F0D7FE00230422B449DFF861
:10174000B407007800F070FC12E000230722DFF8F5
:101750006C14DFF8A007007800F066FC08E00023B6
:101760000722DFF85814DFF88C07007800F05CFCE3
:10177000F1BD0000C80C0108EC02002038B50400DF
:101780000D002068290089B2405C302805D020680F
:10179000290089B2405C312807D1002304229C49EA
:1017A000DFF85007007800F03FFC2068290089B27C
:1017B000405C3038002808D100200090012301222D
:1017C0000021002006F0D9F80EE02068290089B237
:1017D000405C3038012807D100200090012301220D
:1017E0000121002006F0C9F831BD000038080108C9
:1017F00038B504000D002068290089B2405C30280B
:1018000005D02068290089B2405C312806D1002328
:1018100004227F49C048007800F006FC20682900B7
:1018200089B2405C3038002808D1002000900123A4
:1018300001220021022006F0A0F820E02068290003
:1018400089B2405C3038012819D1DFF8C806807CA5
:10185000002808D00020009001230122012102204D
:1018600006F08BF80BE00120DFF8AC168871012040
:101870000090012301220021022006F07EF831BDF4
:10188000D00C01087047704770477047704738B5F3
:1018900004000D00A148C078012809D100231122BD
:1018A000DFF87816DFF84C06007800F0BDFB08E0A2
:1018B00000230E22DFF86816DFF83806007800F003
:1018C000B3FB31BD98F1000838B504000D00206865
:1018D000007830281DDB206800783A2819DA206863
:1018E00000783038C0B203F01DFD012808D1002374
:1018F00004224749DFF8FC05007800F095FB10E072
:1019000000230722AD49DFF8EC05007800F08CFBDE
:1019100007E000230722A949DFF8D805007800F086
:1019200083FB31BDA4FF00080D0A0000D40800208D
:1019300038B504000D0005F089FC31BD2DE9F041FA
:1019400004000D0000260027206800782D2801D112
:101950000120070020683900C9B2405C30284DDB07
:1019600020683900C9B2405C3A2847DA5FF00008C5
:1019700038000100C9B2A28889B2914210D2216810
:101980000200D2B2895C302905DB21680200D2B2A4
:10199000895C3A2900DB03E018F10108401CE8E704
:1019A0004146C9B220683A00D2B2104400F05FFD4F
:1019B00006003800C0B2012801D136B276423000AC
:1019C00000B27FF4F97188420CDB300000B2B0F550
:1019D000FA7F07DADFF84C050088301A00B205F00C
:1019E00095FB02E0002005F091FB0023042208494A
:1019F000DFF80005007800F017FB07E0002307225E
:101A00006E49DFF8F004007800F00EFBBDE8F081CD
:101A1000780C010838B504000D0005F096FD31BDC5
:101A2000F0B59BB004000D006421002202AE30002E
:101A300001F004F90020ADF804000C200090002310
:101A4000DFF8E42401A902A805F07EF9DFF8DC64E0
:101A50003078002809D1052000900023DFF8D02439
:101A600001A902A805F070F908E004200090002305
:101A7000DFF8C02401A902A805F066F9092000904A
:101A80000023DFF8B42401A902A805F05DF90023C2
:101A9000727801A902A805F098F894A70120009097
:101AA00000233A0001A902A805F04EF90023B278FC
:101AB00001A902A805F089F80A2000900023DFF8A8
:101AC0007C2401A902A805F03FF90023F27801A9BE
:101AD00002A805F07AF80120009000233A0001A93D
:101AE00002A805F031F90023327901A902A805F016
:101AF0006CF80320009000237DA201A902A805F044
:101B000023F90023BDF8042002A9DFF8E8030078D8
:101B100000F08AFA1BB0F0BD472B0020840400209F
:101B20004808010838040108800C01082DE9FC4729
:101B300004000D000020ADF8040001AAA18820686F
:101B400005F0B8F8060001AAA188206805F0B2F8EF
:101B5000070001AAA188206805F0ACF8804601AA18
:101B6000A188206805F0A6F8814601AAA18820680E
:101B700005F0A0F882465046C0B200904B46DBB25A
:101B80004246D2B23900C9B23000C0B203F01CFCE8
:101B9000012809D100230422DFF8A413DFF854033D
:101BA000007800F041FA07E0002307220349DFF83C
:101BB0004403007800F038FABDE8F387880C010888
:101BC00078B59BB004000D006421002202AE300005
:101BD00001F034F80020ADF804000C200090002340
:101BE000DFF8602301A902A805F0AEF8DFF858037A
:101BF000807800280CD0022813D01BD20D20009032
:101C00000023DFF8482301A902A805F09DF811E0A0
:101C1000102000900023CE4A01A902A805F094F8F4
:101C200008E00B20009000230B4A01A902A805F050
:101C30008BF8FFE70220009000238DA201A902A8E3
:101C400005F082F80023BDF8042002A9A948007815
:101C500000F0EAF91CB070BD180B010838B504009B
:101C60000D0051480078002809D104F013FD00232D
:101C70000422B3499F48007800F0D6F906E000231B
:101C80000F22B4499B48007800F0CEF931BD000026
:101C9000A4030020FEB504000D00434E707B012814
:101CA00018D10A2100226F46380000F0C7FF002734
:101CB0000822A949022000F05CFCF189684604F082
:101CC00053FE06003200D2B292B26946022000F002
:101CD00050FC04E01422A149022000F04AFC022238
:101CE00063A1022000F045FCF7BD00003A000000AF
:101CF0002E0D0A0088020108F8B504000D00002628
:101D000020680078302847DB206800783A2843DADA
:101D1000002700200100C9B2A28889B291420FD2E7
:101D200021680200D2B2895C302905DB21680200FB
:101D3000D2B2895C3A2900DB02E07F1C401CE9E753
:101D40003900C9B2206800F092FB0600300000B2F2
:101D500001280AD1012004F0ABFC002304227849B9
:101D60006448007800F060F91DE0300000B20028FF
:101D70000AD1002004F09CFC0023042270495D4835
:101D8000007800F051F90EE000230622744959480A
:101D9000007800F049F906E0002307227149554810
:101DA000007800F041F9F1BD282A002038B5040080
:101DB0000D000E226C49022000F0DBFB4FF4804145
:101DC0006A4806F016F9012805D102224AA102202C
:101DD00000F0CFFB04E0032248A1022000F0C9FB81
:101DE000022223A1022000F0C4FB31BD38B504005B
:101DF0000D000E225E49022000F0BBFB4FF40051A3
:101E00005A4806F0F6F8012805D102223AA102202C
:101E100000F0AFFB04E0032238A1022000F0A9FB90
:101E2000022213A1022000F0A4FB31BD240B010803
:101E3000900C010838B504000D000F224D49022016
:101E400000F097FB4C480069002805D104224B495B
:101E5000022000F08EFB04E005224949022000F038
:101E600088FB022202A1022000F083FB31BD0000AA
:101E70000D0A0000F8B504000D0000262068007867
:101E800030282FDB206800783A282BDA0027002042
:101E90000100C9B2A28889B291420FD22168020022
:101EA000D2B2895C302905DB21680200D2B2895C9C
:101EB0003A2900DB02E07F1C401CE9E73900C9B287
:101EC000206800F0D4FA0600300000B2062810DACC
:101ED0002C48C67012212C4800F062FF01202649D0
:101EE000087006E0002307221E490248007800F02F
:101EF0009BF8F1BD472B00204F4E00004F46460097
:101F0000300B010800060020980C01085808010851
:101F10003C0B010868020020D42A00204C04010870
:101F200068080108DC2A002078080108CC2A002073
:101F3000A00C0108A80C0108480B0108540B01086B
:101F4000780C01088808010884040020480801086A
:101F50003804010898080108600B0108A002010874
:101F6000800C0108880C0108A8080108000C024038
:101F7000B8080108C8080108282A0020B00C010888
:101F8000B80C01083C2A002080000020BFF34F8FCE
:101F90006A490A6812F4E062694802430A60BFF3C2
:101FA0004F8F00BFFDE780B51321664800F00DF8A4
:101FB00072B6FFF7EBFF02BD80B51F21624800F04B
:101FC00004F872B6FFF7E2FF01BD70B504000D0022
:101FD0002A0092B22100022000F01CFB5B483B214A
:101FE000C26BB0F84030D154B0F84010491CA0F892
:101FF000401000210A002B0092B29BB29A4212D2EA
:10200000B0F84020B2F5806F0DDA0A0092B2A25CFF
:10201000C36BB0F840609A55B0F84020521CA0F84D
:102020004020491CE6E770BD2DE9F84380460C00CE
:1020300015001E0000274046C0B2401E03D0401EBF
:10204000012809D956E04FF47A732A0092B2210090
:102050003F4806F07FF84DE0DFF8F8904FF48072CB
:102060000021484600F079FA38480021818528216E
:10207000828D09F80210818D491C818500210A009A
:10208000838E92B29A420BD2026B0B009BB2D25C4F
:10209000838D09F80320828D521C8285491CEEE74E
:1020A0002922838D09F80320828D521C82852822E3
:1020B000838D09F80320828D521C82850027390008
:1020C0002A0089B292B291420AD2390089B2615C87
:1020D000828D09F80210818D491C81857F1CEEE7F5
:1020E0002921828D09F80210818D491C81850021EA
:1020F0008186FFE7BDE8F18380B5154806F009F851
:1021000006F021FD144806F004F806F01DFD134802
:1021100005F0FFFF06F019FD01BD80B506F0E6FDF4
:1021200006F0FCFC06F0AEFD06F0FFFC06F0C4FD78
:1021300006F002FD01BD7047704700000CED00E0A5
:102140000400FA05C4040108C4FF0008D4080020F4
:102150008428002004220020FC27002040280020A2
:1021600038B504000D00DFF84C050168200000F0D0
:1021700006F8A84201D3012000E0002032BD8142D0
:1021800004D25FF0FF32101A081800E0081A7047F6
:102190002DE9F84F8AB0060014001D00DDF85090BC
:1021A0005FF0000A5FF0000800271E2100220DF1F9
:1021B000080B584600F042FDDFF8FC24D2E900018C
:1021C000CDE9000102A80090002D09D1002C07D113
:1021D00030203168B2888854B088401CB08068E0F4
:1021E000002D01D1002C1AD0200029000A22002342
:1021F00006F000FF9046200029000A22002306F086
:10220000F9FE04000D0018F130000099BDF804201B
:102210008854BDF80400401CADF80400E0E75FF00E
:10222000000BBDF80400022190FBF1F0594689B281
:1022300081421FDA0098BDF804100844594689B25B
:102240004942084410F8010C07000098BDF804103A
:102250000844594689B24942084400995A4692B204
:10226000895C00F8011C0098594689B247541BF15B
:10227000010BD6E74946C9B2684600F01DF80021B7
:102280000800BDF8042080B290420DD23068B288B8
:1022900010440A0092B2009B8C461FFA8CFC13F883
:1022A0000C308354491CEBE7B288BDF80400821857
:1022B000B2800BB0BDE8F08F2DE9F84785B005007E
:1022C0000E005FF00009142100226C46200000F08F
:1022D000B5FC002400275FF000080020A988012930
:1022E00003D129680978302903D03100C9B2002907
:1022F00000D1A7E03100C9B2AA8889B2914235D392
:10230000694630222300DBB2CA54641C2E2223000B
:10231000DBB2CA54641CAA88B21A170000231A0040
:10232000BC465FFA8CFC92B21FFA8CFC624508D264
:102330003022A4465FFA8CFC01F80C20641C5B1C64
:10234000EDE700221300B5F804C09BB2634543D209
:102350002B6894461FFA8CFC13F80C30A4465FFAE5
:102360008CFC01F80C30641C521CEBE7A988891B1B
:10237000884600210A004346DBB292B29BB29A42E1
:102380000CD22A680B009BB2D25C6B46A4465FFA63
:102390008CFC03F80C20641C491CEBE76B462E22D6
:1023A000A4465FFA8CFC03F80C20641C4246D2B2AF
:1023B0001100B5F804C089B261450DD22968944670
:1023C0001FFA8CFC11F80C10A4465FFA8CFC03F881
:1023D0000C10641C521CEBE7A1464946C9B2B1F18E
:1023E000010A504680B2002815D06846514689B28D
:1023F000415C302906D0514689B2405C2E2800D17C
:10240000641E08E0514689B2405C302800D1641E49
:10241000BAF1010AE5E7280000F017F800200100F2
:102420002200D2B289B292B291420BD2A9884A1C40
:10243000AA806A4603009BB2D25C2B6889B25A54C8
:10244000401CECE706B0BDE8F08710B400210A009C
:10245000838892B29A4206D2002203680C00A4B28A
:102460001A55491CF3E70022828010BC704770B4F3
:10247000030000220024002000252A000E00D2B212
:10248000F6B2B2421FD22A00D2B29A5C302A0ADBDC
:102490002A00D2B29A5C3A2A05DA2A00D2B29A5CB1
:1024A000303A140001E0002214002A00D2B2002ABF
:1024B00003D12200D2B2100003E00A22504350FAA6
:1024C00084F06D1CD9E770BC7047F0B40022002383
:1024D0000025002425008E88ADB2B54237D20D68A4
:1024E0002600B6B2AD5DEDB22D092A001500EDB2A1
:1024F0000A2D07DA12F1300506682700BFB206F888
:10250000175006E012F1370506682700BFB206F83B
:1025100017500D682600B6B2AD5D15F00F052B0003
:102520001D00EDB20A2D08DA13F130050668270008
:10253000BFB206EB4706757007E013F13705066872
:102540002700BFB206EB47067570641CC2E78D8892
:10255000ADB26D008580F0BC704710B4040013006C
:102560005A1E9BB2002B02D02170641CF7E710BCEE
:10257000704770B504000D0016002000C0B203289B
:1025800007DA4FF47A73320092B229004B4805F013
:10259000E1FD70BD38B504000D00280006F042FED4
:1025A000020092B229002000C0B2FFF7E2FF31BD65
:1025B000F0B585B004000D001600022100226F4620
:1025C000380000F03BFB3E48D0E90023CDE9012371
:1025D0006846019000273800310080B289B28842F5
:1025E00016D2380080B2284403900120ADF81000C4
:1025F0000020ADF8080003A901A8FFF766FFBDF8A9
:10260000082001992000C0B2FFF7B3FF7F1CE2E76A
:1026100005B0F0BD70B504000D001600320092B296
:1026200029002000C0B2FFF7A4FF264A1068002846
:1026300004D0310089B228001268904770BD70B58F
:1026400004000D00280006F0EDFD020092B2290002
:102650002000C0B2FFF78DFF1A4E3068002807D067
:10266000280006F0DFFD010089B22800326890479B
:1026700070BD70B586B005000C000A21002203AEC3
:10268000300000F0DBFA1048D0E90023CDE9012347
:1026900003A80190002000902200002301A8FFF76A
:1026A00077FDBDF8082001992800C0B2FFF761FF4F
:1026B00006B070BD1C2B0020E00C0108842800200F
:1026C000E80C0108202B0020F00C010880B500F078
:1026D00086F800F001F801BD38B586B01621002259
:1026E0006C46200000F0AAFA16224FF4005168460A
:1026F00007F05FFA9DF80000AA2818D19DF80100A4
:102700006E4900220A81002213000400DBB2E4B209
:10271000A34234D26B461400E4B223449B784C6845
:102720000D8963550B895B1C0B81521CECE7AA20B9
:102730008DF80000614C20898DF801000020010017
:10274000C9B2228989B291420AD261680200D2B22A
:10275000895C6A460300DBB21A449170401CEEE7C4
:102760004FF4005007F041F9012007F0E7FB228900
:10277000921C92B24FF40051684607F0FAF907B084
:1027800030BD38B58AB00025282100226C462000D3
:1027900000F054FAAA208DF80000484801898DF80D
:1027A000011000242100C9B2028989B291420AD2E3
:1027B00041682200D2B2895C6A462300DBB21A4427
:1027C0009170641CEEE74FF4005007F00EF92822D8
:1027D0004FF40051684607F0CCF90BB030BD10B58E
:1027E00086B0182100226C46200000F027FA002451
:1027F00018223349684607F0DCF99DF80000AA2842
:1028000027D19DF8010004002000C0B2182822DA68
:102810002C4869468A7802709DF8032042804288DD
:102820000B7953EA022343809DF8052042604268F9
:102830009DF8063053EA0223436042689DF8073052
:1028400053EA022343604268097A51EA0221416057
:1028500001E000F002F806B010BD10B586B01821F6
:1028600000226C46200000F0E9F9AA208DF8000053
:1028700007208DF801001348694602788A70428863
:1028800092B2120A8DF8032042880A714268120E31
:102890008DF805204268120C8DF806204268120A55
:1028A000CA7140680872064C200007F09EF810229A
:1028B0002100684607F05DF906B010BDD40800207D
:1028C000006070002009002010B5040007F02DFC06
:1028D000012010BD38B50400C249087800280BD18A
:1028E00001200870C0488088C04908802100C9B212
:1028F000BF4800F055FA1FE0BC48BB4DAA880388CA
:102900009A4212D100200870AA8829680120FFF796
:1029100030FE95A10120FFF73DFE01212800FEF7C2
:1029200014FA2800FFF791FD06E0A9880180210034
:10293000C9B2AF4800F034FA0020AE4981F8450032
:10294000012032BD10B50400AB490220FFF722FE82
:1029500006F06EF9012010BD10B50400A74807C8A5
:1029600007F084FC0421A24800F01AFA012010BDEF
:1029700010B5040000F030FA012010BD01009D4A9E
:10298000507E00280AD1D07D401CD075D07D9C4B54
:102990001B78984204D30020D07501E00020D07548
:1029A0000120704701000120704780B507F0DAFA76
:1029B00000F012FA07F0B8FC01BD1CB507F0C6FC28
:1029C00000F038F88F4C002000900FF279130022AD
:1029D0005FF0FF31200007F0CFFA44F620612000BD
:1029E00007F086FB200007F0EDFA13BD10B5FFF7E6
:1029F000DCFFFFF7E2FF84490220FFF7CBFD8349AC
:102A00000220FFF7C7FD82490220FFF7C3FD3220F5
:102A100007F094FA07F0AEFC7E4C0020207000F026
:102A20001EF821780843207000F076FF21780843D3
:102A30002070EFE780B506F089F8FFF747FE6D4894
:102A400008210175012141760FF2B1007249086039
:102A500072487349086073487349086001BD70B5D6
:102A60000020002400252800C0B207283ADA604E72
:102A70002800C0B2000130444078012830D128003D
:102A8000C0B2042801D0012004002800C0B2000117
:102A90003044406800280ED007F056FD2900C9B226
:102AA000090131444968401A2900C9B20901314479
:102AB0008968884214D300202900C9B20901314431
:102AC000487007F041FD2900C9B20901314448604E
:102AD0002800C0B22900C9B209013144C968884739
:102AE0006D1CC0E7424A92F84100002803D104213E
:102AF000100000F055F92000C0B270BD80B5002173
:102B00003B4800F03EF901BD70B50400002500F01F
:102B100063F946484178621AB1FBF4F104FB0121E4
:102B20003C22837802FB01F6B34208D251438078FD
:102B3000091A891C4FF47A704143080000E03C48B0
:102B400070BD000010B5040007F0E3F8032803D1BE
:102B50001A213848FFF739FA0521254800F011F904
:102B600000F004F810BD00000D0A000038B542F274
:102B7000107431490878002807D10878401C087083
:102B80001F4800781B49C87528E01A48407E012874
:102B900017D11B4D6868A86000F01EF9234A5078D1
:102BA000AB68AD682D1AB0FBF3F103FB01513C207B
:102BB00041439078091A891C4FF47A7041430C0004
:102BC00008E00F490A78488842438A604888FFF73E
:102BD0009BFF040021000B4807F08AFA094807F020
:102BE000F1F931BD322B00203C090020242B0020BC
:102BF00008000020D408002004FF0008AC2A0020B0
:102C0000200900208029002024FF00082C00010852
:102C100048000108332B0020142B00202C09002031
:102C2000102B002039F70008202B0020B82A0020A4
:102C3000C0D4010064000108342B002062F30F228D
:102C400062F31F42401810F0030308D0C91A1FD3C3
:102C5000DB0748BF00F8012D28BF20F8022D130024
:102C600030B414461546103928BF20E93C00FAD884
:102C7000490728BF20E90C0048BF40F8042D89000F
:102C800028BF20F8022D48BF00F8012D30BC704746
:102C9000C91818BF00F8012DCB0728BF00F8012D77
:102CA000704730B4002513E050F8042BD30744BF1D
:102CB000A9F101039A18091F042942F8045BFAD20A
:102CC00013468C0744BF15809B1CC90748BF1D7065
:102CD00050F8041B0029E7D130BC704762B38B0762
:102CE00008D0521E11F8013B00F8013B00F024808F
:102CF0008B07F6D1830740F0208000BF103A07D33E
:102D000030B4B1E83810103AA0E83810F9D230BC2D
:102D1000530724BFB1E80810A0E8081044BF51F8D9
:102D2000043B40F8043BD20724BF31F8022B20F8C3
:102D3000022B44BF0B7803707047121F17D35B0040
:102D400009D151F8043B20F8023B1B0C121F20F85C
:102D5000023BF6D20BE051F8043B00F8013B1B0AA2
:102D600020F8023B1B0C121F00F8013BF3D238BFC6
:102D7000121D521E24BF11F8013B00F8013BF8D888
:102D80007047020001200B00DBB21B011344587096
:102D900000200B00DBB21B01134458600120704778
:102DA00038B504000D0001202900C9B209012144F1
:102DB000487007F0C9FB2900C9B2090121444860E5
:102DC000012032BD020000200B00DBB21B011344C6
:102DD000587001207047000010B586B0DFF81C4124
:102DE000002201A9200000F056F9002269462000C7
:102DF00000F0E8F9DFF808019DF8061081709DF8F1
:102E0000051041709DF8041001709DF80010C1700C
:102E10009DF8021001719DF8011041719DF8031099
:102E2000817106B010BD17B587B01422002101A82A
:102E300007F090FB04220021684607F08BFB07A8EF
:102E400000F031F801282BD1099802909DF81E005E
:102E50008DF806009DF81D008DF805009DF81C00FA
:102E60008DF804009DF81F008DF800009DF82000EB
:102E70008DF802009DF821008DF801009DF82200D8
:102E80008DF80300DFF87440002201A9200000F053
:102E90008FF800226946200000F031F9012000E09F
:102EA00000200AB010BD010088783D2801DB002019
:102EB00023E048783D2801DB00201EE00878182830
:102EC00001DB002019E0C878092801DB002014E0AC
:102ED0000879202801DB00200FE048790D2801DB6C
:102EE00000200AE08879642801DB002005E0887969
:102EF000142801DA002000E0012070472429002076
:102F0000B82A002070B504000125002C01D1012051
:102F10004DE0607F002804D100202077200007F0DA
:102F2000A8FB02206077CA202168486253202168EC
:102F30004862200000F02FFB06003000C0B20028DD
:102F40001ED120688168DFF8FC050140206881609F
:102F50002068816862682069024360690243114306
:102F600020688160E0682168086120680069A168C4
:102F700050EA014021680861200000F034FB06009F
:102F80003000C0B200280DD12068006C30F48020E1
:102F9000216808642068016CA0690143206801640D
:102FA00001206077FF20216848623000C0B270BD08
:102FB0002DE9F84305000E0014005FF00008287F9B
:102FC000012801D1022064E00120287702206877DF
:102FD000002C1CD128688068400601D40020F070C5
:102FE000307800F019FB8146707800F015FB07007F
:102FF000B07800F011FB5FFA89F9FFB23F0257EA9F
:103000000947C0B20743F07857EA80570FE02868B5
:103010008068400601D40020F070307877783F0255
:1030200057EA0047B0780743F07857EA8057CA203C
:1030300029684862532029684862280000F0ABFAEA
:1030400080464046C0B2002816D1DFF8FC04384064
:10305000296808602868806830F4802029688860C2
:1030600028688168F26830690243114328688160EA
:10307000280000F0B8FA80464046C0B2002801D1CE
:1030800001206877FF2029684862002028774046A1
:10309000C0B2BDE8F283F8B505000E0014000021AF
:1030A0002868806A7060286800694004400CB0603D
:1030B00028680768DFF8900407403800000C10F01B
:1030C0003F0030703800000A10F07F00707017F079
:1030D0007F00B0703800800D10F00100F070002CFF
:1030E0000BD1307800F0A4FA3070707800F0A0FABC
:1030F0007070B07800F09CFAB0700020F2BD2DE93D
:10310000F84305000E0014005FF00008287F012836
:1031100001D1022054E00120287702206877002C9A
:1031200007D17078C00604D5707810F0EF000A302F
:103130007070002C16D1F07800F06EFA814670782D
:1031400000F06AFA0700B07800F066FA5FFA89F9D1
:10315000FFB23F0257EA0947C0B20743307857EA47
:10316000403709E0F07877783F0257EA0047B078B7
:103170000743307857EA4037CA202968486253200D
:1031800029684862280000F006FA80464046C0B22E
:10319000002808D1DFF8B4033840296848602800C7
:1031A00000F021FA80464046C0B2002801D101203B
:1031B0006877FF2029684862002028774046C0B21F
:1031C000BDE8F283F8B505000E0014000021286860
:1031D0004768DFF8780307403800000CF0703800CB
:1031E000000A10F01F00707017F03F00B070380038
:1031F000400B10F007003070002C0BD1F07800F07D
:1032000017FAF070707800F013FA7070B07800F070
:103210000FFAB0700020F2BD2DE9FE4F05000E0040
:1032200014004FF47A77DFF82883D8F800004009BB
:103230004FF47A71B0FBF1F07843009000200290D7
:1032400000200190287F012801D10220E3E0012025
:10325000287702206877002C31D1286880684006E2
:1032600001D40020F070F0690028FFD0307800F021
:10327000D3F98146707800F0CFF98246B07800F03B
:10328000CBF9834696F8200000F0C6F95FFA89F979
:103290005FFA8AFA5FEA0A2A5AEA094A5FFA8BFB5E
:1032A0005BEA0A0AF1785AEA815AC0B25AEA006A1D
:1032B000F06950EA0A0A706950EA0A0A1FE02868B1
:1032C0008068400601D40020F070F0690028FFD02B
:1032D000307896F801A05FEA0A2A5AEA004AB078E4
:1032E00050EA0A0AF0785AEA805A96F820005AEA18
:1032F000006AF06950EA0A0A706950EA0A0A7168BD
:10330000B0690143CA202A68506253202A6850627B
:10331000706AB0F5807F31D12868806830F48070A1
:103320002A6890602868C06810F0800070F4C0704F
:103330002A68D0600098421E0092002808D1FF2021
:103340002A6850620320687700202877032062E013
:103350002868C068C007EDD52868C0F81CA0286898
:1033600041642868806850F480702A6890602868FA
:10337000806850F480502A6890603AE0286880683D
:1033800030F400702A6890602868C06810F08000EF
:1033900070F420702A68D060D8F8000040094FF41B
:1033A0007A72B0FBF2F007FB00F700970098421E1C
:1033B0000092002808D1FF202A6850620320687715
:1033C00000202877032026E02868C0688007EDD514
:1033D0002868C0F820A0286881642868806850F4B4
:1033E00000702A6890602868806850F400502A684D
:1033F00090605848026852F40032026056480268F1
:1034000052F400320260FF202A685062012068777F
:10341000002028770020BDE8FE8FF8B504000D00DD
:103420000026207F012801D102205AE001202077C8
:1034300002206077CA2021684862532021684862D0
:10344000B5F5807F22D12068806830F480702168D3
:1034500088602068806830F480502168886007F0B8
:1034600073F807002068C068C00732D407F06CF812
:10347000C01B40F2E9318842F4D3FF202168486242
:10348000032060770020207703202AE020688068EE
:1034900030F40070216888602068806830F4005043
:1034A0002168886007F050F807002068C06880072E
:1034B0000FD407F049F8C01B40F2E9318842F4D339
:1034C000FF202168486203206077002020770320D6
:1034D00007E0FF2021684862012060770020207704
:1034E0000020F2BD10B5040020688068C0040ED52D
:1034F0002068C068C0050AD5200007F092F920684E
:10350000C06810F0800070F4C0702168C860206846
:10351000806880040ED52068C06880050AD5200028
:1035200007F0A4FA2068C06810F0800070F42070E2
:103530002168C8605FF400300849086001206077A6
:1035400010BD0000BFFF8FFF7F7F7F003FFFFF00A8
:1035500004000020003C0140083C0140143C0140B4
:1035600070B5040000252068C06830F0A000216814
:10357000C86006F0E9FF06002068C068800608D42D
:1035800006F0E2FF801B40F2E9318842F4D30320C9
:1035900000E0002070BD70B5040000250026206802
:1035A000C06840061CD42068C06850F080002168C4
:1035B000C86006F0C9FF05002068C06840060FD447
:1035C0003000C0B201280BD006F0BEFF401B40F215
:1035D000E9318842F0D30420607701200600EBE750
:1035E0003000C0B270BD38B5040000252068C06846
:1035F00030F080002168C86020688068800608D4A8
:103600002000FFF7ADFF002803D0042060770120E1
:1036100005002800C0B232BD00210200D2B20A2A41
:1036200002D3491C0A38F8E750EA0110C0B27047CB
:1036300000210200D2B212090A2312FB03F210F099
:103640000F008018C0B2704738B50400DFF81C5571
:103650002878002803D0022810D008D319E04FF4AE
:10366000FA70DFF80C15886000F07BFA13E0642034
:10367000DFF8FC14886000F075FA0CE00020287078
:1036800006F04BFB0121DFF8E804FFF77AFB01208D
:103690000BE0002028702878401C28702100C9B257
:1036A000DFF8CC04FFF77CFB012032BD10B504002D
:1036B00006F0D5FA012823D106F02BFB03280ED102
:1036C000DFF8B0140220FEF765FFDFF8A40442F231
:1036D000107181600021FFF763FB012017E006F005
:1036E00033FB012805D10321DFF88404FFF749FBF0
:1036F00004E00120DFF8801481F82001012006E0B9
:103700002100C9B2DFF86804FFF74AFB012010BDB1
:1037100038B50400DFF864542878002809D002285E
:1037200025D015D3042840D030D306284DD04BD314
:103730004CE0DFF84C0406F01BFB012807D1DFF852
:1037400044140220FEF726FF2878401C287046E02B
:10375000DFF82C0406F05AFB012807D1DFF8281403
:103760000220FEF717FF2878401C287037E0DFF8AA
:103770001C0406F0FDFA012807D1DFF8141402201A
:10378000FEF708FF2878401C287028E0DFF8FC03CB
:1037900006F03CFB012807D1DFF8F8130220FEF702
:1037A000F9FE2878401C287019E0DFF8EC0306F0D9
:1037B000DFFA012807D1DFF8E4130220FEF7EAFE62
:1037C0002878401C28700AE009E008E000202870F2
:1037D0000120DFF8A41381F82001012006E0210078
:1037E000C9B2DFF88C03FFF7DBFA012032BD01001C
:1037F0000120704770B5040006F08BFA012819D13A
:10380000DFF88853688EA98E884213D0DFF8906362
:10381000707800280ED1DFF88C130220FEF7BAFE74
:103820000020B07301207070AB8D002200210320B6
:1038300000F026F92100C9B2DFF83403FFF7B0FA2F
:10384000012070BD10B504002100C9B2DFF82003CB
:10385000FFF7A6FA012010BDF8B5040000250026E8
:1038600006F057FA012849D1DFF83473787B012834
:1038700044D1F888398988423CD0387B002806D06A
:1038800002280FD0042818D0052821D021E0DFF825
:10389000F002818D0D00C168FA88808D00FB021155
:1038A0000E0016E0DFF8E402818D0D00C168FA8891
:1038B000808D00FB02110E000BE0DFF8DC02818D31
:1038C0000D00C168FA88808D00FB02110E0000E037
:1038D000FFE72B009BB232000121072000F0D0F857
:1038E000F888401CF880F8887989884206D300203F
:1038F000F88003E000207873012006E02100C9B2BF
:10390000DFF86C02FFF74CFA0120F2BD10B504009D
:1039100006F09EF9012010BD70B50020002400259E
:103920002800C0B2082843DADFF844622800C0B299
:10393000000130444078012838D12800C0B2042862
:1039400009D02800C0B2052805D02800C0B206283A
:1039500001D0012004002800C0B2000130444068BA
:1039600000280ED006F0F0FD2900C9B2090131444B
:103970004968401A2900C9B209013144896888425E
:1039800014D300202900C9B209013144487006F05F
:10399000DBFD2900C9B20901314448602800C0B2EA
:1039A0002900C9B209013144C96888476D1CB7E7CD
:1039B00005F076FF2043C0B270BD2DE9F047C2B0DC
:1039C00004000D0016001F005FF0000800205FF0EB
:1039D000000A002140918DF80441AA216A4643461D
:1039E0009BB2D15418F10108310089B2090A6A4624
:1039F00043469BB2D15418F101086946424692B23F
:103A00008E5418F1010800210800320080B292B2F1
:103A100090420AD2080080B2285C6A4643469BB2B4
:103A2000D05418F10108491CEEE7380080B2401E5E
:103A3000424692B2904201DA781E804618F101089F
:103A40005FF00009484680B2414689B2491E88426B
:103A500008DA6846494689B2405C90EA0A0A19F1D8
:103A60000109EFE76846414689B2084400F801AC15
:103A7000ADF80681684606F06AF942B0BDE8F08705
:103A8000FEB504000D0016001F008DF806400096DC
:103A90008DF80750ADF80470684606F049F9F7BD97
:103AA0002DE9F04104000D00002600275FF000081A
:103AB000280080B200284DD006F02BF9012849D10A
:103AC0002000C0B2002805D0022813D00AD3032852
:103AD00018D018E02A48818E884600210F00C08D3A
:103AE000060010E02948818E884602210F00C08D13
:103AF000060008E02848818E884604210F00C08D0A
:103B0000060000E0FFE72800310080B289B2884259
:103B100020D2234801214173234909780171077399
:103B2000A0F80880468101892A0092B2914203D30D
:103B30000189491BC18003E001898919491BC180A2
:103B400007210B48FFF71DF918490220FEF722FD57
:103B5000012004E016490220FEF71CFD0020BDE80C
:103B6000F081704780B506F083FF01BD3D2B00203A
:103B70002403002084FF000880070020A02A0020E2
:103B80007C0200207CFD0008A0FD0008B40200209B
:103B9000C4FD0008E8FD0008EC0200200CFE00084F
:103BA000602A002030FE0008472B0020D80B0108B7
:103BB00054FE00082DE9FE4F04000D0000200026F1
:103BC00000270021ADF804105FF001085FF0000944
:103BD0005FF0000A21680978212901D101218A4674
:103BE0005FF0000B584600B2A988884272DA20685C
:103BF0005146C9B2405C29685A4612B2895C884273
:103C000065D1012080465046C0B2401C060000200D
:103C100081460020ADF80400300000B2A18888423F
:103C20004ADA2068310009B2405C7C281ED1BDF917
:103C30000400002804D10120814616EB0B00070088
:103C400001A800903B001BB22A002100701C00B2AA
:103C500000F059F880464046C0B2012806D15146CE
:103C6000C9B2584600B200F03DF839E04846C0B24B
:103C700000280FD12068310009B2405C29685A46FB
:103C800012B21144320012B2895C884202D0002084
:103C9000804611E04846C0B2002801D1761CBBE73F
:103CA0003000BDF9041000B2884203DABDF9040007
:103CB0000600B1E7761CAFE74046C0B2012806D146
:103CC0005146C9B2584600B200F00CF808E01BF1AA
:103CD000010B87E75146C9B25FF0FF3000F002F8F0
:103CE000BDE8FE8F02000800C0B2002802D110001B
:103CF00000B207E0100000B2002802D45FF0FF30ED
:103D000000E000207047F0B50400059D012000266A
:103D100037003FB207FA84F7B1F804C067453ADAD2
:103D20000F68A4460FFA8CFC6744B4460FFA8CFC6B
:103D300017F80C707C2F03D137192F8000B22BE0BD
:103D40009788B4460FFA8CFC0CFA83FC674506DAB8
:103D5000B2F904707F1C2F805FF0FF3738000F68C6
:103D6000A4460FFA8CFC6744B4460FFA8CFC17F893
:103D70000C70D2F800C09E460FFA8EFEF444B64690
:103D80000FFA8EFE1CF80EC0674502D05FF0FF37B9
:103D90003800761CBCE700B2F0BD000038B5040066
:103DA000DFF8140C002181800E2102688388D15431
:103DB0008188491C8180012102688388D1548188CF
:103DC000491C8180012102688388D1548188491C63
:103DD00081808188006800F068FF0822DFF8FC1B02
:103DE0000120FEF7C6FBDFF8F85BAA8800212868EF
:103DF000FEF7B3FB0020A880DFF8E85B0121280074
:103E0000FEF7BFFF0C212800FEF7CAFF052128009E
:103E1000FEF7B7FF0D212800FEF7B3FF07212800AA
:103E2000FEF7BEFFDFF8E80C8078022803D00821F7
:103E30002800FEF7A6FF012032BD10B5040001F0F6
:103E4000A2F92100C9B2DFF89C0BFEF7A9FF0120FF
:103E500010BD10B50400DFF8881B8888002810D03A
:103E6000DFF8840B02888B889A4208D100210180F8
:103E70000221DFF8700BFEF784FF012008E089883B
:103E800001802100C9B2DFF85C0BFEF789FF012039
:103E900010BD00002DE9F14F8EB05FF0000A5FF019
:103EA000000900208DF804000020ADF806005FF046
:103EB000000800208DF80500002400250020ADF842
:103EC0000C000026DFF8187B0022B988C9B23868D8
:103ED00001F026FC3868B988084410F8010C3968EC
:103EE000BA88114411F8021C51EA0021ADF80E10F5
:103EF000B888821E92B239680DF1060006F0A9FA60
:103F0000BDF80600BDF80E10884203D101208DF8DF
:103F1000040007E0DFF8F80BC078002802D1012088
:103F20008DF804009DF80400012840F0F183DFF8CB
:103F3000E08B98F80200022800F0EA83B888801E1F
:103F4000514689B2891C8842C0F2D983504610F18B
:103F5000010A396880B2085C0B2800F099810C28AE
:103F600000F0D1810D2800F01A820E2800F0938015
:103F7000152800F0588116281DD01B2800F0378224
:103F80001C2800F055821E2800F07283202830D0B3
:103F9000212800F09C80222800F0C280232800F015
:103FA000FD80602800F0C882632800F0E382642866
:103FB00000F01A83A2E33868514689B2405C81461A
:103FC0001AF1010A4846C0B2012811D1B888801EF2
:103FD0004946C9B211FA8AF1884209DB386851466C
:103FE00089B2405C02F05EF85AFA89FA01200600B4
:103FF000A4E73868514689B2405C81461AF1010A4B
:104000004846C0B2152845DAB888801E4946C9B26C
:1040100011FA8AF188423DDBDFF89CBB9BF8000077
:1040200000282CD102F0D4FB002001004A46C9B27E
:10403000D2B291421CD239680200D2B212FA8AF28C
:10404000895C0C0039680200D2B212FA8AF211447B
:1040500049780D002100C9B20B2907DA2900C9B23D
:104060000B2903DA2100C9B20BF80150801CDCE7F0
:1040700002F03CF85AFA89FA012006000AE01522FB
:10408000DFF8B01B0120FEF774FA0222BDA1012067
:10409000FEF76FFA52E73868514689B2405C8146B4
:1040A0001AF1010A4846C0B201280FD1B888801E13
:1040B0004946C9B211FA8AF1884207DB386851468D
:1040C00089B2405C012801D101F01AF836E738685E
:1040D000514689B2405C81461AF1010A4846C0B295
:1040E00001281CD1B888801E4946C9B211FA8AF14C
:1040F000884214DB3868514689B2405C02280EDAE7
:1041000000200090012301223868514689B2415CA9
:10411000002003F032FC5AFA89FA012006000DE76C
:104120003868514689B2405C81461AF1010A484616
:10413000C0B2012831D1B888801E4946C9B211FAEF
:104140008AF1884229DB3868514689B2405C0228EE
:1041500023DADFF8CC0B807C00280BD00020009005
:10416000012301223868514689B2415C022003F0E4
:1041700004FC0EE03868514689B2405CDFF8A41BAD
:10418000887101200090012301220021022003F008
:10419000F4FB5AFA89FA01200600CFE63868514646
:1041A00089B2405C81461AF1010A4846C0B2012832
:1041B00038D1B888801E4946C9B211FA8AF18842BE
:1041C00030DB3868514689B2405C02282ADA386808
:1041D000514689B2405C002805D10321DFF8D80B95
:1041E000FEF7CFFD1AE03868514689B2405C0128DD
:1041F00014D1DFF82C0B807C00280AD0DFF8BC0B30
:10420000007803F0D5FA0221DFF8AC0BFEF7B9FD18
:1042100004E00321DFF8A00BFEF7B3FD5AFA89FA98
:10422000012006008AE63868514689B2405C814622
:104230001AF1010A4846C0B2032828D1B888801E66
:104240004946C9B211FA8AF1884220DBDFF8701BB7
:104250003868524692B2805C8880888800028880E4
:104260008A88386853469BB21844407802438A8053
:104270003868524692B21044807888710321DFF882
:10428000D40BFEF77EFD5AFA89FA0120060055E6A6
:104290003868514689B2405C81461AF1010AB888F3
:1042A000801E4946C9B211FA8AF188422ADBDFF83A
:1042B0000827002090800B2011689388C8549088AC
:1042C000401C90801068918800F801909088401CF4
:1042D00090804846C0B200280ED03868514689B256
:1042E000405C11689388C8541AF1010A9088401CF8
:1042F0009080B9F10109ECE79188106800F0D5FCD5
:10430000012006001AE63868514689B2405C8146B1
:104310001AF1010AB888801E4946C9B211FA8AF119
:1043200088423BDB142100220DF1240B5846FEF796
:1043300085FC5FF0000B09A80C215A46D2B28154CB
:104340001BF1010BDFF8941B0A895B46DBB2C254F8
:104350001BF1010B00221300DBB2B1F808C09BB2C5
:10436000634511D24B6894465FFA8CFC13F80C300D
:10437000DC465FFA8CFC00F80C301BF1010B521C80
:10438000E9E700BF0D0A00005946C9B289B209A881
:1043900000F0F4FC5AFA89FA01200600CEE53868EC
:1043A000514689B2405C81461AF1010AB888801EE4
:1043B0004946C9B211FA8AF1884217DB4946C9B2A7
:1043C00089B23868524692B2104400F0F1FE494674
:1043D000C9B2891C89B23868524692B21044801E14
:1043E00000F0CCFC5AFA89FA01200600A6E53868EC
:1043F000514689B2405C81461AF1010A4846C0B272
:10440000012814D1B888801E4946C9B211FA8AF130
:1044100088420CDB3868514689B2405C022802DAD7
:10442000002088F800005AFA89FA0120060085E584
:104430003868514689B2405C81461AF1010A484603
:10444000C0B2062832D1B888801E4946C9B211FAD6
:104450008AF188422ADB3868514689B2405C8DF87F
:104460000B003868514689B2084440788DF809003D
:104470003868514689B2084480788DF80A00386857
:10448000514689B20844C0788DF81000386851460A
:1044900089B2084400798DF811003868514689B214
:1044A000084440798DF81200012006009DF80B00A9
:1044B00014283BDB9DF80900002837D09DF809003F
:1044C0000D2833DA9DF80A0000282FD09DF80A0045
:1044D00020282BDA9DF81000182821DA9DF8110009
:1044E0003C281DDA9DF812003C2819DADFF8F0B9F3
:1044F000002204A95846FEF75BFD002202A9584697
:10450000FEF7FDFD4946C9B2891C89B2386852469A
:1045100092B21044801E00F031FC5AFA89FA0AE087
:104520000421DFF8D80B00F0C0FB04E00421DFF821
:10453000CC0B00F0BAFB01E53868514689B2405C0B
:1045400081461AF1010A4846C0B2012811D1B88843
:10455000801E4946C9B211FA8AF1884209DB3868DF
:10456000514689B2405C00F071FE5AFA89FA012086
:104570000600E3E43868514689B2405C81461AF18E
:10458000010A4846C0B201282DD1B888801E49468C
:10459000C9B211FA8AF1884225DBDFF87C0D017976
:1045A0000091C378827841783868D4461FFA8CFC31
:1045B00010F80C0000F008FF01280BD14946C9B2E1
:1045C000891C89B23868524692B21044801E00F0AD
:1045D000D5FB04E00421DFF8240B00F066FB5AFA57
:1045E00089FA01200600A9E43868514689B2405C86
:1045F00081461AF1010A4846C0B2042837D1B8886A
:10460000801E4946C9B211FA8AF188422FDB386808
:10461000514689B20844C07800903868514689B242
:10462000084483783868514689B20844427838682B
:10463000514689B2415CDFF8E00C007800F0C4FE1E
:1046400001280BD14946C9B2891C89B23868524643
:1046500092B21044801E00F091FB04E00421DFF8C8
:104660009C0A00F022FB5AFA89FA0120060065E450
:104670003868514689B2405C81461AF1010A4846C1
:10468000C0B2022839D1B888801E4946C9B211FA91
:104690008AF1884231DB3868514689B2415C0902AF
:1046A0003868524692B2104440780143ADF80C107D
:1046B000DFF8640C0078012816D198F8020002286F
:1046C00012D0DFF8840B4178007800F07BFB0128E2
:1046D00004D1BDF80C0000F071FA0AE00421DFF803
:1046E0001C0A00F0E2FA04E00421DFF8100A00F0EE
:1046F000DCFA5AFA89FA002006001FE41EE49DF84D
:104700000500012819D1022184A000F037FB14E034
:104710000521DFF8080C00F031FBDFF8F4038078A6
:1047200002280AD10C22DFF8F81B0120FDF721FF37
:104730000222A0A10120FDF71CFF3000C0B2012819
:104740000FD1DFF8CC8398F80200002806D10120B1
:1047500000F008FF0A21A348FEF713FB002088F8A9
:104760000000B888DFF8041C0870BA880021386897
:10477000FDF7F3FE0020B88001219A48FEF701FB07
:1047800001200FB0BDE8F08F38B50400954DDFF87B
:10479000800341784EF660204143A96300F0A2FBFC
:1047A0002100C9B22800FEF7FBFA012032BDF0B5A6
:1047B0008DB004000026DFF8085C280006F06AFAD5
:1047C000002803D1DFF8FC5B002700E00127280068
:1047D00006F060FA002822D03800C0B201280AD1C1
:1047E00001226946280006F0D8F99DF83210684683
:1047F00000F046FA0DE0C6488078012809D1012270
:104800006946280006F0C9F99DF83210684600F0A4
:1048100037FA06217348FEF7C3FA012005E02100AC
:10482000C9B27048FEF7BCFA01200DB0F0BDF0B57A
:104830008DB004000026DFF8885B280006F02AFA15
:10484000002803D1DFF87C5B002700E00127280067
:1048500006F020FA002805D105216248FEF791FAFA
:10486000012021E03800C0B201280AD101226946A6
:10487000280006F092F99DF83210684600F000FA20
:104880000DE0A3488078012809D10122694628005B
:1048900006F083F99DF83210684600F0F1F9062120
:1048A0005048FEF77DFA01200DB0F0BD10B50400B0
:1048B00000F026FC012010BD38B5040094490878AA
:1048C0000A2804DB09214748FEF75BFA23E0087851
:1048D000401C08703848002282801B2203688588AB
:1048E0005A558288521C82800122036885885A5555
:1048F0008288521C8280097802688388D15481881A
:10490000491C81808188006800F0CFF92100C9B27C
:104910003448FEF745FA012032BD00004F4B00003D
:1049200038B50400DFF8345C2878002830D1002046
:10493000774908700120DFF8281C087101202870D1
:1049400001228021DFF8680C03F05EFB012000905B
:10495000012301220021002003F00FF8214D210046
:10496000C9B22800FEF71CFA08212800FEF72AFA2F
:104970001822DFF8401C0120FDF7FBFD02220DA1EB
:104980000120FDF7F6FD04F097F904F0D5F80EE0EC
:10499000002000F0E7FD0020287000228021DFF8D1
:1049A000100C03F031FB0A210E48FEF7F9F9012043
:1049B00032BD00000D0A00008804002010B504007C
:1049C00008210848FEF7DDF90020DFF8941B087184
:1049D00000204F490870012010BD00005009010857
:1049E00044090020A4030020262B002070B50400F9
:1049F000DFF85458A879152844DB454EB0780228D2
:104A00002DD0DFF814090078012828D1697828789A
:104A100000F0D8F9012822D1307806281FDAB078C2
:104A200001281CD1DFF84C0C002181801D21026877
:104A30008388D1548188491C818001210268838840
:104A4000D1548188491C8180012102688388D15416
:104A50008188491C81808188006800F026F9B0783F
:104A6000022817D1DFF8B0080078012812D1697840
:104A7000287800F0F1F901280CD14FF47A7000F099
:104A8000DBF807E022488078022803D14FF47A70DF
:104A900000F0D2F81E48807802280DD10721DFF8F7
:104AA0000C0DFEF77DF9DFF870080078002803D1BF
:104AB0004FF47A7000F0C0F82100C9B2DFF8EC0CB6
:104AC000FEF76EF9012070BD10B50400DFF8901AF2
:104AD0000878002813D14878002810D18878002859
:104AE0000DD1C87800280AD10879002807D1DFF84D
:104AF000D40806F0CFF8002801D100F001FB210016
:104B0000C9B2DFF8A80CFEF73CF9012010BD000087
:104B10008404002038B50400DFF82C1788791428A5
:104B200003DA0020DFF8F02B1070DFF8F02B10789C
:104B300000280CD10878092802D0087815280ED151
:104B40000020DFF8D41B08700120107007E00878FF
:104B50000B2802D00878172801D100201070DFF848
:104B6000B85B287800281ED1DFF8080B002181806F
:104B70001C2102688388D1548188491C81800121CD
:104B800002688388D1548188491C81800121026890
:104B90008388D1548188491C81808188006800F015
:104BA00084F8012028702100C9B2DFF8000CFEF75C
:104BB000F7F8012032BD0000282A00201CB50400AF
:104BC0000020DFF8EC1B08700821DFF8E00BFEF78F
:104BD000F9F80120DFF888190871002000900123FE
:104BE00001220021002002F0C8FE002000900123D5
:104BF00001220021022002F0C0FE04F05DF803F063
:104C00009BFF200080B200F024FD022000F0AAFCEF
:104C100000220821DFF89C0B03F0F6F91722DFF8D9
:104C2000981B0120FDF7A5FC0222ABA10120FDF796
:104C3000A0FC13BD1002010810B5040004F03CF8FC
:104C400003F07AFF200080B200F003FD002000F0A6
:104C500089FC01220821DFF85C0B03F0D5F90A2159
:104C6000DFF8480BFEF79CF81422DFF8501B0120F8
:104C7000FDF77FFC022298A10120FDF77AFC10BD10
:104C800038B504000D002900C9B289B2200005F032
:104C900009FC01222900C9B2200000F041FD0721D2
:104CA000DFF8080BFEF77CF831BD38B504000D00C5
:104CB0000020ADF800002A0092B22100684605F0FD
:104CC000C8FBBDF80000290089B260546D1C0020AB
:104CD000290089B260546D1C20780A380ED026381D
:104CE00002280BD91038012811D801232A00D2B28A
:104CF0002100DFF8CC0600F017F810E000232A00AE
:104D0000D2B22100DFF8BC0600F00EF807E0002365
:104D10002A00D2B22100DFF8A80600F005F831BD64
:104D200068020020D42A0020F8B59AB004000D00D3
:104D300016001F008DF86660002001003200C9B225
:104D4000D2B2914208D20100C9B2695C0DAA030037
:104D5000DBB2D154401CF0E7200005F09BFF1D287A
:104D600004DB01226946200005F017FF3A00D2B2A9
:104D70000DA9200005F0FCFE1BB0F0BD38B5040005
:104D80000D00DFF8F00800218180290089B2322966
:104D900011DA81882A0092B2914208D28188615C3E
:104DA00002688388D1548188491C8180F1E7818819
:104DB0000068FFF77AFF31BD9004002054090020FD
:104DC000E42A0020F0B50200002600275FF0000C66
:104DD0003C25DFF844E59EF801309EF8020005FB13
:104DE00003039EF803409EF8040005FB0404100032
:104DF000C0B205FB00F555FA81F5200080B20A2803
:104E000001DB0A3C01E004F296541800260080B24F
:104E1000B6B2B0420DD328001E0080B2B6B2B04286
:104E200005D22800260080B2B6B2B0420FD20120CF
:104E30000EE028001E0080B2B6B2B04207D32800B0
:104E4000260080B2B6B2B04201D2012000E00020BC
:104E5000F0BD000080050020F0B502000024002510
:104E600000265FF03C0CDFF8B0E49EF801309EF8BD
:104E700002000CFB03039EF803709EF804000CFB79
:104E800007071000C0B20CFB00FC5CFA81FC380084
:104E90009E4680B21FFA8EFE70450DD260461C0001
:104EA00080B2A4B2A04215D260463C0080B2A4B247
:104EB000A0420FD301200EE060461C0080B2A4B2D5
:104EC000A04205D360463C0080B2A4B2A04201D308
:104ED000012000E00020F0BD0D0A0000D4080020F1
:104EE0002429002038B5DFF88C07002181800A21B1
:104EF00002688388D1548188491C8180002102681E
:104F00008388D1548188491C8180CF498A7903687C
:104F100084881A558288521C82804A790368848862
:104F20001A558288521C82800A79036884881A552F
:104F30008288521C82800A78036884881A55828885
:104F4000521C82804A78036884881A558288521CD1
:104F50008280897802688388D1548188491C818045
:104F6000DFF860188A7C036884881A558288521C8E
:104F70008280DFF854281378046885886355838815
:104F80005B1C83809278036884881A558288521C3F
:104F90008280DFF83828B2F900301B120468858857
:104FA000635583885B1C83801288036884881A5544
:104FB0008288521C8280DFF81828B2F904301B1254
:104FC00004688588635583885B1C838092880368A6
:104FD00084881A558288521C8280FF220368848844
:104FE0001A558288521C82804A8892B2120A03683B
:104FF00084881A558288521C82804A880368848873
:105000001A558288521C82808A8892B2120A0368DA
:1050100084881A558288521C82808A880368848812
:105020001A558288521C82800A7C036884881A552B
:105030008288521C82808A681212036884881A55FA
:105040008288521C82808A68036884881A55828804
:10505000521C8280CA68120E036884881A5582889E
:10506000521C8280CA68120C036884881A55828890
:10507000521C8280CA68120A036884881A55828882
:10508000521C8280CA68036884881A558288521C20
:105090008280497C02688388D1548188491C818040
:1050A0009D490A78036884881A558288521C828038
:1050B0004A78036884881A558288521C82808A78CC
:1050C000036884881A558288521C8280CA780368D3
:1050D00084881A558288521C8280097902688388E4
:1050E000D1548188491C81808188891E0268517051
:1050F00081880068FFF7D9FD31BD0000E00B010891
:105100003EB54FF47A7004F019FF0521002201AC7E
:105110002000FDF793FD00240020ADF8000001AD54
:105120000E202100C9B26854641C01202100C9B2BC
:105130006854641C00202100C9B26854641C220019
:10514000D2B292B201A9684605F083F9BDF8000019
:105150002100C9B26854641C00202100C9B26854FF
:10516000641C2100C9B201A8FFF78AFD0922DFF8FB
:1051700064160120FDF7FDF94FF4FA7004F0DEFE2D
:10518000FCF711FF37BD10B5DFF84C4601220121B5
:10519000200002F039FF012004F0D0FE002201219E
:1051A000200002F031FFDFF8340605F0A3FD10BD4A
:1051B00070B586B004000D00280080B2152840DAD2
:1051C000162100226E463000FDF738FDAA208DF82A
:1051D000000028008DF80100DFF80466002030810F
:1051E000142200217068FDF7B8F900200100C9B24F
:1051F0002A0089B292B2914216D20100C9B2142992
:1052000012DA0100C9B2615C6A460300DBB21A44DB
:1052100091700100C9B2615C72683389D1543189DF
:10522000491C3181401CE1E74FF4005004F0DDFBE4
:10523000AA1C92B24FF40051684604F09AFC012077
:1052400000E0002006B070BDB82A00207CB5040044
:105250002000C0B2002801D101200400DFF8505521
:105260006C70022100226E463000FDF7E7FCDFF88B
:10527000040400218180602102688388D1548188E0
:10528000491C8180012102688388D1548188491C8E
:105290008180697802688388D1548188491C818023
:1052A00081880068FFF701FDAA208DF8000068786A
:1052B0008DF801004FF4C04004F097FB02224FF438
:1052C000C041684604F055FCDFF8E0046A784EF609
:1052D00060214A4382630321FDF762FD012076BD10
:1052E0001CB5022100226C462000FDF7A7FC02221B
:1052F0004FF4C041684604F05CFC9DF80000AA2809
:1053000005D19DF80100DFF8A814487003E00120E2
:10531000DFF89C14487013BDCC2A0020E80B01086C
:105320001805010838B504002000C0B202281ADAB6
:10533000022100226D462800FDF780FCDFF8700492
:10534000C470AA218DF80010C0788DF801004FF4C8
:10535000104004F04AFB02224FF41041684604F06A
:1053600008FC012000E0002032BD0000412B00209D
:105370001CB5022100226C462000FDF75FFC0222D2
:105380004FF41041684604F014FC9DF80000AA2870
:1053900010D168464178012904D10120DFF81014AA
:1053A000C8700BE04078002808D10020DFF8001416
:1053B000C87003E00020DFF8F813C87013BD0000C8
:1053C000B0290020982900202DE9F34F83B0150063
:1053D0001E000E9C0020002100273C229DF810306A
:1053E000534353FA85F83300DBB202FB03F252FA5F
:1053F00084F99DF80C20022A72DA9DF81000182812
:105400006EDA2800C0B23C286ADA3000C0B2182830
:1054100066DA2000C0B23C2862DA4846414680B2D3
:1054200089B2884211D2414689B2484680B2091AEF
:105430001E291BDB404680B2D0F5B46010FA89F01B
:105440001E2813DB0120070010E0494689B24046C0
:1054500080B2091A1E2909DB484680B2D0F5B46033
:1054600010FA88F01E2801DB012007003800C0B2C6
:10547000012835D1DFF86CA39DF80C008AF80000F4
:105480009DF810008AF801008AF802508AF803603B
:105490008AF8044006210022EB465846FDF7CEFB71
:1054A000AA208DF8000068469AF8001041709AF81A
:1054B000011081709AF80210C1709AF803100171FE
:1054C0009AF804008DF805004FF4E04004F08DFADE
:1054D00006224FF4E041684604F04BFB012000E057
:1054E000002005B0BDE8F08F1CB5062100226C46F7
:1054F0002000FDF7A3FB06224FF4E041684604F0CC
:1055000058FB9DF80000AA281BD168464178022963
:1055100022DA817818291FDAC1783C291CDA01794E
:10552000182919DA41793C2916DAAE4942780A700D
:1055300082784A70C2788A700279CA70407908719C
:105540000AE0A848002101701521417000218170F6
:105550000621C1700021017113BD00003E2B002007
:10556000C42A00207CB50400914DA8782100C9B25E
:1055700088421BD02000C0B2032817DA0221002283
:105580006E463000FDF75AFBAC70AA208DF8000083
:10559000A8788DF80100944D280004F026FA022224
:1055A0002900684604F0E5FA012000E0012076BDFC
:1055B000000C0240F00001081CB5022100226C46DC
:1055C0002000FDF73BFB02228749684604F0F1FA10
:1055D0009DF80000AA2806D168464178032902DA1E
:1055E00040787349887072488078022805D100227B
:1055F0000821704802F008FD04E0012208216D48EE
:1056000002F002FD13BD80B5784B33221E2178488D
:1056100005F090FA774B33221E21774805F08AFA7D
:1056200001BD80B5002000900FF2110300225FF051
:10563000FF31724804F0A0FC01BD000010B5040069
:10564000002240216E4802F0DFFC6C4804F0BAFCF6
:1056500010BD38B5040001224021694802F0D4FC95
:10566000664D210089B2280004F042FD280004F0B4
:10567000A9FC31BD8804002080B5FFF79DFFFFF72E
:10568000D0FFFFF72DFEFFF773FEFFF7BCFFFFF71C
:105690002BFF01BD70B50020002400252800C0B2FA
:1056A0000E2836DA414E2800C0B20001304440785E
:1056B00001282CD1012004002800C0B20001304490
:1056C000406800280ED004F03FFF2900C9B209014C
:1056D00031444968401A2900C9B209013144896836
:1056E000884214D300202900C9B20901314448700E
:1056F00004F02AFF2900C9B209013144486028009A
:10570000C0B22900C9B209013144C96888476D1C7B
:10571000C4E72000C0B270BD3F2B0020402B00200A
:10572000F8B5A2B004000D0016006421002209AFF4
:105730003800FDF783FA02942800C0B2ADF80C00DF
:1057400004A830491322FDF7C9FA3000C0B200287E
:1057500005D1122204A90120FCF70BFF04E013225B
:1057600029490120FCF705FF2848D0E90023CDE9AD
:10577000002309A80090BDF80C0064280ADA02A9E9
:105780006846FCF7A2FEBDF8042000990120FCF752
:10579000F0FE04E00A221E490120FCF7EAFE022284
:1057A00007A10120FCF7E5FE23B0F0BDA403002013
:1057B000840400200004024028020108400201087D
:1057C0000D0A000068020020D42A002000060020F4
:1057D000DC2A00205C09010800000240702A002039
:1057E000D4080020CC2A0020001071005C090020A1
:1057F00098290020580F0020B0290020C829002037
:10580000000C02407003010884030108F00B01083A
:105810006809010810B5040001224FF40041DFF8C7
:10582000480A02F0F1FB01224FF40071DFF8600C2E
:1058300002F0EAFB012010BD01000020DFF8542C2B
:1058400010700120704710B504000120DFF81C1A09
:105850000870DFF81C0A006901280DD1002000F053
:1058600027FF0321DFF8300CFDF78BFA44F62061A7
:10587000032000F0FDFE0CE0002000F019FF0321E2
:10588000DFF8140CFDF77DFA44F62061032000F0E8
:10589000EFFE012010BD70B504000220DFF8CC1926
:1058A0000870002500F0FCFD06003000C0B20028A2
:1058B00005D002280ED002D3032816D01CE04121C7
:1058C000022000F03FFE2100C9B2DFF8CC0BFDF74B
:1058D00067FA11E00421DFF8C00BFDF752FA44F635
:1058E0002061042000F0C4FE06E02100C9B2DFF808
:1058F000A80BFDF755FAFFE7012070BD10B50400B5
:105900000320DFF868190870DFF86419C87A0028E6
:1059100044D00A200873087B00283FD0087B401E33
:105920000873087B084440780028F4D00020DFF892
:10593000942A0B7B1A445070C87A401EC872087BA8
:10594000401C0873087B401E032809D9001F01284A
:105950000BD9801E01280DD9801E01280FD913E014
:105960000420DFF8381BC8700EE00320DFF82C1B82
:10597000C87009E00220DFF8241BC87004E0012091
:10598000DFF8181BC870FFE70521DFF80C0BFDF7E7
:10599000F8F944F62061052000F06AFE012010BDF0
:1059A00070B504000420DFF8C4180870002600F069
:1059B00077FD0500DFF8E40A8178C278914229D0AA
:1059C0002900C9B200290AD0022903D015D303291E
:1059D00018D018E06421012000F0B4FD13E08178B4
:1059E000C078814204D26421012000F0ABFD03E0C5
:1059F0004121022000F0A6FD05E04121022000F037
:105A0000A1FD00E0FFE72100C9B2DFF88C0AFDF735
:105A1000B8F90DE00021002000F094FD0621DFF828
:105A2000780AFDF7BDF94EF66021062000F020FE51
:105A3000012070BD70B504000520DFF83018087033
:105A4000DFF82C58DFF87C69287B305C297B695CA7
:105A5000884223D03078002803D1287B00F099FBBE
:105A600015E004F071FDF168401A41F29511884289
:105A70000DD300F0B1FB287B305C401C297B7054B7
:105A800000230B22DFF8B81A0120FCF7CDFA210021
:105A9000C9B2DFF8040AFDF774F923E000F09CFBBB
:105AA000E87A00280AD00421DFF8EC09FDF778F93C
:105AB00044F62061042000F0DBFD0DE00020DFF85B
:105AC000DC19C8700721DFF8D009FDF75AF944F650
:105AD0002061072000F0CCFD002000F0CBFB00206F
