:020000040800F2
:10000000602F00201D0C010809FC00080BFC0008F3
:100010000DFC00080FFC000811FC000800000000A7
:1000200000000000000000000000000013FC0008B9
:1000300015FC00080000000017FC000819FC00086F
:100040000D10010811100108151001081910010800
:100050001D1001082110010829FC000833FC0008CC
:100060003DFC000847FC000851FC00082510010871
:100070005BFC0008291001082D100108311001084F
:1000800065FC000835100108391001083D10010811
:100090004110010845100108491001086FFC0008D3
:1000A0004D100108511001085510010859100108A0
:1000B0005D10010861100108651001086910010850
:1000C0006D10010871100108751001087910010800
:1000D0007D10010895FC00089FFC0008A9FC0008A1
:1000E000B3FC0008E7FC0008811001088510010836
:1000F000891001088D100108911001089510010860
:10010000991001089D100108A1100108A51001080F
:10011000A9100108AD100108B1100108B5100108BF
:10012000F1FC0008B9100108FBFC0008BD10010833
:10013000C11001080000000000000000C510010807
:10014000C9100108CD100108D1100108D51001080F
:10015000D9100108DD100108E1100108E5100108BF
:10016000E9100108ED100108F1100108F51001086F
:10017000F9100108FD100108000000000000000057
:100180000111010805110108F8B504000D00002651
:100190000027DFF89C0B0178022901D101210F0013
:1001A0003900C9B211FA85F11431A28891422DDBD0
:1001B00001230422DFF87C1B007801F0ABFF14223E
:1001C0000021DFF8740B02F03EFADFF8701B00200C
:1001D00008812E00320092B2A3883800C0B21B1AE8
:1001E0009A420EDA088914280BD22068320092B2A3
:1001F000805C4A680B89D0540889401C0881761CB1
:10020000E8E702F034FB01F04DFF06E000230E2288
:10021000DFF8E41C007801F07DFFF1BD38B5040083
:100220000D00DFF8180B002302894168DFF8000B8E
:10023000007801F06FFF31BD70477047704770471D
:10024000704770472DE9F84304000F000025002691
:10025000A088390089B2491D884209DA00230D229D
:10026000DFF8DC1ADFF8C80A007801F053FF4AE033
:100270002068390089B2405CB0F130017F1C0A224D
:1002800020683B009BB2C05C02FB0101B1F1300869
:100290007F1C7F1C2068390089B2405C30387F1C8D
:1002A00010FB02F021683A0092B2895C4018B0F16C
:1002B00030097F1C4046C0B200281BD04046C0B267
:1002C000332817DA484680B23D2813DADFF82C0CC1
:1002D00080F80080A0F8029002F035FB02F0BCFC30
:1002E00001230422DFF84C1ADFF8440A007801F0F9
:1002F00011FF08E000230722DFF8041CDFF8300AB2
:10030000007801F007FFBDE8F183FEB504000D00A1
:1003100000260C2100226F46380002F005FD6846D9
:1003200066213200D2B28154761C72213200D2B2E0
:100330008154761C65213200D2B28154761C712121
:100340003200D2B28154761C3D213200D2B28154A7
:10035000761CDFF8A81B0A780A2392FBF3F23032EE
:100360003300DBB2C254761C0A780A2392FBF3F7FF
:1003700003FB172230323300DBB2C254761C7822E2
:100380003300DBB2C254761C4A880A2392FBF3F294
:100390000A2392FBF3F703FB172230323300DBB260
:1003A000C254761C49880A2291FBF2F302FB131116
:1003B00030313200D2B28154761C00233200D2B2E6
:1003C00092B26946DFF86809007801F0A3FEF7BD34
:1003D0002DE9F04104000D002E0000275FF0000819
:1003E0003000A18880B288420DD22068310089B2E5
:1003F000405C302805DB2068310089B2405C3A2837
:1004000001DB761CECE73000A18880B2884219D26B
:100410002068310089B2405C80464046C0B2302836
:1004200008DB4046C0B23A2804DA3000A18880B226
:10043000884200D306E00A20474357FA88F7303F46
:10044000761CE0E7DFF8B40A476002F07CFA02F0BD
:1004500003FC00230522DFF86C1BDFF8D4080078CA
:1004600001F058FEBDE8F08138B588B004000D00F9
:1004700003A8DFF8541B142202F0B6FCDFF84C0B83
:10048000D0E90023CDE9012303A8019000200090CA
:10049000DFF8680A4268002301A801F0EFFE00239C
:1004A000BDF808200199DFF88808007801F032FED5
:1004B00009B030BD704770B504000D000021206800
:1004C0002A0092B2805CB0F130026D1C0A232068D1
:1004D0002E00B6B2805D03FB0202B2F130066D1C45
:1004E0003000C0B233280EDADFF8100A067002F0CE
:1004F0002AFA01230422DFF83C18DFF834080078D8
:1005000001F008FE08E000230622DFF88C1BDFF86C
:100510002008007801F0FEFD70BD704738B504007A
:100520000D00DFF80C08017801290BD1012304220A
:10053000DFF80018007801F0EDFD0621DFF8E00C8F
:1005400002F095FC31BD2DE9F84304000D00A946E9
:10055000002600275FF000084846A18880B2884244
:100560000ED22068494689B2405C302805DB2068FD
:10057000494689B2405C3A2802DB19F10109EBE7F0
:100580002068494689B2405C2C281AD02068494628
:1005900089B2405C80464046C0B2302808DB404605
:1005A000C0B23A2804DA4846A18880B2884200D313
:1005B00007E00A20464356FA88F6303E19F1010951
:1005C000DEE74846A18880B288420ED220684946BC
:1005D00089B2405C302805DB2068494689B2405C1E
:1005E0003A2802DB19F10109EBE72068494689B294
:1005F000405C2C281AD02068494689B2405C80466D
:100600004046C0B2302808DB4046C0B23A2804DA7F
:100610004846A18880B2884200D307E00A204743B9
:1006200057FA88F7303F19F10109DEE7B6F5803F48
:100630000BD2B7F5803F08D20023022295A1DFF844
:10064000F006007801F066FD08E000230E22DFF8D6
:10065000D81BDFF8DC06007801F05CFDBDE8F18313
:100660007047704770477047704770B40D000023A3
:1006700000242A00868892B2B2420DD202682E006F
:10068000B6B2925D302A05DB02682E00B6B2925DEA
:100690003A2A01DB6D1CECE702682E00B6B2925DCF
:1006A0002C2A19D002682E00B6B2925D14002200E6
:1006B000D2B2302A08DB2200D2B23A2A04DA2A0067
:1006C000868892B2B24200D306E00A22534353FA1C
:1006D00084F3303B6D1CDFE770BC7047704770B52A
:1006E00088B004000D000C2100226E46300002F09C
:1006F0001BFB1421002203AE300002F015FB206822
:10070000290089B200EB0106B0783A2802D170794D
:100710003A2809D000230522DFF8F01BDFF8100685
:10072000007801F0F7FC41E00A213278707801FB93
:100730000202B2F110008DF80000F278307901FB6E
:100740000202B2F110008DF80100B279F07901FBDC
:100750000201B1F110008DF80200684602F019FCA8
:10076000012809D000230522DFF8A01BDFF8C0050F
:10077000007801F0CFFC19E09DF802008DF80E0022
:100780009DF801008DF80D009DF800008DF80C001B
:10079000002203A9DFF8DC0B02F0DCFC00230222BC
:1007A0003CA1DFF88C05007801F0B4FC08B070BD06
:1007B0007FB504000D000C21002201AE300002F0D4
:1007C000B3FA042100226E46300002F0ADFA206830
:1007D000290089B200EB010670782D2805D1307907
:1007E0002D2802D1F0792D2809D000230522DFF829
:1007F0001C1BDFF83C05007801F08CFC49E03078E8
:1008000031388DF807000A21B278F07801FB020236
:10081000B2F110008DF808007279B07901FB020284
:10082000B2F110008DF80900327A707A01FB0201F2
:10083000B1F110008DF80A0001A802F0AAFB01280E
:1008400009D000230522DFF8C41ADFF8E404007899
:1008500001F060FC1DE09DF807008DF800009DF898
:1008600008008DF802009DF809008DF801009DF840
:100870000A008DF8030000226946DFF8F80A02F04A
:1008800010FD0023022203A1DFF8A404007801F088
:1008900041FC7FBD4F4B00007FB504000D000C21D3
:1008A00000226E46300002F03FFA206840782D2882
:1008B00013D1206800792D280FD12068C0792D2808
:1008C0000BD12068807A2C2807D12068407B3A28F9
:1008D00003D12068007C3A2809D000230522DFF8E4
:1008E0002C1ADFF84C04007801F014FC72E0206848
:1008F000007831388DF803000A212068827820685A
:10090000C07801FB0202B2F110008DF804002068EB
:1009100042792068807901FB0202B2F110008DF863
:1009200005002068027A2068407A01FB0202B2F1D9
:1009300010008DF806002068C27A2068007B01FB59
:100940000202B2F110008DF800002068827B20685E
:10095000C07B01FB0202B2F110008DF8010020689B
:10096000427C2068807C01FB0201B1F110008DF80F
:100970000200684602F00DFB012808D00023052282
:10098000DFF88819EA48007801F0C4FB22E0DFF8BC
:10099000D40A9DF80310C1709DF8041001719DF8F0
:1009A000051041719DF8061081719DF800100170CD
:1009B0009DF8011041709DF8021081700321DFF84D
:1009C000600802F054FA00230222AFA1D848007850
:1009D00001F0A0FB7FBDF8B58AB004000D00002631
:1009E000282100226F46380002F09EF968467421E3
:1009F0003200D2B28154761C69213200D2B28154C5
:100A0000761C6D213200D2B28154761C65213200F1
:100A1000D2B28154761C3D213200D2B28154761C70
:100A2000DFF8A81B0A780A2392FBF3F23032330076
:100A3000DBB2C254761C0A780A2392FBF3F703FB5D
:100A4000172230323300DBB2C254761C3A22330014
:100A5000DBB2C254761C4A780A2392FBF3F230329E
:100A60003300DBB2C254761C4A780A2392FBF3F7B8
:100A700003FB172230323300DBB2C254761C3A2219
:100A80003300DBB2C254761C8A780A2392FBF3F25D
:100A900030323300DBB2C254761C8A780A2392FBD0
:100AA000F3F703FB172230323300DBB2C254761C5B
:100AB0003B223300DBB2C254761C0D223300DBB282
:100AC000C254761C64223300DBB2C254761C61220D
:100AD0003300DBB2C254761C74223300DBB2C25442
:100AE000761C65223300DBB2C254761C3D223300F3
:100AF000DBB2C254761CCA7831323300DBB2C25446
:100B0000761C2D223300DBB2C254761C0A790A23EC
:100B100092FBF3F230323300DBB2C254761C0A7916
:100B20000A2392FBF3F703FB172230323300DBB2C8
:100B3000C254761C2D223300DBB2C254761C4A7993
:100B40000A2392FBF3F230323300DBB2C254761C3C
:100B50004A790A2392FBF3F703FB17223032330062
:100B6000DBB2C254761C2D223300DBB2C254761C99
:100B70008A790A2392FBF3F230323300DBB2C2549B
:100B8000761C89790A2291FBF2F302FB13113031B2
:100B90003200D2B28154761C00233200D2B292B21B
:100BA00069466348007801F0B5FA0BB0F0BD7047B4
:100BB00038B504000D000023022233A15C48007800
:100BC00001F0A8FA01F06EFA31BD38B504000D004D
:100BD0000221DFF8EC0A02F059F900230722DFF8BE
:100BE000E41A5348007801F095FA31BD38B5040095
:100BF0000D00DFF8D40A0023828801684C48007891
:100C000001F088FA31BD7047704778B58BB00400A9
:100C10000D001E21002203AE300002F085F8DFF83F
:100C2000580BD0E90023CDE9012303A80190DFF898
:100C30004C6B00200090B28E002301A801F01EFB37
:100C40002F200199BDF808208854BDF80800401CE9
:100C5000ADF8080000200090F28D002301A801F0FB
:100C60000DFB0023BDF8082001993148007801F000
:100C700051FA0CB070BD38B504000D00DFF8AC1CA3
:100C8000022001F052FD31BD4F4B0000704770470C
:100C900038B504000D00290089B2200000F032F9B7
:100CA000010089B2022002F0CDFF31BD38B5040049
:100CB0000D00290089B2200000F024F9010089B25A
:100CC000002002F0BFFF31BD38B504000D0029003F
:100CD00089B2200000F016F9010089B2012002F06B
:100CE000B1FF31BD38B504000D00290089B22000E4
:100CF00000F008F9010089B2032002F0A3FF31BD22
:100D000038B504000D0000230C22DFF8E41A08486F
:100D1000007801F0FFF931BD38B504000D00002363
:100D20000C22DFF8CC1A0248007801F0F3F931BD4B
:100D3000532B00205C0F0108C4080020D8080020B5
:100D40001C0B01087047704770472DE9FC470400F1
:100D50000D005FF0FF360022DFF8283BD3E90001E9
:100D6000CDE900015FF000094846A18880B28842C1
:100D700024D22068494689B2405C3D2805D02068CD
:100D8000494689B2405C3F2800D117E020684946B7
:100D900089B2405C41280EDB2068494689B2405C3C
:100DA0005B2808DA2068494689B2405C2030216817
:100DB0004A4692B2885419F10109D5E70027380054
:100DC000C0B25C2880F29480DFF8FC8A21003800F1
:100DD000C0B200014044083002F0BEFF0600002E01
:100DE00000F184803800C0B200014044406800280F
:100DF0007CD0DFF8D8AA1AF1300001F09CFB00206B
:100E0000010089B2A288921B914224DA2168314400
:100E1000020092B2895C3F290BD021683144020064
:100E200092B2895C3D2904D0BAF83410B1F5807FC4
:100E300000DB10E021683144020092B2895CDAF8EC
:100E40003020BAF83430D154BAF83410491CAAF81A
:100E50003410401CD4E73900C9B2090141448989E2
:100E600016FA81F6B1464846A18880B2884226D259
:100E70002068494689B2405C0D280CD1484680B2B2
:100E8000A188491E884206DA2068494689B208448A
:100E900040780A2813D0BDF8040080280CD22068BE
:100EA000494689B2405C0099BDF804208854BDF8D9
:100EB0000400401CADF8040019F10109D3E7DFF884
:100EC000600C05702800C0B2401E012802D9801EA7
:100ED00009D009E0002168463A00D2B2120142442A
:100EE0005268904700E0FFE7012002E07F1C66E7C0
:100EF0000020BDE8F68700000C0B01082409002043
:100F0000640F010870B402004FF6FF700023002444
:100F10000D009688ADB2B5422ED20D00691C166840
:100F2000ADB2755D282DF3D10025280000252C00D9
:100F300015680E00B6B2AD5D2B00491C1D00EDB268
:100F4000302D19DB1D00EDB23A2D15DA0A2510FB04
:100F500005F050FA83F03038641C15680E00B6B204
:100F6000AD5D2B00491C2500EDB2082D04DA9588F3
:100F70000E00B6B2B542E1D280B270BC7047704785
:100F80007047704770477047704738B504000D00D0
:100F900000230422DFF87C1ADFF8840B007801F0CC
:100FA000B9F804F04AFA31BD38B504000D00092142
:100FB000DFF8640A01F05BFF0020DFF8681B48706F
:100FC00031BD00006C0F0108F8060108D40F0108BC
:100FD000F8B505000E00002428680078302851DBA1
:100FE000286800783A284DDA002700200100C9B2AD
:100FF000AA8889B291420FD229680200D2B2895CD4
:10100000302905DB29680200D2B2895C3A2900DB6D
:1010100002E07F1C401CE9E73900C9B2286801F0F2
:101020009CFA0400002C23D0DFF8F80AC1780229CA
:1010300003D1200003F0A4FF2DE0C078002809D0E0
:1010400002280ED00ED20D22DFF8DC1A012001F0AA
:1010500006FB07E01022DFF8D41A012001F0FFFAA6
:1010600000E0FFE702226FA1012001F0F8FA12E090
:1010700000230622DFF8B81ADFF8A40A007801F08E
:1010800049F808E000230722DFF8381BDFF8900A50
:10109000007801F03FF8F1BD740F0108F8B50500C4
:1010A0000E0000242868007830284EDB286800787D
:1010B0003A284ADA002700200100C9B2AA8889B27A
:1010C00091420FD229680200D2B2895C302905DB37
:1010D00029680200D2B2895C3A2900DB02E07F1C59
:1010E000401CE9E73900C9B2286801F036FA04006B
:1010F000002C20D0DFF82C1AC878012802D0C8783C
:10110000002803D1200003F0F1FE27E0C878002872
:1011100003D0022802D008D207E006E00B22DFF855
:10112000441B012001F09BFAFFE702223DA10120B0
:1011300001F095FA12E000230622DFF8F419DFF837
:10114000E009007800F0E6FF08E000230722DFF85E
:10115000741ADFF8CC09007800F0DCFFF1BDF8B5B7
:1011600004000D0000262068007830284DDB206840
:1011700000783A2849DA002700200100C9B2A28885
:1011800089B291420FD221680200D2B2895C302923
:1011900005DB21680200D2B2895C3A2900DB02E05B
:1011A0007F1C401CE9E73900C9B2206801F0D5F97D
:1011B0000600300000B201281DDB300000B20B2811
:1011C00019DA3000C0B205F03AF9012809D100233C
:1011D0000422DFF84018DFF84809007800F09AFF91
:1011E0001CE000231722DFF81C1BDFF8340900780D
:1011F00000F090FF12E000230622DFF83419DFF838
:101200002009007800F086FF08E000230722DFF8BD
:10121000B419DFF80C09007800F07CFFF1BD000084
:10122000080000200D0A00002C0B01082DE9F041F8
:1012300004000D00002600272068007830285ADBC3
:10124000206800783A2856DA5FF000080020010094
:10125000C9B2A28889B2914217D221680200D2B2E3
:10126000895C302905DB21680200D2B2895C3A2909
:1012700007DB21680200D2B21144497830390F00EF
:1012800003E018F10108401CE1E74146C9B22068BB
:1012900001F063F90600300000B20B2821DA3800B3
:1012A00000B20B281DDADFF8101B087800280ED1D9
:1012B000300000B20F5405F0E6F800230422DFF8F6
:1012C0005417DFF85C08007800F024FF1CE00023CE
:1012D0001722DFF8301ADFF84808007800F01AFF0C
:1012E00012E000230622DFF84818DFF834080078FF
:1012F00000F010FF08E000230722DFF8C818DFF82D
:101300002008007800F006FFBDE8F0817C0F01089E
:1013100078B58FB004000D003221002202AE3000FB
:1013200001F002FD0020ADF804000B200090002326
:10133000DFF8082B01A902A805F0F0FE0023DFF872
:10134000E407827801A902A805F029FE0720009091
:101350000023DFF8EC2A01A902A805F0DFFE002334
:10136000BDF8042002A9DFF8780C007800F0D2FE66
:1013700010B070BD28290020F8B504000D0000262B
:101380002068007830282FDB206800783A282BDA94
:10139000002700200100C9B2A28889B291420FD271
:1013A00021680200D2B2895C302905DB2168020085
:1013B000D2B2895C3A2900DB02E07F1C401CE9E7DD
:1013C0003900C9B2206801F0C8F806003000C0B288
:1013D00004F0D6F800230422DFF83816DFF8000CFA
:1013E000007800F097FE08E000230722DFF8D4170A
:1013F000DFF8EC0B007800F08DFEF1BD78B58FB012
:1014000004000D003221002202AE300001F08CFCFD
:101410000020ADF804000B2000900023DFF8E42A40
:1014200001A902A805F07AFEFF23DFF8DC0AB0F973
:10143000002001A902A805F0B2FD042000900023BD
:10144000DFF8C82A01A902A805F068FE0023BDF84C
:10145000042002A9DFF8880B007800F05BFE10B0D2
:1014600070BD0000B42A00202DE9F84304000D00EF
:101470000026206800782D2836D100275FF000086C
:1014800030202168087000200100C9B2A28889B20A
:10149000914210D221680200D2B2895C302905DB6A
:1014A00021680200D2B2895C3A2900DB03E018F11E
:1014B0000108401CE8E74146C9B2206801F04DF838
:1014C0008146484680B240420600FF21300000B20B
:1014D00005F0B6FF00230422DFF83815DFF8000B13
:1014E000007800F017FE3DE020680078302830DBFF
:1014F000206800783A282CDA002700200100C9B2C1
:10150000A28889B291420FD221680200D2B2895CCE
:10151000302905DB21680200D2B2895C3A2900DB60
:1015200002E07F1C401CE9E73900C9B2206801F0E5
:1015300014F80600FF21300000B205F081FF0023FF
:101540000422DFF8D014DFF8980A007800F0E2FDFA
:1015500008E000230722DFF86C16DFF8840A007821
:1015600000F0D8FDBDE8F18378B58FB004000D0020
:101570003221002202AE300001F0D6FB0020ADF88F
:1015800004000C2000900023DFF8642A01A902A8BF
:1015900005F0C4FDFF23DFF87009827801A902A8D5
:1015A00005F0FDFC042000900023DFF8602901A96C
:1015B00002A805F0B3FD0023BDF8042002A9DFF85E
:1015C000200A007800F0A6FD10B070BDC02A0020EF
:1015D000F8B504000D00002620680078302833DBC1
:1015E000206800783A282FDA002700200100C9B2CD
:1015F000A28889B291420FD221680200D2B2895CDE
:10160000302905DB21680200D2B2895C3A2900DB6F
:1016100002E07F1C401CE9E73900C9B2206800F0F5
:101620009CFF0600DFF8E0088670FF21B0F900009B
:1016300005F006FF00230422DFF8D813DFF8A00925
:10164000007800F067FD08E000230722DFF874153A
:10165000DFF88C09007800F05DFDF1BD78B58FB042
:1016600004000D003221002202AE300001F05CFBCC
:101670000020ADF804000A2000900023DFF8742950
:1016800001A902A805F04AFD0023DFF86C090278E1
:1016900001A902A805F083FC022000900023A4A267
:1016A00001A902A805F03AFD0023BDF8042002A913
:1016B000DFF82C09007800F02DFD10B070BD00009F
:1016C00024030020840F010878000020F8B50400EE
:1016D0000D00002620680078302842DB2068007862
:1016E0003A283EDA002700200100C9B2A28889B258
:1016F00091420FD221680200D2B2895C302905DB09
:1017000021680200D2B2895C3A2900DB02E07F1C2A
:10171000401CE9E73900C9B2206800F01EFF06004E
:10172000300000B2012812DB300000B2B0F5807F3B
:101730000DDADFF8C408067006F0BFF800230422B3
:10174000B449DFF89C08007800F0E4FC12E00023C4
:101750000722DFF87014DFF88808007800F0DAFC60
:1017600008E000230722DFF85C14DFF87408007833
:1017700000F0D0FCF1BD0000DC0F0108EC020020FD
:1017800038B504000D002068290089B2405C30287B
:1017900005D02068290089B2405C312807D1002398
:1017A00004229C49DFF83808007800F0B3FC206878
:1017B000290089B2405C3038002808D10020009010
:1017C000012301220021002006F0BCFA0EE020686F
:1017D000290089B2405C3038012807D100200090F0
:1017E000012301220121002006F0ACFA31BD0000E6
:1017F0003C0B010838B504000D002068290089B2AF
:10180000405C302805D02068290089B2405C31282E
:1018100006D1002304227F49C148007800F07AFCF9
:101820002068290089B2405C3038002808D10020A7
:101830000090012301220021022006F083FA20E01B
:101840002068290089B2405C3038012819D1DFF8BE
:10185000A807807C002808D00020009001230122E6
:101860000121022006F06EFA0BE00120DFF88C1750
:10187000887101200090012301220021022006F03E
:1018800061FA31BDE40F0108704770477047704737
:10189000704738B504000D00A2480079012809D12D
:1018A00000231122DFF85817DFF83407007800F022
:1018B00031FC08E000230E22DFF84817DFF820078C
:1018C000007800F027FC31BD4CF40008D808002057
:1018D00038B504000D002068007830281DDB206832
:1018E00000783A2819DA206800783038C0B203F05E
:1018F000B3FE012808D1002304224649DFF8E006A0
:10190000007800F007FC10E000230722AD49DFF863
:10191000D006007800F0FEFB07E000230722A9496B
:10192000DFF8BC06007800F0F5FB31BD7802010855
:101930000D0A000038B504000D0005F071FE31BD40
:101940002DE9F04104000D000026002720680078F2
:101950002D2801D10120070020683900C9B2405C60
:1019600030284DDB20683900C9B2405C3A2847DA9C
:101970005FF0000838000100C9B2A28889B2914224
:1019800010D221680200D2B2895C302905DB2168BF
:101990000200D2B2895C3A2900DB03E018F10108A9
:1019A000401CE8E74146C9B220683A00D2B2104470
:1019B00000F0D3FD06003800C0B2012801D136B2D4
:1019C0007642300000B27FF4F97188420CDB3000BF
:1019D00000B2B0F5FA7F07DADFF82C060088301A7B
:1019E00000B205F07DFD02E0002005F079FD002346
:1019F00004220849DFF8E805007800F08BFB07E0D7
:101A0000002307226F49DFF8D805007800F082FB39
:101A1000BDE8F0818C0F0108A403002038B5040054
:101A20000D0005F07CFF31BDF0B59BB004000D004A
:101A30006421002202AE300001F076F90020ADF8FA
:101A400004000C2000900023DFF8C02501A902A8A3
:101A500005F064FBDFF8B8653078002809D105206F
:101A600000900023DFF8AC2501A902A805F056FB81
:101A700008E0042000900023DFF89C2501A902A8BB
:101A800005F04CFB092000900023DFF8902501A908
:101A900002A805F043FB0023727801A902A805F013
:101AA0007EFA96A70120009000233A0001A902A81F
:101AB00005F034FB0023B27801A902A805F06FFA03
:101AC0000A2000900023DFF8582501A902A805F09C
:101AD00025FB0023F27801A902A805F060FA012095
:101AE000009000233A0001A902A805F017FB00238B
:101AF000327901A902A805F052FA032000900023D0
:101B00007FA201A902A805F009FB0023BDF804206B
:101B100002A9DFF8CC04007800F0FCFA1BB0F0BD9D
:101B2000532B0020840400204C0B01080C070108F3
:101B3000940F01082DE9FC4704000D000020ADF8CA
:101B4000040001AAA188206805F09EFA060001AAF7
:101B5000A188206805F098FA070001AAA1882068EA
:101B600005F092FA804601AAA188206805F08CFA57
:101B7000814601AAA188206805F086FA824650466F
:101B8000C0B200904B46DBB24246D2B23900C9B275
:101B90003000C0B203F0ACFD012809D100230422BB
:101BA000DFF88014DFF83804007800F0B3FA07E0BB
:101BB000002307220349DFF82804007800F0AAFA7E
:101BC000BDE8F3879C0F010878B59BB004000D00B9
:101BD0006421002202AE300001F0A6F80020ADF82A
:101BE00004000C2000900023DFF83C2401A902A887
:101BF00005F094FADFF83404C07800280CD00228ED
:101C000014D01CD20D2000900023DFF8242401A959
:101C100002A805F083FA12E0102000900023DFF8FC
:101C2000142401A902A805F079FA08E00B2000901D
:101C300000230C4A01A902A805F070FAFFE7022070
:101C4000009000238EA201A902A805F067FA0023E4
:101C5000BDF8042002A9DFF88803007800F05AFAE2
:101C60001CB070BD280E010838B504000D005248A4
:101C7000007800280BD104F0F3FE00230422DFF8E3
:101C8000A413DFF85C03007800F044FA08E00023B6
:101C90000F22DFF8A413DFF84803007800F03AFAC7
:101CA00031BDFEB504000D00434EB07B012819D1B3
:101CB0000A2100226F46380001F036F8002708227A
:101CC000DFF87813022000F0CAFC318A684605F07C
:101CD00035F806003200D2B292B26946022000F016
:101CE000BEFC05E01422DFF85813022000F0B7FC18
:101CF000022263A1022000F0B2FCF7BD3A0000000E
:101D00002E0D0A005C050108F8B504000D00002640
:101D100020680078302847DB206800783A2843DACA
:101D2000002700200100C9B2A28889B291420FD2D7
:101D300021680200D2B2895C302905DB21680200EB
:101D4000D2B2895C3A2900DB02E07F1C401CE9E743
:101D50003900C9B2206800F000FC0600300000B273
:101D600001280AD1012004F089FE00230422AD4994
:101D70009B48007800F0CEF91DE0300000B200284A
:101D80000AD1002004F07AFE00230422A5499448D9
:101D9000007800F0BFF90EE000230622A949904820
:101DA000007800F0B7F906E000230722A6498C4826
:101DB000007800F0AFF9F1BD9C29002038B504008F
:101DC0000D000E22A149022000F049FC4FF4804191
:101DD0009F4806F0F4FA012805D1022281A10220D1
:101DE00000F03DFC04E003227FA1022000F037FC5C
:101DF00002227EA1022000F032FC31BD38B5040081
:101E00000D000E229349022000F029FC4FF40051EE
:101E10008F4806F0D4FA012805D1022271A10220D0
:101E200000F01DFC04E003226FA1022000F017FC6B
:101E300002226EA1022000F012FC31BD340E010816
:101E4000A40F010838B504000D000F2282490220BA
:101E500000F005FC81484069002805D10422804932
:101E6000022000F0FCFB04E005227E49022000F085
:101E7000F6FB02225DA1022000F0F1FB31BD000063
:101E80000D0A0000F8B504000D0000262068007857
:101E900030282FDB206800783A282BDA0027002032
:101EA0000100C9B2A28889B291420FD22168020012
:101EB000D2B2895C302905DB21680200D2B2895C8C
:101EC0003A2900DB02E07F1C401CE9E73900C9B277
:101ED000206800F042FB0600300000B2062810DA4D
:101EE0006148C6701221614800F0D0FF01205B49B3
:101EF000087006E00023072253493948007800F0B3
:101F000009F9F1BD400E010804060020AC0F0108DC
:101F100078B58FB004000D003221002202AE3000EF
:101F200000F002FF0020ADF804000B200090002319
:101F30004F4A01A902A805F0F1F800234D480278A4
:101F400001A902A805F02BF802200090002327A287
:101F500001A902A805F0E2F80023BDF8042002A9B7
:101F60001F48007800F0D6F810B070BDF8B5040036
:101F70000D00002620680078302828DB20680078D3
:101F80003A2824DA002700200100C9B2A28889B2C9
:101F900091420FD221680200D2B2895C302905DB60
:101FA00021680200D2B2895C3A2900DB02E07F1C82
:101FB000401CE9E73900C9B2206800F0CEFA0600FB
:101FC000300000B2652809DA2A48067006E00023CE
:101FD00007221D490248007800F09CF8F1BD00007E
:101FE000532B00204F4E00004F4646000D0A0000C4
:101FF0005C0B01084C0E010868020020DC2A00205E
:10200000200701086C0B0108E42A00207C0B010862
:10201000D42A0020B40F0108BC0F0108580E010893
:10202000640E01088C0F01088C0B01088404002049
:102030004C0B01080C0701089C0B0108700E0108ED
:1020400074050108940F01089C0F0108AC0B0108EE
:10205000000C0240BC0B0108CC0B01089C2900209D
:10206000C40F0108CC0F0108442A00208000002082
:102070007C0E01085D090020BFF34F8F6A490A6892
:1020800012F4E062694802430A60BFF34F8F00BF59
:10209000FDE780B51321664800F00DF872B6FFF732
:1020A000EBFF02BD80B51F21624800F004F872B654
:1020B000FFF7E2FF01BD70B504000D002A0092B2E7
:1020C0002100022000F01CFB5B483B21C26BB0F8F2
:1020D0004030D154B0F84010491CA0F84010002105
:1020E0000A002B0092B29BB29A4212D2B0F8402062
:1020F000B2F5806F0DDA0A0092B2A25CC36BB0F841
:1021000040609A55B0F84020521CA0F84020491C6D
:10211000E6E770BD2DE9F84380460C0015001E006F
:1021200000274046C0B2401E03D0401E012809D9F6
:1021300056E04FF47A732A0092B221003F4806F02D
:10214000EFF94DE0DFF8F8904FF480720021484637
:1021500000F079FA3848002181852821828D09F81C
:102160000210818D491C818500210A00838E92B264
:102170009A420BD2026B0B009BB2D25C838D09F8A2
:102180000320828D521C8285491CEEE72922838D13
:1021900009F80320828D521C82852822838D09F83C
:1021A0000320828D521C8285002739002A0089B2C3
:1021B00092B291420AD2390089B2615C828D09F8EB
:1021C0000210818D491C81857F1CEEE72921828DBB
:1021D00009F80210818D491C818500218186FFE765
:1021E000BDE8F18380B5154806F079F906F091FE57
:1021F000144806F074F906F08DFE134806F06FF9E6
:1022000006F089FE01BD80B506F056FF06F06CFEB3
:1022100006F01EFF06F06FFE06F034FF06F072FEB9
:1022200001BD7047704700000CED00E00400FA05A6
:102230009807010898020108D80800208828002083
:1022400008220020002800204428002038B504007F
:102250000D00DFF84C050168200000F006F8A842E8
:1022600001D3012000E0002032BD814204D25FF0A2
:10227000FF32101A081800E0081A70472DE9F84FCD
:102280008AB0060014001D00DDF850905FF0000ACF
:102290005FF0000800271E2100220DF1080B5846B0
:1022A00000F042FDDFF8FC24D2E90001CDE9000195
:1022B00002A80090002D09D1002C07D130203168F0
:1022C000B2888854B088401CB08068E0002D01D1ED
:1022D000002C1AD0200029000A22002307F070F8F1
:1022E0009046200029000A22002307F069F8040024
:1022F0000D0018F130000099BDF804208854BDF895
:102300000400401CADF80400E0E75FF0000BBDF8EE
:102310000400022190FBF1F0594689B281421FDA94
:102320000098BDF804100844594689B2494208444F
:1023300010F8010C07000098BDF804100844594635
:1023400089B24942084400995A4692B2895C00F821
:10235000011C0098594689B247541BF1010BD6E77E
:102360004946C9B2684600F01DF800210800BDF8D2
:10237000042080B290420DD23068B28810440A0026
:1023800092B2009B8C461FFA8CFC13F80C308354DD
:10239000491CEBE7B288BDF804008218B2800BB08C
:1023A000BDE8F08F2DE9F84785B005000E005FF01D
:1023B0000009142100226C46200000F0B5FC002426
:1023C00000275FF000080020A988012903D12968AF
:1023D0000978302903D03100C9B2002900D1A7E023
:1023E0003100C9B2AA8889B2914235D369463022F8
:1023F0002300DBB2CA54641C2E222300DBB2CA5471
:10240000641CAA88B21A170000231A00BC465FFA9F
:102410008CFC92B21FFA8CFC624508D23022A44692
:102420005FFA8CFC01F80C20641C5B1CEDE70022B9
:102430001300B5F804C09BB2634543D22B689446A1
:102440001FFA8CFC13F80C30A4465FFA8CFC01F8E0
:102450000C30641C521CEBE7A988891B88460021BC
:102460000A004346DBB292B29BB29A420CD22A686F
:102470000B009BB2D25C6B46A4465FFA8CFC03F85F
:102480000C20641C491CEBE76B462E22A4465FFA25
:102490008CFC03F80C20641C4246D2B21100B5F843
:1024A00004C089B261450DD2296894461FFA8CFC9C
:1024B00011F80C10A4465FFA8CFC03F80C10641C95
:1024C000521CEBE7A1464946C9B2B1F1010A504698
:1024D00080B2002815D06846514689B2415C302947
:1024E00006D0514689B2405C2E2800D1641E08E017
:1024F000514689B2405C302800D1641EBAF1010A0D
:10250000E5E7280000F017F8002001002200D2B211
:1025100089B292B291420BD2A9884A1CAA806A461B
:1025200003009BB2D25C2B6889B25A54401CECE782
:1025300006B0BDE8F08710B400210A00838892B28B
:102540009A4206D2002203680C00A4B21A55491C14
:10255000F3E70022828010BC704770B403000022B1
:102560000024002000252A000E00D2B2F6B2B242AA
:102570001FD22A00D2B29A5C302A0ADB2A00D2B2D9
:102580009A5C3A2A05DA2A00D2B29A5C303A1400F0
:1025900001E0002214002A00D2B2002A03D1220056
:1025A000D2B2100003E00A22504350FA84F06D1CAE
:1025B000D9E770BC7047F0B4002200230025002446
:1025C00025008E88ADB2B54237D20D682600B6B26E
:1025D000AD5DEDB22D092A001500EDB20A2D07DA26
:1025E00012F1300506682700BFB206F8175006E062
:1025F00012F1370506682700BFB206F817500D68BC
:102600002600B6B2AD5D15F00F052B001D00EDB232
:102610000A2D08DA13F1300506682700BFB206EB71
:102620004706757007E013F1370506682700BFB24B
:1026300006EB47067570641CC2E78D88ADB26D006D
:102640008580F0BC704710B4040013005A1E9BB282
:10265000002B02D02170641CF7E710BC704770B5E6
:1026600004000D0016002000C0B2032807DA4FF462
:102670007A73320092B229004B4805F051FF70BDC9
:1026800038B504000D00280006F0B2FF020092B237
:1026900029002000C0B2FFF7E2FF31BDF0B585B0E0
:1026A00004000D001600022100226F46380000F0E1
:1026B0003BFB3E48D0E90023CDE901236846019069
:1026C00000273800310080B289B2884216D2380023
:1026D00080B2284403900120ADF810000020ADF82E
:1026E000080003A901A8FFF766FFBDF808200199BB
:1026F0002000C0B2FFF7B3FF7F1CE2E705B0F0BDDA
:1027000070B504000D001600320092B229002000BE
:10271000C0B2FFF7A4FF264A1068002804D0310099
:1027200089B228001268904770BD70B504000D0092
:10273000280006F05DFF020092B229002000C0B21E
:10274000FFF78DFF1A4E3068002807D0280006F0EA
:102750004FFF010089B228003268904770BD70B504
:1027600086B005000C000A21002203AE300000F004
:10277000DBFA1048D0E90023CDE9012303A801903A
:10278000002000902200002301A8FFF777FDBDF88C
:10279000082001992800C0B2FFF761FF06B070BDA4
:1027A000282B0020F40F010888280020FC0F0108C6
:1027B0002C2B00200410010880B500F086F800F0F2
:1027C00001F801BD38B586B0162100226C46200004
:1027D00000F0AAFA16224FF40051684607F0CFFB2A
:1027E0009DF80000AA2818D19DF801006E4900222A
:1027F0000A81002213000400DBB2E4B2A34234D207
:102800006B461400E4B223449B784C680D896355F1
:102810000B895B1C0B81521CECE7AA208DF8000091
:10282000614C20898DF8010000200100C9B2228985
:1028300089B291420AD261680200D2B2895C6A46CA
:102840000300DBB21A449170401CEEE74FF40050D5
:1028500007F0B1FA012007F057FD2289921C92B2CD
:102860004FF40051684607F06AFB07B030BD38B539
:102870008AB00025282100226C46200000F054FA7E
:10288000AA208DF80000484801898DF80110002425
:102890002100C9B2028989B291420AD2416822005C
:1028A000D2B2895C6A462300DBB21A449170641C80
:1028B000EEE74FF4005007F07EFA28224FF4005163
:1028C000684607F03CFB0BB030BD10B586B0182150
:1028D00000226C46200000F027FA00241822334919
:1028E000684607F04CFB9DF80000AA2827D19DF808
:1028F000010004002000C0B2182822DA2C486946E2
:102900008A7802709DF80320428042880B7953EA4E
:10291000022343809DF80520426042689DF80630FE
:1029200053EA0223436042689DF8073053EA0223CA
:1029300043604268097A51EA0221416001E000F0F7
:1029400002F806B010BD10B586B0182100226C4602
:10295000200000F0E9F9AA208DF8000007208DF88A
:1029600001001348694602788A70428892B2120ABE
:102970008DF8032042880A714268120E8DF80520F6
:102980004268120C8DF806204268120ACA7140682B
:102990000872064C200007F00EFA1022210068464B
:1029A00007F0CDFA06B010BDD80800200060700016
:1029B0002409002010B5040007F09DFD012010BD82
:1029C00038B50400C249087800280BD101200870EE
:1029D000C0488088C04908802100C9B2BF4800F0C3
:1029E00055FA1FE0BC48BB4DAA8803889A4212D111
:1029F00000200870AA8829680120FFF730FE95A101
:102A00000120FFF73DFE01212800FEF79EF9280076
:102A1000FFF791FD06E0A98801802100C9B2AF4807
:102A200000F034FA0020AE4981F84500012032BDA3
:102A300010B50400AB490220FFF722FE06F0DEFAD3
:102A4000012010BD10B50400A74807C807F0F4FD29
:102A50000421A24800F01AFA012010BD10B50400AC
:102A600000F030FA012010BD01009D4A507E002880
:102A70000AD1D07D401CD075D07D9C4B1B789842EC
:102A800004D30020D07501E00020D07501207047EC
:102A900001000120704780B507F04AFC00F012FAEF
:102AA00007F028FE01BD1CB507F036FE00F038F82F
:102AB0008F4C002000900FF2791300225FF0FF315D
:102AC000200007F03FFC44F62061200007F0F6FCF0
:102AD000200007F05DFC13BD10B5FFF7DCFFFFF72A
:102AE000E2FF84490220FFF7CBFD83490220FFF774
:102AF000C7FD82490220FFF7C3FD322007F004FC26
:102B000007F01EFE7E4C0020207000F01EF8217899
:102B10000843207000F0D2FF217808432070EFE7CF
:102B200080B506F0F9F9FFF747FE6D4808210175F9
:102B3000012141760FF2B100724908607248734971
:102B4000086073487349086001BD70B50020002417
:102B500000252800C0B207283ADA604E2800C0B22B
:102B6000000130444078012830D12800C0B2042848
:102B700001D0012004002800C0B2000130444068A8
:102B800000280ED007F0C6FE2900C9B20901314461
:102B90004968401A2900C9B209013144896888424C
:102BA00014D300202900C9B209013144487007F04C
:102BB000B1FE2900C9B20901314448602800C0B201
:102BC0002900C9B209013144C96888476D1CC0E7B2
:102BD000424A92F84100002803D10421100000F07D
:102BE00055F92000C0B270BD80B500213B4800F00F
:102BF0003EF901BD70B50400002500F063F94648B8
:102C00004178621AB1FBF4F104FB01213C22837884
:102C100002FB01F6B34208D251438078091A891C9D
:102C20004FF47A704143080000E03C4870BD00005A
:102C300010B5040007F053FA032803D11A213848CD
:102C4000FFF739FA0521254800F011F900F004F8E2
:102C500010BD00000D0A000038B542F21074314971
:102C60000878002807D10878401C08701F480078B1
:102C70001B49C87528E01A48407E012817D11B4D12
:102C80006868A86000F01EF9234A5078AB68AD6808
:102C90002D1AB0FBF3F103FB01513C204143907826
:102CA000091A891C4FF47A7041430C0008E00F495F
:102CB0000A78488842438A604888FFF79BFF0400EF
:102CC00021000B4807F0FAFB094807F061FB31BD12
:102CD0003E2B002040090020302B0020080000205F
:102CE000D8080020D8010108B42A002024090020B7
:102CF00084290020F8010108000301081C030108D1
:102D00003F2B0020202B0020300900201C2B00200E
:102D10000DFA00082C2B0020C02A0020C0D401008E
:102D200038030108402B002062F30F2262F31F4298
:102D3000401810F0030308D0C91A1FD3DB0748BF9F
:102D400000F8012D28BF20F8022D130030B41446DE
:102D50001546103928BF20E93C00FAD8490728BF9A
:102D600020E90C0048BF40F8042D890028BF20F856
:102D7000022D48BF00F8012D30BC7047C91818BF9C
:102D800000F8012DCB0728BF00F8012D704730B4A3
:102D9000002513E050F8042BD30744BFA9F1010329
:102DA0009A18091F042942F8045BFAD213468C07CB
:102DB00044BF15809B1CC90748BF1D7050F8041BF9
:102DC0000029E7D130BC704762B38B0708D0521E90
:102DD00011F8013B00F8013B00F024808B07F6D18D
:102DE000830740F0208000BF103A07D330B4B1E829
:102DF0003810103AA0E83810F9D230BC530724BF7D
:102E0000B1E80810A0E8081044BF51F8043B40F8AE
:102E1000043BD20724BF31F8022B20F8022B44BF19
:102E20000B7803707047121F17D35B0009D151F85C
:102E3000043B20F8023B1B0C121F20F8023BF6D289
:102E40000BE051F8043B00F8013B1B0A20F8023B61
:102E50001B0C121F00F8013BF3D238BF121D521E8B
:102E600024BF11F8013B00F8013BF8D8704702007D
:102E700001200B00DBB21B011344587000200B0033
:102E8000DBB21B01134458600120704738B50400C1
:102E90000D0001202900C9B209012144487007F042
:102EA00039FD2900C9B2090121444860012032BD21
:102EB000020000200B00DBB21B01134458700120FC
:102EC0007047000010B586B0DFF8BC41002201A9B0
:102ED000200000F0B2F900226946200000F044FA18
:102EE000DFF8A8019DF8061081709DF8051041706B
:102EF0009DF8041001709DF80010C1709DF802103B
:102F000001719DF8011041719DF80310817106B0A7
:102F100010BD17B587B01422002101A807F000FDED
:102F200004220021684607F0FBFC07A800F031F8F6
:102F300001282BD1099802909DF81E008DF80600FB
:102F40009DF81D008DF805009DF81C008DF804000B
:102F50009DF81F008DF800009DF820008DF80200FC
:102F60009DF821008DF801009DF822008DF80300E6
:102F7000DFF81441002201A9200000F0EBF8002244
:102F80006946200000F08DF9012000E000200AB021
:102F900010BD010088783D2801DB002023E048783F
:102FA0003D2801DB00201EE00878182801DB002006
:102FB00019E0C878092801DB002014E008792028EE
:102FC00001DB00200FE048790D2801DB00200AE03A
:102FD0008879642801DB002005E08879142801DA6B
:102FE000002000E00120704737B49DF8060040F251
:102FF000B5514843C01C80089DF80610042291FB7F
:10300000F2F402FB1411002901D1214A00E0214A07
:103010009DF805403D214C433C3C022194FBF1F1DD
:1030200008189DF80510491EC9B249001400CC408B
:1030300014F00304001B9DF80410491E08181649DB
:1030400048439DF802409DF801503C214D4355FAFC
:1030500084F49DF800504FF4616101FB0544201891
:103060001900C9B2012904D00CD3032907D003D316
:1030700008E00A49081805E00949081802E009496A
:103080000818FFE73EBC704728290020C02A00200E
:1030900050554400A0AA99008051010080A16DE91B
:1030A00080436D38801F860770B504000125002C11
:1030B00001D101204DE0607F002804D1002020775D
:1030C000200007F037FC02206077CA2021684862A0
:1030D000532021684862200000F02FFB06003000DA
:1030E000C0B200281ED120688168DFF8FC050140CD
:1030F0002068816020688168626820690243606995
:103100000243114320688160E068216808612068FB
:103110000069A16850EA014021680861200000F0C0
:1031200034FB06003000C0B200280DD12068006CCE
:1031300030F48020216808642068016CA069014394
:103140002068016401206077FF2021684862300018
:10315000C0B270BD2DE9F84305000E0014005FF009
:103160000008287F012801D1022064E0012028778F
:1031700002206877002C1CD128688068400601D4A2
:103180000020F070307800F019FB8146707800F074
:1031900015FB0700B07800F011FB5FFA89F9FFB268
:1031A0003F0257EA0947C0B20743F07857EA805711
:1031B0000FE028688068400601D40020F070307865
:1031C00077783F0257EA0047B0780743F07857EA2C
:1031D0008057CA202968486253202968486228001D
:1031E00000F0ABFA80464046C0B2002816D1DFF8A6
:1031F000FC043840296808602868806830F4802022
:103200002968886028688168F26830690243114340
:1032100028688160280000F0B8FA80464046C0B2B5
:10322000002801D101206877FF202968486200202A
:1032300028774046C0B2BDE8F283F8B505000E001D
:10324000140000212868806A7060286800694004C2
:10325000400CB06028680768DFF890040740380029
:10326000000C10F03F0030703800000A10F07F00B2
:10327000707017F07F00B0703800800D10F0010002
:10328000F070002C0BD1307800F0A4FA3070707818
:1032900000F0A0FA7070B07800F09CFAB0700020D6
:1032A000F2BD2DE9F84305000E0014005FF00008A0
:1032B000287F012801D1022054E001202877022034
:1032C0006877002C07D17078C00604D5707810F0AC
:1032D000EF000A307070002C16D1F07800F06EFA12
:1032E0008146707800F06AFA0700B07800F066FA5C
:1032F0005FFA89F9FFB23F0257EA0947C0B20743B4
:10330000307857EA403709E0F07877783F0257EA9B
:103310000047B0780743307857EA4037CA20296819
:103320004862532029684862280000F006FA804667
:103330004046C0B2002808D1DFF8B40338402968FD
:103340004860280000F021FA80464046C0B20028BC
:1033500001D101206877FF20296848620020287782
:103360004046C0B2BDE8F283F8B505000E00140077
:10337000002128684768DFF8780307403800000C10
:10338000F0703800000A10F01F00707017F03F0056
:10339000B0703800400B10F007003070002C0BD1DB
:1033A000F07800F017FAF070707800F013FA70708F
:1033B000B07800F00FFAB0700020F2BD2DE9FE4F9A
:1033C00005000E0014004FF47A77DFF82883D8F850
:1033D000000040094FF47A71B0FBF1F0784300909F
:1033E0000020029000200190287F012801D10220B6
:1033F000E3E00120287702206877002C31D128688B
:103400008068400601D40020F070F0690028FFD0E9
:10341000307800F0D3F98146707800F0CFF9824619
:10342000B07800F0CBF9834696F8200000F0C6F99A
:103430005FFA89F95FFA8AFA5FEA0A2A5AEA094AC0
:103440005FFA8BFB5BEA0A0AF1785AEA815AC0B24A
:103450005AEA006AF06950EA0A0A706950EA0A0AF0
:103460001FE028688068400601D40020F070F069F1
:103470000028FFD0307896F801A05FEA0A2A5AEABD
:10348000004AB07850EA0A0AF0785AEA805A96F868
:1034900020005AEA006AF06950EA0A0A706950EAA4
:1034A0000A0A7168B0690143CA202A685062532031
:1034B0002A685062706AB0F5807F31D128688068D0
:1034C00030F480702A6890602868C06810F080002E
:1034D00070F4C0702A68D0600098421E00920028E4
:1034E00008D1FF202A6850620320687700202877DF
:1034F000032062E02868C068C007EDD52868C0F8DE
:103500001CA0286841642868806850F480702A688C
:1035100090602868806850F480502A6890603AE093
:103520002868806830F400702A6890602868C06855
:1035300010F0800070F420702A68D060D8F8000085
:1035400040094FF47A72B0FBF2F007FB00F70097E6
:103550000098421E0092002808D1FF202A6850627D
:103560000320687700202877032026E02868C068B9
:103570008007EDD52868C0F820A0286881642868F5
:10358000806850F400702A6890602868806850F461
:1035900000502A6890605848026852F40032026075
:1035A0005648026852F400320260FF202A685062D6
:1035B00001206877002028770020BDE8FE8FF8B54D
:1035C00004000D000026207F012801D102205AE0CE
:1035D0000120207702206077CA20216848625320AA
:1035E00021684862B5F5807F22D12068806830F478
:1035F0008070216888602068806830F4805021687D
:10360000886007F087F907002068C068C00732D4D7
:1036100007F080F9C01B40F2E9318842F4D3FF2063
:1036200021684862032060770020207703202AE089
:103630002068806830F400702168886020688068A5
:1036400030F400502168886007F064F907002068B2
:10365000C06880070FD407F05DF9C01B40F2E93164
:103660008842F4D3FF20216848620320607700205D
:103670002077032007E0FF2021684862012060775F
:10368000002020770020F2BD10B50400206880687B
:10369000C0040ED52068C068C0050AD5200007F018
:1036A00005FA2068C06810F0800070F4C0702168CE
:1036B000C8602068806880040ED52068C0688005D6
:1036C0000AD5200007F018FB2068C06810F08000C1
:1036D00070F420702168C8605FF400300849086009
:1036E0000120607710BD0000BFFF8FFF7F7F7F004C
:1036F0003FFFFF0004000020003C0140083C014067
:10370000143C014070B5040000252068C06830F00A
:10371000A0002168C86007F0FDF806002068C068B6
:10372000800608D407F0F6F8801B40F2E9318842A1
:10373000F4D3032000E0002070BD70B50400002524
:1037400000262068C06840061CD42068C06850F07D
:1037500080002168C86007F0DDF805002068C068B7
:1037600040060FD43000C0B201280BD007F0D2F8C9
:10377000401B40F2E9318842F0D3042060770120F9
:103780000600EBE73000C0B270BD38B5040000257C
:103790002068C06830F080002168C86020688068B8
:1037A000800608D42000FFF7ADFF002803D00420D6
:1037B0006077012005002800C0B232BD0021020060
:1037C000D2B20A2A02D3491C0A38F8E750EA01109B
:1037D000C0B2704700210200D2B212090A2312FBC4
:1037E00003F210F00F008018C0B2704738B5040023
:1037F000DFF81C552878002803D0022810D008D301
:1038000019E04FF4FA70DFF80C15886000F07BFACD
:1038100013E06420DFF8FC14886000F075FA0CE017
:103820000020287006F05FFC0121DFF8E804FFF7B4
:103830001EFB01200BE0002028702878401C287017
:103840002100C9B2DFF8CC04FFF720FB012032BD14
:1038500010B5040006F0E9FB012823D106F03FFC77
:1038600003280ED1DFF8B0140220FEF709FFDFF8BD
:10387000A40442F2107181600021FFF707FB0120D0
:1038800017E006F047FC012805D10321DFF8840486
:10389000FFF7EDFA04E00120DFF8801481F8200141
:1038A000012006E02100C9B2DFF86804FFF7EEFA54
:1038B000012010BD38B50400DFF8645428780028D2
:1038C00009D0022825D015D3042840D030D30628AB
:1038D0004DD04BD34CE0DFF84C0406F02FFC012810
:1038E00007D1DFF844140220FEF7CAFE2878401CF6
:1038F000287046E0DFF82C0406F06EFC012807D1A2
:10390000DFF828140220FEF7BBFE2878401C287040
:1039100037E0DFF81C0406F011FC012807D1DFF8BE
:1039200014140220FEF7ACFE2878401C287028E012
:10393000DFF8FC0306F050FC012807D1DFF8F8138C
:103940000220FEF79DFE2878401C287019E0DFF861
:10395000EC0306F0F3FB012807D1DFF8E4130220A3
:10396000FEF78EFE2878401C28700AE009E008E087
:10397000002028700120DFF8A41381F82001012025
:1039800006E02100C9B2DFF88C03FFF77FFA0120BF
:1039900032BD01000120704770B5040006F09FFBA6
:1039A000012819D1DFF88853688EA98E884213D078
:1039B000DFF89063707800280ED1DFF88C130220B6
:1039C000FEF75EFE0020B07301207070AB8D002208
:1039D0000021032000F026F92100C9B2DFF83403EA
:1039E000FFF754FA012070BD10B504002100C9B2E0
:1039F000DFF82003FFF74AFA012010BDF8B50400F4
:103A00000025002606F06BFB012849D1DFF834734E
:103A1000787B012844D1F888398988423CD0387BAA
:103A2000002806D002280FD0042818D0052821D05D
:103A300021E0DFF8F002818D0D00C168FA88808DE9
:103A400000FB02110E0016E0DFF8E402818D0D008C
:103A5000C168FA88808D00FB02110E000BE0DFF8D0
:103A6000DC02818D0D00C168FA88808D00FB021197
:103A70000E0000E0FFE72B009BB23200012107207F
:103A800000F0D0F8F888401CF880F88879898842DE
:103A900006D30020F88003E000207873012006E0C0
:103AA0002100C9B2DFF86C02FFF7F0F90120F2BD86
:103AB00010B5040006F0B2FA012010BD70B5002068
:103AC000002400252800C0B2082843DADFF8446249
:103AD0002800C0B2000130444078012838D12800C5
:103AE000C0B2042809D02800C0B2052805D028009B
:103AF000C0B2062801D0012004002800C0B2000195
:103B00003044406800280ED006F004FF2900C9B2F6
:103B1000090131444968401A2900C9B209013144F8
:103B20008968884214D300202900C9B209013144B0
:103B3000487006F0EFFE2900C9B20901314448601F
:103B40002800C0B22900C9B209013144C9688847B8
:103B50006D1CB7E706F08AF82043C0B270BD2DE9AE
:103B6000F047C2B004000D0016001F005FF000080F
:103B700000205FF0000A002140918DF80441AA2145
:103B80006A4643469BB2D15418F10108310089B20C
:103B9000090A6A4643469BB2D15418F101086946A6
:103BA000424692B28E5418F10108002108003200FA
:103BB00080B292B290420AD2080080B2285C6A4673
:103BC00043469BB2D05418F10108491CEEE7380077
:103BD00080B2401E424692B2904201DA781E804680
:103BE00018F101085FF00009484680B2414689B2E9
:103BF000491E884208DA6846494689B2405C90EA24
:103C00000A0A19F10109EFE76846414689B20844FA
:103C100000F801ACADF80681684606F07EFA42B0C5
:103C2000BDE8F087FEB504000D0016001F008DF8FA
:103C3000064000968DF80750ADF80470684606F00F
:103C40005DFAF7BD2DE9F04104000D0000260027C4
:103C50005FF00008280080B200284DD006F03FFA3F
:103C6000012849D12000C0B2002805D0022813D075
:103C70000AD3032818D018E02A48818E88460021EC
:103C80000F00C08D060010E02948818E8846022171
:103C90000F00C08D060008E02848818E8846042168
:103CA0000F00C08D060000E0FFE72800310080B261
:103CB00089B2884220D223480121417323490978DF
:103CC00001710773A0F80880468101892A0092B229
:103CD000914203D30189491BC18003E001898919FD
:103CE000491BC18007210B48FFF7C1F81849022082
:103CF000FEF7C6FC012004E016490220FEF7C0FCD6
:103D00000020BDE8F081704780B506F0F7FF01BDE7
:103D1000492B0020240300205802010884070020BA
:103D2000A82A00207C02002050000108740001082D
:103D3000B402002098000108BC000108EC02002039
:103D4000E0000108682A002004010108532B00202C
:103D5000EC0E0108280101082DE9FE4F04000D00BA
:103D60000020002600270021ADF804105FF00108B4
:103D70005FF000095FF0000A21680978212901D16C
:103D800001218A465FF0000B584600B2A98888429C
:103D900072DA20685146C9B2405C29685A4612B2AC
:103DA000895C884265D1012080465046C0B2401CE3
:103DB0000600002081460020ADF80400300000B26B
:103DC000A18888424ADA2068310009B2405C7C2828
:103DD0001ED1BDF90400002804D10120814616EB54
:103DE0000B00070001A800903B001BB22A00210035
:103DF000701C00B200F059F880464046C0B201285D
:103E000006D15146C9B2584600B200F03DF839E03B
:103E10004846C0B200280FD12068310009B2405C8A
:103E200029685A4612B21144320012B2895C8842A3
:103E300002D00020804611E04846C0B2002801D1DF
:103E4000761CBBE73000BDF9041000B2884203DAEB
:103E5000BDF904000600B1E7761CAFE74046C0B2EA
:103E6000012806D15146C9B2584600B200F00CF8FC
:103E700008E01BF1010B87E75146C9B25FF0FF3044
:103E800000F002F8BDE8FE8F02000800C0B2002872
:103E900002D1100000B207E0100000B2002802D4E6
:103EA0005FF0FF3000E000207047F0B50400059D92
:103EB0000120002637003FB207FA84F7B1F804C0AA
:103EC00067453ADA0F68A4460FFA8CFC6744B4469B
:103ED0000FFA8CFC17F80C707C2F03D137192F8048
:103EE00000B22BE09788B4460FFA8CFC0CFA83FCE6
:103EF000674506DAB2F904707F1C2F805FF0FF3748
:103F000038000F68A4460FFA8CFC6744B4460FFAD9
:103F10008CFC17F80C70D2F800C09E460FFA8EFE8B
:103F2000F444B6460FFA8EFE1CF80EC0674502D068
:103F30005FF0FF373800761CBCE700B2F0BD000030
:103F400038B50400DFF8480C002181800E2102689A
:103F50008388D1548188491C81800121026883882B
:103F6000D1548188491C8180012102688388D15401
:103F70008188491C81808188006801F039F8082215
:103F8000DFF8101C0120FEF76AFBDFF80C5CAA8842
:103F900000212868FEF757FB0020A880DFF8705C3E
:103FA00001212800FEF763FF0C212800FEF76EFFB9
:103FB00005212800FEF75BFF0D212800FEF757FFC3
:103FC00007212800FEF762FFDFF8500DC0780228B5
:103FD00003D008212800FEF74AFF012032BD10B5AA
:103FE000040001F065FA2100C9B2DFF8240CFEF7E5
:103FF0004DFF012010BD10B50400DFF89C1B888820
:10400000002810D0DFF8100C02888B889A4208D163
:10401000002101800221DFF8F80BFEF728FF0120C4
:1040200008E0898801802100C9B2DFF8E40BFEF7BF
:104030002DFF012010BD00002DE9F14F92B00024AA
:10404000002500208DF804000020ADF806005FF088
:10405000000A00208DF8050000265FF0000900200E
:10406000ADF80C000027DFF8308B0022B8F8041000
:10407000C9B2D8F8000001F0D5FCD8F80000B8F8B3
:104080000410084410F8010CD8F80010B8F8042007
:10409000114411F8021C51EA0021ADF80E10B8F8D5
:1040A0000400821E92B2D8F800100DF1060006F04E
:1040B000B6FBBDF80600BDF80E10884203D1012002
:1040C0008DF8040007E0DFF8540C0079002802D1D5
:1040D00001208DF804009DF80400012840F076844A
:1040E000DFF838AC9AF80300022800F06F84B8F8C3
:1040F0000400801E210089B2891C8842C0F25D84C0
:104100002000441CD8F8001080B2085C0B2800F096
:10411000C0810C2800F0F7810D2800F040820E28A5
:1041200000F0A980152800F07B8116281ED01B28DE
:1041300000F060821C2800F083821E2800F0F183CA
:10414000202833D0212800F0B480222800F0DD8020
:10415000232800F01C81602800F03B83632800F0D6
:104160005883642800F0928300F025BCD8F8000042
:10417000210089B2405C0500641C2800C0B20128FF
:1041800013D1B8F80400801E2900C9B211FA84F1D5
:1041900088420ADBD8F80000210089B2405C02F0B6
:1041A0004EF954FA85F401200700A0E7D8F8000082
:1041B000210089B2405C0500641C2800C0B21528AB
:1041C00058DAB8F80400801E2900C9B211FA84F147
:1041D00088424FDBDFF818BC9BF8000000283ED176
:1041E00002F0DCFC002001002A00C9B2D2B29142E8
:1041F0002ED2D8F800100200D2B212FA84F2895CF2
:104200000E00D8F800100200D2B212FA84F2114463
:10421000497889463100C9B20B2917DA3100C9B291
:104220001BF8011051FA89F10B290ADA3100C9B2E1
:104230001BF8011019EB01013200D2B20BF8021089
:1042400004E00A213200D2B20BF80210801CCAE747
:1042500002F019F954FA85F4012007000AE015224A
:10426000DFF8D81B0120FEF7FAF90222C5A10120D0
:10427000FEF7F5F93BE7D8F80000210089B2405C71
:104280000500641C2800C0B2012811D1B8F8040050
:10429000801E2900C9B211FA84F1884208DBD8F8DF
:1042A0000000210089B2405C012801D101F0C5F86D
:1042B0001DE7D8F80000210089B2405C0500641CAD
:1042C0002800C0B201281FD1B8F80400801E2900C0
:1042D000C9B211FA84F1884216DBD8F80000210037
:1042E00089B2405C02280FDA0020009001230122ED
:1042F000D8F80000210089B2415C002003F022FDC3
:1043000054FA85F401200700F1E6D8F800002100F6
:1043100089B2405C0500641C2800C0B2012835D178
:10432000B8F80400801E2900C9B211FA84F188424D
:104330002CDBD8F80000210089B2405C022825DA85
:10434000DFF8A40B807C00280CD000200090012313
:104350000122D8F80000210089B2415C022003F05C
:10436000F1FC0FE0D8F80000210089B2405CDFF8D2
:104370000C1C8871012000900123012200210220E1
:1043800003F0E0FC54FA85F401200700AFE6D8F80A
:104390000000210089B2405C0500641C2800C0B206
:1043A00001283CD1B8F80400801E2900C9B211FAD6
:1043B00084F1884233DBD8F80000210089B2405CE8
:1043C00002282CDAD8F80000210089B2405C0028CD
:1043D00005D10321DFF8100CFEF749FD1BE0D8F8EA
:1043E0000000210089B2405C012814D1DFF8F80AEE
:1043F000807C00280AD0DFF8F40B007803F0C2FBC1
:104400000221DFF8E40BFEF732FD04E00321DFF8C0
:10441000D80BFEF72CFD54FA85F40120070066E660
:10442000D8F80000210089B2405C0500641C280017
:10443000C0B203282CD1B8F80400801E2900C9B2EC
:1044400011FA84F1884223DBDFF81C1CD8F8000045
:10445000220092B2805C88808888000288808A88E6
:10446000D8F8000023009BB21844407802438A80A9
:10447000D8F80000220092B210448078887103219D
:10448000DFF8E80BFEF7F3FC54FA85F4012007008F
:104490002DE6D8F80000210089B2405C0500641CBC
:1044A000B8F80400801E2900C9B211FA84F18842CC
:1044B00028DBDFF8DC26002090800B201168938831
:1044C000C8549088401C908010689188455490880A
:1044D000401C90802800C0B200280DD0D8F8000001
:1044E000210089B2405C11689388C854641C90888C
:1044F000401C90806D1EEDE79188106800F078FDFB
:1045000001200700F3E5D8F80000210089B2405CE3
:104510000500641CB8F80400801E2900C9B211FA15
:1045200084F188423ADB142100220DF1300B584609
:10453000FEF7FAFB5FF0000B0CA80C215A46D2B232
:1045400081541BF1010BDFF8B81B0A895B46DBB213
:10455000C2541BF1010B00221300DBB2B1F808C0FA
:104560009BB2634510D24B6894465FFA8CFC13F8FB
:104570000C30DC465FFA8CFC00F80C301BF1010BB0
:10458000521CE9E70D0A00005946C9B289B20CA8CD
:1045900000F098FD54FA85F401200700A7E5D8F84B
:1045A0000000210089B2405C0500641CB8F80400DA
:1045B000801E2900C9B211FA84F1884219DB290052
:1045C000C9B289B2D8F80000220092B2104400F0BB
:1045D00084FF2900C9B2891C89B2D8F800002200E2
:1045E00092B21044801E00F06DFD54FA85F4012053
:1045F00007007CE5D8F80000210089B2405C050086
:10460000641C2800C0B2012819D1B8F80400801E2B
:104610002900C9B211FA84F1884210DBD8F80000F1
:10462000210089B2405C022805DA00208AF80000E7
:1046300000208AF8010054FA85F40120070056E5AD
:10464000D8F80000210089B2405C0500641C2800F5
:10465000C0B2062868D1B8F80400801E2900C9B28B
:1046600011FA84F188425FDBD8F80000210089B29A
:10467000405C8DF80B00D8F80000210089B2084496
:1046800040788DF80900D8F80000210089B208446C
:1046900080788DF80A00D8F80000210089B208441B
:1046A000C0788DF81C00D8F80000210089B20844B9
:1046B00000798DF81D00D8F80000210089B2084467
:1046C00040798DF81E009DF80B00642190FBF1F2FB
:1046D00001FB12008DF816009DF809008DF81500F9
:1046E0009DF80A008DF814009DF81C008DF810004C
:1046F0009DF81D008DF811009DF81E008DF8120028
:1047000001200700012304A807C8FEF76DFCDFF8AD
:10471000081BB0FBF1F0801D0721B0FBF1F201FB9B
:104720001200401C8DF808009DF80B0014284ADB8D
:104730009DF80900002846D09DF809000D2842DAAE
:104740009DF80A0000283ED09DF80A0020283ADA99
:104750009DF81C00182830DA9DF81D003C282CDA42
:104760009DF81E003C2828DA9DF8080002281EDB70
:104770009DF8080009281ADADFF8A0BA002207A974
:104780005846FEF7E7FC002202A95846FEF789FDCD
:104790002900C9B2891C89B2D8F80000220092B25F
:1047A0001044801E00F08EFC54FA85F410E00421C1
:1047B000DFF86C0A00F01CFC0AE00421DFF8600A54
:1047C00000F016FC04E00421DFF8540A00F010FCAD
:1047D0008DE4D8F80000210089B2405C0500641C1B
:1047E0002800C0B2012813D1B8F80400801E2900A7
:1047F000C9B211FA84F188420ADBD8F8000021001E
:1048000089B2405C00F0BCFE54FA85F40120070038
:104810006DE4D8F80000210089B2405C0500641CFA
:104820002800C0B2012830D1B8F80400801E290049
:10483000C9B211FA84F1884227DBDFF8380D01791B
:104840000091C37882784178D8F80000A4461FFA16
:104850008CFC10F80C0000F04BFF01280CD1290053
:10486000C9B2891C89B2D8F80000220092B2104463
:10487000801E00F027FC04E00421DFF8A40900F00A
:10488000B7FB54FA85F40120070030E4D8F80000A3
:10489000210089B2405C0500641C2800C0B20428D5
:1048A0003DD1B8F80400801E2900C9B211FA84F184
:1048B000884234DBD8F80000210089B20844C0786F
:1048C0000090D8F80000210089B208448378D8F815
:1048D0000000210089B208444278D8F80000210085
:1048E00089B2415CDFF88C0C007800F001FF0128F0
:1048F0000CD12900C9B2891C89B2D8F80000220065
:1049000092B21044801E00F0DDFB04E00421DFF8C9
:10491000100900F06DFB54FA85F401200700FFF741
:10492000E6BBD8F80000210089B2405C0500641C99
:104930002800C0B202283CD1B8F80400801E29002B
:10494000C9B211FA84F1884233DBD8F800002100A3
:1049500089B2415C0902D8F80000220092B21044EA
:1049600040780143ADF80C10DFF8080C00780128FE
:1049700016D19AF80300022812D0DFF8FC0B417818
:10498000007800F0BFFB012804D1BDF80C0000F056
:10499000ADFA0AE00421DFF8880800F029FB04E002
:1049A0000421DFF87C0800F023FB54FA85F4002092
:1049B0000700FFF79CBBFFF79ABB9DF80500012895
:1049C00027D1022191A000F07DFB22E00521DFF834
:1049D000AC0B00F077FBD148C07802280AD10C223A
:1049E000DFF8301C0120FDF73AFE022289A10120E8
:1049F000FDF735FE9DF8040000280AD10F22DFF8EC
:104A0000181C0120FDF72BFE022282A10120FDF7D8
:104A100026FE3800C0B2012812D1DFF800A39AF8B0
:104A20000300002806D1012000F032FF0A21784857
:104A3000FEF71DFA00208AF8000000208AF8010025
:104A4000B8F80400DFF80C1C0870B8F80420002146
:104A5000D8F80000FDF7F7FD0020A8F804000121B8
:104A60006B48FEF704FA012013B0BDE8F08F38B5AB
:104A70000400674DA94881784EF660204143A96340
:104A800000F0D0FB2100C9B22800FEF7FFF9012099
:104A900032BDF0B58DB004000026DFF84C5C280074
:104AA00006F03EFA002803D1DFF8405C002700E062
:104AB0000127280006F034FA002822D03800C0B2BE
:104AC00001280AD101226946280006F0ACF99DF8B8
:104AD0003210684600F072FA0DE09048C078012864
:104AE00009D101226946280006F09DF99DF832108F
:104AF000684600F063FA06214548FEF7C7F9012031
:104B000005E02100C9B24248FEF7C0F901200DB00E
:104B1000F0BDF0B58DB004000026DFF8CC5B2800B6
:104B200006F0FEF9002803D1DFF8C05B002700E0A3
:104B30000127280006F0F4F9002805D105213448A2
:104B4000FEF795F9012021E03800C0B201280AD112
:104B500001226946280006F066F99DF83210684681
:104B600000F02CFA0DE06D48C078012809D101222F
:104B70006946280006F057F99DF83210684600F0A3
:104B80001DFA06212248FEF781F901200DB0F0BD83
:104B90008C040020600C01084809002010B50400B6
:104BA00000F04BFC012010BD38B504005B490878CB
:104BB0000A2804DB09211648FEF759F924E0087891
:104BC000401C0870DFF8480C002282801B2203681A
:104BD00085885A558288521C828001220368858804
:104BE0005A558288521C8280097802688388D15481
:104BF0008188491C81808188006800F0F9F92100D2
:104C0000C9B20348FEF742F9012032BD4F4B000004
:104C1000A40300200D0A0000322B002038B5040048
:104C20003E49487802284CDADFF85C5C2878002896
:104C300031D10120DFF8541C0871012028700320B5
:104C400000F026FE01228021DFF8900C03F0C2FB69
:104C500001200090012301220021002003F072F8BE
:104C6000DFF8F45C2100C9B22800FEF70FF9082133
:104C70002800FEF71DF91822DFF8641C0120FDF75B
:104C8000EEFC022297A10120FDF7E9FC04F0FAF9FD
:104C900004F038F92FE0002008704878401C487074
:104CA000002000F0F5FD0020287000228021DFF8B0
:104CB0002C0C03F08FFB0A21DFF89C0CFEF7E6F8C2
:104CC00019E00020087000204870002000F0E0FD8E
:104CD0000020DFF8B41B087000228021DFF8FC0BF5
:104CE00003F078FB40F6B83000F04AF90A21DFF80B
:104CF000680CFEF7CBF8012032BD10B50400082186
:104D0000DFF8540CFEF7B3F80020DFF8801B0871C1
:104D10000020DFF80C1D0870012010BD8404002065
:104D200070B50400DFF85058A879152845DBDFF886
:104D3000F06CF07802282DD0DFF8380800780128D0
:104D400028D16978287800F0DDF9012822D130785F
:104D500006281FDAF07801281CD1DFF8B40A0021F8
:104D600081801D2102688388D1548188491C8180FB
:104D7000012102688388D1548188491C81800121E6
:104D800002688388D1548188491C818081880068A9
:104D900000F02EF9F078022818D1DFF8D807007853
:104DA000012813D16978287800F0F3F901280DD192
:104DB0004FF47A7000F0E4F808E0DFF8640CC07893
:104DC000022803D14FF47A7000F0DAF8DFF8500CC3
:104DD000C078022804D10721DFF87C0BFEF756F8D3
:104DE0002100C9B2DFF8700BFEF750F8012070BD4A
:104DF0009C29002010B50400DFF8901A08780028DC
:104E000013D14878002810D1887800280DD1C878AF
:104E100000280AD10879002807D1DFF8D00806F069
:104E20007FF8002801D100F008FB2100C9B2DFF8AB
:104E3000280BFEF71CF8012010BD0000E404010857
:104E400038B50400DFF830178879142803DA002019
:104E5000DFF85C2C1070DFF85C2C107800280CD187
:104E60000878092802D0087815280ED10020DFF82C
:104E7000401C08700120107007E008780B2802D051
:104E80000878172801D100201070DFF8245C2878FA
:104E900000281ED1DFF87809002181801C210268DA
:104EA0008388D1548188491C8180012102688388CC
:104EB000D1548188491C8180012102688388D154A2
:104EC0008188491C81808188006800F091F8012068
:104ED00028702100C9B2DFF8800AFDF7D7FF012052
:104EE00032BD00000D0A00006802002038B5040041
:104EF000DFF82C0B00210170002141700120DFF848
:104F00008C1908710020009001230122002100204B
:104F100002F018FF0020009001230122002102204E
:104F200002F010FF04F0AEF803F0ECFF200080B2B6
:104F300000F014FD022000F0ABFC00228021DFF81D
:104F40009C0903F047FADFF8105A08212800FDF702
:104F5000AFFF09212800FDF7ABFF0A212800FDF76C
:104F6000A7FF1722DFF8501B0120FDF778FB022274
:104F7000A8A10120FDF773FB31BD0000DC2A002051
:104F800010B5040004F07EF803F0BCFF200080B2EE
:104F900000F0E4FC002000F07BFC0A21DFF8B809F7
:104FA000FDF774FF1422DFF8141B0120FDF757FBF7
:104FB000022298A10120FDF752FB10BD38B5040074
:104FC0000D002900C9B289B2200005F051FC012270
:104FD0002900C9B2200000F025FD0721DFF878097B
:104FE000FDF754FF31BD0000940400205809002053
:104FF00038B504000D000020ADF800002A0092B280
:105000002100684605F00BFCBDF80000290089B2BC
:1050100060546D1C0020290089B260546D1C2078FA
:105020000A380ED0263802280BD91038012811D89A
:1050300001232A00D2B22100DFF8AC0600F018F8F4
:1050400010E000232A00D2B22100DFF8A00600F011
:105050000FF807E000232A00D2B22100DFF888060B
:1050600000F006F831BD0000EC2A00208405002085
:10507000F8B59AB004000D0016001F008DF86660A8
:10508000002001003200C9B2D2B2914208D2010020
:10509000C9B2695C0DAA0300DBB2D154401CF0E731
:1050A000200005F03DFF1D2804DB01226946200099
:1050B00005F0B9FE3A00D2B20DA9200005F09EFE1F
:1050C0001BB0F0BD38B504000D00DFF84407002127
:1050D0008180290089B2322911DA81882A0092B2AE
:1050E000914208D28188615C02688388D1548188AA
:1050F000491C8180F1E781880068FFF779FF31BDA5
:10510000D8080020F0B50200002600275FF0000C50
:105110003C25DFF860E49EF801309EF8020005FBB4
:1051200003039EF803409EF8040005FB04041000EE
:10513000C0B205FB00F555FA81F5200080B20028C9
:1051400001D0641E01E004F29F541800260080B2D2
:10515000B6B2B0420DD328001E0080B2B6B2B04243
:1051600005D22800260080B2B6B2B0420FD201208C
:105170000EE028001E0080B2B6B2B04207D328006D
:10518000260080B2B6B2B04201D2012000E0002079
:10519000F0BDF0B502000024002500265FF03C0CB5
:1051A000DFF8D0E39EF801309EF802000CFB030309
:1051B0009EF803709EF804000CFB07071000C0B2B5
:1051C0000CFB00FC5CFA81FC38009E4680B21FFAA2
:1051D0008EFE70450DD260461C0080B2A4B2A04283
:1051E00015D260463C0080B2A4B2A0420FD3012089
:1051F0000EE060461C0080B2A4B2A04205D3604617
:105200003C0080B2A4B2A04201D3012000E0002003
:10521000F0BD00000D0A0000805101002829002087
:10522000F40E010838B5DFF8E805002181800A2175
:1052300002688388D1548188491C818000210268DA
:105240008388D1548188491C8180CB498A7903683D
:1052500084881A558288521C82804A79036884881F
:105260001A558288521C82800A79036884881A55EC
:105270008288521C82800A78036884881A55828842
:10528000521C82804A78036884881A558288521C8E
:105290008280897802688388D1548188491C818002
:1052A000DFF820188A7C036884881A558288521C8B
:1052B0008280DFF814281378046885886355838812
:1052C0005B1C83809278036884881A558288521CFC
:1052D0008280DFF8F827B2F900301B120468858855
:1052E000635583885B1C83801288036884881A5501
:1052F0008288521C8280DFF8D827B2F904301B1252
:1053000004688588635583885B1C83809288036862
:1053100084881A558288521C8280FF220368848800
:105320001A558288521C82804A8892B2120A0368F7
:1053300084881A558288521C82804A88036884882F
:105340001A558288521C82808A8892B2120A036897
:1053500084881A558288521C82808A8803688488CF
:105360001A558288521C82800A7C036884881A55E8
:105370008288521C82808A681212036884881A55B7
:105380008288521C82808A68036884881A558288C1
:10539000521C8280CA68120E036884881A5582885B
:1053A000521C8280CA68120C036884881A5582884D
:1053B000521C8280CA68120A036884881A5582883F
:1053C000521C8280CA68036884881A558288521CDD
:1053D0008280497C02688388D1548188491C8180FD
:1053E00064490A78036884881A558288521C82802E
:1053F0004A78036884881A558288521C82808A7889
:10540000036884881A558288521C8280CA7803688F
:1054100084881A558288521C8280097902688388A0
:10542000D1548188491C81808188891E026851700D
:1054300081880068FFF7DCFD31BD3EB50521002203
:1054400001AC2000FDF770FC00240020ADF8000046
:1054500001AD0E202100C9B26854641C0120210056
:10546000C9B26854641C00202100C9B26854641C8D
:105470002200D2B292B201A9684605F0D0F9BDF877
:1054800000002100C9B26854641C00202100C9B288
:105490006854641C2100C9B201A8FFF78FFD0922DE
:1054A000DFF830160120FDF7DAF8FCF7F2FD37BD22
:1054B00010B5DFF8244601220121200002F08AFF06
:1054C000012004F021FF00220121200002F082FFD0
:1054D000DFF8080605F054FD10BD70B586B0040075
:1054E0000D00280080B2152840DA162100226E46F1
:1054F0003000FDF719FCAA208DF8000028008DF877
:105500000100DFF8DC650020308114220021706882
:10551000FDF799F800200100C9B22A0089B292B2C1
:10552000914216D20100C9B2142912DA0100C9B29F
:10553000615C6A460300DBB21A4491700100C9B293
:10554000615C72683389D1543189491C3181401CB6
:10555000E1E74FF4005004F02EFCAA1C92B24FF485
:105560000051684604F0EBFC012000E0002006B08A
:1055700070BD0000D42A0020C02A0020FC0E0108C3
:105580007CB504002000C0B2002801D10120040035
:10559000DFF88C54AC70022100226E463000FDF71B
:1055A000C3FB9B4800218180602102688388D1541D
:1055B0008188491C8180012102688388D1548188B7
:1055C000491C8180A97802688388D1548188491C4C
:1055D000818081880068FFF70BFDAA208DF800000C
:1055E000A8788DF801004FF4C04004F0E4FB0222DB
:1055F0004FF4C041684604F0A2FCDFF85C03AA78CF
:105600004EF660214A4382630321FDF73FFC0120EF
:1056100076BD0000EC070108FC0701081CB502215B
:1056200000226C462000FDF77FFB02224FF4C041B0
:10563000684604F0A4FC9DF80000AA2805D19DF856
:105640000100DFF8DC13887003E00120DFF8D013DD
:10565000887013BD4D2B002038B504002000C0B267
:1056600002281ADA022100226D462800FDF75CFBB1
:10567000DFF8AC030471AA218DF8001000798DF8D1
:1056800001004FF4104004F096FB02224FF4104149
:10569000684604F054FC012000E0002032BD1CB537
:1056A000022100226C462000FDF73EFB02224FF44F
:1056B0001041684604F063FC9DF80000AA280FD151
:1056C00068464178012904D10120DFF8541308719C
:1056D00009E04078002806D10020D149087102E095
:1056E0000020CF49087113BDCC290020B429002027
:1056F0002DE9F34F83B015001E000E9C0020002101
:1057000000273C229DF81030534353FA85F83300AC
:10571000DBB202FB03F252FA84F99DF80C20022A54
:1057200072DA9DF8100018286EDA2800C0B23C2802
:105730006ADA3000C0B2182866DA2000C0B23C280D
:1057400062DA4846414680B289B2884211D2414667
:1057500089B2484680B2091A03291BDB404680B251
:10576000D0F5B46010FA89F0032813DB012007009C
:1057700010E0494689B2404680B2091A032909DB84
:10578000484680B2D0F5B46010FA88F0032801DBF7
:10579000012007003800C0B2012835D1DFF844A34A
:1057A0009DF80C008AF800009DF810008AF80100AE
:1057B0008AF802508AF803608AF804400621002221
:1057C000EB465846FDF7B0FAAA208DF8000068466F
:1057D0009AF8001041709AF8011081709AF802103E
:1057E000C1709AF8031001719AF804008DF8050051
:1057F0004FF4E04004F0DFFA06224FF4E04168463F
:1058000004F09DFB012000E0002005B0BDE8F08F12
:105810008C0400201CB5062100226C462000FDF7F8
:1058200083FA06224FF4E041684604F0A8FB9DF895
:105830000000AA281BD168464178022922DA817823
:1058400018291FDAC1783C291CDA0179182919DADC
:1058500041793C2916DAA34942780A7082784A7065
:10586000C2788A700279CA70407908710AE09D484E
:105870000021017015214170002181700621C17045
:105880000021017113BD00004A2B0020CC2A00200A
:105890007CB50400624DE8782100C9B288421BD073
:1058A0002000C0B2042817DA022100226E46300020
:1058B000FDF73AFAEC70AA208DF80000E8788DF830
:1058C0000100894D280004F076FA0222290068467A
:1058D00004F035FB012000E0012076BD000C024001
:1058E000C40301081CB5022100226C462000FDF70C
:1058F0001BFA02227C49684604F041FB9DF8000037
:10590000AA2806D168464178042902DA4078444939
:10591000C87013BD80B5754B33221E21744805F045
:105920004FFA744B33221E21734805F049FA01BD2A
:1059300080B5002000900FF2110300225FF0FF31CC
:105940006E4804F0FFFC01BD10B5040000224021A8
:105950006B4802F03FFD10BDA403002038B50400E1
:1059600001224021664802F035FD644D210089B2D4
:10597000280004F0A3FD280004F00AFD31BD80B525
:10598000FFF7B0FFFFF7D4FFFFF748FEFFF787FEF2
:10599000FFF7C0FFFFF73EFF01BD70B500200024F8
:1059A00000252800C0B20E2836DA564E2800C0B2B4
:1059B00000013044407801282CD101200400280047
:1059C000C0B200013044406800280ED004F0A2FFAD
:1059D0002900C9B2090131444968401A2900C9B2F5
:1059E000090131448968884214D300202900C9B2D2
:1059F00009013144487004F08DFF2900C9B2090142
:105A0000314448602800C0B22900C9B209013144BC
:105A1000C96888476D1CC4E72000C0B270BD000093
:105A200084040020F8B5A2B004000D001600642123
:105A3000002209AF3800FDF777F902942800C0B2C0
:105A4000ADF80C0004A830491322FDF7BDF9300071
:105A5000C0B2002805D1122204A90120FCF7FFFDE5
:105A600004E0132229490120FCF7F9FD2848D0E978
:105A70000023CDE9002309A80090BDF80C0064289C
:105A80000ADA02A96846FCF796FDBDF804200099E1
:105A90000120FCF7E4FD04E00A221E490120FCF786
:105AA000DEFD022206A10120FCF7D9FD23B0F0BDE6
:105AB0004B2B00204C2B0020FC040108140501088E
:105AC0000D0A000068020020DC2A002004060020E5
:105AD000E42A00206C0C010800000240782A002013
