:020000040800F2
:10000000F0220020A5F8000819E900081BE9000803
:100010001DE900081FE9000821E9000800000000B0
:1000200000000000000000000000000023E90008BC
:1000300025E900080000000027E9000829E9000878
:1000400069FC00086DFC000871FC000875FC0008E4
:1000500079FC00087DFC000839E9000843E9000844
:100060004DE9000857E9000861E9000881FC000833
:100070006BE9000885FC000889FC00088DFC00087D
:1000800075E9000891FC000895FC000899FC00083F
:100090009DFC0008A1FC0008A5FC00087FE9000801
:1000A000A9FC0008ADFC0008B1FC0008B5FC000884
:1000B000B9FC0008BDFC0008C1FC0008C5FC000834
:1000C000C9FC0008CDFC0008D1FC0008D5FC0008E4
:1000D000D9FC0008A5E90008AFE90008B9E9000863
:1000E000C3E90008F7E90008DDFC0008E1FC0008AE
:1000F000E5FC0008E9FC0008EDFC0008F1FC000844
:10010000F5FC0008F9FC0008FDFC000801FD0008F2
:1001100005FD000809FD00080DFD000811FD00089F
:1001200001EA000815FD00080BEA000819FD0008A7
:100130001DFD0008000000000000000021FD000877
:1001400025FD000829FD00082DFD000831FD0008EF
:1001500035FD000839FD00083DFD000841FD00089F
:1001600045FD000849FD00084DFD000851FD00084F
:1001700055FD000859FD00080000000000000000C7
:100180005DFD000861FD0008F8B504000D000026C3
:100190000027DFF89C0B0178022901D101210F0013
:1001A0003900C9B211FA85F11431A28891422DDBD0
:1001B00001230422DFF87C1B007801F0E1FC14220B
:1001C0000021DFF8740B01F074FFDFF8701B0020D2
:1001D00008812E00320092B2A3883800C0B21B1AE8
:1001E0009A420EDA088914280BD22068320092B2A3
:1001F000805C4A680B89D0540889401C0881761CB1
:10020000E8E702F00FF801F083FC06E000230E227D
:10021000DFF8E41C007801F0B3FCF1BD38B5040050
:100220000D00DFF8180B002302894168DFF8000B8E
:10023000007801F0A5FC31BD7047704770477047EA
:10024000704770472DE9F84304000F000025002691
:10025000A088390089B2491D884209DA00230D229D
:10026000DFF8DC1ADFF8C80A007801F089FC4AE000
:100270002068390089B2405CB0F130017F1C0A224D
:1002800020683B009BB2C05C02FB0101B1F1300869
:100290007F1C7F1C2068390089B2405C30387F1C8D
:1002A00010FB02F021683A0092B2895C4018B0F16C
:1002B00030097F1C4046C0B200281BD04046C0B267
:1002C000332817DA484680B23D2813DADFF82C0CC1
:1002D00080F80080A0F8029001F0D2FF02F058F9F7
:1002E00001230422DFF84C1ADFF8440A007801F0F9
:1002F00047FC08E000230722DFF8041CDFF8300A7F
:10030000007801F03DFCBDE8F183FEB504000D006E
:1003100000260C2100226F46380002F0A1F9684641
:1003200066213200D2B28154761C72213200D2B2E0
:100330008154761C65213200D2B28154761C712121
:100340003200D2B28154761C3D213200D2B28154A7
:10035000761CDFF8A81B0A780A2392FBF3F23032EE
:100360003300DBB2C254761C0A780A2392FBF3F7FF
:1003700003FB172230323300DBB2C254761C7822E2
:100380003300DBB2C254761C4A880A2392FBF3F294
:100390000A2392FBF3F703FB172230323300DBB260
:1003A000C254761C49880A2291FBF2F302FB131116
:1003B00030313200D2B28154761C00233200D2B2E6
:1003C00092B26946DFF86809007801F0D9FBF7BD01
:1003D0002DE9F04104000D002E0000275FF0000819
:1003E0003000A18880B288420DD22068310089B2E5
:1003F000405C302805DB2068310089B2405C3A2837
:1004000001DB761CECE73000A18880B2884219D26B
:100410002068310089B2405C80464046C0B2302836
:1004200008DB4046C0B23A2804DA3000A18880B226
:10043000884200D306E00A20474357FA88F7303F46
:10044000761CE0E7DFF8B40A476001F019FF02F01C
:100450009FF800230522DFF8A01BDFF8D4080078FE
:1004600001F08EFBBDE8F08138B588B004000D00C6
:1004700003A8DFF80C1C142202F052F9DFF8040C78
:10048000D0E90023CDE9012303A8019000200090CA
:10049000DFF8680A4268002301A801F025FC002368
:1004A000BDF808200199DFF88808007801F068FBA2
:1004B00009B030BD704770B504000D000021206800
:1004C0002A0092B2805CB0F130026D1C0A232068D1
:1004D0002E00B6B2805D03FB0202B2F130066D1C45
:1004E0003000C0B233280EDADFF8100A067001F0CF
:1004F000C7FE01230422DFF83C18DFF83408007837
:1005000001F03EFB08E000230622DFF87C1BDFF849
:100510002008007801F034FB70BD704738B5040046
:100520000D00DFF80C08017801290BD1012304220A
:10053000DFF80018007801F023FB0621DFF8EC0C4F
:1005400002F031F931BD2DE9F84304000D00A94650
:10055000002600275FF000084846A18880B2884244
:100560000ED22068494689B2405C302805DB2068FD
:10057000494689B2405C3A2802DB19F10109EBE7F0
:100580002068494689B2405C2C281AD02068494628
:1005900089B2405C80464046C0B2302808DB404605
:1005A000C0B23A2804DA4846A18880B2884200D313
:1005B00007E00A20464356FA88F6303E19F1010951
:1005C000DEE74846A18880B288420ED220684946BC
:1005D00089B2405C302805DB2068494689B2405C1E
:1005E0003A2802DB19F10109EBE72068494689B294
:1005F000405C2C281AD02068494689B2405C80466D
:100600004046C0B2302808DB4046C0B23A2804DA7F
:100610004846A18880B2884200D307E00A204743B9
:1006200057FA88F7303F19F10109DEE7B6F5803F48
:100630000BD2B7F5803F08D20023022295A1DFF844
:10064000F006007801F09CFA08E000230E22DFF8A3
:10065000E01BDFF8DC06007801F092FABDE8F183D8
:100660007047704770477047704770B40D000023A3
:1006700000242A00868892B2B2420DD202682E006F
:10068000B6B2925D302A05DB02682E00B6B2925DEA
:100690003A2A01DB6D1CECE702682E00B6B2925DCF
:1006A0002C2A19D002682E00B6B2925D14002200E6
:1006B000D2B2302A08DB2200D2B23A2A04DA2A0067
:1006C000868892B2B24200D306E00A22534353FA1C
:1006D00084F3303B6D1CDFE770BC7047704770B52A
:1006E00088B004000D000C2100226E46300001F09D
:1006F000B7FF1421002203AE300001F0B1FF2068E3
:10070000290089B200EB0106B0783A2802D170794D
:100710003A2809D000230522DFF8801BDFF81006F5
:10072000007801F02DFA41E00A213278707801FB5F
:100730000202B2F110008DF80000F278307901FB6E
:100740000202B2F110008DF80100B279F07901FBDC
:100750000201B1F110008DF80200684602F0B5F810
:10076000012809D000230522DFF8301BDFF8C0057F
:10077000007801F005FA19E09DF802008DF80E00EE
:100780009DF801008DF80D009DF800008DF80C001B
:10079000002203A9DFF8080C02F01CF90023022252
:1007A0003CA1DFF88C05007801F0EAF908B070BDD3
:1007B0007FB504000D000C21002201AE300001F0D5
:1007C0004FFF042100226E46300001F049FF2068EF
:1007D000290089B200EB010670782D2805D1307907
:1007E0002D2802D1F0792D2809D000230522DFF829
:1007F000AC1ADFF83C05007801F0C2F949E0307826
:1008000031388DF807000A21B278F07801FB020236
:10081000B2F110008DF808007279B07901FB020284
:10082000B2F110008DF80900327A707A01FB0201F2
:10083000B1F110008DF80A0001A802F046F8012875
:1008400009D000230522DFF8541ADFF8E404007809
:1008500001F096F91DE09DF807008DF800009DF865
:1008600008008DF802009DF809008DF801009DF840
:100870000A008DF8030000226946DFF8240B02F01D
:1008800050F90023022203A1DFF8A404007801F04C
:1008900077F97FBD4F4B00007FB504000D000C21A0
:1008A00000226E46300001F0DBFE206840782D28E3
:1008B00013D1206800792D280FD12068C0792D2808
:1008C0000BD12068807A2C2807D12068407B3A28F9
:1008D00003D12068007C3A2809D000230522DFF8E4
:1008E000BC19DFF84C04007801F04AF972E0206886
:1008F000007831388DF803000A212068827820685A
:10090000C07801FB0202B2F110008DF804002068EB
:1009100042792068807901FB0202B2F110008DF863
:1009200005002068027A2068407A01FB0202B2F1D9
:1009300010008DF806002068C27A2068007B01FB59
:100940000202B2F110008DF800002068827B20685E
:10095000C07B01FB0202B2F110008DF8010020689B
:10096000427C2068807C01FB0201B1F110008DF80F
:100970000200684601F0A9FF012808D000230522E3
:10098000DFF81819EA48007801F0FAF822E0DFF8F9
:10099000680B9DF80310C1709DF8041001719DF85B
:1009A000051041719DF8061081719DF800100170CD
:1009B0009DF8011041709DF8021081700321DFF84D
:1009C0006C0801F0F0FE00230222AFA1D8480078A5
:1009D00001F0D6F87FBDF8B58AB004000D000026FE
:1009E000282100226F46380001F03AFE6846742143
:1009F0003200D2B28154761C69213200D2B28154C5
:100A0000761C6D213200D2B28154761C65213200F1
:100A1000D2B28154761C3D213200D2B28154761C70
:100A2000DFF8841B0A780A2392FBF3F2303233009A
:100A3000DBB2C254761C0A780A2392FBF3F703FB5D
:100A4000172230323300DBB2C254761C3A22330014
:100A5000DBB2C254761C4A780A2392FBF3F230329E
:100A60003300DBB2C254761C4A780A2392FBF3F7B8
:100A700003FB172230323300DBB2C254761C3A2219
:100A80003300DBB2C254761C8A780A2392FBF3F25D
:100A900030323300DBB2C254761C8A780A2392FBD0
:100AA000F3F703FB172230323300DBB2C254761C5B
:100AB0003B223300DBB2C254761C0D223300DBB282
:100AC000C254761C64223300DBB2C254761C61220D
:100AD0003300DBB2C254761C74223300DBB2C25442
:100AE000761C65223300DBB2C254761C3D223300F3
:100AF000DBB2C254761CCA7831323300DBB2C25446
:100B0000761C2D223300DBB2C254761C0A790A23EC
:100B100092FBF3F230323300DBB2C254761C0A7916
:100B20000A2392FBF3F703FB172230323300DBB2C8
:100B3000C254761C2D223300DBB2C254761C4A7993
:100B40000A2392FBF3F230323300DBB2C254761C3C
:100B50004A790A2392FBF3F703FB17223032330062
:100B6000DBB2C254761C2D223300DBB2C254761C99
:100B70008A790A2392FBF3F230323300DBB2C2549B
:100B8000761C89790A2291FBF2F302FB13113031B2
:100B90003200D2B28154761C00233200D2B292B21B
:100BA00069466348007800F0EBFF0BB0F0BD70477A
:100BB00038B504000D000023022233A15C48007800
:100BC00000F0DEFF00F0A4FF31BD38B504000D00D9
:100BD0000221DFF8200B01F0F5FD00230722DFF8EA
:100BE000741B5348007800F0CBFF31BD38B50400CA
:100BF0000D00DFF8640B0023828801684C48007800
:100C000000F0BEFF31BD7047704778B58BB004006F
:100C10000D001E21002203AE300001F021FDDFF89F
:100C20003C0BD0E90023CDE9012303A80190DFF8B4
:100C3000306B00200090B28E002301A801F054F820
:100C40002F200199BDF808208854BDF80800401CE9
:100C5000ADF8080000200090F28D002301A801F0FB
:100C600043F80023BDF8082001993148007800F0CE
:100C700087FF0CB070BD38B504000D00DFF87C1C98
:100C8000022001F088FA31BD4F4B000070477047D9
:100C900038B504000D00290089B2200000F032F9B7
:100CA000010089B2022002F00DFC31BD38B504000C
:100CB0000D00290089B2200000F024F9010089B25A
:100CC000002002F0FFFB31BD38B504000D00290003
:100CD00089B2200000F016F9010089B2012002F06B
:100CE000F1FB31BD38B504000D00290089B22000A8
:100CF00000F008F9010089B2032002F0E3FB31BDE6
:100D000038B504000D0000230C22DFF85C1B0848F6
:100D1000007800F035FF31BD38B504000D00002328
:100D20000C22DFF8441B0248007800F029FF31BD97
:100D3000E11E0020D0FB0008A4080020B808002015
:100D4000E4F700087047704770472DE9FC4704003E
:100D50000D005FF0FF360022DFF8103BD3E9000101
:100D6000CDE900015FF000094846A18880B28842C1
:100D700024D22068494689B2405C3D2805D02068CD
:100D8000494689B2405C3F2800D117E020684946B7
:100D900089B2405C41280EDB2068494689B2405C3C
:100DA0005B2808DA2068494689B2405C2030216817
:100DB0004A4692B2885419F10109D5E70027380054
:100DC000C0B2552880F29480DFF8348B21003800BF
:100DD000C0B200014044083002F0FEFB0600002EC5
:100DE00000F184803800C0B200014044406800280F
:100DF0007CD0DFF810AB1AF1300001F0D2F80020FF
:100E0000010089B2A288921B914224DA2168314400
:100E1000020092B2895C3F290BD021683144020064
:100E200092B2895C3D2904D0BAF83410B1F5807FC4
:100E300000DB10E021683144020092B2895CDAF8EC
:100E40003020BAF83430D154BAF83410491CAAF81A
:100E50003410401CD4E73900C9B2090141448989E2
:100E600016FA81F6B1464846A18880B2884226D259
:100E70002068494689B2405C0D280CD1484680B2B2
:100E8000A188491E884206DA2068494689B208448A
:100E900040780A2813D0BDF8040080280CD22068BE
:100EA000494689B2405C0099BDF804208854BDF8D9
:100EB0000400401CADF8040019F10109D3E7DFF884
:100EC000A80B05702800C0B2401E012802D9801E60
:100ED00009D009E0002168463A00D2B2120142442A
:100EE0005268904700E0FFE7012002E07F1C66E7C0
:100EF0000020BDE8F6870000D4F7000804090020B0
:100F0000D8FB000870B402004FF6FF7000230024E5
:100F10000D009688ADB2B5422ED20D00691C166840
:100F2000ADB2755D282DF3D10025280000252C00D9
:100F300015680E00B6B2AD5D2B00491C1D00EDB268
:100F4000302D19DB1D00EDB23A2D15DA0A2510FB04
:100F500005F050FA83F03038641C15680E00B6B204
:100F6000AD5D2B00491C2500EDB2082D04DA9588F3
:100F70000E00B6B2B542E1D280B270BC7047704785
:100F80007047704770477047704738B504000D00D0
:100F900000230422DFF8D41ADFF8CC0A007800F02E
:100FA000EFFD03F011FE31BD70B504000D00DFF858
:100FB000C06A0921300001F0F6FB0320DFF8B41A03
:100FC00088700A21300001F0FDFB70BD38B50400C7
:100FD0000D000A21DFF8980A01F0E5FB31BD38B5B4
:100FE00004000D000921DFF8880A01F0DCFB002075
:100FF000DFF8801A887031BDE0FB0008F8B5040006
:101000000D0000262068007830282FDB206800784B
:101010003A282BDA002700200100C9B2A28889B241
:1010200091420FD221680200D2B2895C302905DBDF
:1010300021680200D2B2895C3A2900DB02E07F1C01
:10104000401CE9E73900C9B2206800F0BCFF060087
:101050003000C0B204F002FB00230422DFF80C1AB7
:10106000DFF8040A007800F08BFD08E00023072277
:10107000DFF8081ADFF8F009007800F081FDF1BD13
:1010800000F4000830FC0008E8FB00082DE9F041FE
:1010900004000D000026002720680078302846DB79
:1010A000206800783A2842DA5FF00008002001004A
:1010B000C9B2A28889B2914217D221680200D2B285
:1010C000895C302905DB21680200D2B2895C3A29AB
:1010D00007DB21680200D2B21144497830390F0091
:1010E00003E018F10108401CE1E74146C9B220685D
:1010F00000F069FF0600300000B20B2820DA38004B
:1011000000B206281CDADFF878190878002817D111
:10111000300000B20F5404F0C1FA00230422DFF8BB
:101120004C19DFF84409007800F02AFD08E000239C
:101130000722DFF84819DFF83009007800F020FDB9
:10114000BDE8F08178B58FB004000D003221002297
:1011500002AE300001F084FA0020ADF804000B204C
:1011600000900023DFF81C2901A902A804F0F8FF71
:101170000023DFF80009427801A902A804F031FF3A
:10118000072000900023DFF8002901A902A804F03D
:10119000E7FF0023BDF8042002A9DFF8CC0800789F
:1011A00000F0EEFC10B070BDF8B504000D00002694
:1011B0002068007830282FDB206800783A282BDA66
:1011C000002700200100C9B2A28889B291420FD243
:1011D00021680200D2B2895C302905DB2168020057
:1011E000D2B2895C3A2900DB02E07F1C401CE9E7AF
:1011F0003900C9B2206800F0E6FE06003000C0B237
:1012000003F05AFC00230422DFF86018DFF85808C6
:10121000007800F0B5FC08E000230722DFF85C1836
:10122000DFF84408007800F0ABFCF1BD08000020B6
:10123000F4F7000878B58FB004000D0032210022C9
:1012400002AE300001F00CFA0020ADF804000B20D3
:1012500000900023DFF8342801A902A804F080FFE1
:10126000FF23DFF82C08B0F9002001A902A804F040
:10127000B8FE042000900023DFF8182801A902A876
:1012800004F06EFF0023BDF8042002A9DFF8D807A0
:10129000007800F075FC10B070BD0000F0FB000895
:1012A0002DE9F84304000D000026206800782D2861
:1012B00036D100275FF00008302021680870002038
:1012C0000100C9B2A28889B2914210D221680200FD
:1012D000D2B2895C302905DB21680200D2B2895C78
:1012E0003A2900DB03E018F10108401CE8E7414619
:1012F000C9B2206800F067FE8146484680B240428D
:101300000600FF21300000B205F00CF90023042292
:10131000DFF85817DFF85007007800F031FC3DE0A7
:1013200020680078302830DB206800783A282CDAF2
:10133000002700200100C9B2A28889B291420FD2D1
:1013400021680200D2B2895C302905DB21680200E5
:10135000D2B2895C3A2900DB02E07F1C401CE9E73D
:101360003900C9B2206800F02EFE0600FF213000CF
:1013700000B205F0D7F800230422DFF8F016DFF8FA
:10138000E806007800F0FCFB08E000230722DFF805
:10139000EC16DFF8D406007800F0F2FBBDE8F1832C
:1013A0002C1D002078B58FB004000D0032210022E2
:1013B00002AE300001F054F90020ADF804000C201A
:1013C00000900023DFF8D02601A902A804F0C8FE8F
:1013D000FF23DFF8BC06827801A902A804F001FE11
:1013E000042000900023DFF8AC2601A902A804F035
:1013F000B7FE0023BDF8042002A9DFF86C060078D0
:1014000000F0BEFB10B070BDF8B504000D00002662
:1014100020680078302833DB206800783A282FDAFB
:10142000002700200100C9B2A28889B291420FD2E0
:1014300021680200D2B2895C302905DB21680200F4
:10144000D2B2895C3A2900DB02E07F1C401CE9E74C
:101450003900C9B2206800F0B6FD0600DFF830069A
:101460008670FF21B0F9000005F05CF8002304222B
:10147000DFF8F815DFF8F005007800F081FB08E0F0
:1014800000230722DFF8F415DFF8DC05007800F010
:1014900077FBF1BD78B58FB004000D00322100223A
:1014A00002AE300001F0DCF80020ADF804000A20A4
:1014B00000900023DFF8E42501A902A804F050FE03
:1014C0000023DFF8DC05027801A902A804F089FDF9
:1014D0000220009000239EA201A902A804F040FE71
:1014E0000023BDF8042002A9DFF87C05007800F095
:1014F00047FB10B070BD0000601E0020F8B504006E
:101500000D00002620680078302843DB2068007832
:101510003A283FDA002700200100C9B2A28889B228
:1015200091420FD221680200D2B2895C302905DBDA
:1015300021680200D2B2895C3A2900DB02E07F1CFC
:10154000401CE9E73900C9B2206800F03CFD060004
:10155000300000B2012813DB300000B2B0F5807F0C
:101560000EDADFF83C05067005F026FA00230422A7
:10157000DFF8F814DFF8F004007800F001FB12E067
:1015800000230722DFF8F414DFF8DC04007800F011
:10159000F7FA08E000230722DFF8E014DFF8C804B8
:1015A000007800F0EDFAF1BD6C1E002038B50400A3
:1015B0000D002068290089B2405C302805D02068E1
:1015C000290089B2405C312808D100230422DFF8C9
:1015D0009C14DFF89404007800F0D2FA2068290007
:1015E00089B2405C3038002808D1002000900123E7
:1015F00001220021002005F052FD0EE020682900A4
:1016000089B2405C3038012807D1002000900123C6
:1016100001220121002005F042FD31BD38B5040052
:101620000D002068290089B2405C302805D0206870
:10163000290089B2405C312808D100230422DFF858
:101640002C14DFF82404007800F09AFA20682900AE
:1016500089B2405C3038002808D100200090012376
:1016600001220021042005F01AFD20E02068290055
:1016700089B2405C3038012819D1DFF82404807C1D
:10168000002808D00020009001230122012104201D
:1016900005F005FD0BE00120DFF80814C8720120F9
:1016A0000090012301220021042005F0F8FC31BD47
:1016B0007047704770477047704738B504000D0099
:1016C000DFF8B003C078012809D100231122DFF828
:1016D000D813DFF89403007800F052FA08E00023F2
:1016E0000E22DFF8C813DFF88003007800F048FA14
:1016F00031BD00000403002038B504000D0020684F
:10170000007830281BDB206800783A2817DA206838
:1017100000783038C0B203F0A9F9012807D10023BE
:101720000422D249D048007800F02AFA0EE00023C3
:101730000722D249CC48007800F022FA06E00023C4
:101740000722CE49C848007800F01AFA31BD0000DF
:101750000D0A0000F8FB00087800002038FC0008A3
:10176000CC02002038B504000D0004F03EFF31BD6E
:1017700038B504000D0005F057F931BDF0B59BB048
:1017800004000D006421002202AE300000F068FF6A
:101790000020ADF804000D2000900023C44A01A9E8
:1017A00002A804F0DDFCC34E3078002808D10520E3
:1017B00000900023C04A01A902A804F0D1FC07E070
:1017C000042000900023BD4A01A902A804F0C8FC2F
:1017D000092000900023BA4A01A902A804F0C0FC25
:1017E0000023727801A902A804F0FBFB8BA701205B
:1017F000009000233A0001A902A804F0B1FC0023E4
:10180000B27801A902A804F0ECFB0A2000900023A2
:10181000AC4A01A902A804F0A3FC0023F27801A9B4
:1018200002A804F0DEFB0120009000233A0001A989
:1018300002A804F095FC0023327901A902A804F063
:10184000D0FB03200090002386A201A902A804F087
:1018500087FC0023BDF8042002A98348007800F02B
:101860008FF91BB0F0BD000004F8000840FC000830
:101870002DE9FC4704000D000020ADF8040001AA8A
:10188000A188206804F022FC060001AAA188206833
:1018900004F01CFC070001AAA188206804F016FCD3
:1018A000804601AAA188206804F010FC814601AAA4
:1018B000A188206804F00AFC82465046C0B200901D
:1018C0004B46DBB24246D2B23900C9B23000C0B298
:1018D00003F037F8012807D1002304226349624846
:1018E000007800F04DF906E00023072263495E48C6
:1018F000007800F045F9BDE8F387000084EF0008A8
:10190000CCE10008B808002078B59BB004000D00B9
:101910006421002202AE300000F0A2FE0020ADF8EB
:1019200004000D2000900023614A01A902A804F0E0
:1019300017FC5048807800280ED0022815D002D31A
:1019400003281BD023E00D20009000235E4A01A94C
:1019500002A804F005FC1AE01020009000235B4A66
:1019600001A902A804F0FCFB11E00B200090002369
:10197000574A01A902A804F0F3FB08E00B200090ED
:101980000023544A01A902A804F0EAFBFFE7032060
:101990000090002333A201A902A804F0E1FB002378
:1019A000BDF8042002A93048007800F0E9F81CB026
:1019B00070BD38B504000D0031480078002809D109
:1019C00004F056F80023042228492748007800F044
:1019D000D7F806E000230F223F492348007800F0A3
:1019E000CFF831BD38B504000D0025480078002837
:1019F0000BD10E21394800F0E5FE002304221B49DB
:101A00001948007800F0BCF806E000230F223249A4
:101A10001548007800F0B4F831BD00003A0000002D
:101A2000FEB504000D000A2100226E46300000F0D1
:101A300017FE002608222A49022000F046FB104823
:101A4000018B684604F09CF907003A00D2B292B2CA
:101A50006946022000F039FB022207A1022000F0B3
:101A600034FBF7BD2E0D0A00E11E002000FC00082B
:101A700084030020540400200D0A000008FC000824
:101A8000B41C00208CFA000810FC000898FA00082A
:101A9000E405002018FC000814F80008A4FA000867
:101AA00048020020201E002014F4000824F800083A
:101AB00034F80008801E002020FC000828FC0008E4
:101AC000B0FA0008BCFA000844F8000828F400083E
:101AD000C8FA0008D4FA000854F800088000002072
:101AE000E0FA0008BFF34F8F6A490A6812F4E06217
:101AF000694802430A60BFF34F8F00BFFDE780B51E
:101B00001321664800F00DF872B6FFF7EBFF02BD37
:101B100080B51F21624800F004F872B6FFF7E2FFBB
:101B200001BD70B504000D002A0092B22100022010
:101B300000F01CFB5B483B21C26BB0F84030D15435
:101B4000B0F84010491CA0F8401000210A002B00FA
:101B500092B29BB29A4212D2B0F84020B2F5806F96
:101B60000DDA0A0092B2A25CC36BB0F840609A55DD
:101B7000B0F84020521CA0F84020491CE6E770BD98
:101B80002DE9F84380460C0015001E000027404652
:101B9000C0B2401E03D0401E012809D956E04FF4C0
:101BA0007A732A0092B221003F4805F07DFC4DE097
:101BB000DFF8F8904FF480720021484600F079FA7F
:101BC0003848002181852821828D09F80210818DF5
:101BD000491C818500210A00838E92B29A420BD261
:101BE000026B0B009BB2D25C838D09F80320828DBF
:101BF000521C8285491CEEE72922838D09F80320B7
:101C0000828D521C82852822838D09F80320828DC3
:101C1000521C8285002739002A0089B292B2914273
:101C20000AD2390089B2615C828D09F80210818D77
:101C3000491C81857F1CEEE72921828D09F802105D
:101C4000818D491C818500218186FFE7BDE8F183F4
:101C500080B5154805F007FC06F01FF9144805F09B
:101C600002FC06F01BF9134805F0FDFB06F017F91E
:101C700001BD80B506F0E4F906F0FAF806F0ACF91B
:101C800006F0FDF806F0C2F906F000F901BD704754
:101C9000704700000CED00E00400FA05A0F4000815
:101CA000A4EF0008B8080020701C0020F0150020E8
:101CB000E81B00202C1C002038B504000D00DFF8C4
:101CC0004C050168200000F006F8A84201D301206D
:101CD00000E0002032BD814204D25FF0FF32101AD2
:101CE000081800E0081A70472DE9F84F8AB006007E
:101CF00014001D00DDF850905FF0000A5FF000084E
:101D000000271E2100220DF1080B584600F0A8FC08
:101D1000DFF8FC24D2E90001CDE9000102A800901F
:101D2000002D09D1002C07D130203168B2888854A9
:101D3000B088401CB08068E0002D01D1002C1AD082
:101D4000200029000A22002306F0FEFA9046200017
:101D500029000A22002306F0F7FA04000D0018F10A
:101D600030000099BDF804208854BDF80400401CE0
:101D7000ADF80400E0E75FF0000BBDF804000221BD
:101D800090FBF1F0594689B281421FDA0098BDF804
:101D900004100844594689B24942084410F8010C1D
:101DA00007000098BDF804100844594689B249421A
:101DB000084400995A4692B2895C00F8011C0098C8
:101DC000594689B247541BF1010BD6E74946C9B2BF
:101DD000684600F01DF800210800BDF8042080B21C
:101DE00090420DD23068B28810440A0092B2009B33
:101DF0008C461FFA8CFC13F80C308354491CEBE71B
:101E0000B288BDF804008218B2800BB0BDE8F08F34
:101E10002DE9F84785B005000E005FF00009142198
:101E200000226C46200000F01BFC002400275FF01D
:101E300000080020A988012903D1296809783029E0
:101E400003D03100C9B2002900D1A7E03100C9B2E6
:101E5000AA8889B2914235D3694630222300DBB289
:101E6000CA54641C2E222300DBB2CA54641CAA8804
:101E7000B21A170000231A00BC465FFA8CFC92B21B
:101E80001FFA8CFC624508D23022A4465FFA8CFC13
:101E900001F80C20641C5B1CEDE700221300B5F870
:101EA00004C09BB2634543D22B6894461FFA8CFC56
:101EB00013F80C30A4465FFA8CFC01F80C30641C5B
:101EC000521CEBE7A988891B884600210A0043467B
:101ED000DBB292B29BB29A420CD22A680B009BB240
:101EE000D25C6B46A4465FFA8CFC03F80C20641CA1
:101EF000491CEBE76B462E22A4465FFA8CFC03F8E4
:101F00000C20641C4246D2B21100B5F804C089B25C
:101F100061450DD2296894461FFA8CFC11F80C100B
:101F2000A4465FFA8CFC03F80C10641C521CEBE70F
:101F3000A1464946C9B2B1F1010A504680B2002813
:101F400015D06846514689B2415C302906D05146C9
:101F500089B2405C2E2800D1641E08E0514689B247
:101F6000405C302800D1641EBAF1010AE5E7280080
:101F700000F017F8002001002200D2B289B292B21C
:101F800091420BD2A9884A1CAA806A4603009BB2E0
:101F9000D25C2B6889B25A54401CECE706B0BDE80D
:101FA000F08710B400210A00838892B29A4206D2C8
:101FB000002203680C00A4B21A55491CF3E7002262
:101FC000828010BC704770B40300002200240020FF
:101FD00000252A000E00D2B2F6B2B2421FD22A0069
:101FE000D2B29A5C302A0ADB2A00D2B29A5C3A2A30
:101FF00005DA2A00D2B29A5C303A140001E00022DD
:1020000014002A00D2B2002A03D12200D2B210005A
:1020100003E00A22504350FA84F06D1CD9E770BCEB
:102020007047F0B4002200230025002425008E888C
:10203000ADB2B54237D20D682600B6B2AD5DEDB295
:102040002D092A001500EDB20A2D07DA12F130052C
:1020500006682700BFB206F8175006E012F13705F0
:1020600006682700BFB206F817500D682600B6B202
:10207000AD5D15F00F052B001D00EDB20A2D08DA3D
:1020800013F1300506682700BFB206EB47067570EE
:1020900007E013F1370506682700BFB206EB4706D5
:1020A0007570641CC2E78D88ADB26D008580F0BC90
:1020B000704710B4040013005A1E9BB2002B02D0CC
:1020C0002170641CF7E710BC704770B504000D0068
:1020D00016002000C0B2032807DA4FF47A733200EA
:1020E00092B229004B4805F0DFF970BD38B5040005
:1020F0000D00280006F040FA020092B229002000EC
:10210000C0B2FFF7E2FF31BDF0B585B004000D00AD
:102110001600022100226F46380000F0A1FA3E4866
:10212000D0E90023CDE9012368460190002738005B
:10213000310080B289B2884216D2380080B2284479
:1021400003900120ADF810000020ADF8080003A9AD
:1021500001A8FFF766FFBDF8082001992000C0B272
:10216000FFF7B3FF7F1CE2E705B0F0BD70B50400D8
:102170000D001600320092B229002000C0B2FFF715
:10218000A4FF264A1068002804D0310089B2280034
:102190001268904770BD70B504000D00280006F06D
:1021A000EBF9020092B229002000C0B2FFF78DFFC8
:1021B0001A4E3068002807D0280006F0DDF901002B
:1021C00089B228003268904770BD70B586B00500AE
:1021D0000C000A21002203AE300000F041FA104842
:1021E000D0E90023CDE9012303A80190002000904D
:1021F0002200002301A8FFF777FDBDF80820019910
:102200002800C0B2FFF761FF06B070BDB41E002009
:1022100050FC0008701C002058FC0008B81E00206C
:1022200060FC000838B58AB00025282100226C46E1
:10223000200000F015FAAA208DF800002948018935
:102240008DF8011000242100C9B2028989B291429F
:102250000AD241682200D2B2895C6A462300DBB20E
:102260001A449170641CEEE74FF4005006F067FDCD
:1022700028224FF40051684606F025FE0BB030BD11
:1022800010B586B0182100226C46200000F0E8F955
:10229000AA208DF8000007208DF801001348694638
:1022A00002788A70428892B2120A8DF8032042881E
:1022B0000A714268120E8DF805204268120C8DF8E2
:1022C00006204268120ACA7140680872064C200053
:1022D00006F035FD10222100684606F0F4FD06B038
:1022E00010BD0000B8080020006070000409002044
:1022F00010B5040007F0AFF8012010BD38B5040098
:10230000C149087800280BD101200870BF48808897
:10231000BF4908802100C9B2BE4800F053FA1FE04F
:10232000BB48BA4DAA8803889A4212D1002008708F
:10233000AA8829680120FFF7C8FE94A10120FFF7B1
:10234000D5FE01212800FEF700FD2800FFF729FE39
:1023500006E0A98801802100C9B2AE4800F032FA37
:102360000020AD4981F84500012032BD10B50400C0
:10237000AA490220FFF7BAFE05F004FE012010BDB5
:1023800010B50400A64807C807F006F90421A148C3
:1023900000F018FA012010BD10B5040000F02EFA6C
:1023A000012010BD01009C4A507E00280AD1D07D3A
:1023B000401CD075D07D9B4B1B78984204D30020E5
:1023C000D07501E00020D075012070470100012088
:1023D000704780B506F05CFF00F010FA07F03AF99C
:1023E00001BD1CB500F03AF88F4C002000900FF2B0
:1023F000791300225FF0FF31200006F053FF44F60E
:102400002061200007F00AF8200006F071FF07F0B5
:1024100033F913BD10B5FFF7DCFFFFF7E2FF834987
:102420000220FFF763FE82490220FFF75FFE814929
:102430000220FFF75BFE322007F0B2F907F028F91F
:102440007D4C0020207000F01CF82178084320709B
:1024500000F074FF217808432070EFE780B505F0A5
:102460001FFD6D4808210175012141760FF2B10071
:10247000724908607248734908607348734908607C
:1024800001BD70B50020002400252800C0B2072837
:102490003ADA604E2800C0B200013044407801288A
:1024A00030D12800C0B2042801D001200400280047
:1024B000C0B200013044406800280ED007F084F913
:1024C0002900C9B2090131444968401A2900C9B23A
:1024D000090131448968884214D300202900C9B217
:1024E00009013144487007F06FF92900C9B20901A8
:1024F000314448602800C0B22900C9B20901314402
:10250000C96888476D1CC0E7424A92F8410000281C
:1025100003D10421100000F055F92000C0B270BDB5
:1025200080B500213B4800F03EF901BD70B50400C4
:10253000002500F063F946484178621AB1FBF4F1D6
:1025400004FB01213C22837802FB01F6B34208D24E
:1025500051438078091A891C4FF47A70414308006E
:1025600000E03C4870BD000010B5040006F07BFDA3
:10257000032803D11A213848FFF7D3FA052125484B
:1025800000F011F900F004F810BD00000D0A000081
:1025900038B542F2107431490878002807D108781C
:1025A000401C08701F4800781B49C87528E01A486D
:1025B000407E012817D11B4D6868A86000F01EF905
:1025C000234A5078AB68AD682D1AB0FBF3F103FBDA
:1025D00001513C2041439078091A891C4FF47A70CC
:1025E00041430C0008E00F490A78488842438A605A
:1025F0004888FFF79BFF040021000B4806F00EFF00
:10260000094806F075FE31BDC81E002020090020D3
:10261000BC1E002008000020B8080020E4EE0008DE
:10262000601E002004090020681D002004EF00083F
:102630000CF0000828F00008C91E0020AC1E002085
:1026400010090020A81E00201DE70008B81E002069
:102650006C1E0020C0D4010044F00008CA1E0020F7
:1026600062F30F2262F31F42401810F0030308D0F8
:10267000C91A1FD3DB0748BF00F8012D28BF20F877
:10268000022D130030B414461546103928BF20E936
:102690003C00FAD8490728BF20E90C0048BF40F8A1
:1026A000042D890028BF20F8022D48BF00F8012D15
:1026B00030BC7047C91818BF00F8012DCB0728BFE0
:1026C00000F8012D704730B4002513E050F8042BBA
:1026D000D30744BFA9F101039A18091F042942F83E
:1026E000045BFAD213468C0744BF15809B1CC907B4
:1026F00048BF1D7050F8041B0029E7D130BC70475B
:1027000062B38B0708D0521E11F8013B00F8013B61
:1027100000F024808B07F6D1830740F0208000BFB3
:10272000103A07D330B4B1E83810103AA0E83810A6
:10273000F9D230BC530724BFB1E80810A0E8081054
:1027400044BF51F8043B40F8043BD20724BF31F8A2
:10275000022B20F8022B44BF0B7803707047121F26
:1027600017D35B0009D151F8043B20F8023B1B0C46
:10277000121F20F8023BF6D20BE051F8043B00F8A0
:10278000013B1B0A20F8023B1B0C121F00F8013B07
:10279000F3D238BF121D521E24BF11F8013B00F8BE
:1027A000013BF8D87047020001200B00DBB21B018F
:1027B0001344587000200B00DBB21B011344586017
:1027C0000120704738B504000D0001202900C9B26E
:1027D00009012144487006F0F7FF2900C9B2090138
:1027E00021444860012032BD020000200B00DBB212
:1027F0001B011344587001207047000010B586B0CB
:10280000DFF81C41002201A9200000F056F9002247
:102810006946200000F0E8F9DFF808019DF806108D
:1028200081709DF8051041709DF8041001709DF8AD
:102830000010C1709DF8021001719DF801104171E6
:102840009DF80310817106B010BD17B587B0142232
:10285000002101A806F0BEFF04220021684606F010
:10286000B9FF07A800F031F801282BD10998029090
:102870009DF81E008DF806009DF81D008DF80500DE
:102880009DF81C008DF804009DF81F008DF80000D5
:102890009DF820008DF802009DF821008DF80100C0
:1028A0009DF822008DF80300DFF87440002201A992
:1028B000200000F08FF800226946200000F031F976
:1028C000012000E000200AB010BD010088783D28FA
:1028D00001DB002023E048783D2801DB00201EE0DA
:1028E0000878182801DB002019E0C878092801DBE6
:1028F000002014E00879202801DB00200FE048794F
:102900000D2801DB00200AE08879642801DB002023
:1029100005E08879142801DA002000E001207047E2
:102920002C1D00206C1E002070B504000125002C19
:1029300001D101204DE0607F002804D100202077E4
:10294000200006F0D6FF02206077CA202168486286
:10295000532021684862200000F02FFB0600300061
:10296000C0B200281ED120688168DFF8FC05014054
:10297000206881602068816862682069024360691C
:102980000243114320688160E06821680861206883
:102990000069A16850EA014021680861200000F048
:1029A00034FB06003000C0B200280DD12068006C56
:1029B00030F48020216808642068016CA06901431C
:1029C0002068016401206077FF20216848623000A0
:1029D000C0B270BD2DE9F84305000E0014005FF091
:1029E0000008287F012801D1022064E00120287717
:1029F00002206877002C1CD128688068400601D42A
:102A00000020F070307800F019FB8146707800F0FB
:102A100015FB0700B07800F011FB5FFA89F9FFB2EF
:102A20003F0257EA0947C0B20743F07857EA805798
:102A30000FE028688068400601D40020F0703078EC
:102A400077783F0257EA0047B0780743F07857EAB3
:102A50008057CA20296848625320296848622800A4
:102A600000F0ABFA80464046C0B2002816D1DFF82D
:102A7000FC043840296808602868806830F48020A9
:102A80002968886028688168F268306902431143C8
:102A900028688160280000F0B8FA80464046C0B23D
:102AA000002801D101206877FF20296848620020B2
:102AB00028774046C0B2BDE8F283F8B505000E00A5
:102AC000140000212868806A70602868006940044A
:102AD000400CB06028680768DFF8900407403800B1
:102AE000000C10F03F0030703800000A10F07F003A
:102AF000707017F07F00B0703800800D10F001008A
:102B0000F070002C0BD1307800F0A4FA307070789F
:102B100000F0A0FA7070B07800F09CFAB07000205D
:102B2000F2BD2DE9F84305000E0014005FF0000827
:102B3000287F012801D1022054E0012028770220BB
:102B40006877002C07D17078C00604D5707810F033
:102B5000EF000A307070002C16D1F07800F06EFA99
:102B60008146707800F06AFA0700B07800F066FAE3
:102B70005FFA89F9FFB23F0257EA0947C0B207433B
:102B8000307857EA403709E0F07877783F0257EA23
:102B90000047B0780743307857EA4037CA202968A1
:102BA0004862532029684862280000F006FA8046EF
:102BB0004046C0B2002808D1DFF8B4033840296885
:102BC0004860280000F021FA80464046C0B2002844
:102BD00001D101206877FF2029684862002028770A
:102BE0004046C0B2BDE8F283F8B505000E001400FF
:102BF000002128684768DFF8780307403800000C98
:102C0000F0703800000A10F01F00707017F03F00DD
:102C1000B0703800400B10F007003070002C0BD162
:102C2000F07800F017FAF070707800F013FA707016
:102C3000B07800F00FFAB0700020F2BD2DE9FE4F21
:102C400005000E0014004FF47A77DFF82883D8F8D7
:102C5000000040094FF47A71B0FBF1F07843009026
:102C60000020029000200190287F012801D102203D
:102C7000E3E00120287702206877002C31D1286812
:102C80008068400601D40020F070F0690028FFD071
:102C9000307800F0D3F98146707800F0CFF98246A1
:102CA000B07800F0CBF9834696F8200000F0C6F922
:102CB0005FFA89F95FFA8AFA5FEA0A2A5AEA094A48
:102CC0005FFA8BFB5BEA0A0AF1785AEA815AC0B2D2
:102CD0005AEA006AF06950EA0A0A706950EA0A0A78
:102CE0001FE028688068400601D40020F070F06979
:102CF0000028FFD0307896F801A05FEA0A2A5AEA45
:102D0000004AB07850EA0A0AF0785AEA805A96F8EF
:102D100020005AEA006AF06950EA0A0A706950EA2B
:102D20000A0A7168B0690143CA202A6850625320B8
:102D30002A685062706AB0F5807F31D12868806857
:102D400030F480702A6890602868C06810F08000B5
:102D500070F4C0702A68D0600098421E009200286B
:102D600008D1FF202A685062032068770020287766
:102D7000032062E02868C068C007EDD52868C0F865
:102D80001CA0286841642868806850F480702A6814
:102D900090602868806850F480502A6890603AE01B
:102DA0002868806830F400702A6890602868C068DD
:102DB00010F0800070F420702A68D060D8F800000D
:102DC00040094FF47A72B0FBF2F007FB00F700976E
:102DD0000098421E0092002808D1FF202A68506205
:102DE0000320687700202877032026E02868C06841
:102DF0008007EDD52868C0F820A02868816428687D
:102E0000806850F400702A6890602868806850F4E8
:102E100000502A6890605848026852F400320260FC
:102E20005648026852F400320260FF202A6850625D
:102E300001206877002028770020BDE8FE8FF8B5D4
:102E400004000D000026207F012801D102205AE055
:102E50000120207702206077CA2021684862532031
:102E600021684862B5F5807F22D12068806830F4FF
:102E70008070216888602068806830F48050216804
:102E8000886006F0A1FC07002068C068C00732D443
:102E900006F09AFCC01B40F2E9318842F4D3FF20CF
:102EA00021684862032060770020207703202AE011
:102EB0002068806830F4007021688860206880682D
:102EC00030F400502168886006F07EFC070020681E
:102ED000C06880070FD406F077FCC01B40F2E931D0
:102EE0008842F4D3FF2021684862032060770020E5
:102EF0002077032007E0FF202168486201206077E7
:102F0000002020770020F2BD10B504002068806802
:102F1000C0040ED52068C068C0050AD5200006F0A0
:102F2000C0FD2068C06810F0800070F4C070216897
:102F3000C8602068806880040ED52068C06880055D
:102F40000AD5200006F0D2FE2068C06810F080008C
:102F500070F420702168C8605FF400300849086090
:102F60000120607710BD0000BFFF8FFF7F7F7F00D3
:102F70003FFFFF0004000020003C0140083C0140EE
:102F8000143C014070B5040000252068C06830F092
:102F9000A0002168C86006F017FC06002068C06821
:102FA000800608D406F010FC801B40F2E93188420C
:102FB000F4D3032000E0002070BD70B504000025AC
:102FC00000262068C06840061CD42068C06850F005
:102FD00080002168C86006F0F7FB05002068C06823
:102FE00040060FD43000C0B201280BD006F0ECFB35
:102FF000401B40F2E9318842F0D304206077012081
:103000000600EBE73000C0B270BD38B50400002503
:103010002068C06830F080002168C860206880683F
:10302000800608D42000FFF7ADFF002803D004205D
:103030006077012005002800C0B232BD00210200E7
:10304000D2B20A2A02D3491C0A38F8E750EA011022
:10305000C0B2704700210200D2B212090A2312FB4B
:1030600003F210F00F008018C0B2704738B50400AA
:10307000DFF81C552878002803D0022810D008D388
:1030800019E04FF4FA70DFF80C15886000F07BFA55
:1030900013E06420DFF8FC14886000F075FA0CE09F
:1030A0000020287005F0E3FF0121DFF8E804FFF7B6
:1030B0007AFB01200BE0002028702878401C287043
:1030C0002100C9B2DFF8CC04FFF77CFB012032BD40
:1030D00010B5040005F06DFF012823D105F0C3FFF2
:1030E00003280ED1DFF8B0140220FEF7FFFFDFF84F
:1030F000A40442F2107181600021FFF763FB0120FC
:1031000017E005F0CBFF012805D10321DFF8840487
:10311000FFF749FB04E00120DFF8801481F820016B
:10312000012006E02100C9B2DFF86804FFF74AFB7E
:10313000012010BD38B50400DFF864542878002859
:1031400009D0022825D015D3042840D030D3062832
:103150004DD04BD34CE0DFF84C0405F0B3FF012811
:1031600007D1DFF844140220FEF7C0FF2878401C86
:10317000287046E0DFF82C0405F0F2FF012807D1A3
:10318000DFF828140220FEF7B1FF2878401C2870D1
:1031900037E0DFF81C0405F095FF012807D1DFF8C0
:1031A00014140220FEF7A2FF2878401C287028E0A3
:1031B000DFF8FC0305F0D4FF012807D1DFF8F8138E
:1031C0000220FEF793FF2878401C287019E0DFF8F2
:1031D000EC0305F077FF012807D1DFF8E4130220A4
:1031E000FEF784FF2878401C28700AE009E008E018
:1031F000002028700120DFF8A41381F820010120AD
:1032000006E02100C9B2DFF88C03FFF7DBFA0120EA
:1032100032BD01000120704770B5040005F023FFA6
:10322000012819D1DFF88853688EA98E884213D0FF
:10323000DFF89063707800280ED1DFF88C1302203D
:10324000FEF754FF0020B07301207070AB8D002298
:103250000021032000F026F92100C9B2DFF8340371
:10326000FFF7B0FA012070BD10B504002100C9B20B
:10327000DFF82003FFF7A6FA012010BDF8B504001F
:103280000025002605F0EFFE012849D1DFF8347350
:10329000787B012844D1F888398988423CD0387B32
:1032A000002806D002280FD0042818D0052821D0E5
:1032B00021E0DFF8F002818D0D00C168FA88808D71
:1032C00000FB02110E0016E0DFF8E402818D0D0014
:1032D000C168FA88808D00FB02110E000BE0DFF858
:1032E000DC02818D0D00C168FA88808D00FB02111F
:1032F0000E0000E0FFE72B009BB232000121072007
:1033000000F0D0F8F888401CF880F8887989884265
:1033100006D30020F88003E000207873012006E047
:103320002100C9B2DFF86C02FFF74CFA0120F2BDB0
:1033300010B5040005F036FE012010BD70B5002068
:10334000002400252800C0B2082843DADFF84462D0
:103350002800C0B2000130444078012838D128004C
:10336000C0B2042809D02800C0B2052805D0280022
:10337000C0B2062801D0012004002800C0B200011C
:103380003044406800280ED006F01EFA2900C9B269
:10339000090131444968401A2900C9B20901314480
:1033A0008968884214D300202900C9B20901314438
:1033B000487006F009FA2900C9B209013144486091
:1033C0002800C0B22900C9B209013144C968884740
:1033D0006D1CB7E705F00EFC2043C0B270BD2DE9AF
:1033E000F047C2B004000D0016001F005FF0000897
:1033F00000205FF0000A002140918DF80441AA21CD
:103400006A4643469BB2D15418F10108310089B293
:10341000090A6A4643469BB2D15418F1010869462D
:10342000424692B28E5418F1010800210800320081
:1034300080B292B290420AD2080080B2285C6A46FA
:1034400043469BB2D05418F10108491CEEE73800FE
:1034500080B2401E424692B2904201DA781E804607
:1034600018F101085FF00009484680B2414689B270
:10347000491E884208DA6846494689B2405C90EAAB
:103480000A0A19F10109EFE76846414689B2084482
:1034900000F801ACADF80681684605F002FE42B0C6
:1034A000BDE8F087FEB504000D0016001F008DF882
:1034B000064000968DF80750ADF80470684605F098
:1034C000E1FDF7BD2DE9F04104000D0000260027C5
:1034D0005FF00008280080B200284DD005F0C3FD41
:1034E000012849D12000C0B2002805D0022813D0FD
:1034F0000AD3032818D018E02A48818E8846002174
:103500000F00C08D060010E02948818E88460221F8
:103510000F00C08D060008E02848818E88460421EF
:103520000F00C08D060000E0FFE72800310080B2E8
:1035300089B2884220D22348012141732349097866
:1035400001710773A0F80880468101892A0092B2B0
:10355000914203D30189491BC18003E00189891984
:10356000491BC18007210B48FFF71DF918490220AC
:10357000FEF7BCFD012004E016490220FEF7B6FD6F
:103580000020BDE8F081704780B506F0B1FB01BDB9
:10359000D61E00200403002064EF0008640700200A
:1035A000541E00205C0200205CED000880ED000845
:1035B00094020020A4ED0008C8ED0008CC02002011
:1035C000ECED0008101E002010EE0008E11E0020A7
:1035D00058FB000834EE00082DE9FE4F04000D00F2
:1035E0000020002600270021ADF804105FF001083C
:1035F0005FF000095FF0000A21680978212901D1F4
:1036000001218A465FF0000B584600B2A988884223
:1036100072DA20685146C9B2405C29685A4612B233
:10362000895C884265D1012080465046C0B2401C6A
:103630000600002081460020ADF80400300000B2F2
:10364000A18888424ADA2068310009B2405C7C28AF
:103650001ED1BDF90400002804D10120814616EBDB
:103660000B00070001A800903B001BB22A002100BC
:10367000701C00B200F059F880464046C0B20128E4
:1036800006D15146C9B2584600B200F03DF839E0C3
:103690004846C0B200280FD12068310009B2405C12
:1036A00029685A4612B21144320012B2895C88422B
:1036B00002D00020804611E04846C0B2002801D167
:1036C000761CBBE73000BDF9041000B2884203DA73
:1036D000BDF904000600B1E7761CAFE74046C0B272
:1036E000012806D15146C9B2584600B200F00CF884
:1036F00008E01BF1010B87E75146C9B25FF0FF30CC
:1037000000F002F8BDE8FE8F02000800C0B20028F9
:1037100002D1100000B207E0100000B2002802D46D
:103720005FF0FF3000E000207047F0B50400059D19
:103730000120002637003FB207FA84F7B1F804C031
:1037400067453ADA0F68A4460FFA8CFC6744B44622
:103750000FFA8CFC17F80C707C2F03D137192F80CF
:1037600000B22BE09788B4460FFA8CFC0CFA83FC6D
:10377000674506DAB2F904707F1C2F805FF0FF37CF
:1037800038000F68A4460FFA8CFC6744B4460FFA61
:103790008CFC17F80C70D2F800C09E460FFA8EFE13
:1037A000F444B6460FFA8EFE1CF80EC0674502D0F0
:1037B0005FF0FF373800761CBCE700B2F0BD0000B8
:1037C00038B50400DFF81C0C002181800E2102684E
:1037D0008388D1548188491C8180012102688388B3
:1037E000D1548188491C8180012102688388D15489
:1037F0008188491C81808188006800F0CDFE082204
:10380000DFF8E41B0120FEF760FCDFF8E05BAA882C
:1038100000212868FEF74DFC0020A880DFF8D05B6F
:1038200001212800FEF7BFFF0B212800FEF7CAFF89
:1038300005212800FEF7B7FF0C212800FEF7B3FF93
:10384000DFF8A41C8878002802D08878012803D1EA
:1038500008212800FEF7A7FF012032BD38B504007B
:10386000DFF8F85B01220121280006F08DFC012021
:1038700005F096FF00220121280006F085FC2100BA
:10388000C9B2DFF86C0BFEF79DFF012032BD10B509
:103890000400DFF8581B8888002810D0DFF8000CDF
:1038A00002888B889A4208D1002101800221DFF82A
:1038B000400BFEF778FF012008E089880180210095
:1038C000C9B2DFF82C0BFEF77DFF012010BD2DE9FA
:1038D000F14F8EB05FF0000A5FF000090024002075
:1038E000ADF806005FF0000800208DF80400002508
:1038F0000026DFF8F87A0022B988C9B2386801F0EA
:10390000A7F93868B988084410F8010C3968BA88F2
:10391000114411F8021C51EA0021ADF80C10B888CE
:10392000821E92B239680DF1060005F0C4FEBDF8A2
:103930000600BDF80C10884202D10120040006E008
:10394000DFF8A40BC078002801D10120040020007A
:10395000C0B2012840F00684DFF88C8B98F8020092
:1039600000280ED1012001F0F1F80821DFF8800ACB
:10397000FEF719FF0020DFF8741B0871002088F89B
:103980000000B888801E514689B2891C8842C0F266
:10399000DD83504610F1010A396880B2085C0B28BB
:1039A00000F08F810C2800F0C7810D2800F00B82F9
:1039B0000E2800F08D80152800F04C81162823D0A9
:1039C0001B2800F026821C2800F04282202837D0D5
:1039D000212800F09980222800F0BD80232800F0E3
:1039E000F680602800F08382612800F09C826228C3
:1039F00000F0CB82632800F0FA82642800F02F8365
:103A0000652800F06883A0E33868514689B2405CBD
:103A100081461AF1010A4846C0B201280FD1B88880
:103A2000801E4946C9B211FA8AF1884207DB38681C
:103A3000514689B2405C01F011FE5AFA89FAA0E7BA
:103A40003868514689B2405C81461AF1010A4846FD
:103A5000C0B215283BDAB888801E4946C9B211FAAF
:103A60008AF1884233DBDFF8A8BB9BF8000000280E
:103A70002DD10A2200211BF10100FEF71AFB0020C4
:103A800001004A46C9B2D2B291421CD23968020042
:103A9000D2B212FA8AF2895C0D0039680200D2B201
:103AA00012FA8AF2114449780E002900C9B20B2992
:103AB00007DA3100C9B2062903DA2900C9B20BF8C6
:103AC0000160801CDCE701F0E9FD5AFA89FA58E749
:103AD0003868514689B2405C81461AF1010A48466D
:103AE000C0B201280FD1B888801E4946C9B211FA68
:103AF0008AF1884207DB3868514689B2405C012868
:103B000001D101F061F83CE73868514689B2405C68
:103B100081461AF1010A4846C0B201281AD1B88874
:103B2000801E4946C9B211FA8AF1884212DB386810
:103B3000514689B2405C02280CDA00200090012333
:103B400001223868514689B2415C002003F0A7FA8F
:103B50005AFA89FA15E73868514689B2405C8146BD
:103B60001AF1010A4846C0B201282FD1B888801E38
:103B70004946C9B211FA8AF1884227DB38685146B2
:103B800089B2405C022821DADFF8880A807C0028AC
:103B90000BD000200090012301223868514689B2E1
:103BA000415C042003F07BFA0EE03868514689B28C
:103BB000405CDFF8641AC8720120009001230122E2
:103BC0000021042003F06BFA5AFA89FAD9E6386822
:103BD000514689B2405C81461AF1010A4846C0B29A
:103BE000012836D1B888801E4946C9B211FA8AF137
:103BF00088422EDB3868514689B2405C022828DAB8
:103C00003868514689B2405C002805D10321DFF8AD
:103C10000C0AFEF7C8FD1AE03868514689B2405CCC
:103C2000012814D1DFF8EC09807C00280AD0DFF8E5
:103C3000F009007803F058F80221DFF8E009FEF7F8
:103C4000B2FD04E00321DFF8D409FEF7ACFD5AFA17
:103C500089FA96E63868514689B2405C81461AF185
:103C6000010A4846C0B203282AD1B888801E4946B6
:103C7000C9B211FA8AF1884222DBDFF8281C3868C1
:103C8000524692B2805C08801AF1010A088800024C
:103C900008800A88386853469BB2C05C02430A8099
:103CA0001AF1010A3868524692B2805C88701AF1A3
:103CB000010A0321DFF8F00BFEF775FD5AFA89FAC5
:103CC0005FE63868514689B2405C81461AF1010AC4
:103CD000B888801E4946C9B211FA8AF188422ADBA7
:103CE000DFF80027002090800B2011689388C854CB
:103CF0009088401C90801068918800F8019090880E
:103D0000401C90804846C0B200280ED0386851460A
:103D100089B2405C11689388C8541AF1010A9088EE
:103D2000401C9080B9F10109ECE79188106800F01F
:103D300033FC5AFA89FA24E63868514689B2405C65
:103D400081461AF1010AB888801E4946C9B211FAA3
:103D50008AF1884236DB142100220DF1240B5846EB
:103D6000FEF77EFC5FF0000B09A80C215A46D2B288
:103D700081541BF1010BDFF8F01C0A895B46DBB2B2
:103D8000C2541BF1010B00221300DBB2B1F808C0D2
:103D90009BB263450ED24B6894465FFA8CFC13F8D5
:103DA0000C30DC465FFA8CFC00F80C301BF1010B88
:103DB000521CE9E75946C9B289B209A800F08EFF42
:103DC0005AFA89FADDE53868514689B2405C814685
:103DD0001AF1010AB888801E4946C9B211FA8AF15F
:103DE000884215DB4946C9B289B23868524692B258
:103DF000104400F05BFD4946C9B2891C89B238689D
:103E0000524692B21044801E00F068FF5AFA89FAB6
:103E1000B7E53868514689B2405C81461AF1010A1B
:103E20004846C0B2012812D1B888801E4946C9B29E
:103E300011FA8AF188420ADB3868514689B2405C3F
:103E4000022802DA002088F800005AFA89FA98E578
:103E50003868514689B2405C81461AF1010A4846E9
:103E6000C0B2062832D1B888801E4946C9B211FABC
:103E70008AF188422ADB3868514689B2405C8DF865
:103E80000B003868514689B2084440788DF8090023
:103E90003868514689B2084480788DF80A0038683D
:103EA000514689B20844C0788DF8100038685146F0
:103EB00089B2084400798DF811003868514689B2FA
:103EC000084440798DF812005AFA89FA9DF80B00DF
:103ED00014280BDBDFF88CBB002204A95846FEF740
:103EE00079FD002202A95846FEF71BFE49E5386815
:103EF000514689B2405C81461AF1010A4846C0B277
:103F000001280FD1B888801E4946C9B211FA8AF13A
:103F1000884207DB3868514689B2405C00F0CCFD2E
:103F20005AFA89FA2DE53868514689B2405C8146D3
:103F30001AF1010A4846C0B2012825D1B888801E6E
:103F40004946C9B211FA8AF188421DDBDFF8D00672
:103F500041783868524692B2805C03F03DF80128FF
:103F60000BD14946C9B2891C89B23868524692B20F
:103F70001044801E00F0B2FE04E00421DFF8340B90
:103F800000F00AFB5AFA89FAFBE43868514689B214
:103F9000405C81461AF1010A4846C0B2012825D189
:103FA000B888801E4946C9B211FA8AF188421DDBE1
:103FB0003868514689B2415CDFF86406007803F046
:103FC0000BF801280BD14946C9B2891C89B238685F
:103FD000524692B21044801E00F080FE04E004219C
:103FE000DFF8D00A00F0D8FA5AFA89FAC9E438683A
:103FF000514689B2405C81461AF1010A4846C0B276
:1040000001282BD1B888801E4946C9B211FA8AF11D
:10401000884223DBDFF8A40B01790091C378827812
:1040200041783868D4461FFA8CFC10F80C0000F078
:1040300088FC01280BD14946C9B2891C89B238686D
:10404000524692B21044801E00F048FE04E0042163
:10405000DFF8600A00F0A0FA5AFA89FA91E43868A9
:10406000514689B2405C81461AF1010A4846C0B205
:1040700002282FD1B888801E4946C9B211FA8AF1A8
:10408000884227DBDFF8340B01790091C378396867
:10409000524692B211444A783968D4461FFA8CFCD1
:1040A00011F80C10007800F04CFC01280BD14946A7
:1040B000C9B2891C89B23868524692B21044801E37
:1040C00000F00CFE04E00421DFF8E80900F064FAD7
:1040D0005AFA89FA55E43868514689B2405C8146FB
:1040E0001AF1010A4846C0B202282DD1B888801EB4
:1040F0004946C9B211FA8AF1884225DBDFF8BC0AC9
:104100003968524692B21144497800913968524652
:1041100092B28B5C82784178007800F012FC012822
:104120000BD14946C9B2891C89B23868524692B24D
:104130001044801E00F0D2FD04E00421DFF8740971
:1041400000F02AFA5AFA89FA1BE41AE49DF80400EE
:1041500001280FD100230222A1A1DFF8F00A00F00C
:1041600071FA07E000230522DFF8281ADFF8DC0ADD
:1041700000F068FAB888DFF8481A0870BA88002199
:104180003868FDF796FF0020B88001219848FEF7B7
:104190000AFB01200FB0BDE8F08F38B50400944D44
:1041A000D14841784EF660204143A96300F074FA8B
:1041B0002100C9B22800FEF705FB012032BDF0B591
:1041C0008BB004000026DFF8FC59280006F0BFF889
:1041D000002803D1DFF8745A002700E001272800E7
:1041E00006F0B5F8002822D03800C0B201280AD164
:1041F00001226946280006F02DF89DF8281068462F
:1042000000F010FA0DE0B8488078012809D10122A9
:104210006946280006F01EF89DF82810684600F050
:1042200001FA06217248FEF7CDFA012005E02100CF
:10423000C9B26F48FEF7C6FA01200BB0F0BDF0B569
:104240008BB004000026DFF87C59280006F07FF8C8
:10425000002803D1DFF8F459002700E001272800E7
:1042600006F075F8002805D105216148FEF79BFA94
:10427000012021E03800C0B201280AD1012269469C
:10428000280005F0E7FF9DF82810684600F0CAF9FD
:104290000DE095488078012809D10122694628005F
:1042A00005F0D8FF9DF82810684600F0BBF90621FC
:1042B0004F48FEF787FA01200BB0F0BDF8B50400B7
:1042C000DFF8545AA87915283CDBDFF8F06830781D
:1042D000012825D184488078012821D1834800789D
:1042E00000281DD16978287800F018FD012817D121
:1042F000DFF8C87B09213800FEF755FA082138009D
:10430000FEF772FA022000F021FC1722DFF89C1A57
:104310000120FDF7DAFE02229EA10120FDF7D5FE65
:104320007148807802280DD1307801280AD1697847
:10433000287800F03FFD012804D10A21DFF87C0B2A
:10434000FEF731FA2100C9B2DFF8700BFEF73AFA36
:104350000120F2BD38B50400634908780A2818DB4B
:10436000DFF8585B09212800FEF71DFA0A21280012
:10437000FEF728FA1722DFF8381A0120FDF7A5FE0C
:10438000022284A10120FDF7A0FE032000F0DEFB45
:1043900024E00878401C08701248002282801B220A
:1043A000036885885A558288521C828001220368DE
:1043B00085885A558288521C8280097802688388D1
:1043C000D1548188491C81808188006800F0E4F81C
:1043D0002100C9B2DFF8E40AFEF7F4F9012032BD8A
:1043E0004F4B000058040020D0F800082809002096
:1043F0008403002038B504003B4D002028700821BC
:10440000DFF8B80AFEF7F0F90020287001203749DC
:10441000087100200090012301220021002002F0F9
:104420003EFE00200090012301220021042002F022
:1044300036FE03F0EBFD03F029FD41F2883000F079
:10444000ABFB1522DFF87C1A0120FDF73EFE0222AD
:1044500050A10120FDF739FE012032BD00000240CD
:1044600010B504004FF4FA7000F096FB1E488078F7
:10447000002802D0002000F069FB0821DFF83C0A88
:10448000FEF791F91422DFF8401A0120FDF71DFE16
:10449000022240A10120FDF718FE012010BD0000FE
:1044A000C01E002010B5040010490878002813D160
:1044B0004878002810D1887800280DD1C8780028C5
:1044C0000AD10879002807D1DFF8800705F03FFFFF
:1044D000002801D100F078FB2100C9B2DFF8DC0927
:1044E000FEF761F9012010BD54040020781E002061
:1044F00038B50400DFF820188879142803DA002082
:10450000DFF8C8291070DFF8C829107800280CD10E
:104510000878092802D008780F280ED10020DFF88B
:10452000AC1908700120107007E008780B2802D041
:104530000878112801D100201070DFF890592878F0
:1045400000281ED1DFF88C09002181801C2102681F
:104550008388D1548188491C818001210268838825
:10456000D1548188491C8180012102688388D154FB
:104570008188491C81808188006800F00DF8012045
:1045800028702100C9B2DFF83409FEF71BF90120B9
:1045900032BD00000D0A000038B504000D000020F7
:1045A000ADF800002A0092B22100684605F083F8B9
:1045B000BDF80000290089B260546D1C002029005C
:1045C00089B260546D1C20780E380ED00D38012849
:1045D0000BD92538012811D801232A00D2B2210095
:1045E000DFF8E00500F02EF810E000232A00D2B238
:1045F0002100DFF8D00500F025F807E000232A00AD
:10460000D2B22100DFF8440600F01CF831BD0000F2
:10461000B41C002048020020201E0020600400205E
:104620003809002038B504000D002900C9B289B24C
:10463000200005F069F801222900C9B2200000F02D
:1046400007FB31BDF8B596B004000D0016001F0041
:104650008DF85460002001003200C9B2D2B29142FC
:1046600008D20100C9B2695C0BAA0300DBB2D154C5
:10467000401CF0E7200005F06AFE1D2804DB012243
:104680006946200005F0E6FD3A00D2B20BA92000F1
:1046900005F0CBFD17B0F0BD38B5DFF838080021C4
:1046A00081800A2102688388D1548188491C8180D5
:1046B000002102688388D1548188491C8180DFF8F9
:1046C00018188A7C036884881A558288521C828054
:1046D000DFF80828137804688588635583885B1C95
:1046E0008380137904688588635583885B1C838085
:1046F000537904688588635583885B1C8380D378ED
:1047000004688588635583885B1C838052780368BE
:1047100084881A558288521C8280DFF8C427B2F937
:1047200000301B1204688588635583885B1C838076
:104730001288036884881A558288521C8280DFF8A8
:10474000A427B2F900301B1204688588635583885A
:104750005B1C83801288036884881A558288521CE7
:104760008280FF22036884881A558288521C8280C6
:104770004A8892B2120A036884881A558288521CA9
:1047800082804A88036884881A558288521C8280F5
:104790008A8892B2120A036884881A558288521C49
:1047A00082808A88036884881A558288521C828095
:1047B0000A7C036884881A558288521C82808A6821
:1047C0001212036884881A558288521C82808A6873
:1047D000036884881A558288521C8280CA68120E27
:1047E000036884881A558288521C8280CA68120C19
:1047F000036884881A558288521C8280CA68120A0B
:10480000036884881A558288521C8280CA680368AB
:1048100084881A558288521C8280497C0268838869
:10482000D1548188491C8180DFF8BC160A7803685E
:1048300084881A558288521C82804978026883884D
:10484000D1548188491C8180DFF870130A7803688D
:1048500084881A558288521C82804A78036884882A
:104860001A558288521C82808A78036884881A5577
:104870008288521C8280CA78036884881A5582888C
:10488000521C8280097902688388D1548188491C2E
:1048900081808188891E0268517081880068FFF7D5
:1048A0007BFE31BDA01E00206405002070B586B0DF
:1048B00004000D00280080B215283FDA16210022DE
:1048C0006E463000FDF7CCFEAA208DF800002800CF
:1048D0008DF80100644E00203081142200217068A0
:1048E000FDF7E7FB00200100C9B22A0089B292B2AD
:1048F000914216D20100C9B2142912DA0100C9B2DC
:10490000615C6A460300DBB21A4491700100C9B2CF
:10491000615C72683389D1543189491C3181401CF2
:10492000E1E74FF4005004F00AFAAA1C92B24FF4E7
:104930000051684604F0C7FA012000E0002006B0EC
:1049400070BD2DE9F34F83B015001E000E9C0020B2
:10495000002100273C229DF81030534353FA85F87C
:104960003300DBB202FB03F252FA84F99DF80C200B
:10497000022A72DA9DF8100018286EDA2800C0B2F8
:104980003C286ADA3000C0B2182866DA2000C0B2CB
:104990003C2862DA4846414680B289B2884211D248
:1049A000414689B2484680B2091A1F291BDB40469E
:1049B00080B2D0F5B46010FA89F01F2813DB012013
:1049C000070010E0494689B2404680B2091A1F2903
:1049D00009DB484680B2D0F5B46010FA88F01F2891
:1049E00001DB012007003800C0B2012835D1DFF813
:1049F000CCA19DF80C008AF800009DF810008AF800
:104A000001008AF802508AF803608AF804400621FF
:104A10000022EB465846FDF723FEAA208DF8000041
:104A200068469AF8001041709AF8011081709AF85F
:104A30000210C1709AF8031001719AF804008DF801
:104A400005004FF4E04004F07AF906224FF4E0410B
:104A5000684604F038FA012000E0002005B0BDE807
:104A6000F08F00002C1D0020B808002038B504008D
:104A70002000C0B202281ADA022100226D46280066
:104A8000FDF7EEFDDFF86404C470AA218DF8001074
:104A9000C0788DF801004FF4104004F050F9022264
:104AA0004FF41041684604F00EFA012000E00020A7
:104AB00032BD000060FB00087CB504002000C0B2DD
:104AC000002801D101200400DFF820546C7002217D
:104AD00000226E463000FDF7C3FDDFF8F803002129
:104AE0008180602102688388D1548188491C81803B
:104AF000012102688388D1548188491C81806978AA
:104B000002688388D1548188491C8180818800682B
:104B1000FFF742FDAA208DF8000068788DF80100AB
:104B20004FF4C04004F00BF902224FF4C041684634
:104B300004F0C9F9DFF884036A784EF660214A432D
:104B400082630321FDF73EFE012076BD38B50400E7
:104B50002000C0B204281ADA022100226D46280083
:104B6000FDF77EFDDFF884038470AA218DF8001024
:104B700080788DF80100DFF87853280004F0DFF822
:104B800002222900684604F09EF9012000E001207D
:104B900032BD000068FB000838B504000122402146
:104BA000D54805F0F1FAD34D210089B2280004F070
:104BB00035FC280004F09CFB31BD0000801E002065
:104BC000D91E0020981D00203EB54FF47A7004F0E5
:104BD000E7FD0521002201AC2000FDF741FD002486
:104BE0000020ADF8000001AD0E202100C9B26854CC
:104BF000641C01202100C9B26854641C00202100FB
:104C0000C9B26854641C2200D2B292B201A96846AB
:104C100004F051FDBDF800002100C9B26854641CC5
:104C200000202100C9B26854641C2100C9B201A847
:104C3000FFF7F8FC0922B1490120FDF746FA4FF4CD
:104C4000FA7004F0ADFDFCF75AFF37BD801D00205F
:104C5000F0B59DB004000D0016005021002209AFF0
:104C60003800FDF7FDFC02942800C0B2ADF80C003E
:104C700004A8A3491322FDF743FD3000C0B2002869
:104C800005D1122204A90120FDF71FFA04E0132226
:104C90009C490120FDF719FA9B48D0E90023CDE992
:104CA000002309A80090BDF80C0050280ADA02A9D8
:104CB0006846FDF7B6F9BDF8042000990120FDF71C
:104CC00004FA04E00A2291490120FDF7FEF90222CC
:104CD0007BA10120FDF7F9F91DB0F0BD38B5040046
:104CE0000D007C4800218180290089B2282911DA31
:104CF00081882A0092B2914208D28188615C026860
:104D00008388D1548188491C8180F1E781880068BB
:104D1000FFF742FC31BD00006C1E0020F0B5020020
:104D2000002600275FF0000C3C25DFF8E4E19EF848
:104D300001309EF8020005FB03039EF803409EF835
:104D4000040005FB04041000C0B205FB00F555FA91
:104D500081F5200080B2102801DB0F3C01E0D4F582
:104D6000B46420001E0080B2B6B2B0420DD228005A
:104D70001E0080B2B6B2B04205D22800260080B232
:104D8000B6B2B0420FD201200EE028001E0080B261
:104D9000B6B2B04207D32800260080B2B6B2B04205
:104DA00001D2012000E00020F0BD000004F2000864
:104DB0001CF20008F0B502000024002500265FF078
:104DC0003C0CDFF84CE19EF801309EF802000CFB31
:104DD00003039EF803709EF804000CFB0707100005
:104DE000C0B20CFB00FC5CFA81FC38009E4680B22D
:104DF0001FFA8EFE70450DD260461C0080B2A4B230
:104E0000A04215D260463C0080B2A4B2A0420FD3AB
:104E100001200EE060461C0080B2A4B2A04205D37F
:104E200060463C0080B2A4B2A04201D3012000E061
:104E30000020F0BD704770B5002000240025280038
:104E4000C0B20D2836DA1D4E2800C0B20001304431
:104E5000407801282CD1012004002800C0B20001B4
:104E60003044406800280ED004F0AEFC2900C9B2DE
:104E7000090131444968401A2900C9B20901314485
:104E80008968884214D300202900C9B2090131443D
:104E9000487004F099FC2900C9B209013144486006
:104EA0002800C0B22900C9B209013144C968884745
:104EB0006D1CC4E72000C0B270BD00008403002058
:104EC0000D0A000034F200084CF20008D71E002042
:104ED000D81E00205804002048020020201E002078
:104EE000E40500209C1E0020380900205404002006
:104EF00000107100B01D0020000C0240DCF800081A
:104F000038F300084CF3000870FB0008E8F80008CC
:104F1000801E002010B5040001224FF40041DFF88C
:104F2000380C05F031F9012010BD01000020DFF838
:104F30002C2C10700120704710B504000120DFF800
:104F4000CC1A0870DFF8C80A4078012802D1012085
:104F500000F0D4FDDFF8F00A406A012808D10321EF
:104F6000DFF8FC0BFDF71FFC032000F06FFD05E0F0
:104F70002100C9B2DFF8E80BFDF724FC012010BDC9
:104F800010B504000220DFF8841A08704FF40051B5
:104F9000DFF8D80A05F0EDF801280FD1DFF8C40BCF
:104FA0000078002803D16421022000F033FD2100A5
:104FB000C9B2DFF8AC0BFDF705FC0DE000F00DFD0C
:104FC0000020DFF8A01B48700421DFF8940BFDF7E8
:104FD000EAFB042000F03AFD012010BD10B50400EA
:104FE0000320DFF8281A0870DFF85C1A487D0028D3
:104FF00038D00A208875887D002833D0887D401EEF
:105000008875887D084440780028F4D000208A7D87
:105010000A44D072487D401E4875887D401C8875C2
:10502000887D401E032809D9001F012809D9801E48
:10503000012809D9801E012809D90BE00420C87570
:1050400008E00320C87505E00220C87502E00120D1
:10505000C875FFE70521DFF8180CFDF7A4FB052054
:1050600000F0F4FC012010BD10B504000420DFF8AE
:105070009C190870DFF8EC0ADFF8F81BC97D42784C
:1050800091420DD00078002803D16421012000F066
:10509000C1FC2100C9B2DFF8D80BFDF784FB09E0A1
:1050A00000F09BFC0621DFF8C80BFDF77CFB062017
:1050B00000F0CCFC012010BD38B504000520DFF85D
:1050C0004C190870DFF88059A87D2844807AA97DA2
:1050D000695C884209D0A87D00F032FB2100C9B28A
:1050E000DFF88C0BFDF76EFB18E000F050FB687DDD
:1050F000002808D00421DFF8780BFDF763FB0420BB
:1051000000F0A4FC07E00721DFF8640BFDF74BFB80
:10511000072000F09BFC002000F085FB012032BD41
:1051200010B504000620DFF8E41808704FF40051B1
:10513000DFF8380905F01DF801280FD1DFF8240A3F
:105140000078002803D16421022000F063FC2100D4
:10515000C9B2DFF81C0BFDF735FB0DE000F03DFC9C
:105160000020DFF8001A48700821DFF8040BFDF773
:105170001AFB082000F06AFC012010BD10B50400E5
:105180000720DFF888180870002000F0B7FCDFF86F
:10519000B808406A002805D1022000F044FB00F066
:1051A0005EFC05E02100C9B2DFF8C40AFDF70AFB86
:1051B000012010BD38B50400DFF8BC5A287800285B
:1051C00006D104F001FBDFF8B41A08600120287052
:1051D000DFF87408817D0144897A827D825C914286
:1051E0000DD0807D00F0ACFA04F0EEFADFF88C1AF6
:1051F0000968401A43F69921884220D30FE000F055
:10520000C6FA002000F0B0FC00231322DFF8701A69
:105210000120FCF7B5FC00202870012016E000F00A
:10522000B6FA002000F0A0FC00231122DFF8541A87
:105230000120FCF7A5FC00202870012006E02100D9
:10524000C9B2DFF82C0AFDF7BDFA012032BD10B556
:105250000400DFF8340A642102689163042105F038
:10526000B0F8012010BD10B50400DFF8200A642159
:10527000026811640C2105F0A4F8012010BD70B57E
:105280000400002000F070FCDFF8045A2978DFF8F1
:10529000D008FDF7A9FADFF8B0670A22002116F15D
:1052A0000B00FCF706FF0A220021701CFCF701FF2F
:1052B00000F093FB00F06BFA287802280AD05DD347
:1052C00004281FD012D3062834D027D3082849D069
:1052D0003CD353E02A22DFF8BC190220FCF7F5FE8C
:1052E0000222B3A10220FCF7F0FE47E02B22DFF8F8
:1052F000A8190220FCF7E9FE0222ADA10220FCF76A
:10530000E4FE3BE02522DFF894190220FCF7DDFEE5
:105310000222A7A10220FCF7D8FE2FE02D22DFF801
:1053200080190220FCF7D1FE0222A1A10220FCF785
:10533000CCFE23E02122DFF86C190220FCF7C5FE29
:1053400002229BA10220FCF7C0FE17E02922DFF811
:1053500058190220FCF7B9FE022295A10220FCF7A1
:10536000B4FE0BE02822DFF844190220FCF7ADFE62
:1053700002228FA10220FCF7A8FEFFE7012070BDEA
:1053800070B50400DFF828592878002806D104F009
:105390001BFADFF82019086001202870DFF8C467C5
:1053A0007078052819D04FF48041DFF8C00604F06A
:1053B000E0FE012807D13078002833D16421012094
:1053C00000F028FB2EE000F008FB0520707004F0D0
:1053D000FBF9DFF8E018086024E07078002821D09D
:1053E0004FF40051DFF8840604F0C3FE012807D112
:1053F0003078002816D16421022000F00BFB11E068
:1054000000F0EBFA00207070002000F0ADFB0020EF
:10541000287000231222DFF8A0180120FCF7B0FB4F
:10542000012020E004F0D0F9DFF888180968401A5C
:1054300043F6992188420FD300F0CFFA00231022BF
:10544000DFF878180120FCF79BFB002000F08CFBB4
:1054500000202870012006E02100C9B2DFF8100802
:10546000FDF7B0F9012070BD38B50400042000F04C
:105470007BFBDFF84C582878002805D0022823D081
:1054800009D3032827D045E0012000F037FB287816
:10549000401C28703EE0DFF8B005406A012803D1C7
:1054A0002878401C287035E000231522DFF81418F6
:1054B000DFF814080078FCF763FB00202870002058
:1054C00000F052FB01202CE0002000F017FB2878B0
:1054D000401C28701EE0DFF87005406A002809D1E2
:1054E00000231722DFF8E417DFF8DC070078FCF769
:1054F00047FB08E000231522DFF8C817DFF8C807CC
:105500000078FCF73DFB00202870002000F02CFB09
:10551000012006E02100C9B2DFF85407FDF752F977
:10552000012032BD10B50400DFF8480700780028DC
:1055300035D1DFF89C070078012804D02FD3032849
:1055400025D012D32BE0DFF81C06007802280BD000
:105550004FF40051DFF8140504F00BFE012803D1CD
:105560006421022000F056FA19E0DFF8F80500780F
:1055700001280BD04FF48041DFF8F00404F0F9FD6E
:10558000012803D16421012000F044FA07E0DFF88C
:10559000D4050078002801D000F01FFAFFE72100B1
:1055A000C9B2DFF8CC06FDF70DF9012010BD0000EF
:1055B0000D0A000010B50400DFF88C040078002804
:1055C00044D1DFF810070078012814D0022816D043
:1055D000032818D004281AD005281CD006281ED06D
:1055E000072820D0082822D0092824D00A2826D02D
:1055F000642828D02AE0012000F0A2F826E002204A
:1056000000F09EF822E0032000F09AF81EE004204B
:1056100000F096F81AE0052000F092F816E0062057
:1056200000F08EF812E0072000F08AF80EE0082063
:1056300000F086F80AE0092000F082F806E00A206F
:1056400000F07EF802E000F0A2F8FFE72100C9B206
:10565000DFF81C06FDF7B6F8012010BD38B50400D0
:105660002000C0B2002818D02000C0B20B2814DAE5
:10567000DFF8D453AC75287800280ED1032000F051
:1056800073FA0120A97D68540020A97D29448872FD
:105690000921DFF8DC05FDF786F831BD10B5DFF82C
:1056A000A8430020607500210800C0B20A280ADA69
:1056B0000800C0B220444078002802D0607D401C21
:1056C0006075491CF0E7607D00281CD0012000F0C7
:1056D0004BFA0A22002114F10B00FCF7EAFCDFF878
:1056E000804402212000FDF75EF8022000F0AEF9B0
:1056F0000020C64908700120DFF8601408700121FD
:105700002000FDF771F810BD38B504000020651EBB
:10571000DFF860152A00D2B20A44D27A521C2B005C
:10572000DBB20B44DA722A00D2B20A44D27A2B00DE
:10573000DBB2194449788A4201D100F028F831BD22
:1057400070B50400DFF89015087800281ED10120FC
:10575000087004F039F8DFF8841508600025661E2B
:105760000122DFF87C053100C9B230F81110DFF8F2
:1057700074053300DBB250F8230004F005FD01226C
:105780004FF40061DFF8600504F0FEFC70BD7FB5EA
:10579000DFF844050178012944D10021017000207F
:1057A00000242000C0B20A2810DA0022DFF83005F9
:1057B0002100C9B230F81110DFF828052300DBB250
:1057C00050F8230004F0E0FC641CEAE700224FF4E8
:1057D0000061DFF8840304F0D7FC03F0F5FFDFF885
:1057E000FC542968401A28600A2100226E463000C5
:1057F000FCF736FF00260A22DFF8F0140220FCF73F
:1058000064FC2968684600F0BBFA05002A00D2B2A1
:1058100092B269460220FCF758FC0222BCA1022089
:10582000FCF753FC7FBD38B504002000C0B200284F
:1058300003D0022822D046D365E0DFF8B40440212B
:1058400002688388D1548188491C818002210268C2
:105850008388D1548188491C81807B498A7D036873
:1058600085885A558288521C82808A7D895C0268AC
:105870008388D1548188491C818044E0002000F055
:1058800073F9DFF86C04412102688388D154818860
:10589000491C8180022102688388D1548188491C77
:1058A000818069490A8B92B2120A036885885A5529
:1058B0008288521C8280098B02688388D154818837
:1058C000491C81801FE0002000F04EF9DFF8200421
:1058D000162102688388D1548188491C8180012166
:1058E00002688388D1548188491C81805649897D0A
:1058F00002688388D1548188491C8180012198489D
:10590000FCF760FFFFE7DFF8E80381880068FEF737
:1059100043FE2000C0B200F001F831BDFEB5040026
:1059200000252000C0B2002803D002283CD027D395
:105930004DE01522DFF8BC130220FCF7C6FB424FF6
:10594000B97D684600F01CFA06003200D2B292B26D
:1059500069460220FCF7B9FB0622DFF89C130220FF
:10596000FCF7B3FBB87D395C684600F009FA050026
:105970002A00D2B292B269460220FCF7A6FB26E0CA
:105980001922DFF878130220FCF79FFB2E48817D57
:10599000684600F0F5F905002A00D2B292B26946D5
:1059A0000220FCF792FB12E01722D5490220FCF7F7
:1059B0008CFB2548018B684600F0E2F905002A00BF
:1059C000D2B292B269460220FCF77FFBFFE70222C7
:1059D000A6A10220FCF779FBF7BD10B5614C207839
:1059E000002801D000F053F8A74800210268916315
:1059F000042104F0E6FCA5480021026811640C2192
:105A000004F0DFFC0020207010BD0000CC1E002040
:105A1000981E002038B504000D00FFF7DEFF2000BF
:105A2000C0B2012804D10A214D48FCF7CBFE03E0A7
:105A30000B214B48FCF7C6FE4A4804708D480021F4
:105A4000C1610021016231BDB41C002010B5040009
:105A50000C214348FCF7B6FE8D48047010BD80B59C
:105A60000C218348FCF7C0FE01BD0000000C024081
:105A700080B5022000F078F80D213948FCF793FE3C
:105A800005207C49C87500203649487001BDFEB527
:105A90000A2100226C462000FCF7E2FD00240C22C3
:105AA00098490220FCF711FB724EF169684600F03C
:105AB00067F905002A00D2B292B269460220FCF7CB
:105AC00004FB13A7022239000220FCF7FEFA0C2285
:105AD0008D490220FCF7F9FA316A684600F050F966
