:020000040800F2
:10000000702F00204D160108110601081306010883
:10001000150601081706010819060108000000006E
:100020000000000000000000000000001B060108A6
:100030001D060108000000001F0601082106010836
:10004000491A01084D1A0108511A0108551A0108E8
:10005000591A01085D1A0108350601083F06010812
:1000600049060108530601085D060108611A0108E6
:1000700067060108651A0108691A01086D1A010866
:1000800071060108711A0108751A0108791A010828
:100090007D1A0108811A0108851A01087B060108EA
:1000A000891A01088D1A0108911A0108951A010888
:1000B000991A01089D1A0108A11A0108A51A010838
:1000C000A91A0108AD1A0108B11A0108B51A0108E8
:1000D000B91A0108A1060108AB060108B506010816
:1000E000BF060108F3060108BD1A0108C11A01087C
:1000F000C51A0108C91A0108CD1A0108D11A010848
:10010000D51A0108D91A0108DD1A0108E11A0108F7
:10011000E51A0108E91A0108ED1A0108F11A0108A7
:10012000FD060108F51A010807070108F91A010878
:10013000FD1A01080000000000000000011B01087A
:10014000051B0108091B01080D1B0108111B0108F3
:10015000151B0108191B01081D1B0108211B0108A3
:10016000251B0108291B01082D1B0108311B010853
:10017000351B0108391B01080000000000000000C9
:100180003D1B0108411B0108F8B504000D000026C5
:100190000027DFF89C0B0178022901D101210F0013
:1001A0003900C9B211FA85F11431A28891422DDBD0
:1001B00001230422DFF87C1B007802F0EFF8142200
:1001C0000021DFF8740B02F082FBDFF8701B0020C7
:1001D00008812E00320092B2A3883800C0B21B1AE8
:1001E0009A420EDA088914280BD22068320092B2A3
:1001F000805C4A680B89D0540889401C0881761CB1
:10020000E8E702F078FC02F091F806E000230E2205
:10021000DFF8E41C007802F0C1F8F1BD38B5040045
:100220000D00DFF8180B002302894168DFF8000B8E
:10023000007802F0B3F831BD7047704770477047DF
:10024000704770472DE9F84304000F000025002691
:10025000A088390089B2491D884209DA00230D229D
:10026000DFF8DC1ADFF8C80A007802F097F84AE0F5
:100270002068390089B2405CB0F130017F1C0A224D
:1002800020683B009BB2C05C02FB0101B1F1300869
:100290007F1C7F1C2068390089B2405C30387F1C8D
:1002A00010FB02F021683A0092B2895C4018B0F16C
:1002B00030097F1C4046C0B200281BD04046C0B267
:1002C000332817DA484680B23D2813DADFF82C0CC1
:1002D00080F80080A0F8029002F079FC02F000FEA5
:1002E00001230422DFF84C1ADFF8440A007802F0F8
:1002F00055F808E000230722DFF8041CDFF8300A75
:10030000007802F04BF8BDE8F183FEB504000D0063
:1003100000260C2100226F46380002F049FE684694
:1003200066213200D2B28154761C72213200D2B2E0
:100330008154761C65213200D2B28154761C712121
:100340003200D2B28154761C3D213200D2B28154A7
:10035000761CDFF8A81B0A780A2392FBF3F23032EE
:100360003300DBB2C254761C0A780A2392FBF3F7FF
:1003700003FB172230323300DBB2C254761C7822E2
:100380003300DBB2C254761C4A880A2392FBF3F294
:100390000A2392FBF3F703FB172230323300DBB260
:1003A000C254761C49880A2291FBF2F302FB131116
:1003B00030313200D2B28154761C00233200D2B2E6
:1003C00092B26946DFF86809007801F0E7FFF7BDEF
:1003D0002DE9F04104000D002E0000275FF0000819
:1003E0003000A18880B288420DD22068310089B2E5
:1003F000405C302805DB2068310089B2405C3A2837
:1004000001DB761CECE73000A18880B2884219D26B
:100410002068310089B2405C80464046C0B2302836
:1004200008DB4046C0B23A2804DA3000A18880B226
:10043000884200D306E00A20474357FA88F7303F46
:10044000761CE0E7DFF8B40A476002F0C0FB02F078
:1004500047FD00230522DFF86C1BDFF8D408007885
:1004600001F09CFFBDE8F08138B588B004000D00B4
:1004700003A8DFF8541B142202F0FAFDDFF84C0B3E
:10048000D0E90023CDE9012303A8019000200090CA
:10049000DFF8680A4268002301A802F033F800235D
:1004A000BDF808200199DFF88808007801F076FF90
:1004B00009B030BD704770B504000D000021206800
:1004C0002A0092B2805CB0F130026D1C0A232068D1
:1004D0002E00B6B2805D03FB0202B2F130066D1C45
:1004E0003000C0B233280EDADFF8100A067002F0CE
:1004F0006EFB01230422DFF83C18DFF83408007893
:1005000001F04CFF08E000230622DFF88C1BDFF827
:100510002008007801F042FF70BD704738B5040034
:100520000D00DFF80C08017801290BD1012304220A
:10053000DFF80018007801F031FF0621DFF8E00C49
:1005400002F0D9FD31BD2DE9F84304000D00A946A4
:10055000002600275FF000084846A18880B2884244
:100560000ED22068494689B2405C302805DB2068FD
:10057000494689B2405C3A2802DB19F10109EBE7F0
:100580002068494689B2405C2C281AD02068494628
:1005900089B2405C80464046C0B2302808DB404605
:1005A000C0B23A2804DA4846A18880B2884200D313
:1005B00007E00A20464356FA88F6303E19F1010951
:1005C000DEE74846A18880B288420ED220684946BC
:1005D00089B2405C302805DB2068494689B2405C1E
:1005E0003A2802DB19F10109EBE72068494689B294
:1005F000405C2C281AD02068494689B2405C80466D
:100600004046C0B2302808DB4046C0B23A2804DA7F
:100610004846A18880B2884200D307E00A204743B9
:1006200057FA88F7303F19F10109DEE7B6F5803F48
:100630000BD2B7F5803F08D20023022295A1DFF844
:10064000F006007801F0AAFE08E000230E22DFF891
:10065000D81BDFF8DC06007801F0A0FEBDE8F183CE
:100660007047704770477047704770B40D000023A3
:1006700000242A00868892B2B2420DD202682E006F
:10068000B6B2925D302A05DB02682E00B6B2925DEA
:100690003A2A01DB6D1CECE702682E00B6B2925DCF
:1006A0002C2A19D002682E00B6B2925D14002200E6
:1006B000D2B2302A08DB2200D2B23A2A04DA2A0067
:1006C000868892B2B24200D306E00A22534353FA1C
:1006D00084F3303B6D1CDFE770BC7047704770B52A
:1006E00088B004000D000C2100226E46300002F09C
:1006F0005FFC1421002203AE300002F059FC206898
:10070000290089B200EB0106B0783A2802D170794D
:100710003A2809D000230522DFF8F01BDFF8100685
:10072000007801F03BFE41E00A213278707801FB4D
:100730000202B2F110008DF80000F278307901FB6E
:100740000202B2F110008DF80100B279F07901FBDC
:100750000201B1F110008DF80200684602F05DFD63
:10076000012809D000230522DFF8A01BDFF8C0050F
:10077000007801F013FE19E09DF802008DF80E00DC
:100780009DF801008DF80D009DF800008DF80C001B
:10079000002203A9DFF8DC0B02F020FE0023022276
:1007A0003CA1DFF88C05007801F0F8FD08B070BDC1
:1007B0007FB504000D000C21002201AE300002F0D4
:1007C000F7FB042100226E46300002F0F1FB2068A6
:1007D000290089B200EB010670782D2805D1307907
:1007E0002D2802D1F0792D2809D000230522DFF829
:1007F0001C1BDFF83C05007801F0D0FD49E03078A3
:1008000031388DF807000A21B278F07801FB020236
:10081000B2F110008DF808007279B07901FB020284
:10082000B2F110008DF80900327A707A01FB0201F2
:10083000B1F110008DF80A0001A802F0EEFC0128C9
:1008400009D000230522DFF8C41ADFF8E404007899
:1008500001F0A4FD1DE09DF807008DF800009DF853
:1008600008008DF802009DF809008DF801009DF840
:100870000A008DF8030000226946DFF8F80A02F04A
:1008800054FE0023022203A1DFF8A404007801F043
:1008900085FD7FBD4F4B00007FB504000D000C218E
:1008A00000226E46300002F083FB206840782D283D
:1008B00013D1206800792D280FD12068C0792D2808
:1008C0000BD12068807A2C2807D12068407B3A28F9
:1008D00003D12068007C3A2809D000230522DFF8E4
:1008E0002C1ADFF84C04007801F058FD72E0206803
:1008F000007831388DF803000A212068827820685A
:10090000C07801FB0202B2F110008DF804002068EB
:1009100042792068807901FB0202B2F110008DF863
:1009200005002068027A2068407A01FB0202B2F1D9
:1009300010008DF806002068C27A2068007B01FB59
:100940000202B2F110008DF800002068827B20685E
:10095000C07B01FB0202B2F110008DF8010020689B
:10096000427C2068807C01FB0201B1F110008DF80F
:100970000200684602F051FC012808D0002305223D
:10098000DFF88819EA48007801F008FD22E0DFF876
:10099000D40A9DF80310C1709DF8041001719DF8F0
:1009A000051041719DF8061081719DF800100170CD
:1009B0009DF8011041709DF8021081700321DFF84D
:1009C000600802F098FB00230222AFA1D84800780B
:1009D00001F0E4FC7FBDF8B58AB004000D000026EC
:1009E000282100226F46380002F0E2FA684674219E
:1009F0003200D2B28154761C69213200D2B28154C5
:100A0000761C6D213200D2B28154761C65213200F1
:100A1000D2B28154761C3D213200D2B28154761C70
:100A2000DFF8A81B0A780A2392FBF3F23032330076
:100A3000DBB2C254761C0A780A2392FBF3F703FB5D
:100A4000172230323300DBB2C254761C3A22330014
:100A5000DBB2C254761C4A780A2392FBF3F230329E
:100A60003300DBB2C254761C4A780A2392FBF3F7B8
:100A700003FB172230323300DBB2C254761C3A2219
:100A80003300DBB2C254761C8A780A2392FBF3F25D
:100A900030323300DBB2C254761C8A780A2392FBD0
:100AA000F3F703FB172230323300DBB2C254761C5B
:100AB0003B223300DBB2C254761C0D223300DBB282
:100AC000C254761C64223300DBB2C254761C61220D
:100AD0003300DBB2C254761C74223300DBB2C25442
:100AE000761C65223300DBB2C254761C3D223300F3
:100AF000DBB2C254761CCA7831323300DBB2C25446
:100B0000761C2D223300DBB2C254761C0A790A23EC
:100B100092FBF3F230323300DBB2C254761C0A7916
:100B20000A2392FBF3F703FB172230323300DBB2C8
:100B3000C254761C2D223300DBB2C254761C4A7993
:100B40000A2392FBF3F230323300DBB2C254761C3C
:100B50004A790A2392FBF3F703FB17223032330062
:100B6000DBB2C254761C2D223300DBB2C254761C99
:100B70008A790A2392FBF3F230323300DBB2C2549B
:100B8000761C89790A2291FBF2F302FB13113031B2
:100B90003200D2B28154761C00233200D2B292B21B
:100BA00069466348007801F0F9FB0BB0F0BD70476F
:100BB00038B504000D000023022233A15C48007800
:100BC00001F0ECFB01F0B2FB31BD38B504000D00C3
:100BD0000221DFF8EC0A02F09DFA00230722DFF879
:100BE000E41A5348007801F0D9FB31BD38B5040050
:100BF0000D00DFF8D40A0023828801684C48007891
:100C000001F0CCFB31BD7047704778B58BB0040064
:100C10000D001E21002203AE300002F0C9F9DFF8FA
:100C2000580BD0E90023CDE9012303A80190DFF898
:100C30004C6B00200090B28E002301A801F062FCF2
:100C40002F200199BDF808208854BDF80800401CE9
:100C5000ADF8080000200090F28D002301A801F0FB
:100C600051FC0023BDF8082001993148007801F0BB
:100C700095FB0CB070BD38B504000D00DFF87C1C8E
:100C8000022001F096FE31BD4F4B000070477047C7
:100C900038B504000D00290089B2200000F032F9B7
:100CA000010089B2022003F011F931BD38B504000A
:100CB0000D00290089B2200000F024F9010089B25A
:100CC000002003F003F931BD38B504000D00290000
:100CD00089B2200000F016F9010089B2012003F06A
:100CE000F5F831BD38B504000D00290089B22000A7
:100CF00000F008F9010089B2032003F0E7F831BDE4
:100D000038B504000D0000230C22DFF8E41A08486F
:100D1000007801F043FB31BD38B504000D0000231D
:100D20000C22DFF8CC1A0248007801F037FB31BD05
:100D30005F2B0020981901080C09002020090020D1
:100D40003C1501087047704770472DE9FC470400C7
:100D50000D005FF0FF360022DFF8283BD3E90001E9
:100D6000CDE900015FF000094846A18880B28842C1
:100D700024D22068494689B2405C3D2805D02068CD
:100D8000494689B2405C3F2800D117E020684946B7
:100D900089B2405C41280EDB2068494689B2405C3C
:100DA0005B2808DA2068494689B2405C2030216817
:100DB0004A4692B2885419F10109D5E70027380054
:100DC000C0B25C2880F29480DFF8388B21003800B4
:100DD000C0B200014044083003F002F90600002EC2
:100DE00000F184803800C0B200014044406800280F
:100DF0007CD0DFF814AB1AF1300001F0E0FC0020E9
:100E0000010089B2A288921B914224DA2168314400
:100E1000020092B2895C3F290BD021683144020064
:100E200092B2895C3D2904D0BAF83410B1F5807FC4
:100E300000DB10E021683144020092B2895CDAF8EC
:100E40003020BAF83430D154BAF83410491CAAF81A
:100E50003410401CD4E73900C9B2090141448989E2
:100E600016FA81F6B1464846A18880B2884226D259
:100E70002068494689B2405C0D280CD1484680B2B2
:100E8000A188491E884206DA2068494689B208448A
:100E900040780A2813D0BDF8040080280CD22068BE
:100EA000494689B2405C0099BDF804208854BDF8D9
:100EB0000400401CADF8040019F10109D3E7DFF884
:100EC000980C05702800C0B2401E012802D9801E6F
:100ED00009D009E0002168463A00D2B2120142442A
:100EE0005268904700E0FFE7012002E07F1C66E7C0
:100EF0000020BDE8F68700002C1501086C090020D1
:100F0000A019010870B402004FF6FF7000230024FE
:100F10000D009688ADB2B5422ED20D00691C166840
:100F2000ADB2755D282DF3D10025280000252C00D9
:100F300015680E00B6B2AD5D2B00491C1D00EDB268
:100F4000302D19DB1D00EDB23A2D15DA0A2510FB04
:100F500005F050FA83F03038641C15680E00B6B204
:100F6000AD5D2B00491C2500EDB2082D04DA9588F3
:100F70000E00B6B2B542E1D280B270BC7047704785
:100F80007047704770477047704738B504000D00D0
:100F900000230422DFF8D81ADFF8BC0B007801F038
:100FA000FDF904F070FC31BD38B504000D000921D5
:100FB000DFF8C00A02F09FF80020DFF85C1B4870E1
:100FC00031BD0000A819010804110108101A010818
:100FD000F8B505000E00002428680078302851DBA1
:100FE000286800783A284DDA002700200100C9B2AD
:100FF000AA8889B291420FD229680200D2B2895CD4
:10100000302905DB29680200D2B2895C3A2900DB6D
:1010100002E07F1C401CE9E73900C9B2286801F0F2
:10102000E0FB0400002C23D0DFF8EC0AC178022991
:1010300003D1200004F0ADF92DE0C078002809D0DC
:1010400002280ED00ED20D22DFF8D01A012001F0B6
:101050004AFC07E01022DFF8041B012001F043FCEA
:1010600000E0FFE702226FA1012001F03CFC12E04A
:1010700000230622DFF8E81ADFF8DC0A007801F026
:101080008DF908E000230722DFF8D81ADFF8C80A34
:10109000007801F083F9F1BDB0190108F8B5050039
:1010A0000E0000242868007830284EDB286800787D
:1010B0003A284ADA002700200100C9B2AA8889B27A
:1010C00091420FD229680200D2B2895C302905DB37
:1010D00029680200D2B2895C3A2900DB02E07F1C59
:1010E000401CE9E73900C9B2286801F07AFB040026
:1010F000002C20D0DFF8201AC878012802D0C87848
:10110000002803D1200004F0FDF827E0C87800286B
:1011100003D0022802D008D207E006E00B22DFF855
:10112000AC1A012001F0DFFBFFE702223DA1012004
:1011300001F0D9FB12E000230622DFF8241ADFF8C1
:10114000180A007801F02AF908E000230722DFF8E6
:10115000141ADFF8040A007801F020F9F1BDF8B59F
:1011600004000D0000262068007830284DDB206840
:1011700000783A2849DA002700200100C9B2A28885
:1011800089B291420FD221680200D2B2895C302923
:1011900005DB21680200D2B2895C3A2900DB02E05B
:1011A0007F1C401CE9E73900C9B2206801F019FB37
:1011B0000600300000B201281DDB300000B20B2811
:1011C00019DA3000C0B205F0ACFB012809D10023C8
:1011D0000422DFF89C18DFF88009007801F0DEF8BF
:1011E0001CE000231722DFF8CC1ADFF86C09007826
:1011F00001F0D4F812E000230622DFF86419DFF8CA
:101200005809007801F0CAF808E000230722DFF847
:101210005419DFF84409007801F0C0F8F1BD00006E
:10122000080000200D0A00004C1501082DE9F041CE
:1012300004000D00002600272068007830285ADBC3
:10124000206800783A2856DA5FF000080020010094
:10125000C9B2A28889B2914217D221680200D2B2E3
:10126000895C302905DB21680200D2B2895C3A2909
:1012700007DB21680200D2B21144497830390F00EF
:1012800003E018F10108401CE1E74146C9B22068BB
:1012900001F0A7FA0600300000B20B2821DA38006E
:1012A00000B20B281DDADFF8141B087800280ED1D5
:1012B000300000B20F5405F071FB00230422DFF868
:1012C000B017DFF89408007801F068F81CE00023FC
:1012D0001722DFF8E019DFF88008007801F05EF8E7
:1012E00012E000230622DFF87818DFF86C08007897
:1012F00001F054F808E000230722DFF86818DFF84F
:101300005808007801F04AF8BDE8F081B8190108E2
:1013100078B58FB004000D003221002202AE3000FB
:1013200001F046FE0020ADF804000B2000900023E1
:10133000DFF8202B01A902A806F03AFA0023DFF813
:10134000D807827801A902A806F073F90720009057
:101350000023DFF8042B01A902A806F029FA0023D4
:10136000BDF8042002A9DFF8F007007801F016F8B4
:1013700010B070BD28290020F8B504000D0000262B
:101380002068007830282FDB206800783A282BDA94
:10139000002700200100C9B2A28889B291420FD271
:1013A00021680200D2B2895C302905DB2168020085
:1013B000D2B2895C3A2900DB02E07F1C401CE9E7DD
:1013C0003900C9B2206801F00CFA06003000C0B242
:1013D00004F0FCFA00230422DFF89416DFF8780703
:1013E000007800F0DBFF08E000230722DFF8741725
:1013F000DFF86407007800F0D1FFF1BD78B58FB059
:1014000004000D003221002202AE300001F0D0FDB8
:101410000020ADF804000B2000900023DFF8142B0F
:1014200001A902A806F0C4F9FF23DFF80C0BB0F9FC
:10143000002001A902A806F0FCF804200090002377
:10144000DFF8F82A01A902A806F0B2F90023BDF8D6
:10145000042002A9DFF80007007800F09FFF10B019
:1014600070BD0000B42A00202DE9F84304000D00EF
:101470000026206800782D2836D100275FF000086C
:1014800030202168087000200100C9B2A28889B20A
:10149000914210D221680200D2B2895C302905DB6A
:1014A00021680200D2B2895C3A2900DB03E018F11E
:1014B0000108401CE8E74146C9B2206801F091F9F3
:1014C0008146484680B240420600FF21300000B20B
:1014D00006F074FB00230422DFF89415DFF8780689
:1014E000007800F05BFF3DE020680078302830DBBA
:1014F000206800783A282CDA002700200100C9B2C1
:10150000A28889B291420FD221680200D2B2895CCE
:10151000302905DB21680200D2B2895C3A2900DB60
:1015200002E07F1C401CE9E73900C9B2206801F0E5
:1015300058F90600FF21300000B206F03FFB0023FF
:101540000422DFF82C15DFF81006007800F026FFE3
:1015500008E000230722DFF80C16DFF8FC0500780E
:1015600000F01CFFBDE8F18378B58FB004000D00DA
:101570003221002202AE300001F01AFD0020ADF849
:1015800004000C2000900023DFF8082B01A902A81A
:1015900006F00EF9FF23DFF8A009827801A902A85E
:1015A00006F047F8042000900023DFF8902901A9F5
:1015B00002A806F0FDF80023BDF8042002A9DFF818
:1015C000A00C007800F0EAFE10B070BDC02A002028
:1015D000F8B504000D00002620680078302833DBC1
:1015E000206800783A282FDA002700200100C9B2CD
:1015F000A28889B291420FD221680200D2B2895CDE
:10160000302905DB21680200D2B2895C3A2900DB6F
:1016100002E07F1C401CE9E73900C9B2206801F0F4
:10162000E0F80600DFF810098670FF21B0F900002D
:1016300006F0C4FA00230422DFF83414DFF8200C8B
:10164000007800F0ABFE08E000230722DFF8141555
:10165000DFF80C0C007800F0A1FEF1BD78B58FB07A
:1016600004000D003221002202AE300001F0A0FC87
:101670000020ADF804000A2000900023DFF8982A2B
:1016800001A902A806F094F80023DFF8EC0A02781A
:1016900001A902A805F0CDFF02200090002398A226
:1016A00001A902A806F084F80023BDF8042002A9CD
:1016B000DFF8AC0B007800F071FE10B070BD0000D8
:1016C00044030020C019010878000020F8B5040088
:1016D0000D00002620680078302842DB2068007862
:1016E0003A283EDA002700200100C9B2A28889B258
:1016F00091420FD221680200D2B2895C302905DB09
:1017000021680200D2B2895C3A2900DB02E07F1C2A
:10171000401CE9E73900C9B2206801F062F8060010
:10172000300000B2012812DB300000B2B0F5807F3B
:101730000DDADFF8440A067006F09EFC002304224E
:10174000CB49DFF81C0B007800F028FE12E00023E4
:101750000722DFF81014DFF8080B007800F01EFEF7
:1017600008E000230722DFF8FC13DFF8F40A007812
:1017700000F014FEF1BD0000181A01080C0300204F
:1017800038B504000D002068290089B2405C30287B
:1017900005D02068290089B2405C312807D1002398
:1017A0000422B349DFF8B80A007800F0F7FD20689A
:1017B000290089B2405C3038002808D10020009010
:1017C000012301220021012006F0C7FF0EE020685E
:1017D000290089B2405C3038012807D100200090F0
:1017E000012301220121012006F0B7FF31BD0000D5
:1017F0005C15010838B504000D002068290089B285
:10180000405C302805D02068290089B2405C31282E
:1018100006D1002304229649CF48007800F0BEFD8F
:101820002068290089B2405C3038002808D10020A7
:101830000090012301220021052006F08EFF20E008
:101840002068290089B2405C3038012819D1DFF8BE
:101850002809807C002808D0002000900123012264
:101860000121052006F079FF0BE00120DFF8001AC6
:10187000087301200090012301220021052006F0B9
:101880006CFF31BD201A010838B504000D00206836
:10189000290089B2405C302805D02068290089B22F
:1018A000405C312806D1002304227149AA480078FF
:1018B00000F074FD2068290089B2405C30380028AF
:1018C00005D10321DFF8AC0901F015FC15E0206813
:1018D000290089B2405C303801280ED1DFF8980821
:1018E000807C002809D0DFF89009007806F060FDC0
:1018F0000221DFF8800901F0FEFB31BD840C0108F4
:101900000D0A000054FE00082009002078B58FB0B1
:1019100004000D003221002202AE300001F048FB2D
:101920000020ADF804000F2000900023DFF84C29C0
:1019300001A902A805F03CFF0023DFF83C0902786A
:1019400001A902A805F075FE072000900023DFF82A
:10195000082501A902A805F02BFF0023BDF80420EB
:1019600002A9DFF8FC08007800F018FD10B070BD87
:10197000F8B504000D0000262068007830283CDB14
:10198000206800783A2838DA002700200100C9B220
:10199000A28889B291420FD221680200D2B2895C3A
:1019A000302905DB21680200D2B2895C3A2900DBCC
:1019B00002E07F1C401CE9E73900C9B2206800F052
:1019C00010FF0600DFF8B00841783000C0B206F022
:1019D00061FE012808D1002304222549DFF8800890
:1019E000007800F0DBFC10E0002307225D49DFF8FF
:1019F0007008007800F0D2FC07E000230722594964
:101A0000DFF85C08007800F0C9FCF1BD78B58FB054
:101A100004000D003221002202AE300001F0C8FAAD
:101A20000020ADF80400102000900023DFF85028BB
:101A300001A902A805F0BCFE0023DFF83C084278AB
:101A400001A902A805F0F5FD072000900023DFF8AA
:101A5000082401A902A805F0ABFE0023BDF804206C
:101A600002A9DFF8FC07007800F098FC10B070BD08
:101A7000C8190108C4030020F8B504000D000026B1
:101A80002068007830283DDB206800783A2839DA71
:101A9000002700200100C9B2A28889B291420FD26A
:101AA00021680200D2B2895C302905DB216802007E
:101AB000D2B2895C3A2900DB02E07F1C401CE9E7D6
:101AC0003900C9B2206800F08CFE06003100C9B2AE
:101AD000DFF8A407007806F0DDFD012809D1002316
:101AE0000422DFF8A017DFF87807007800F056FC32
:101AF00010E0002307221B49DFF86407007800F09C
:101B00004DFC07E0002307221649DFF85407007850
:101B100000F044FCF1BD0000B40400206C15010885
:101B200038B504000D00DFF860070079012809D1FD
:101B300000231122DFF85417DFF82407007800F0A3
:101B40002DFC08E000230E22DFF84417DFF8100711
:101B5000007800F023FC31BD5F2B00201811010834
:101B6000D0190108D819010838B504000D00206803
:101B7000007830281FDB206800783A281BDA2068BC
:101B800000783038C0B203F089FF012809D1002362
:101B90000422DFF8F016DFF8C806007800F0FEFB3C
:101BA00012E000230722DFF8EC16DFF8B406007815
:101BB00000F0F4FB08E000230722DFF8D816DFF876
:101BC000A006007800F0EAFB31BD000058180108BB
:101BD00038B504000D0006F0DAF831BD2DE9F0410A
:101BE00004000D0000260027206800782D2801D170
:101BF0000120070020683900C9B2405C30284EDB64
:101C000020683900C9B2405C3A2848DA5FF0000821
:101C100038000100C9B2A28889B2914210D221686D
:101C20000200D2B2895C302905DB21680200D2B201
:101C3000895C3A2900DB03E018F10108401CE8E761
:101C40004146C9B220683A00D2B2104400F0C9FD42
:101C500006003800C0B2012801D136B27642300009
:101C600000B27FF4F97188420CDB300000B2B0F5AD
:101C7000FA7F07DADFF820060088301A00B205F094
:101C8000EDFF02E0002005F0E9FF00230422DFF869
:101C9000F415DFF8CC05007800F080FB08E00023A5
:101CA0000722DFF8F015DFF8B805007800F076FBC2
:101CB000BDE8F081680F010838B504000D0006F09A
:101CC0000DFA31BDF0B59BB004000D006421002277
:101CD00002AE300001F06CF90020ADF804000C20D9
:101CE00000900023DFF8B42501A902A805F060FDEB
:101CF000DFF8AC653078002809D10520009000237A
:101D0000DFF8A02501A902A805F052FD08E0042093
:101D100000900023DFF8902501A902A805F048FDF6
:101D2000092000900023DFF8842501A902A805F00E
:101D30003FFD0023727801A902A805F07AFC97A75D
:101D40000120009000233A0001A902A805F030FD0F
:101D50000023B27801A902A805F06BFC0A200090CC
:101D60000023DFF84C2501A902A805F021FD00237E
:101D7000F27801A902A805F05CFC01200090002384
:101D80003A0001A902A805F013FD0023327901A948
:101D900002A805F04EFC032000900023ACA201A98C
:101DA00002A805F005FD0023BDF8042002A9DFF814
:101DB000B004007800F0F2FA1BB0F0BD9C290020BE
:101DC0002DE9FC4704000D000020ADF8040001AA35
:101DD000A188206805F0A2FC060001AAA18820685D
:101DE00005F09CFC070001AAA188206805F096FC7C
:101DF000804601AAA188206805F090FC814601AACE
:101E0000A188206805F08AFC82465046C0B2009046
:101E10004B46DBB24246D2B23900C9B23000C0B242
:101E200003F08CFE012809D100230422DFF85414AA
:101E3000DFF82C04007800F0B1FA08E00023072254
:101E4000DFF85014DFF81804007800F0A7FABDE8B6
:101E5000F387000064180108E019010878B59BB009
:101E600004000D006421002202AE300001F0A0F851
:101E70000020ADF804000C2000900023DFF834248B
:101E800001A902A805F094FCDFF8FC03C078002843
:101E90000CD0022814D01DD20D2000900023DFF8B2
:101EA000182401A902A805F083FC13E0102000907B
:101EB0000023DFF8082401A902A805F079FC09E055
:101EC0000B2000900023DFF8F82301A902A805F0F9
:101ED0006FFCFFE70220009000238EA201A902A858
:101EE00005F066FC0023BDF8042002A9DFF87003AA
:101EF000007800F053FA1CB070BD38B504000D0036
:101F0000DFF8C003007800280AD105F07CF8002330
:101F10000422DFF87013D248007800F03FFA07E09F
:101F200000230F22DFF8A013CD48007800F036FA26
:101F300031BD0000701801084C060020E8190108A6
:101F4000FEB504000D00DFF87C63B07B012819D1D9
:101F50000A2100226F46380001F02AF800270822E3
:101F6000DFF86813022000F0BEFC318A684605F0F5
:101F70002FFA06003200D2B292B26946022000F077
:101F8000B2FC04E01422D249022000F0ACFC022290
:101F9000B2A1022000F0A7FCF7BD00003A0000004B
:101FA000F8B504000D00002620680078302847DBD3
:101FB000206800783A2843DA002700200100C9B2DF
:101FC000A28889B291420FD221680200D2B2895C04
:101FD000302905DB21680200D2B2895C3A2900DB96
:101FE00002E07F1C401CE9E73900C9B2206800F01C
:101FF000F8FB0600300000B201280AD1012005F0EC
:1020000011F8002304229F499548007800F0C6F992
:102010001DE0300000B200280AD1002005F002F8CF
:102020000023042297498E48007800F0B7F90EE0AB
:1020300000230622A7498A48007800F0AFF906E09D
:102040000023072293498648007800F0A7F9F1BDE4
:102050002E0D0A0038B504000D000E229E49022004
:1020600000F041FC4FF480419C4806F0FEFE012840
:1020700005D102227BA1022000F035FC04E00322FE
:1020800079A1022000F02FFC022274A1022000F0AE
:102090002AFC31BD7C15010838B504000D000E2264
:1020A0008F49022000F01FFC4FF400518B4806F0CE
:1020B000DCFE012805D102226AA1022000F013FCF7
:1020C00004E0032268A1022000F00DFC022263A1BB
:1020D000022000F008FC31BD38B504000D000F22CD
:1020E0008049022000F0FFFB76484069002805D1B6
:1020F00004227D49022000F0F6FB04E005227B4922
:10210000022000F0F0FB022254A1022000F0EBFBC1
:1021100031BD00000D0A00007C18010878B58FB0B1
:1021200004000D003221002202AE300000F040FF1A
:102130000020ADF804000B20009000236C4A01A998
:1021400002A805F035FB00236A48027801A902A81D
:1021500005F06FFA02200090002340A201A902A816
:1021600005F026FB0023BDF8042002A93C480078B6
:1021700000F014F910B070BD88020020F8B504001A
:102180000D00002620680078302828DB20680078C1
:102190003A2824DA002700200100C9B2A28889B2B7
:1021A00091420FD221680200D2B2895C302905DB4E
:1021B00021680200D2B2895C3A2900DB02E07F1C70
:1021C000401CE9E73900C9B2206800F00AFB0600AC
:1021D000300000B2652809DA4648067006E00023A0
:1021E00007222C491E48007800F0D8F8F1BD78B5D8
:1021F0008FB004000D003221002202AE300000F04A
:10220000D7FE0020ADF804000820009000233A4AD1
:1022100001A902A805F0CCFA00233848026801A9F8
:1022200002A805F006FA0320009000230FA201A9DE
:1022300002A805F0BDFA02200090002307A201A920
:1022400002A805F0B5FA0023BDF8042002A904484D
:10225000007800F0A3F810B070BD00000D0A000077
:102260005F2B00204F4E00004F464600206D41007E
:10227000602A0020C4040020A00900208C15010859
:102280002C110108C8190108B404002040110108EC
:102290009C150108D8190108E42A0020AC15010892
:1022A000DC2A0020F0190108F81901088818010833
:1022B00094180108BC1501086C15010818110108D3
:1022C000581801089C290020CC150108A018010805
:1022D000800F0108D0190108DC150108000C02402C
:1022E000EC150108FC150108001A0108081A01087C
:1022F000AC180108A5090020B8180108F82A002028
:10230000BFF34F8F6A490A6812F4E06269480243DA
:102310000A60BFF34F8F00BFFDE780B51321664809
:1023200000F00DF872B6FFF7EBFF02BD80B51F217C
:10233000624800F004F872B6FFF7E2FF01BD70B525
:1023400004000D002A0092B22100022000F01CFBC4
:102350005B483B21C26BB0F84030D154B0F840101C
:10236000491CA0F8401000210A002B0092B29BB239
:102370009A4212D2B0F84020B2F5806F0DDA0A000E
:1023800092B2A25CC36BB0F840609A55B0F840209E
:10239000521CA0F84020491CE6E770BD2DE9F84327
:1023A00080460C0015001E0000274046C0B2401EAB
:1023B00003D0401E012809D956E04FF47A732A0051
:1023C00092B221003F4806F001FE4DE0DFF8F890A0
:1023D0004FF480720021484600F079FA3848002115
:1023E00081852821828D09F80210818D491C818503
:1023F00000210A00838E92B29A420BD2026B0B002C
:102400009BB2D25C838D09F80320828D521C828599
:10241000491CEEE72922838D09F80320828D521C86
:1024200082852822838D09F80320828D521C8285A3
:10243000002739002A0089B292B291420AD23900AB
:1024400089B2615C828D09F80210818D491C8185F9
:102450007F1CEEE72921828D09F80210818D491C2D
:10246000818500218186FFE7BDE8F18380B51548AD
:1024700006F08BFD07F0A3FA144806F086FD07F07E
:102480009FFA134806F081FD07F09BFA01BD80B565
:1024900007F068FB07F07EFA07F030FB07F081FADF
:1024A00007F046FB07F084FA01BD70477047000053
:1024B0000CED00E00400FA05B8110108A40C0108B5
:1024C0002009002088280020502200200028002019
:1024D0004428002038B504000D00DFF84C050168E1
:1024E000200000F006F8A84201D3012000E00020FF
:1024F00032BD814204D25FF0FF32101A081800E0AA
:10250000081A70472DE9F84F8AB0060014001D0024
:10251000DDF850905FF0000A5FF0000800271E21F0
:1025200000220DF1080B584600F042FDDFF8FC24B4
:10253000D2E90001CDE9000102A80090002D09D1E7
:10254000002C07D130203168B2888854B088401CF4
:10255000B08068E0002D01D1002C1AD020002900A5
:102560000A22002307F082FC9046200029000A225C
:10257000002307F07BFC04000D0018F130000099E7
:10258000BDF804208854BDF80400401CADF80400D8
:10259000E0E75FF0000BBDF80400022190FBF1F0D2
:1025A000594689B281421FDA0098BDF804100844E8
:1025B000594689B24942084410F8010C07000098B6
:1025C000BDF804100844594689B2494208440099AC
:1025D0005A4692B2895C00F8011C0098594689B2AB
:1025E00047541BF1010BD6E74946C9B2684600F0D3
:1025F0001DF800210800BDF8042080B290420DD2E1
:102600003068B28810440A0092B2009B8C461FFAD0
:102610008CFC13F80C308354491CEBE7B288BDF8EE
:1026200004008218B2800BB0BDE8F08F2DE9F847A6
:1026300085B005000E005FF00009142100226C46F1
:10264000200000F0B5FC002400275FF00008002007
:10265000A988012903D129680978302903D03100DC
:10266000C9B2002900D1A7E03100C9B2AA8889B255
:10267000914235D3694630222300DBB2CA54641C30
:102680002E222300DBB2CA54641CAA88B21A170097
:1026900000231A00BC465FFA8CFC92B21FFA8CFC35
:1026A000624508D23022A4465FFA8CFC01F80C2067
:1026B000641C5B1CEDE700221300B5F804C09BB25C
:1026C000634543D22B6894461FFA8CFC13F80C30F8
:1026D000A4465FFA8CFC01F80C30641C521CEBE73A
:1026E000A988891B884600210A004346DBB292B2C2
:1026F0009BB29A420CD22A680B009BB2D25C6B460A
:10270000A4465FFA8CFC03F80C20641C491CEBE720
:102710006B462E22A4465FFA8CFC03F80C20641C46
:102720004246D2B21100B5F804C089B261450DD25B
:10273000296894461FFA8CFC11F80C10A4465FFA25
:102740008CFC03F80C10641C521CEBE7A1464946B4
:10275000C9B2B1F1010A504680B2002815D06846CE
:10276000514689B2415C302906D0514689B2405C5D
:102770002E2800D1641E08E0514689B2405C302802
:1027800000D1641EBAF1010AE5E7280000F017F84D
:10279000002001002200D2B289B292B291420BD243
:1027A000A9884A1CAA806A4603009BB2D25C2B68A7
:1027B00089B25A54401CECE706B0BDE8F08710B46B
:1027C00000210A00838892B29A4206D2002203684E
:1027D0000C00A4B21A55491CF3E70022828010BCF9
:1027E000704770B4030000220024002000252A0056
:1027F0000E00D2B2F6B2B2421FD22A00D2B29A5C16
:10280000302A0ADB2A00D2B29A5C3A2A05DA2A0078
:10281000D2B29A5C303A140001E0002214002A007F
:10282000D2B2002A03D12200D2B2100003E00A2261
:10283000504350FA84F06D1CD9E770BC7047F0B477
:10284000002200230025002425008E88ADB2B54269
:1028500037D20D682600B6B2AD5DEDB22D092A0063
:102860001500EDB20A2D07DA12F1300506682700CF
:10287000BFB206F8175006E012F1370506682700C8
:10288000BFB206F817500D682600B6B2AD5D15F060
:102890000F052B001D00EDB20A2D08DA13F13005EB
:1028A00006682700BFB206EB4706757007E013F114
:1028B000370506682700BFB206EB47067570641C33
:1028C000C2E78D88ADB26D008580F0BC704710B452
:1028D000040013005A1E9BB2002B02D02170641C0E
:1028E000F7E710BC704770B504000D00160020001B
:1028F000C0B2032807DA4FF47A73320092B229008B
:102900004B4806F063FB70BD38B504000D0028008D
:1029100007F0C4FB020092B229002000C0B2FFF70A
:10292000E2FF31BDF0B585B004000D0016000221B4
:1029300000226F46380000F03BFB3E48D0E9002300
:10294000CDE901236846019000273800310080B2AC
:1029500089B2884216D2380080B228440390012000
:10296000ADF810000020ADF8080003A901A8FFF79A
:1029700066FFBDF8082001992000C0B2FFF7B3FF41
:102980007F1CE2E705B0F0BD70B504000D00160035
:10299000320092B229002000C0B2FFF7A4FF264AFD
:1029A0001068002804D0310089B2280012689047CE
:1029B00070BD70B504000D00280007F06FFB020029
:1029C00092B229002000C0B2FFF78DFF1A4E306886
:1029D000002807D0280007F061FB010089B2280019
:1029E0003268904770BD70B586B005000C000A21B2
:1029F000002203AE300000F0DBFA1048D0E90023DB
:102A0000CDE9012303A801900020009022000023BB
:102A100001A8FFF777FDBDF8082001992800C0B292
:102A2000FFF761FF06B070BD342B0020301A01089B
:102A300088280020381A0108382B0020401A010885
:102A400080B500F086F800F001F801BD38B586B019
:102A5000162100226C46200000F0AAFA16224FF43C
:102A60000051684607F0E1FF9DF80000AA2818D140
:102A70009DF801006E4900220A8100221300040023
:102A8000DBB2E4B2A34234D26B461400E4B2234476
:102A90009B784C680D8963550B895B1C0B81521C1C
:102AA000ECE7AA208DF80000614C20898DF8010028
:102AB00000200100C9B2228989B291420AD261681C
:102AC0000200D2B2895C6A460300DBB21A449170FC
:102AD000401CEEE74FF4005007F0C3FE012008F061
:102AE00069F92289921C92B24FF40051684607F0AE
:102AF0007CFF07B030BD38B58AB000252821002200
:102B00006C46200000F054FAAA208DF800004848D6
:102B100001898DF8011000242100C9B2028989B20F
:102B200091420AD241682200D2B2895C6A462300EF
:102B3000DBB21A449170641CEEE74FF4005007F0CA
:102B400090FE28224FF40051684607F04EFF0BB06C
:102B500030BD10B586B0182100226C46200000F070
:102B600027FA002418223349684607F05EFF9DF8D3
:102B70000000AA2827D19DF8010004002000C0B25F
:102B8000182822DA2C4869468A7802709DF80320BA
:102B9000428042880B7953EA022343809DF8052046
:102BA000426042689DF8063053EA0223436042685F
:102BB0009DF8073053EA022343604268097A51EADC
:102BC0000221416001E000F002F806B010BD10B52E
:102BD00086B0182100226C46200000F0E9F9AA20F6
:102BE0008DF8000007208DF801001348694602782F
:102BF0008A70428892B2120A8DF8032042880A71C4
:102C00004268120E8DF805204268120C8DF80620DD
:102C10004268120ACA7140680872064C200007F028
:102C200020FE10222100684607F0DFFE06B010BD2E
:102C300020090020006070006C09002010B504001D
:102C400008F0AFF9012010BD38B50400C24908787A
:102C500000280BD101200870C0488088C049088036
:102C60002100C9B2BF4800F055FA1FE0BC48BB4D77
:102C7000AA8803889A4212D100200870AA8829687D
:102C80000120FFF730FE95A10120FFF73DFE012155
:102C90002800FEF75AF82800FFF791FD06E0A98802
:102CA00001802100C9B2AF4800F034FA0020AE49DB
:102CB00081F84500012032BD10B50400AB49022067
:102CC000FFF722FE06F0F0FE012010BD10B5040053
:102CD000A74807C808F006FA0421A24800F01AFA2B
:102CE000012010BD10B5040000F030FA012010BD25
:102CF00001009D4A507E00280AD1D07D401CD0752D
:102D0000D07D9C4B1B78984204D30020D07501E005
:102D10000020D0750120704701000120704780B568
:102D200008F05CF800F012FA08F03AFA01BD1CB5A0
:102D300008F048FA00F038F88F4C002000900FF2AD
:102D4000791300225FF0FF31200008F051F844F6BB
:102D50002061200008F008F9200008F06FF813BD8A
:102D600010B5FFF7DCFFFFF7E2FF84490220FFF711
:102D7000CBFD83490220FFF7C7FD82490220FFF700
:102D8000C3FD322008F016F808F030FA7E4C00201F
:102D9000207000F01EF821780843207000F0D2FF68
:102DA000217808432070EFE780B506F00BFEFFF7AF
:102DB00047FE6D4808210175012141760FF2B100EF
:102DC0007249086072487349086073487349086023
:102DD00001BD70B50020002400252800C0B20728DE
:102DE0003ADA604E2800C0B2000130444078012831
:102DF00030D12800C0B2042801D0012004002800EE
:102E0000C0B200013044406800280ED008F0E2FA59
:102E10002900C9B2090131444968401A2900C9B2E0
:102E2000090131448968884214D300202900C9B2BD
:102E300009013144487008F0CDFA2900C9B20901EE
:102E4000314448602800C0B22900C9B209013144A8
:102E5000C96888476D1CC0E7424A92F841000028C3
:102E600003D10421100000F055F92000C0B270BD5C
:102E700080B500213B4800F03EF901BD70B504006B
:102E8000002500F063F946484178621AB1FBF4F17D
:102E900004FB01213C22837802FB01F6B34208D2F5
:102EA00051438078091A891C4FF47A704143080015
:102EB00000E03C4870BD000010B5040007F065FE5E
:102EC000032803D11A213848FFF739FA052125488C
:102ED00000F011F900F004F810BD00000D0A000028
:102EE00038B542F2107431490878002807D10878C3
:102EF000401C08701F4800781B49C87528E01A4814
:102F0000407E012817D11B4D6868A86000F01EF9AB
:102F1000234A5078AB68AD682D1AB0FBF3F103FB80
:102F200001513C2041439078091A891C4FF47A7072
:102F300041430C0008E00F490A78488842438A6000
:102F40004888FFF79BFF040021000B4808F00CF8AD
:102F5000094807F073FF31BD4A2B00208809002083
:102F60003C2B00200800002020090020E40B010871
:102F7000B42A00206C09002084290020040C0108D8
:102F80000C0D0108280D01084B2B00202C2B0020D4
:102F900078090020282B002015040108382B002078
:102FA000C02A0020C0D40100440D01084C2B002091
:102FB00062F30F2262F31F42401810F0030308D09F
:102FC000C91A1FD3DB0748BF00F8012D28BF20F81E
:102FD000022D130030B414461546103928BF20E9DD
:102FE0003C00FAD8490728BF20E90C0048BF40F848
:102FF000042D890028BF20F8022D48BF00F8012DBC
:1030000030BC7047C91818BF00F8012DCB0728BF86
:1030100000F8012D704730B4002513E050F8042B60
:10302000D30744BFA9F101039A18091F042942F8E4
:10303000045BFAD213468C0744BF15809B1CC9075A
:1030400048BF1D7050F8041B0029E7D130BC704701
:1030500062B38B0708D0521E11F8013B00F8013B08
:1030600000F024808B07F6D1830740F0208000BF5A
:10307000103A07D330B4B1E83810103AA0E838104D
:10308000F9D230BC530724BFB1E80810A0E80810FB
:1030900044BF51F8043B40F8043BD20724BF31F849
:1030A000022B20F8022B44BF0B7803707047121FCD
:1030B00017D35B0009D151F8043B20F8023B1B0CED
:1030C000121F20F8023BF6D20BE051F8043B00F847
:1030D000013B1B0A20F8023B1B0C121F00F8013BAE
:1030E000F3D238BF121D521E24BF11F8013B00F865
:1030F000013BF8D87047020001200B00DBB21B0136
:103100001344587000200B00DBB21B0113445860BD
:103110000120704738B504000D0001202900C9B214
:1031200009012144487008F055F92900C9B2090184
:1031300021444860012032BD020000200B00DBB2B8
:103140001B011344587001207047000010B586B071
:10315000DFF8BC41002201A9200000F0B2F90022F2
:103160006946200000F044FADFF8A8019DF8061037
:1031700081709DF8051041709DF8041001709DF854
:103180000010C1709DF8021001719DF8011041718D
:103190009DF80310817106B010BD17B587B01422D9
:1031A000002101A808F01CF904220021684608F05B
:1031B00017F907A800F031F801282BD109980290DF
:1031C0009DF81E008DF806009DF81D008DF8050085
:1031D0009DF81C008DF804009DF81F008DF800007C
:1031E0009DF820008DF802009DF821008DF8010067
:1031F0009DF822008DF80300DFF81441002201A998
:10320000200000F0EBF800226946200000F08DF964
:10321000012000E000200AB010BD010088783D28A0
:1032200001DB002023E048783D2801DB00201EE080
:103230000878182801DB002019E0C878092801DB8C
:10324000002014E00879202801DB00200FE04879F5
:103250000D2801DB00200AE08879642801DB0020CA
:1032600005E08879142801DA002000E00120704789
:1032700037B49DF8060040F2B5514843C01C8008A1
:103280009DF80610042291FBF2F402FB14110029B0
:1032900001D1214A00E0214A9DF805403D214C43DF
:1032A0003C3C022194FBF1F108189DF80510491EE1
:1032B000C9B249001400CC4014F00304001B9DF86F
:1032C0000410491E0818164948439DF802409DF80D
:1032D00001503C214D4355FA84F49DF800504FF4C1
:1032E000616101FB054420181900C9B2012904D00D
:1032F0000CD3032907D003D308E00A49081805E0D6
:103300000949081802E009490818FFE73EBC704760
:1033100028290020C02A002050554400A0AA990066
:103320008051010080A16DE980436D38801F8607C0
:1033300070B504000125002C01D101204DE0607F13
:10334000002804D100202077200008F053F8022044
:103350006077CA20216848625320216848622000B3
:1033600000F02FFB06003000C0B200281ED12068FC
:103370008168DFF8FC050140206881602068816871
:1033800062682069024360690243114320688160DA
:10339000E0682168086120680069A16850EA01407E
:1033A00021680861200000F034FB06003000C0B244
:1033B00000280DD12068006C30F48020216808645A
:1033C0002068016CA06901432068016401206077D6
:1033D000FF20216848623000C0B270BD2DE9F8437B
:1033E00005000E0014005FF00008287F012801D1BD
:1033F000022064E00120287702206877002C1CD18D
:1034000028688068400601D40020F070307800F011
:1034100019FB8146707800F015FB0700B07800F0CA
:1034200011FB5FFA89F9FFB23F0257EA0947C0B2C0
:103430000743F07857EA80570FE028688068400615
:1034400001D40020F070307877783F0257EA0047C7
:10345000B0780743F07857EA8057CA202968486255
:10346000532029684862280000F0ABFA80464046A5
:10347000C0B2002816D1DFF8FC0438402968086083
:103480002868806830F4802029688860286881680E
:10349000F26830690243114328688160280000F017
:1034A000B8FA80464046C0B2002801D101206877B2
:1034B000FF2029684862002028774046C0B2BDE856
:1034C000F283F8B505000E00140000212868806A18
:1034D0007060286800694004400CB0602868076884
:1034E000DFF8900407403800000C10F03F00307007
:1034F0003800000A10F07F00707017F07F00B07085
:103500003800800D10F00100F070002C0BD13078E5
:1035100000F0A4FA3070707800F0A0FA7070B07803
:1035200000F09CFAB0700020F2BD2DE9F8430500D0
:103530000E0014005FF00008287F012801D102204E
:1035400054E00120287702206877002C07D170789A
:10355000C00604D5707810F0EF000A307070002CAF
:1035600016D1F07800F06EFA8146707800F06AFAB1
:103570000700B07800F066FA5FFA89F9FFB23F02FF
:1035800057EA0947C0B20743307857EA403709E0A5
:10359000F07877783F0257EA0047B07807433078F1
:1035A00057EA4037CA202968486253202968486290
:1035B000280000F006FA80464046C0B2002808D134
:1035C000DFF8B403384029684860280000F021FA89
:1035D00080464046C0B2002801D101206877FF2014
:1035E00029684862002028774046C0B2BDE8F283CF
:1035F000F8B505000E001400002128684768DFF8C0
:10360000780307403800000CF0703800000A10F012
:103610001F00707017F03F00B0703800400B10F0C2
:1036200007003070002C0BD1F07800F017FAF07022
:10363000707800F013FA7070B07800F00FFAB07084
:103640000020F2BD2DE9FE4F05000E0014004FF4DE
:103650007A77DFF82883D8F8000040094FF47A71B0
:10366000B0FBF1F078430090002002900020019020
:10367000287F012801D10220E3E0012028770220E1
:103680006877002C31D128688068400601D400207A
:10369000F070F0690028FFD0307800F0D3F981464F
:1036A000707800F0CFF98246B07800F0CBF983460D
:1036B00096F8200000F0C6F95FFA89F95FFA8AFAF5
:1036C0005FEA0A2A5AEA094A5FFA8BFB5BEA0A0AAE
:1036D000F1785AEA815AC0B25AEA006AF06950EAAF
:1036E0000A0A706950EA0A0A1FE0286880684006E2
:1036F00001D40020F070F0690028FFD0307896F8EF
:1037000001A05FEA0A2A5AEA004AB07850EA0A0A97
:10371000F0785AEA805A96F820005AEA006AF0696E
:1037200050EA0A0A706950EA0A0A7168B0690143EE
:10373000CA202A68506253202A685062706AB0F525
:10374000807F31D12868806830F480702A6890606A
:103750002868C06810F0800070F4C0702A68D060DB
:103760000098421E0092002808D1FF202A6850626B
:103770000320687700202877032062E02868C0686B
:10378000C007EDD52868C0F81CA0286841642868E7
:10379000806850F480702A6890602868806850F4CF
:1037A00080502A6890603AE02868806830F40070A1
:1037B0002A6890602868C06810F0800070F420705B
:1037C0002A68D060D8F8000040094FF47A72B0FB44
:1037D000F2F007FB00F700970098421E00920028C5
:1037E00008D1FF202A6850620320687700202877DC
:1037F000032026E02868C0688007EDD52868C0F857
:1038000020A0286881642868806850F400702A68C5
:1038100090602868806850F400502A68906058488A
:10382000026852F4003202605648026852F40032D4
:103830000260FF202A685062012068770020287704
:103840000020BDE8FE8FF8B504000D000026207FA3
:10385000012801D102205AE0012020770220607760
:10386000CA2021684862532021684862B5F5807FEC
:1038700022D12068806830F48070216888602068D8
:10388000806830F480502168886007F0A3FD07004D
:103890002068C068C00732D407F09CFDC01B40F20E
:1038A000E9318842F4D3FF20216848620320607721
:1038B0000020207703202AE02068806830F4007020
:1038C000216888602068806830F400502168886032
:1038D00007F080FD07002068C06880070FD407F05C
:1038E00079FDC01B40F2E9318842F4D3FF20216802
:1038F00048620320607700202077032007E0FF2044
:103900002168486201206077002020770020F2BD06
:1039100010B5040020688068C0040ED52068C06817
:10392000C0050AD5200007F021FE2068C06810F00D
:10393000800070F4C0702168C860206880688004CE
:103940000ED52068C06880050AD5200007F034FF36
:103950002068C06810F0800070F420702168C86092
:103960005FF40030084908600120607710BD000056
:10397000BFFF8FFF7F7F7F003FFFFF00040000201D
:10398000003C0140083C0140143C014070B504007B
:1039900000252068C06830F0A0002168C86007F0EA
:1039A00019FD06002068C068800608D407F012FDE3
:1039B000801B40F2E9318842F4D3032000E000206C
:1039C00070BD70B50400002500262068C068400660
:1039D0001CD42068C06850F080002168C86007F0DF
:1039E000F9FC05002068C06840060FD43000C0B262
:1039F00001280BD007F0EEFC401B40F2E931884271
:103A0000F0D30420607701200600EBE73000C0B25D
:103A100070BD38B5040000252068C06830F0800013
:103A20002168C86020688068800608D42000FFF7FD
:103A3000ADFF002803D00420607701200500280096
:103A4000C0B232BD00210200D2B20A2A02D3491C00
:103A50000A38F8E750EA0110C0B2704700210200AE
:103A6000D2B212090A2312FB03F210F00F008018E1
:103A7000C0B2704738B50400DFF81C55287800281C
:103A800003D0022810D008D319E04FF4FA70DFF801
:103A90000C15886000F07BFA13E06420DFF8FC145A
:103AA000886000F075FA0CE00020287007F071F8CB
:103AB0000121DFF8E804FFF71EFB01200BE00020E6
:103AC00028702878401C28702100C9B2DFF8CC0487
:103AD000FFF720FB012032BD10B5040006F0FBFF0C
:103AE000012823D107F051F803280ED1DFF8B014D4
:103AF0000220FEF709FFDFF8A40442F21071816092
:103B00000021FFF707FB012017E007F059F8012813
:103B100005D10321DFF88404FFF7EDFA04E001206A
:103B2000DFF8801481F82001012006E02100C9B2ED
:103B3000DFF86804FFF7EEFA012010BD38B5040085
:103B4000DFF864542878002809D0022825D015D33E
:103B5000042840D030D306284DD04BD34CE0DFF8BA
:103B60004C0407F041F8012807D1DFF84414022083
:103B7000FEF7CAFE2878401C287046E0DFF82C04C7
:103B800007F080F8012807D1DFF828140220FEF79B
:103B9000BBFE2878401C287037E0DFF81C0407F0D3
:103BA00023F8012807D1DFF814140220FEF7ACFE39
:103BB0002878401C287028E0DFF8FC0307F062F842
:103BC000012807D1DFF8F8130220FEF79DFE2878C0
:103BD000401C287019E0DFF8EC0307F005F8012815
:103BE00007D1DFF8E4130220FEF78EFE2878401C90
:103BF00028700AE009E008E0002028700120DFF8C2
:103C0000A41381F82001012006E02100C9B2DFF8E9
:103C10008C03FFF77FFA012032BD010001207047BD
:103C200070B5040006F0B1FF012819D1DFF8885300
:103C3000688EA98E884213D0DFF8906370780028D0
:103C40000ED1DFF88C130220FEF75EFE0020B07369
:103C500001207070AB8D00220021032000F026F9B6
:103C60002100C9B2DFF83403FFF754FA012070BD18
:103C700010B504002100C9B2DFF82003FFF74AFAAB
:103C8000012010BDF8B504000025002606F07DFFD8
:103C9000012849D1DFF83473787B012844D1F888B2
:103CA000398988423CD0387B002806D002280FD0C2
:103CB000042818D0052821D021E0DFF8F002818DFA
:103CC0000D00C168FA88808D00FB02110E0016E01D
:103CD000DFF8E402818D0D00C168FA88808D00FB59
:103CE00002110E000BE0DFF8DC02818D0D00C168CF
:103CF000FA88808D00FB02110E0000E0FFE72B0028
:103D00009BB232000121072000F0D0F8F888401C57
:103D1000F880F8887989884206D30020F88003E08B
:103D200000207873012006E02100C9B2DFF86C02A0
:103D3000FFF7F0F90120F2BD10B5040006F0C4FE53
:103D4000012010BD70B50020002400252800C0B25D
:103D5000082843DADFF844622800C0B2000130448A
:103D60004078012838D12800C0B2042809D02800A2
:103D7000C0B2052805D02800C0B2062801D0012015
:103D800004002800C0B200013044406800280ED072
:103D900007F020FB2900C9B2090131444968401AE3
:103DA0002900C9B2090131448968884214D300202E
:103DB0002900C9B209013144487007F00BFB290002
:103DC000C9B20901314448602800C0B22900C9B213
:103DD00009013144C96888476D1CB7E706F09CFCAF
:103DE0002043C0B270BD2DE9F047C2B004000D0001
:103DF00016001F005FF0000800205FF0000A00219D
:103E000040918DF80441AA216A4643469BB2D154A1
:103E100018F10108310089B2090A6A4643469BB28B
:103E2000D15418F101086946424692B28E5418F1F5
:103E3000010800210800320080B292B290420AD2FA
:103E4000080080B2285C6A4643469BB2D05418F101
:103E50000108491CEEE7380080B2401E424692B28B
:103E6000904201DA781E804618F101085FF00009DF
:103E7000484680B2414689B2491E884208DA6846FF
:103E8000494689B2405C90EA0A0A19F10109EFE754
:103E90006846414689B2084400F801ACADF8068195
:103EA000684606F090FE42B0BDE8F087FEB504001B
:103EB0000D0016001F008DF8064000968DF8075083
:103EC000ADF80470684606F06FFEF7BD2DE9F041CD
:103ED00004000D00002600275FF00008280080B2D3
:103EE00000284DD006F051FE012849D12000C0B273
:103EF000002805D0022813D00AD3032818D018E0D0
:103F00002A48818E884600210F00C08D060010E0EF
:103F10002948818E884602210F00C08D060008E0E6
:103F20002848818E884604210F00C08D060000E0DD
:103F3000FFE72800310080B289B2884220D22348AE
:103F4000012141732349097801710773A0F80880A2
:103F5000468101892A0092B2914203D30189491B0B
:103F6000C18003E001898919491BC18007210B48E1
:103F7000FFF7C1F818490220FEF7C6FC012004E053
:103F800016490220FEF7C0FC0020BDE8F081704712
:103F900080B507F013FC01BD552B00204403002021
:103FA000640C0108CC070020A82A00209C020020F5
:103FB0005C0A0108800A0108D4020020A40A010852
:103FC000C80A01080C030020EC0A0108502A00204E
:103FD000100B01085F2B002028190108340B010881
:103FE0002DE9FE4F04000D000020002600270021CF
:103FF000ADF804105FF001085FF000095FF0000AFF
:1040000021680978212901D101218A465FF0000B3E
:10401000584600B2A988884272DA20685146C9B26F
:10402000405C29685A4612B2895C884265D10120F9
:1040300080465046C0B2401C060000208146002049
:10404000ADF80400300000B2A18888424ADA206846
:10405000310009B2405C7C281ED1BDF90400002863
:1040600004D10120814616EB0B00070001A8009047
:104070003B001BB22A002100701C00B200F059F86E
:1040800080464046C0B2012806D15146C9B25846C2
:1040900000B200F03DF839E04846C0B200280FD128
:1040A0002068310009B2405C29685A4612B21144B6
:1040B000320012B2895C884202D00020804611E0B2
:1040C0004846C0B2002801D1761CBBE73000BDF9DC
:1040D000041000B2884203DABDF904000600B1E71B
:1040E000761CAFE74046C0B2012806D15146C9B29E
:1040F000584600B200F00CF808E01BF1010B87E70E
:104100005146C9B25FF0FF3000F002F8BDE8FE8F03
:1041100002000800C0B2002802D1100000B207E07F
:10412000100000B2002802D45FF0FF3000E0002051
:104130007047F0B50400059D0120002637003FB20E
:1041400007FA84F7B1F804C067453ADA0F68A44665
:104150000FFA8CFC6744B4460FFA8CFC17F80C700D
:104160007C2F03D137192F8000B22BE09788B446FB
:104170000FFA8CFC0CFA83FC674506DAB2F904707E
:104180007F1C2F805FF0FF3738000F68A4460FFABE
:104190008CFC6744B4460FFA8CFC17F80C70D2F80C
:1041A00000C09E460FFA8EFEF444B6460FFA8EFE0D
:1041B0001CF80EC0674502D05FF0FF373800761C50
:1041C000BCE700B2F0BD000038B50400DFF87C0C9D
:1041D000002181800E2102688388D1548188491C86
:1041E0008180012102688388D1548188491C8180A3
:1041F000012102688388D1548188491C818081888B
:10420000006801F0FBF80822DFF8441C0120FEF7EB
:104210006AFBDFF8405CAA8800212868FEF757FB9C
:104220000020A880DFF8305C01212800FEF763FF42
:104230000C212800FEF76EFF05212800FEF75BFF2A
:104240000D212800FEF757FF07212800FEF762FF27
:10425000DFF81C0DC078022803D008212800FEF7E3
:104260004AFF012032BD10B5040001F047FBDFF822
:10427000701C0878002802D00878012804D1DFF8E3
:10428000640C0168491C01602100C9B2DFF8C80B49
:10429000FEF740FF012010BD10B50400DFF8B41B8D
:1042A0008888002810D0DFF8400C02888B889A425A
:1042B00008D1002101800221DFF89C0BFEF71BFFD3
:1042C000012008E0898801802100C9B2DFF8880B4D
:1042D000FEF720FF012010BD2DE9F14F92B0002420
:1042E000002500208DF804000020ADF806005FF0E6
:1042F000000B00208DF8050000265FF000095FF03C
:10430000000A0027DFF84C8B0022B8F80410C9B26D
:10431000D8F8000001F09AFDD8F80000B8F80410B1
:10432000084410F8010CD8F80010B8F80420114423
:1043300011F8021C51EA0021ADF80C10B8F8040085
:10434000821E92B2D8F800100DF1060006F0C1FFEF
:10435000BDF80600BDF80C10884203D101208DF88D
:10436000040007E0DFF8080C0079002802D10120E2
:104370008DF804009DF80400012840F01285B8F87B
:104380000400801E210089B2891C8842C0F2008589
:104390002000441CD8F8001080B2085C0B2800F004
:1043A000C9810C2800F000820D2800F04A820E28F6
:1043B00000F0B280152800F08481162827D01B2831
:1043C00000F06A821C2800F08D821E2800F06B84A9
:1043D0001F2800F0B084202839D0212800F0BA80AE
:1043E000222800F0E380232800F02281602800F0DA
:1043F0004283612800F05F83622800F09383632882
:1044000000F0C883642800F0038400F0BFBCD8F833
:104410000000210089B2405C0500641C2800C0B285
:10442000012813D1B8F80400801E2900C9B211FA7E
:1044300084F188420ADBD8F80000210089B2405C90
:1044400002F06FFA54FA85F40120070097E7D8F8D4
:104450000000210089B2405C0500641C2800C0B245
:10446000152858DAB8F80400801E2900C9B211FADC
:1044700084F188424FDBDFF880BC9BF80000002805
:104480003ED102F05EFE002001002A00C9B2D2B285
:1044900091422ED2D8F800100200D2B212FA84F261
:1044A000895C0E00D8F800100200D2B212FA84F231
:1044B0001144497889463100C9B20B2917DA310015
:1044C000C9B21BF8011051FA89F10B290ADA31003F
:1044D000C9B21BF8011019EB01013200D2B20BF87E
:1044E000021004E00A213200D2B20BF80210801C44
:1044F000CAE702F053FA54FA85F4012007000AE0F3
:104500001522DFF8F81B0120FEF7EDF90222C6A103
:104510000120FEF7E8F932E7D8F80000210089B25F
:10452000405C0500641C2800C0B2012811D1B8F815
:104530000400801E2900C9B211FA84F1884208DB08
:10454000D8F80000210089B2405C012801D101F0B7
:104550009AF914E7D8F80000210089B2405C050000
:10456000641C2800C0B201281FD1B8F80400801EC6
:104570002900C9B211FA84F1884216DBD8F800008C
:10458000210089B2405C02280FDA0020009001234C
:104590000122D8F80000210089B2415C012004F01A
:1045A000DCF854FA85F401200700E8E6D8F80000AA
:1045B000210089B2405C0500641C2800C0B20128BB
:1045C00035D1B8F80400801E2900C9B211FA84F16F
:1045D00088422CDBD8F80000210089B2405C022818
:1045E00025DADFF8340C807C00280CD00020009005
:1045F00001230122D8F80000210089B2415C052086
:1046000004F0ABF80FE0D8F80000210089B2405C5C
:10461000DFF8081C0873012000900123012200210B
:10462000052004F09AF854FA85F401200700A6E664
:10463000D8F80000210089B2405C0500641C280005
:10464000C0B201283CD1B8F80400801E2900C9B2CC
:1046500011FA84F1884233DBD8F80000210089B2D6
:10466000405C02282CDAD8F80000210089B2405CB6
:10467000002805D10321DFF8A80BFEF73CFD1BE065
:10468000D8F80000210089B2405C012814D1DFF87D
:10469000880B807C00280AD0DFF85C0C007803F0DF
:1046A00087FE0221DFF8780BFEF725FD04E00321E9
:1046B000DFF86C0BFEF71FFD54FA85F401200700AC
:1046C0005DE6D8F80000210089B2405C0500641C5A
:1046D0002800C0B203282CD1B8F80400801E29009D
:1046E000C9B211FA84F1884223DBDFF8101CD8F834
:1046F0000000220092B2805C888088880002888056
:104700008A88D8F8000023009BB2184440780243FE
:104710008A80D8F80000220092B210448078887114
:104720000321DFF8DC0BFEF7E6FC54FA85F40120E8
:10473000070024E6D8F80000210089B2405C05009B
:10474000641CB8F80400801E2900C9B211FA84F173
:10475000884228DBDFF8F426002090800B201168C7
:104760009388C8549088401C908010689188455464
:104770009088401C90802800C0B200280DD0D8F846
:104780000000210089B2405C11689388C854641C01
:104790009088401C90806D1EEDE79188106800F0B5
:1047A0002DFE01200700EAE5D8F80000210089B2BB
:1047B000405C0500641CB8F80400801E2900C9B2E2
:1047C00011FA84F188423BDB142100220DF1300BF9
:1047D0005846FEF7EDFB5FF0000B0CA80C215A4683
:1047E000D2B281541BF1010BDFF80C1C0A895B4625
:1047F000DBB2C2541BF1010B00221300DBB2B1F893
:1048000008C09BB2634511D24B6894465FFA8CFC9A
:1048100013F80C30DC465FFA8CFC00F80C301BF10E
:10482000010B521CE9E700BF0D0A00005946C9B24E
:1048300089B20CA800F049FE54FA85F40120070063
:104840009DE5D8F80000210089B2405C0500641C99
:10485000B8F80400801E2900C9B211FA84F1884218
:1048600019DB2900C9B289B2D8F80000220092B23F
:10487000104401F05BF82900C9B2891C89B2D8F84C
:104880000000220092B21044801E00F01EFE54FA76
:1048900085F40120070072E5D8F80000210089B2F4
:1048A000405C0500641C2800C0B2012819D1B8F88A
:1048B0000400801E2900C9B211FA84F1884210DB7D
:1048C000D8F80000210089B2405C022805DADFF840
:1048D000A006002101700021417054FA85F40120E6
:1048E00007004CE5D8F80000210089B2405C0500C3
:1048F000641C2800C0B2062868D1B8F80400801EE5
:104900002900C9B211FA84F188425FDBD8F80000AF
:10491000210089B2405C8DF80B00D8F8000021001E
:1049200089B2084440788DF80900D8F800002100C9
:1049300089B2084480788DF80A00D8F80000210078
:1049400089B20844C0788DF81C00D8F80000210016
:1049500089B2084400798DF81D00D8F800002100C4
:1049600089B2084440798DF81E009DF80B0064213F
:1049700090FBF1F201FB12008DF816009DF8090082
:104980008DF815009DF80A008DF814009DF81C00A4
:104990008DF810009DF81D008DF811009DF81E0087
:1049A0008DF8120001200700012304A807C8FEF7B4
:1049B0005FFCDFF8E01BB0FBF1F0801D0721B0FBCE
:1049C000F1F201FB1200401C8DF808009DF80B006D
:1049D00014284ADB9DF80900002846D09DF80900FC
:1049E0000D2842DA9DF80A0000283ED09DF80A0002
:1049F00020283ADA9DF81C00182830DA9DF81D00AE
:104A00003C282CDA9DF81E003C2828DA9DF8080086
:104A100002281EDB9DF8080009281ADADFF8FCBB23
:104A2000002207A95846FEF7D9FC002202A95846E1
:104A3000FEF77BFD2900C9B2891C89B2D8F80000B5
:104A4000220092B21044801E00F03FFD54FA85F41B
:104A500010E00421DFF8C80B00F0D0FC0AE00421CC
:104A6000DFF8BC0B00F0CAFC04E00421DFF8B00B57
:104A700000F0C4FC83E4D8F80000210089B2405C57
:104A80000500641C2800C0B2012813D1B8F8040046
:104A9000801E2900C9B211FA84F188420ADBD8F8D5
:104AA0000000210089B2405C00F090FF54FA85F4C8
:104AB0000120070063E4D8F80000210089B2405CBF
:104AC0000500641C2800C0B201282AD1B8F80400EF
:104AD000801E2900C9B211FA84F1884221DBDFF877
:104AE00018084178D8F80000220092B2805C03F0E8
:104AF000D1FD01280CD12900C9B2891C89B2D8F88E
:104B00000000220092B21044801E00F0DEFC04E09F
:104B10000421DFF80C0B00F071FC54FA85F401203D
:104B200007002CE4D8F80000210089B2405C0500A1
:104B3000641C2800C0B201282AD1B8F80400801EE5
:104B40002900C9B211FA84F1884221DBD8F80000AB
:104B5000210089B2415CDFF8A007007803F09AFDDC
:104B600001280CD12900C9B2891C89B2D8F80000EB
:104B7000220092B21044801E00F0A7FC04E0042141
:104B8000DFF89C0A00F03AFC54FA85F40120070093
:104B9000FFF7F5BBD8F80000210089B2405C0500A2
:104BA000641C2800C0B2012830D1B8F80400801E6F
:104BB0002900C9B211FA84F1884227DBDFF8680DB9
:104BC00001790091C37882784178D8F80000A44632
:104BD0001FFA8CFC10F80C0000F0B0FF01280CD17B
:104BE0002900C9B2891C89B2D8F80000220092B20B
:104BF0001044801E00F069FC04E00421DFF8200A64
:104C000000F0FCFB54FA85F401200700FFF7B7BB66
:104C1000D8F80000210089B2405C0500641C28001F
:104C2000C0B204283DD1B8F80400801E2900C9B2E2
:104C300011FA84F1884234DBD8F80000210089B2EF
:104C40000844C0780090D8F80000210089B20844D8
:104C50008378D8F80000210089B208444278D8F857
:104C60000000210089B2415CDFF8BC0C007800F044
:104C700065FF01280CD12900C9B2891C89B2D8F876
:104C80000000220092B21044801E00F01EFC04E0DE
:104C90000421DFF88C0900F0B1FB54FA85F40120FF
:104CA0000700FFF76CBBD8F80000210089B2405C18
:104CB0000500641C2800C0B202283AD1B8F80400EC
:104CC000801E2900C9B211FA84F1884231DBD8F87C
:104CD0000000210089B2415C0902D8F800002200DE
:104CE00092B21044407801438A46DFF83C0C0078C9
:104CF000012815D19E48C078022811D07848417803
:104D0000007800F000FC012804D1504680B200F089
:104D1000F9FA0AE00421DFF8080900F06FFB04E06B
:104D20000421DFF8FC0800F069FB54FA85F4002048
:104D30000700FFF724BBD8F80000210089B2405CCF
:104D40000500641C2800C0B201281DD1B8F8040079
:104D5000801E2900C9B211FA84F1884214DBD8F808
:104D60000000210089B2405C012804D103213A48A7
:104D7000FEF7C1F904E00421DFF8A40800F03EFBCF
:104D800054FA85F401200700FFF7F9BAFFF7F7BAE4
:104D90009DF80500012818D1022193A000F095FB91
:104DA00013E00521DFF81C0C00F08FFB9DF80400D8
:104DB00000280AD10F22DFF8101C0120FDF793FD17
:104DC00002228AA10120FDF78EFD3800C0B2012821
:104DD00012D1DFF89CB19BF80300012806D0012016
:104DE00000F082FF0A211C48FEF785F900208BF8AD
:104DF000000000208BF80100B8F80400DFF85C1C0C
:104E00000870B8F804200021D8F80000FDF75FFD15
:104E10000020A8F8040001210F48FEF76CF90120DA
:104E200013B0BDE8F08F38B504000B4D70488178A1
:104E30004EF660204143A96300F0F4FB2100C9B2A3
:104E40002800FEF767F9012032BD0000BC040020F5
:104E50009016010890090020C4030020F0B58DB021
:104E600004000026DFF8305C280006F0B9FD0028B9
:104E700003D1DFF8705C002700E00127280006F06E
:104E8000AFFD002823D03800C0B201280AD101228A
:104E90006946280006F027FD9DF83210684600F0AC
:104EA00096FA0DE03248C078012809D101226946FE
:104EB000280006F018FD9DF83210684600F087FAC9
:104EC0000621DFF8980DFEF725F9012006E0210004
:104ED000C9B2DFF8880DFEF71DF901200DB0F0BD55
:104EE000C02A0020142B00203E2B0020F0B58DB0EE
:104EF00004000026DFF8A05B280006F071FD002802
:104F000003D1DFF8E05B002700E00127280006F06E
:104F100067FD002806D10521DFF8400DFEF7EBF80C
:104F2000012022E03800C0B201280AD101226946DE
:104F3000280006F0D8FC9DF83210684600F047FAC9
:104F40000DE00B48C078012809D1012269462800EC
:104F500006F0C9FC9DF83210684600F038FA0621C8
:104F6000DFF8F80CFEF7D6F801200DB0F0BD000018
:104F7000B404002010B5040000F085FC012010BD31
:104F800038B504001A4908780A2805DB0921DFF83A
:104F9000CC0CFEF7B0F825E00878401C0870DFF86C
:104FA000980B002282801B22036885885A558288CC
:104FB000521C82800122036885885A558288521CBF
:104FC0008280097802688388D1548188491C818055
:104FD0008188006800F012FA2100C9B2DFF87C0C69
:104FE000FEF798F8012032BD4F4B00000D0A00007B
:104FF000B404002038B50400DFF8641C48780228A7
:105000004CDADFF8605C2878002831D10120DFF825
:10501000581C087101202870032000F065FE012251
:105020008021DFF8480C03F02BFF012000900123C2
:1050300001220021012003F090FBDFF8205C210019
:10504000C9B22800FEF766F808212800FEF774F8B8
:105050001822DFF8901C0120FDF745FC0222A5A1D3
:105060000120FDF740FC04F063FD04F0A1FC2FE0FB
:10507000002008704878401C4870002000F034FE82
:105080000020287000228021DFF8E00B03F0F8FEFA
:105090000A21DFF8C80BFEF73DF819E00020087080
:1050A00000204870002000F01FFE0020DFF8B41B35
:1050B000087000228021DFF8B40B03F0E1FE40F617
:1050C000B83000F066F90A21DFF8900BFEF722F8FD
:1050D000012032BD10B504000821DFF8800BFEF777
:1050E0000AF80020DFF8801B08710020DFF8701B31
:1050F0000870012010BD00009C290020F00E01085E
:1051000070B50400DFF85C5CA879152845DBDFF892
:10511000506BF07802282DD0DFF80C0800780128B9
:1051200028D16978287800F0EEF9012822D130786A
:1051300006281FDAF07801281CD1DFF8FC090021CD
:1051400081801D2102688388D1548188491C818017
:10515000012102688388D1548188491C8180012102
:1051600002688388D1548188491C818081880068C5
:1051700000F044F9F078022818D1DFF8AC07007885
:10518000012813D16978287800F006FA01280DD19A
:105190004FF47A7000F0FDF808E0DFF8C40AC07838
:1051A000022803D14FF47A7000F0F3F8DFF8B00A68
:1051B000C078022804D10721DFF8A00AFDF7AAFF72
:1051C0002100C9B2DFF8940AFDF7A4FF012070BDE9
:1051D00010B50400DFF8901A0878002813D1487839
:1051E000002810D1887800280DD1C87800280AD16D
:1051F0000879002807D1DFF8EC0806F0F1FB002859
:1052000001D100F040FB2100C9B2DFF8500AFDF7E0
:1052100072FF012010BD000088020020602A0020DB
:10522000C404002038B50400DFF8382B9079142826
:1052300003DA0020DFF80C1C0870DFF80C1C08787B
:10524000002812D11078092808D01078152805D028
:1052500010780C2802D01078122814D10020DFF822
:10526000E42B1070012008700DE010780B2808D096
:105270001078172805D010780F2802D0107814283D
:1052800001D100200870DFF8BC5B287800281ED10F
:10529000DFF8A408002181801C2102688388D15492
:1052A0008188491C8180012102688388D1548188CA
:1052B000491C8180012102688388D1548188491C5E
:1052C00081808188006800F099F801202870210011
:1052D000C9B2DFF88809FDF71DFF012032BD10B506
:1052E000040000224021DFF8F00B03F0C9FD01208B
:1052F00010BD00000D0A0000A0090020EC2A0020CB
:10530000BC05002038B50400DFF854090021017005
:10531000002141700120DFF8501908710020009031
:10532000012301220021012003F017FA0020009040
:10533000012301220021052003F00FFA04F0F8FBFD
:1053400004F036FB200080B200F01EFD022000F0C9
:10535000CBFC00228021DFF8140903F091FDDFF877
:10536000FC5808212800FDF7E7FE09212800FDF779
:10537000E3FE0A212800FDF7DFFE1722DFF85C1BA1
:105380000120FDF7B0FA0222A3A10120FDF7ABFA3C
:1053900031BD10B5040004F0CBFB04F009FB200084
:1053A00080B200F0F1FC002000F09EFC0A21DFF842
:1053B000AC08FDF7AFFE1422DFF8241B0120FDF737
:1053C00092FA022294A10120FDF78DFA10BD38B5A2
:1053D00004000D002900C9B289B2200005F0A2FF27
:1053E00001222900C9B2200000F030FD0721DFF8BA
:1053F0006C08FDF78FFE31BD2009002038B5040090
:105400000D000020ADF800002A0092B2210068468D
:1054100005F05FFFBDF80000290089B260546D1CE3
:105420000020290089B260546D1C20780A3810D001
:10543000263802280DD9C01E02D00D38012811D8F7
:1054400001232A00D2B22100DFF84C0600F013F845
:1054500010E000232A00D2B22100DFF8880600F015
:105460000AF807E000232A00D2B22100DFF828065C
:1054700000F001F831BDF8B59AB004000D00160037
:105480001F008DF86660002001003200C9B2D2B260
:10549000914208D20100C9B2695C0DAA0300DBB2D7
:1054A000D154401CF0E7200006F09AFA1D2804DBD6
:1054B00001226946200006F016FA3A00D2B20DA980
:1054C000200006F0FBF91BB0F0BD38B504000D005C
:1054D000DFF8640600218180290089B2322911DABF
:1054E00081882A0092B2914208D28188615C026868
:1054F0008388D1548188491C8180F1E781880068C4
:10550000FFF77CFF31BDF0B50200002600275FF0F9
:10551000000C3C25DFF810E49EF801309EF80200F4
:1055200005FB03039EF803409EF8040005FB0404FA
:105530001000C0B205FB00F555FA81F5200080B2DD
:10554000002801D0641E01E004F29F5418002600D8
:1055500080B2B6B2B0420DD328001E0080B2B6B2FF
:10556000B04205D22800260080B2B6B2B0420FD2B7
:1055700001200EE028001E0080B2B6B2B04207D370
:105580002800260080B2B6B2B04201D2012000E06D
:105590000020F0BD80510100F0B50200002400257C
:1055A00000265FF03C0CDFF840E99EF801309EF8E1
:1055B00002000CFB03039EF803709EF804000CFB32
:1055C00007071000C0B20CFB00FC5CFA81FC38003D
:1055D0009E4680B21FFA8EFE70450DD260461C00BA
:1055E00080B2A4B2A04215D260463C0080B2A4B200
:1055F000A0420FD301200EE060461C0080B2A4B28E
:10560000A04205D360463C0080B2A4B2A04201D3C0
:10561000012000E00020F0BD0D0A00002829002034
:105620003019010838B5DFF81005002181800A2102
:1056300002688388D1548188491C818000210268D6
:105640008388D1548188491C8180DFF8A0188A7C26
:10565000036884881A558288521C8280DFF890285B
:10566000537804688588635583885B1C83805379ED
:1056700004688588635583885B1C838092790368FE
:1056800084881A558288521C82800022036884888C
:105690001A558288521C82800022036884881A5519
:1056A0008288521C8280DFF84C28B2F900301B122D
:1056B00004688588635583885B1C8380128803682F
:1056C00084881A558288521C8280DFF82C28B2F90F
:1056D00004301B1204688588635583885B1C8380B3
:1056E0009288036884881A558288521C8280FF221F
:1056F000036884881A558288521C82804A8892B234
:10570000120A036884881A558288521C82804A884B
:10571000036884881A558288521C82808A8892B2D3
:10572000120A036884881A558288521C82808A88EB
:10573000036884881A558288521C82800A7C036818
:1057400084881A558288521C82808A6812120368E3
:1057500084881A558288521C82808A6803688488EB
:105760001A558288521C8280CA68120E0368848887
:105770001A558288521C8280CA68120C0368848879
:105780001A558288521C8280CA68120A036884886B
:105790001A558288521C8280CA68036884881A5508
:1057A0008288521C8280497C02688388D154818817
:1057B000491C8180DFF844170A78036884881A55E9
:1057C0008288521C8280497802688388D1548188FB
:1057D000491C818054490A78036884881A55828854
:1057E000521C82804A78036884881A558288521C29
:1057F00082808A78036884881A558288521C828045
:10580000CA78036884881A558288521C8280097974
:1058100002688388D1548188491C8180DFF844154F
:105820008A79036884881A558288521C82804A7952
:10583000036884881A558288521C82800A7903681A
:1058400084881A558288521C82800A78036884886A
:105850001A558288521C82804A78036884881A55B7
:105860008288521C8280897802688388D15481881A
:10587000491C81808188891E026851708188006876
:10588000FFF7BCFD31BD3EB50521002201AC200073
:10589000FDF78EFB00240020ADF8000001AD0E20C6
:1058A0002100C9B26854641C01202100C9B26854A7
:1058B000641C00202100C9B26854641C2200D2B2CA
:1058C00092B201A9684605F004FDBDF80000210070
:1058D000C9B26854641C00202100C9B26854641C19
:1058E0002100C9B201A8FFF772FD0922DFF81016E6
:1058F0000120FCF7F8FFFCF710FD37BD10B5DFF80D
:10590000044601220121200003F0BAFA012005F02B
:1059100051FA00220121200003F0B2FADFF8E80575
:1059200006F08EF810BD0000DC2A002070B586B0AD
:1059300004000D00280080B2152840DA162100224C
:105940006E463000FDF734FBAA208DF800002800D9
:105950008DF80100DFF8B4650020308114220021A9
:105960007068FCF7B4FF00200100C9B22A0089B2B8
:1059700092B2914216D20100C9B2142912DA010082
:10598000C9B2615C6A460300DBB21A44917001003F
:10599000C9B2615C72683389D1543189491C318143
:1059A000401CE1E74FF4005004F05BFFAA1C92B2E8
:1059B0004FF40051684605F018F8012000E000207F
:1059C00006B070BD38190108EC1101087CB504005F
:1059D0002000C0B2002801D101200400A04DAC700D
:1059E000022100226E463000FDF7E2FA5248002103
:1059F0008180602102688388D1548188491C81801C
:105A0000012102688388D1548188491C8180A9784A
:105A100002688388D1548188491C8180818800680C
:105A2000FFF7ECFCAA208DF80000A8788DF80100A3
:105A30004FF4C04004F015FF02224FF4C041684605
:105A400004F0D3FFC848AA784EF660214A43826327
:105A50000321FDF75FFB012076BD0000592B0020DC
:105A60001CB5022100226C462000FDF7A1FA02229B
:105A70004FF4C041684604F0D8FF9DF80000AA2802
:105A800005D19DF80100DFF88814887003E0052037
:105A9000DFF87C14887013BDCC29002038B50400D1
:105AA0002000C0B202281ADA022100226D46280026
:105AB000FDF77EFADFF858040471AA218DF8001072
:105AC00000798DF801004FF4104004F0CAFE022264
:105AD0004FF41041684604F088FF012000E00020E8
